{
	"Corporation/Employees.sol": {
		"Employees": {
			"abi": [
				{
					"anonymous": false,
					"inputs": [
						{
							"indexed": true,
							"internalType": "address",
							"name": "employee",
							"type": "address"
						},
						{
							"indexed": false,
							"internalType": "uint256",
							"name": "dailyWage",
							"type": "uint256"
						}
					],
					"name": "EmployeeAddition",
					"type": "event"
				},
				{
					"anonymous": false,
					"inputs": [
						{
							"indexed": true,
							"internalType": "address",
							"name": "employee",
							"type": "address"
						}
					],
					"name": "EmployeeRemoval",
					"type": "event"
				},
				{
					"anonymous": false,
					"inputs": [
						{
							"indexed": true,
							"internalType": "address",
							"name": "employee",
							"type": "address"
						},
						{
							"indexed": false,
							"internalType": "uint256",
							"name": "dailyWage",
							"type": "uint256"
						}
					],
					"name": "EmployeeUpdate",
					"type": "event"
				},
				{
					"anonymous": false,
					"inputs": [
						{
							"indexed": true,
							"internalType": "address",
							"name": "employee",
							"type": "address"
						},
						{
							"indexed": false,
							"internalType": "uint256",
							"name": "amount",
							"type": "uint256"
						}
					],
					"name": "Payout",
					"type": "event"
				},
				{
					"stateMutability": "nonpayable",
					"type": "fallback"
				},
				{
					"inputs": [
						{
							"internalType": "address",
							"name": "_employee",
							"type": "address"
						},
						{
							"internalType": "uint16",
							"name": "_dailyWage",
							"type": "uint16"
						}
					],
					"name": "AddEmployee",
					"outputs": [
						{
							"internalType": "bool",
							"name": "",
							"type": "bool"
						}
					],
					"stateMutability": "nonpayable",
					"type": "function"
				},
				{
					"inputs": [
						{
							"internalType": "address",
							"name": "_employee",
							"type": "address"
						}
					],
					"name": "EmployeeProfile",
					"outputs": [
						{
							"internalType": "uint16",
							"name": "dailyWage",
							"type": "uint16"
						},
						{
							"internalType": "uint32",
							"name": "daysUnpaid",
							"type": "uint32"
						},
						{
							"internalType": "uint32",
							"name": "lastPayoff",
							"type": "uint32"
						},
						{
							"internalType": "bool",
							"name": "isEmployee",
							"type": "bool"
						}
					],
					"stateMutability": "view",
					"type": "function"
				},
				{
					"inputs": [],
					"name": "Name",
					"outputs": [
						{
							"internalType": "string",
							"name": "",
							"type": "string"
						}
					],
					"stateMutability": "view",
					"type": "function"
				},
				{
					"inputs": [],
					"name": "Payoff",
					"outputs": [
						{
							"internalType": "bool",
							"name": "",
							"type": "bool"
						}
					],
					"stateMutability": "nonpayable",
					"type": "function"
				},
				{
					"inputs": [
						{
							"internalType": "address",
							"name": "_employee",
							"type": "address"
						}
					],
					"name": "RemoveEmployee",
					"outputs": [
						{
							"internalType": "bool",
							"name": "",
							"type": "bool"
						}
					],
					"stateMutability": "nonpayable",
					"type": "function"
				},
				{
					"inputs": [
						{
							"internalType": "address",
							"name": "_employee",
							"type": "address"
						},
						{
							"internalType": "uint16",
							"name": "_dailyWage",
							"type": "uint16"
						}
					],
					"name": "UpdateEmployee",
					"outputs": [
						{
							"internalType": "bool",
							"name": "",
							"type": "bool"
						}
					],
					"stateMutability": "nonpayable",
					"type": "function"
				},
				{
					"stateMutability": "payable",
					"type": "receive"
				}
			],
			"devdoc": {
				"kind": "dev",
				"methods": {},
				"version": 1
			},
			"evm": {
				"assembly": "    /* \"Corporation/Employees.sol\":504:7426  contract Employees{... */\n  mstore(0x40, 0x80)\n    /* \"Corporation/Employees.sol\":1164:1169  false */\n  0x00\n    /* \"Corporation/Employees.sol\":1133:1169  bool private reentrantLocked = false */\n  dup1\n  sload\n  not(0xff)\n  and\n  swap1\n  sstore\n    /* \"Corporation/Employees.sol\":504:7426  contract Employees{... */\n  callvalue\n  dup1\n  iszero\n  tag_1\n  jumpi\n  0x00\n  dup1\n  revert\ntag_1:\n  pop\n  dataSize(sub_0)\n  dup1\n  dataOffset(sub_0)\n  0x00\n  codecopy\n  0x00\n  return\nstop\n\nsub_0: assembly {\n        /* \"Corporation/Employees.sol\":504:7426  contract Employees{... */\n      mstore(0x40, 0x80)\n      jumpi(tag_1, lt(calldatasize, 0x04))\n      shr(0xe0, calldataload(0x00))\n      dup1\n      0x8052474d\n      gt\n      tag_9\n      jumpi\n      dup1\n      0x8052474d\n      eq\n      tag_6\n      jumpi\n      dup1\n      0x91874e93\n      eq\n      tag_7\n      jumpi\n      dup1\n      0xe68a81c9\n      eq\n      tag_8\n      jumpi\n      jump(tag_2)\n    tag_9:\n      dup1\n      0x09d30d6d\n      eq\n      tag_3\n      jumpi\n      dup1\n      0x52d6abdc\n      eq\n      tag_4\n      jumpi\n      dup1\n      0x66a320b5\n      eq\n      tag_5\n      jumpi\n      jump(tag_2)\n    tag_1:\n      jumpi(tag_2, calldatasize)\n        /* \"Corporation/Employees.sol\":7094:7137  pt.GetContractAddress(\".Corporation.Clerk\") */\n      mload(0x40)\n      0xc75ffd8600000000000000000000000000000000000000000000000000000000\n      dup2\n      mstore\n        /* \"#utility.yul\":216:218   */\n      0x20\n        /* \"Corporation/Employees.sol\":7094:7137  pt.GetContractAddress(\".Corporation.Clerk\") */\n      0x04\n      dup3\n      add\n        /* \"#utility.yul\":198:219   */\n      mstore\n        /* \"#utility.yul\":255:257   */\n      0x12\n        /* \"#utility.yul\":235:253   */\n      0x24\n      dup3\n      add\n        /* \"#utility.yul\":228:258   */\n      mstore\n        /* \"#utility.yul\":294:314   */\n      0x2e436f72706f726174696f6e2e436c65726b0000000000000000000000000000\n        /* \"#utility.yul\":274:292   */\n      0x44\n      dup3\n      add\n        /* \"#utility.yul\":267:315   */\n      mstore\n        /* \"Corporation/Employees.sol\":7141:7151  msg.sender */\n      caller\n      swap1\n        /* \"Corporation/Employees.sol\":1310:1352  0x163342FAe2bBe3303e5A9ADCe4BC9fb44d0FF062 */\n      0x163342fae2bbe3303e5a9adce4bc9fb44d0ff062\n      swap1\n        /* \"Corporation/Employees.sol\":7094:7115  pt.GetContractAddress */\n      0xc75ffd86\n      swap1\n        /* \"#utility.yul\":332:350   */\n      0x64\n      add\n        /* \"Corporation/Employees.sol\":7094:7137  pt.GetContractAddress(\".Corporation.Clerk\") */\n      0x20\n      mload(0x40)\n      dup1\n      dup4\n      sub\n      dup2\n      dup7\n      gas\n      staticcall\n      iszero\n      dup1\n      iszero\n      tag_15\n      jumpi\n      returndatasize\n      0x00\n      dup1\n      returndatacopy\n      revert(0x00, returndatasize)\n    tag_15:\n      pop\n      pop\n      pop\n      pop\n      mload(0x40)\n      returndatasize\n      not(0x1f)\n      0x1f\n      dup3\n      add\n      and\n      dup3\n      add\n      dup1\n      0x40\n      mstore\n      pop\n      dup2\n      add\n      swap1\n      tag_16\n      swap2\n      swap1\n      tag_17\n      jump\t// in\n    tag_16:\n        /* \"Corporation/Employees.sol\":7094:7151  pt.GetContractAddress(\".Corporation.Clerk\") != msg.sender */\n      0xffffffffffffffffffffffffffffffffffffffff\n      and\n      eq\n        /* \"Corporation/Employees.sol\":7091:7323  if(pt.GetContractAddress(\".Corporation.Clerk\") != msg.sender){... */\n      tag_19\n      jumpi\n        /* \"Corporation/Employees.sol\":7172:7181  msg.value */\n      callvalue\n        /* \"Corporation/Employees.sol\":7172:7185  msg.value > 0 */\n      iszero\n        /* \"Corporation/Employees.sol\":7169:7293  if(msg.value > 0)... */\n      tag_19\n      jumpi\n        /* \"Corporation/Employees.sol\":7220:7263  pt.GetContractAddress(\".Corporation.Vault\") */\n      mload(0x40)\n      0xc75ffd8600000000000000000000000000000000000000000000000000000000\n      dup2\n      mstore\n        /* \"#utility.yul\":978:980   */\n      0x20\n        /* \"Corporation/Employees.sol\":7220:7263  pt.GetContractAddress(\".Corporation.Vault\") */\n      0x04\n      dup3\n      add\n        /* \"#utility.yul\":960:981   */\n      mstore\n        /* \"#utility.yul\":1017:1019   */\n      0x12\n        /* \"#utility.yul\":997:1015   */\n      0x24\n      dup3\n      add\n        /* \"#utility.yul\":990:1020   */\n      mstore\n        /* \"#utility.yul\":1056:1076   */\n      0x2e436f72706f726174696f6e2e5661756c740000000000000000000000000000\n        /* \"#utility.yul\":1036:1054   */\n      0x44\n      dup3\n      add\n        /* \"#utility.yul\":1029:1077   */\n      mstore\n        /* \"Corporation/Employees.sol\":1310:1352  0x163342FAe2bBe3303e5A9ADCe4BC9fb44d0FF062 */\n      0x163342fae2bbe3303e5a9adce4bc9fb44d0ff062\n      swap1\n        /* \"Corporation/Employees.sol\":7220:7241  pt.GetContractAddress */\n      0xc75ffd86\n      swap1\n        /* \"#utility.yul\":1094:1112   */\n      0x64\n      add\n        /* \"Corporation/Employees.sol\":7220:7263  pt.GetContractAddress(\".Corporation.Vault\") */\n      0x20\n      mload(0x40)\n      dup1\n      dup4\n      sub\n      dup2\n      dup7\n      gas\n      staticcall\n      iszero\n      dup1\n      iszero\n      tag_23\n      jumpi\n      returndatasize\n      0x00\n      dup1\n      returndatacopy\n      revert(0x00, returndatasize)\n    tag_23:\n      pop\n      pop\n      pop\n      pop\n      mload(0x40)\n      returndatasize\n      not(0x1f)\n      0x1f\n      dup3\n      add\n      and\n      dup3\n      add\n      dup1\n      0x40\n      mstore\n      pop\n      dup2\n      add\n      swap1\n      tag_24\n      swap2\n      swap1\n      tag_17\n      jump\t// in\n    tag_24:\n        /* \"Corporation/Employees.sol\":7204:7270  payable(address(pt.GetContractAddress(\".Corporation.Vault\"))).call */\n      0xffffffffffffffffffffffffffffffffffffffff\n      and\n        /* \"Corporation/Employees.sol\":7279:7288  msg.value */\n      callvalue\n        /* \"Corporation/Employees.sol\":7204:7293  payable(address(pt.GetContractAddress(\".Corporation.Vault\"))).call{value : msg.value}(\"\") */\n      mload(0x40)\n      0x00\n      mload(0x40)\n      dup1\n      dup4\n      sub\n      dup2\n      dup6\n      dup8\n      gas\n      call\n      swap3\n      pop\n      pop\n      pop\n      returndatasize\n      dup1\n      0x00\n      dup2\n      eq\n      tag_29\n      jumpi\n      mload(0x40)\n      swap2\n      pop\n      and(add(returndatasize, 0x3f), not(0x1f))\n      dup3\n      add\n      0x40\n      mstore\n      returndatasize\n      dup3\n      mstore\n      returndatasize\n      0x00\n      0x20\n      dup5\n      add\n      returndatacopy\n      jump(tag_28)\n    tag_29:\n      0x60\n      swap2\n      pop\n    tag_28:\n      pop\n      pop\n      pop\n        /* \"Corporation/Employees.sol\":7169:7293  if(msg.value > 0)... */\n    tag_19:\n        /* \"Corporation/Employees.sol\":504:7426  contract Employees{... */\n      stop\n    tag_2:\n      callvalue\n      dup1\n      iszero\n      tag_30\n      jumpi\n      0x00\n      dup1\n      revert\n    tag_30:\n      pop\n        /* \"Corporation/Employees.sol\":7378:7415  revert(\"Employees fallback reverted\") */\n      mload(0x40)\n      0x08c379a000000000000000000000000000000000000000000000000000000000\n      dup2\n      mstore\n        /* \"#utility.yul\":1535:1537   */\n      0x20\n        /* \"Corporation/Employees.sol\":7378:7415  revert(\"Employees fallback reverted\") */\n      0x04\n      dup3\n      add\n        /* \"#utility.yul\":1517:1538   */\n      mstore\n        /* \"#utility.yul\":1574:1576   */\n      0x1b\n        /* \"#utility.yul\":1554:1572   */\n      0x24\n      dup3\n      add\n        /* \"#utility.yul\":1547:1577   */\n      mstore\n        /* \"#utility.yul\":1613:1642   */\n      0x456d706c6f796565732066616c6c6261636b2072657665727465640000000000\n        /* \"#utility.yul\":1593:1611   */\n      0x44\n      dup3\n      add\n        /* \"#utility.yul\":1586:1643   */\n      mstore\n        /* \"#utility.yul\":1660:1678   */\n      0x64\n      add\n        /* \"Corporation/Employees.sol\":7378:7415  revert(\"Employees fallback reverted\") */\n    tag_33:\n      mload(0x40)\n      dup1\n      swap2\n      sub\n      swap1\n      revert\n        /* \"Corporation/Employees.sol\":3229:5356  function Payoff() public returns(bool){... */\n    tag_3:\n      callvalue\n      dup1\n      iszero\n      tag_35\n      jumpi\n      0x00\n      dup1\n      revert\n    tag_35:\n      pop\n      tag_36\n      tag_37\n      jump\t// in\n    tag_36:\n      mload(0x40)\n        /* \"#utility.yul\":1854:1868   */\n      swap1\n      iszero\n        /* \"#utility.yul\":1847:1869   */\n      iszero\n        /* \"#utility.yul\":1829:1870   */\n      dup2\n      mstore\n        /* \"#utility.yul\":1817:1819   */\n      0x20\n        /* \"#utility.yul\":1802:1820   */\n      add\n        /* \"Corporation/Employees.sol\":3229:5356  function Payoff() public returns(bool){... */\n    tag_38:\n      mload(0x40)\n      dup1\n      swap2\n      sub\n      swap1\n      return\n        /* \"Corporation/Employees.sol\":6565:6954  function RemoveEmployee(address _employee) public ownerOnly returns(bool){... */\n    tag_4:\n      callvalue\n      dup1\n      iszero\n      tag_40\n      jumpi\n      0x00\n      dup1\n      revert\n    tag_40:\n      pop\n      tag_36\n      tag_42\n      calldatasize\n      0x04\n      tag_43\n      jump\t// in\n    tag_42:\n      tag_44\n      jump\t// in\n        /* \"Corporation/Employees.sol\":5370:6118  function AddEmployee(address _employee, uint16 _dailyWage) public ownerOnly returns(bool){... */\n    tag_5:\n      callvalue\n      dup1\n      iszero\n      tag_46\n      jumpi\n      0x00\n      dup1\n      revert\n    tag_46:\n      pop\n      tag_36\n      tag_48\n      calldatasize\n      0x04\n      tag_49\n      jump\t// in\n    tag_48:\n      tag_50\n      jump\t// in\n        /* \"Corporation/Employees.sol\":1626:1680  string constant public Name = \".Corporation.Employees\" */\n    tag_6:\n      callvalue\n      dup1\n      iszero\n      tag_52\n      jumpi\n      0x00\n      dup1\n      revert\n    tag_52:\n      pop\n      tag_53\n      mload(0x40)\n      dup1\n      0x40\n      add\n      0x40\n      mstore\n      dup1\n      0x16\n      dup2\n      mstore\n      0x20\n      add\n      0x2e436f72706f726174696f6e2e456d706c6f7965657300000000000000000000\n      dup2\n      mstore\n      pop\n      dup2\n      jump\n    tag_53:\n      mload(0x40)\n      tag_38\n      swap2\n      swap1\n      tag_56\n      jump\t// in\n        /* \"Corporation/Employees.sol\":2654:3127  function EmployeeProfile(address _employee) public view returns(uint16 dailyWage, uint32 daysUnpaid, uint32 lastPayoff, bool isEmployee){... */\n    tag_7:\n      callvalue\n      dup1\n      iszero\n      tag_57\n      jumpi\n      0x00\n      dup1\n      revert\n    tag_57:\n      pop\n      tag_58\n      tag_59\n      calldatasize\n      0x04\n      tag_43\n      jump\t// in\n    tag_59:\n      tag_60\n      jump\t// in\n    tag_58:\n      0x40\n      dup1\n      mload\n        /* \"#utility.yul\":3414:3420   */\n      0xffff\n        /* \"#utility.yul\":3402:3421   */\n      swap6\n      swap1\n      swap6\n      and\n        /* \"#utility.yul\":3384:3422   */\n      dup6\n      mstore\n        /* \"#utility.yul\":3441:3451   */\n      0xffffffff\n        /* \"#utility.yul\":3487:3502   */\n      swap4\n      dup5\n      and\n        /* \"#utility.yul\":3482:3484   */\n      0x20\n        /* \"#utility.yul\":3467:3485   */\n      dup7\n      add\n        /* \"#utility.yul\":3460:3503   */\n      mstore\n        /* \"#utility.yul\":3539:3554   */\n      swap2\n      swap1\n      swap3\n      and\n        /* \"#utility.yul\":3519:3537   */\n      swap1\n      dup4\n      add\n        /* \"#utility.yul\":3512:3555   */\n      mstore\n        /* \"#utility.yul\":3598:3612   */\n      iszero\n        /* \"#utility.yul\":3591:3613   */\n      iszero\n        /* \"#utility.yul\":3586:3588   */\n      0x60\n        /* \"#utility.yul\":3571:3589   */\n      dup3\n      add\n        /* \"#utility.yul\":3564:3614   */\n      mstore\n        /* \"#utility.yul\":3371:3374   */\n      0x80\n        /* \"#utility.yul\":3356:3375   */\n      add\n        /* \"Corporation/Employees.sol\":2654:3127  function EmployeeProfile(address _employee) public view returns(uint16 dailyWage, uint32 daysUnpaid, uint32 lastPayoff, bool isEmployee){... */\n      tag_38\n        /* \"#utility.yul\":3165:3620   */\n      jump\n        /* \"Corporation/Employees.sol\":6126:6557  function UpdateEmployee(address _employee, uint16 _dailyWage) public ownerOnly returns(bool){... */\n    tag_8:\n      callvalue\n      dup1\n      iszero\n      tag_63\n      jumpi\n      0x00\n      dup1\n      revert\n    tag_63:\n      pop\n      tag_36\n      tag_65\n      calldatasize\n      0x04\n      tag_49\n      jump\t// in\n    tag_65:\n      tag_66\n      jump\t// in\n        /* \"Corporation/Employees.sol\":3229:5356  function Payoff() public returns(bool){... */\n    tag_37:\n        /* \"Corporation/Employees.sol\":3262:3266  bool */\n      0x00\n        /* \"Corporation/Employees.sol\":3283:3298  reentrantLocked */\n      dup1\n      sload\n      0xff\n      and\n        /* \"Corporation/Employees.sol\":3283:3306  reentrantLocked == true */\n      iszero\n      iszero\n        /* \"Corporation/Employees.sol\":3283:3298  reentrantLocked */\n      0x01\n        /* \"Corporation/Employees.sol\":3283:3306  reentrantLocked == true */\n      sub\n        /* \"Corporation/Employees.sol\":3280:3348  if(reentrantLocked == true)... */\n      tag_69\n      jumpi\n        /* \"Corporation/Employees.sol\":3321:3348  revert(\"Reentrance failed\") */\n      mload(0x40)\n      0x08c379a000000000000000000000000000000000000000000000000000000000\n      dup2\n      mstore\n        /* \"#utility.yul\":3827:3829   */\n      0x20\n        /* \"Corporation/Employees.sol\":3321:3348  revert(\"Reentrance failed\") */\n      0x04\n      dup3\n      add\n        /* \"#utility.yul\":3809:3830   */\n      mstore\n        /* \"#utility.yul\":3866:3868   */\n      0x11\n        /* \"#utility.yul\":3846:3864   */\n      0x24\n      dup3\n      add\n        /* \"#utility.yul\":3839:3869   */\n      mstore\n        /* \"#utility.yul\":3905:3924   */\n      0x5265656e7472616e6365206661696c6564000000000000000000000000000000\n        /* \"#utility.yul\":3885:3903   */\n      0x44\n      dup3\n      add\n        /* \"#utility.yul\":3878:3925   */\n      mstore\n        /* \"#utility.yul\":3942:3960   */\n      0x64\n      add\n        /* \"Corporation/Employees.sol\":3321:3348  revert(\"Reentrance failed\") */\n      tag_33\n        /* \"#utility.yul\":3625:3966   */\n      jump\n        /* \"Corporation/Employees.sol\":3280:3348  if(reentrantLocked == true)... */\n    tag_69:\n        /* \"Corporation/Employees.sol\":3361:3376  reentrantLocked */\n      0x00\n        /* \"Corporation/Employees.sol\":3361:3383  reentrantLocked = true */\n      dup1\n      sload\n      0xffffffffffffffffffffffffffffffffffffffffffffffffffffffffffffff00\n      and\n        /* \"Corporation/Employees.sol\":3379:3383  true */\n      0x01\n        /* \"Corporation/Employees.sol\":3361:3383  reentrantLocked = true */\n      or\n      dup2\n      sstore\n        /* \"Corporation/Employees.sol\":3417:3461  pt.GetContractAddress(\".Corporation.Oracle\") */\n      mload(0x40)\n      0xc75ffd8600000000000000000000000000000000000000000000000000000000\n      dup2\n      mstore\n        /* \"#utility.yul\":4173:4175   */\n      0x20\n        /* \"Corporation/Employees.sol\":3417:3461  pt.GetContractAddress(\".Corporation.Oracle\") */\n      0x04\n      dup3\n      add\n        /* \"#utility.yul\":4155:4176   */\n      mstore\n        /* \"#utility.yul\":4212:4214   */\n      0x13\n        /* \"#utility.yul\":4192:4210   */\n      0x24\n      dup3\n      add\n        /* \"#utility.yul\":4185:4215   */\n      mstore\n        /* \"#utility.yul\":4251:4272   */\n      0x2e436f72706f726174696f6e2e4f7261636c6500000000000000000000000000\n        /* \"#utility.yul\":4231:4249   */\n      0x44\n      dup3\n      add\n        /* \"#utility.yul\":4224:4273   */\n      mstore\n        /* \"Corporation/Employees.sol\":1310:1352  0x163342FAe2bBe3303e5A9ADCe4BC9fb44d0FF062 */\n      0x163342fae2bbe3303e5a9adce4bc9fb44d0ff062\n      swap1\n        /* \"Corporation/Employees.sol\":3417:3438  pt.GetContractAddress */\n      0xc75ffd86\n      swap1\n        /* \"#utility.yul\":4290:4308   */\n      0x64\n      add\n        /* \"Corporation/Employees.sol\":3417:3461  pt.GetContractAddress(\".Corporation.Oracle\") */\n      0x20\n      mload(0x40)\n      dup1\n      dup4\n      sub\n      dup2\n      dup7\n      gas\n      staticcall\n      iszero\n      dup1\n      iszero\n      tag_75\n      jumpi\n      returndatasize\n      0x00\n      dup1\n      returndatacopy\n      revert(0x00, returndatasize)\n    tag_75:\n      pop\n      pop\n      pop\n      pop\n      mload(0x40)\n      returndatasize\n      not(0x1f)\n      0x1f\n      dup3\n      add\n      and\n      dup3\n      add\n      dup1\n      0x40\n      mstore\n      pop\n      dup2\n      add\n      swap1\n      tag_76\n      swap2\n      swap1\n      tag_17\n      jump\t// in\n    tag_76:\n        /* \"Corporation/Employees.sol\":3492:3535  pt.GetContractAddress(\".Corporation.Clerk\") */\n      mload(0x40)\n      0xc75ffd8600000000000000000000000000000000000000000000000000000000\n      dup2\n      mstore\n        /* \"#utility.yul\":216:218   */\n      0x20\n        /* \"Corporation/Employees.sol\":3492:3535  pt.GetContractAddress(\".Corporation.Clerk\") */\n      0x04\n      dup3\n      add\n        /* \"#utility.yul\":198:219   */\n      mstore\n        /* \"#utility.yul\":255:257   */\n      0x12\n        /* \"#utility.yul\":235:253   */\n      0x24\n      dup3\n      add\n        /* \"#utility.yul\":228:258   */\n      mstore\n        /* \"#utility.yul\":294:314   */\n      0x2e436f72706f726174696f6e2e436c65726b0000000000000000000000000000\n        /* \"#utility.yul\":274:292   */\n      0x44\n      dup3\n      add\n        /* \"#utility.yul\":267:315   */\n      mstore\n        /* \"Corporation/Employees.sol\":3396:3462  IOracle oc = IOracle(pt.GetContractAddress(\".Corporation.Oracle\")) */\n      swap1\n      swap2\n      pop\n        /* \"Corporation/Employees.sol\":3473:3482  IClerk cl */\n      0x00\n      swap1\n        /* \"Corporation/Employees.sol\":1310:1352  0x163342FAe2bBe3303e5A9ADCe4BC9fb44d0FF062 */\n      0x163342fae2bbe3303e5a9adce4bc9fb44d0ff062\n      swap1\n        /* \"Corporation/Employees.sol\":3492:3513  pt.GetContractAddress */\n      0xc75ffd86\n      swap1\n        /* \"#utility.yul\":332:350   */\n      0x64\n      add\n        /* \"Corporation/Employees.sol\":3492:3535  pt.GetContractAddress(\".Corporation.Clerk\") */\n      0x20\n      mload(0x40)\n      dup1\n      dup4\n      sub\n      dup2\n      dup7\n      gas\n      staticcall\n      iszero\n      dup1\n      iszero\n      tag_79\n      jumpi\n      returndatasize\n      0x00\n      dup1\n      returndatacopy\n      revert(0x00, returndatasize)\n    tag_79:\n      pop\n      pop\n      pop\n      pop\n      mload(0x40)\n      returndatasize\n      not(0x1f)\n      0x1f\n      dup3\n      add\n      and\n      dup3\n      add\n      dup1\n      0x40\n      mstore\n      pop\n      dup2\n      add\n      swap1\n      tag_80\n      swap2\n      swap1\n      tag_17\n      jump\t// in\n    tag_80:\n        /* \"Corporation/Employees.sol\":3587:3597  msg.sender */\n      caller\n        /* \"Corporation/Employees.sol\":3549:3574  Employee storage employee */\n      0x00\n        /* \"Corporation/Employees.sol\":3577:3598  employees[msg.sender] */\n      swap1\n      dup2\n      mstore\n        /* \"Corporation/Employees.sol\":3577:3586  employees */\n      0x01\n        /* \"Corporation/Employees.sol\":3577:3598  employees[msg.sender] */\n      0x20\n      mstore\n      0x40\n      dup2\n      keccak256\n        /* \"Corporation/Employees.sol\":3622:3641  employee.lastPayoff */\n      dup1\n      sload\n        /* \"Corporation/Employees.sol\":3473:3536  IClerk cl = IClerk(pt.GetContractAddress(\".Corporation.Clerk\")) */\n      swap3\n      swap4\n      pop\n        /* \"Corporation/Employees.sol\":3577:3598  employees[msg.sender] */\n      swap2\n        /* \"Corporation/Employees.sol\":3622:3641  employee.lastPayoff */\n      0x01000000\n      swap1\n      div\n      0xffffffff\n      and\n        /* \"Corporation/Employees.sol\":3622:3646  employee.lastPayoff == 0 */\n      swap1\n      sub\n        /* \"Corporation/Employees.sol\":3619:3684  if(employee.lastPayoff == 0)... */\n      tag_81\n      jumpi\n        /* \"Corporation/Employees.sol\":3661:3684  revert(\"Employee only\") */\n      mload(0x40)\n      0x08c379a000000000000000000000000000000000000000000000000000000000\n      dup2\n      mstore\n        /* \"#utility.yul\":4521:4523   */\n      0x20\n        /* \"Corporation/Employees.sol\":3661:3684  revert(\"Employee only\") */\n      0x04\n      dup3\n      add\n        /* \"#utility.yul\":4503:4524   */\n      mstore\n        /* \"#utility.yul\":4560:4562   */\n      0x0d\n        /* \"#utility.yul\":4540:4558   */\n      0x24\n      dup3\n      add\n        /* \"#utility.yul\":4533:4563   */\n      mstore\n        /* \"#utility.yul\":4599:4614   */\n      0x456d706c6f796565206f6e6c7900000000000000000000000000000000000000\n        /* \"#utility.yul\":4579:4597   */\n      0x44\n      dup3\n      add\n        /* \"#utility.yul\":4572:4615   */\n      mstore\n        /* \"#utility.yul\":4632:4650   */\n      0x64\n      add\n        /* \"Corporation/Employees.sol\":3661:3684  revert(\"Employee only\") */\n      tag_33\n        /* \"#utility.yul\":4319:4656   */\n      jump\n        /* \"Corporation/Employees.sol\":3619:3684  if(employee.lastPayoff == 0)... */\n    tag_81:\n        /* \"Corporation/Employees.sol\":3698:3712  uint8 decimals */\n      0x00\n        /* \"Corporation/Employees.sol\":3714:3726  bool success */\n      dup1\n        /* \"Corporation/Employees.sol\":3730:3732  oc */\n      dup5\n        /* \"Corporation/Employees.sol\":3730:3749  oc.GetMATICDecimals */\n      0xffffffffffffffffffffffffffffffffffffffff\n      and\n      0x16f0a386\n        /* \"Corporation/Employees.sol\":3730:3751  oc.GetMATICDecimals() */\n      mload(0x40)\n      dup2\n      0xffffffff\n      and\n      0xe0\n      shl\n      dup2\n      mstore\n      0x04\n      add\n      0x40\n      dup1\n      mload\n      dup1\n      dup4\n      sub\n      dup2\n      dup7\n      gas\n      staticcall\n      iszero\n      dup1\n      iszero\n      tag_85\n      jumpi\n      returndatasize\n      0x00\n      dup1\n      returndatacopy\n      revert(0x00, returndatasize)\n    tag_85:\n      pop\n      pop\n      pop\n      pop\n      mload(0x40)\n      returndatasize\n      not(0x1f)\n      0x1f\n      dup3\n      add\n      and\n      dup3\n      add\n      dup1\n      0x40\n      mstore\n      pop\n      dup2\n      add\n      swap1\n      tag_86\n      swap2\n      swap1\n      tag_87\n      jump\t// in\n    tag_86:\n        /* \"Corporation/Employees.sol\":3697:3751  (uint8 decimals, bool success) = oc.GetMATICDecimals() */\n      swap1\n      swap3\n      pop\n      swap1\n      pop\n        /* \"Corporation/Employees.sol\":3778:3782  true */\n      0x01\n        /* \"Corporation/Employees.sol\":3767:3782  success != true */\n      dup2\n      iszero\n      iszero\n      eq\n        /* \"Corporation/Employees.sol\":3764:3825  if(success != true)... */\n      tag_88\n      jumpi\n        /* \"Corporation/Employees.sol\":3797:3825  revert(\"Oracle unreachable\") */\n      mload(0x40)\n      0x08c379a000000000000000000000000000000000000000000000000000000000\n      dup2\n      mstore\n        /* \"#utility.yul\":5389:5391   */\n      0x20\n        /* \"Corporation/Employees.sol\":3797:3825  revert(\"Oracle unreachable\") */\n      0x04\n      dup3\n      add\n        /* \"#utility.yul\":5371:5392   */\n      mstore\n        /* \"#utility.yul\":5428:5430   */\n      0x12\n        /* \"#utility.yul\":5408:5426   */\n      0x24\n      dup3\n      add\n        /* \"#utility.yul\":5401:5431   */\n      mstore\n        /* \"#utility.yul\":5467:5487   */\n      0x4f7261636c6520756e726561636861626c650000000000000000000000000000\n        /* \"#utility.yul\":5447:5465   */\n      0x44\n      dup3\n      add\n        /* \"#utility.yul\":5440:5488   */\n      mstore\n        /* \"#utility.yul\":5505:5523   */\n      0x64\n      add\n        /* \"Corporation/Employees.sol\":3797:3825  revert(\"Oracle unreachable\") */\n      tag_33\n        /* \"#utility.yul\":5187:5529   */\n      jump\n        /* \"Corporation/Employees.sol\":3764:3825  if(success != true)... */\n    tag_88:\n        /* \"Corporation/Employees.sol\":3838:3851  uint256 price */\n      0x00\n        /* \"Corporation/Employees.sol\":3854:3856  oc */\n      dup6\n        /* \"Corporation/Employees.sol\":3854:3870  oc.GetMATICPrice */\n      0xffffffffffffffffffffffffffffffffffffffff\n      and\n      0xf9a4bbbe\n        /* \"Corporation/Employees.sol\":3854:3872  oc.GetMATICPrice() */\n      mload(0x40)\n      dup2\n      0xffffffff\n      and\n      0xe0\n      shl\n      dup2\n      mstore\n      0x04\n      add\n      0x20\n      mload(0x40)\n      dup1\n      dup4\n      sub\n      dup2\n      dup7\n      gas\n      staticcall\n      iszero\n      dup1\n      iszero\n      tag_92\n      jumpi\n      returndatasize\n      0x00\n      dup1\n      returndatacopy\n      revert(0x00, returndatasize)\n    tag_92:\n      pop\n      pop\n      pop\n      pop\n      mload(0x40)\n      returndatasize\n      not(0x1f)\n      0x1f\n      dup3\n      add\n      and\n      dup3\n      add\n      dup1\n      0x40\n      mstore\n      pop\n      dup2\n      add\n      swap1\n      tag_93\n      swap2\n      swap1\n      tag_94\n      jump\t// in\n    tag_93:\n        /* \"Corporation/Employees.sol\":3838:3872  uint256 price = oc.GetMATICPrice() */\n      swap1\n      pop\n        /* \"Corporation/Employees.sol\":3897:3898  0 */\n      0x00\n        /* \"Corporation/Employees.sol\":3888:3893  price */\n      dup2\n        /* \"Corporation/Employees.sol\":3888:3898  price <= 0 */\n      gt\n        /* \"Corporation/Employees.sol\":3885:3946  if(price <= 0)... */\n      tag_95\n      jumpi\n        /* \"Corporation/Employees.sol\":3913:3946  revert(\"Unaccepted Oracle price\") */\n      mload(0x40)\n      0x08c379a000000000000000000000000000000000000000000000000000000000\n      dup2\n      mstore\n        /* \"#utility.yul\":5925:5927   */\n      0x20\n        /* \"Corporation/Employees.sol\":3913:3946  revert(\"Unaccepted Oracle price\") */\n      0x04\n      dup3\n      add\n        /* \"#utility.yul\":5907:5928   */\n      mstore\n        /* \"#utility.yul\":5964:5966   */\n      0x17\n        /* \"#utility.yul\":5944:5962   */\n      0x24\n      dup3\n      add\n        /* \"#utility.yul\":5937:5967   */\n      mstore\n        /* \"#utility.yul\":6003:6028   */\n      0x556e6163636570746564204f7261636c65207072696365000000000000000000\n        /* \"#utility.yul\":5983:6001   */\n      0x44\n      dup3\n      add\n        /* \"#utility.yul\":5976:6029   */\n      mstore\n        /* \"#utility.yul\":6046:6064   */\n      0x64\n      add\n        /* \"Corporation/Employees.sol\":3913:3946  revert(\"Unaccepted Oracle price\") */\n      tag_33\n        /* \"#utility.yul\":5723:6070   */\n      jump\n        /* \"Corporation/Employees.sol\":3885:3946  if(price <= 0)... */\n    tag_95:\n        /* \"Corporation/Employees.sol\":3962:3981  employee.isEmployee */\n      dup4\n      sload\n      0xff\n      and\n        /* \"Corporation/Employees.sol\":3962:3989  employee.isEmployee == true */\n      iszero\n      iszero\n        /* \"Corporation/Employees.sol\":3962:3981  employee.isEmployee */\n      0x01\n        /* \"Corporation/Employees.sol\":3962:3989  employee.isEmployee == true */\n      sub\n        /* \"Corporation/Employees.sol\":3959:5288  if(employee.isEmployee == true){... */\n      tag_98\n      jumpi\n        /* \"Corporation/Employees.sol\":4102:4121  employee.lastPayoff */\n      dup4\n      sload\n        /* \"Corporation/Employees.sol\":4032:4047  block.timestamp */\n      timestamp\n      swap1\n        /* \"Corporation/Employees.sol\":4007:4022  uint32 payUntil */\n      0x00\n      swap1\n        /* \"Corporation/Employees.sol\":4126:4132  1 days */\n      0x015180\n      swap1\n        /* \"Corporation/Employees.sol\":4091:4121  payUntil - employee.lastPayoff */\n      tag_99\n      swap1\n        /* \"Corporation/Employees.sol\":4102:4121  employee.lastPayoff */\n      0x01000000\n      swap1\n      div\n      0xffffffff\n      and\n        /* \"Corporation/Employees.sol\":4032:4047  block.timestamp */\n      dup5\n        /* \"Corporation/Employees.sol\":4091:4121  payUntil - employee.lastPayoff */\n      tag_100\n      jump\t// in\n    tag_99:\n        /* \"Corporation/Employees.sol\":4090:4133  (payUntil - employee.lastPayoff) / (1 days) */\n      tag_101\n      swap2\n      swap1\n      tag_102\n      jump\t// in\n    tag_101:\n        /* \"Corporation/Employees.sol\":4188:4207  employee.lastPayoff */\n      dup7\n      sload\n        /* \"Corporation/Employees.sol\":4063:4134  uint32 unpaidDays = uint32((payUntil - employee.lastPayoff) / (1 days)) */\n      swap1\n      swap2\n      pop\n        /* \"Corporation/Employees.sol\":4149:4166  uint32 moduloDays */\n      0x00\n      swap1\n        /* \"Corporation/Employees.sol\":4212:4218  1 days */\n      0x015180\n      swap1\n        /* \"Corporation/Employees.sol\":4177:4207  payUntil - employee.lastPayoff */\n      tag_103\n      swap1\n        /* \"Corporation/Employees.sol\":4188:4207  employee.lastPayoff */\n      0x01000000\n      swap1\n      div\n      0xffffffff\n      and\n        /* \"Corporation/Employees.sol\":4177:4185  payUntil */\n      dup6\n        /* \"Corporation/Employees.sol\":4177:4207  payUntil - employee.lastPayoff */\n      tag_100\n      jump\t// in\n    tag_103:\n        /* \"Corporation/Employees.sol\":4176:4219  (payUntil - employee.lastPayoff) % (1 days) */\n      tag_104\n      swap2\n      swap1\n      tag_105\n      jump\t// in\n    tag_104:\n        /* \"Corporation/Employees.sol\":4149:4220  uint32 moduloDays = uint32((payUntil - employee.lastPayoff) % (1 days)) */\n      swap1\n      pop\n        /* \"Corporation/Employees.sol\":4235:4249  uint256 amount */\n      0x00\n        /* \"Corporation/Employees.sol\":4317:4328  price * 100 */\n      tag_106\n        /* \"Corporation/Employees.sol\":4317:4322  price */\n      dup6\n        /* \"Corporation/Employees.sol\":4325:4328  100 */\n      0x64\n        /* \"Corporation/Employees.sol\":4317:4328  price * 100 */\n      tag_107\n      jump\t// in\n    tag_106:\n        /* \"Corporation/Employees.sol\":4299:4312  decimals + 18 */\n      tag_108\n        /* \"Corporation/Employees.sol\":4299:4307  decimals */\n      dup9\n        /* \"Corporation/Employees.sol\":4310:4312  18 */\n      0x12\n        /* \"Corporation/Employees.sol\":4299:4312  decimals + 18 */\n      tag_109\n      jump\t// in\n    tag_108:\n        /* \"Corporation/Employees.sol\":4294:4313  10**(decimals + 18) */\n      tag_110\n      swap1\n        /* \"Corporation/Employees.sol\":4294:4296  10 */\n      0x0a\n        /* \"Corporation/Employees.sol\":4294:4313  10**(decimals + 18) */\n      tag_111\n      jump\t// in\n    tag_110:\n        /* \"Corporation/Employees.sol\":4273:4291  employee.dailyWage */\n      dup10\n      sload\n        /* \"Corporation/Employees.sol\":4260:4291  unpaidDays * employee.dailyWage */\n      tag_112\n      swap1\n        /* \"Corporation/Employees.sol\":4273:4291  employee.dailyWage */\n      0x0100\n      swap1\n      div\n      0xffff\n      and\n        /* \"Corporation/Employees.sol\":4260:4270  unpaidDays */\n      dup7\n        /* \"Corporation/Employees.sol\":4260:4291  unpaidDays * employee.dailyWage */\n      tag_113\n      jump\t// in\n    tag_112:\n        /* \"Corporation/Employees.sol\":4260:4313  unpaidDays * employee.dailyWage * 10**(decimals + 18) */\n      0xffffffff\n      and\n      tag_114\n      swap2\n      swap1\n      tag_107\n      jump\t// in\n    tag_114:\n        /* \"Corporation/Employees.sol\":4260:4329  unpaidDays * employee.dailyWage * 10**(decimals + 18) / (price * 100) */\n      tag_115\n      swap2\n      swap1\n      tag_116\n      jump\t// in\n    tag_115:\n        /* \"Corporation/Employees.sol\":4235:4330  uint256 amount = uint256(unpaidDays * employee.dailyWage * 10**(decimals + 18) / (price * 100)) */\n      swap1\n      pop\n        /* \"Corporation/Employees.sol\":4369:4390  payUntil - moduloDays */\n      tag_117\n        /* \"Corporation/Employees.sol\":4380:4390  moduloDays */\n      dup3\n        /* \"Corporation/Employees.sol\":4369:4377  payUntil */\n      dup6\n        /* \"Corporation/Employees.sol\":4369:4390  payUntil - moduloDays */\n      tag_100\n      jump\t// in\n    tag_117:\n        /* \"Corporation/Employees.sol\":4347:4390  employee.lastPayoff = payUntil - moduloDays */\n      dup9\n      sload\n      0xffffffff\n      swap2\n      swap1\n      swap2\n      and\n      0x01000000\n      mul\n      0xffffffffffffffffffffffffffffffffffffffffffffffffff00000000ffffff\n      swap1\n      swap2\n      and\n      or\n      dup9\n      sstore\n        /* \"Corporation/Employees.sol\":4347:4366  employee.lastPayoff */\n      0x00\n        /* \"Corporation/Employees.sol\":4410:4421  amount == 0 */\n      dup2\n      swap1\n      sub\n        /* \"Corporation/Employees.sol\":4407:4664  if(amount == 0)... */\n      tag_118\n      jumpi\n        /* \"Corporation/Employees.sol\":4440:4462  revert(\"Already paid\") */\n      mload(0x40)\n      0x08c379a000000000000000000000000000000000000000000000000000000000\n      dup2\n      mstore\n        /* \"#utility.yul\":9427:9429   */\n      0x20\n        /* \"Corporation/Employees.sol\":4440:4462  revert(\"Already paid\") */\n      0x04\n      dup3\n      add\n        /* \"#utility.yul\":9409:9430   */\n      mstore\n        /* \"#utility.yul\":9466:9468   */\n      0x0c\n        /* \"#utility.yul\":9446:9464   */\n      0x24\n      dup3\n      add\n        /* \"#utility.yul\":9439:9469   */\n      mstore\n        /* \"#utility.yul\":9505:9519   */\n      0x416c726561647920706169640000000000000000000000000000000000000000\n        /* \"#utility.yul\":9485:9503   */\n      0x44\n      dup3\n      add\n        /* \"#utility.yul\":9478:9520   */\n      mstore\n        /* \"#utility.yul\":9537:9555   */\n      0x64\n      add\n        /* \"Corporation/Employees.sol\":4440:4462  revert(\"Already paid\") */\n      tag_33\n        /* \"#utility.yul\":9225:9561   */\n      jump\n        /* \"Corporation/Employees.sol\":4407:4664  if(amount == 0)... */\n    tag_118:\n        /* \"Corporation/Employees.sol\":4506:4546  cl.EmployeesWithdraw(msg.sender, amount) */\n      mload(0x40)\n      0x5112766000000000000000000000000000000000000000000000000000000000\n      dup2\n      mstore\n        /* \"Corporation/Employees.sol\":4527:4537  msg.sender */\n      caller\n        /* \"Corporation/Employees.sol\":4506:4546  cl.EmployeesWithdraw(msg.sender, amount) */\n      0x04\n      dup3\n      add\n        /* \"#utility.yul\":9740:9814   */\n      mstore\n        /* \"#utility.yul\":9830:9848   */\n      0x24\n      dup2\n      add\n        /* \"#utility.yul\":9823:9857   */\n      dup3\n      swap1\n      mstore\n        /* \"Corporation/Employees.sol\":4506:4526  cl.EmployeesWithdraw */\n      0xffffffffffffffffffffffffffffffffffffffff\n      dup11\n      and\n      swap1\n      0x51127660\n      swap1\n        /* \"#utility.yul\":9713:9731   */\n      0x44\n      add\n        /* \"Corporation/Employees.sol\":4506:4546  cl.EmployeesWithdraw(msg.sender, amount) */\n      0x20\n      mload(0x40)\n      dup1\n      dup4\n      sub\n      dup2\n      0x00\n      dup8\n      gas\n      call\n      swap3\n      pop\n      pop\n      pop\n      dup1\n      iszero\n      tag_124\n      jumpi\n      pop\n      0x40\n      dup1\n      mload\n      0x1f\n      returndatasize\n      swap1\n      dup2\n      add\n      0xffffffffffffffffffffffffffffffffffffffffffffffffffffffffffffffe0\n      and\n      dup3\n      add\n      swap1\n      swap3\n      mstore\n      tag_125\n      swap2\n      dup2\n      add\n      swap1\n      tag_126\n      jump\t// in\n    tag_125:\n      0x01\n    tag_124:\n        /* \"Corporation/Employees.sol\":4502:4599  try cl.EmployeesWithdraw(msg.sender, amount){}... */\n      tag_127\n      jumpi\n        /* \"Corporation/Employees.sol\":4573:4596  revert(\"Payoff failed\") */\n      mload(0x40)\n      0x08c379a000000000000000000000000000000000000000000000000000000000\n      dup2\n      mstore\n        /* \"#utility.yul\":10277:10279   */\n      0x20\n        /* \"Corporation/Employees.sol\":4573:4596  revert(\"Payoff failed\") */\n      0x04\n      dup3\n      add\n        /* \"#utility.yul\":10259:10280   */\n      mstore\n        /* \"#utility.yul\":10316:10318   */\n      0x0d\n        /* \"#utility.yul\":10296:10314   */\n      0x24\n      dup3\n      add\n        /* \"#utility.yul\":10289:10319   */\n      mstore\n        /* \"#utility.yul\":10355:10370   */\n      0x5061796f6666206661696c656400000000000000000000000000000000000000\n        /* \"#utility.yul\":10335:10353   */\n      0x44\n      dup3\n      add\n        /* \"#utility.yul\":10328:10371   */\n      mstore\n        /* \"#utility.yul\":10388:10406   */\n      0x64\n      add\n        /* \"Corporation/Employees.sol\":4573:4596  revert(\"Payoff failed\") */\n      tag_33\n        /* \"#utility.yul\":10075:10412   */\n      jump\n        /* \"Corporation/Employees.sol\":4502:4599  try cl.EmployeesWithdraw(msg.sender, amount){}... */\n    tag_127:\n      pop\n        /* \"Corporation/Employees.sol\":4622:4648  Payout(msg.sender, amount) */\n      mload(0x40)\n        /* \"#utility.yul\":10563:10588   */\n      dup2\n      dup2\n      mstore\n        /* \"Corporation/Employees.sol\":4629:4639  msg.sender */\n      caller\n      swap1\n        /* \"Corporation/Employees.sol\":4622:4648  Payout(msg.sender, amount) */\n      0x5afeca38b2064c23a692c4cf353015d80ab3ecc417b4f893f372690c11fbd9a6\n      swap1\n        /* \"#utility.yul\":10551:10553   */\n      0x20\n        /* \"#utility.yul\":10536:10554   */\n      add\n        /* \"Corporation/Employees.sol\":4622:4648  Payout(msg.sender, amount) */\n      mload(0x40)\n      dup1\n      swap2\n      sub\n      swap1\n      log2\n        /* \"Corporation/Employees.sol\":3990:4675  {... */\n      pop\n      pop\n      pop\n      pop\n        /* \"Corporation/Employees.sol\":3959:5288  if(employee.isEmployee == true){... */\n      jump(tag_136)\n    tag_98:\n        /* \"Corporation/Employees.sol\":4724:4743  employee.releasedAt */\n      dup4\n      sload\n      0xffffffff\n      0x0100000000000000\n      dup3\n      div\n      dup2\n      and\n      swap2\n        /* \"Corporation/Employees.sol\":4706:4721  uint32 payUntil */\n      0x00\n      swap2\n        /* \"Corporation/Employees.sol\":4821:4827  1 days */\n      0x015180\n      swap2\n        /* \"Corporation/Employees.sol\":4786:4816  payUntil - employee.lastPayoff */\n      tag_137\n      swap2\n        /* \"Corporation/Employees.sol\":4797:4816  employee.lastPayoff */\n      0x01000000\n      swap1\n      swap2\n      div\n      and\n        /* \"Corporation/Employees.sol\":4724:4743  employee.releasedAt */\n      dup5\n        /* \"Corporation/Employees.sol\":4786:4816  payUntil - employee.lastPayoff */\n      tag_100\n      jump\t// in\n    tag_137:\n        /* \"Corporation/Employees.sol\":4785:4828  (payUntil - employee.lastPayoff) / (1 days) */\n      tag_138\n      swap2\n      swap1\n      tag_102\n      jump\t// in\n    tag_138:\n        /* \"Corporation/Employees.sol\":4758:4829  uint32 unpaidDays = uint32((payUntil - employee.lastPayoff) / (1 days)) */\n      swap1\n      pop\n        /* \"Corporation/Employees.sol\":4844:4858  uint256 amount */\n      0x00\n        /* \"Corporation/Employees.sol\":4926:4937  price * 100 */\n      tag_139\n        /* \"Corporation/Employees.sol\":4926:4931  price */\n      dup5\n        /* \"Corporation/Employees.sol\":4934:4937  100 */\n      0x64\n        /* \"Corporation/Employees.sol\":4926:4937  price * 100 */\n      tag_107\n      jump\t// in\n    tag_139:\n        /* \"Corporation/Employees.sol\":4908:4921  decimals + 18 */\n      tag_140\n        /* \"Corporation/Employees.sol\":4908:4916  decimals */\n      dup8\n        /* \"Corporation/Employees.sol\":4919:4921  18 */\n      0x12\n        /* \"Corporation/Employees.sol\":4908:4921  decimals + 18 */\n      tag_109\n      jump\t// in\n    tag_140:\n        /* \"Corporation/Employees.sol\":4903:4922  10**(decimals + 18) */\n      tag_141\n      swap1\n        /* \"Corporation/Employees.sol\":4903:4905  10 */\n      0x0a\n        /* \"Corporation/Employees.sol\":4903:4922  10**(decimals + 18) */\n      tag_111\n      jump\t// in\n    tag_141:\n        /* \"Corporation/Employees.sol\":4882:4900  employee.dailyWage */\n      dup9\n      sload\n        /* \"Corporation/Employees.sol\":4869:4900  unpaidDays * employee.dailyWage */\n      tag_142\n      swap1\n        /* \"Corporation/Employees.sol\":4882:4900  employee.dailyWage */\n      0x0100\n      swap1\n      div\n      0xffff\n      and\n        /* \"Corporation/Employees.sol\":4869:4879  unpaidDays */\n      dup6\n        /* \"Corporation/Employees.sol\":4869:4900  unpaidDays * employee.dailyWage */\n      tag_113\n      jump\t// in\n    tag_142:\n        /* \"Corporation/Employees.sol\":4869:4922  unpaidDays * employee.dailyWage * 10**(decimals + 18) */\n      0xffffffff\n      and\n      tag_143\n      swap2\n      swap1\n      tag_107\n      jump\t// in\n    tag_143:\n        /* \"Corporation/Employees.sol\":4869:4938  unpaidDays * employee.dailyWage * 10**(decimals + 18) / (price * 100) */\n      tag_144\n      swap2\n      swap1\n      tag_116\n      jump\t// in\n    tag_144:\n        /* \"Corporation/Employees.sol\":4956:4981  delete employee.dailyWage */\n      dup8\n      sload\n        /* \"Corporation/Employees.sol\":5037:5063  delete employee.releasedAt */\n      0xffffffffffffffffffffffffffffffffffffffffff00000000000000000000ff\n      and\n      dup9\n      sstore\n        /* \"Corporation/Employees.sol\":4844:4939  uint256 amount = uint256(unpaidDays * employee.dailyWage * 10**(decimals + 18) / (price * 100)) */\n      swap1\n      pop\n        /* \"Corporation/Employees.sol\":5083:5093  amount > 0 */\n      dup1\n      iszero\n        /* \"Corporation/Employees.sol\":5080:5277  if(amount > 0){... */\n      tag_145\n      jumpi\n        /* \"Corporation/Employees.sol\":5119:5159  cl.EmployeesWithdraw(msg.sender, amount) */\n      mload(0x40)\n      0x5112766000000000000000000000000000000000000000000000000000000000\n      dup2\n      mstore\n        /* \"Corporation/Employees.sol\":5140:5150  msg.sender */\n      caller\n        /* \"Corporation/Employees.sol\":5119:5159  cl.EmployeesWithdraw(msg.sender, amount) */\n      0x04\n      dup3\n      add\n        /* \"#utility.yul\":9740:9814   */\n      mstore\n        /* \"#utility.yul\":9830:9848   */\n      0x24\n      dup2\n      add\n        /* \"#utility.yul\":9823:9857   */\n      dup3\n      swap1\n      mstore\n        /* \"Corporation/Employees.sol\":5119:5139  cl.EmployeesWithdraw */\n      0xffffffffffffffffffffffffffffffffffffffff\n      dup10\n      and\n      swap1\n      0x51127660\n      swap1\n        /* \"#utility.yul\":9713:9731   */\n      0x44\n      add\n        /* \"Corporation/Employees.sol\":5119:5159  cl.EmployeesWithdraw(msg.sender, amount) */\n      0x20\n      mload(0x40)\n      dup1\n      dup4\n      sub\n      dup2\n      0x00\n      dup8\n      gas\n      call\n      swap3\n      pop\n      pop\n      pop\n      dup1\n      iszero\n      tag_147\n      jumpi\n      pop\n      0x40\n      dup1\n      mload\n      0x1f\n      returndatasize\n      swap1\n      dup2\n      add\n      0xffffffffffffffffffffffffffffffffffffffffffffffffffffffffffffffe0\n      and\n      dup3\n      add\n      swap1\n      swap3\n      mstore\n      tag_148\n      swap2\n      dup2\n      add\n      swap1\n      tag_126\n      jump\t// in\n    tag_148:\n      0x01\n    tag_147:\n        /* \"Corporation/Employees.sol\":5115:5212  try cl.EmployeesWithdraw(msg.sender, amount){}... */\n      tag_149\n      jumpi\n        /* \"Corporation/Employees.sol\":5186:5209  revert(\"Payoff failed\") */\n      mload(0x40)\n      0x08c379a000000000000000000000000000000000000000000000000000000000\n      dup2\n      mstore\n        /* \"#utility.yul\":10277:10279   */\n      0x20\n        /* \"Corporation/Employees.sol\":5186:5209  revert(\"Payoff failed\") */\n      0x04\n      dup3\n      add\n        /* \"#utility.yul\":10259:10280   */\n      mstore\n        /* \"#utility.yul\":10316:10318   */\n      0x0d\n        /* \"#utility.yul\":10296:10314   */\n      0x24\n      dup3\n      add\n        /* \"#utility.yul\":10289:10319   */\n      mstore\n        /* \"#utility.yul\":10355:10370   */\n      0x5061796f6666206661696c656400000000000000000000000000000000000000\n        /* \"#utility.yul\":10335:10353   */\n      0x44\n      dup3\n      add\n        /* \"#utility.yul\":10328:10371   */\n      mstore\n        /* \"#utility.yul\":10388:10406   */\n      0x64\n      add\n        /* \"Corporation/Employees.sol\":5186:5209  revert(\"Payoff failed\") */\n      tag_33\n        /* \"#utility.yul\":10075:10412   */\n      jump\n        /* \"Corporation/Employees.sol\":5115:5212  try cl.EmployeesWithdraw(msg.sender, amount){}... */\n    tag_149:\n      pop\n        /* \"Corporation/Employees.sol\":5235:5261  Payout(msg.sender, amount) */\n      mload(0x40)\n        /* \"#utility.yul\":10563:10588   */\n      dup2\n      dup2\n      mstore\n        /* \"Corporation/Employees.sol\":5242:5252  msg.sender */\n      caller\n      swap1\n        /* \"Corporation/Employees.sol\":5235:5261  Payout(msg.sender, amount) */\n      0x5afeca38b2064c23a692c4cf353015d80ab3ecc417b4f893f372690c11fbd9a6\n      swap1\n        /* \"#utility.yul\":10551:10553   */\n      0x20\n        /* \"#utility.yul\":10536:10554   */\n      add\n        /* \"Corporation/Employees.sol\":5235:5261  Payout(msg.sender, amount) */\n      mload(0x40)\n      dup1\n      swap2\n      sub\n      swap1\n      log2\n        /* \"Corporation/Employees.sol\":5080:5277  if(amount > 0){... */\n    tag_145:\n        /* \"Corporation/Employees.sol\":4689:5288  {... */\n      pop\n      pop\n      pop\n        /* \"Corporation/Employees.sol\":3959:5288  if(employee.isEmployee == true){... */\n    tag_136:\n      pop\n      pop\n        /* \"Corporation/Employees.sol\":5318:5323  false */\n      0x00\n        /* \"Corporation/Employees.sol\":5300:5323  reentrantLocked = false */\n      dup1\n      sload\n      0xffffffffffffffffffffffffffffffffffffffffffffffffffffffffffffff00\n      and\n      swap1\n      sstore\n      pop\n      0x01\n      swap5\n        /* \"Corporation/Employees.sol\":3229:5356  function Payoff() public returns(bool){... */\n      swap4\n      pop\n      pop\n      pop\n      pop\n      jump\t// out\n        /* \"Corporation/Employees.sol\":6565:6954  function RemoveEmployee(address _employee) public ownerOnly returns(bool){... */\n    tag_44:\n        /* \"Corporation/Employees.sol\":6633:6637  bool */\n      0x00\n        /* \"Corporation/Employees.sol\":2292:2302  msg.sender */\n      caller\n        /* \"Corporation/Employees.sol\":2278:2302  pt.Owner() != msg.sender */\n      0xffffffffffffffffffffffffffffffffffffffff\n      and\n        /* \"Corporation/Employees.sol\":1310:1352  0x163342FAe2bBe3303e5A9ADCe4BC9fb44d0FF062 */\n      0x163342fae2bbe3303e5a9adce4bc9fb44d0ff062\n        /* \"Corporation/Employees.sol\":2278:2286  pt.Owner */\n      0xffffffffffffffffffffffffffffffffffffffff\n      and\n      0xb4a99a4e\n        /* \"Corporation/Employees.sol\":2278:2288  pt.Owner() */\n      mload(0x40)\n      dup2\n      0xffffffff\n      and\n      0xe0\n      shl\n      dup2\n      mstore\n      0x04\n      add\n      0x20\n      mload(0x40)\n      dup1\n      dup4\n      sub\n      dup2\n      dup7\n      gas\n      staticcall\n      iszero\n      dup1\n      iszero\n      tag_158\n      jumpi\n      returndatasize\n      0x00\n      dup1\n      returndatacopy\n      revert(0x00, returndatasize)\n    tag_158:\n      pop\n      pop\n      pop\n      pop\n      mload(0x40)\n      returndatasize\n      not(0x1f)\n      0x1f\n      dup3\n      add\n      and\n      dup3\n      add\n      dup1\n      0x40\n      mstore\n      pop\n      dup2\n      add\n      swap1\n      tag_159\n      swap2\n      swap1\n      tag_17\n      jump\t// in\n    tag_159:\n        /* \"Corporation/Employees.sol\":2278:2302  pt.Owner() != msg.sender */\n      0xffffffffffffffffffffffffffffffffffffffff\n      and\n      eq\n        /* \"Corporation/Employees.sol\":2275:2337  if(pt.Owner() != msg.sender)... */\n      tag_160\n      jumpi\n        /* \"Corporation/Employees.sol\":2317:2337  revert(\"Owner only\") */\n      mload(0x40)\n      0x08c379a000000000000000000000000000000000000000000000000000000000\n      dup2\n      mstore\n        /* \"#utility.yul\":10801:10803   */\n      0x20\n        /* \"Corporation/Employees.sol\":2317:2337  revert(\"Owner only\") */\n      0x04\n      dup3\n      add\n        /* \"#utility.yul\":10783:10804   */\n      mstore\n        /* \"#utility.yul\":10840:10842   */\n      0x0a\n        /* \"#utility.yul\":10820:10838   */\n      0x24\n      dup3\n      add\n        /* \"#utility.yul\":10813:10843   */\n      mstore\n        /* \"#utility.yul\":10879:10891   */\n      0x4f776e6572206f6e6c7900000000000000000000000000000000000000000000\n        /* \"#utility.yul\":10859:10877   */\n      0x44\n      dup3\n      add\n        /* \"#utility.yul\":10852:10892   */\n      mstore\n        /* \"#utility.yul\":10909:10927   */\n      0x64\n      add\n        /* \"Corporation/Employees.sol\":2317:2337  revert(\"Owner only\") */\n      tag_33\n        /* \"#utility.yul\":10599:10933   */\n      jump\n        /* \"Corporation/Employees.sol\":2275:2337  if(pt.Owner() != msg.sender)... */\n    tag_160:\n        /* \"Corporation/Employees.sol\":6679:6699  employees[_employee] */\n      0xffffffffffffffffffffffffffffffffffffffff\n      dup3\n      and\n        /* \"Corporation/Employees.sol\":6651:6676  Employee storage employee */\n      0x00\n        /* \"Corporation/Employees.sol\":6679:6699  employees[_employee] */\n      swap1\n      dup2\n      mstore\n        /* \"Corporation/Employees.sol\":6679:6688  employees */\n      0x01\n        /* \"Corporation/Employees.sol\":6679:6699  employees[_employee] */\n      0x20\n      dup2\n      swap1\n      mstore\n      0x40\n      swap1\n      swap2\n      keccak256\n        /* \"Corporation/Employees.sol\":6715:6734  employee.isEmployee */\n      dup1\n      sload\n        /* \"Corporation/Employees.sol\":6679:6699  employees[_employee] */\n      swap1\n      swap2\n        /* \"Corporation/Employees.sol\":6715:6734  employee.isEmployee */\n      0xff\n      swap1\n      swap2\n      and\n        /* \"Corporation/Employees.sol\":6715:6742  employee.isEmployee != true */\n      iszero\n      iszero\n      eq\n        /* \"Corporation/Employees.sol\":6712:6782  if(employee.isEmployee != true)... */\n      tag_164\n      jumpi\n        /* \"Corporation/Employees.sol\":6757:6782  revert(\"Not an employee\") */\n      mload(0x40)\n      0x08c379a000000000000000000000000000000000000000000000000000000000\n      dup2\n      mstore\n        /* \"#utility.yul\":11140:11142   */\n      0x20\n        /* \"Corporation/Employees.sol\":6757:6782  revert(\"Not an employee\") */\n      0x04\n      dup3\n      add\n        /* \"#utility.yul\":11122:11143   */\n      mstore\n        /* \"#utility.yul\":11179:11181   */\n      0x0f\n        /* \"#utility.yul\":11159:11177   */\n      0x24\n      dup3\n      add\n        /* \"#utility.yul\":11152:11182   */\n      mstore\n        /* \"#utility.yul\":11218:11235   */\n      0x4e6f7420616e20656d706c6f7965650000000000000000000000000000000000\n        /* \"#utility.yul\":11198:11216   */\n      0x44\n      dup3\n      add\n        /* \"#utility.yul\":11191:11236   */\n      mstore\n        /* \"#utility.yul\":11253:11271   */\n      0x64\n      add\n        /* \"Corporation/Employees.sol\":6757:6782  revert(\"Not an employee\") */\n      tag_33\n        /* \"#utility.yul\":10938:11277   */\n      jump\n        /* \"Corporation/Employees.sol\":6712:6782  if(employee.isEmployee != true)... */\n    tag_164:\n        /* \"Corporation/Employees.sol\":6795:6822  employee.isEmployee = false */\n      dup1\n      sload\n        /* \"Corporation/Employees.sol\":6833:6878  employee.releasedAt = uint32(block.timestamp) */\n      0xffffffffffffffffffffffffffffffffffffffffff00000000ffffffffffff00\n      and\n      0x0100000000000000\n        /* \"Corporation/Employees.sol\":6862:6877  block.timestamp */\n      timestamp\n        /* \"Corporation/Employees.sol\":6833:6878  employee.releasedAt = uint32(block.timestamp) */\n      0xffffffff\n      and\n      mul\n      or\n      dup2\n      sstore\n        /* \"Corporation/Employees.sol\":6896:6923  EmployeeRemoval( _employee) */\n      mload(0x40)\n      0xffffffffffffffffffffffffffffffffffffffff\n      dup5\n      and\n      swap1\n      0x4f8dd5393fd34d2f49290d092d4acb088e011456e5d47b4ba6188cd81ca2887d\n      swap1\n      0x00\n      swap1\n      log2\n        /* \"Corporation/Employees.sol\":6941:6945  true */\n      0x01\n        /* \"Corporation/Employees.sol\":6934:6946  return(true) */\n      swap2\n      pop\n      pop\n        /* \"Corporation/Employees.sol\":2350:2351  _ */\n    tag_163:\n        /* \"Corporation/Employees.sol\":6565:6954  function RemoveEmployee(address _employee) public ownerOnly returns(bool){... */\n      swap2\n      swap1\n      pop\n      jump\t// out\n        /* \"Corporation/Employees.sol\":5370:6118  function AddEmployee(address _employee, uint16 _dailyWage) public ownerOnly returns(bool){... */\n    tag_50:\n        /* \"Corporation/Employees.sol\":5454:5458  bool */\n      0x00\n        /* \"Corporation/Employees.sol\":2292:2302  msg.sender */\n      caller\n        /* \"Corporation/Employees.sol\":2278:2302  pt.Owner() != msg.sender */\n      0xffffffffffffffffffffffffffffffffffffffff\n      and\n        /* \"Corporation/Employees.sol\":1310:1352  0x163342FAe2bBe3303e5A9ADCe4BC9fb44d0FF062 */\n      0x163342fae2bbe3303e5a9adce4bc9fb44d0ff062\n        /* \"Corporation/Employees.sol\":2278:2286  pt.Owner */\n      0xffffffffffffffffffffffffffffffffffffffff\n      and\n      0xb4a99a4e\n        /* \"Corporation/Employees.sol\":2278:2288  pt.Owner() */\n      mload(0x40)\n      dup2\n      0xffffffff\n      and\n      0xe0\n      shl\n      dup2\n      mstore\n      0x04\n      add\n      0x20\n      mload(0x40)\n      dup1\n      dup4\n      sub\n      dup2\n      dup7\n      gas\n      staticcall\n      iszero\n      dup1\n      iszero\n      tag_169\n      jumpi\n      returndatasize\n      0x00\n      dup1\n      returndatacopy\n      revert(0x00, returndatasize)\n    tag_169:\n      pop\n      pop\n      pop\n      pop\n      mload(0x40)\n      returndatasize\n      not(0x1f)\n      0x1f\n      dup3\n      add\n      and\n      dup3\n      add\n      dup1\n      0x40\n      mstore\n      pop\n      dup2\n      add\n      swap1\n      tag_170\n      swap2\n      swap1\n      tag_17\n      jump\t// in\n    tag_170:\n        /* \"Corporation/Employees.sol\":2278:2302  pt.Owner() != msg.sender */\n      0xffffffffffffffffffffffffffffffffffffffff\n      and\n      eq\n        /* \"Corporation/Employees.sol\":2275:2337  if(pt.Owner() != msg.sender)... */\n      tag_171\n      jumpi\n        /* \"Corporation/Employees.sol\":2317:2337  revert(\"Owner only\") */\n      mload(0x40)\n      0x08c379a000000000000000000000000000000000000000000000000000000000\n      dup2\n      mstore\n        /* \"#utility.yul\":10801:10803   */\n      0x20\n        /* \"Corporation/Employees.sol\":2317:2337  revert(\"Owner only\") */\n      0x04\n      dup3\n      add\n        /* \"#utility.yul\":10783:10804   */\n      mstore\n        /* \"#utility.yul\":10840:10842   */\n      0x0a\n        /* \"#utility.yul\":10820:10838   */\n      0x24\n      dup3\n      add\n        /* \"#utility.yul\":10813:10843   */\n      mstore\n        /* \"#utility.yul\":10879:10891   */\n      0x4f776e6572206f6e6c7900000000000000000000000000000000000000000000\n        /* \"#utility.yul\":10859:10877   */\n      0x44\n      dup3\n      add\n        /* \"#utility.yul\":10852:10892   */\n      mstore\n        /* \"#utility.yul\":10909:10927   */\n      0x64\n      add\n        /* \"Corporation/Employees.sol\":2317:2337  revert(\"Owner only\") */\n      tag_33\n        /* \"#utility.yul\":10599:10933   */\n      jump\n        /* \"Corporation/Employees.sol\":2275:2337  if(pt.Owner() != msg.sender)... */\n    tag_171:\n        /* \"Corporation/Employees.sol\":5500:5520  employees[_employee] */\n      0xffffffffffffffffffffffffffffffffffffffff\n      dup4\n      and\n        /* \"Corporation/Employees.sol\":5472:5497  Employee storage employee */\n      0x00\n        /* \"Corporation/Employees.sol\":5500:5520  employees[_employee] */\n      swap1\n      dup2\n      mstore\n        /* \"Corporation/Employees.sol\":5500:5509  employees */\n      0x01\n        /* \"Corporation/Employees.sol\":5500:5520  employees[_employee] */\n      0x20\n      dup2\n      swap1\n      mstore\n      0x40\n      swap1\n      swap2\n      keccak256\n        /* \"Corporation/Employees.sol\":5536:5555  employee.isEmployee */\n      dup1\n      sload\n        /* \"Corporation/Employees.sol\":5500:5520  employees[_employee] */\n      swap1\n      swap2\n        /* \"Corporation/Employees.sol\":5536:5555  employee.isEmployee */\n      0xff\n      swap1\n      swap2\n      and\n        /* \"Corporation/Employees.sol\":5536:5563  employee.isEmployee == true */\n      iszero\n      iszero\n      swap1\n      sub\n        /* \"Corporation/Employees.sol\":5533:5605  if(employee.isEmployee == true)... */\n      tag_174\n      jumpi\n        /* \"Corporation/Employees.sol\":5578:5605  revert(\"Already employeed\") */\n      mload(0x40)\n      0x08c379a000000000000000000000000000000000000000000000000000000000\n      dup2\n      mstore\n        /* \"#utility.yul\":11484:11486   */\n      0x20\n        /* \"Corporation/Employees.sol\":5578:5605  revert(\"Already employeed\") */\n      0x04\n      dup3\n      add\n        /* \"#utility.yul\":11466:11487   */\n      mstore\n        /* \"#utility.yul\":11523:11525   */\n      0x11\n        /* \"#utility.yul\":11503:11521   */\n      0x24\n      dup3\n      add\n        /* \"#utility.yul\":11496:11526   */\n      mstore\n        /* \"#utility.yul\":11562:11581   */\n      0x416c726561647920656d706c6f79656564000000000000000000000000000000\n        /* \"#utility.yul\":11542:11560   */\n      0x44\n      dup3\n      add\n        /* \"#utility.yul\":11535:11582   */\n      mstore\n        /* \"#utility.yul\":11599:11617   */\n      0x64\n      add\n        /* \"Corporation/Employees.sol\":5578:5605  revert(\"Already employeed\") */\n      tag_33\n        /* \"#utility.yul\":11282:11623   */\n      jump\n        /* \"Corporation/Employees.sol\":5533:5605  if(employee.isEmployee == true)... */\n    tag_174:\n        /* \"Corporation/Employees.sol\":5621:5640  employee.releasedAt */\n      dup1\n      sload\n      0x0100000000000000\n      swap1\n      div\n      0xffffffff\n      and\n        /* \"Corporation/Employees.sol\":5621:5644  employee.releasedAt > 0 */\n      iszero\n        /* \"Corporation/Employees.sol\":5618:5683  if(employee.releasedAt > 0)... */\n      tag_177\n      jumpi\n        /* \"Corporation/Employees.sol\":5659:5683  revert(\"Payoff pending\") */\n      mload(0x40)\n      0x08c379a000000000000000000000000000000000000000000000000000000000\n      dup2\n      mstore\n        /* \"#utility.yul\":11830:11832   */\n      0x20\n        /* \"Corporation/Employees.sol\":5659:5683  revert(\"Payoff pending\") */\n      0x04\n      dup3\n      add\n        /* \"#utility.yul\":11812:11833   */\n      mstore\n        /* \"#utility.yul\":11869:11871   */\n      0x0e\n        /* \"#utility.yul\":11849:11867   */\n      0x24\n      dup3\n      add\n        /* \"#utility.yul\":11842:11872   */\n      mstore\n        /* \"#utility.yul\":11908:11924   */\n      0x5061796f66662070656e64696e67000000000000000000000000000000000000\n        /* \"#utility.yul\":11888:11906   */\n      0x44\n      dup3\n      add\n        /* \"#utility.yul\":11881:11925   */\n      mstore\n        /* \"#utility.yul\":11942:11960   */\n      0x64\n      add\n        /* \"Corporation/Employees.sol\":5659:5683  revert(\"Payoff pending\") */\n      tag_33\n        /* \"#utility.yul\":11628:11966   */\n      jump\n        /* \"Corporation/Employees.sol\":5618:5683  if(employee.releasedAt > 0)... */\n    tag_177:\n        /* \"Corporation/Employees.sol\":5735:5757  extcodesize(_employee) */\n      dup4\n      extcodesize\n        /* \"Corporation/Employees.sol\":5773:5782  size != 0 */\n      0xffffffff\n      dup2\n      and\n      iszero\n        /* \"Corporation/Employees.sol\":5770:5827  if(size != 0)... */\n      tag_180\n      jumpi\n        /* \"Corporation/Employees.sol\":5797:5827  revert(\"Employee is contract\") */\n      mload(0x40)\n      0x08c379a000000000000000000000000000000000000000000000000000000000\n      dup2\n      mstore\n        /* \"#utility.yul\":12173:12175   */\n      0x20\n        /* \"Corporation/Employees.sol\":5797:5827  revert(\"Employee is contract\") */\n      0x04\n      dup3\n      add\n        /* \"#utility.yul\":12155:12176   */\n      mstore\n        /* \"#utility.yul\":12212:12214   */\n      0x14\n        /* \"#utility.yul\":12192:12210   */\n      0x24\n      dup3\n      add\n        /* \"#utility.yul\":12185:12215   */\n      mstore\n        /* \"#utility.yul\":12251:12273   */\n      0x456d706c6f79656520697320636f6e7472616374000000000000000000000000\n        /* \"#utility.yul\":12231:12249   */\n      0x44\n      dup3\n      add\n        /* \"#utility.yul\":12224:12274   */\n      mstore\n        /* \"#utility.yul\":12291:12309   */\n      0x64\n      add\n        /* \"Corporation/Employees.sol\":5797:5827  revert(\"Employee is contract\") */\n      tag_33\n        /* \"#utility.yul\":11971:12315   */\n      jump\n        /* \"Corporation/Employees.sol\":5770:5827  if(size != 0)... */\n    tag_180:\n        /* \"Corporation/Employees.sol\":5843:5853  _dailyWage */\n      dup4\n        /* \"Corporation/Employees.sol\":5843:5858  _dailyWage == 0 */\n      0xffff\n      and\n        /* \"Corporation/Employees.sol\":5857:5858  0 */\n      0x00\n        /* \"Corporation/Employees.sol\":5843:5858  _dailyWage == 0 */\n      sub\n        /* \"Corporation/Employees.sol\":5840:5892  if(_dailyWage == 0)... */\n      tag_183\n      jumpi\n        /* \"Corporation/Employees.sol\":5873:5892  revert(\"Zero wage\") */\n      mload(0x40)\n      0x08c379a000000000000000000000000000000000000000000000000000000000\n      dup2\n      mstore\n        /* \"#utility.yul\":12522:12524   */\n      0x20\n        /* \"Corporation/Employees.sol\":5873:5892  revert(\"Zero wage\") */\n      0x04\n      dup3\n      add\n        /* \"#utility.yul\":12504:12525   */\n      mstore\n        /* \"#utility.yul\":12561:12562   */\n      0x09\n        /* \"#utility.yul\":12541:12559   */\n      0x24\n      dup3\n      add\n        /* \"#utility.yul\":12534:12563   */\n      mstore\n        /* \"#utility.yul\":12599:12610   */\n      0x5a65726f20776167650000000000000000000000000000000000000000000000\n        /* \"#utility.yul\":12579:12597   */\n      0x44\n      dup3\n      add\n        /* \"#utility.yul\":12572:12611   */\n      mstore\n        /* \"#utility.yul\":12628:12646   */\n      0x64\n      add\n        /* \"Corporation/Employees.sol\":5873:5892  revert(\"Zero wage\") */\n      tag_33\n        /* \"#utility.yul\":12320:12652   */\n      jump\n        /* \"Corporation/Employees.sol\":5840:5892  if(_dailyWage == 0)... */\n    tag_183:\n        /* \"Corporation/Employees.sol\":5905:5931  employee.isEmployee = true */\n      dup2\n      sload\n        /* \"Corporation/Employees.sol\":5984:6029  employee.lastPayoff = uint32(block.timestamp) */\n      0xffffffff\n        /* \"Corporation/Employees.sol\":6013:6028  block.timestamp */\n      timestamp\n        /* \"Corporation/Employees.sol\":5984:6029  employee.lastPayoff = uint32(block.timestamp) */\n      and\n      0x01000000\n      mul\n      0xffffffffffffffffffffffffffffffffffffffffffffffffff00000000ffffff\n        /* \"Corporation/Employees.sol\":5942:5973  employee.dailyWage = _dailyWage */\n      0xffff\n      dup8\n      and\n        /* \"Corporation/Employees.sol\":5905:5931  employee.isEmployee = true */\n      0x0100\n        /* \"Corporation/Employees.sol\":5942:5973  employee.dailyWage = _dailyWage */\n      dup2\n      mul\n      0xffffffffffffffffffffffffffffffffffffffffffffffffffffffffff000000\n      swap1\n      swap5\n      and\n      swap4\n      swap1\n      swap4\n      or\n        /* \"Corporation/Employees.sol\":5927:5931  true */\n      0x01\n        /* \"Corporation/Employees.sol\":5942:5973  employee.dailyWage = _dailyWage */\n      or\n        /* \"Corporation/Employees.sol\":5984:6029  employee.lastPayoff = uint32(block.timestamp) */\n      and\n      or\n      dup4\n      sstore\n        /* \"Corporation/Employees.sol\":6047:6087  EmployeeAddition(_employee,  _dailyWage) */\n      mload(0x40)\n        /* \"#utility.yul\":12802:12840   */\n      swap1\n      dup2\n      mstore\n        /* \"Corporation/Employees.sol\":6047:6087  EmployeeAddition(_employee,  _dailyWage) */\n      0xffffffffffffffffffffffffffffffffffffffff\n      dup7\n      and\n      swap1\n      0xcce11e3d6f477d5366660c25bc52487e09546e4f633512a0b70afe53cad75888\n      swap1\n        /* \"#utility.yul\":12790:12792   */\n      0x20\n        /* \"#utility.yul\":12775:12793   */\n      add\n        /* \"Corporation/Employees.sol\":6047:6087  EmployeeAddition(_employee,  _dailyWage) */\n      mload(0x40)\n      dup1\n      swap2\n      sub\n      swap1\n      log2\n        /* \"Corporation/Employees.sol\":6105:6109  true */\n      0x01\n        /* \"Corporation/Employees.sol\":6098:6110  return(true) */\n      swap3\n      pop\n      pop\n      pop\n        /* \"Corporation/Employees.sol\":2350:2351  _ */\n    tag_173:\n        /* \"Corporation/Employees.sol\":5370:6118  function AddEmployee(address _employee, uint16 _dailyWage) public ownerOnly returns(bool){... */\n      swap3\n      swap2\n      pop\n      pop\n      jump\t// out\n        /* \"Corporation/Employees.sol\":2654:3127  function EmployeeProfile(address _employee) public view returns(uint16 dailyWage, uint32 daysUnpaid, uint32 lastPayoff, bool isEmployee){... */\n    tag_60:\n        /* \"Corporation/Employees.sol\":2830:2850  employees[_employee] */\n      0xffffffffffffffffffffffffffffffffffffffff\n      dup2\n      and\n        /* \"Corporation/Employees.sol\":2718:2734  uint16 dailyWage */\n      0x00\n        /* \"Corporation/Employees.sol\":2830:2850  employees[_employee] */\n      dup2\n      dup2\n      mstore\n        /* \"Corporation/Employees.sol\":2830:2839  employees */\n      0x01\n        /* \"Corporation/Employees.sol\":2830:2850  employees[_employee] */\n      0x20\n      dup2\n      dup2\n      mstore\n      0x40\n      dup1\n      dup5\n      keccak256\n        /* \"Corporation/Employees.sol\":2803:2850  Employee memory employee = employees[_employee] */\n      dup2\n      mload\n      0x80\n      dup2\n      add\n      dup4\n      mstore\n      swap1\n      sload\n      0xff\n      dup2\n      and\n      iszero\n      iszero\n      dup3\n      mstore\n      0xffff\n      0x0100\n      dup3\n      div\n      and\n      dup3\n      dup6\n      add\n      dup2\n      swap1\n      mstore\n      0xffffffff\n      0x01000000\n      dup4\n      div\n      dup2\n      and\n      swap5\n      dup5\n      add\n      dup6\n      swap1\n      mstore\n      0x0100000000000000\n      swap1\n      swap3\n      div\n      swap1\n      swap2\n      and\n      0x60\n      dup4\n      add\n      mstore\n        /* \"Corporation/Employees.sol\":2918:2938  employees[_employee] */\n      swap6\n      dup6\n      mstore\n      swap3\n      swap1\n      swap2\n      mstore\n        /* \"Corporation/Employees.sol\":2718:2734  uint16 dailyWage */\n      dup3\n      swap2\n      dup3\n      swap2\n        /* \"Corporation/Employees.sol\":2917:3033  (employees[_employee].lastPayoff > 0) ? ((uint32(block.timestamp) - employees[_employee].lastPayoff) / (1 days)) : 0 */\n      tag_189\n      jumpi\n        /* \"Corporation/Employees.sol\":3032:3033  0 */\n      0x00\n        /* \"Corporation/Employees.sol\":2917:3033  (employees[_employee].lastPayoff > 0) ? ((uint32(block.timestamp) - employees[_employee].lastPayoff) / (1 days)) : 0 */\n      jump(tag_192)\n    tag_189:\n        /* \"Corporation/Employees.sol\":2985:3005  employees[_employee] */\n      0xffffffffffffffffffffffffffffffffffffffff\n      dup7\n      and\n      0x00\n      swap1\n      dup2\n      mstore\n        /* \"Corporation/Employees.sol\":2985:2994  employees */\n      0x01\n        /* \"Corporation/Employees.sol\":2985:3005  employees[_employee] */\n      0x20\n      mstore\n      0x40\n      swap1\n      keccak256\n        /* \"Corporation/Employees.sol\":2985:3016  employees[_employee].lastPayoff */\n      sload\n        /* \"Corporation/Employees.sol\":3021:3027  1 days */\n      0x015180\n      swap1\n        /* \"Corporation/Employees.sol\":2959:3016  uint32(block.timestamp) - employees[_employee].lastPayoff */\n      tag_191\n      swap1\n        /* \"Corporation/Employees.sol\":2985:3016  employees[_employee].lastPayoff */\n      0x01000000\n      swap1\n      div\n      0xffffffff\n      and\n        /* \"Corporation/Employees.sol\":2966:2981  block.timestamp */\n      timestamp\n        /* \"Corporation/Employees.sol\":2959:3016  uint32(block.timestamp) - employees[_employee].lastPayoff */\n      tag_100\n      jump\t// in\n    tag_191:\n        /* \"Corporation/Employees.sol\":2958:3028  (uint32(block.timestamp) - employees[_employee].lastPayoff) / (1 days) */\n      tag_192\n      swap2\n      swap1\n      tag_102\n      jump\t// in\n    tag_192:\n        /* \"Corporation/Employees.sol\":3057:3076  employee.lastPayoff */\n      0x40\n      dup3\n      add\n      mload\n        /* \"Corporation/Employees.sol\":3100:3119  employee.isEmployee */\n      swap2\n      mload\n        /* \"Corporation/Employees.sol\":2654:3127  function EmployeeProfile(address _employee) public view returns(uint16 dailyWage, uint32 daysUnpaid, uint32 lastPayoff, bool isEmployee){... */\n      swap6\n      swap8\n        /* \"Corporation/Employees.sol\":2904:3033  daysUnpaid = (employees[_employee].lastPayoff > 0) ? ((uint32(block.timestamp) - employees[_employee].lastPayoff) / (1 days)) : 0 */\n      swap1\n      swap7\n      pop\n        /* \"Corporation/Employees.sol\":3057:3076  employee.lastPayoff */\n      swap1\n      swap5\n        /* \"Corporation/Employees.sol\":3100:3119  employee.isEmployee */\n      swap4\n      pop\n        /* \"Corporation/Employees.sol\":2654:3127  function EmployeeProfile(address _employee) public view returns(uint16 dailyWage, uint32 daysUnpaid, uint32 lastPayoff, bool isEmployee){... */\n      swap2\n      pop\n      pop\n      jump\t// out\n        /* \"Corporation/Employees.sol\":6126:6557  function UpdateEmployee(address _employee, uint16 _dailyWage) public ownerOnly returns(bool){... */\n    tag_66:\n        /* \"Corporation/Employees.sol\":6213:6217  bool */\n      0x00\n        /* \"Corporation/Employees.sol\":2292:2302  msg.sender */\n      caller\n        /* \"Corporation/Employees.sol\":2278:2302  pt.Owner() != msg.sender */\n      0xffffffffffffffffffffffffffffffffffffffff\n      and\n        /* \"Corporation/Employees.sol\":1310:1352  0x163342FAe2bBe3303e5A9ADCe4BC9fb44d0FF062 */\n      0x163342fae2bbe3303e5a9adce4bc9fb44d0ff062\n        /* \"Corporation/Employees.sol\":2278:2286  pt.Owner */\n      0xffffffffffffffffffffffffffffffffffffffff\n      and\n      0xb4a99a4e\n        /* \"Corporation/Employees.sol\":2278:2288  pt.Owner() */\n      mload(0x40)\n      dup2\n      0xffffffff\n      and\n      0xe0\n      shl\n      dup2\n      mstore\n      0x04\n      add\n      0x20\n      mload(0x40)\n      dup1\n      dup4\n      sub\n      dup2\n      dup7\n      gas\n      staticcall\n      iszero\n      dup1\n      iszero\n      tag_195\n      jumpi\n      returndatasize\n      0x00\n      dup1\n      returndatacopy\n      revert(0x00, returndatasize)\n    tag_195:\n      pop\n      pop\n      pop\n      pop\n      mload(0x40)\n      returndatasize\n      not(0x1f)\n      0x1f\n      dup3\n      add\n      and\n      dup3\n      add\n      dup1\n      0x40\n      mstore\n      pop\n      dup2\n      add\n      swap1\n      tag_196\n      swap2\n      swap1\n      tag_17\n      jump\t// in\n    tag_196:\n        /* \"Corporation/Employees.sol\":2278:2302  pt.Owner() != msg.sender */\n      0xffffffffffffffffffffffffffffffffffffffff\n      and\n      eq\n        /* \"Corporation/Employees.sol\":2275:2337  if(pt.Owner() != msg.sender)... */\n      tag_197\n      jumpi\n        /* \"Corporation/Employees.sol\":2317:2337  revert(\"Owner only\") */\n      mload(0x40)\n      0x08c379a000000000000000000000000000000000000000000000000000000000\n      dup2\n      mstore\n        /* \"#utility.yul\":10801:10803   */\n      0x20\n        /* \"Corporation/Employees.sol\":2317:2337  revert(\"Owner only\") */\n      0x04\n      dup3\n      add\n        /* \"#utility.yul\":10783:10804   */\n      mstore\n        /* \"#utility.yul\":10840:10842   */\n      0x0a\n        /* \"#utility.yul\":10820:10838   */\n      0x24\n      dup3\n      add\n        /* \"#utility.yul\":10813:10843   */\n      mstore\n        /* \"#utility.yul\":10879:10891   */\n      0x4f776e6572206f6e6c7900000000000000000000000000000000000000000000\n        /* \"#utility.yul\":10859:10877   */\n      0x44\n      dup3\n      add\n        /* \"#utility.yul\":10852:10892   */\n      mstore\n        /* \"#utility.yul\":10909:10927   */\n      0x64\n      add\n        /* \"Corporation/Employees.sol\":2317:2337  revert(\"Owner only\") */\n      tag_33\n        /* \"#utility.yul\":10599:10933   */\n      jump\n        /* \"Corporation/Employees.sol\":2275:2337  if(pt.Owner() != msg.sender)... */\n    tag_197:\n        /* \"Corporation/Employees.sol\":6259:6279  employees[_employee] */\n      0xffffffffffffffffffffffffffffffffffffffff\n      dup4\n      and\n        /* \"Corporation/Employees.sol\":6231:6256  Employee storage employee */\n      0x00\n        /* \"Corporation/Employees.sol\":6259:6279  employees[_employee] */\n      swap1\n      dup2\n      mstore\n        /* \"Corporation/Employees.sol\":6259:6268  employees */\n      0x01\n        /* \"Corporation/Employees.sol\":6259:6279  employees[_employee] */\n      0x20\n      dup2\n      swap1\n      mstore\n      0x40\n      swap1\n      swap2\n      keccak256\n        /* \"Corporation/Employees.sol\":6295:6314  employee.isEmployee */\n      dup1\n      sload\n        /* \"Corporation/Employees.sol\":6259:6279  employees[_employee] */\n      swap1\n      swap2\n        /* \"Corporation/Employees.sol\":6295:6314  employee.isEmployee */\n      0xff\n      swap1\n      swap2\n      and\n        /* \"Corporation/Employees.sol\":6295:6322  employee.isEmployee != true */\n      iszero\n      iszero\n      eq\n        /* \"Corporation/Employees.sol\":6292:6362  if(employee.isEmployee != true)... */\n      tag_200\n      jumpi\n        /* \"Corporation/Employees.sol\":6337:6362  revert(\"Not an employee\") */\n      mload(0x40)\n      0x08c379a000000000000000000000000000000000000000000000000000000000\n      dup2\n      mstore\n        /* \"#utility.yul\":11140:11142   */\n      0x20\n        /* \"Corporation/Employees.sol\":6337:6362  revert(\"Not an employee\") */\n      0x04\n      dup3\n      add\n        /* \"#utility.yul\":11122:11143   */\n      mstore\n        /* \"#utility.yul\":11179:11181   */\n      0x0f\n        /* \"#utility.yul\":11159:11177   */\n      0x24\n      dup3\n      add\n        /* \"#utility.yul\":11152:11182   */\n      mstore\n        /* \"#utility.yul\":11218:11235   */\n      0x4e6f7420616e20656d706c6f7965650000000000000000000000000000000000\n        /* \"#utility.yul\":11198:11216   */\n      0x44\n      dup3\n      add\n        /* \"#utility.yul\":11191:11236   */\n      mstore\n        /* \"#utility.yul\":11253:11271   */\n      0x64\n      add\n        /* \"Corporation/Employees.sol\":6337:6362  revert(\"Not an employee\") */\n      tag_33\n        /* \"#utility.yul\":10938:11277   */\n      jump\n        /* \"Corporation/Employees.sol\":6292:6362  if(employee.isEmployee != true)... */\n    tag_200:\n        /* \"Corporation/Employees.sol\":6378:6388  _dailyWage */\n      dup3\n        /* \"Corporation/Employees.sol\":6378:6393  _dailyWage == 0 */\n      0xffff\n      and\n        /* \"Corporation/Employees.sol\":6392:6393  0 */\n      0x00\n        /* \"Corporation/Employees.sol\":6378:6393  _dailyWage == 0 */\n      sub\n        /* \"Corporation/Employees.sol\":6375:6427  if(_dailyWage == 0)... */\n      tag_202\n      jumpi\n        /* \"Corporation/Employees.sol\":6408:6427  revert(\"Zero wage\") */\n      mload(0x40)\n      0x08c379a000000000000000000000000000000000000000000000000000000000\n      dup2\n      mstore\n        /* \"#utility.yul\":12522:12524   */\n      0x20\n        /* \"Corporation/Employees.sol\":6408:6427  revert(\"Zero wage\") */\n      0x04\n      dup3\n      add\n        /* \"#utility.yul\":12504:12525   */\n      mstore\n        /* \"#utility.yul\":12561:12562   */\n      0x09\n        /* \"#utility.yul\":12541:12559   */\n      0x24\n      dup3\n      add\n        /* \"#utility.yul\":12534:12563   */\n      mstore\n        /* \"#utility.yul\":12599:12610   */\n      0x5a65726f20776167650000000000000000000000000000000000000000000000\n        /* \"#utility.yul\":12579:12597   */\n      0x44\n      dup3\n      add\n        /* \"#utility.yul\":12572:12611   */\n      mstore\n        /* \"#utility.yul\":12628:12646   */\n      0x64\n      add\n        /* \"Corporation/Employees.sol\":6408:6427  revert(\"Zero wage\") */\n      tag_33\n        /* \"#utility.yul\":12320:12652   */\n      jump\n        /* \"Corporation/Employees.sol\":6375:6427  if(_dailyWage == 0)... */\n    tag_202:\n        /* \"Corporation/Employees.sol\":6440:6471  employee.dailyWage = _dailyWage */\n      dup1\n      sload\n      0xffffffffffffffffffffffffffffffffffffffffffffffffffffffffff0000ff\n      and\n      0x0100\n      0xffff\n      dup6\n      and\n      swap1\n      dup2\n      mul\n      swap2\n      swap1\n      swap2\n      or\n      dup3\n      sstore\n        /* \"Corporation/Employees.sol\":6489:6526  EmployeeUpdate(_employee, _dailyWage) */\n      mload(0x40)\n        /* \"#utility.yul\":12802:12840   */\n      swap1\n      dup2\n      mstore\n        /* \"Corporation/Employees.sol\":6489:6526  EmployeeUpdate(_employee, _dailyWage) */\n      0xffffffffffffffffffffffffffffffffffffffff\n      dup6\n      and\n      swap1\n      0xf1b941e2361086e5213d894077d063bf4e875acdd8259232c63f368648d62ce1\n      swap1\n        /* \"#utility.yul\":12790:12792   */\n      0x20\n        /* \"#utility.yul\":12775:12793   */\n      add\n        /* \"Corporation/Employees.sol\":6489:6526  EmployeeUpdate(_employee, _dailyWage) */\n      mload(0x40)\n      dup1\n      swap2\n      sub\n      swap1\n      log2\n      pop\n        /* \"Corporation/Employees.sol\":6544:6548  true */\n      0x01\n      swap4\n        /* \"Corporation/Employees.sol\":6126:6557  function UpdateEmployee(address _employee, uint16 _dailyWage) public ownerOnly returns(bool){... */\n      swap3\n      pop\n      pop\n      pop\n      jump\t// out\n        /* \"#utility.yul\":361:515   */\n    tag_205:\n        /* \"#utility.yul\":447:489   */\n      0xffffffffffffffffffffffffffffffffffffffff\n        /* \"#utility.yul\":440:445   */\n      dup2\n        /* \"#utility.yul\":436:490   */\n      and\n        /* \"#utility.yul\":429:434   */\n      dup2\n        /* \"#utility.yul\":426:491   */\n      eq\n        /* \"#utility.yul\":416:509   */\n      tag_214\n      jumpi\n        /* \"#utility.yul\":505:506   */\n      0x00\n        /* \"#utility.yul\":502:503   */\n      dup1\n        /* \"#utility.yul\":495:507   */\n      revert\n        /* \"#utility.yul\":416:509   */\n    tag_214:\n        /* \"#utility.yul\":361:515   */\n      pop\n      jump\t// out\n        /* \"#utility.yul\":520:771   */\n    tag_17:\n        /* \"#utility.yul\":590:596   */\n      0x00\n        /* \"#utility.yul\":643:645   */\n      0x20\n        /* \"#utility.yul\":631:640   */\n      dup3\n        /* \"#utility.yul\":622:629   */\n      dup5\n        /* \"#utility.yul\":618:641   */\n      sub\n        /* \"#utility.yul\":614:646   */\n      slt\n        /* \"#utility.yul\":611:663   */\n      iszero\n      tag_216\n      jumpi\n        /* \"#utility.yul\":659:660   */\n      0x00\n        /* \"#utility.yul\":656:657   */\n      dup1\n        /* \"#utility.yul\":649:661   */\n      revert\n        /* \"#utility.yul\":611:663   */\n    tag_216:\n        /* \"#utility.yul\":691:700   */\n      dup2\n        /* \"#utility.yul\":685:701   */\n      mload\n        /* \"#utility.yul\":710:741   */\n      tag_217\n        /* \"#utility.yul\":735:740   */\n      dup2\n        /* \"#utility.yul\":710:741   */\n      tag_205\n      jump\t// in\n    tag_217:\n        /* \"#utility.yul\":760:765   */\n      swap4\n        /* \"#utility.yul\":520:771   */\n      swap3\n      pop\n      pop\n      pop\n      jump\t// out\n        /* \"#utility.yul\":1881:2128   */\n    tag_43:\n        /* \"#utility.yul\":1940:1946   */\n      0x00\n        /* \"#utility.yul\":1993:1995   */\n      0x20\n        /* \"#utility.yul\":1981:1990   */\n      dup3\n        /* \"#utility.yul\":1972:1979   */\n      dup5\n        /* \"#utility.yul\":1968:1991   */\n      sub\n        /* \"#utility.yul\":1964:1996   */\n      slt\n        /* \"#utility.yul\":1961:2013   */\n      iszero\n      tag_223\n      jumpi\n        /* \"#utility.yul\":2009:2010   */\n      0x00\n        /* \"#utility.yul\":2006:2007   */\n      dup1\n        /* \"#utility.yul\":1999:2011   */\n      revert\n        /* \"#utility.yul\":1961:2013   */\n    tag_223:\n        /* \"#utility.yul\":2048:2057   */\n      dup2\n        /* \"#utility.yul\":2035:2058   */\n      calldataload\n        /* \"#utility.yul\":2067:2098   */\n      tag_217\n        /* \"#utility.yul\":2092:2097   */\n      dup2\n        /* \"#utility.yul\":2067:2098   */\n      tag_205\n      jump\t// in\n        /* \"#utility.yul\":2133:2548   */\n    tag_49:\n        /* \"#utility.yul\":2200:2206   */\n      0x00\n        /* \"#utility.yul\":2208:2214   */\n      dup1\n        /* \"#utility.yul\":2261:2263   */\n      0x40\n        /* \"#utility.yul\":2249:2258   */\n      dup4\n        /* \"#utility.yul\":2240:2247   */\n      dup6\n        /* \"#utility.yul\":2236:2259   */\n      sub\n        /* \"#utility.yul\":2232:2264   */\n      slt\n        /* \"#utility.yul\":2229:2281   */\n      iszero\n      tag_226\n      jumpi\n        /* \"#utility.yul\":2277:2278   */\n      0x00\n        /* \"#utility.yul\":2274:2275   */\n      dup1\n        /* \"#utility.yul\":2267:2279   */\n      revert\n        /* \"#utility.yul\":2229:2281   */\n    tag_226:\n        /* \"#utility.yul\":2316:2325   */\n      dup3\n        /* \"#utility.yul\":2303:2326   */\n      calldataload\n        /* \"#utility.yul\":2335:2366   */\n      tag_227\n        /* \"#utility.yul\":2360:2365   */\n      dup2\n        /* \"#utility.yul\":2335:2366   */\n      tag_205\n      jump\t// in\n    tag_227:\n        /* \"#utility.yul\":2385:2390   */\n      swap2\n      pop\n        /* \"#utility.yul\":2442:2444   */\n      0x20\n        /* \"#utility.yul\":2427:2445   */\n      dup4\n      add\n        /* \"#utility.yul\":2414:2446   */\n      calldataload\n        /* \"#utility.yul\":2490:2496   */\n      0xffff\n        /* \"#utility.yul\":2477:2497   */\n      dup2\n      and\n        /* \"#utility.yul\":2465:2498   */\n      dup2\n      eq\n        /* \"#utility.yul\":2455:2516   */\n      tag_228\n      jumpi\n        /* \"#utility.yul\":2512:2513   */\n      0x00\n        /* \"#utility.yul\":2509:2510   */\n      dup1\n        /* \"#utility.yul\":2502:2514   */\n      revert\n        /* \"#utility.yul\":2455:2516   */\n    tag_228:\n        /* \"#utility.yul\":2535:2542   */\n      dup1\n        /* \"#utility.yul\":2525:2542   */\n      swap2\n      pop\n      pop\n        /* \"#utility.yul\":2133:2548   */\n      swap3\n      pop\n      swap3\n      swap1\n      pop\n      jump\t// out\n        /* \"#utility.yul\":2553:3160   */\n    tag_56:\n        /* \"#utility.yul\":2665:2669   */\n      0x00\n        /* \"#utility.yul\":2694:2696   */\n      0x20\n        /* \"#utility.yul\":2723:2725   */\n      dup1\n        /* \"#utility.yul\":2712:2721   */\n      dup4\n        /* \"#utility.yul\":2705:2726   */\n      mstore\n        /* \"#utility.yul\":2755:2761   */\n      dup4\n        /* \"#utility.yul\":2749:2762   */\n      mload\n        /* \"#utility.yul\":2798:2804   */\n      dup1\n        /* \"#utility.yul\":2793:2795   */\n      dup3\n        /* \"#utility.yul\":2782:2791   */\n      dup6\n        /* \"#utility.yul\":2778:2796   */\n      add\n        /* \"#utility.yul\":2771:2805   */\n      mstore\n        /* \"#utility.yul\":2823:2824   */\n      0x00\n        /* \"#utility.yul\":2833:2973   */\n    tag_230:\n        /* \"#utility.yul\":2847:2853   */\n      dup2\n        /* \"#utility.yul\":2844:2845   */\n      dup2\n        /* \"#utility.yul\":2841:2854   */\n      lt\n        /* \"#utility.yul\":2833:2973   */\n      iszero\n      tag_232\n      jumpi\n        /* \"#utility.yul\":2942:2956   */\n      dup6\n      dup2\n      add\n        /* \"#utility.yul\":2938:2961   */\n      dup4\n      add\n        /* \"#utility.yul\":2932:2962   */\n      mload\n        /* \"#utility.yul\":2908:2925   */\n      dup6\n      dup3\n      add\n        /* \"#utility.yul\":2927:2929   */\n      0x40\n        /* \"#utility.yul\":2904:2930   */\n      add\n        /* \"#utility.yul\":2897:2963   */\n      mstore\n        /* \"#utility.yul\":2862:2872   */\n      dup3\n      add\n        /* \"#utility.yul\":2833:2973   */\n      jump(tag_230)\n    tag_232:\n        /* \"#utility.yul\":2837:2840   */\n      pop\n        /* \"#utility.yul\":3022:3023   */\n      0x00\n        /* \"#utility.yul\":3017:3019   */\n      0x40\n        /* \"#utility.yul\":3008:3014   */\n      dup3\n        /* \"#utility.yul\":2997:3006   */\n      dup7\n        /* \"#utility.yul\":2993:3015   */\n      add\n        /* \"#utility.yul\":2989:3020   */\n      add\n        /* \"#utility.yul\":2982:3024   */\n      mstore\n        /* \"#utility.yul\":3151:3153   */\n      0x40\n        /* \"#utility.yul\":3081:3147   */\n      0xffffffffffffffffffffffffffffffffffffffffffffffffffffffffffffffe0\n        /* \"#utility.yul\":3076:3078   */\n      0x1f\n        /* \"#utility.yul\":3068:3074   */\n      dup4\n        /* \"#utility.yul\":3064:3079   */\n      add\n        /* \"#utility.yul\":3060:3148   */\n      and\n        /* \"#utility.yul\":3049:3058   */\n      dup6\n        /* \"#utility.yul\":3045:3149   */\n      add\n        /* \"#utility.yul\":3041:3154   */\n      add\n        /* \"#utility.yul\":3033:3154   */\n      swap3\n      pop\n      pop\n      pop\n        /* \"#utility.yul\":2553:3160   */\n      swap3\n      swap2\n      pop\n      pop\n      jump\t// out\n        /* \"#utility.yul\":4661:4825   */\n    tag_206:\n        /* \"#utility.yul\":4737:4750   */\n      dup1\n      mload\n        /* \"#utility.yul\":4786:4799   */\n      dup1\n      iszero\n        /* \"#utility.yul\":4779:4800   */\n      iszero\n        /* \"#utility.yul\":4769:4801   */\n      dup2\n      eq\n        /* \"#utility.yul\":4759:4819   */\n      tag_163\n      jumpi\n        /* \"#utility.yul\":4815:4816   */\n      0x00\n        /* \"#utility.yul\":4812:4813   */\n      dup1\n        /* \"#utility.yul\":4805:4817   */\n      revert\n        /* \"#utility.yul\":4830:5182   */\n    tag_87:\n        /* \"#utility.yul\":4904:4910   */\n      0x00\n        /* \"#utility.yul\":4912:4918   */\n      dup1\n        /* \"#utility.yul\":4965:4967   */\n      0x40\n        /* \"#utility.yul\":4953:4962   */\n      dup4\n        /* \"#utility.yul\":4944:4951   */\n      dup6\n        /* \"#utility.yul\":4940:4963   */\n      sub\n        /* \"#utility.yul\":4936:4968   */\n      slt\n        /* \"#utility.yul\":4933:4985   */\n      iszero\n      tag_240\n      jumpi\n        /* \"#utility.yul\":4981:4982   */\n      0x00\n        /* \"#utility.yul\":4978:4979   */\n      dup1\n        /* \"#utility.yul\":4971:4983   */\n      revert\n        /* \"#utility.yul\":4933:4985   */\n    tag_240:\n        /* \"#utility.yul\":5013:5022   */\n      dup3\n        /* \"#utility.yul\":5007:5023   */\n      mload\n        /* \"#utility.yul\":5063:5067   */\n      0xff\n        /* \"#utility.yul\":5056:5061   */\n      dup2\n        /* \"#utility.yul\":5052:5068   */\n      and\n        /* \"#utility.yul\":5045:5050   */\n      dup2\n        /* \"#utility.yul\":5042:5069   */\n      eq\n        /* \"#utility.yul\":5032:5087   */\n      tag_241\n      jumpi\n        /* \"#utility.yul\":5083:5084   */\n      0x00\n        /* \"#utility.yul\":5080:5081   */\n      dup1\n        /* \"#utility.yul\":5073:5085   */\n      revert\n        /* \"#utility.yul\":5032:5087   */\n    tag_241:\n        /* \"#utility.yul\":5106:5111   */\n      swap2\n      pop\n        /* \"#utility.yul\":5130:5176   */\n      tag_242\n        /* \"#utility.yul\":5172:5174   */\n      0x20\n        /* \"#utility.yul\":5157:5175   */\n      dup5\n      add\n        /* \"#utility.yul\":5130:5176   */\n      tag_206\n      jump\t// in\n    tag_242:\n        /* \"#utility.yul\":5120:5176   */\n      swap1\n      pop\n        /* \"#utility.yul\":4830:5182   */\n      swap3\n      pop\n      swap3\n      swap1\n      pop\n      jump\t// out\n        /* \"#utility.yul\":5534:5718   */\n    tag_94:\n        /* \"#utility.yul\":5604:5610   */\n      0x00\n        /* \"#utility.yul\":5657:5659   */\n      0x20\n        /* \"#utility.yul\":5645:5654   */\n      dup3\n        /* \"#utility.yul\":5636:5643   */\n      dup5\n        /* \"#utility.yul\":5632:5655   */\n      sub\n        /* \"#utility.yul\":5628:5660   */\n      slt\n        /* \"#utility.yul\":5625:5677   */\n      iszero\n      tag_245\n      jumpi\n        /* \"#utility.yul\":5673:5674   */\n      0x00\n        /* \"#utility.yul\":5670:5671   */\n      dup1\n        /* \"#utility.yul\":5663:5675   */\n      revert\n        /* \"#utility.yul\":5625:5677   */\n    tag_245:\n      pop\n        /* \"#utility.yul\":5696:5712   */\n      mload\n      swap2\n        /* \"#utility.yul\":5534:5718   */\n      swap1\n      pop\n      jump\t// out\n        /* \"#utility.yul\":6075:6259   */\n    tag_207:\n        /* \"#utility.yul\":6127:6204   */\n      0x4e487b7100000000000000000000000000000000000000000000000000000000\n        /* \"#utility.yul\":6124:6125   */\n      0x00\n        /* \"#utility.yul\":6117:6205   */\n      mstore\n        /* \"#utility.yul\":6224:6228   */\n      0x11\n        /* \"#utility.yul\":6221:6222   */\n      0x04\n        /* \"#utility.yul\":6214:6229   */\n      mstore\n        /* \"#utility.yul\":6248:6252   */\n      0x24\n        /* \"#utility.yul\":6245:6246   */\n      0x00\n        /* \"#utility.yul\":6238:6253   */\n      revert\n        /* \"#utility.yul\":6264:6439   */\n    tag_100:\n        /* \"#utility.yul\":6332:6342   */\n      0xffffffff\n        /* \"#utility.yul\":6375:6385   */\n      dup3\n      dup2\n      and\n        /* \"#utility.yul\":6363:6373   */\n      dup3\n      dup3\n      and\n        /* \"#utility.yul\":6359:6386   */\n      sub\n      swap1\n        /* \"#utility.yul\":6398:6410   */\n      dup1\n      dup3\n      gt\n        /* \"#utility.yul\":6395:6433   */\n      iszero\n      tag_250\n      jumpi\n        /* \"#utility.yul\":6413:6431   */\n      tag_250\n      tag_207\n      jump\t// in\n    tag_250:\n        /* \"#utility.yul\":6395:6433   */\n      pop\n        /* \"#utility.yul\":6264:6439   */\n      swap3\n      swap2\n      pop\n      pop\n      jump\t// out\n        /* \"#utility.yul\":6444:6628   */\n    tag_208:\n        /* \"#utility.yul\":6496:6573   */\n      0x4e487b7100000000000000000000000000000000000000000000000000000000\n        /* \"#utility.yul\":6493:6494   */\n      0x00\n        /* \"#utility.yul\":6486:6574   */\n      mstore\n        /* \"#utility.yul\":6593:6597   */\n      0x12\n        /* \"#utility.yul\":6590:6591   */\n      0x04\n        /* \"#utility.yul\":6583:6598   */\n      mstore\n        /* \"#utility.yul\":6617:6621   */\n      0x24\n        /* \"#utility.yul\":6614:6615   */\n      0x00\n        /* \"#utility.yul\":6607:6622   */\n      revert\n        /* \"#utility.yul\":6633:6824   */\n    tag_102:\n        /* \"#utility.yul\":6672:6673   */\n      0x00\n        /* \"#utility.yul\":6698:6708   */\n      0xffffffff\n        /* \"#utility.yul\":6735:6737   */\n      dup1\n        /* \"#utility.yul\":6732:6733   */\n      dup5\n        /* \"#utility.yul\":6728:6738   */\n      and\n        /* \"#utility.yul\":6757:6760   */\n      dup1\n        /* \"#utility.yul\":6747:6784   */\n      tag_254\n      jumpi\n        /* \"#utility.yul\":6764:6782   */\n      tag_254\n      tag_208\n      jump\t// in\n    tag_254:\n        /* \"#utility.yul\":6802:6812   */\n      swap3\n      and\n        /* \"#utility.yul\":6798:6818   */\n      swap2\n      swap1\n      swap2\n      div\n      swap3\n        /* \"#utility.yul\":6633:6824   */\n      swap2\n      pop\n      pop\n      jump\t// out\n        /* \"#utility.yul\":6829:7012   */\n    tag_105:\n        /* \"#utility.yul\":6860:6861   */\n      0x00\n        /* \"#utility.yul\":6886:6896   */\n      0xffffffff\n        /* \"#utility.yul\":6923:6925   */\n      dup1\n        /* \"#utility.yul\":6920:6921   */\n      dup5\n        /* \"#utility.yul\":6916:6926   */\n      and\n        /* \"#utility.yul\":6945:6948   */\n      dup1\n        /* \"#utility.yul\":6935:6972   */\n      tag_257\n      jumpi\n        /* \"#utility.yul\":6952:6970   */\n      tag_257\n      tag_208\n      jump\t// in\n    tag_257:\n        /* \"#utility.yul\":6990:7000   */\n      swap3\n      and\n        /* \"#utility.yul\":6986:7006   */\n      swap2\n      swap1\n      swap2\n      mod\n      swap3\n        /* \"#utility.yul\":6829:7012   */\n      swap2\n      pop\n      pop\n      jump\t// out\n        /* \"#utility.yul\":7017:7185   */\n    tag_107:\n        /* \"#utility.yul\":7090:7099   */\n      dup1\n      dup3\n      mul\n        /* \"#utility.yul\":7121:7130   */\n      dup2\n      iszero\n        /* \"#utility.yul\":7138:7153   */\n      dup3\n      dup3\n      div\n        /* \"#utility.yul\":7132:7154   */\n      dup5\n      eq\n        /* \"#utility.yul\":7118:7155   */\n      or\n        /* \"#utility.yul\":7108:7179   */\n      tag_173\n      jumpi\n        /* \"#utility.yul\":7159:7177   */\n      tag_173\n      tag_207\n      jump\t// in\n        /* \"#utility.yul\":7190:7338   */\n    tag_109:\n        /* \"#utility.yul\":7278:7282   */\n      0xff\n        /* \"#utility.yul\":7257:7269   */\n      dup2\n      dup2\n      and\n        /* \"#utility.yul\":7271:7283   */\n      dup4\n      dup3\n      and\n        /* \"#utility.yul\":7253:7284   */\n      add\n      swap1\n        /* \"#utility.yul\":7296:7309   */\n      dup2\n      gt\n        /* \"#utility.yul\":7293:7332   */\n      iszero\n      tag_173\n      jumpi\n        /* \"#utility.yul\":7312:7330   */\n      tag_173\n      tag_207\n      jump\t// in\n        /* \"#utility.yul\":7343:7825   */\n    tag_209:\n        /* \"#utility.yul\":7432:7433   */\n      0x01\n        /* \"#utility.yul\":7475:7480   */\n      dup2\n        /* \"#utility.yul\":7432:7433   */\n      dup2\n        /* \"#utility.yul\":7489:7819   */\n    tag_265:\n        /* \"#utility.yul\":7510:7517   */\n      dup1\n        /* \"#utility.yul\":7500:7508   */\n      dup6\n        /* \"#utility.yul\":7497:7518   */\n      gt\n        /* \"#utility.yul\":7489:7819   */\n      iszero\n      tag_267\n      jumpi\n        /* \"#utility.yul\":7629:7633   */\n      dup2\n        /* \"#utility.yul\":7561:7627   */\n      0xffffffffffffffffffffffffffffffffffffffffffffffffffffffffffffffff\n        /* \"#utility.yul\":7557:7634   */\n      div\n        /* \"#utility.yul\":7551:7555   */\n      dup3\n        /* \"#utility.yul\":7548:7635   */\n      gt\n        /* \"#utility.yul\":7545:7658   */\n      iszero\n      tag_269\n      jumpi\n        /* \"#utility.yul\":7638:7656   */\n      tag_269\n      tag_207\n      jump\t// in\n    tag_269:\n        /* \"#utility.yul\":7688:7695   */\n      dup1\n        /* \"#utility.yul\":7678:7686   */\n      dup6\n        /* \"#utility.yul\":7674:7696   */\n      and\n        /* \"#utility.yul\":7671:7726   */\n      iszero\n      tag_270\n      jumpi\n        /* \"#utility.yul\":7708:7724   */\n      swap2\n      dup2\n      mul\n      swap2\n        /* \"#utility.yul\":7671:7726   */\n    tag_270:\n        /* \"#utility.yul\":7787:7809   */\n      swap4\n      dup5\n      shr\n      swap4\n        /* \"#utility.yul\":7747:7762   */\n      swap1\n      dup1\n      mul\n      swap1\n        /* \"#utility.yul\":7489:7819   */\n      jump(tag_265)\n    tag_267:\n        /* \"#utility.yul\":7493:7496   */\n      pop\n        /* \"#utility.yul\":7343:7825   */\n      swap3\n      pop\n      swap3\n      swap1\n      pop\n      jump\t// out\n        /* \"#utility.yul\":7830:8696   */\n    tag_210:\n        /* \"#utility.yul\":7879:7884   */\n      0x00\n        /* \"#utility.yul\":7909:7917   */\n      dup3\n        /* \"#utility.yul\":7899:7979   */\n      tag_272\n      jumpi\n      pop\n        /* \"#utility.yul\":7950:7951   */\n      0x01\n        /* \"#utility.yul\":7964:7969   */\n      jump(tag_173)\n        /* \"#utility.yul\":7899:7979   */\n    tag_272:\n        /* \"#utility.yul\":7998:8002   */\n      dup2\n        /* \"#utility.yul\":7988:8064   */\n      tag_273\n      jumpi\n      pop\n        /* \"#utility.yul\":8035:8036   */\n      0x00\n        /* \"#utility.yul\":8049:8054   */\n      jump(tag_173)\n        /* \"#utility.yul\":7988:8064   */\n    tag_273:\n        /* \"#utility.yul\":8080:8084   */\n      dup2\n        /* \"#utility.yul\":8098:8099   */\n      0x01\n        /* \"#utility.yul\":8093:8152   */\n      dup2\n      eq\n      tag_275\n      jumpi\n        /* \"#utility.yul\":8166:8167   */\n      0x02\n        /* \"#utility.yul\":8161:8291   */\n      dup2\n      eq\n      tag_276\n      jumpi\n        /* \"#utility.yul\":8073:8291   */\n      jump(tag_274)\n        /* \"#utility.yul\":8093:8152   */\n    tag_275:\n        /* \"#utility.yul\":8123:8124   */\n      0x01\n        /* \"#utility.yul\":8114:8124   */\n      swap2\n      pop\n        /* \"#utility.yul\":8137:8142   */\n      pop\n      jump(tag_173)\n        /* \"#utility.yul\":8161:8291   */\n    tag_276:\n        /* \"#utility.yul\":8198:8201   */\n      0xff\n        /* \"#utility.yul\":8188:8196   */\n      dup5\n        /* \"#utility.yul\":8185:8202   */\n      gt\n        /* \"#utility.yul\":8182:8225   */\n      iszero\n      tag_278\n      jumpi\n        /* \"#utility.yul\":8205:8223   */\n      tag_278\n      tag_207\n      jump\t// in\n    tag_278:\n      pop\n      pop\n        /* \"#utility.yul\":8261:8262   */\n      0x01\n        /* \"#utility.yul\":8247:8263   */\n      dup3\n      shl\n        /* \"#utility.yul\":8276:8281   */\n      jump(tag_173)\n        /* \"#utility.yul\":8073:8291   */\n    tag_274:\n      pop\n        /* \"#utility.yul\":8375:8377   */\n      0x20\n        /* \"#utility.yul\":8365:8373   */\n      dup4\n        /* \"#utility.yul\":8362:8378   */\n      lt\n        /* \"#utility.yul\":8356:8359   */\n      0x0133\n        /* \"#utility.yul\":8350:8354   */\n      dup4\n        /* \"#utility.yul\":8347:8360   */\n      lt\n        /* \"#utility.yul\":8343:8379   */\n      and\n        /* \"#utility.yul\":8337:8339   */\n      0x4e\n        /* \"#utility.yul\":8327:8335   */\n      dup5\n        /* \"#utility.yul\":8324:8340   */\n      lt\n        /* \"#utility.yul\":8319:8321   */\n      0x0b\n        /* \"#utility.yul\":8313:8317   */\n      dup5\n        /* \"#utility.yul\":8310:8322   */\n      lt\n        /* \"#utility.yul\":8306:8341   */\n      and\n        /* \"#utility.yul\":8303:8380   */\n      or\n        /* \"#utility.yul\":8300:8459   */\n      iszero\n      tag_279\n      jumpi\n      pop\n        /* \"#utility.yul\":8412:8431   */\n      dup2\n      dup2\n      exp\n        /* \"#utility.yul\":8444:8449   */\n      jump(tag_173)\n        /* \"#utility.yul\":8300:8459   */\n    tag_279:\n        /* \"#utility.yul\":8491:8525   */\n      tag_280\n        /* \"#utility.yul\":8516:8524   */\n      dup4\n        /* \"#utility.yul\":8510:8514   */\n      dup4\n        /* \"#utility.yul\":8491:8525   */\n      tag_209\n      jump\t// in\n    tag_280:\n        /* \"#utility.yul\":8621:8627   */\n      dup1\n        /* \"#utility.yul\":8553:8619   */\n      0xffffffffffffffffffffffffffffffffffffffffffffffffffffffffffffffff\n        /* \"#utility.yul\":8549:8628   */\n      div\n        /* \"#utility.yul\":8540:8547   */\n      dup3\n        /* \"#utility.yul\":8537:8629   */\n      gt\n        /* \"#utility.yul\":8534:8652   */\n      iszero\n      tag_282\n      jumpi\n        /* \"#utility.yul\":8632:8650   */\n      tag_282\n      tag_207\n      jump\t// in\n    tag_282:\n        /* \"#utility.yul\":8670:8690   */\n      mul\n      swap4\n        /* \"#utility.yul\":7830:8696   */\n      swap3\n      pop\n      pop\n      pop\n      jump\t// out\n        /* \"#utility.yul\":8701:8841   */\n    tag_111:\n        /* \"#utility.yul\":8759:8764   */\n      0x00\n        /* \"#utility.yul\":8788:8835   */\n      tag_217\n        /* \"#utility.yul\":8829:8833   */\n      0xff\n        /* \"#utility.yul\":8819:8827   */\n      dup5\n        /* \"#utility.yul\":8815:8834   */\n      and\n        /* \"#utility.yul\":8809:8813   */\n      dup4\n        /* \"#utility.yul\":8788:8835   */\n      tag_210\n      jump\t// in\n        /* \"#utility.yul\":8846:9095   */\n    tag_113:\n        /* \"#utility.yul\":8917:8927   */\n      0xffffffff\n        /* \"#utility.yul\":8959:8969   */\n      dup2\n      dup2\n      and\n        /* \"#utility.yul\":8971:8981   */\n      dup4\n      dup3\n      and\n        /* \"#utility.yul\":8955:8982   */\n      mul\n        /* \"#utility.yul\":9002:9022   */\n      dup1\n      dup3\n      and\n      swap2\n        /* \"#utility.yul\":8917:8927   */\n      swap1\n        /* \"#utility.yul\":9041:9065   */\n      dup3\n      dup2\n      eq\n        /* \"#utility.yul\":9031:9089   */\n      tag_287\n      jumpi\n        /* \"#utility.yul\":9069:9087   */\n      tag_287\n      tag_207\n      jump\t// in\n    tag_287:\n        /* \"#utility.yul\":9031:9089   */\n      pop\n      pop\n        /* \"#utility.yul\":8846:9095   */\n      swap3\n      swap2\n      pop\n      pop\n      jump\t// out\n        /* \"#utility.yul\":9100:9220   */\n    tag_116:\n        /* \"#utility.yul\":9140:9141   */\n      0x00\n        /* \"#utility.yul\":9166:9167   */\n      dup3\n        /* \"#utility.yul\":9156:9191   */\n      tag_290\n      jumpi\n        /* \"#utility.yul\":9171:9189   */\n      tag_290\n      tag_208\n      jump\t// in\n    tag_290:\n      pop\n        /* \"#utility.yul\":9205:9214   */\n      div\n      swap1\n        /* \"#utility.yul\":9100:9220   */\n      jump\t// out\n        /* \"#utility.yul\":9868:10070   */\n    tag_126:\n        /* \"#utility.yul\":9935:9941   */\n      0x00\n        /* \"#utility.yul\":9988:9990   */\n      0x20\n        /* \"#utility.yul\":9976:9985   */\n      dup3\n        /* \"#utility.yul\":9967:9974   */\n      dup5\n        /* \"#utility.yul\":9963:9986   */\n      sub\n        /* \"#utility.yul\":9959:9991   */\n      slt\n        /* \"#utility.yul\":9956:10008   */\n      iszero\n      tag_294\n      jumpi\n        /* \"#utility.yul\":10004:10005   */\n      0x00\n        /* \"#utility.yul\":10001:10002   */\n      dup1\n        /* \"#utility.yul\":9994:10006   */\n      revert\n        /* \"#utility.yul\":9956:10008   */\n    tag_294:\n        /* \"#utility.yul\":10027:10064   */\n      tag_217\n        /* \"#utility.yul\":10054:10063   */\n      dup3\n        /* \"#utility.yul\":10027:10064   */\n      tag_206\n      jump\t// in\n\n    auxdata: 0xa2646970667358221220d757ecc823c4aebc3f91ef84fee760fb1499e24d411fc07709db98f738fe78dc64736f6c63430008130033\n}\n",
				"bytecode": {
					"linkReferences": {},
					"object": "60806040526000805460ff1916905534801561001a57600080fd5b50611b2a8061002a6000396000f3fe6080604052600436106100695760003560e01c80638052474d116100435780638052474d1461034557806391874e931461039b578063e68a81c9146103ec57610267565b806309d30d6d146102db57806352d6abdc1461030557806366a320b51461032557610267565b36610267576040517fc75ffd8600000000000000000000000000000000000000000000000000000000815260206004820152601260248201527f2e436f72706f726174696f6e2e436c65726b00000000000000000000000000006044820152339073163342fae2bbe3303e5a9adce4bc9fb44d0ff0629063c75ffd8690606401602060405180830381865afa158015610106573d6000803e3d6000fd5b505050506040513d601f19601f8201168201806040525081019061012a9190611725565b73ffffffffffffffffffffffffffffffffffffffff1614610265573415610265576040517fc75ffd8600000000000000000000000000000000000000000000000000000000815260206004820152601260248201527f2e436f72706f726174696f6e2e5661756c740000000000000000000000000000604482015273163342fae2bbe3303e5a9adce4bc9fb44d0ff0629063c75ffd8690606401602060405180830381865afa1580156101e1573d6000803e3d6000fd5b505050506040513d601f19601f820116820180604052508101906102059190611725565b73ffffffffffffffffffffffffffffffffffffffff163460405160006040518083038185875af1925050503d806000811461025c576040519150601f19603f3d011682016040523d82523d6000602084013e610261565b606091505b5050505b005b34801561027357600080fd5b506040517f08c379a000000000000000000000000000000000000000000000000000000000815260206004820152601b60248201527f456d706c6f796565732066616c6c6261636b207265766572746564000000000060448201526064015b60405180910390fd5b3480156102e757600080fd5b506102f061040c565b60405190151581526020015b60405180910390f35b34801561031157600080fd5b506102f0610320366004611749565b610d69565b34801561033157600080fd5b506102f0610340366004611766565b610fa0565b34801561035157600080fd5b5061038e6040518060400160405280601681526020017f2e436f72706f726174696f6e2e456d706c6f796565730000000000000000000081525081565b6040516102fc91906117a6565b3480156103a757600080fd5b506103bb6103b6366004611749565b61136d565b6040805161ffff95909516855263ffffffff93841660208601529190921690830152151560608201526080016102fc565b3480156103f857600080fd5b506102f0610407366004611766565b611455565b6000805460ff16151560010361047e576040517f08c379a000000000000000000000000000000000000000000000000000000000815260206004820152601160248201527f5265656e7472616e6365206661696c656400000000000000000000000000000060448201526064016102d2565b600080547fffffffffffffffffffffffffffffffffffffffffffffffffffffffffffffff001660011781556040517fc75ffd8600000000000000000000000000000000000000000000000000000000815260206004820152601360248201527f2e436f72706f726174696f6e2e4f7261636c6500000000000000000000000000604482015273163342fae2bbe3303e5a9adce4bc9fb44d0ff0629063c75ffd8690606401602060405180830381865afa15801561053f573d6000803e3d6000fd5b505050506040513d601f19601f820116820180604052508101906105639190611725565b6040517fc75ffd8600000000000000000000000000000000000000000000000000000000815260206004820152601260248201527f2e436f72706f726174696f6e2e436c65726b0000000000000000000000000000604482015290915060009073163342fae2bbe3303e5a9adce4bc9fb44d0ff0629063c75ffd8690606401602060405180830381865afa1580156105ff573d6000803e3d6000fd5b505050506040513d601f19601f820116820180604052508101906106239190611725565b3360009081526001602052604081208054929350916301000000900463ffffffff1690036106ad576040517f08c379a000000000000000000000000000000000000000000000000000000000815260206004820152600d60248201527f456d706c6f796565206f6e6c790000000000000000000000000000000000000060448201526064016102d2565b6000808473ffffffffffffffffffffffffffffffffffffffff166316f0a3866040518163ffffffff1660e01b81526004016040805180830381865afa1580156106fa573d6000803e3d6000fd5b505050506040513d601f19601f8201168201806040525081019061071e9190611822565b909250905060018115151461078f576040517f08c379a000000000000000000000000000000000000000000000000000000000815260206004820152601260248201527f4f7261636c6520756e726561636861626c65000000000000000000000000000060448201526064016102d2565b60008573ffffffffffffffffffffffffffffffffffffffff1663f9a4bbbe6040518163ffffffff1660e01b8152600401602060405180830381865afa1580156107dc573d6000803e3d6000fd5b505050506040513d601f19601f82011682018060405250810190610800919061185d565b90506000811161086c576040517f08c379a000000000000000000000000000000000000000000000000000000000815260206004820152601760248201527f556e6163636570746564204f7261636c6520707269636500000000000000000060448201526064016102d2565b835460ff161515600103610b2a5783544290600090620151809061089d906301000000900463ffffffff16846118a5565b6108a791906118f8565b865490915060009062015180906108cb906301000000900463ffffffff16856118a5565b6108d5919061191b565b905060006108e485606461193e565b6108ef886012611955565b6108fa90600a611a8e565b895461090f90610100900461ffff1686611a9d565b63ffffffff1661091f919061193e565b6109299190611ac5565b905061093582856118a5565b885463ffffffff919091166301000000027fffffffffffffffffffffffffffffffffffffffffffffffffff00000000ffffff90911617885560008190036109d8576040517f08c379a000000000000000000000000000000000000000000000000000000000815260206004820152600c60248201527f416c72656164792070616964000000000000000000000000000000000000000060448201526064016102d2565b6040517f511276600000000000000000000000000000000000000000000000000000000081523360048201526024810182905273ffffffffffffffffffffffffffffffffffffffff8a16906351127660906044016020604051808303816000875af1925050508015610a85575060408051601f3d9081017fffffffffffffffffffffffffffffffffffffffffffffffffffffffffffffffe0168201909252610a8291810190611ad9565b60015b610aeb576040517f08c379a000000000000000000000000000000000000000000000000000000000815260206004820152600d60248201527f5061796f6666206661696c65640000000000000000000000000000000000000060448201526064016102d2565b5060405181815233907f5afeca38b2064c23a692c4cf353015d80ab3ecc417b4f893f372690c11fbd9a69060200160405180910390a250505050610d34565b835463ffffffff67010000000000000082048116916000916201518091610b5a91630100000090910416846118a5565b610b6491906118f8565b90506000610b7384606461193e565b610b7e876012611955565b610b8990600a611a8e565b8854610b9e90610100900461ffff1685611a9d565b63ffffffff16610bae919061193e565b610bb89190611ac5565b87547fffffffffffffffffffffffffffffffffffffffffff00000000000000000000ff16885590508015610d30576040517f511276600000000000000000000000000000000000000000000000000000000081523360048201526024810182905273ffffffffffffffffffffffffffffffffffffffff8916906351127660906044016020604051808303816000875af1925050508015610c93575060408051601f3d9081017fffffffffffffffffffffffffffffffffffffffffffffffffffffffffffffffe0168201909252610c9091810190611ad9565b60015b610cf9576040517f08c379a000000000000000000000000000000000000000000000000000000000815260206004820152600d60248201527f5061796f6666206661696c65640000000000000000000000000000000000000060448201526064016102d2565b5060405181815233907f5afeca38b2064c23a692c4cf353015d80ab3ecc417b4f893f372690c11fbd9a69060200160405180910390a25b5050505b5050600080547fffffffffffffffffffffffffffffffffffffffffffffffffffffffffffffff00169055506001949350505050565b60003373ffffffffffffffffffffffffffffffffffffffff1673163342fae2bbe3303e5a9adce4bc9fb44d0ff06273ffffffffffffffffffffffffffffffffffffffff1663b4a99a4e6040518163ffffffff1660e01b8152600401602060405180830381865afa158015610de1573d6000803e3d6000fd5b505050506040513d601f19601f82011682018060405250810190610e059190611725565b73ffffffffffffffffffffffffffffffffffffffff1614610e82576040517f08c379a000000000000000000000000000000000000000000000000000000000815260206004820152600a60248201527f4f776e6572206f6e6c790000000000000000000000000000000000000000000060448201526064016102d2565b73ffffffffffffffffffffffffffffffffffffffff821660009081526001602081905260409091208054909160ff909116151514610f1c576040517f08c379a000000000000000000000000000000000000000000000000000000000815260206004820152600f60248201527f4e6f7420616e20656d706c6f796565000000000000000000000000000000000060448201526064016102d2565b80547fffffffffffffffffffffffffffffffffffffffffff00000000ffffffffffff00166701000000000000004263ffffffff160217815560405173ffffffffffffffffffffffffffffffffffffffff8416907f4f8dd5393fd34d2f49290d092d4acb088e011456e5d47b4ba6188cd81ca2887d90600090a260019150505b919050565b60003373ffffffffffffffffffffffffffffffffffffffff1673163342fae2bbe3303e5a9adce4bc9fb44d0ff06273ffffffffffffffffffffffffffffffffffffffff1663b4a99a4e6040518163ffffffff1660e01b8152600401602060405180830381865afa158015611018573d6000803e3d6000fd5b505050506040513d601f19601f8201168201806040525081019061103c9190611725565b73ffffffffffffffffffffffffffffffffffffffff16146110b9576040517f08c379a000000000000000000000000000000000000000000000000000000000815260206004820152600a60248201527f4f776e6572206f6e6c790000000000000000000000000000000000000000000060448201526064016102d2565b73ffffffffffffffffffffffffffffffffffffffff831660009081526001602081905260409091208054909160ff90911615159003611154576040517f08c379a000000000000000000000000000000000000000000000000000000000815260206004820152601160248201527f416c726561647920656d706c6f7965656400000000000000000000000000000060448201526064016102d2565b8054670100000000000000900463ffffffff16156111ce576040517f08c379a000000000000000000000000000000000000000000000000000000000815260206004820152600e60248201527f5061796f66662070656e64696e6700000000000000000000000000000000000060448201526064016102d2565b833b63ffffffff81161561123e576040517f08c379a000000000000000000000000000000000000000000000000000000000815260206004820152601460248201527f456d706c6f79656520697320636f6e747261637400000000000000000000000060448201526064016102d2565b8361ffff166000036112ac576040517f08c379a000000000000000000000000000000000000000000000000000000000815260206004820152600960248201527f5a65726f2077616765000000000000000000000000000000000000000000000060448201526064016102d2565b815463ffffffff42166301000000027fffffffffffffffffffffffffffffffffffffffffffffffffff00000000ffffff61ffff871661010081027fffffffffffffffffffffffffffffffffffffffffffffffffffffffffff000000909416939093176001171617835560405190815273ffffffffffffffffffffffffffffffffffffffff8616907fcce11e3d6f477d5366660c25bc52487e09546e4f633512a0b70afe53cad758889060200160405180910390a26001925050505b92915050565b73ffffffffffffffffffffffffffffffffffffffff811660008181526001602081815260408084208151608081018352905460ff81161515825261ffff61010082041682850181905263ffffffff630100000083048116948401859052670100000000000000909204909116606083015295855292909152829182916113f4576000611440565b73ffffffffffffffffffffffffffffffffffffffff86166000908152600160205260409020546201518090611436906301000000900463ffffffff16426118a5565b61144091906118f8565b60408201519151959790965090949350915050565b60003373ffffffffffffffffffffffffffffffffffffffff1673163342fae2bbe3303e5a9adce4bc9fb44d0ff06273ffffffffffffffffffffffffffffffffffffffff1663b4a99a4e6040518163ffffffff1660e01b8152600401602060405180830381865afa1580156114cd573d6000803e3d6000fd5b505050506040513d601f19601f820116820180604052508101906114f19190611725565b73ffffffffffffffffffffffffffffffffffffffff161461156e576040517f08c379a000000000000000000000000000000000000000000000000000000000815260206004820152600a60248201527f4f776e6572206f6e6c790000000000000000000000000000000000000000000060448201526064016102d2565b73ffffffffffffffffffffffffffffffffffffffff831660009081526001602081905260409091208054909160ff909116151514611608576040517f08c379a000000000000000000000000000000000000000000000000000000000815260206004820152600f60248201527f4e6f7420616e20656d706c6f796565000000000000000000000000000000000060448201526064016102d2565b8261ffff16600003611676576040517f08c379a000000000000000000000000000000000000000000000000000000000815260206004820152600960248201527f5a65726f2077616765000000000000000000000000000000000000000000000060448201526064016102d2565b80547fffffffffffffffffffffffffffffffffffffffffffffffffffffffffff0000ff1661010061ffff851690810291909117825560405190815273ffffffffffffffffffffffffffffffffffffffff8516907ff1b941e2361086e5213d894077d063bf4e875acdd8259232c63f368648d62ce19060200160405180910390a25060019392505050565b73ffffffffffffffffffffffffffffffffffffffff8116811461172257600080fd5b50565b60006020828403121561173757600080fd5b815161174281611700565b9392505050565b60006020828403121561175b57600080fd5b813561174281611700565b6000806040838503121561177957600080fd5b823561178481611700565b9150602083013561ffff8116811461179b57600080fd5b809150509250929050565b600060208083528351808285015260005b818110156117d3578581018301518582016040015282016117b7565b5060006040828601015260407fffffffffffffffffffffffffffffffffffffffffffffffffffffffffffffffe0601f8301168501019250505092915050565b80518015158114610f9b57600080fd5b6000806040838503121561183557600080fd5b825160ff8116811461184657600080fd5b915061185460208401611812565b90509250929050565b60006020828403121561186f57600080fd5b5051919050565b7f4e487b7100000000000000000000000000000000000000000000000000000000600052601160045260246000fd5b63ffffffff8281168282160390808211156118c2576118c2611876565b5092915050565b7f4e487b7100000000000000000000000000000000000000000000000000000000600052601260045260246000fd5b600063ffffffff8084168061190f5761190f6118c9565b92169190910492915050565b600063ffffffff80841680611932576119326118c9565b92169190910692915050565b808202811582820484141761136757611367611876565b60ff818116838216019081111561136757611367611876565b600181815b808511156119c757817fffffffffffffffffffffffffffffffffffffffffffffffffffffffffffffffff048211156119ad576119ad611876565b808516156119ba57918102915b93841c9390800290611973565b509250929050565b6000826119de57506001611367565b816119eb57506000611367565b8160018114611a015760028114611a0b57611a27565b6001915050611367565b60ff841115611a1c57611a1c611876565b50506001821b611367565b5060208310610133831016604e8410600b8410161715611a4a575081810a611367565b611a54838361196e565b807fffffffffffffffffffffffffffffffffffffffffffffffffffffffffffffffff04821115611a8657611a86611876565b029392505050565b600061174260ff8416836119cf565b63ffffffff818116838216028082169190828114611abd57611abd611876565b505092915050565b600082611ad457611ad46118c9565b500490565b600060208284031215611aeb57600080fd5b6117428261181256fea2646970667358221220d757ecc823c4aebc3f91ef84fee760fb1499e24d411fc07709db98f738fe78dc64736f6c63430008130033",
					"opcodes": "PUSH1 0x80 PUSH1 0x40 MSTORE PUSH1 0x0 DUP1 SLOAD PUSH1 0xFF NOT AND SWAP1 SSTORE CALLVALUE DUP1 ISZERO PUSH2 0x1A JUMPI PUSH1 0x0 DUP1 REVERT JUMPDEST POP PUSH2 0x1B2A DUP1 PUSH2 0x2A PUSH1 0x0 CODECOPY PUSH1 0x0 RETURN INVALID PUSH1 0x80 PUSH1 0x40 MSTORE PUSH1 0x4 CALLDATASIZE LT PUSH2 0x69 JUMPI PUSH1 0x0 CALLDATALOAD PUSH1 0xE0 SHR DUP1 PUSH4 0x8052474D GT PUSH2 0x43 JUMPI DUP1 PUSH4 0x8052474D EQ PUSH2 0x345 JUMPI DUP1 PUSH4 0x91874E93 EQ PUSH2 0x39B JUMPI DUP1 PUSH4 0xE68A81C9 EQ PUSH2 0x3EC JUMPI PUSH2 0x267 JUMP JUMPDEST DUP1 PUSH4 0x9D30D6D EQ PUSH2 0x2DB JUMPI DUP1 PUSH4 0x52D6ABDC EQ PUSH2 0x305 JUMPI DUP1 PUSH4 0x66A320B5 EQ PUSH2 0x325 JUMPI PUSH2 0x267 JUMP JUMPDEST CALLDATASIZE PUSH2 0x267 JUMPI PUSH1 0x40 MLOAD PUSH32 0xC75FFD8600000000000000000000000000000000000000000000000000000000 DUP2 MSTORE PUSH1 0x20 PUSH1 0x4 DUP3 ADD MSTORE PUSH1 0x12 PUSH1 0x24 DUP3 ADD MSTORE PUSH32 0x2E436F72706F726174696F6E2E436C65726B0000000000000000000000000000 PUSH1 0x44 DUP3 ADD MSTORE CALLER SWAP1 PUSH20 0x163342FAE2BBE3303E5A9ADCE4BC9FB44D0FF062 SWAP1 PUSH4 0xC75FFD86 SWAP1 PUSH1 0x64 ADD PUSH1 0x20 PUSH1 0x40 MLOAD DUP1 DUP4 SUB DUP2 DUP7 GAS STATICCALL ISZERO DUP1 ISZERO PUSH2 0x106 JUMPI RETURNDATASIZE PUSH1 0x0 DUP1 RETURNDATACOPY RETURNDATASIZE PUSH1 0x0 REVERT JUMPDEST POP POP POP POP PUSH1 0x40 MLOAD RETURNDATASIZE PUSH1 0x1F NOT PUSH1 0x1F DUP3 ADD AND DUP3 ADD DUP1 PUSH1 0x40 MSTORE POP DUP2 ADD SWAP1 PUSH2 0x12A SWAP2 SWAP1 PUSH2 0x1725 JUMP JUMPDEST PUSH20 0xFFFFFFFFFFFFFFFFFFFFFFFFFFFFFFFFFFFFFFFF AND EQ PUSH2 0x265 JUMPI CALLVALUE ISZERO PUSH2 0x265 JUMPI PUSH1 0x40 MLOAD PUSH32 0xC75FFD8600000000000000000000000000000000000000000000000000000000 DUP2 MSTORE PUSH1 0x20 PUSH1 0x4 DUP3 ADD MSTORE PUSH1 0x12 PUSH1 0x24 DUP3 ADD MSTORE PUSH32 0x2E436F72706F726174696F6E2E5661756C740000000000000000000000000000 PUSH1 0x44 DUP3 ADD MSTORE PUSH20 0x163342FAE2BBE3303E5A9ADCE4BC9FB44D0FF062 SWAP1 PUSH4 0xC75FFD86 SWAP1 PUSH1 0x64 ADD PUSH1 0x20 PUSH1 0x40 MLOAD DUP1 DUP4 SUB DUP2 DUP7 GAS STATICCALL ISZERO DUP1 ISZERO PUSH2 0x1E1 JUMPI RETURNDATASIZE PUSH1 0x0 DUP1 RETURNDATACOPY RETURNDATASIZE PUSH1 0x0 REVERT JUMPDEST POP POP POP POP PUSH1 0x40 MLOAD RETURNDATASIZE PUSH1 0x1F NOT PUSH1 0x1F DUP3 ADD AND DUP3 ADD DUP1 PUSH1 0x40 MSTORE POP DUP2 ADD SWAP1 PUSH2 0x205 SWAP2 SWAP1 PUSH2 0x1725 JUMP JUMPDEST PUSH20 0xFFFFFFFFFFFFFFFFFFFFFFFFFFFFFFFFFFFFFFFF AND CALLVALUE PUSH1 0x40 MLOAD PUSH1 0x0 PUSH1 0x40 MLOAD DUP1 DUP4 SUB DUP2 DUP6 DUP8 GAS CALL SWAP3 POP POP POP RETURNDATASIZE DUP1 PUSH1 0x0 DUP2 EQ PUSH2 0x25C JUMPI PUSH1 0x40 MLOAD SWAP2 POP PUSH1 0x1F NOT PUSH1 0x3F RETURNDATASIZE ADD AND DUP3 ADD PUSH1 0x40 MSTORE RETURNDATASIZE DUP3 MSTORE RETURNDATASIZE PUSH1 0x0 PUSH1 0x20 DUP5 ADD RETURNDATACOPY PUSH2 0x261 JUMP JUMPDEST PUSH1 0x60 SWAP2 POP JUMPDEST POP POP POP JUMPDEST STOP JUMPDEST CALLVALUE DUP1 ISZERO PUSH2 0x273 JUMPI PUSH1 0x0 DUP1 REVERT JUMPDEST POP PUSH1 0x40 MLOAD PUSH32 0x8C379A000000000000000000000000000000000000000000000000000000000 DUP2 MSTORE PUSH1 0x20 PUSH1 0x4 DUP3 ADD MSTORE PUSH1 0x1B PUSH1 0x24 DUP3 ADD MSTORE PUSH32 0x456D706C6F796565732066616C6C6261636B2072657665727465640000000000 PUSH1 0x44 DUP3 ADD MSTORE PUSH1 0x64 ADD JUMPDEST PUSH1 0x40 MLOAD DUP1 SWAP2 SUB SWAP1 REVERT JUMPDEST CALLVALUE DUP1 ISZERO PUSH2 0x2E7 JUMPI PUSH1 0x0 DUP1 REVERT JUMPDEST POP PUSH2 0x2F0 PUSH2 0x40C JUMP JUMPDEST PUSH1 0x40 MLOAD SWAP1 ISZERO ISZERO DUP2 MSTORE PUSH1 0x20 ADD JUMPDEST PUSH1 0x40 MLOAD DUP1 SWAP2 SUB SWAP1 RETURN JUMPDEST CALLVALUE DUP1 ISZERO PUSH2 0x311 JUMPI PUSH1 0x0 DUP1 REVERT JUMPDEST POP PUSH2 0x2F0 PUSH2 0x320 CALLDATASIZE PUSH1 0x4 PUSH2 0x1749 JUMP JUMPDEST PUSH2 0xD69 JUMP JUMPDEST CALLVALUE DUP1 ISZERO PUSH2 0x331 JUMPI PUSH1 0x0 DUP1 REVERT JUMPDEST POP PUSH2 0x2F0 PUSH2 0x340 CALLDATASIZE PUSH1 0x4 PUSH2 0x1766 JUMP JUMPDEST PUSH2 0xFA0 JUMP JUMPDEST CALLVALUE DUP1 ISZERO PUSH2 0x351 JUMPI PUSH1 0x0 DUP1 REVERT JUMPDEST POP PUSH2 0x38E PUSH1 0x40 MLOAD DUP1 PUSH1 0x40 ADD PUSH1 0x40 MSTORE DUP1 PUSH1 0x16 DUP2 MSTORE PUSH1 0x20 ADD PUSH32 0x2E436F72706F726174696F6E2E456D706C6F7965657300000000000000000000 DUP2 MSTORE POP DUP2 JUMP JUMPDEST PUSH1 0x40 MLOAD PUSH2 0x2FC SWAP2 SWAP1 PUSH2 0x17A6 JUMP JUMPDEST CALLVALUE DUP1 ISZERO PUSH2 0x3A7 JUMPI PUSH1 0x0 DUP1 REVERT JUMPDEST POP PUSH2 0x3BB PUSH2 0x3B6 CALLDATASIZE PUSH1 0x4 PUSH2 0x1749 JUMP JUMPDEST PUSH2 0x136D JUMP JUMPDEST PUSH1 0x40 DUP1 MLOAD PUSH2 0xFFFF SWAP6 SWAP1 SWAP6 AND DUP6 MSTORE PUSH4 0xFFFFFFFF SWAP4 DUP5 AND PUSH1 0x20 DUP7 ADD MSTORE SWAP2 SWAP1 SWAP3 AND SWAP1 DUP4 ADD MSTORE ISZERO ISZERO PUSH1 0x60 DUP3 ADD MSTORE PUSH1 0x80 ADD PUSH2 0x2FC JUMP JUMPDEST CALLVALUE DUP1 ISZERO PUSH2 0x3F8 JUMPI PUSH1 0x0 DUP1 REVERT JUMPDEST POP PUSH2 0x2F0 PUSH2 0x407 CALLDATASIZE PUSH1 0x4 PUSH2 0x1766 JUMP JUMPDEST PUSH2 0x1455 JUMP JUMPDEST PUSH1 0x0 DUP1 SLOAD PUSH1 0xFF AND ISZERO ISZERO PUSH1 0x1 SUB PUSH2 0x47E JUMPI PUSH1 0x40 MLOAD PUSH32 0x8C379A000000000000000000000000000000000000000000000000000000000 DUP2 MSTORE PUSH1 0x20 PUSH1 0x4 DUP3 ADD MSTORE PUSH1 0x11 PUSH1 0x24 DUP3 ADD MSTORE PUSH32 0x5265656E7472616E6365206661696C6564000000000000000000000000000000 PUSH1 0x44 DUP3 ADD MSTORE PUSH1 0x64 ADD PUSH2 0x2D2 JUMP JUMPDEST PUSH1 0x0 DUP1 SLOAD PUSH32 0xFFFFFFFFFFFFFFFFFFFFFFFFFFFFFFFFFFFFFFFFFFFFFFFFFFFFFFFFFFFFFF00 AND PUSH1 0x1 OR DUP2 SSTORE PUSH1 0x40 MLOAD PUSH32 0xC75FFD8600000000000000000000000000000000000000000000000000000000 DUP2 MSTORE PUSH1 0x20 PUSH1 0x4 DUP3 ADD MSTORE PUSH1 0x13 PUSH1 0x24 DUP3 ADD MSTORE PUSH32 0x2E436F72706F726174696F6E2E4F7261636C6500000000000000000000000000 PUSH1 0x44 DUP3 ADD MSTORE PUSH20 0x163342FAE2BBE3303E5A9ADCE4BC9FB44D0FF062 SWAP1 PUSH4 0xC75FFD86 SWAP1 PUSH1 0x64 ADD PUSH1 0x20 PUSH1 0x40 MLOAD DUP1 DUP4 SUB DUP2 DUP7 GAS STATICCALL ISZERO DUP1 ISZERO PUSH2 0x53F JUMPI RETURNDATASIZE PUSH1 0x0 DUP1 RETURNDATACOPY RETURNDATASIZE PUSH1 0x0 REVERT JUMPDEST POP POP POP POP PUSH1 0x40 MLOAD RETURNDATASIZE PUSH1 0x1F NOT PUSH1 0x1F DUP3 ADD AND DUP3 ADD DUP1 PUSH1 0x40 MSTORE POP DUP2 ADD SWAP1 PUSH2 0x563 SWAP2 SWAP1 PUSH2 0x1725 JUMP JUMPDEST PUSH1 0x40 MLOAD PUSH32 0xC75FFD8600000000000000000000000000000000000000000000000000000000 DUP2 MSTORE PUSH1 0x20 PUSH1 0x4 DUP3 ADD MSTORE PUSH1 0x12 PUSH1 0x24 DUP3 ADD MSTORE PUSH32 0x2E436F72706F726174696F6E2E436C65726B0000000000000000000000000000 PUSH1 0x44 DUP3 ADD MSTORE SWAP1 SWAP2 POP PUSH1 0x0 SWAP1 PUSH20 0x163342FAE2BBE3303E5A9ADCE4BC9FB44D0FF062 SWAP1 PUSH4 0xC75FFD86 SWAP1 PUSH1 0x64 ADD PUSH1 0x20 PUSH1 0x40 MLOAD DUP1 DUP4 SUB DUP2 DUP7 GAS STATICCALL ISZERO DUP1 ISZERO PUSH2 0x5FF JUMPI RETURNDATASIZE PUSH1 0x0 DUP1 RETURNDATACOPY RETURNDATASIZE PUSH1 0x0 REVERT JUMPDEST POP POP POP POP PUSH1 0x40 MLOAD RETURNDATASIZE PUSH1 0x1F NOT PUSH1 0x1F DUP3 ADD AND DUP3 ADD DUP1 PUSH1 0x40 MSTORE POP DUP2 ADD SWAP1 PUSH2 0x623 SWAP2 SWAP1 PUSH2 0x1725 JUMP JUMPDEST CALLER PUSH1 0x0 SWAP1 DUP2 MSTORE PUSH1 0x1 PUSH1 0x20 MSTORE PUSH1 0x40 DUP2 KECCAK256 DUP1 SLOAD SWAP3 SWAP4 POP SWAP2 PUSH4 0x1000000 SWAP1 DIV PUSH4 0xFFFFFFFF AND SWAP1 SUB PUSH2 0x6AD JUMPI PUSH1 0x40 MLOAD PUSH32 0x8C379A000000000000000000000000000000000000000000000000000000000 DUP2 MSTORE PUSH1 0x20 PUSH1 0x4 DUP3 ADD MSTORE PUSH1 0xD PUSH1 0x24 DUP3 ADD MSTORE PUSH32 0x456D706C6F796565206F6E6C7900000000000000000000000000000000000000 PUSH1 0x44 DUP3 ADD MSTORE PUSH1 0x64 ADD PUSH2 0x2D2 JUMP JUMPDEST PUSH1 0x0 DUP1 DUP5 PUSH20 0xFFFFFFFFFFFFFFFFFFFFFFFFFFFFFFFFFFFFFFFF AND PUSH4 0x16F0A386 PUSH1 0x40 MLOAD DUP2 PUSH4 0xFFFFFFFF AND PUSH1 0xE0 SHL DUP2 MSTORE PUSH1 0x4 ADD PUSH1 0x40 DUP1 MLOAD DUP1 DUP4 SUB DUP2 DUP7 GAS STATICCALL ISZERO DUP1 ISZERO PUSH2 0x6FA JUMPI RETURNDATASIZE PUSH1 0x0 DUP1 RETURNDATACOPY RETURNDATASIZE PUSH1 0x0 REVERT JUMPDEST POP POP POP POP PUSH1 0x40 MLOAD RETURNDATASIZE PUSH1 0x1F NOT PUSH1 0x1F DUP3 ADD AND DUP3 ADD DUP1 PUSH1 0x40 MSTORE POP DUP2 ADD SWAP1 PUSH2 0x71E SWAP2 SWAP1 PUSH2 0x1822 JUMP JUMPDEST SWAP1 SWAP3 POP SWAP1 POP PUSH1 0x1 DUP2 ISZERO ISZERO EQ PUSH2 0x78F JUMPI PUSH1 0x40 MLOAD PUSH32 0x8C379A000000000000000000000000000000000000000000000000000000000 DUP2 MSTORE PUSH1 0x20 PUSH1 0x4 DUP3 ADD MSTORE PUSH1 0x12 PUSH1 0x24 DUP3 ADD MSTORE PUSH32 0x4F7261636C6520756E726561636861626C650000000000000000000000000000 PUSH1 0x44 DUP3 ADD MSTORE PUSH1 0x64 ADD PUSH2 0x2D2 JUMP JUMPDEST PUSH1 0x0 DUP6 PUSH20 0xFFFFFFFFFFFFFFFFFFFFFFFFFFFFFFFFFFFFFFFF AND PUSH4 0xF9A4BBBE PUSH1 0x40 MLOAD DUP2 PUSH4 0xFFFFFFFF AND PUSH1 0xE0 SHL DUP2 MSTORE PUSH1 0x4 ADD PUSH1 0x20 PUSH1 0x40 MLOAD DUP1 DUP4 SUB DUP2 DUP7 GAS STATICCALL ISZERO DUP1 ISZERO PUSH2 0x7DC JUMPI RETURNDATASIZE PUSH1 0x0 DUP1 RETURNDATACOPY RETURNDATASIZE PUSH1 0x0 REVERT JUMPDEST POP POP POP POP PUSH1 0x40 MLOAD RETURNDATASIZE PUSH1 0x1F NOT PUSH1 0x1F DUP3 ADD AND DUP3 ADD DUP1 PUSH1 0x40 MSTORE POP DUP2 ADD SWAP1 PUSH2 0x800 SWAP2 SWAP1 PUSH2 0x185D JUMP JUMPDEST SWAP1 POP PUSH1 0x0 DUP2 GT PUSH2 0x86C JUMPI PUSH1 0x40 MLOAD PUSH32 0x8C379A000000000000000000000000000000000000000000000000000000000 DUP2 MSTORE PUSH1 0x20 PUSH1 0x4 DUP3 ADD MSTORE PUSH1 0x17 PUSH1 0x24 DUP3 ADD MSTORE PUSH32 0x556E6163636570746564204F7261636C65207072696365000000000000000000 PUSH1 0x44 DUP3 ADD MSTORE PUSH1 0x64 ADD PUSH2 0x2D2 JUMP JUMPDEST DUP4 SLOAD PUSH1 0xFF AND ISZERO ISZERO PUSH1 0x1 SUB PUSH2 0xB2A JUMPI DUP4 SLOAD TIMESTAMP SWAP1 PUSH1 0x0 SWAP1 PUSH3 0x15180 SWAP1 PUSH2 0x89D SWAP1 PUSH4 0x1000000 SWAP1 DIV PUSH4 0xFFFFFFFF AND DUP5 PUSH2 0x18A5 JUMP JUMPDEST PUSH2 0x8A7 SWAP2 SWAP1 PUSH2 0x18F8 JUMP JUMPDEST DUP7 SLOAD SWAP1 SWAP2 POP PUSH1 0x0 SWAP1 PUSH3 0x15180 SWAP1 PUSH2 0x8CB SWAP1 PUSH4 0x1000000 SWAP1 DIV PUSH4 0xFFFFFFFF AND DUP6 PUSH2 0x18A5 JUMP JUMPDEST PUSH2 0x8D5 SWAP2 SWAP1 PUSH2 0x191B JUMP JUMPDEST SWAP1 POP PUSH1 0x0 PUSH2 0x8E4 DUP6 PUSH1 0x64 PUSH2 0x193E JUMP JUMPDEST PUSH2 0x8EF DUP9 PUSH1 0x12 PUSH2 0x1955 JUMP JUMPDEST PUSH2 0x8FA SWAP1 PUSH1 0xA PUSH2 0x1A8E JUMP JUMPDEST DUP10 SLOAD PUSH2 0x90F SWAP1 PUSH2 0x100 SWAP1 DIV PUSH2 0xFFFF AND DUP7 PUSH2 0x1A9D JUMP JUMPDEST PUSH4 0xFFFFFFFF AND PUSH2 0x91F SWAP2 SWAP1 PUSH2 0x193E JUMP JUMPDEST PUSH2 0x929 SWAP2 SWAP1 PUSH2 0x1AC5 JUMP JUMPDEST SWAP1 POP PUSH2 0x935 DUP3 DUP6 PUSH2 0x18A5 JUMP JUMPDEST DUP9 SLOAD PUSH4 0xFFFFFFFF SWAP2 SWAP1 SWAP2 AND PUSH4 0x1000000 MUL PUSH32 0xFFFFFFFFFFFFFFFFFFFFFFFFFFFFFFFFFFFFFFFFFFFFFFFFFF00000000FFFFFF SWAP1 SWAP2 AND OR DUP9 SSTORE PUSH1 0x0 DUP2 SWAP1 SUB PUSH2 0x9D8 JUMPI PUSH1 0x40 MLOAD PUSH32 0x8C379A000000000000000000000000000000000000000000000000000000000 DUP2 MSTORE PUSH1 0x20 PUSH1 0x4 DUP3 ADD MSTORE PUSH1 0xC PUSH1 0x24 DUP3 ADD MSTORE PUSH32 0x416C726561647920706169640000000000000000000000000000000000000000 PUSH1 0x44 DUP3 ADD MSTORE PUSH1 0x64 ADD PUSH2 0x2D2 JUMP JUMPDEST PUSH1 0x40 MLOAD PUSH32 0x5112766000000000000000000000000000000000000000000000000000000000 DUP2 MSTORE CALLER PUSH1 0x4 DUP3 ADD MSTORE PUSH1 0x24 DUP2 ADD DUP3 SWAP1 MSTORE PUSH20 0xFFFFFFFFFFFFFFFFFFFFFFFFFFFFFFFFFFFFFFFF DUP11 AND SWAP1 PUSH4 0x51127660 SWAP1 PUSH1 0x44 ADD PUSH1 0x20 PUSH1 0x40 MLOAD DUP1 DUP4 SUB DUP2 PUSH1 0x0 DUP8 GAS CALL SWAP3 POP POP POP DUP1 ISZERO PUSH2 0xA85 JUMPI POP PUSH1 0x40 DUP1 MLOAD PUSH1 0x1F RETURNDATASIZE SWAP1 DUP2 ADD PUSH32 0xFFFFFFFFFFFFFFFFFFFFFFFFFFFFFFFFFFFFFFFFFFFFFFFFFFFFFFFFFFFFFFE0 AND DUP3 ADD SWAP1 SWAP3 MSTORE PUSH2 0xA82 SWAP2 DUP2 ADD SWAP1 PUSH2 0x1AD9 JUMP JUMPDEST PUSH1 0x1 JUMPDEST PUSH2 0xAEB JUMPI PUSH1 0x40 MLOAD PUSH32 0x8C379A000000000000000000000000000000000000000000000000000000000 DUP2 MSTORE PUSH1 0x20 PUSH1 0x4 DUP3 ADD MSTORE PUSH1 0xD PUSH1 0x24 DUP3 ADD MSTORE PUSH32 0x5061796F6666206661696C656400000000000000000000000000000000000000 PUSH1 0x44 DUP3 ADD MSTORE PUSH1 0x64 ADD PUSH2 0x2D2 JUMP JUMPDEST POP PUSH1 0x40 MLOAD DUP2 DUP2 MSTORE CALLER SWAP1 PUSH32 0x5AFECA38B2064C23A692C4CF353015D80AB3ECC417B4F893F372690C11FBD9A6 SWAP1 PUSH1 0x20 ADD PUSH1 0x40 MLOAD DUP1 SWAP2 SUB SWAP1 LOG2 POP POP POP POP PUSH2 0xD34 JUMP JUMPDEST DUP4 SLOAD PUSH4 0xFFFFFFFF PUSH8 0x100000000000000 DUP3 DIV DUP2 AND SWAP2 PUSH1 0x0 SWAP2 PUSH3 0x15180 SWAP2 PUSH2 0xB5A SWAP2 PUSH4 0x1000000 SWAP1 SWAP2 DIV AND DUP5 PUSH2 0x18A5 JUMP JUMPDEST PUSH2 0xB64 SWAP2 SWAP1 PUSH2 0x18F8 JUMP JUMPDEST SWAP1 POP PUSH1 0x0 PUSH2 0xB73 DUP5 PUSH1 0x64 PUSH2 0x193E JUMP JUMPDEST PUSH2 0xB7E DUP8 PUSH1 0x12 PUSH2 0x1955 JUMP JUMPDEST PUSH2 0xB89 SWAP1 PUSH1 0xA PUSH2 0x1A8E JUMP JUMPDEST DUP9 SLOAD PUSH2 0xB9E SWAP1 PUSH2 0x100 SWAP1 DIV PUSH2 0xFFFF AND DUP6 PUSH2 0x1A9D JUMP JUMPDEST PUSH4 0xFFFFFFFF AND PUSH2 0xBAE SWAP2 SWAP1 PUSH2 0x193E JUMP JUMPDEST PUSH2 0xBB8 SWAP2 SWAP1 PUSH2 0x1AC5 JUMP JUMPDEST DUP8 SLOAD PUSH32 0xFFFFFFFFFFFFFFFFFFFFFFFFFFFFFFFFFFFFFFFFFF00000000000000000000FF AND DUP9 SSTORE SWAP1 POP DUP1 ISZERO PUSH2 0xD30 JUMPI PUSH1 0x40 MLOAD PUSH32 0x5112766000000000000000000000000000000000000000000000000000000000 DUP2 MSTORE CALLER PUSH1 0x4 DUP3 ADD MSTORE PUSH1 0x24 DUP2 ADD DUP3 SWAP1 MSTORE PUSH20 0xFFFFFFFFFFFFFFFFFFFFFFFFFFFFFFFFFFFFFFFF DUP10 AND SWAP1 PUSH4 0x51127660 SWAP1 PUSH1 0x44 ADD PUSH1 0x20 PUSH1 0x40 MLOAD DUP1 DUP4 SUB DUP2 PUSH1 0x0 DUP8 GAS CALL SWAP3 POP POP POP DUP1 ISZERO PUSH2 0xC93 JUMPI POP PUSH1 0x40 DUP1 MLOAD PUSH1 0x1F RETURNDATASIZE SWAP1 DUP2 ADD PUSH32 0xFFFFFFFFFFFFFFFFFFFFFFFFFFFFFFFFFFFFFFFFFFFFFFFFFFFFFFFFFFFFFFE0 AND DUP3 ADD SWAP1 SWAP3 MSTORE PUSH2 0xC90 SWAP2 DUP2 ADD SWAP1 PUSH2 0x1AD9 JUMP JUMPDEST PUSH1 0x1 JUMPDEST PUSH2 0xCF9 JUMPI PUSH1 0x40 MLOAD PUSH32 0x8C379A000000000000000000000000000000000000000000000000000000000 DUP2 MSTORE PUSH1 0x20 PUSH1 0x4 DUP3 ADD MSTORE PUSH1 0xD PUSH1 0x24 DUP3 ADD MSTORE PUSH32 0x5061796F6666206661696C656400000000000000000000000000000000000000 PUSH1 0x44 DUP3 ADD MSTORE PUSH1 0x64 ADD PUSH2 0x2D2 JUMP JUMPDEST POP PUSH1 0x40 MLOAD DUP2 DUP2 MSTORE CALLER SWAP1 PUSH32 0x5AFECA38B2064C23A692C4CF353015D80AB3ECC417B4F893F372690C11FBD9A6 SWAP1 PUSH1 0x20 ADD PUSH1 0x40 MLOAD DUP1 SWAP2 SUB SWAP1 LOG2 JUMPDEST POP POP POP JUMPDEST POP POP PUSH1 0x0 DUP1 SLOAD PUSH32 0xFFFFFFFFFFFFFFFFFFFFFFFFFFFFFFFFFFFFFFFFFFFFFFFFFFFFFFFFFFFFFF00 AND SWAP1 SSTORE POP PUSH1 0x1 SWAP5 SWAP4 POP POP POP POP JUMP JUMPDEST PUSH1 0x0 CALLER PUSH20 0xFFFFFFFFFFFFFFFFFFFFFFFFFFFFFFFFFFFFFFFF AND PUSH20 0x163342FAE2BBE3303E5A9ADCE4BC9FB44D0FF062 PUSH20 0xFFFFFFFFFFFFFFFFFFFFFFFFFFFFFFFFFFFFFFFF AND PUSH4 0xB4A99A4E PUSH1 0x40 MLOAD DUP2 PUSH4 0xFFFFFFFF AND PUSH1 0xE0 SHL DUP2 MSTORE PUSH1 0x4 ADD PUSH1 0x20 PUSH1 0x40 MLOAD DUP1 DUP4 SUB DUP2 DUP7 GAS STATICCALL ISZERO DUP1 ISZERO PUSH2 0xDE1 JUMPI RETURNDATASIZE PUSH1 0x0 DUP1 RETURNDATACOPY RETURNDATASIZE PUSH1 0x0 REVERT JUMPDEST POP POP POP POP PUSH1 0x40 MLOAD RETURNDATASIZE PUSH1 0x1F NOT PUSH1 0x1F DUP3 ADD AND DUP3 ADD DUP1 PUSH1 0x40 MSTORE POP DUP2 ADD SWAP1 PUSH2 0xE05 SWAP2 SWAP1 PUSH2 0x1725 JUMP JUMPDEST PUSH20 0xFFFFFFFFFFFFFFFFFFFFFFFFFFFFFFFFFFFFFFFF AND EQ PUSH2 0xE82 JUMPI PUSH1 0x40 MLOAD PUSH32 0x8C379A000000000000000000000000000000000000000000000000000000000 DUP2 MSTORE PUSH1 0x20 PUSH1 0x4 DUP3 ADD MSTORE PUSH1 0xA PUSH1 0x24 DUP3 ADD MSTORE PUSH32 0x4F776E6572206F6E6C7900000000000000000000000000000000000000000000 PUSH1 0x44 DUP3 ADD MSTORE PUSH1 0x64 ADD PUSH2 0x2D2 JUMP JUMPDEST PUSH20 0xFFFFFFFFFFFFFFFFFFFFFFFFFFFFFFFFFFFFFFFF DUP3 AND PUSH1 0x0 SWAP1 DUP2 MSTORE PUSH1 0x1 PUSH1 0x20 DUP2 SWAP1 MSTORE PUSH1 0x40 SWAP1 SWAP2 KECCAK256 DUP1 SLOAD SWAP1 SWAP2 PUSH1 0xFF SWAP1 SWAP2 AND ISZERO ISZERO EQ PUSH2 0xF1C JUMPI PUSH1 0x40 MLOAD PUSH32 0x8C379A000000000000000000000000000000000000000000000000000000000 DUP2 MSTORE PUSH1 0x20 PUSH1 0x4 DUP3 ADD MSTORE PUSH1 0xF PUSH1 0x24 DUP3 ADD MSTORE PUSH32 0x4E6F7420616E20656D706C6F7965650000000000000000000000000000000000 PUSH1 0x44 DUP3 ADD MSTORE PUSH1 0x64 ADD PUSH2 0x2D2 JUMP JUMPDEST DUP1 SLOAD PUSH32 0xFFFFFFFFFFFFFFFFFFFFFFFFFFFFFFFFFFFFFFFFFF00000000FFFFFFFFFFFF00 AND PUSH8 0x100000000000000 TIMESTAMP PUSH4 0xFFFFFFFF AND MUL OR DUP2 SSTORE PUSH1 0x40 MLOAD PUSH20 0xFFFFFFFFFFFFFFFFFFFFFFFFFFFFFFFFFFFFFFFF DUP5 AND SWAP1 PUSH32 0x4F8DD5393FD34D2F49290D092D4ACB088E011456E5D47B4BA6188CD81CA2887D SWAP1 PUSH1 0x0 SWAP1 LOG2 PUSH1 0x1 SWAP2 POP POP JUMPDEST SWAP2 SWAP1 POP JUMP JUMPDEST PUSH1 0x0 CALLER PUSH20 0xFFFFFFFFFFFFFFFFFFFFFFFFFFFFFFFFFFFFFFFF AND PUSH20 0x163342FAE2BBE3303E5A9ADCE4BC9FB44D0FF062 PUSH20 0xFFFFFFFFFFFFFFFFFFFFFFFFFFFFFFFFFFFFFFFF AND PUSH4 0xB4A99A4E PUSH1 0x40 MLOAD DUP2 PUSH4 0xFFFFFFFF AND PUSH1 0xE0 SHL DUP2 MSTORE PUSH1 0x4 ADD PUSH1 0x20 PUSH1 0x40 MLOAD DUP1 DUP4 SUB DUP2 DUP7 GAS STATICCALL ISZERO DUP1 ISZERO PUSH2 0x1018 JUMPI RETURNDATASIZE PUSH1 0x0 DUP1 RETURNDATACOPY RETURNDATASIZE PUSH1 0x0 REVERT JUMPDEST POP POP POP POP PUSH1 0x40 MLOAD RETURNDATASIZE PUSH1 0x1F NOT PUSH1 0x1F DUP3 ADD AND DUP3 ADD DUP1 PUSH1 0x40 MSTORE POP DUP2 ADD SWAP1 PUSH2 0x103C SWAP2 SWAP1 PUSH2 0x1725 JUMP JUMPDEST PUSH20 0xFFFFFFFFFFFFFFFFFFFFFFFFFFFFFFFFFFFFFFFF AND EQ PUSH2 0x10B9 JUMPI PUSH1 0x40 MLOAD PUSH32 0x8C379A000000000000000000000000000000000000000000000000000000000 DUP2 MSTORE PUSH1 0x20 PUSH1 0x4 DUP3 ADD MSTORE PUSH1 0xA PUSH1 0x24 DUP3 ADD MSTORE PUSH32 0x4F776E6572206F6E6C7900000000000000000000000000000000000000000000 PUSH1 0x44 DUP3 ADD MSTORE PUSH1 0x64 ADD PUSH2 0x2D2 JUMP JUMPDEST PUSH20 0xFFFFFFFFFFFFFFFFFFFFFFFFFFFFFFFFFFFFFFFF DUP4 AND PUSH1 0x0 SWAP1 DUP2 MSTORE PUSH1 0x1 PUSH1 0x20 DUP2 SWAP1 MSTORE PUSH1 0x40 SWAP1 SWAP2 KECCAK256 DUP1 SLOAD SWAP1 SWAP2 PUSH1 0xFF SWAP1 SWAP2 AND ISZERO ISZERO SWAP1 SUB PUSH2 0x1154 JUMPI PUSH1 0x40 MLOAD PUSH32 0x8C379A000000000000000000000000000000000000000000000000000000000 DUP2 MSTORE PUSH1 0x20 PUSH1 0x4 DUP3 ADD MSTORE PUSH1 0x11 PUSH1 0x24 DUP3 ADD MSTORE PUSH32 0x416C726561647920656D706C6F79656564000000000000000000000000000000 PUSH1 0x44 DUP3 ADD MSTORE PUSH1 0x64 ADD PUSH2 0x2D2 JUMP JUMPDEST DUP1 SLOAD PUSH8 0x100000000000000 SWAP1 DIV PUSH4 0xFFFFFFFF AND ISZERO PUSH2 0x11CE JUMPI PUSH1 0x40 MLOAD PUSH32 0x8C379A000000000000000000000000000000000000000000000000000000000 DUP2 MSTORE PUSH1 0x20 PUSH1 0x4 DUP3 ADD MSTORE PUSH1 0xE PUSH1 0x24 DUP3 ADD MSTORE PUSH32 0x5061796F66662070656E64696E67000000000000000000000000000000000000 PUSH1 0x44 DUP3 ADD MSTORE PUSH1 0x64 ADD PUSH2 0x2D2 JUMP JUMPDEST DUP4 EXTCODESIZE PUSH4 0xFFFFFFFF DUP2 AND ISZERO PUSH2 0x123E JUMPI PUSH1 0x40 MLOAD PUSH32 0x8C379A000000000000000000000000000000000000000000000000000000000 DUP2 MSTORE PUSH1 0x20 PUSH1 0x4 DUP3 ADD MSTORE PUSH1 0x14 PUSH1 0x24 DUP3 ADD MSTORE PUSH32 0x456D706C6F79656520697320636F6E7472616374000000000000000000000000 PUSH1 0x44 DUP3 ADD MSTORE PUSH1 0x64 ADD PUSH2 0x2D2 JUMP JUMPDEST DUP4 PUSH2 0xFFFF AND PUSH1 0x0 SUB PUSH2 0x12AC JUMPI PUSH1 0x40 MLOAD PUSH32 0x8C379A000000000000000000000000000000000000000000000000000000000 DUP2 MSTORE PUSH1 0x20 PUSH1 0x4 DUP3 ADD MSTORE PUSH1 0x9 PUSH1 0x24 DUP3 ADD MSTORE PUSH32 0x5A65726F20776167650000000000000000000000000000000000000000000000 PUSH1 0x44 DUP3 ADD MSTORE PUSH1 0x64 ADD PUSH2 0x2D2 JUMP JUMPDEST DUP2 SLOAD PUSH4 0xFFFFFFFF TIMESTAMP AND PUSH4 0x1000000 MUL PUSH32 0xFFFFFFFFFFFFFFFFFFFFFFFFFFFFFFFFFFFFFFFFFFFFFFFFFF00000000FFFFFF PUSH2 0xFFFF DUP8 AND PUSH2 0x100 DUP2 MUL PUSH32 0xFFFFFFFFFFFFFFFFFFFFFFFFFFFFFFFFFFFFFFFFFFFFFFFFFFFFFFFFFF000000 SWAP1 SWAP5 AND SWAP4 SWAP1 SWAP4 OR PUSH1 0x1 OR AND OR DUP4 SSTORE PUSH1 0x40 MLOAD SWAP1 DUP2 MSTORE PUSH20 0xFFFFFFFFFFFFFFFFFFFFFFFFFFFFFFFFFFFFFFFF DUP7 AND SWAP1 PUSH32 0xCCE11E3D6F477D5366660C25BC52487E09546E4F633512A0B70AFE53CAD75888 SWAP1 PUSH1 0x20 ADD PUSH1 0x40 MLOAD DUP1 SWAP2 SUB SWAP1 LOG2 PUSH1 0x1 SWAP3 POP POP POP JUMPDEST SWAP3 SWAP2 POP POP JUMP JUMPDEST PUSH20 0xFFFFFFFFFFFFFFFFFFFFFFFFFFFFFFFFFFFFFFFF DUP2 AND PUSH1 0x0 DUP2 DUP2 MSTORE PUSH1 0x1 PUSH1 0x20 DUP2 DUP2 MSTORE PUSH1 0x40 DUP1 DUP5 KECCAK256 DUP2 MLOAD PUSH1 0x80 DUP2 ADD DUP4 MSTORE SWAP1 SLOAD PUSH1 0xFF DUP2 AND ISZERO ISZERO DUP3 MSTORE PUSH2 0xFFFF PUSH2 0x100 DUP3 DIV AND DUP3 DUP6 ADD DUP2 SWAP1 MSTORE PUSH4 0xFFFFFFFF PUSH4 0x1000000 DUP4 DIV DUP2 AND SWAP5 DUP5 ADD DUP6 SWAP1 MSTORE PUSH8 0x100000000000000 SWAP1 SWAP3 DIV SWAP1 SWAP2 AND PUSH1 0x60 DUP4 ADD MSTORE SWAP6 DUP6 MSTORE SWAP3 SWAP1 SWAP2 MSTORE DUP3 SWAP2 DUP3 SWAP2 PUSH2 0x13F4 JUMPI PUSH1 0x0 PUSH2 0x1440 JUMP JUMPDEST PUSH20 0xFFFFFFFFFFFFFFFFFFFFFFFFFFFFFFFFFFFFFFFF DUP7 AND PUSH1 0x0 SWAP1 DUP2 MSTORE PUSH1 0x1 PUSH1 0x20 MSTORE PUSH1 0x40 SWAP1 KECCAK256 SLOAD PUSH3 0x15180 SWAP1 PUSH2 0x1436 SWAP1 PUSH4 0x1000000 SWAP1 DIV PUSH4 0xFFFFFFFF AND TIMESTAMP PUSH2 0x18A5 JUMP JUMPDEST PUSH2 0x1440 SWAP2 SWAP1 PUSH2 0x18F8 JUMP JUMPDEST PUSH1 0x40 DUP3 ADD MLOAD SWAP2 MLOAD SWAP6 SWAP8 SWAP1 SWAP7 POP SWAP1 SWAP5 SWAP4 POP SWAP2 POP POP JUMP JUMPDEST PUSH1 0x0 CALLER PUSH20 0xFFFFFFFFFFFFFFFFFFFFFFFFFFFFFFFFFFFFFFFF AND PUSH20 0x163342FAE2BBE3303E5A9ADCE4BC9FB44D0FF062 PUSH20 0xFFFFFFFFFFFFFFFFFFFFFFFFFFFFFFFFFFFFFFFF AND PUSH4 0xB4A99A4E PUSH1 0x40 MLOAD DUP2 PUSH4 0xFFFFFFFF AND PUSH1 0xE0 SHL DUP2 MSTORE PUSH1 0x4 ADD PUSH1 0x20 PUSH1 0x40 MLOAD DUP1 DUP4 SUB DUP2 DUP7 GAS STATICCALL ISZERO DUP1 ISZERO PUSH2 0x14CD JUMPI RETURNDATASIZE PUSH1 0x0 DUP1 RETURNDATACOPY RETURNDATASIZE PUSH1 0x0 REVERT JUMPDEST POP POP POP POP PUSH1 0x40 MLOAD RETURNDATASIZE PUSH1 0x1F NOT PUSH1 0x1F DUP3 ADD AND DUP3 ADD DUP1 PUSH1 0x40 MSTORE POP DUP2 ADD SWAP1 PUSH2 0x14F1 SWAP2 SWAP1 PUSH2 0x1725 JUMP JUMPDEST PUSH20 0xFFFFFFFFFFFFFFFFFFFFFFFFFFFFFFFFFFFFFFFF AND EQ PUSH2 0x156E JUMPI PUSH1 0x40 MLOAD PUSH32 0x8C379A000000000000000000000000000000000000000000000000000000000 DUP2 MSTORE PUSH1 0x20 PUSH1 0x4 DUP3 ADD MSTORE PUSH1 0xA PUSH1 0x24 DUP3 ADD MSTORE PUSH32 0x4F776E6572206F6E6C7900000000000000000000000000000000000000000000 PUSH1 0x44 DUP3 ADD MSTORE PUSH1 0x64 ADD PUSH2 0x2D2 JUMP JUMPDEST PUSH20 0xFFFFFFFFFFFFFFFFFFFFFFFFFFFFFFFFFFFFFFFF DUP4 AND PUSH1 0x0 SWAP1 DUP2 MSTORE PUSH1 0x1 PUSH1 0x20 DUP2 SWAP1 MSTORE PUSH1 0x40 SWAP1 SWAP2 KECCAK256 DUP1 SLOAD SWAP1 SWAP2 PUSH1 0xFF SWAP1 SWAP2 AND ISZERO ISZERO EQ PUSH2 0x1608 JUMPI PUSH1 0x40 MLOAD PUSH32 0x8C379A000000000000000000000000000000000000000000000000000000000 DUP2 MSTORE PUSH1 0x20 PUSH1 0x4 DUP3 ADD MSTORE PUSH1 0xF PUSH1 0x24 DUP3 ADD MSTORE PUSH32 0x4E6F7420616E20656D706C6F7965650000000000000000000000000000000000 PUSH1 0x44 DUP3 ADD MSTORE PUSH1 0x64 ADD PUSH2 0x2D2 JUMP JUMPDEST DUP3 PUSH2 0xFFFF AND PUSH1 0x0 SUB PUSH2 0x1676 JUMPI PUSH1 0x40 MLOAD PUSH32 0x8C379A000000000000000000000000000000000000000000000000000000000 DUP2 MSTORE PUSH1 0x20 PUSH1 0x4 DUP3 ADD MSTORE PUSH1 0x9 PUSH1 0x24 DUP3 ADD MSTORE PUSH32 0x5A65726F20776167650000000000000000000000000000000000000000000000 PUSH1 0x44 DUP3 ADD MSTORE PUSH1 0x64 ADD PUSH2 0x2D2 JUMP JUMPDEST DUP1 SLOAD PUSH32 0xFFFFFFFFFFFFFFFFFFFFFFFFFFFFFFFFFFFFFFFFFFFFFFFFFFFFFFFFFF0000FF AND PUSH2 0x100 PUSH2 0xFFFF DUP6 AND SWAP1 DUP2 MUL SWAP2 SWAP1 SWAP2 OR DUP3 SSTORE PUSH1 0x40 MLOAD SWAP1 DUP2 MSTORE PUSH20 0xFFFFFFFFFFFFFFFFFFFFFFFFFFFFFFFFFFFFFFFF DUP6 AND SWAP1 PUSH32 0xF1B941E2361086E5213D894077D063BF4E875ACDD8259232C63F368648D62CE1 SWAP1 PUSH1 0x20 ADD PUSH1 0x40 MLOAD DUP1 SWAP2 SUB SWAP1 LOG2 POP PUSH1 0x1 SWAP4 SWAP3 POP POP POP JUMP JUMPDEST PUSH20 0xFFFFFFFFFFFFFFFFFFFFFFFFFFFFFFFFFFFFFFFF DUP2 AND DUP2 EQ PUSH2 0x1722 JUMPI PUSH1 0x0 DUP1 REVERT JUMPDEST POP JUMP JUMPDEST PUSH1 0x0 PUSH1 0x20 DUP3 DUP5 SUB SLT ISZERO PUSH2 0x1737 JUMPI PUSH1 0x0 DUP1 REVERT JUMPDEST DUP2 MLOAD PUSH2 0x1742 DUP2 PUSH2 0x1700 JUMP JUMPDEST SWAP4 SWAP3 POP POP POP JUMP JUMPDEST PUSH1 0x0 PUSH1 0x20 DUP3 DUP5 SUB SLT ISZERO PUSH2 0x175B JUMPI PUSH1 0x0 DUP1 REVERT JUMPDEST DUP2 CALLDATALOAD PUSH2 0x1742 DUP2 PUSH2 0x1700 JUMP JUMPDEST PUSH1 0x0 DUP1 PUSH1 0x40 DUP4 DUP6 SUB SLT ISZERO PUSH2 0x1779 JUMPI PUSH1 0x0 DUP1 REVERT JUMPDEST DUP3 CALLDATALOAD PUSH2 0x1784 DUP2 PUSH2 0x1700 JUMP JUMPDEST SWAP2 POP PUSH1 0x20 DUP4 ADD CALLDATALOAD PUSH2 0xFFFF DUP2 AND DUP2 EQ PUSH2 0x179B JUMPI PUSH1 0x0 DUP1 REVERT JUMPDEST DUP1 SWAP2 POP POP SWAP3 POP SWAP3 SWAP1 POP JUMP JUMPDEST PUSH1 0x0 PUSH1 0x20 DUP1 DUP4 MSTORE DUP4 MLOAD DUP1 DUP3 DUP6 ADD MSTORE PUSH1 0x0 JUMPDEST DUP2 DUP2 LT ISZERO PUSH2 0x17D3 JUMPI DUP6 DUP2 ADD DUP4 ADD MLOAD DUP6 DUP3 ADD PUSH1 0x40 ADD MSTORE DUP3 ADD PUSH2 0x17B7 JUMP JUMPDEST POP PUSH1 0x0 PUSH1 0x40 DUP3 DUP7 ADD ADD MSTORE PUSH1 0x40 PUSH32 0xFFFFFFFFFFFFFFFFFFFFFFFFFFFFFFFFFFFFFFFFFFFFFFFFFFFFFFFFFFFFFFE0 PUSH1 0x1F DUP4 ADD AND DUP6 ADD ADD SWAP3 POP POP POP SWAP3 SWAP2 POP POP JUMP JUMPDEST DUP1 MLOAD DUP1 ISZERO ISZERO DUP2 EQ PUSH2 0xF9B JUMPI PUSH1 0x0 DUP1 REVERT JUMPDEST PUSH1 0x0 DUP1 PUSH1 0x40 DUP4 DUP6 SUB SLT ISZERO PUSH2 0x1835 JUMPI PUSH1 0x0 DUP1 REVERT JUMPDEST DUP3 MLOAD PUSH1 0xFF DUP2 AND DUP2 EQ PUSH2 0x1846 JUMPI PUSH1 0x0 DUP1 REVERT JUMPDEST SWAP2 POP PUSH2 0x1854 PUSH1 0x20 DUP5 ADD PUSH2 0x1812 JUMP JUMPDEST SWAP1 POP SWAP3 POP SWAP3 SWAP1 POP JUMP JUMPDEST PUSH1 0x0 PUSH1 0x20 DUP3 DUP5 SUB SLT ISZERO PUSH2 0x186F JUMPI PUSH1 0x0 DUP1 REVERT JUMPDEST POP MLOAD SWAP2 SWAP1 POP JUMP JUMPDEST PUSH32 0x4E487B7100000000000000000000000000000000000000000000000000000000 PUSH1 0x0 MSTORE PUSH1 0x11 PUSH1 0x4 MSTORE PUSH1 0x24 PUSH1 0x0 REVERT JUMPDEST PUSH4 0xFFFFFFFF DUP3 DUP2 AND DUP3 DUP3 AND SUB SWAP1 DUP1 DUP3 GT ISZERO PUSH2 0x18C2 JUMPI PUSH2 0x18C2 PUSH2 0x1876 JUMP JUMPDEST POP SWAP3 SWAP2 POP POP JUMP JUMPDEST PUSH32 0x4E487B7100000000000000000000000000000000000000000000000000000000 PUSH1 0x0 MSTORE PUSH1 0x12 PUSH1 0x4 MSTORE PUSH1 0x24 PUSH1 0x0 REVERT JUMPDEST PUSH1 0x0 PUSH4 0xFFFFFFFF DUP1 DUP5 AND DUP1 PUSH2 0x190F JUMPI PUSH2 0x190F PUSH2 0x18C9 JUMP JUMPDEST SWAP3 AND SWAP2 SWAP1 SWAP2 DIV SWAP3 SWAP2 POP POP JUMP JUMPDEST PUSH1 0x0 PUSH4 0xFFFFFFFF DUP1 DUP5 AND DUP1 PUSH2 0x1932 JUMPI PUSH2 0x1932 PUSH2 0x18C9 JUMP JUMPDEST SWAP3 AND SWAP2 SWAP1 SWAP2 MOD SWAP3 SWAP2 POP POP JUMP JUMPDEST DUP1 DUP3 MUL DUP2 ISZERO DUP3 DUP3 DIV DUP5 EQ OR PUSH2 0x1367 JUMPI PUSH2 0x1367 PUSH2 0x1876 JUMP JUMPDEST PUSH1 0xFF DUP2 DUP2 AND DUP4 DUP3 AND ADD SWAP1 DUP2 GT ISZERO PUSH2 0x1367 JUMPI PUSH2 0x1367 PUSH2 0x1876 JUMP JUMPDEST PUSH1 0x1 DUP2 DUP2 JUMPDEST DUP1 DUP6 GT ISZERO PUSH2 0x19C7 JUMPI DUP2 PUSH32 0xFFFFFFFFFFFFFFFFFFFFFFFFFFFFFFFFFFFFFFFFFFFFFFFFFFFFFFFFFFFFFFFF DIV DUP3 GT ISZERO PUSH2 0x19AD JUMPI PUSH2 0x19AD PUSH2 0x1876 JUMP JUMPDEST DUP1 DUP6 AND ISZERO PUSH2 0x19BA JUMPI SWAP2 DUP2 MUL SWAP2 JUMPDEST SWAP4 DUP5 SHR SWAP4 SWAP1 DUP1 MUL SWAP1 PUSH2 0x1973 JUMP JUMPDEST POP SWAP3 POP SWAP3 SWAP1 POP JUMP JUMPDEST PUSH1 0x0 DUP3 PUSH2 0x19DE JUMPI POP PUSH1 0x1 PUSH2 0x1367 JUMP JUMPDEST DUP2 PUSH2 0x19EB JUMPI POP PUSH1 0x0 PUSH2 0x1367 JUMP JUMPDEST DUP2 PUSH1 0x1 DUP2 EQ PUSH2 0x1A01 JUMPI PUSH1 0x2 DUP2 EQ PUSH2 0x1A0B JUMPI PUSH2 0x1A27 JUMP JUMPDEST PUSH1 0x1 SWAP2 POP POP PUSH2 0x1367 JUMP JUMPDEST PUSH1 0xFF DUP5 GT ISZERO PUSH2 0x1A1C JUMPI PUSH2 0x1A1C PUSH2 0x1876 JUMP JUMPDEST POP POP PUSH1 0x1 DUP3 SHL PUSH2 0x1367 JUMP JUMPDEST POP PUSH1 0x20 DUP4 LT PUSH2 0x133 DUP4 LT AND PUSH1 0x4E DUP5 LT PUSH1 0xB DUP5 LT AND OR ISZERO PUSH2 0x1A4A JUMPI POP DUP2 DUP2 EXP PUSH2 0x1367 JUMP JUMPDEST PUSH2 0x1A54 DUP4 DUP4 PUSH2 0x196E JUMP JUMPDEST DUP1 PUSH32 0xFFFFFFFFFFFFFFFFFFFFFFFFFFFFFFFFFFFFFFFFFFFFFFFFFFFFFFFFFFFFFFFF DIV DUP3 GT ISZERO PUSH2 0x1A86 JUMPI PUSH2 0x1A86 PUSH2 0x1876 JUMP JUMPDEST MUL SWAP4 SWAP3 POP POP POP JUMP JUMPDEST PUSH1 0x0 PUSH2 0x1742 PUSH1 0xFF DUP5 AND DUP4 PUSH2 0x19CF JUMP JUMPDEST PUSH4 0xFFFFFFFF DUP2 DUP2 AND DUP4 DUP3 AND MUL DUP1 DUP3 AND SWAP2 SWAP1 DUP3 DUP2 EQ PUSH2 0x1ABD JUMPI PUSH2 0x1ABD PUSH2 0x1876 JUMP JUMPDEST POP POP SWAP3 SWAP2 POP POP JUMP JUMPDEST PUSH1 0x0 DUP3 PUSH2 0x1AD4 JUMPI PUSH2 0x1AD4 PUSH2 0x18C9 JUMP JUMPDEST POP DIV SWAP1 JUMP JUMPDEST PUSH1 0x0 PUSH1 0x20 DUP3 DUP5 SUB SLT ISZERO PUSH2 0x1AEB JUMPI PUSH1 0x0 DUP1 REVERT JUMPDEST PUSH2 0x1742 DUP3 PUSH2 0x1812 JUMP INVALID LOG2 PUSH5 0x6970667358 0x22 SLT KECCAK256 0xD7 JUMPI 0xEC 0xC8 0x23 0xC4 0xAE 0xBC EXTCODEHASH SWAP2 0xEF DUP5 INVALID 0xE7 PUSH1 0xFB EQ SWAP10 0xE2 0x4D COINBASE 0x1F 0xC0 PUSH24 0x9DB98F738FE78DC64736F6C634300081300330000000000 "
				},
				"gasEstimates": {
					"creation": {
						"codeDepositCost": "1390800",
						"executionCost": "25669",
						"totalCost": "1416469"
					},
					"external": {
						"": "276",
						"AddEmployee(address,uint16)": "infinite",
						"EmployeeProfile(address)": "5289",
						"Name()": "infinite",
						"Payoff()": "infinite",
						"RemoveEmployee(address)": "infinite",
						"UpdateEmployee(address,uint16)": "infinite"
					}
				},
				"methodIdentifiers": {
					"AddEmployee(address,uint16)": "66a320b5",
					"EmployeeProfile(address)": "91874e93",
					"Name()": "8052474d",
					"Payoff()": "09d30d6d",
					"RemoveEmployee(address)": "52d6abdc",
					"UpdateEmployee(address,uint16)": "e68a81c9"
				}
			},
			"storageLayout": {
				"storage": [
					{
						"astId": 68,
						"contract": "Corporation/Employees.sol:Employees",
						"label": "reentrantLocked",
						"offset": 0,
						"slot": "0",
						"type": "t_bool"
					},
					{
						"astId": 88,
						"contract": "Corporation/Employees.sol:Employees",
						"label": "employees",
						"offset": 0,
						"slot": "1",
						"type": "t_mapping(t_address,t_struct(Employee)83_storage)"
					}
				],
				"types": {
					"t_address": {
						"encoding": "inplace",
						"label": "address",
						"numberOfBytes": "20"
					},
					"t_bool": {
						"encoding": "inplace",
						"label": "bool",
						"numberOfBytes": "1"
					},
					"t_mapping(t_address,t_struct(Employee)83_storage)": {
						"encoding": "mapping",
						"key": "t_address",
						"label": "mapping(address => struct Employees.Employee)",
						"numberOfBytes": "32",
						"value": "t_struct(Employee)83_storage"
					},
					"t_struct(Employee)83_storage": {
						"encoding": "inplace",
						"label": "struct Employees.Employee",
						"members": [
							{
								"astId": 76,
								"contract": "Corporation/Employees.sol:Employees",
								"label": "isEmployee",
								"offset": 0,
								"slot": "0",
								"type": "t_bool"
							},
							{
								"astId": 78,
								"contract": "Corporation/Employees.sol:Employees",
								"label": "dailyWage",
								"offset": 1,
								"slot": "0",
								"type": "t_uint16"
							},
							{
								"astId": 80,
								"contract": "Corporation/Employees.sol:Employees",
								"label": "lastPayoff",
								"offset": 3,
								"slot": "0",
								"type": "t_uint32"
							},
							{
								"astId": 82,
								"contract": "Corporation/Employees.sol:Employees",
								"label": "releasedAt",
								"offset": 7,
								"slot": "0",
								"type": "t_uint32"
							}
						],
						"numberOfBytes": "32"
					},
					"t_uint16": {
						"encoding": "inplace",
						"label": "uint16",
						"numberOfBytes": "2"
					},
					"t_uint32": {
						"encoding": "inplace",
						"label": "uint32",
						"numberOfBytes": "4"
					}
				}
			},
			"userdoc": {
				"kind": "user",
				"methods": {},
				"version": 1
			}
		}
	}
}