{
	"data": {
		"bytecode": {
			"linkReferences": {},
			"object": "60806040526000805460ff1916905534801561001a57600080fd5b50611b2a8061002a6000396000f3fe6080604052600436106100695760003560e01c80638052474d116100435780638052474d1461034557806391874e931461039b578063e68a81c9146103ec57610267565b806309d30d6d146102db57806352d6abdc1461030557806366a320b51461032557610267565b36610267576040517fc75ffd8600000000000000000000000000000000000000000000000000000000815260206004820152601260248201527f2e436f72706f726174696f6e2e436c65726b00000000000000000000000000006044820152339073163342fae2bbe3303e5a9adce4bc9fb44d0ff0629063c75ffd8690606401602060405180830381865afa158015610106573d6000803e3d6000fd5b505050506040513d601f19601f8201168201806040525081019061012a9190611725565b73ffffffffffffffffffffffffffffffffffffffff1614610265573415610265576040517fc75ffd8600000000000000000000000000000000000000000000000000000000815260206004820152601260248201527f2e436f72706f726174696f6e2e5661756c740000000000000000000000000000604482015273163342fae2bbe3303e5a9adce4bc9fb44d0ff0629063c75ffd8690606401602060405180830381865afa1580156101e1573d6000803e3d6000fd5b505050506040513d601f19601f820116820180604052508101906102059190611725565b73ffffffffffffffffffffffffffffffffffffffff163460405160006040518083038185875af1925050503d806000811461025c576040519150601f19603f3d011682016040523d82523d6000602084013e610261565b606091505b5050505b005b34801561027357600080fd5b506040517f08c379a000000000000000000000000000000000000000000000000000000000815260206004820152601b60248201527f456d706c6f796565732066616c6c6261636b207265766572746564000000000060448201526064015b60405180910390fd5b3480156102e757600080fd5b506102f061040c565b60405190151581526020015b60405180910390f35b34801561031157600080fd5b506102f0610320366004611749565b610d69565b34801561033157600080fd5b506102f0610340366004611766565b610fa0565b34801561035157600080fd5b5061038e6040518060400160405280601681526020017f2e436f72706f726174696f6e2e456d706c6f796565730000000000000000000081525081565b6040516102fc91906117a6565b3480156103a757600080fd5b506103bb6103b6366004611749565b61136d565b6040805161ffff95909516855263ffffffff93841660208601529190921690830152151560608201526080016102fc565b3480156103f857600080fd5b506102f0610407366004611766565b611455565b6000805460ff16151560010361047e576040517f08c379a000000000000000000000000000000000000000000000000000000000815260206004820152601160248201527f5265656e7472616e6365206661696c656400000000000000000000000000000060448201526064016102d2565b600080547fffffffffffffffffffffffffffffffffffffffffffffffffffffffffffffff001660011781556040517fc75ffd8600000000000000000000000000000000000000000000000000000000815260206004820152601360248201527f2e436f72706f726174696f6e2e4f7261636c6500000000000000000000000000604482015273163342fae2bbe3303e5a9adce4bc9fb44d0ff0629063c75ffd8690606401602060405180830381865afa15801561053f573d6000803e3d6000fd5b505050506040513d601f19601f820116820180604052508101906105639190611725565b6040517fc75ffd8600000000000000000000000000000000000000000000000000000000815260206004820152601260248201527f2e436f72706f726174696f6e2e436c65726b0000000000000000000000000000604482015290915060009073163342fae2bbe3303e5a9adce4bc9fb44d0ff0629063c75ffd8690606401602060405180830381865afa1580156105ff573d6000803e3d6000fd5b505050506040513d601f19601f820116820180604052508101906106239190611725565b3360009081526001602052604081208054929350916301000000900463ffffffff1690036106ad576040517f08c379a000000000000000000000000000000000000000000000000000000000815260206004820152600d60248201527f456d706c6f796565206f6e6c790000000000000000000000000000000000000060448201526064016102d2565b6000808473ffffffffffffffffffffffffffffffffffffffff166316f0a3866040518163ffffffff1660e01b81526004016040805180830381865afa1580156106fa573d6000803e3d6000fd5b505050506040513d601f19601f8201168201806040525081019061071e9190611822565b909250905060018115151461078f576040517f08c379a000000000000000000000000000000000000000000000000000000000815260206004820152601260248201527f4f7261636c6520756e726561636861626c65000000000000000000000000000060448201526064016102d2565b60008573ffffffffffffffffffffffffffffffffffffffff1663f9a4bbbe6040518163ffffffff1660e01b8152600401602060405180830381865afa1580156107dc573d6000803e3d6000fd5b505050506040513d601f19601f82011682018060405250810190610800919061185d565b90506000811161086c576040517f08c379a000000000000000000000000000000000000000000000000000000000815260206004820152601760248201527f556e6163636570746564204f7261636c6520707269636500000000000000000060448201526064016102d2565b835460ff161515600103610b2a5783544290600090620151809061089d906301000000900463ffffffff16846118a5565b6108a791906118f8565b865490915060009062015180906108cb906301000000900463ffffffff16856118a5565b6108d5919061191b565b905060006108e485606461193e565b6108ef886012611955565b6108fa90600a611a8e565b895461090f90610100900461ffff1686611a9d565b63ffffffff1661091f919061193e565b6109299190611ac5565b905061093582856118a5565b885463ffffffff919091166301000000027fffffffffffffffffffffffffffffffffffffffffffffffffff00000000ffffff90911617885560008190036109d8576040517f08c379a000000000000000000000000000000000000000000000000000000000815260206004820152600c60248201527f416c72656164792070616964000000000000000000000000000000000000000060448201526064016102d2565b6040517f511276600000000000000000000000000000000000000000000000000000000081523360048201526024810182905273ffffffffffffffffffffffffffffffffffffffff8a16906351127660906044016020604051808303816000875af1925050508015610a85575060408051601f3d9081017fffffffffffffffffffffffffffffffffffffffffffffffffffffffffffffffe0168201909252610a8291810190611ad9565b60015b610aeb576040517f08c379a000000000000000000000000000000000000000000000000000000000815260206004820152600d60248201527f5061796f6666206661696c65640000000000000000000000000000000000000060448201526064016102d2565b5060405181815233907f5afeca38b2064c23a692c4cf353015d80ab3ecc417b4f893f372690c11fbd9a69060200160405180910390a250505050610d34565b835463ffffffff67010000000000000082048116916000916201518091610b5a91630100000090910416846118a5565b610b6491906118f8565b90506000610b7384606461193e565b610b7e876012611955565b610b8990600a611a8e565b8854610b9e90610100900461ffff1685611a9d565b63ffffffff16610bae919061193e565b610bb89190611ac5565b87547fffffffffffffffffffffffffffffffffffffffffff00000000000000000000ff16885590508015610d30576040517f511276600000000000000000000000000000000000000000000000000000000081523360048201526024810182905273ffffffffffffffffffffffffffffffffffffffff8916906351127660906044016020604051808303816000875af1925050508015610c93575060408051601f3d9081017fffffffffffffffffffffffffffffffffffffffffffffffffffffffffffffffe0168201909252610c9091810190611ad9565b60015b610cf9576040517f08c379a000000000000000000000000000000000000000000000000000000000815260206004820152600d60248201527f5061796f6666206661696c65640000000000000000000000000000000000000060448201526064016102d2565b5060405181815233907f5afeca38b2064c23a692c4cf353015d80ab3ecc417b4f893f372690c11fbd9a69060200160405180910390a25b5050505b5050600080547fffffffffffffffffffffffffffffffffffffffffffffffffffffffffffffff00169055506001949350505050565b60003373ffffffffffffffffffffffffffffffffffffffff1673163342fae2bbe3303e5a9adce4bc9fb44d0ff06273ffffffffffffffffffffffffffffffffffffffff1663b4a99a4e6040518163ffffffff1660e01b8152600401602060405180830381865afa158015610de1573d6000803e3d6000fd5b505050506040513d601f19601f82011682018060405250810190610e059190611725565b73ffffffffffffffffffffffffffffffffffffffff1614610e82576040517f08c379a000000000000000000000000000000000000000000000000000000000815260206004820152600a60248201527f4f776e6572206f6e6c790000000000000000000000000000000000000000000060448201526064016102d2565b73ffffffffffffffffffffffffffffffffffffffff821660009081526001602081905260409091208054909160ff909116151514610f1c576040517f08c379a000000000000000000000000000000000000000000000000000000000815260206004820152600f60248201527f4e6f7420616e20656d706c6f796565000000000000000000000000000000000060448201526064016102d2565b80547fffffffffffffffffffffffffffffffffffffffffff00000000ffffffffffff00166701000000000000004263ffffffff160217815560405173ffffffffffffffffffffffffffffffffffffffff8416907f4f8dd5393fd34d2f49290d092d4acb088e011456e5d47b4ba6188cd81ca2887d90600090a260019150505b919050565b60003373ffffffffffffffffffffffffffffffffffffffff1673163342fae2bbe3303e5a9adce4bc9fb44d0ff06273ffffffffffffffffffffffffffffffffffffffff1663b4a99a4e6040518163ffffffff1660e01b8152600401602060405180830381865afa158015611018573d6000803e3d6000fd5b505050506040513d601f19601f8201168201806040525081019061103c9190611725565b73ffffffffffffffffffffffffffffffffffffffff16146110b9576040517f08c379a000000000000000000000000000000000000000000000000000000000815260206004820152600a60248201527f4f776e6572206f6e6c790000000000000000000000000000000000000000000060448201526064016102d2565b73ffffffffffffffffffffffffffffffffffffffff831660009081526001602081905260409091208054909160ff90911615159003611154576040517f08c379a000000000000000000000000000000000000000000000000000000000815260206004820152601160248201527f416c726561647920656d706c6f7965656400000000000000000000000000000060448201526064016102d2565b8054670100000000000000900463ffffffff16156111ce576040517f08c379a000000000000000000000000000000000000000000000000000000000815260206004820152600e60248201527f5061796f66662070656e64696e6700000000000000000000000000000000000060448201526064016102d2565b833b63ffffffff81161561123e576040517f08c379a000000000000000000000000000000000000000000000000000000000815260206004820152601460248201527f456d706c6f79656520697320636f6e747261637400000000000000000000000060448201526064016102d2565b8361ffff166000036112ac576040517f08c379a000000000000000000000000000000000000000000000000000000000815260206004820152600960248201527f5a65726f2077616765000000000000000000000000000000000000000000000060448201526064016102d2565b815463ffffffff42166301000000027fffffffffffffffffffffffffffffffffffffffffffffffffff00000000ffffff61ffff871661010081027fffffffffffffffffffffffffffffffffffffffffffffffffffffffffff000000909416939093176001171617835560405190815273ffffffffffffffffffffffffffffffffffffffff8616907fcce11e3d6f477d5366660c25bc52487e09546e4f633512a0b70afe53cad758889060200160405180910390a26001925050505b92915050565b73ffffffffffffffffffffffffffffffffffffffff811660008181526001602081815260408084208151608081018352905460ff81161515825261ffff61010082041682850181905263ffffffff630100000083048116948401859052670100000000000000909204909116606083015295855292909152829182916113f4576000611440565b73ffffffffffffffffffffffffffffffffffffffff86166000908152600160205260409020546201518090611436906301000000900463ffffffff16426118a5565b61144091906118f8565b60408201519151959790965090949350915050565b60003373ffffffffffffffffffffffffffffffffffffffff1673163342fae2bbe3303e5a9adce4bc9fb44d0ff06273ffffffffffffffffffffffffffffffffffffffff1663b4a99a4e6040518163ffffffff1660e01b8152600401602060405180830381865afa1580156114cd573d6000803e3d6000fd5b505050506040513d601f19601f820116820180604052508101906114f19190611725565b73ffffffffffffffffffffffffffffffffffffffff161461156e576040517f08c379a000000000000000000000000000000000000000000000000000000000815260206004820152600a60248201527f4f776e6572206f6e6c790000000000000000000000000000000000000000000060448201526064016102d2565b73ffffffffffffffffffffffffffffffffffffffff831660009081526001602081905260409091208054909160ff909116151514611608576040517f08c379a000000000000000000000000000000000000000000000000000000000815260206004820152600f60248201527f4e6f7420616e20656d706c6f796565000000000000000000000000000000000060448201526064016102d2565b8261ffff16600003611676576040517f08c379a000000000000000000000000000000000000000000000000000000000815260206004820152600960248201527f5a65726f2077616765000000000000000000000000000000000000000000000060448201526064016102d2565b80547fffffffffffffffffffffffffffffffffffffffffffffffffffffffffff0000ff1661010061ffff851690810291909117825560405190815273ffffffffffffffffffffffffffffffffffffffff8516907ff1b941e2361086e5213d894077d063bf4e875acdd8259232c63f368648d62ce19060200160405180910390a25060019392505050565b73ffffffffffffffffffffffffffffffffffffffff8116811461172257600080fd5b50565b60006020828403121561173757600080fd5b815161174281611700565b9392505050565b60006020828403121561175b57600080fd5b813561174281611700565b6000806040838503121561177957600080fd5b823561178481611700565b9150602083013561ffff8116811461179b57600080fd5b809150509250929050565b600060208083528351808285015260005b818110156117d3578581018301518582016040015282016117b7565b5060006040828601015260407fffffffffffffffffffffffffffffffffffffffffffffffffffffffffffffffe0601f8301168501019250505092915050565b80518015158114610f9b57600080fd5b6000806040838503121561183557600080fd5b825160ff8116811461184657600080fd5b915061185460208401611812565b90509250929050565b60006020828403121561186f57600080fd5b5051919050565b7f4e487b7100000000000000000000000000000000000000000000000000000000600052601160045260246000fd5b63ffffffff8281168282160390808211156118c2576118c2611876565b5092915050565b7f4e487b7100000000000000000000000000000000000000000000000000000000600052601260045260246000fd5b600063ffffffff8084168061190f5761190f6118c9565b92169190910492915050565b600063ffffffff80841680611932576119326118c9565b92169190910692915050565b808202811582820484141761136757611367611876565b60ff818116838216019081111561136757611367611876565b600181815b808511156119c757817fffffffffffffffffffffffffffffffffffffffffffffffffffffffffffffffff048211156119ad576119ad611876565b808516156119ba57918102915b93841c9390800290611973565b509250929050565b6000826119de57506001611367565b816119eb57506000611367565b8160018114611a015760028114611a0b57611a27565b6001915050611367565b60ff841115611a1c57611a1c611876565b50506001821b611367565b5060208310610133831016604e8410600b8410161715611a4a575081810a611367565b611a54838361196e565b807fffffffffffffffffffffffffffffffffffffffffffffffffffffffffffffffff04821115611a8657611a86611876565b029392505050565b600061174260ff8416836119cf565b63ffffffff818116838216028082169190828114611abd57611abd611876565b505092915050565b600082611ad457611ad46118c9565b500490565b600060208284031215611aeb57600080fd5b6117428261181256fea2646970667358221220d757ecc823c4aebc3f91ef84fee760fb1499e24d411fc07709db98f738fe78dc64736f6c63430008130033",
			"opcodes": "PUSH1 0x80 PUSH1 0x40 MSTORE PUSH1 0x0 DUP1 SLOAD PUSH1 0xFF NOT AND SWAP1 SSTORE CALLVALUE DUP1 ISZERO PUSH2 0x1A JUMPI PUSH1 0x0 DUP1 REVERT JUMPDEST POP PUSH2 0x1B2A DUP1 PUSH2 0x2A PUSH1 0x0 CODECOPY PUSH1 0x0 RETURN INVALID PUSH1 0x80 PUSH1 0x40 MSTORE PUSH1 0x4 CALLDATASIZE LT PUSH2 0x69 JUMPI PUSH1 0x0 CALLDATALOAD PUSH1 0xE0 SHR DUP1 PUSH4 0x8052474D GT PUSH2 0x43 JUMPI DUP1 PUSH4 0x8052474D EQ PUSH2 0x345 JUMPI DUP1 PUSH4 0x91874E93 EQ PUSH2 0x39B JUMPI DUP1 PUSH4 0xE68A81C9 EQ PUSH2 0x3EC JUMPI PUSH2 0x267 JUMP JUMPDEST DUP1 PUSH4 0x9D30D6D EQ PUSH2 0x2DB JUMPI DUP1 PUSH4 0x52D6ABDC EQ PUSH2 0x305 JUMPI DUP1 PUSH4 0x66A320B5 EQ PUSH2 0x325 JUMPI PUSH2 0x267 JUMP JUMPDEST CALLDATASIZE PUSH2 0x267 JUMPI PUSH1 0x40 MLOAD PUSH32 0xC75FFD8600000000000000000000000000000000000000000000000000000000 DUP2 MSTORE PUSH1 0x20 PUSH1 0x4 DUP3 ADD MSTORE PUSH1 0x12 PUSH1 0x24 DUP3 ADD MSTORE PUSH32 0x2E436F72706F726174696F6E2E436C65726B0000000000000000000000000000 PUSH1 0x44 DUP3 ADD MSTORE CALLER SWAP1 PUSH20 0x163342FAE2BBE3303E5A9ADCE4BC9FB44D0FF062 SWAP1 PUSH4 0xC75FFD86 SWAP1 PUSH1 0x64 ADD PUSH1 0x20 PUSH1 0x40 MLOAD DUP1 DUP4 SUB DUP2 DUP7 GAS STATICCALL ISZERO DUP1 ISZERO PUSH2 0x106 JUMPI RETURNDATASIZE PUSH1 0x0 DUP1 RETURNDATACOPY RETURNDATASIZE PUSH1 0x0 REVERT JUMPDEST POP POP POP POP PUSH1 0x40 MLOAD RETURNDATASIZE PUSH1 0x1F NOT PUSH1 0x1F DUP3 ADD AND DUP3 ADD DUP1 PUSH1 0x40 MSTORE POP DUP2 ADD SWAP1 PUSH2 0x12A SWAP2 SWAP1 PUSH2 0x1725 JUMP JUMPDEST PUSH20 0xFFFFFFFFFFFFFFFFFFFFFFFFFFFFFFFFFFFFFFFF AND EQ PUSH2 0x265 JUMPI CALLVALUE ISZERO PUSH2 0x265 JUMPI PUSH1 0x40 MLOAD PUSH32 0xC75FFD8600000000000000000000000000000000000000000000000000000000 DUP2 MSTORE PUSH1 0x20 PUSH1 0x4 DUP3 ADD MSTORE PUSH1 0x12 PUSH1 0x24 DUP3 ADD MSTORE PUSH32 0x2E436F72706F726174696F6E2E5661756C740000000000000000000000000000 PUSH1 0x44 DUP3 ADD MSTORE PUSH20 0x163342FAE2BBE3303E5A9ADCE4BC9FB44D0FF062 SWAP1 PUSH4 0xC75FFD86 SWAP1 PUSH1 0x64 ADD PUSH1 0x20 PUSH1 0x40 MLOAD DUP1 DUP4 SUB DUP2 DUP7 GAS STATICCALL ISZERO DUP1 ISZERO PUSH2 0x1E1 JUMPI RETURNDATASIZE PUSH1 0x0 DUP1 RETURNDATACOPY RETURNDATASIZE PUSH1 0x0 REVERT JUMPDEST POP POP POP POP PUSH1 0x40 MLOAD RETURNDATASIZE PUSH1 0x1F NOT PUSH1 0x1F DUP3 ADD AND DUP3 ADD DUP1 PUSH1 0x40 MSTORE POP DUP2 ADD SWAP1 PUSH2 0x205 SWAP2 SWAP1 PUSH2 0x1725 JUMP JUMPDEST PUSH20 0xFFFFFFFFFFFFFFFFFFFFFFFFFFFFFFFFFFFFFFFF AND CALLVALUE PUSH1 0x40 MLOAD PUSH1 0x0 PUSH1 0x40 MLOAD DUP1 DUP4 SUB DUP2 DUP6 DUP8 GAS CALL SWAP3 POP POP POP RETURNDATASIZE DUP1 PUSH1 0x0 DUP2 EQ PUSH2 0x25C JUMPI PUSH1 0x40 MLOAD SWAP2 POP PUSH1 0x1F NOT PUSH1 0x3F RETURNDATASIZE ADD AND DUP3 ADD PUSH1 0x40 MSTORE RETURNDATASIZE DUP3 MSTORE RETURNDATASIZE PUSH1 0x0 PUSH1 0x20 DUP5 ADD RETURNDATACOPY PUSH2 0x261 JUMP JUMPDEST PUSH1 0x60 SWAP2 POP JUMPDEST POP POP POP JUMPDEST STOP JUMPDEST CALLVALUE DUP1 ISZERO PUSH2 0x273 JUMPI PUSH1 0x0 DUP1 REVERT JUMPDEST POP PUSH1 0x40 MLOAD PUSH32 0x8C379A000000000000000000000000000000000000000000000000000000000 DUP2 MSTORE PUSH1 0x20 PUSH1 0x4 DUP3 ADD MSTORE PUSH1 0x1B PUSH1 0x24 DUP3 ADD MSTORE PUSH32 0x456D706C6F796565732066616C6C6261636B2072657665727465640000000000 PUSH1 0x44 DUP3 ADD MSTORE PUSH1 0x64 ADD JUMPDEST PUSH1 0x40 MLOAD DUP1 SWAP2 SUB SWAP1 REVERT JUMPDEST CALLVALUE DUP1 ISZERO PUSH2 0x2E7 JUMPI PUSH1 0x0 DUP1 REVERT JUMPDEST POP PUSH2 0x2F0 PUSH2 0x40C JUMP JUMPDEST PUSH1 0x40 MLOAD SWAP1 ISZERO ISZERO DUP2 MSTORE PUSH1 0x20 ADD JUMPDEST PUSH1 0x40 MLOAD DUP1 SWAP2 SUB SWAP1 RETURN JUMPDEST CALLVALUE DUP1 ISZERO PUSH2 0x311 JUMPI PUSH1 0x0 DUP1 REVERT JUMPDEST POP PUSH2 0x2F0 PUSH2 0x320 CALLDATASIZE PUSH1 0x4 PUSH2 0x1749 JUMP JUMPDEST PUSH2 0xD69 JUMP JUMPDEST CALLVALUE DUP1 ISZERO PUSH2 0x331 JUMPI PUSH1 0x0 DUP1 REVERT JUMPDEST POP PUSH2 0x2F0 PUSH2 0x340 CALLDATASIZE PUSH1 0x4 PUSH2 0x1766 JUMP JUMPDEST PUSH2 0xFA0 JUMP JUMPDEST CALLVALUE DUP1 ISZERO PUSH2 0x351 JUMPI PUSH1 0x0 DUP1 REVERT JUMPDEST POP PUSH2 0x38E PUSH1 0x40 MLOAD DUP1 PUSH1 0x40 ADD PUSH1 0x40 MSTORE DUP1 PUSH1 0x16 DUP2 MSTORE PUSH1 0x20 ADD PUSH32 0x2E436F72706F726174696F6E2E456D706C6F7965657300000000000000000000 DUP2 MSTORE POP DUP2 JUMP JUMPDEST PUSH1 0x40 MLOAD PUSH2 0x2FC SWAP2 SWAP1 PUSH2 0x17A6 JUMP JUMPDEST CALLVALUE DUP1 ISZERO PUSH2 0x3A7 JUMPI PUSH1 0x0 DUP1 REVERT JUMPDEST POP PUSH2 0x3BB PUSH2 0x3B6 CALLDATASIZE PUSH1 0x4 PUSH2 0x1749 JUMP JUMPDEST PUSH2 0x136D JUMP JUMPDEST PUSH1 0x40 DUP1 MLOAD PUSH2 0xFFFF SWAP6 SWAP1 SWAP6 AND DUP6 MSTORE PUSH4 0xFFFFFFFF SWAP4 DUP5 AND PUSH1 0x20 DUP7 ADD MSTORE SWAP2 SWAP1 SWAP3 AND SWAP1 DUP4 ADD MSTORE ISZERO ISZERO PUSH1 0x60 DUP3 ADD MSTORE PUSH1 0x80 ADD PUSH2 0x2FC JUMP JUMPDEST CALLVALUE DUP1 ISZERO PUSH2 0x3F8 JUMPI PUSH1 0x0 DUP1 REVERT JUMPDEST POP PUSH2 0x2F0 PUSH2 0x407 CALLDATASIZE PUSH1 0x4 PUSH2 0x1766 JUMP JUMPDEST PUSH2 0x1455 JUMP JUMPDEST PUSH1 0x0 DUP1 SLOAD PUSH1 0xFF AND ISZERO ISZERO PUSH1 0x1 SUB PUSH2 0x47E JUMPI PUSH1 0x40 MLOAD PUSH32 0x8C379A000000000000000000000000000000000000000000000000000000000 DUP2 MSTORE PUSH1 0x20 PUSH1 0x4 DUP3 ADD MSTORE PUSH1 0x11 PUSH1 0x24 DUP3 ADD MSTORE PUSH32 0x5265656E7472616E6365206661696C6564000000000000000000000000000000 PUSH1 0x44 DUP3 ADD MSTORE PUSH1 0x64 ADD PUSH2 0x2D2 JUMP JUMPDEST PUSH1 0x0 DUP1 SLOAD PUSH32 0xFFFFFFFFFFFFFFFFFFFFFFFFFFFFFFFFFFFFFFFFFFFFFFFFFFFFFFFFFFFFFF00 AND PUSH1 0x1 OR DUP2 SSTORE PUSH1 0x40 MLOAD PUSH32 0xC75FFD8600000000000000000000000000000000000000000000000000000000 DUP2 MSTORE PUSH1 0x20 PUSH1 0x4 DUP3 ADD MSTORE PUSH1 0x13 PUSH1 0x24 DUP3 ADD MSTORE PUSH32 0x2E436F72706F726174696F6E2E4F7261636C6500000000000000000000000000 PUSH1 0x44 DUP3 ADD MSTORE PUSH20 0x163342FAE2BBE3303E5A9ADCE4BC9FB44D0FF062 SWAP1 PUSH4 0xC75FFD86 SWAP1 PUSH1 0x64 ADD PUSH1 0x20 PUSH1 0x40 MLOAD DUP1 DUP4 SUB DUP2 DUP7 GAS STATICCALL ISZERO DUP1 ISZERO PUSH2 0x53F JUMPI RETURNDATASIZE PUSH1 0x0 DUP1 RETURNDATACOPY RETURNDATASIZE PUSH1 0x0 REVERT JUMPDEST POP POP POP POP PUSH1 0x40 MLOAD RETURNDATASIZE PUSH1 0x1F NOT PUSH1 0x1F DUP3 ADD AND DUP3 ADD DUP1 PUSH1 0x40 MSTORE POP DUP2 ADD SWAP1 PUSH2 0x563 SWAP2 SWAP1 PUSH2 0x1725 JUMP JUMPDEST PUSH1 0x40 MLOAD PUSH32 0xC75FFD8600000000000000000000000000000000000000000000000000000000 DUP2 MSTORE PUSH1 0x20 PUSH1 0x4 DUP3 ADD MSTORE PUSH1 0x12 PUSH1 0x24 DUP3 ADD MSTORE PUSH32 0x2E436F72706F726174696F6E2E436C65726B0000000000000000000000000000 PUSH1 0x44 DUP3 ADD MSTORE SWAP1 SWAP2 POP PUSH1 0x0 SWAP1 PUSH20 0x163342FAE2BBE3303E5A9ADCE4BC9FB44D0FF062 SWAP1 PUSH4 0xC75FFD86 SWAP1 PUSH1 0x64 ADD PUSH1 0x20 PUSH1 0x40 MLOAD DUP1 DUP4 SUB DUP2 DUP7 GAS STATICCALL ISZERO DUP1 ISZERO PUSH2 0x5FF JUMPI RETURNDATASIZE PUSH1 0x0 DUP1 RETURNDATACOPY RETURNDATASIZE PUSH1 0x0 REVERT JUMPDEST POP POP POP POP PUSH1 0x40 MLOAD RETURNDATASIZE PUSH1 0x1F NOT PUSH1 0x1F DUP3 ADD AND DUP3 ADD DUP1 PUSH1 0x40 MSTORE POP DUP2 ADD SWAP1 PUSH2 0x623 SWAP2 SWAP1 PUSH2 0x1725 JUMP JUMPDEST CALLER PUSH1 0x0 SWAP1 DUP2 MSTORE PUSH1 0x1 PUSH1 0x20 MSTORE PUSH1 0x40 DUP2 KECCAK256 DUP1 SLOAD SWAP3 SWAP4 POP SWAP2 PUSH4 0x1000000 SWAP1 DIV PUSH4 0xFFFFFFFF AND SWAP1 SUB PUSH2 0x6AD JUMPI PUSH1 0x40 MLOAD PUSH32 0x8C379A000000000000000000000000000000000000000000000000000000000 DUP2 MSTORE PUSH1 0x20 PUSH1 0x4 DUP3 ADD MSTORE PUSH1 0xD PUSH1 0x24 DUP3 ADD MSTORE PUSH32 0x456D706C6F796565206F6E6C7900000000000000000000000000000000000000 PUSH1 0x44 DUP3 ADD MSTORE PUSH1 0x64 ADD PUSH2 0x2D2 JUMP JUMPDEST PUSH1 0x0 DUP1 DUP5 PUSH20 0xFFFFFFFFFFFFFFFFFFFFFFFFFFFFFFFFFFFFFFFF AND PUSH4 0x16F0A386 PUSH1 0x40 MLOAD DUP2 PUSH4 0xFFFFFFFF AND PUSH1 0xE0 SHL DUP2 MSTORE PUSH1 0x4 ADD PUSH1 0x40 DUP1 MLOAD DUP1 DUP4 SUB DUP2 DUP7 GAS STATICCALL ISZERO DUP1 ISZERO PUSH2 0x6FA JUMPI RETURNDATASIZE PUSH1 0x0 DUP1 RETURNDATACOPY RETURNDATASIZE PUSH1 0x0 REVERT JUMPDEST POP POP POP POP PUSH1 0x40 MLOAD RETURNDATASIZE PUSH1 0x1F NOT PUSH1 0x1F DUP3 ADD AND DUP3 ADD DUP1 PUSH1 0x40 MSTORE POP DUP2 ADD SWAP1 PUSH2 0x71E SWAP2 SWAP1 PUSH2 0x1822 JUMP JUMPDEST SWAP1 SWAP3 POP SWAP1 POP PUSH1 0x1 DUP2 ISZERO ISZERO EQ PUSH2 0x78F JUMPI PUSH1 0x40 MLOAD PUSH32 0x8C379A000000000000000000000000000000000000000000000000000000000 DUP2 MSTORE PUSH1 0x20 PUSH1 0x4 DUP3 ADD MSTORE PUSH1 0x12 PUSH1 0x24 DUP3 ADD MSTORE PUSH32 0x4F7261636C6520756E726561636861626C650000000000000000000000000000 PUSH1 0x44 DUP3 ADD MSTORE PUSH1 0x64 ADD PUSH2 0x2D2 JUMP JUMPDEST PUSH1 0x0 DUP6 PUSH20 0xFFFFFFFFFFFFFFFFFFFFFFFFFFFFFFFFFFFFFFFF AND PUSH4 0xF9A4BBBE PUSH1 0x40 MLOAD DUP2 PUSH4 0xFFFFFFFF AND PUSH1 0xE0 SHL DUP2 MSTORE PUSH1 0x4 ADD PUSH1 0x20 PUSH1 0x40 MLOAD DUP1 DUP4 SUB DUP2 DUP7 GAS STATICCALL ISZERO DUP1 ISZERO PUSH2 0x7DC JUMPI RETURNDATASIZE PUSH1 0x0 DUP1 RETURNDATACOPY RETURNDATASIZE PUSH1 0x0 REVERT JUMPDEST POP POP POP POP PUSH1 0x40 MLOAD RETURNDATASIZE PUSH1 0x1F NOT PUSH1 0x1F DUP3 ADD AND DUP3 ADD DUP1 PUSH1 0x40 MSTORE POP DUP2 ADD SWAP1 PUSH2 0x800 SWAP2 SWAP1 PUSH2 0x185D JUMP JUMPDEST SWAP1 POP PUSH1 0x0 DUP2 GT PUSH2 0x86C JUMPI PUSH1 0x40 MLOAD PUSH32 0x8C379A000000000000000000000000000000000000000000000000000000000 DUP2 MSTORE PUSH1 0x20 PUSH1 0x4 DUP3 ADD MSTORE PUSH1 0x17 PUSH1 0x24 DUP3 ADD MSTORE PUSH32 0x556E6163636570746564204F7261636C65207072696365000000000000000000 PUSH1 0x44 DUP3 ADD MSTORE PUSH1 0x64 ADD PUSH2 0x2D2 JUMP JUMPDEST DUP4 SLOAD PUSH1 0xFF AND ISZERO ISZERO PUSH1 0x1 SUB PUSH2 0xB2A JUMPI DUP4 SLOAD TIMESTAMP SWAP1 PUSH1 0x0 SWAP1 PUSH3 0x15180 SWAP1 PUSH2 0x89D SWAP1 PUSH4 0x1000000 SWAP1 DIV PUSH4 0xFFFFFFFF AND DUP5 PUSH2 0x18A5 JUMP JUMPDEST PUSH2 0x8A7 SWAP2 SWAP1 PUSH2 0x18F8 JUMP JUMPDEST DUP7 SLOAD SWAP1 SWAP2 POP PUSH1 0x0 SWAP1 PUSH3 0x15180 SWAP1 PUSH2 0x8CB SWAP1 PUSH4 0x1000000 SWAP1 DIV PUSH4 0xFFFFFFFF AND DUP6 PUSH2 0x18A5 JUMP JUMPDEST PUSH2 0x8D5 SWAP2 SWAP1 PUSH2 0x191B JUMP JUMPDEST SWAP1 POP PUSH1 0x0 PUSH2 0x8E4 DUP6 PUSH1 0x64 PUSH2 0x193E JUMP JUMPDEST PUSH2 0x8EF DUP9 PUSH1 0x12 PUSH2 0x1955 JUMP JUMPDEST PUSH2 0x8FA SWAP1 PUSH1 0xA PUSH2 0x1A8E JUMP JUMPDEST DUP10 SLOAD PUSH2 0x90F SWAP1 PUSH2 0x100 SWAP1 DIV PUSH2 0xFFFF AND DUP7 PUSH2 0x1A9D JUMP JUMPDEST PUSH4 0xFFFFFFFF AND PUSH2 0x91F SWAP2 SWAP1 PUSH2 0x193E JUMP JUMPDEST PUSH2 0x929 SWAP2 SWAP1 PUSH2 0x1AC5 JUMP JUMPDEST SWAP1 POP PUSH2 0x935 DUP3 DUP6 PUSH2 0x18A5 JUMP JUMPDEST DUP9 SLOAD PUSH4 0xFFFFFFFF SWAP2 SWAP1 SWAP2 AND PUSH4 0x1000000 MUL PUSH32 0xFFFFFFFFFFFFFFFFFFFFFFFFFFFFFFFFFFFFFFFFFFFFFFFFFF00000000FFFFFF SWAP1 SWAP2 AND OR DUP9 SSTORE PUSH1 0x0 DUP2 SWAP1 SUB PUSH2 0x9D8 JUMPI PUSH1 0x40 MLOAD PUSH32 0x8C379A000000000000000000000000000000000000000000000000000000000 DUP2 MSTORE PUSH1 0x20 PUSH1 0x4 DUP3 ADD MSTORE PUSH1 0xC PUSH1 0x24 DUP3 ADD MSTORE PUSH32 0x416C726561647920706169640000000000000000000000000000000000000000 PUSH1 0x44 DUP3 ADD MSTORE PUSH1 0x64 ADD PUSH2 0x2D2 JUMP JUMPDEST PUSH1 0x40 MLOAD PUSH32 0x5112766000000000000000000000000000000000000000000000000000000000 DUP2 MSTORE CALLER PUSH1 0x4 DUP3 ADD MSTORE PUSH1 0x24 DUP2 ADD DUP3 SWAP1 MSTORE PUSH20 0xFFFFFFFFFFFFFFFFFFFFFFFFFFFFFFFFFFFFFFFF DUP11 AND SWAP1 PUSH4 0x51127660 SWAP1 PUSH1 0x44 ADD PUSH1 0x20 PUSH1 0x40 MLOAD DUP1 DUP4 SUB DUP2 PUSH1 0x0 DUP8 GAS CALL SWAP3 POP POP POP DUP1 ISZERO PUSH2 0xA85 JUMPI POP PUSH1 0x40 DUP1 MLOAD PUSH1 0x1F RETURNDATASIZE SWAP1 DUP2 ADD PUSH32 0xFFFFFFFFFFFFFFFFFFFFFFFFFFFFFFFFFFFFFFFFFFFFFFFFFFFFFFFFFFFFFFE0 AND DUP3 ADD SWAP1 SWAP3 MSTORE PUSH2 0xA82 SWAP2 DUP2 ADD SWAP1 PUSH2 0x1AD9 JUMP JUMPDEST PUSH1 0x1 JUMPDEST PUSH2 0xAEB JUMPI PUSH1 0x40 MLOAD PUSH32 0x8C379A000000000000000000000000000000000000000000000000000000000 DUP2 MSTORE PUSH1 0x20 PUSH1 0x4 DUP3 ADD MSTORE PUSH1 0xD PUSH1 0x24 DUP3 ADD MSTORE PUSH32 0x5061796F6666206661696C656400000000000000000000000000000000000000 PUSH1 0x44 DUP3 ADD MSTORE PUSH1 0x64 ADD PUSH2 0x2D2 JUMP JUMPDEST POP PUSH1 0x40 MLOAD DUP2 DUP2 MSTORE CALLER SWAP1 PUSH32 0x5AFECA38B2064C23A692C4CF353015D80AB3ECC417B4F893F372690C11FBD9A6 SWAP1 PUSH1 0x20 ADD PUSH1 0x40 MLOAD DUP1 SWAP2 SUB SWAP1 LOG2 POP POP POP POP PUSH2 0xD34 JUMP JUMPDEST DUP4 SLOAD PUSH4 0xFFFFFFFF PUSH8 0x100000000000000 DUP3 DIV DUP2 AND SWAP2 PUSH1 0x0 SWAP2 PUSH3 0x15180 SWAP2 PUSH2 0xB5A SWAP2 PUSH4 0x1000000 SWAP1 SWAP2 DIV AND DUP5 PUSH2 0x18A5 JUMP JUMPDEST PUSH2 0xB64 SWAP2 SWAP1 PUSH2 0x18F8 JUMP JUMPDEST SWAP1 POP PUSH1 0x0 PUSH2 0xB73 DUP5 PUSH1 0x64 PUSH2 0x193E JUMP JUMPDEST PUSH2 0xB7E DUP8 PUSH1 0x12 PUSH2 0x1955 JUMP JUMPDEST PUSH2 0xB89 SWAP1 PUSH1 0xA PUSH2 0x1A8E JUMP JUMPDEST DUP9 SLOAD PUSH2 0xB9E SWAP1 PUSH2 0x100 SWAP1 DIV PUSH2 0xFFFF AND DUP6 PUSH2 0x1A9D JUMP JUMPDEST PUSH4 0xFFFFFFFF AND PUSH2 0xBAE SWAP2 SWAP1 PUSH2 0x193E JUMP JUMPDEST PUSH2 0xBB8 SWAP2 SWAP1 PUSH2 0x1AC5 JUMP JUMPDEST DUP8 SLOAD PUSH32 0xFFFFFFFFFFFFFFFFFFFFFFFFFFFFFFFFFFFFFFFFFF00000000000000000000FF AND DUP9 SSTORE SWAP1 POP DUP1 ISZERO PUSH2 0xD30 JUMPI PUSH1 0x40 MLOAD PUSH32 0x5112766000000000000000000000000000000000000000000000000000000000 DUP2 MSTORE CALLER PUSH1 0x4 DUP3 ADD MSTORE PUSH1 0x24 DUP2 ADD DUP3 SWAP1 MSTORE PUSH20 0xFFFFFFFFFFFFFFFFFFFFFFFFFFFFFFFFFFFFFFFF DUP10 AND SWAP1 PUSH4 0x51127660 SWAP1 PUSH1 0x44 ADD PUSH1 0x20 PUSH1 0x40 MLOAD DUP1 DUP4 SUB DUP2 PUSH1 0x0 DUP8 GAS CALL SWAP3 POP POP POP DUP1 ISZERO PUSH2 0xC93 JUMPI POP PUSH1 0x40 DUP1 MLOAD PUSH1 0x1F RETURNDATASIZE SWAP1 DUP2 ADD PUSH32 0xFFFFFFFFFFFFFFFFFFFFFFFFFFFFFFFFFFFFFFFFFFFFFFFFFFFFFFFFFFFFFFE0 AND DUP3 ADD SWAP1 SWAP3 MSTORE PUSH2 0xC90 SWAP2 DUP2 ADD SWAP1 PUSH2 0x1AD9 JUMP JUMPDEST PUSH1 0x1 JUMPDEST PUSH2 0xCF9 JUMPI PUSH1 0x40 MLOAD PUSH32 0x8C379A000000000000000000000000000000000000000000000000000000000 DUP2 MSTORE PUSH1 0x20 PUSH1 0x4 DUP3 ADD MSTORE PUSH1 0xD PUSH1 0x24 DUP3 ADD MSTORE PUSH32 0x5061796F6666206661696C656400000000000000000000000000000000000000 PUSH1 0x44 DUP3 ADD MSTORE PUSH1 0x64 ADD PUSH2 0x2D2 JUMP JUMPDEST POP PUSH1 0x40 MLOAD DUP2 DUP2 MSTORE CALLER SWAP1 PUSH32 0x5AFECA38B2064C23A692C4CF353015D80AB3ECC417B4F893F372690C11FBD9A6 SWAP1 PUSH1 0x20 ADD PUSH1 0x40 MLOAD DUP1 SWAP2 SUB SWAP1 LOG2 JUMPDEST POP POP POP JUMPDEST POP POP PUSH1 0x0 DUP1 SLOAD PUSH32 0xFFFFFFFFFFFFFFFFFFFFFFFFFFFFFFFFFFFFFFFFFFFFFFFFFFFFFFFFFFFFFF00 AND SWAP1 SSTORE POP PUSH1 0x1 SWAP5 SWAP4 POP POP POP POP JUMP JUMPDEST PUSH1 0x0 CALLER PUSH20 0xFFFFFFFFFFFFFFFFFFFFFFFFFFFFFFFFFFFFFFFF AND PUSH20 0x163342FAE2BBE3303E5A9ADCE4BC9FB44D0FF062 PUSH20 0xFFFFFFFFFFFFFFFFFFFFFFFFFFFFFFFFFFFFFFFF AND PUSH4 0xB4A99A4E PUSH1 0x40 MLOAD DUP2 PUSH4 0xFFFFFFFF AND PUSH1 0xE0 SHL DUP2 MSTORE PUSH1 0x4 ADD PUSH1 0x20 PUSH1 0x40 MLOAD DUP1 DUP4 SUB DUP2 DUP7 GAS STATICCALL ISZERO DUP1 ISZERO PUSH2 0xDE1 JUMPI RETURNDATASIZE PUSH1 0x0 DUP1 RETURNDATACOPY RETURNDATASIZE PUSH1 0x0 REVERT JUMPDEST POP POP POP POP PUSH1 0x40 MLOAD RETURNDATASIZE PUSH1 0x1F NOT PUSH1 0x1F DUP3 ADD AND DUP3 ADD DUP1 PUSH1 0x40 MSTORE POP DUP2 ADD SWAP1 PUSH2 0xE05 SWAP2 SWAP1 PUSH2 0x1725 JUMP JUMPDEST PUSH20 0xFFFFFFFFFFFFFFFFFFFFFFFFFFFFFFFFFFFFFFFF AND EQ PUSH2 0xE82 JUMPI PUSH1 0x40 MLOAD PUSH32 0x8C379A000000000000000000000000000000000000000000000000000000000 DUP2 MSTORE PUSH1 0x20 PUSH1 0x4 DUP3 ADD MSTORE PUSH1 0xA PUSH1 0x24 DUP3 ADD MSTORE PUSH32 0x4F776E6572206F6E6C7900000000000000000000000000000000000000000000 PUSH1 0x44 DUP3 ADD MSTORE PUSH1 0x64 ADD PUSH2 0x2D2 JUMP JUMPDEST PUSH20 0xFFFFFFFFFFFFFFFFFFFFFFFFFFFFFFFFFFFFFFFF DUP3 AND PUSH1 0x0 SWAP1 DUP2 MSTORE PUSH1 0x1 PUSH1 0x20 DUP2 SWAP1 MSTORE PUSH1 0x40 SWAP1 SWAP2 KECCAK256 DUP1 SLOAD SWAP1 SWAP2 PUSH1 0xFF SWAP1 SWAP2 AND ISZERO ISZERO EQ PUSH2 0xF1C JUMPI PUSH1 0x40 MLOAD PUSH32 0x8C379A000000000000000000000000000000000000000000000000000000000 DUP2 MSTORE PUSH1 0x20 PUSH1 0x4 DUP3 ADD MSTORE PUSH1 0xF PUSH1 0x24 DUP3 ADD MSTORE PUSH32 0x4E6F7420616E20656D706C6F7965650000000000000000000000000000000000 PUSH1 0x44 DUP3 ADD MSTORE PUSH1 0x64 ADD PUSH2 0x2D2 JUMP JUMPDEST DUP1 SLOAD PUSH32 0xFFFFFFFFFFFFFFFFFFFFFFFFFFFFFFFFFFFFFFFFFF00000000FFFFFFFFFFFF00 AND PUSH8 0x100000000000000 TIMESTAMP PUSH4 0xFFFFFFFF AND MUL OR DUP2 SSTORE PUSH1 0x40 MLOAD PUSH20 0xFFFFFFFFFFFFFFFFFFFFFFFFFFFFFFFFFFFFFFFF DUP5 AND SWAP1 PUSH32 0x4F8DD5393FD34D2F49290D092D4ACB088E011456E5D47B4BA6188CD81CA2887D SWAP1 PUSH1 0x0 SWAP1 LOG2 PUSH1 0x1 SWAP2 POP POP JUMPDEST SWAP2 SWAP1 POP JUMP JUMPDEST PUSH1 0x0 CALLER PUSH20 0xFFFFFFFFFFFFFFFFFFFFFFFFFFFFFFFFFFFFFFFF AND PUSH20 0x163342FAE2BBE3303E5A9ADCE4BC9FB44D0FF062 PUSH20 0xFFFFFFFFFFFFFFFFFFFFFFFFFFFFFFFFFFFFFFFF AND PUSH4 0xB4A99A4E PUSH1 0x40 MLOAD DUP2 PUSH4 0xFFFFFFFF AND PUSH1 0xE0 SHL DUP2 MSTORE PUSH1 0x4 ADD PUSH1 0x20 PUSH1 0x40 MLOAD DUP1 DUP4 SUB DUP2 DUP7 GAS STATICCALL ISZERO DUP1 ISZERO PUSH2 0x1018 JUMPI RETURNDATASIZE PUSH1 0x0 DUP1 RETURNDATACOPY RETURNDATASIZE PUSH1 0x0 REVERT JUMPDEST POP POP POP POP PUSH1 0x40 MLOAD RETURNDATASIZE PUSH1 0x1F NOT PUSH1 0x1F DUP3 ADD AND DUP3 ADD DUP1 PUSH1 0x40 MSTORE POP DUP2 ADD SWAP1 PUSH2 0x103C SWAP2 SWAP1 PUSH2 0x1725 JUMP JUMPDEST PUSH20 0xFFFFFFFFFFFFFFFFFFFFFFFFFFFFFFFFFFFFFFFF AND EQ PUSH2 0x10B9 JUMPI PUSH1 0x40 MLOAD PUSH32 0x8C379A000000000000000000000000000000000000000000000000000000000 DUP2 MSTORE PUSH1 0x20 PUSH1 0x4 DUP3 ADD MSTORE PUSH1 0xA PUSH1 0x24 DUP3 ADD MSTORE PUSH32 0x4F776E6572206F6E6C7900000000000000000000000000000000000000000000 PUSH1 0x44 DUP3 ADD MSTORE PUSH1 0x64 ADD PUSH2 0x2D2 JUMP JUMPDEST PUSH20 0xFFFFFFFFFFFFFFFFFFFFFFFFFFFFFFFFFFFFFFFF DUP4 AND PUSH1 0x0 SWAP1 DUP2 MSTORE PUSH1 0x1 PUSH1 0x20 DUP2 SWAP1 MSTORE PUSH1 0x40 SWAP1 SWAP2 KECCAK256 DUP1 SLOAD SWAP1 SWAP2 PUSH1 0xFF SWAP1 SWAP2 AND ISZERO ISZERO SWAP1 SUB PUSH2 0x1154 JUMPI PUSH1 0x40 MLOAD PUSH32 0x8C379A000000000000000000000000000000000000000000000000000000000 DUP2 MSTORE PUSH1 0x20 PUSH1 0x4 DUP3 ADD MSTORE PUSH1 0x11 PUSH1 0x24 DUP3 ADD MSTORE PUSH32 0x416C726561647920656D706C6F79656564000000000000000000000000000000 PUSH1 0x44 DUP3 ADD MSTORE PUSH1 0x64 ADD PUSH2 0x2D2 JUMP JUMPDEST DUP1 SLOAD PUSH8 0x100000000000000 SWAP1 DIV PUSH4 0xFFFFFFFF AND ISZERO PUSH2 0x11CE JUMPI PUSH1 0x40 MLOAD PUSH32 0x8C379A000000000000000000000000000000000000000000000000000000000 DUP2 MSTORE PUSH1 0x20 PUSH1 0x4 DUP3 ADD MSTORE PUSH1 0xE PUSH1 0x24 DUP3 ADD MSTORE PUSH32 0x5061796F66662070656E64696E67000000000000000000000000000000000000 PUSH1 0x44 DUP3 ADD MSTORE PUSH1 0x64 ADD PUSH2 0x2D2 JUMP JUMPDEST DUP4 EXTCODESIZE PUSH4 0xFFFFFFFF DUP2 AND ISZERO PUSH2 0x123E JUMPI PUSH1 0x40 MLOAD PUSH32 0x8C379A000000000000000000000000000000000000000000000000000000000 DUP2 MSTORE PUSH1 0x20 PUSH1 0x4 DUP3 ADD MSTORE PUSH1 0x14 PUSH1 0x24 DUP3 ADD MSTORE PUSH32 0x456D706C6F79656520697320636F6E7472616374000000000000000000000000 PUSH1 0x44 DUP3 ADD MSTORE PUSH1 0x64 ADD PUSH2 0x2D2 JUMP JUMPDEST DUP4 PUSH2 0xFFFF AND PUSH1 0x0 SUB PUSH2 0x12AC JUMPI PUSH1 0x40 MLOAD PUSH32 0x8C379A000000000000000000000000000000000000000000000000000000000 DUP2 MSTORE PUSH1 0x20 PUSH1 0x4 DUP3 ADD MSTORE PUSH1 0x9 PUSH1 0x24 DUP3 ADD MSTORE PUSH32 0x5A65726F20776167650000000000000000000000000000000000000000000000 PUSH1 0x44 DUP3 ADD MSTORE PUSH1 0x64 ADD PUSH2 0x2D2 JUMP JUMPDEST DUP2 SLOAD PUSH4 0xFFFFFFFF TIMESTAMP AND PUSH4 0x1000000 MUL PUSH32 0xFFFFFFFFFFFFFFFFFFFFFFFFFFFFFFFFFFFFFFFFFFFFFFFFFF00000000FFFFFF PUSH2 0xFFFF DUP8 AND PUSH2 0x100 DUP2 MUL PUSH32 0xFFFFFFFFFFFFFFFFFFFFFFFFFFFFFFFFFFFFFFFFFFFFFFFFFFFFFFFFFF000000 SWAP1 SWAP5 AND SWAP4 SWAP1 SWAP4 OR PUSH1 0x1 OR AND OR DUP4 SSTORE PUSH1 0x40 MLOAD SWAP1 DUP2 MSTORE PUSH20 0xFFFFFFFFFFFFFFFFFFFFFFFFFFFFFFFFFFFFFFFF DUP7 AND SWAP1 PUSH32 0xCCE11E3D6F477D5366660C25BC52487E09546E4F633512A0B70AFE53CAD75888 SWAP1 PUSH1 0x20 ADD PUSH1 0x40 MLOAD DUP1 SWAP2 SUB SWAP1 LOG2 PUSH1 0x1 SWAP3 POP POP POP JUMPDEST SWAP3 SWAP2 POP POP JUMP JUMPDEST PUSH20 0xFFFFFFFFFFFFFFFFFFFFFFFFFFFFFFFFFFFFFFFF DUP2 AND PUSH1 0x0 DUP2 DUP2 MSTORE PUSH1 0x1 PUSH1 0x20 DUP2 DUP2 MSTORE PUSH1 0x40 DUP1 DUP5 KECCAK256 DUP2 MLOAD PUSH1 0x80 DUP2 ADD DUP4 MSTORE SWAP1 SLOAD PUSH1 0xFF DUP2 AND ISZERO ISZERO DUP3 MSTORE PUSH2 0xFFFF PUSH2 0x100 DUP3 DIV AND DUP3 DUP6 ADD DUP2 SWAP1 MSTORE PUSH4 0xFFFFFFFF PUSH4 0x1000000 DUP4 DIV DUP2 AND SWAP5 DUP5 ADD DUP6 SWAP1 MSTORE PUSH8 0x100000000000000 SWAP1 SWAP3 DIV SWAP1 SWAP2 AND PUSH1 0x60 DUP4 ADD MSTORE SWAP6 DUP6 MSTORE SWAP3 SWAP1 SWAP2 MSTORE DUP3 SWAP2 DUP3 SWAP2 PUSH2 0x13F4 JUMPI PUSH1 0x0 PUSH2 0x1440 JUMP JUMPDEST PUSH20 0xFFFFFFFFFFFFFFFFFFFFFFFFFFFFFFFFFFFFFFFF DUP7 AND PUSH1 0x0 SWAP1 DUP2 MSTORE PUSH1 0x1 PUSH1 0x20 MSTORE PUSH1 0x40 SWAP1 KECCAK256 SLOAD PUSH3 0x15180 SWAP1 PUSH2 0x1436 SWAP1 PUSH4 0x1000000 SWAP1 DIV PUSH4 0xFFFFFFFF AND TIMESTAMP PUSH2 0x18A5 JUMP JUMPDEST PUSH2 0x1440 SWAP2 SWAP1 PUSH2 0x18F8 JUMP JUMPDEST PUSH1 0x40 DUP3 ADD MLOAD SWAP2 MLOAD SWAP6 SWAP8 SWAP1 SWAP7 POP SWAP1 SWAP5 SWAP4 POP SWAP2 POP POP JUMP JUMPDEST PUSH1 0x0 CALLER PUSH20 0xFFFFFFFFFFFFFFFFFFFFFFFFFFFFFFFFFFFFFFFF AND PUSH20 0x163342FAE2BBE3303E5A9ADCE4BC9FB44D0FF062 PUSH20 0xFFFFFFFFFFFFFFFFFFFFFFFFFFFFFFFFFFFFFFFF AND PUSH4 0xB4A99A4E PUSH1 0x40 MLOAD DUP2 PUSH4 0xFFFFFFFF AND PUSH1 0xE0 SHL DUP2 MSTORE PUSH1 0x4 ADD PUSH1 0x20 PUSH1 0x40 MLOAD DUP1 DUP4 SUB DUP2 DUP7 GAS STATICCALL ISZERO DUP1 ISZERO PUSH2 0x14CD JUMPI RETURNDATASIZE PUSH1 0x0 DUP1 RETURNDATACOPY RETURNDATASIZE PUSH1 0x0 REVERT JUMPDEST POP POP POP POP PUSH1 0x40 MLOAD RETURNDATASIZE PUSH1 0x1F NOT PUSH1 0x1F DUP3 ADD AND DUP3 ADD DUP1 PUSH1 0x40 MSTORE POP DUP2 ADD SWAP1 PUSH2 0x14F1 SWAP2 SWAP1 PUSH2 0x1725 JUMP JUMPDEST PUSH20 0xFFFFFFFFFFFFFFFFFFFFFFFFFFFFFFFFFFFFFFFF AND EQ PUSH2 0x156E JUMPI PUSH1 0x40 MLOAD PUSH32 0x8C379A000000000000000000000000000000000000000000000000000000000 DUP2 MSTORE PUSH1 0x20 PUSH1 0x4 DUP3 ADD MSTORE PUSH1 0xA PUSH1 0x24 DUP3 ADD MSTORE PUSH32 0x4F776E6572206F6E6C7900000000000000000000000000000000000000000000 PUSH1 0x44 DUP3 ADD MSTORE PUSH1 0x64 ADD PUSH2 0x2D2 JUMP JUMPDEST PUSH20 0xFFFFFFFFFFFFFFFFFFFFFFFFFFFFFFFFFFFFFFFF DUP4 AND PUSH1 0x0 SWAP1 DUP2 MSTORE PUSH1 0x1 PUSH1 0x20 DUP2 SWAP1 MSTORE PUSH1 0x40 SWAP1 SWAP2 KECCAK256 DUP1 SLOAD SWAP1 SWAP2 PUSH1 0xFF SWAP1 SWAP2 AND ISZERO ISZERO EQ PUSH2 0x1608 JUMPI PUSH1 0x40 MLOAD PUSH32 0x8C379A000000000000000000000000000000000000000000000000000000000 DUP2 MSTORE PUSH1 0x20 PUSH1 0x4 DUP3 ADD MSTORE PUSH1 0xF PUSH1 0x24 DUP3 ADD MSTORE PUSH32 0x4E6F7420616E20656D706C6F7965650000000000000000000000000000000000 PUSH1 0x44 DUP3 ADD MSTORE PUSH1 0x64 ADD PUSH2 0x2D2 JUMP JUMPDEST DUP3 PUSH2 0xFFFF AND PUSH1 0x0 SUB PUSH2 0x1676 JUMPI PUSH1 0x40 MLOAD PUSH32 0x8C379A000000000000000000000000000000000000000000000000000000000 DUP2 MSTORE PUSH1 0x20 PUSH1 0x4 DUP3 ADD MSTORE PUSH1 0x9 PUSH1 0x24 DUP3 ADD MSTORE PUSH32 0x5A65726F20776167650000000000000000000000000000000000000000000000 PUSH1 0x44 DUP3 ADD MSTORE PUSH1 0x64 ADD PUSH2 0x2D2 JUMP JUMPDEST DUP1 SLOAD PUSH32 0xFFFFFFFFFFFFFFFFFFFFFFFFFFFFFFFFFFFFFFFFFFFFFFFFFFFFFFFFFF0000FF AND PUSH2 0x100 PUSH2 0xFFFF DUP6 AND SWAP1 DUP2 MUL SWAP2 SWAP1 SWAP2 OR DUP3 SSTORE PUSH1 0x40 MLOAD SWAP1 DUP2 MSTORE PUSH20 0xFFFFFFFFFFFFFFFFFFFFFFFFFFFFFFFFFFFFFFFF DUP6 AND SWAP1 PUSH32 0xF1B941E2361086E5213D894077D063BF4E875ACDD8259232C63F368648D62CE1 SWAP1 PUSH1 0x20 ADD PUSH1 0x40 MLOAD DUP1 SWAP2 SUB SWAP1 LOG2 POP PUSH1 0x1 SWAP4 SWAP3 POP POP POP JUMP JUMPDEST PUSH20 0xFFFFFFFFFFFFFFFFFFFFFFFFFFFFFFFFFFFFFFFF DUP2 AND DUP2 EQ PUSH2 0x1722 JUMPI PUSH1 0x0 DUP1 REVERT JUMPDEST POP JUMP JUMPDEST PUSH1 0x0 PUSH1 0x20 DUP3 DUP5 SUB SLT ISZERO PUSH2 0x1737 JUMPI PUSH1 0x0 DUP1 REVERT JUMPDEST DUP2 MLOAD PUSH2 0x1742 DUP2 PUSH2 0x1700 JUMP JUMPDEST SWAP4 SWAP3 POP POP POP JUMP JUMPDEST PUSH1 0x0 PUSH1 0x20 DUP3 DUP5 SUB SLT ISZERO PUSH2 0x175B JUMPI PUSH1 0x0 DUP1 REVERT JUMPDEST DUP2 CALLDATALOAD PUSH2 0x1742 DUP2 PUSH2 0x1700 JUMP JUMPDEST PUSH1 0x0 DUP1 PUSH1 0x40 DUP4 DUP6 SUB SLT ISZERO PUSH2 0x1779 JUMPI PUSH1 0x0 DUP1 REVERT JUMPDEST DUP3 CALLDATALOAD PUSH2 0x1784 DUP2 PUSH2 0x1700 JUMP JUMPDEST SWAP2 POP PUSH1 0x20 DUP4 ADD CALLDATALOAD PUSH2 0xFFFF DUP2 AND DUP2 EQ PUSH2 0x179B JUMPI PUSH1 0x0 DUP1 REVERT JUMPDEST DUP1 SWAP2 POP POP SWAP3 POP SWAP3 SWAP1 POP JUMP JUMPDEST PUSH1 0x0 PUSH1 0x20 DUP1 DUP4 MSTORE DUP4 MLOAD DUP1 DUP3 DUP6 ADD MSTORE PUSH1 0x0 JUMPDEST DUP2 DUP2 LT ISZERO PUSH2 0x17D3 JUMPI DUP6 DUP2 ADD DUP4 ADD MLOAD DUP6 DUP3 ADD PUSH1 0x40 ADD MSTORE DUP3 ADD PUSH2 0x17B7 JUMP JUMPDEST POP PUSH1 0x0 PUSH1 0x40 DUP3 DUP7 ADD ADD MSTORE PUSH1 0x40 PUSH32 0xFFFFFFFFFFFFFFFFFFFFFFFFFFFFFFFFFFFFFFFFFFFFFFFFFFFFFFFFFFFFFFE0 PUSH1 0x1F DUP4 ADD AND DUP6 ADD ADD SWAP3 POP POP POP SWAP3 SWAP2 POP POP JUMP JUMPDEST DUP1 MLOAD DUP1 ISZERO ISZERO DUP2 EQ PUSH2 0xF9B JUMPI PUSH1 0x0 DUP1 REVERT JUMPDEST PUSH1 0x0 DUP1 PUSH1 0x40 DUP4 DUP6 SUB SLT ISZERO PUSH2 0x1835 JUMPI PUSH1 0x0 DUP1 REVERT JUMPDEST DUP3 MLOAD PUSH1 0xFF DUP2 AND DUP2 EQ PUSH2 0x1846 JUMPI PUSH1 0x0 DUP1 REVERT JUMPDEST SWAP2 POP PUSH2 0x1854 PUSH1 0x20 DUP5 ADD PUSH2 0x1812 JUMP JUMPDEST SWAP1 POP SWAP3 POP SWAP3 SWAP1 POP JUMP JUMPDEST PUSH1 0x0 PUSH1 0x20 DUP3 DUP5 SUB SLT ISZERO PUSH2 0x186F JUMPI PUSH1 0x0 DUP1 REVERT JUMPDEST POP MLOAD SWAP2 SWAP1 POP JUMP JUMPDEST PUSH32 0x4E487B7100000000000000000000000000000000000000000000000000000000 PUSH1 0x0 MSTORE PUSH1 0x11 PUSH1 0x4 MSTORE PUSH1 0x24 PUSH1 0x0 REVERT JUMPDEST PUSH4 0xFFFFFFFF DUP3 DUP2 AND DUP3 DUP3 AND SUB SWAP1 DUP1 DUP3 GT ISZERO PUSH2 0x18C2 JUMPI PUSH2 0x18C2 PUSH2 0x1876 JUMP JUMPDEST POP SWAP3 SWAP2 POP POP JUMP JUMPDEST PUSH32 0x4E487B7100000000000000000000000000000000000000000000000000000000 PUSH1 0x0 MSTORE PUSH1 0x12 PUSH1 0x4 MSTORE PUSH1 0x24 PUSH1 0x0 REVERT JUMPDEST PUSH1 0x0 PUSH4 0xFFFFFFFF DUP1 DUP5 AND DUP1 PUSH2 0x190F JUMPI PUSH2 0x190F PUSH2 0x18C9 JUMP JUMPDEST SWAP3 AND SWAP2 SWAP1 SWAP2 DIV SWAP3 SWAP2 POP POP JUMP JUMPDEST PUSH1 0x0 PUSH4 0xFFFFFFFF DUP1 DUP5 AND DUP1 PUSH2 0x1932 JUMPI PUSH2 0x1932 PUSH2 0x18C9 JUMP JUMPDEST SWAP3 AND SWAP2 SWAP1 SWAP2 MOD SWAP3 SWAP2 POP POP JUMP JUMPDEST DUP1 DUP3 MUL DUP2 ISZERO DUP3 DUP3 DIV DUP5 EQ OR PUSH2 0x1367 JUMPI PUSH2 0x1367 PUSH2 0x1876 JUMP JUMPDEST PUSH1 0xFF DUP2 DUP2 AND DUP4 DUP3 AND ADD SWAP1 DUP2 GT ISZERO PUSH2 0x1367 JUMPI PUSH2 0x1367 PUSH2 0x1876 JUMP JUMPDEST PUSH1 0x1 DUP2 DUP2 JUMPDEST DUP1 DUP6 GT ISZERO PUSH2 0x19C7 JUMPI DUP2 PUSH32 0xFFFFFFFFFFFFFFFFFFFFFFFFFFFFFFFFFFFFFFFFFFFFFFFFFFFFFFFFFFFFFFFF DIV DUP3 GT ISZERO PUSH2 0x19AD JUMPI PUSH2 0x19AD PUSH2 0x1876 JUMP JUMPDEST DUP1 DUP6 AND ISZERO PUSH2 0x19BA JUMPI SWAP2 DUP2 MUL SWAP2 JUMPDEST SWAP4 DUP5 SHR SWAP4 SWAP1 DUP1 MUL SWAP1 PUSH2 0x1973 JUMP JUMPDEST POP SWAP3 POP SWAP3 SWAP1 POP JUMP JUMPDEST PUSH1 0x0 DUP3 PUSH2 0x19DE JUMPI POP PUSH1 0x1 PUSH2 0x1367 JUMP JUMPDEST DUP2 PUSH2 0x19EB JUMPI POP PUSH1 0x0 PUSH2 0x1367 JUMP JUMPDEST DUP2 PUSH1 0x1 DUP2 EQ PUSH2 0x1A01 JUMPI PUSH1 0x2 DUP2 EQ PUSH2 0x1A0B JUMPI PUSH2 0x1A27 JUMP JUMPDEST PUSH1 0x1 SWAP2 POP POP PUSH2 0x1367 JUMP JUMPDEST PUSH1 0xFF DUP5 GT ISZERO PUSH2 0x1A1C JUMPI PUSH2 0x1A1C PUSH2 0x1876 JUMP JUMPDEST POP POP PUSH1 0x1 DUP3 SHL PUSH2 0x1367 JUMP JUMPDEST POP PUSH1 0x20 DUP4 LT PUSH2 0x133 DUP4 LT AND PUSH1 0x4E DUP5 LT PUSH1 0xB DUP5 LT AND OR ISZERO PUSH2 0x1A4A JUMPI POP DUP2 DUP2 EXP PUSH2 0x1367 JUMP JUMPDEST PUSH2 0x1A54 DUP4 DUP4 PUSH2 0x196E JUMP JUMPDEST DUP1 PUSH32 0xFFFFFFFFFFFFFFFFFFFFFFFFFFFFFFFFFFFFFFFFFFFFFFFFFFFFFFFFFFFFFFFF DIV DUP3 GT ISZERO PUSH2 0x1A86 JUMPI PUSH2 0x1A86 PUSH2 0x1876 JUMP JUMPDEST MUL SWAP4 SWAP3 POP POP POP JUMP JUMPDEST PUSH1 0x0 PUSH2 0x1742 PUSH1 0xFF DUP5 AND DUP4 PUSH2 0x19CF JUMP JUMPDEST PUSH4 0xFFFFFFFF DUP2 DUP2 AND DUP4 DUP3 AND MUL DUP1 DUP3 AND SWAP2 SWAP1 DUP3 DUP2 EQ PUSH2 0x1ABD JUMPI PUSH2 0x1ABD PUSH2 0x1876 JUMP JUMPDEST POP POP SWAP3 SWAP2 POP POP JUMP JUMPDEST PUSH1 0x0 DUP3 PUSH2 0x1AD4 JUMPI PUSH2 0x1AD4 PUSH2 0x18C9 JUMP JUMPDEST POP DIV SWAP1 JUMP JUMPDEST PUSH1 0x0 PUSH1 0x20 DUP3 DUP5 SUB SLT ISZERO PUSH2 0x1AEB JUMPI PUSH1 0x0 DUP1 REVERT JUMPDEST PUSH2 0x1742 DUP3 PUSH2 0x1812 JUMP INVALID LOG2 PUSH5 0x6970667358 0x22 SLT KECCAK256 0xD7 JUMPI 0xEC 0xC8 0x23 0xC4 0xAE 0xBC EXTCODEHASH SWAP2 0xEF DUP5 INVALID 0xE7 PUSH1 0xFB EQ SWAP10 0xE2 0x4D COINBASE 0x1F 0xC0 PUSH24 0x9DB98F738FE78DC64736F6C634300081300330000000000 "
		},
		"gasEstimates": {
			"creation": {
				"codeDepositCost": "1390800",
				"executionCost": "25669",
				"totalCost": "1416469"
			},
			"external": {
				"": "276",
				"AddEmployee(address,uint16)": "infinite",
				"EmployeeProfile(address)": "5289",
				"Name()": "infinite",
				"Payoff()": "infinite",
				"RemoveEmployee(address)": "infinite",
				"UpdateEmployee(address,uint16)": "infinite"
			}
		},
		"methodIdentifiers": {
			"AddEmployee(address,uint16)": "66a320b5",
			"EmployeeProfile(address)": "91874e93",
			"Name()": "8052474d",
			"Payoff()": "09d30d6d",
			"RemoveEmployee(address)": "52d6abdc",
			"UpdateEmployee(address,uint16)": "e68a81c9"
		}
	},
	"abi": [
		{
			"anonymous": false,
			"inputs": [
				{
					"indexed": true,
					"internalType": "address",
					"name": "employee",
					"type": "address"
				},
				{
					"indexed": false,
					"internalType": "uint256",
					"name": "dailyWage",
					"type": "uint256"
				}
			],
			"name": "EmployeeAddition",
			"type": "event"
		},
		{
			"anonymous": false,
			"inputs": [
				{
					"indexed": true,
					"internalType": "address",
					"name": "employee",
					"type": "address"
				}
			],
			"name": "EmployeeRemoval",
			"type": "event"
		},
		{
			"anonymous": false,
			"inputs": [
				{
					"indexed": true,
					"internalType": "address",
					"name": "employee",
					"type": "address"
				},
				{
					"indexed": false,
					"internalType": "uint256",
					"name": "dailyWage",
					"type": "uint256"
				}
			],
			"name": "EmployeeUpdate",
			"type": "event"
		},
		{
			"anonymous": false,
			"inputs": [
				{
					"indexed": true,
					"internalType": "address",
					"name": "employee",
					"type": "address"
				},
				{
					"indexed": false,
					"internalType": "uint256",
					"name": "amount",
					"type": "uint256"
				}
			],
			"name": "Payout",
			"type": "event"
		},
		{
			"stateMutability": "nonpayable",
			"type": "fallback"
		},
		{
			"inputs": [
				{
					"internalType": "address",
					"name": "_employee",
					"type": "address"
				},
				{
					"internalType": "uint16",
					"name": "_dailyWage",
					"type": "uint16"
				}
			],
			"name": "AddEmployee",
			"outputs": [
				{
					"internalType": "bool",
					"name": "",
					"type": "bool"
				}
			],
			"stateMutability": "nonpayable",
			"type": "function"
		},
		{
			"inputs": [
				{
					"internalType": "address",
					"name": "_employee",
					"type": "address"
				}
			],
			"name": "EmployeeProfile",
			"outputs": [
				{
					"internalType": "uint16",
					"name": "dailyWage",
					"type": "uint16"
				},
				{
					"internalType": "uint32",
					"name": "daysUnpaid",
					"type": "uint32"
				},
				{
					"internalType": "uint32",
					"name": "lastPayoff",
					"type": "uint32"
				},
				{
					"internalType": "bool",
					"name": "isEmployee",
					"type": "bool"
				}
			],
			"stateMutability": "view",
			"type": "function"
		},
		{
			"inputs": [],
			"name": "Name",
			"outputs": [
				{
					"internalType": "string",
					"name": "",
					"type": "string"
				}
			],
			"stateMutability": "view",
			"type": "function"
		},
		{
			"inputs": [],
			"name": "Payoff",
			"outputs": [
				{
					"internalType": "bool",
					"name": "",
					"type": "bool"
				}
			],
			"stateMutability": "nonpayable",
			"type": "function"
		},
		{
			"inputs": [
				{
					"internalType": "address",
					"name": "_employee",
					"type": "address"
				}
			],
			"name": "RemoveEmployee",
			"outputs": [
				{
					"internalType": "bool",
					"name": "",
					"type": "bool"
				}
			],
			"stateMutability": "nonpayable",
			"type": "function"
		},
		{
			"inputs": [
				{
					"internalType": "address",
					"name": "_employee",
					"type": "address"
				},
				{
					"internalType": "uint16",
					"name": "_dailyWage",
					"type": "uint16"
				}
			],
			"name": "UpdateEmployee",
			"outputs": [
				{
					"internalType": "bool",
					"name": "",
					"type": "bool"
				}
			],
			"stateMutability": "nonpayable",
			"type": "function"
		},
		{
			"stateMutability": "payable",
			"type": "receive"
		}
	]
}