{
	"data": {
		"bytecode": {
			"linkReferences": {},
			"object": "608060405234801561001057600080fd5b50610825806100206000396000f3fe6080604052600436106100385760003560e01c80636452c22d1461016b5780638052474d146101a2578063925849ad146101f85761015f565b3661015f57341561015d576040517fc75ffd8600000000000000000000000000000000000000000000000000000000815260206004820152601260248201527f2e436f72706f726174696f6e2e5661756c740000000000000000000000000000604482015273a00a1ed23a4cc11182db678a67fcdfb45fee1ff89063c75ffd8690606401602060405180830381865afa1580156100d9573d6000803e3d6000fd5b505050506040513d601f19601f820116820180604052508101906100fd91906106d6565b73ffffffffffffffffffffffffffffffffffffffff163460405160006040518083038185875af1925050503d8060008114610154576040519150601f19603f3d011682016040523d82523d6000602084013e610159565b606091505b5050505b005b34801561015d57600080fd5b34801561017757600080fd5b5061018b6101863660046106fa565b6102a5565b60405160ff90911681526020015b60405180910390f35b3480156101ae57600080fd5b506101eb6040518060400160405280601581526020017f2e5061796d656e742e496d706c656d656e746f7273000000000000000000000081525081565b6040516101999190610717565b34801561020457600080fd5b5061027f6102133660046106fa565b73ffffffffffffffffffffffffffffffffffffffff166000908152600260209081526040918290208251606081018452905463ffffffff80821680845264010000000083049091169383018490526801000000000000000090910460ff16919093018190529192909190565b6040805163ffffffff948516815293909216602084015260ff1690820152606001610199565b6040517fc75ffd8600000000000000000000000000000000000000000000000000000000815260206004820152601360248201527f2e5061796d656e742e50726f63636573736f72000000000000000000000000006044820152600090339073a00a1ed23a4cc11182db678a67fcdfb45fee1ff89063c75ffd8690606401602060405180830381865afa158015610340573d6000803e3d6000fd5b505050506040513d601f19601f8201168201806040525081019061036491906106d6565b73ffffffffffffffffffffffffffffffffffffffff16146103e5576040517f08c379a000000000000000000000000000000000000000000000000000000000815260206004820152600f60248201527f50726f63636573736f72206f6e6c790000000000000000000000000000000000604482015260640160405180910390fd5b73ffffffffffffffffffffffffffffffffffffffff82166000908152600260205260409020805463ffffffff42811664010000000090920416101561065f57805463ffffffff166161a781111561045657815468ff0000000000000000191668c800000000000000001782556105f1565b6130d38163ffffffff16111561048657815468ff00000000000000001916689600000000000000001782556105f1565b611d4b8163ffffffff1611156104b657815468ff00000000000000001916687d00000000000000001782556105f1565b6113878163ffffffff1611156104e657815468ff00000000000000001916686400000000000000001782556105f1565b6109c38163ffffffff16111561051657815468ff00000000000000001916685000000000000000001782556105f1565b6105db8163ffffffff16111561054657815468ff00000000000000001916683c00000000000000001782556105f1565b6103e78163ffffffff16111561057657815468ff00000000000000001916683200000000000000001782556105f1565b6101f38163ffffffff1611156105a657815468ff00000000000000001916682800000000000000001782556105f1565b60f98163ffffffff1611156105d557815468ff00000000000000001916682300000000000000001782556105f1565b815468ff00000000000000001916681e00000000000000001782555b81547fffffffffffffffffffffffffffffffffffffffffffffffffffffffff00000000168255610624426213c6806107b2565b825463ffffffff91909116640100000000027fffffffffffffffffffffffffffffffffffffffffffffffff00000000ffffffff909116178255505b8054600190829060009061067a90849063ffffffff166107cb565b825463ffffffff9182166101009390930a9283029190920219909116179055505460ff680100000000000000009091041692915050565b73ffffffffffffffffffffffffffffffffffffffff811681146106d357600080fd5b50565b6000602082840312156106e857600080fd5b81516106f3816106b1565b9392505050565b60006020828403121561070c57600080fd5b81356106f3816106b1565b600060208083528351808285015260005b8181101561074457858101830151858201604001528201610728565b5060006040828601015260407fffffffffffffffffffffffffffffffffffffffffffffffffffffffffffffffe0601f8301168501019250505092915050565b7f4e487b7100000000000000000000000000000000000000000000000000000000600052601160045260246000fd5b808201808211156107c5576107c5610783565b92915050565b63ffffffff8181168382160190808211156107e8576107e8610783565b509291505056fea2646970667358221220a5eb3d7c08b2988fa579bd686f1bed436cfd583f204f5b73ae083ee4abe1eeaf64736f6c63430008120033",
			"opcodes": "PUSH1 0x80 PUSH1 0x40 MSTORE CALLVALUE DUP1 ISZERO PUSH2 0x10 JUMPI PUSH1 0x0 DUP1 REVERT JUMPDEST POP PUSH2 0x825 DUP1 PUSH2 0x20 PUSH1 0x0 CODECOPY PUSH1 0x0 RETURN INVALID PUSH1 0x80 PUSH1 0x40 MSTORE PUSH1 0x4 CALLDATASIZE LT PUSH2 0x38 JUMPI PUSH1 0x0 CALLDATALOAD PUSH1 0xE0 SHR DUP1 PUSH4 0x6452C22D EQ PUSH2 0x16B JUMPI DUP1 PUSH4 0x8052474D EQ PUSH2 0x1A2 JUMPI DUP1 PUSH4 0x925849AD EQ PUSH2 0x1F8 JUMPI PUSH2 0x15F JUMP JUMPDEST CALLDATASIZE PUSH2 0x15F JUMPI CALLVALUE ISZERO PUSH2 0x15D JUMPI PUSH1 0x40 MLOAD PUSH32 0xC75FFD8600000000000000000000000000000000000000000000000000000000 DUP2 MSTORE PUSH1 0x20 PUSH1 0x4 DUP3 ADD MSTORE PUSH1 0x12 PUSH1 0x24 DUP3 ADD MSTORE PUSH32 0x2E436F72706F726174696F6E2E5661756C740000000000000000000000000000 PUSH1 0x44 DUP3 ADD MSTORE PUSH20 0xA00A1ED23A4CC11182DB678A67FCDFB45FEE1FF8 SWAP1 PUSH4 0xC75FFD86 SWAP1 PUSH1 0x64 ADD PUSH1 0x20 PUSH1 0x40 MLOAD DUP1 DUP4 SUB DUP2 DUP7 GAS STATICCALL ISZERO DUP1 ISZERO PUSH2 0xD9 JUMPI RETURNDATASIZE PUSH1 0x0 DUP1 RETURNDATACOPY RETURNDATASIZE PUSH1 0x0 REVERT JUMPDEST POP POP POP POP PUSH1 0x40 MLOAD RETURNDATASIZE PUSH1 0x1F NOT PUSH1 0x1F DUP3 ADD AND DUP3 ADD DUP1 PUSH1 0x40 MSTORE POP DUP2 ADD SWAP1 PUSH2 0xFD SWAP2 SWAP1 PUSH2 0x6D6 JUMP JUMPDEST PUSH20 0xFFFFFFFFFFFFFFFFFFFFFFFFFFFFFFFFFFFFFFFF AND CALLVALUE PUSH1 0x40 MLOAD PUSH1 0x0 PUSH1 0x40 MLOAD DUP1 DUP4 SUB DUP2 DUP6 DUP8 GAS CALL SWAP3 POP POP POP RETURNDATASIZE DUP1 PUSH1 0x0 DUP2 EQ PUSH2 0x154 JUMPI PUSH1 0x40 MLOAD SWAP2 POP PUSH1 0x1F NOT PUSH1 0x3F RETURNDATASIZE ADD AND DUP3 ADD PUSH1 0x40 MSTORE RETURNDATASIZE DUP3 MSTORE RETURNDATASIZE PUSH1 0x0 PUSH1 0x20 DUP5 ADD RETURNDATACOPY PUSH2 0x159 JUMP JUMPDEST PUSH1 0x60 SWAP2 POP JUMPDEST POP POP POP JUMPDEST STOP JUMPDEST CALLVALUE DUP1 ISZERO PUSH2 0x15D JUMPI PUSH1 0x0 DUP1 REVERT JUMPDEST CALLVALUE DUP1 ISZERO PUSH2 0x177 JUMPI PUSH1 0x0 DUP1 REVERT JUMPDEST POP PUSH2 0x18B PUSH2 0x186 CALLDATASIZE PUSH1 0x4 PUSH2 0x6FA JUMP JUMPDEST PUSH2 0x2A5 JUMP JUMPDEST PUSH1 0x40 MLOAD PUSH1 0xFF SWAP1 SWAP2 AND DUP2 MSTORE PUSH1 0x20 ADD JUMPDEST PUSH1 0x40 MLOAD DUP1 SWAP2 SUB SWAP1 RETURN JUMPDEST CALLVALUE DUP1 ISZERO PUSH2 0x1AE JUMPI PUSH1 0x0 DUP1 REVERT JUMPDEST POP PUSH2 0x1EB PUSH1 0x40 MLOAD DUP1 PUSH1 0x40 ADD PUSH1 0x40 MSTORE DUP1 PUSH1 0x15 DUP2 MSTORE PUSH1 0x20 ADD PUSH32 0x2E5061796D656E742E496D706C656D656E746F72730000000000000000000000 DUP2 MSTORE POP DUP2 JUMP JUMPDEST PUSH1 0x40 MLOAD PUSH2 0x199 SWAP2 SWAP1 PUSH2 0x717 JUMP JUMPDEST CALLVALUE DUP1 ISZERO PUSH2 0x204 JUMPI PUSH1 0x0 DUP1 REVERT JUMPDEST POP PUSH2 0x27F PUSH2 0x213 CALLDATASIZE PUSH1 0x4 PUSH2 0x6FA JUMP JUMPDEST PUSH20 0xFFFFFFFFFFFFFFFFFFFFFFFFFFFFFFFFFFFFFFFF AND PUSH1 0x0 SWAP1 DUP2 MSTORE PUSH1 0x2 PUSH1 0x20 SWAP1 DUP2 MSTORE PUSH1 0x40 SWAP2 DUP3 SWAP1 KECCAK256 DUP3 MLOAD PUSH1 0x60 DUP2 ADD DUP5 MSTORE SWAP1 SLOAD PUSH4 0xFFFFFFFF DUP1 DUP3 AND DUP1 DUP5 MSTORE PUSH5 0x100000000 DUP4 DIV SWAP1 SWAP2 AND SWAP4 DUP4 ADD DUP5 SWAP1 MSTORE PUSH9 0x10000000000000000 SWAP1 SWAP2 DIV PUSH1 0xFF AND SWAP2 SWAP1 SWAP4 ADD DUP2 SWAP1 MSTORE SWAP2 SWAP3 SWAP1 SWAP2 SWAP1 JUMP JUMPDEST PUSH1 0x40 DUP1 MLOAD PUSH4 0xFFFFFFFF SWAP5 DUP6 AND DUP2 MSTORE SWAP4 SWAP1 SWAP3 AND PUSH1 0x20 DUP5 ADD MSTORE PUSH1 0xFF AND SWAP1 DUP3 ADD MSTORE PUSH1 0x60 ADD PUSH2 0x199 JUMP JUMPDEST PUSH1 0x40 MLOAD PUSH32 0xC75FFD8600000000000000000000000000000000000000000000000000000000 DUP2 MSTORE PUSH1 0x20 PUSH1 0x4 DUP3 ADD MSTORE PUSH1 0x13 PUSH1 0x24 DUP3 ADD MSTORE PUSH32 0x2E5061796D656E742E50726F63636573736F7200000000000000000000000000 PUSH1 0x44 DUP3 ADD MSTORE PUSH1 0x0 SWAP1 CALLER SWAP1 PUSH20 0xA00A1ED23A4CC11182DB678A67FCDFB45FEE1FF8 SWAP1 PUSH4 0xC75FFD86 SWAP1 PUSH1 0x64 ADD PUSH1 0x20 PUSH1 0x40 MLOAD DUP1 DUP4 SUB DUP2 DUP7 GAS STATICCALL ISZERO DUP1 ISZERO PUSH2 0x340 JUMPI RETURNDATASIZE PUSH1 0x0 DUP1 RETURNDATACOPY RETURNDATASIZE PUSH1 0x0 REVERT JUMPDEST POP POP POP POP PUSH1 0x40 MLOAD RETURNDATASIZE PUSH1 0x1F NOT PUSH1 0x1F DUP3 ADD AND DUP3 ADD DUP1 PUSH1 0x40 MSTORE POP DUP2 ADD SWAP1 PUSH2 0x364 SWAP2 SWAP1 PUSH2 0x6D6 JUMP JUMPDEST PUSH20 0xFFFFFFFFFFFFFFFFFFFFFFFFFFFFFFFFFFFFFFFF AND EQ PUSH2 0x3E5 JUMPI PUSH1 0x40 MLOAD PUSH32 0x8C379A000000000000000000000000000000000000000000000000000000000 DUP2 MSTORE PUSH1 0x20 PUSH1 0x4 DUP3 ADD MSTORE PUSH1 0xF PUSH1 0x24 DUP3 ADD MSTORE PUSH32 0x50726F63636573736F72206F6E6C790000000000000000000000000000000000 PUSH1 0x44 DUP3 ADD MSTORE PUSH1 0x64 ADD PUSH1 0x40 MLOAD DUP1 SWAP2 SUB SWAP1 REVERT JUMPDEST PUSH20 0xFFFFFFFFFFFFFFFFFFFFFFFFFFFFFFFFFFFFFFFF DUP3 AND PUSH1 0x0 SWAP1 DUP2 MSTORE PUSH1 0x2 PUSH1 0x20 MSTORE PUSH1 0x40 SWAP1 KECCAK256 DUP1 SLOAD PUSH4 0xFFFFFFFF TIMESTAMP DUP2 AND PUSH5 0x100000000 SWAP1 SWAP3 DIV AND LT ISZERO PUSH2 0x65F JUMPI DUP1 SLOAD PUSH4 0xFFFFFFFF AND PUSH2 0x61A7 DUP2 GT ISZERO PUSH2 0x456 JUMPI DUP2 SLOAD PUSH9 0xFF0000000000000000 NOT AND PUSH9 0xC80000000000000000 OR DUP3 SSTORE PUSH2 0x5F1 JUMP JUMPDEST PUSH2 0x30D3 DUP2 PUSH4 0xFFFFFFFF AND GT ISZERO PUSH2 0x486 JUMPI DUP2 SLOAD PUSH9 0xFF0000000000000000 NOT AND PUSH9 0x960000000000000000 OR DUP3 SSTORE PUSH2 0x5F1 JUMP JUMPDEST PUSH2 0x1D4B DUP2 PUSH4 0xFFFFFFFF AND GT ISZERO PUSH2 0x4B6 JUMPI DUP2 SLOAD PUSH9 0xFF0000000000000000 NOT AND PUSH9 0x7D0000000000000000 OR DUP3 SSTORE PUSH2 0x5F1 JUMP JUMPDEST PUSH2 0x1387 DUP2 PUSH4 0xFFFFFFFF AND GT ISZERO PUSH2 0x4E6 JUMPI DUP2 SLOAD PUSH9 0xFF0000000000000000 NOT AND PUSH9 0x640000000000000000 OR DUP3 SSTORE PUSH2 0x5F1 JUMP JUMPDEST PUSH2 0x9C3 DUP2 PUSH4 0xFFFFFFFF AND GT ISZERO PUSH2 0x516 JUMPI DUP2 SLOAD PUSH9 0xFF0000000000000000 NOT AND PUSH9 0x500000000000000000 OR DUP3 SSTORE PUSH2 0x5F1 JUMP JUMPDEST PUSH2 0x5DB DUP2 PUSH4 0xFFFFFFFF AND GT ISZERO PUSH2 0x546 JUMPI DUP2 SLOAD PUSH9 0xFF0000000000000000 NOT AND PUSH9 0x3C0000000000000000 OR DUP3 SSTORE PUSH2 0x5F1 JUMP JUMPDEST PUSH2 0x3E7 DUP2 PUSH4 0xFFFFFFFF AND GT ISZERO PUSH2 0x576 JUMPI DUP2 SLOAD PUSH9 0xFF0000000000000000 NOT AND PUSH9 0x320000000000000000 OR DUP3 SSTORE PUSH2 0x5F1 JUMP JUMPDEST PUSH2 0x1F3 DUP2 PUSH4 0xFFFFFFFF AND GT ISZERO PUSH2 0x5A6 JUMPI DUP2 SLOAD PUSH9 0xFF0000000000000000 NOT AND PUSH9 0x280000000000000000 OR DUP3 SSTORE PUSH2 0x5F1 JUMP JUMPDEST PUSH1 0xF9 DUP2 PUSH4 0xFFFFFFFF AND GT ISZERO PUSH2 0x5D5 JUMPI DUP2 SLOAD PUSH9 0xFF0000000000000000 NOT AND PUSH9 0x230000000000000000 OR DUP3 SSTORE PUSH2 0x5F1 JUMP JUMPDEST DUP2 SLOAD PUSH9 0xFF0000000000000000 NOT AND PUSH9 0x1E0000000000000000 OR DUP3 SSTORE JUMPDEST DUP2 SLOAD PUSH32 0xFFFFFFFFFFFFFFFFFFFFFFFFFFFFFFFFFFFFFFFFFFFFFFFFFFFFFFFF00000000 AND DUP3 SSTORE PUSH2 0x624 TIMESTAMP PUSH3 0x13C680 PUSH2 0x7B2 JUMP JUMPDEST DUP3 SLOAD PUSH4 0xFFFFFFFF SWAP2 SWAP1 SWAP2 AND PUSH5 0x100000000 MUL PUSH32 0xFFFFFFFFFFFFFFFFFFFFFFFFFFFFFFFFFFFFFFFFFFFFFFFF00000000FFFFFFFF SWAP1 SWAP2 AND OR DUP3 SSTORE POP JUMPDEST DUP1 SLOAD PUSH1 0x1 SWAP1 DUP3 SWAP1 PUSH1 0x0 SWAP1 PUSH2 0x67A SWAP1 DUP5 SWAP1 PUSH4 0xFFFFFFFF AND PUSH2 0x7CB JUMP JUMPDEST DUP3 SLOAD PUSH4 0xFFFFFFFF SWAP2 DUP3 AND PUSH2 0x100 SWAP4 SWAP1 SWAP4 EXP SWAP3 DUP4 MUL SWAP2 SWAP1 SWAP3 MUL NOT SWAP1 SWAP2 AND OR SWAP1 SSTORE POP SLOAD PUSH1 0xFF PUSH9 0x10000000000000000 SWAP1 SWAP2 DIV AND SWAP3 SWAP2 POP POP JUMP JUMPDEST PUSH20 0xFFFFFFFFFFFFFFFFFFFFFFFFFFFFFFFFFFFFFFFF DUP2 AND DUP2 EQ PUSH2 0x6D3 JUMPI PUSH1 0x0 DUP1 REVERT JUMPDEST POP JUMP JUMPDEST PUSH1 0x0 PUSH1 0x20 DUP3 DUP5 SUB SLT ISZERO PUSH2 0x6E8 JUMPI PUSH1 0x0 DUP1 REVERT JUMPDEST DUP2 MLOAD PUSH2 0x6F3 DUP2 PUSH2 0x6B1 JUMP JUMPDEST SWAP4 SWAP3 POP POP POP JUMP JUMPDEST PUSH1 0x0 PUSH1 0x20 DUP3 DUP5 SUB SLT ISZERO PUSH2 0x70C JUMPI PUSH1 0x0 DUP1 REVERT JUMPDEST DUP2 CALLDATALOAD PUSH2 0x6F3 DUP2 PUSH2 0x6B1 JUMP JUMPDEST PUSH1 0x0 PUSH1 0x20 DUP1 DUP4 MSTORE DUP4 MLOAD DUP1 DUP3 DUP6 ADD MSTORE PUSH1 0x0 JUMPDEST DUP2 DUP2 LT ISZERO PUSH2 0x744 JUMPI DUP6 DUP2 ADD DUP4 ADD MLOAD DUP6 DUP3 ADD PUSH1 0x40 ADD MSTORE DUP3 ADD PUSH2 0x728 JUMP JUMPDEST POP PUSH1 0x0 PUSH1 0x40 DUP3 DUP7 ADD ADD MSTORE PUSH1 0x40 PUSH32 0xFFFFFFFFFFFFFFFFFFFFFFFFFFFFFFFFFFFFFFFFFFFFFFFFFFFFFFFFFFFFFFE0 PUSH1 0x1F DUP4 ADD AND DUP6 ADD ADD SWAP3 POP POP POP SWAP3 SWAP2 POP POP JUMP JUMPDEST PUSH32 0x4E487B7100000000000000000000000000000000000000000000000000000000 PUSH1 0x0 MSTORE PUSH1 0x11 PUSH1 0x4 MSTORE PUSH1 0x24 PUSH1 0x0 REVERT JUMPDEST DUP1 DUP3 ADD DUP1 DUP3 GT ISZERO PUSH2 0x7C5 JUMPI PUSH2 0x7C5 PUSH2 0x783 JUMP JUMPDEST SWAP3 SWAP2 POP POP JUMP JUMPDEST PUSH4 0xFFFFFFFF DUP2 DUP2 AND DUP4 DUP3 AND ADD SWAP1 DUP1 DUP3 GT ISZERO PUSH2 0x7E8 JUMPI PUSH2 0x7E8 PUSH2 0x783 JUMP JUMPDEST POP SWAP3 SWAP2 POP POP JUMP INVALID LOG2 PUSH5 0x6970667358 0x22 SLT KECCAK256 0xA5 0xEB RETURNDATASIZE PUSH29 0x8B2988FA579BD686F1BED436CFD583F204F5B73AE083EE4ABE1EEAF64 PUSH20 0x6F6C634300081200330000000000000000000000 "
		},
		"gasEstimates": {
			"creation": {
				"codeDepositCost": "417000",
				"executionCost": "455",
				"totalCost": "417455"
			},
			"external": {
				"": "156",
				"GetEpochReward(address)": "infinite",
				"GetImplementorProfile(address)": "2746",
				"Name()": "infinite"
			}
		},
		"methodIdentifiers": {
			"GetEpochReward(address)": "6452c22d",
			"GetImplementorProfile(address)": "925849ad",
			"Name()": "8052474d"
		}
	},
	"abi": [
		{
			"stateMutability": "nonpayable",
			"type": "fallback"
		},
		{
			"inputs": [
				{
					"internalType": "address",
					"name": "_implementor",
					"type": "address"
				}
			],
			"name": "GetEpochReward",
			"outputs": [
				{
					"internalType": "uint8",
					"name": "",
					"type": "uint8"
				}
			],
			"stateMutability": "nonpayable",
			"type": "function"
		},
		{
			"inputs": [
				{
					"internalType": "address",
					"name": "_implementor",
					"type": "address"
				}
			],
			"name": "GetImplementorProfile",
			"outputs": [
				{
					"internalType": "uint32",
					"name": "epochSales",
					"type": "uint32"
				},
				{
					"internalType": "uint32",
					"name": "epochEnd",
					"type": "uint32"
				},
				{
					"internalType": "uint8",
					"name": "epochReward",
					"type": "uint8"
				}
			],
			"stateMutability": "view",
			"type": "function"
		},
		{
			"inputs": [],
			"name": "Name",
			"outputs": [
				{
					"internalType": "string",
					"name": "",
					"type": "string"
				}
			],
			"stateMutability": "view",
			"type": "function"
		},
		{
			"stateMutability": "payable",
			"type": "receive"
		}
	]
}