{
	"data": {
		"bytecode": {
			"linkReferences": {},
			"object": "6080604052600080546001600160901b03191670320000001e0000003200000005002100011781556001556002805460ff1916905534801561004057600080fd5b50612f6b806100506000396000f3fe6080604052600436106101485760003560e01c80638774fd67116100c0578063d91f54cd11610074578063dda308b411610059578063dda308b4146105bf578063e31357ca146105e2578063f28bca6a146106025761026f565b8063d91f54cd14610526578063da4f16771461059f5761026f565b8063b108b92b116100a5578063b108b92b146104b2578063b74a8b1d146104d2578063bc558577146104f95761026f565b80638774fd6714610456578063b079f5fb146104695761026f565b806350e038e1116101175780638052474d116100fc5780638052474d146103b257806381323ce11461040857806386f90603146104365761026f565b806350e038e114610356578063568e2da0146103765761026f565b80630a7b9161146102c957806338cc02e6146102fe57806338cc21d61461031e57806346842a81146103365761026f565b3661026f57341561026d576040517fc75ffd8600000000000000000000000000000000000000000000000000000000815260206004820152601260248201527f2e436f72706f726174696f6e2e5661756c740000000000000000000000000000604482015273163342fae2bbe3303e5a9adce4bc9fb44d0ff0629063c75ffd8690606401602060405180830381865afa1580156101e9573d6000803e3d6000fd5b505050506040513d601f19601f8201168201806040525081019061020d9190612a8d565b73ffffffffffffffffffffffffffffffffffffffff163460405160006040518083038185875af1925050503d8060008114610264576040519150601f19603f3d011682016040523d82523d6000602084013e610269565b606091505b5050505b005b34801561027b57600080fd5b5060405162461bcd60e51b815260206004820152601d60248201527f53756273637269626572732066616c6c6261636b20726576657274656400000060448201526064015b60405180910390fd5b3480156102d557600080fd5b506102e96102e4366004612abe565b610622565b60405190151581526020015b60405180910390f35b34801561030a57600080fd5b506102e9610319366004612af3565b610a70565b34801561032a57600080fd5b5060005460ff166102e9565b34801561034257600080fd5b506102e9610351366004612b0e565b610c05565b34801561036257600080fd5b506102e9610371366004612b40565b610da3565b34801561038257600080fd5b506000546c01000000000000000000000000900463ffffffff165b60405163ffffffff90911681526020016102f5565b3480156103be57600080fd5b506103fb6040518060400160405280601481526020017f2e5061796d656e742e537562736372696265727300000000000000000000000081525081565b6040516102f59190612b5d565b34801561041457600080fd5b5060005462010000900461ffff165b60405161ffff90911681526020016102f5565b34801561044257600080fd5b506102e9610451366004612af3565b610f83565b6102e9610464366004612bc9565b611121565b34801561047557600080fd5b5061039d610484366004612c00565b73ffffffffffffffffffffffffffffffffffffffff1660009081526004602052604090205463ffffffff1690565b3480156104be57600080fd5b506102e96104cd366004612b0e565b611b2e565b3480156104de57600080fd5b5060005468010000000000000000900463ffffffff1661039d565b34801561050557600080fd5b50600054700100000000000000000000000000000000900461ffff16610423565b34801561053257600080fd5b50610546610541366004612c00565b611cbe565b6040805173ffffffffffffffffffffffffffffffffffffffff909816885263ffffffff968716602089015294861694870194909452918416606086015283166080850152151560a08401521660c082015260e0016102f5565b3480156105ab57600080fd5b506102e96105ba366004612c1d565b611dde565b3480156105cb57600080fd5b50600054640100000000900463ffffffff1661039d565b3480156105ee57600080fd5b506102e96105fd366004612af3565b612238565b34801561060e57600080fd5b506102e961061d366004612abe565b6123d2565b60003373ffffffffffffffffffffffffffffffffffffffff1673163342fae2bbe3303e5a9adce4bc9fb44d0ff06273ffffffffffffffffffffffffffffffffffffffff1663b4a99a4e6040518163ffffffff1660e01b8152600401602060405180830381865afa15801561069a573d6000803e3d6000fd5b505050506040513d601f19601f820116820180604052508101906106be9190612a8d565b73ffffffffffffffffffffffffffffffffffffffff16146107215760405162461bcd60e51b815260206004820152600a60248201527f4f776e6572206f6e6c790000000000000000000000000000000000000000000060448201526064016102c0565b823b63ffffffff8116156107775760405162461bcd60e51b815260206004820152601f60248201527f436f6e7472616374732063616e206e6f7420626520737562736372696265640060448201526064016102c0565b73ffffffffffffffffffffffffffffffffffffffff841660009081526003602052604090208054429063ffffffff7c01000000000000000000000000000000000000000000000000000000009091048116908216111561085d576107de8562015180612c78565b6107e89082612c98565b82547bffffffff00000000ffffffffffffffffffffffffffffffffffffffff167c010000000000000000000000000000000000000000000000000000000063ffffffff92909216919091027fffffffffffffffff00000000ffffffffffffffffffffffffffffffffffffffff161782556108c1565b61086a8562015180612c78565b82548390601c906108a29084907c0100000000000000000000000000000000000000000000000000000000900463ffffffff16612c98565b92506101000a81548163ffffffff021916908363ffffffff1602179055505b6108ce81629e3400612c98565b825463ffffffff9182167c010000000000000000000000000000000000000000000000000000000090910490911611156109705760405162461bcd60e51b815260206004820152602a60248201527f546f74616c20737562736372697074696f6e2063616e206e6f7420657863656560448201527f642031323020646179730000000000000000000000000000000000000000000060648201526084016102c0565b600054610996906c01000000000000000000000000900463ffffffff1662015180612c78565b82546109c891907c0100000000000000000000000000000000000000000000000000000000900463ffffffff16612c98565b82547fffffffff00000000ffffffffffffffffffffffffffffffffffffffffffffffff16780100000000000000000000000000000000000000000000000063ffffffff928316021783556040805173ffffffffffffffffffffffffffffffffffffffff8916815291871660208301527f3166e9f81aaef1a4e6f43b85db3916fde6e3f485a575555e583c0a47dfc4d5e7910160405180910390a1600193505050505b92915050565b60003373ffffffffffffffffffffffffffffffffffffffff1673163342fae2bbe3303e5a9adce4bc9fb44d0ff06273ffffffffffffffffffffffffffffffffffffffff1663b4a99a4e6040518163ffffffff1660e01b8152600401602060405180830381865afa158015610ae8573d6000803e3d6000fd5b505050506040513d601f19601f82011682018060405250810190610b0c9190612a8d565b73ffffffffffffffffffffffffffffffffffffffff1614610b6f5760405162461bcd60e51b815260206004820152600a60248201527f4f776e6572206f6e6c790000000000000000000000000000000000000000000060448201526064016102c0565b8163ffffffff16600003610bc55760405162461bcd60e51b815260206004820152601260248201527f5a65726f20737562736372697074696f6e73000000000000000000000000000060448201526064016102c0565b50600080547fffffffffffffffffffffffffffffffffffffffffffffffff00000000ffffffff1664010000000063ffffffff84160217905560015b919050565b60003373ffffffffffffffffffffffffffffffffffffffff1673163342fae2bbe3303e5a9adce4bc9fb44d0ff06273ffffffffffffffffffffffffffffffffffffffff1663b4a99a4e6040518163ffffffff1660e01b8152600401602060405180830381865afa158015610c7d573d6000803e3d6000fd5b505050506040513d601f19601f82011682018060405250810190610ca19190612a8d565b73ffffffffffffffffffffffffffffffffffffffff1614610d045760405162461bcd60e51b815260206004820152600a60248201527f4f776e6572206f6e6c790000000000000000000000000000000000000000000060448201526064016102c0565b8161ffff16600003610d585760405162461bcd60e51b815260206004820152600860248201527f5a65726f2055534400000000000000000000000000000000000000000000000060448201526064016102c0565b506000805461ffff8316700100000000000000000000000000000000027fffffffffffffffffffffffffffff0000ffffffffffffffffffffffffffffffff9091161790556001919050565b60003373ffffffffffffffffffffffffffffffffffffffff1673163342fae2bbe3303e5a9adce4bc9fb44d0ff06273ffffffffffffffffffffffffffffffffffffffff1663b4a99a4e6040518163ffffffff1660e01b8152600401602060405180830381865afa158015610e1b573d6000803e3d6000fd5b505050506040513d601f19601f82011682018060405250810190610e3f9190612a8d565b73ffffffffffffffffffffffffffffffffffffffff1614610ea25760405162461bcd60e51b815260206004820152600a60248201527f4f776e6572206f6e6c790000000000000000000000000000000000000000000060448201526064016102c0565b60005482151560ff909116151503610f4e57811515600103610f065760405162461bcd60e51b815260206004820152600f60248201527f416c726561647920616c6c6f776564000000000000000000000000000000000060448201526064016102c0565b60405162461bcd60e51b815260206004820152601260248201527f416c726561647920646973616c6c6f776564000000000000000000000000000060448201526064016102c0565b50600080547fffffffffffffffffffffffffffffffffffffffffffffffffffffffffffffff0016911515919091179055600190565b60003373ffffffffffffffffffffffffffffffffffffffff1673163342fae2bbe3303e5a9adce4bc9fb44d0ff06273ffffffffffffffffffffffffffffffffffffffff1663b4a99a4e6040518163ffffffff1660e01b8152600401602060405180830381865afa158015610ffb573d6000803e3d6000fd5b505050506040513d601f19601f8201168201806040525081019061101f9190612a8d565b73ffffffffffffffffffffffffffffffffffffffff16146110825760405162461bcd60e51b815260206004820152600a60248201527f4f776e6572206f6e6c790000000000000000000000000000000000000000000060448201526064016102c0565b8163ffffffff166000036110d85760405162461bcd60e51b815260206004820152600960248201527f5a65726f2064617973000000000000000000000000000000000000000000000060448201526064016102c0565b506000805463ffffffff83166c01000000000000000000000000027fffffffffffffffffffffffffffffffff00000000ffffffffffffffffffffffff9091161790556001919050565b60008054610100900460ff16151560010361117e5760405162461bcd60e51b815260206004820152601160248201527f5265656e7472616e6365206661696c656400000000000000000000000000000060448201526064016102c0565b600080547fffffffffffffffffffffffffffffffffffffffffffffffffffffffffffff00ff81166101001790915560ff1615156001146112005760405162461bcd60e51b815260206004820152601460248201527f5375627363726962696e672064697361626c656400000000000000000000000060448201526064016102c0565b346000036112505760405162461bcd60e51b815260206004820152601460248201527f4d4154494320616d6f756e74206973207a65726f00000000000000000000000060448201526064016102c0565b33803b9063ffffffff8216156112a85760405162461bcd60e51b815260206004820152601b60248201527f436f6e7472616374732063616e206e6f7420737562736372696265000000000060448201526064016102c0565b6112b06127bd565b15156001146113015760405162461bcd60e51b815260206004820152601f60248201527f4d4154494320746f20555344204f7261636c6520756e617661696c61626c650060448201526064016102c0565b61130a346129c7565b60005463ffffffff919091169061132b9062010000900461ffff1687612c78565b63ffffffff16111561137f5760405162461bcd60e51b815260206004820152601960248201527f4d4154494320616d6f756e7420696e73756666696369656e740000000000000060448201526064016102c0565b73ffffffffffffffffffffffffffffffffffffffff81166000908152600360205260409020600181015463ffffffff161580156113e1575080547c0100000000000000000000000000000000000000000000000000000000900463ffffffff16155b156115a8578473ffffffffffffffffffffffffffffffffffffffff168273ffffffffffffffffffffffffffffffffffffffff1614158015611437575073ffffffffffffffffffffffffffffffffffffffff851615155b1561152b57843b925063ffffffff8316156114945760405162461bcd60e51b815260206004820152601460248201527f526566657272657220697320636f6e747261637400000000000000000000000060448201526064016102c0565b73ffffffffffffffffffffffffffffffffffffffff85166000908152600460205260408120805463ffffffff16916114cb83612cbc565b82546101009290920a63ffffffff8181021990931691909216919091021790555080547fffffffffffffffffffffffff00000000000000000000000000000000000000001673ffffffffffffffffffffffffffffffffffffffff86161781555b600f8663ffffffff1610156115a85760405162461bcd60e51b815260206004820152602d60248201527f466972737420737562736372697074696f6e2073686f756c642062652061742060448201527f6c6561737420313520646179730000000000000000000000000000000000000060648201526084016102c0565b8054429063ffffffff7c010000000000000000000000000000000000000000000000000000000090910481169082161115611669576115ea8762015180612c78565b6115f49082612c98565b82547bffffffff00000000ffffffffffffffffffffffffffffffffffffffff167c010000000000000000000000000000000000000000000000000000000063ffffffff92909216919091027fffffffffffffffff00000000ffffffffffffffffffffffffffffffffffffffff161782556116cd565b6116768762015180612c78565b82548390601c906116ae9084907c0100000000000000000000000000000000000000000000000000000000900463ffffffff16612c98565b92506101000a81548163ffffffff021916908363ffffffff1602179055505b6116da81629e3400612c98565b825463ffffffff9182167c0100000000000000000000000000000000000000000000000000000000909104909116111561177c5760405162461bcd60e51b815260206004820152602a60248201527f546f74616c20737562736372697074696f6e2063616e206e6f7420657863656560448201527f642031323020646179730000000000000000000000000000000000000000000060648201526084016102c0565b6000546117a2906c01000000000000000000000000900463ffffffff1662015180612c78565b82546117d491907c0100000000000000000000000000000000000000000000000000000000900463ffffffff16612c98565b825463ffffffff919091167801000000000000000000000000000000000000000000000000027fffffffff00000000ffffffffffffffffffffffffffffffffffffffffffffffff909116178255600061182c88612a13565b9050600061183a8234612cdf565b845490915073ffffffffffffffffffffffffffffffffffffffff161561192557611865600a83612d21565b61186f9082612d35565b60008054865473ffffffffffffffffffffffffffffffffffffffff168252600460205260409091205491925063ffffffff640100000000909104811691161061192557835473ffffffffffffffffffffffffffffffffffffffff1660646118d68334612cdf565b6118e09190612d21565b604051600081818185875af1925050503d806000811461191c576040519150601f19603f3d011682016040523d82523d6000602084013e611921565b606091505b5050505b801561198a5760405173ffffffffffffffffffffffffffffffffffffffff8616908290600081818185875af1925050503d8060008114611981576040519150601f19603f3d011682016040523d82523d6000602084013e611986565b606091505b5050505b6040517fc75ffd8600000000000000000000000000000000000000000000000000000000815260206004820152601260248201527f2e436f72706f726174696f6e2e5661756c740000000000000000000000000000604482015273163342fae2bbe3303e5a9adce4bc9fb44d0ff0629063c75ffd8690606401602060405180830381865afa158015611a20573d6000803e3d6000fd5b505050506040513d601f19601f82011682018060405250810190611a449190612a8d565b73ffffffffffffffffffffffffffffffffffffffff164760405160006040518083038185875af1925050503d8060008114611a9b576040519150601f19603f3d011682016040523d82523d6000602084013e611aa0565b606091505b5050600080547fffffffffffffffffffffffffffffffffffffffffffffffffffffffffffff00ff169055506040805173ffffffffffffffffffffffffffffffffffffffff8716815263ffffffff8b1660208201527f427f72b0a0aa45072e2b291b62327b82b019eebf02629f3d1551b1618f97739b910160405180910390a150600198975050505050505050565b60003373ffffffffffffffffffffffffffffffffffffffff1673163342fae2bbe3303e5a9adce4bc9fb44d0ff06273ffffffffffffffffffffffffffffffffffffffff1663b4a99a4e6040518163ffffffff1660e01b8152600401602060405180830381865afa158015611ba6573d6000803e3d6000fd5b505050506040513d601f19601f82011682018060405250810190611bca9190612a8d565b73ffffffffffffffffffffffffffffffffffffffff1614611c2d5760405162461bcd60e51b815260206004820152600a60248201527f4f776e6572206f6e6c790000000000000000000000000000000000000000000060448201526064016102c0565b8161ffff16600003611c815760405162461bcd60e51b815260206004820152600860248201527f5a65726f2055534400000000000000000000000000000000000000000000000060448201526064016102c0565b506000805461ffff831662010000027fffffffffffffffffffffffffffffffffffffffffffffffffffffffff0000ffff9091161790556001919050565b73ffffffffffffffffffffffffffffffffffffffff8082166000908152600360209081526040808320815160a081018352815495861680825263ffffffff74010000000000000000000000000000000000000000880481169583018690527801000000000000000000000000000000000000000000000000880481169483018590527c010000000000000000000000000000000000000000000000000000000090970487166060830181905260019093015487166080830181905290969495939492939283929042908116861015611d97576000611daf565b62015180611da58288612d48565b611daf9190612d65565b94508063ffffffff168663ffffffff161015611dcc576000611dcf565b60015b93505050919395979092949650565b6040517fc75ffd8600000000000000000000000000000000000000000000000000000000815260206004820152601260248201527f2e5061796d656e742e50726f636573736f7200000000000000000000000000006044820152600090339073163342fae2bbe3303e5a9adce4bc9fb44d0ff0629063c75ffd8690606401602060405180830381865afa158015611e79573d6000803e3d6000fd5b505050506040513d601f19601f82011682018060405250810190611e9d9190612a8d565b73ffffffffffffffffffffffffffffffffffffffff1614611f005760405162461bcd60e51b815260206004820152600e60248201527f50726f636573736f72206f6e6c7900000000000000000000000000000000000060448201526064016102c0565b73ffffffffffffffffffffffffffffffffffffffff831660009081526003602052604090208054429063ffffffff7c010000000000000000000000000000000000000000000000000000000090910481169082161161206e57600054611f7f906c01000000000000000000000000900463ffffffff1662015180612c78565b8254611fb191907c0100000000000000000000000000000000000000000000000000000000900463ffffffff16612c98565b82547fffffffff00000000ffffffffffffffffffffffffffffffffffffffffffffffff16780100000000000000000000000000000000000000000000000063ffffffff92831602178084557401000000000000000000000000000000000000000090041682601461202183612cbc565b91906101000a81548163ffffffff021916908363ffffffff16021790555050808260010160006101000a81548163ffffffff021916908363ffffffff160217905550600192505050610a6a565b815463ffffffff78010000000000000000000000000000000000000000000000009091048116908216111561213e576000546120c3906c01000000000000000000000000900463ffffffff1662015180612c78565b6120cd9082612c98565b82547fffffffff0000000000000000ffffffffffffffffffffffffffffffffffffffff16780100000000000000000000000000000000000000000000000063ffffffff92909216919091027fffffffffffffffff00000000ffffffffffffffffffffffffffffffffffffffff161782555b60005482546801000000000000000090910463ffffffff908116740100000000000000000000000000000000000000009092041610158061217d575083155b1561218d57600092505050610a6a565b6121956127bd565b50600054700100000000000000000000000000000000900461ffff166121ba856129c7565b63ffffffff16106121f157815474010000000000000000000000000000000000000000900463ffffffff1682601461202183612cbc565b600191820180547fffffffffffffffffffffffffffffffffffffffffffffffffffffffff000000001663ffffffff929092169190911790559050610a6a565b505092915050565b60003373ffffffffffffffffffffffffffffffffffffffff1673163342fae2bbe3303e5a9adce4bc9fb44d0ff06273ffffffffffffffffffffffffffffffffffffffff1663b4a99a4e6040518163ffffffff1660e01b8152600401602060405180830381865afa1580156122b0573d6000803e3d6000fd5b505050506040513d601f19601f820116820180604052508101906122d49190612a8d565b73ffffffffffffffffffffffffffffffffffffffff16146123375760405162461bcd60e51b815260206004820152600a60248201527f4f776e6572206f6e6c790000000000000000000000000000000000000000000060448201526064016102c0565b8163ffffffff1660000361238d5760405162461bcd60e51b815260206004820152601160248201527f5a65726f207472616e73616374696f6e7300000000000000000000000000000060448201526064016102c0565b506000805463ffffffff831668010000000000000000027fffffffffffffffffffffffffffffffffffffffff00000000ffffffffffffffff9091161790556001919050565b60003373ffffffffffffffffffffffffffffffffffffffff1673163342fae2bbe3303e5a9adce4bc9fb44d0ff06273ffffffffffffffffffffffffffffffffffffffff1663b4a99a4e6040518163ffffffff1660e01b8152600401602060405180830381865afa15801561244a573d6000803e3d6000fd5b505050506040513d601f19601f8201168201806040525081019061246e9190612a8d565b73ffffffffffffffffffffffffffffffffffffffff16146124d15760405162461bcd60e51b815260206004820152600a60248201527f4f776e6572206f6e6c790000000000000000000000000000000000000000000060448201526064016102c0565b60788263ffffffff1611156125285760405162461bcd60e51b815260206004820152600d60248201527f546f6f206d616e7920646179730000000000000000000000000000000000000060448201526064016102c0565b73ffffffffffffffffffffffffffffffffffffffff831660009081526003602052604090208054429063ffffffff7c0100000000000000000000000000000000000000000000000000000000909104811690821611156125ca5760405162461bcd60e51b815260206004820152601060248201527f4e6f74206120737562736372696265720000000000000000000000000000000060448201526064016102c0565b6125d78462015180612c78565b82548390601c9061260f9084907c0100000000000000000000000000000000000000000000000000000000900463ffffffff16612d48565b92506101000a81548163ffffffff021916908363ffffffff1602179055508063ffffffff1682600001601c9054906101000a900463ffffffff1663ffffffff16116126c05781547bffffffff00000000ffffffffffffffffffffffffffffffffffffffff167c010000000000000000000000000000000000000000000000000000000063ffffffff8316027fffffffffffffffff00000000ffffffffffffffffffffffffffffffffffffffff161782555b6000546126e6906c01000000000000000000000000900463ffffffff1662015180612c78565b825461271891907c0100000000000000000000000000000000000000000000000000000000900463ffffffff16612c98565b82547fffffffff00000000ffffffffffffffffffffffffffffffffffffffffffffffff16780100000000000000000000000000000000000000000000000063ffffffff928316021783556040805173ffffffffffffffffffffffffffffffffffffffff8816815291861660208301527f6dcc49443c6dada3a53209e7a01826b847b563c60a1d311b2e9cdc8ab7ac323c910160405180910390a1506001949350505050565b6040517fc75ffd8600000000000000000000000000000000000000000000000000000000815260206004820152601360248201527f2e436f72706f726174696f6e2e4f7261636c65000000000000000000000000006044820152600090819073163342fae2bbe3303e5a9adce4bc9fb44d0ff0629063c75ffd8690606401602060405180830381865afa158015612858573d6000803e3d6000fd5b505050506040513d601f19601f8201168201806040525081019061287c9190612a8d565b90506000808273ffffffffffffffffffffffffffffffffffffffff166316f0a3866040518163ffffffff1660e01b81526004016040805180830381865afa1580156128cb573d6000803e3d6000fd5b505050506040513d601f19601f820116820180604052508101906128ef9190612d88565b9150915060008373ffffffffffffffffffffffffffffffffffffffff1663f9a4bbbe6040518163ffffffff1660e01b8152600401602060405180830381865afa158015612940573d6000803e3d6000fd5b505050506040513d601f19601f820116820180604052508101906129649190612dbd565b905060018215151480156129785750600081115b156129bc576001908155600280547fffffffffffffffffffffffffffffffffffffffffffffffffffffffffffffff001660ff94909416939093179092555092915050565b600094505050505090565b60025460009081906129dd9060ff166012612dd6565b6129e890600a612f0f565b8360015460646129f89190612f1e565b612a029190612f1e565b612a0c9190612d21565b9392505050565b6000806001546064612a259190612f1e565b600254612a369060ff166012612dd6565b612a4190600a612f0f565b600054612a589062010000900461ffff1686612c78565b63ffffffff16612a029190612f1e565b73ffffffffffffffffffffffffffffffffffffffff81168114612a8a57600080fd5b50565b600060208284031215612a9f57600080fd5b8151612a0c81612a68565b803563ffffffff81168114610c0057600080fd5b60008060408385031215612ad157600080fd5b8235612adc81612a68565b9150612aea60208401612aaa565b90509250929050565b600060208284031215612b0557600080fd5b612a0c82612aaa565b600060208284031215612b2057600080fd5b813561ffff81168114612a0c57600080fd5b8015158114612a8a57600080fd5b600060208284031215612b5257600080fd5b8135612a0c81612b32565b600060208083528351808285015260005b81811015612b8a57858101830151858201604001528201612b6e565b5060006040828601015260407fffffffffffffffffffffffffffffffffffffffffffffffffffffffffffffffe0601f8301168501019250505092915050565b60008060408385031215612bdc57600080fd5b612be583612aaa565b91506020830135612bf581612a68565b809150509250929050565b600060208284031215612c1257600080fd5b8135612a0c81612a68565b60008060408385031215612c3057600080fd5b8235612c3b81612a68565b946020939093013593505050565b7f4e487b7100000000000000000000000000000000000000000000000000000000600052601160045260246000fd5b63ffffffff81811683821602808216919082811461223057612230612c49565b63ffffffff818116838216019080821115612cb557612cb5612c49565b5092915050565b600063ffffffff808316818103612cd557612cd5612c49565b6001019392505050565b81810381811115610a6a57610a6a612c49565b7f4e487b7100000000000000000000000000000000000000000000000000000000600052601260045260246000fd5b600082612d3057612d30612cf2565b500490565b80820180821115610a6a57610a6a612c49565b63ffffffff828116828216039080821115612cb557612cb5612c49565b600063ffffffff80841680612d7c57612d7c612cf2565b92169190910492915050565b60008060408385031215612d9b57600080fd5b825160ff81168114612dac57600080fd5b6020840151909250612bf581612b32565b600060208284031215612dcf57600080fd5b5051919050565b60ff8181168382160190811115610a6a57610a6a612c49565b600181815b80851115612e4857817fffffffffffffffffffffffffffffffffffffffffffffffffffffffffffffffff04821115612e2e57612e2e612c49565b80851615612e3b57918102915b93841c9390800290612df4565b509250929050565b600082612e5f57506001610a6a565b81612e6c57506000610a6a565b8160018114612e825760028114612e8c57612ea8565b6001915050610a6a565b60ff841115612e9d57612e9d612c49565b50506001821b610a6a565b5060208310610133831016604e8410600b8410161715612ecb575081810a610a6a565b612ed58383612def565b807fffffffffffffffffffffffffffffffffffffffffffffffffffffffffffffffff04821115612f0757612f07612c49565b029392505050565b6000612a0c60ff841683612e50565b8082028115828204841417610a6a57610a6a612c4956fea2646970667358221220434c67802c647a23002619ed37c29a65bb24feeaa8c8f13ae8d588a0e7766af464736f6c63430008130033",
			"opcodes": "PUSH1 0x80 PUSH1 0x40 MSTORE PUSH1 0x0 DUP1 SLOAD PUSH1 0x1 PUSH1 0x1 PUSH1 0x90 SHL SUB NOT AND PUSH17 0x320000001E000000320000000500210001 OR DUP2 SSTORE PUSH1 0x1 SSTORE PUSH1 0x2 DUP1 SLOAD PUSH1 0xFF NOT AND SWAP1 SSTORE CALLVALUE DUP1 ISZERO PUSH2 0x40 JUMPI PUSH1 0x0 DUP1 REVERT JUMPDEST POP PUSH2 0x2F6B DUP1 PUSH2 0x50 PUSH1 0x0 CODECOPY PUSH1 0x0 RETURN INVALID PUSH1 0x80 PUSH1 0x40 MSTORE PUSH1 0x4 CALLDATASIZE LT PUSH2 0x148 JUMPI PUSH1 0x0 CALLDATALOAD PUSH1 0xE0 SHR DUP1 PUSH4 0x8774FD67 GT PUSH2 0xC0 JUMPI DUP1 PUSH4 0xD91F54CD GT PUSH2 0x74 JUMPI DUP1 PUSH4 0xDDA308B4 GT PUSH2 0x59 JUMPI DUP1 PUSH4 0xDDA308B4 EQ PUSH2 0x5BF JUMPI DUP1 PUSH4 0xE31357CA EQ PUSH2 0x5E2 JUMPI DUP1 PUSH4 0xF28BCA6A EQ PUSH2 0x602 JUMPI PUSH2 0x26F JUMP JUMPDEST DUP1 PUSH4 0xD91F54CD EQ PUSH2 0x526 JUMPI DUP1 PUSH4 0xDA4F1677 EQ PUSH2 0x59F JUMPI PUSH2 0x26F JUMP JUMPDEST DUP1 PUSH4 0xB108B92B GT PUSH2 0xA5 JUMPI DUP1 PUSH4 0xB108B92B EQ PUSH2 0x4B2 JUMPI DUP1 PUSH4 0xB74A8B1D EQ PUSH2 0x4D2 JUMPI DUP1 PUSH4 0xBC558577 EQ PUSH2 0x4F9 JUMPI PUSH2 0x26F JUMP JUMPDEST DUP1 PUSH4 0x8774FD67 EQ PUSH2 0x456 JUMPI DUP1 PUSH4 0xB079F5FB EQ PUSH2 0x469 JUMPI PUSH2 0x26F JUMP JUMPDEST DUP1 PUSH4 0x50E038E1 GT PUSH2 0x117 JUMPI DUP1 PUSH4 0x8052474D GT PUSH2 0xFC JUMPI DUP1 PUSH4 0x8052474D EQ PUSH2 0x3B2 JUMPI DUP1 PUSH4 0x81323CE1 EQ PUSH2 0x408 JUMPI DUP1 PUSH4 0x86F90603 EQ PUSH2 0x436 JUMPI PUSH2 0x26F JUMP JUMPDEST DUP1 PUSH4 0x50E038E1 EQ PUSH2 0x356 JUMPI DUP1 PUSH4 0x568E2DA0 EQ PUSH2 0x376 JUMPI PUSH2 0x26F JUMP JUMPDEST DUP1 PUSH4 0xA7B9161 EQ PUSH2 0x2C9 JUMPI DUP1 PUSH4 0x38CC02E6 EQ PUSH2 0x2FE JUMPI DUP1 PUSH4 0x38CC21D6 EQ PUSH2 0x31E JUMPI DUP1 PUSH4 0x46842A81 EQ PUSH2 0x336 JUMPI PUSH2 0x26F JUMP JUMPDEST CALLDATASIZE PUSH2 0x26F JUMPI CALLVALUE ISZERO PUSH2 0x26D JUMPI PUSH1 0x40 MLOAD PUSH32 0xC75FFD8600000000000000000000000000000000000000000000000000000000 DUP2 MSTORE PUSH1 0x20 PUSH1 0x4 DUP3 ADD MSTORE PUSH1 0x12 PUSH1 0x24 DUP3 ADD MSTORE PUSH32 0x2E436F72706F726174696F6E2E5661756C740000000000000000000000000000 PUSH1 0x44 DUP3 ADD MSTORE PUSH20 0x163342FAE2BBE3303E5A9ADCE4BC9FB44D0FF062 SWAP1 PUSH4 0xC75FFD86 SWAP1 PUSH1 0x64 ADD PUSH1 0x20 PUSH1 0x40 MLOAD DUP1 DUP4 SUB DUP2 DUP7 GAS STATICCALL ISZERO DUP1 ISZERO PUSH2 0x1E9 JUMPI RETURNDATASIZE PUSH1 0x0 DUP1 RETURNDATACOPY RETURNDATASIZE PUSH1 0x0 REVERT JUMPDEST POP POP POP POP PUSH1 0x40 MLOAD RETURNDATASIZE PUSH1 0x1F NOT PUSH1 0x1F DUP3 ADD AND DUP3 ADD DUP1 PUSH1 0x40 MSTORE POP DUP2 ADD SWAP1 PUSH2 0x20D SWAP2 SWAP1 PUSH2 0x2A8D JUMP JUMPDEST PUSH20 0xFFFFFFFFFFFFFFFFFFFFFFFFFFFFFFFFFFFFFFFF AND CALLVALUE PUSH1 0x40 MLOAD PUSH1 0x0 PUSH1 0x40 MLOAD DUP1 DUP4 SUB DUP2 DUP6 DUP8 GAS CALL SWAP3 POP POP POP RETURNDATASIZE DUP1 PUSH1 0x0 DUP2 EQ PUSH2 0x264 JUMPI PUSH1 0x40 MLOAD SWAP2 POP PUSH1 0x1F NOT PUSH1 0x3F RETURNDATASIZE ADD AND DUP3 ADD PUSH1 0x40 MSTORE RETURNDATASIZE DUP3 MSTORE RETURNDATASIZE PUSH1 0x0 PUSH1 0x20 DUP5 ADD RETURNDATACOPY PUSH2 0x269 JUMP JUMPDEST PUSH1 0x60 SWAP2 POP JUMPDEST POP POP POP JUMPDEST STOP JUMPDEST CALLVALUE DUP1 ISZERO PUSH2 0x27B JUMPI PUSH1 0x0 DUP1 REVERT JUMPDEST POP PUSH1 0x40 MLOAD PUSH3 0x461BCD PUSH1 0xE5 SHL DUP2 MSTORE PUSH1 0x20 PUSH1 0x4 DUP3 ADD MSTORE PUSH1 0x1D PUSH1 0x24 DUP3 ADD MSTORE PUSH32 0x53756273637269626572732066616C6C6261636B207265766572746564000000 PUSH1 0x44 DUP3 ADD MSTORE PUSH1 0x64 ADD JUMPDEST PUSH1 0x40 MLOAD DUP1 SWAP2 SUB SWAP1 REVERT JUMPDEST CALLVALUE DUP1 ISZERO PUSH2 0x2D5 JUMPI PUSH1 0x0 DUP1 REVERT JUMPDEST POP PUSH2 0x2E9 PUSH2 0x2E4 CALLDATASIZE PUSH1 0x4 PUSH2 0x2ABE JUMP JUMPDEST PUSH2 0x622 JUMP JUMPDEST PUSH1 0x40 MLOAD SWAP1 ISZERO ISZERO DUP2 MSTORE PUSH1 0x20 ADD JUMPDEST PUSH1 0x40 MLOAD DUP1 SWAP2 SUB SWAP1 RETURN JUMPDEST CALLVALUE DUP1 ISZERO PUSH2 0x30A JUMPI PUSH1 0x0 DUP1 REVERT JUMPDEST POP PUSH2 0x2E9 PUSH2 0x319 CALLDATASIZE PUSH1 0x4 PUSH2 0x2AF3 JUMP JUMPDEST PUSH2 0xA70 JUMP JUMPDEST CALLVALUE DUP1 ISZERO PUSH2 0x32A JUMPI PUSH1 0x0 DUP1 REVERT JUMPDEST POP PUSH1 0x0 SLOAD PUSH1 0xFF AND PUSH2 0x2E9 JUMP JUMPDEST CALLVALUE DUP1 ISZERO PUSH2 0x342 JUMPI PUSH1 0x0 DUP1 REVERT JUMPDEST POP PUSH2 0x2E9 PUSH2 0x351 CALLDATASIZE PUSH1 0x4 PUSH2 0x2B0E JUMP JUMPDEST PUSH2 0xC05 JUMP JUMPDEST CALLVALUE DUP1 ISZERO PUSH2 0x362 JUMPI PUSH1 0x0 DUP1 REVERT JUMPDEST POP PUSH2 0x2E9 PUSH2 0x371 CALLDATASIZE PUSH1 0x4 PUSH2 0x2B40 JUMP JUMPDEST PUSH2 0xDA3 JUMP JUMPDEST CALLVALUE DUP1 ISZERO PUSH2 0x382 JUMPI PUSH1 0x0 DUP1 REVERT JUMPDEST POP PUSH1 0x0 SLOAD PUSH13 0x1000000000000000000000000 SWAP1 DIV PUSH4 0xFFFFFFFF AND JUMPDEST PUSH1 0x40 MLOAD PUSH4 0xFFFFFFFF SWAP1 SWAP2 AND DUP2 MSTORE PUSH1 0x20 ADD PUSH2 0x2F5 JUMP JUMPDEST CALLVALUE DUP1 ISZERO PUSH2 0x3BE JUMPI PUSH1 0x0 DUP1 REVERT JUMPDEST POP PUSH2 0x3FB PUSH1 0x40 MLOAD DUP1 PUSH1 0x40 ADD PUSH1 0x40 MSTORE DUP1 PUSH1 0x14 DUP2 MSTORE PUSH1 0x20 ADD PUSH32 0x2E5061796D656E742E5375627363726962657273000000000000000000000000 DUP2 MSTORE POP DUP2 JUMP JUMPDEST PUSH1 0x40 MLOAD PUSH2 0x2F5 SWAP2 SWAP1 PUSH2 0x2B5D JUMP JUMPDEST CALLVALUE DUP1 ISZERO PUSH2 0x414 JUMPI PUSH1 0x0 DUP1 REVERT JUMPDEST POP PUSH1 0x0 SLOAD PUSH3 0x10000 SWAP1 DIV PUSH2 0xFFFF AND JUMPDEST PUSH1 0x40 MLOAD PUSH2 0xFFFF SWAP1 SWAP2 AND DUP2 MSTORE PUSH1 0x20 ADD PUSH2 0x2F5 JUMP JUMPDEST CALLVALUE DUP1 ISZERO PUSH2 0x442 JUMPI PUSH1 0x0 DUP1 REVERT JUMPDEST POP PUSH2 0x2E9 PUSH2 0x451 CALLDATASIZE PUSH1 0x4 PUSH2 0x2AF3 JUMP JUMPDEST PUSH2 0xF83 JUMP JUMPDEST PUSH2 0x2E9 PUSH2 0x464 CALLDATASIZE PUSH1 0x4 PUSH2 0x2BC9 JUMP JUMPDEST PUSH2 0x1121 JUMP JUMPDEST CALLVALUE DUP1 ISZERO PUSH2 0x475 JUMPI PUSH1 0x0 DUP1 REVERT JUMPDEST POP PUSH2 0x39D PUSH2 0x484 CALLDATASIZE PUSH1 0x4 PUSH2 0x2C00 JUMP JUMPDEST PUSH20 0xFFFFFFFFFFFFFFFFFFFFFFFFFFFFFFFFFFFFFFFF AND PUSH1 0x0 SWAP1 DUP2 MSTORE PUSH1 0x4 PUSH1 0x20 MSTORE PUSH1 0x40 SWAP1 KECCAK256 SLOAD PUSH4 0xFFFFFFFF AND SWAP1 JUMP JUMPDEST CALLVALUE DUP1 ISZERO PUSH2 0x4BE JUMPI PUSH1 0x0 DUP1 REVERT JUMPDEST POP PUSH2 0x2E9 PUSH2 0x4CD CALLDATASIZE PUSH1 0x4 PUSH2 0x2B0E JUMP JUMPDEST PUSH2 0x1B2E JUMP JUMPDEST CALLVALUE DUP1 ISZERO PUSH2 0x4DE JUMPI PUSH1 0x0 DUP1 REVERT JUMPDEST POP PUSH1 0x0 SLOAD PUSH9 0x10000000000000000 SWAP1 DIV PUSH4 0xFFFFFFFF AND PUSH2 0x39D JUMP JUMPDEST CALLVALUE DUP1 ISZERO PUSH2 0x505 JUMPI PUSH1 0x0 DUP1 REVERT JUMPDEST POP PUSH1 0x0 SLOAD PUSH17 0x100000000000000000000000000000000 SWAP1 DIV PUSH2 0xFFFF AND PUSH2 0x423 JUMP JUMPDEST CALLVALUE DUP1 ISZERO PUSH2 0x532 JUMPI PUSH1 0x0 DUP1 REVERT JUMPDEST POP PUSH2 0x546 PUSH2 0x541 CALLDATASIZE PUSH1 0x4 PUSH2 0x2C00 JUMP JUMPDEST PUSH2 0x1CBE JUMP JUMPDEST PUSH1 0x40 DUP1 MLOAD PUSH20 0xFFFFFFFFFFFFFFFFFFFFFFFFFFFFFFFFFFFFFFFF SWAP1 SWAP9 AND DUP9 MSTORE PUSH4 0xFFFFFFFF SWAP7 DUP8 AND PUSH1 0x20 DUP10 ADD MSTORE SWAP5 DUP7 AND SWAP5 DUP8 ADD SWAP5 SWAP1 SWAP5 MSTORE SWAP2 DUP5 AND PUSH1 0x60 DUP7 ADD MSTORE DUP4 AND PUSH1 0x80 DUP6 ADD MSTORE ISZERO ISZERO PUSH1 0xA0 DUP5 ADD MSTORE AND PUSH1 0xC0 DUP3 ADD MSTORE PUSH1 0xE0 ADD PUSH2 0x2F5 JUMP JUMPDEST CALLVALUE DUP1 ISZERO PUSH2 0x5AB JUMPI PUSH1 0x0 DUP1 REVERT JUMPDEST POP PUSH2 0x2E9 PUSH2 0x5BA CALLDATASIZE PUSH1 0x4 PUSH2 0x2C1D JUMP JUMPDEST PUSH2 0x1DDE JUMP JUMPDEST CALLVALUE DUP1 ISZERO PUSH2 0x5CB JUMPI PUSH1 0x0 DUP1 REVERT JUMPDEST POP PUSH1 0x0 SLOAD PUSH5 0x100000000 SWAP1 DIV PUSH4 0xFFFFFFFF AND PUSH2 0x39D JUMP JUMPDEST CALLVALUE DUP1 ISZERO PUSH2 0x5EE JUMPI PUSH1 0x0 DUP1 REVERT JUMPDEST POP PUSH2 0x2E9 PUSH2 0x5FD CALLDATASIZE PUSH1 0x4 PUSH2 0x2AF3 JUMP JUMPDEST PUSH2 0x2238 JUMP JUMPDEST CALLVALUE DUP1 ISZERO PUSH2 0x60E JUMPI PUSH1 0x0 DUP1 REVERT JUMPDEST POP PUSH2 0x2E9 PUSH2 0x61D CALLDATASIZE PUSH1 0x4 PUSH2 0x2ABE JUMP JUMPDEST PUSH2 0x23D2 JUMP JUMPDEST PUSH1 0x0 CALLER PUSH20 0xFFFFFFFFFFFFFFFFFFFFFFFFFFFFFFFFFFFFFFFF AND PUSH20 0x163342FAE2BBE3303E5A9ADCE4BC9FB44D0FF062 PUSH20 0xFFFFFFFFFFFFFFFFFFFFFFFFFFFFFFFFFFFFFFFF AND PUSH4 0xB4A99A4E PUSH1 0x40 MLOAD DUP2 PUSH4 0xFFFFFFFF AND PUSH1 0xE0 SHL DUP2 MSTORE PUSH1 0x4 ADD PUSH1 0x20 PUSH1 0x40 MLOAD DUP1 DUP4 SUB DUP2 DUP7 GAS STATICCALL ISZERO DUP1 ISZERO PUSH2 0x69A JUMPI RETURNDATASIZE PUSH1 0x0 DUP1 RETURNDATACOPY RETURNDATASIZE PUSH1 0x0 REVERT JUMPDEST POP POP POP POP PUSH1 0x40 MLOAD RETURNDATASIZE PUSH1 0x1F NOT PUSH1 0x1F DUP3 ADD AND DUP3 ADD DUP1 PUSH1 0x40 MSTORE POP DUP2 ADD SWAP1 PUSH2 0x6BE SWAP2 SWAP1 PUSH2 0x2A8D JUMP JUMPDEST PUSH20 0xFFFFFFFFFFFFFFFFFFFFFFFFFFFFFFFFFFFFFFFF AND EQ PUSH2 0x721 JUMPI PUSH1 0x40 MLOAD PUSH3 0x461BCD PUSH1 0xE5 SHL DUP2 MSTORE PUSH1 0x20 PUSH1 0x4 DUP3 ADD MSTORE PUSH1 0xA PUSH1 0x24 DUP3 ADD MSTORE PUSH32 0x4F776E6572206F6E6C7900000000000000000000000000000000000000000000 PUSH1 0x44 DUP3 ADD MSTORE PUSH1 0x64 ADD PUSH2 0x2C0 JUMP JUMPDEST DUP3 EXTCODESIZE PUSH4 0xFFFFFFFF DUP2 AND ISZERO PUSH2 0x777 JUMPI PUSH1 0x40 MLOAD PUSH3 0x461BCD PUSH1 0xE5 SHL DUP2 MSTORE PUSH1 0x20 PUSH1 0x4 DUP3 ADD MSTORE PUSH1 0x1F PUSH1 0x24 DUP3 ADD MSTORE PUSH32 0x436F6E7472616374732063616E206E6F74206265207375627363726962656400 PUSH1 0x44 DUP3 ADD MSTORE PUSH1 0x64 ADD PUSH2 0x2C0 JUMP JUMPDEST PUSH20 0xFFFFFFFFFFFFFFFFFFFFFFFFFFFFFFFFFFFFFFFF DUP5 AND PUSH1 0x0 SWAP1 DUP2 MSTORE PUSH1 0x3 PUSH1 0x20 MSTORE PUSH1 0x40 SWAP1 KECCAK256 DUP1 SLOAD TIMESTAMP SWAP1 PUSH4 0xFFFFFFFF PUSH29 0x100000000000000000000000000000000000000000000000000000000 SWAP1 SWAP2 DIV DUP2 AND SWAP1 DUP3 AND GT ISZERO PUSH2 0x85D JUMPI PUSH2 0x7DE DUP6 PUSH3 0x15180 PUSH2 0x2C78 JUMP JUMPDEST PUSH2 0x7E8 SWAP1 DUP3 PUSH2 0x2C98 JUMP JUMPDEST DUP3 SLOAD PUSH28 0xFFFFFFFF00000000FFFFFFFFFFFFFFFFFFFFFFFFFFFFFFFFFFFFFFFF AND PUSH29 0x100000000000000000000000000000000000000000000000000000000 PUSH4 0xFFFFFFFF SWAP3 SWAP1 SWAP3 AND SWAP2 SWAP1 SWAP2 MUL PUSH32 0xFFFFFFFFFFFFFFFF00000000FFFFFFFFFFFFFFFFFFFFFFFFFFFFFFFFFFFFFFFF AND OR DUP3 SSTORE PUSH2 0x8C1 JUMP JUMPDEST PUSH2 0x86A DUP6 PUSH3 0x15180 PUSH2 0x2C78 JUMP JUMPDEST DUP3 SLOAD DUP4 SWAP1 PUSH1 0x1C SWAP1 PUSH2 0x8A2 SWAP1 DUP5 SWAP1 PUSH29 0x100000000000000000000000000000000000000000000000000000000 SWAP1 DIV PUSH4 0xFFFFFFFF AND PUSH2 0x2C98 JUMP JUMPDEST SWAP3 POP PUSH2 0x100 EXP DUP2 SLOAD DUP2 PUSH4 0xFFFFFFFF MUL NOT AND SWAP1 DUP4 PUSH4 0xFFFFFFFF AND MUL OR SWAP1 SSTORE POP JUMPDEST PUSH2 0x8CE DUP2 PUSH3 0x9E3400 PUSH2 0x2C98 JUMP JUMPDEST DUP3 SLOAD PUSH4 0xFFFFFFFF SWAP2 DUP3 AND PUSH29 0x100000000000000000000000000000000000000000000000000000000 SWAP1 SWAP2 DIV SWAP1 SWAP2 AND GT ISZERO PUSH2 0x970 JUMPI PUSH1 0x40 MLOAD PUSH3 0x461BCD PUSH1 0xE5 SHL DUP2 MSTORE PUSH1 0x20 PUSH1 0x4 DUP3 ADD MSTORE PUSH1 0x2A PUSH1 0x24 DUP3 ADD MSTORE PUSH32 0x546F74616C20737562736372697074696F6E2063616E206E6F74206578636565 PUSH1 0x44 DUP3 ADD MSTORE PUSH32 0x6420313230206461797300000000000000000000000000000000000000000000 PUSH1 0x64 DUP3 ADD MSTORE PUSH1 0x84 ADD PUSH2 0x2C0 JUMP JUMPDEST PUSH1 0x0 SLOAD PUSH2 0x996 SWAP1 PUSH13 0x1000000000000000000000000 SWAP1 DIV PUSH4 0xFFFFFFFF AND PUSH3 0x15180 PUSH2 0x2C78 JUMP JUMPDEST DUP3 SLOAD PUSH2 0x9C8 SWAP2 SWAP1 PUSH29 0x100000000000000000000000000000000000000000000000000000000 SWAP1 DIV PUSH4 0xFFFFFFFF AND PUSH2 0x2C98 JUMP JUMPDEST DUP3 SLOAD PUSH32 0xFFFFFFFF00000000FFFFFFFFFFFFFFFFFFFFFFFFFFFFFFFFFFFFFFFFFFFFFFFF AND PUSH25 0x1000000000000000000000000000000000000000000000000 PUSH4 0xFFFFFFFF SWAP3 DUP4 AND MUL OR DUP4 SSTORE PUSH1 0x40 DUP1 MLOAD PUSH20 0xFFFFFFFFFFFFFFFFFFFFFFFFFFFFFFFFFFFFFFFF DUP10 AND DUP2 MSTORE SWAP2 DUP8 AND PUSH1 0x20 DUP4 ADD MSTORE PUSH32 0x3166E9F81AAEF1A4E6F43B85DB3916FDE6E3F485A575555E583C0A47DFC4D5E7 SWAP2 ADD PUSH1 0x40 MLOAD DUP1 SWAP2 SUB SWAP1 LOG1 PUSH1 0x1 SWAP4 POP POP POP POP JUMPDEST SWAP3 SWAP2 POP POP JUMP JUMPDEST PUSH1 0x0 CALLER PUSH20 0xFFFFFFFFFFFFFFFFFFFFFFFFFFFFFFFFFFFFFFFF AND PUSH20 0x163342FAE2BBE3303E5A9ADCE4BC9FB44D0FF062 PUSH20 0xFFFFFFFFFFFFFFFFFFFFFFFFFFFFFFFFFFFFFFFF AND PUSH4 0xB4A99A4E PUSH1 0x40 MLOAD DUP2 PUSH4 0xFFFFFFFF AND PUSH1 0xE0 SHL DUP2 MSTORE PUSH1 0x4 ADD PUSH1 0x20 PUSH1 0x40 MLOAD DUP1 DUP4 SUB DUP2 DUP7 GAS STATICCALL ISZERO DUP1 ISZERO PUSH2 0xAE8 JUMPI RETURNDATASIZE PUSH1 0x0 DUP1 RETURNDATACOPY RETURNDATASIZE PUSH1 0x0 REVERT JUMPDEST POP POP POP POP PUSH1 0x40 MLOAD RETURNDATASIZE PUSH1 0x1F NOT PUSH1 0x1F DUP3 ADD AND DUP3 ADD DUP1 PUSH1 0x40 MSTORE POP DUP2 ADD SWAP1 PUSH2 0xB0C SWAP2 SWAP1 PUSH2 0x2A8D JUMP JUMPDEST PUSH20 0xFFFFFFFFFFFFFFFFFFFFFFFFFFFFFFFFFFFFFFFF AND EQ PUSH2 0xB6F JUMPI PUSH1 0x40 MLOAD PUSH3 0x461BCD PUSH1 0xE5 SHL DUP2 MSTORE PUSH1 0x20 PUSH1 0x4 DUP3 ADD MSTORE PUSH1 0xA PUSH1 0x24 DUP3 ADD MSTORE PUSH32 0x4F776E6572206F6E6C7900000000000000000000000000000000000000000000 PUSH1 0x44 DUP3 ADD MSTORE PUSH1 0x64 ADD PUSH2 0x2C0 JUMP JUMPDEST DUP2 PUSH4 0xFFFFFFFF AND PUSH1 0x0 SUB PUSH2 0xBC5 JUMPI PUSH1 0x40 MLOAD PUSH3 0x461BCD PUSH1 0xE5 SHL DUP2 MSTORE PUSH1 0x20 PUSH1 0x4 DUP3 ADD MSTORE PUSH1 0x12 PUSH1 0x24 DUP3 ADD MSTORE PUSH32 0x5A65726F20737562736372697074696F6E730000000000000000000000000000 PUSH1 0x44 DUP3 ADD MSTORE PUSH1 0x64 ADD PUSH2 0x2C0 JUMP JUMPDEST POP PUSH1 0x0 DUP1 SLOAD PUSH32 0xFFFFFFFFFFFFFFFFFFFFFFFFFFFFFFFFFFFFFFFFFFFFFFFF00000000FFFFFFFF AND PUSH5 0x100000000 PUSH4 0xFFFFFFFF DUP5 AND MUL OR SWAP1 SSTORE PUSH1 0x1 JUMPDEST SWAP2 SWAP1 POP JUMP JUMPDEST PUSH1 0x0 CALLER PUSH20 0xFFFFFFFFFFFFFFFFFFFFFFFFFFFFFFFFFFFFFFFF AND PUSH20 0x163342FAE2BBE3303E5A9ADCE4BC9FB44D0FF062 PUSH20 0xFFFFFFFFFFFFFFFFFFFFFFFFFFFFFFFFFFFFFFFF AND PUSH4 0xB4A99A4E PUSH1 0x40 MLOAD DUP2 PUSH4 0xFFFFFFFF AND PUSH1 0xE0 SHL DUP2 MSTORE PUSH1 0x4 ADD PUSH1 0x20 PUSH1 0x40 MLOAD DUP1 DUP4 SUB DUP2 DUP7 GAS STATICCALL ISZERO DUP1 ISZERO PUSH2 0xC7D JUMPI RETURNDATASIZE PUSH1 0x0 DUP1 RETURNDATACOPY RETURNDATASIZE PUSH1 0x0 REVERT JUMPDEST POP POP POP POP PUSH1 0x40 MLOAD RETURNDATASIZE PUSH1 0x1F NOT PUSH1 0x1F DUP3 ADD AND DUP3 ADD DUP1 PUSH1 0x40 MSTORE POP DUP2 ADD SWAP1 PUSH2 0xCA1 SWAP2 SWAP1 PUSH2 0x2A8D JUMP JUMPDEST PUSH20 0xFFFFFFFFFFFFFFFFFFFFFFFFFFFFFFFFFFFFFFFF AND EQ PUSH2 0xD04 JUMPI PUSH1 0x40 MLOAD PUSH3 0x461BCD PUSH1 0xE5 SHL DUP2 MSTORE PUSH1 0x20 PUSH1 0x4 DUP3 ADD MSTORE PUSH1 0xA PUSH1 0x24 DUP3 ADD MSTORE PUSH32 0x4F776E6572206F6E6C7900000000000000000000000000000000000000000000 PUSH1 0x44 DUP3 ADD MSTORE PUSH1 0x64 ADD PUSH2 0x2C0 JUMP JUMPDEST DUP2 PUSH2 0xFFFF AND PUSH1 0x0 SUB PUSH2 0xD58 JUMPI PUSH1 0x40 MLOAD PUSH3 0x461BCD PUSH1 0xE5 SHL DUP2 MSTORE PUSH1 0x20 PUSH1 0x4 DUP3 ADD MSTORE PUSH1 0x8 PUSH1 0x24 DUP3 ADD MSTORE PUSH32 0x5A65726F20555344000000000000000000000000000000000000000000000000 PUSH1 0x44 DUP3 ADD MSTORE PUSH1 0x64 ADD PUSH2 0x2C0 JUMP JUMPDEST POP PUSH1 0x0 DUP1 SLOAD PUSH2 0xFFFF DUP4 AND PUSH17 0x100000000000000000000000000000000 MUL PUSH32 0xFFFFFFFFFFFFFFFFFFFFFFFFFFFF0000FFFFFFFFFFFFFFFFFFFFFFFFFFFFFFFF SWAP1 SWAP2 AND OR SWAP1 SSTORE PUSH1 0x1 SWAP2 SWAP1 POP JUMP JUMPDEST PUSH1 0x0 CALLER PUSH20 0xFFFFFFFFFFFFFFFFFFFFFFFFFFFFFFFFFFFFFFFF AND PUSH20 0x163342FAE2BBE3303E5A9ADCE4BC9FB44D0FF062 PUSH20 0xFFFFFFFFFFFFFFFFFFFFFFFFFFFFFFFFFFFFFFFF AND PUSH4 0xB4A99A4E PUSH1 0x40 MLOAD DUP2 PUSH4 0xFFFFFFFF AND PUSH1 0xE0 SHL DUP2 MSTORE PUSH1 0x4 ADD PUSH1 0x20 PUSH1 0x40 MLOAD DUP1 DUP4 SUB DUP2 DUP7 GAS STATICCALL ISZERO DUP1 ISZERO PUSH2 0xE1B JUMPI RETURNDATASIZE PUSH1 0x0 DUP1 RETURNDATACOPY RETURNDATASIZE PUSH1 0x0 REVERT JUMPDEST POP POP POP POP PUSH1 0x40 MLOAD RETURNDATASIZE PUSH1 0x1F NOT PUSH1 0x1F DUP3 ADD AND DUP3 ADD DUP1 PUSH1 0x40 MSTORE POP DUP2 ADD SWAP1 PUSH2 0xE3F SWAP2 SWAP1 PUSH2 0x2A8D JUMP JUMPDEST PUSH20 0xFFFFFFFFFFFFFFFFFFFFFFFFFFFFFFFFFFFFFFFF AND EQ PUSH2 0xEA2 JUMPI PUSH1 0x40 MLOAD PUSH3 0x461BCD PUSH1 0xE5 SHL DUP2 MSTORE PUSH1 0x20 PUSH1 0x4 DUP3 ADD MSTORE PUSH1 0xA PUSH1 0x24 DUP3 ADD MSTORE PUSH32 0x4F776E6572206F6E6C7900000000000000000000000000000000000000000000 PUSH1 0x44 DUP3 ADD MSTORE PUSH1 0x64 ADD PUSH2 0x2C0 JUMP JUMPDEST PUSH1 0x0 SLOAD DUP3 ISZERO ISZERO PUSH1 0xFF SWAP1 SWAP2 AND ISZERO ISZERO SUB PUSH2 0xF4E JUMPI DUP2 ISZERO ISZERO PUSH1 0x1 SUB PUSH2 0xF06 JUMPI PUSH1 0x40 MLOAD PUSH3 0x461BCD PUSH1 0xE5 SHL DUP2 MSTORE PUSH1 0x20 PUSH1 0x4 DUP3 ADD MSTORE PUSH1 0xF PUSH1 0x24 DUP3 ADD MSTORE PUSH32 0x416C726561647920616C6C6F7765640000000000000000000000000000000000 PUSH1 0x44 DUP3 ADD MSTORE PUSH1 0x64 ADD PUSH2 0x2C0 JUMP JUMPDEST PUSH1 0x40 MLOAD PUSH3 0x461BCD PUSH1 0xE5 SHL DUP2 MSTORE PUSH1 0x20 PUSH1 0x4 DUP3 ADD MSTORE PUSH1 0x12 PUSH1 0x24 DUP3 ADD MSTORE PUSH32 0x416C726561647920646973616C6C6F7765640000000000000000000000000000 PUSH1 0x44 DUP3 ADD MSTORE PUSH1 0x64 ADD PUSH2 0x2C0 JUMP JUMPDEST POP PUSH1 0x0 DUP1 SLOAD PUSH32 0xFFFFFFFFFFFFFFFFFFFFFFFFFFFFFFFFFFFFFFFFFFFFFFFFFFFFFFFFFFFFFF00 AND SWAP2 ISZERO ISZERO SWAP2 SWAP1 SWAP2 OR SWAP1 SSTORE PUSH1 0x1 SWAP1 JUMP JUMPDEST PUSH1 0x0 CALLER PUSH20 0xFFFFFFFFFFFFFFFFFFFFFFFFFFFFFFFFFFFFFFFF AND PUSH20 0x163342FAE2BBE3303E5A9ADCE4BC9FB44D0FF062 PUSH20 0xFFFFFFFFFFFFFFFFFFFFFFFFFFFFFFFFFFFFFFFF AND PUSH4 0xB4A99A4E PUSH1 0x40 MLOAD DUP2 PUSH4 0xFFFFFFFF AND PUSH1 0xE0 SHL DUP2 MSTORE PUSH1 0x4 ADD PUSH1 0x20 PUSH1 0x40 MLOAD DUP1 DUP4 SUB DUP2 DUP7 GAS STATICCALL ISZERO DUP1 ISZERO PUSH2 0xFFB JUMPI RETURNDATASIZE PUSH1 0x0 DUP1 RETURNDATACOPY RETURNDATASIZE PUSH1 0x0 REVERT JUMPDEST POP POP POP POP PUSH1 0x40 MLOAD RETURNDATASIZE PUSH1 0x1F NOT PUSH1 0x1F DUP3 ADD AND DUP3 ADD DUP1 PUSH1 0x40 MSTORE POP DUP2 ADD SWAP1 PUSH2 0x101F SWAP2 SWAP1 PUSH2 0x2A8D JUMP JUMPDEST PUSH20 0xFFFFFFFFFFFFFFFFFFFFFFFFFFFFFFFFFFFFFFFF AND EQ PUSH2 0x1082 JUMPI PUSH1 0x40 MLOAD PUSH3 0x461BCD PUSH1 0xE5 SHL DUP2 MSTORE PUSH1 0x20 PUSH1 0x4 DUP3 ADD MSTORE PUSH1 0xA PUSH1 0x24 DUP3 ADD MSTORE PUSH32 0x4F776E6572206F6E6C7900000000000000000000000000000000000000000000 PUSH1 0x44 DUP3 ADD MSTORE PUSH1 0x64 ADD PUSH2 0x2C0 JUMP JUMPDEST DUP2 PUSH4 0xFFFFFFFF AND PUSH1 0x0 SUB PUSH2 0x10D8 JUMPI PUSH1 0x40 MLOAD PUSH3 0x461BCD PUSH1 0xE5 SHL DUP2 MSTORE PUSH1 0x20 PUSH1 0x4 DUP3 ADD MSTORE PUSH1 0x9 PUSH1 0x24 DUP3 ADD MSTORE PUSH32 0x5A65726F20646179730000000000000000000000000000000000000000000000 PUSH1 0x44 DUP3 ADD MSTORE PUSH1 0x64 ADD PUSH2 0x2C0 JUMP JUMPDEST POP PUSH1 0x0 DUP1 SLOAD PUSH4 0xFFFFFFFF DUP4 AND PUSH13 0x1000000000000000000000000 MUL PUSH32 0xFFFFFFFFFFFFFFFFFFFFFFFFFFFFFFFF00000000FFFFFFFFFFFFFFFFFFFFFFFF SWAP1 SWAP2 AND OR SWAP1 SSTORE PUSH1 0x1 SWAP2 SWAP1 POP JUMP JUMPDEST PUSH1 0x0 DUP1 SLOAD PUSH2 0x100 SWAP1 DIV PUSH1 0xFF AND ISZERO ISZERO PUSH1 0x1 SUB PUSH2 0x117E JUMPI PUSH1 0x40 MLOAD PUSH3 0x461BCD PUSH1 0xE5 SHL DUP2 MSTORE PUSH1 0x20 PUSH1 0x4 DUP3 ADD MSTORE PUSH1 0x11 PUSH1 0x24 DUP3 ADD MSTORE PUSH32 0x5265656E7472616E6365206661696C6564000000000000000000000000000000 PUSH1 0x44 DUP3 ADD MSTORE PUSH1 0x64 ADD PUSH2 0x2C0 JUMP JUMPDEST PUSH1 0x0 DUP1 SLOAD PUSH32 0xFFFFFFFFFFFFFFFFFFFFFFFFFFFFFFFFFFFFFFFFFFFFFFFFFFFFFFFFFFFF00FF DUP2 AND PUSH2 0x100 OR SWAP1 SWAP2 SSTORE PUSH1 0xFF AND ISZERO ISZERO PUSH1 0x1 EQ PUSH2 0x1200 JUMPI PUSH1 0x40 MLOAD PUSH3 0x461BCD PUSH1 0xE5 SHL DUP2 MSTORE PUSH1 0x20 PUSH1 0x4 DUP3 ADD MSTORE PUSH1 0x14 PUSH1 0x24 DUP3 ADD MSTORE PUSH32 0x5375627363726962696E672064697361626C6564000000000000000000000000 PUSH1 0x44 DUP3 ADD MSTORE PUSH1 0x64 ADD PUSH2 0x2C0 JUMP JUMPDEST CALLVALUE PUSH1 0x0 SUB PUSH2 0x1250 JUMPI PUSH1 0x40 MLOAD PUSH3 0x461BCD PUSH1 0xE5 SHL DUP2 MSTORE PUSH1 0x20 PUSH1 0x4 DUP3 ADD MSTORE PUSH1 0x14 PUSH1 0x24 DUP3 ADD MSTORE PUSH32 0x4D4154494320616D6F756E74206973207A65726F000000000000000000000000 PUSH1 0x44 DUP3 ADD MSTORE PUSH1 0x64 ADD PUSH2 0x2C0 JUMP JUMPDEST CALLER DUP1 EXTCODESIZE SWAP1 PUSH4 0xFFFFFFFF DUP3 AND ISZERO PUSH2 0x12A8 JUMPI PUSH1 0x40 MLOAD PUSH3 0x461BCD PUSH1 0xE5 SHL DUP2 MSTORE PUSH1 0x20 PUSH1 0x4 DUP3 ADD MSTORE PUSH1 0x1B PUSH1 0x24 DUP3 ADD MSTORE PUSH32 0x436F6E7472616374732063616E206E6F74207375627363726962650000000000 PUSH1 0x44 DUP3 ADD MSTORE PUSH1 0x64 ADD PUSH2 0x2C0 JUMP JUMPDEST PUSH2 0x12B0 PUSH2 0x27BD JUMP JUMPDEST ISZERO ISZERO PUSH1 0x1 EQ PUSH2 0x1301 JUMPI PUSH1 0x40 MLOAD PUSH3 0x461BCD PUSH1 0xE5 SHL DUP2 MSTORE PUSH1 0x20 PUSH1 0x4 DUP3 ADD MSTORE PUSH1 0x1F PUSH1 0x24 DUP3 ADD MSTORE PUSH32 0x4D4154494320746F20555344204F7261636C6520756E617661696C61626C6500 PUSH1 0x44 DUP3 ADD MSTORE PUSH1 0x64 ADD PUSH2 0x2C0 JUMP JUMPDEST PUSH2 0x130A CALLVALUE PUSH2 0x29C7 JUMP JUMPDEST PUSH1 0x0 SLOAD PUSH4 0xFFFFFFFF SWAP2 SWAP1 SWAP2 AND SWAP1 PUSH2 0x132B SWAP1 PUSH3 0x10000 SWAP1 DIV PUSH2 0xFFFF AND DUP8 PUSH2 0x2C78 JUMP JUMPDEST PUSH4 0xFFFFFFFF AND GT ISZERO PUSH2 0x137F JUMPI PUSH1 0x40 MLOAD PUSH3 0x461BCD PUSH1 0xE5 SHL DUP2 MSTORE PUSH1 0x20 PUSH1 0x4 DUP3 ADD MSTORE PUSH1 0x19 PUSH1 0x24 DUP3 ADD MSTORE PUSH32 0x4D4154494320616D6F756E7420696E73756666696369656E7400000000000000 PUSH1 0x44 DUP3 ADD MSTORE PUSH1 0x64 ADD PUSH2 0x2C0 JUMP JUMPDEST PUSH20 0xFFFFFFFFFFFFFFFFFFFFFFFFFFFFFFFFFFFFFFFF DUP2 AND PUSH1 0x0 SWAP1 DUP2 MSTORE PUSH1 0x3 PUSH1 0x20 MSTORE PUSH1 0x40 SWAP1 KECCAK256 PUSH1 0x1 DUP2 ADD SLOAD PUSH4 0xFFFFFFFF AND ISZERO DUP1 ISZERO PUSH2 0x13E1 JUMPI POP DUP1 SLOAD PUSH29 0x100000000000000000000000000000000000000000000000000000000 SWAP1 DIV PUSH4 0xFFFFFFFF AND ISZERO JUMPDEST ISZERO PUSH2 0x15A8 JUMPI DUP5 PUSH20 0xFFFFFFFFFFFFFFFFFFFFFFFFFFFFFFFFFFFFFFFF AND DUP3 PUSH20 0xFFFFFFFFFFFFFFFFFFFFFFFFFFFFFFFFFFFFFFFF AND EQ ISZERO DUP1 ISZERO PUSH2 0x1437 JUMPI POP PUSH20 0xFFFFFFFFFFFFFFFFFFFFFFFFFFFFFFFFFFFFFFFF DUP6 AND ISZERO ISZERO JUMPDEST ISZERO PUSH2 0x152B JUMPI DUP5 EXTCODESIZE SWAP3 POP PUSH4 0xFFFFFFFF DUP4 AND ISZERO PUSH2 0x1494 JUMPI PUSH1 0x40 MLOAD PUSH3 0x461BCD PUSH1 0xE5 SHL DUP2 MSTORE PUSH1 0x20 PUSH1 0x4 DUP3 ADD MSTORE PUSH1 0x14 PUSH1 0x24 DUP3 ADD MSTORE PUSH32 0x526566657272657220697320636F6E7472616374000000000000000000000000 PUSH1 0x44 DUP3 ADD MSTORE PUSH1 0x64 ADD PUSH2 0x2C0 JUMP JUMPDEST PUSH20 0xFFFFFFFFFFFFFFFFFFFFFFFFFFFFFFFFFFFFFFFF DUP6 AND PUSH1 0x0 SWAP1 DUP2 MSTORE PUSH1 0x4 PUSH1 0x20 MSTORE PUSH1 0x40 DUP2 KECCAK256 DUP1 SLOAD PUSH4 0xFFFFFFFF AND SWAP2 PUSH2 0x14CB DUP4 PUSH2 0x2CBC JUMP JUMPDEST DUP3 SLOAD PUSH2 0x100 SWAP3 SWAP1 SWAP3 EXP PUSH4 0xFFFFFFFF DUP2 DUP2 MUL NOT SWAP1 SWAP4 AND SWAP2 SWAP1 SWAP3 AND SWAP2 SWAP1 SWAP2 MUL OR SWAP1 SSTORE POP DUP1 SLOAD PUSH32 0xFFFFFFFFFFFFFFFFFFFFFFFF0000000000000000000000000000000000000000 AND PUSH20 0xFFFFFFFFFFFFFFFFFFFFFFFFFFFFFFFFFFFFFFFF DUP7 AND OR DUP2 SSTORE JUMPDEST PUSH1 0xF DUP7 PUSH4 0xFFFFFFFF AND LT ISZERO PUSH2 0x15A8 JUMPI PUSH1 0x40 MLOAD PUSH3 0x461BCD PUSH1 0xE5 SHL DUP2 MSTORE PUSH1 0x20 PUSH1 0x4 DUP3 ADD MSTORE PUSH1 0x2D PUSH1 0x24 DUP3 ADD MSTORE PUSH32 0x466972737420737562736372697074696F6E2073686F756C6420626520617420 PUSH1 0x44 DUP3 ADD MSTORE PUSH32 0x6C65617374203135206461797300000000000000000000000000000000000000 PUSH1 0x64 DUP3 ADD MSTORE PUSH1 0x84 ADD PUSH2 0x2C0 JUMP JUMPDEST DUP1 SLOAD TIMESTAMP SWAP1 PUSH4 0xFFFFFFFF PUSH29 0x100000000000000000000000000000000000000000000000000000000 SWAP1 SWAP2 DIV DUP2 AND SWAP1 DUP3 AND GT ISZERO PUSH2 0x1669 JUMPI PUSH2 0x15EA DUP8 PUSH3 0x15180 PUSH2 0x2C78 JUMP JUMPDEST PUSH2 0x15F4 SWAP1 DUP3 PUSH2 0x2C98 JUMP JUMPDEST DUP3 SLOAD PUSH28 0xFFFFFFFF00000000FFFFFFFFFFFFFFFFFFFFFFFFFFFFFFFFFFFFFFFF AND PUSH29 0x100000000000000000000000000000000000000000000000000000000 PUSH4 0xFFFFFFFF SWAP3 SWAP1 SWAP3 AND SWAP2 SWAP1 SWAP2 MUL PUSH32 0xFFFFFFFFFFFFFFFF00000000FFFFFFFFFFFFFFFFFFFFFFFFFFFFFFFFFFFFFFFF AND OR DUP3 SSTORE PUSH2 0x16CD JUMP JUMPDEST PUSH2 0x1676 DUP8 PUSH3 0x15180 PUSH2 0x2C78 JUMP JUMPDEST DUP3 SLOAD DUP4 SWAP1 PUSH1 0x1C SWAP1 PUSH2 0x16AE SWAP1 DUP5 SWAP1 PUSH29 0x100000000000000000000000000000000000000000000000000000000 SWAP1 DIV PUSH4 0xFFFFFFFF AND PUSH2 0x2C98 JUMP JUMPDEST SWAP3 POP PUSH2 0x100 EXP DUP2 SLOAD DUP2 PUSH4 0xFFFFFFFF MUL NOT AND SWAP1 DUP4 PUSH4 0xFFFFFFFF AND MUL OR SWAP1 SSTORE POP JUMPDEST PUSH2 0x16DA DUP2 PUSH3 0x9E3400 PUSH2 0x2C98 JUMP JUMPDEST DUP3 SLOAD PUSH4 0xFFFFFFFF SWAP2 DUP3 AND PUSH29 0x100000000000000000000000000000000000000000000000000000000 SWAP1 SWAP2 DIV SWAP1 SWAP2 AND GT ISZERO PUSH2 0x177C JUMPI PUSH1 0x40 MLOAD PUSH3 0x461BCD PUSH1 0xE5 SHL DUP2 MSTORE PUSH1 0x20 PUSH1 0x4 DUP3 ADD MSTORE PUSH1 0x2A PUSH1 0x24 DUP3 ADD MSTORE PUSH32 0x546F74616C20737562736372697074696F6E2063616E206E6F74206578636565 PUSH1 0x44 DUP3 ADD MSTORE PUSH32 0x6420313230206461797300000000000000000000000000000000000000000000 PUSH1 0x64 DUP3 ADD MSTORE PUSH1 0x84 ADD PUSH2 0x2C0 JUMP JUMPDEST PUSH1 0x0 SLOAD PUSH2 0x17A2 SWAP1 PUSH13 0x1000000000000000000000000 SWAP1 DIV PUSH4 0xFFFFFFFF AND PUSH3 0x15180 PUSH2 0x2C78 JUMP JUMPDEST DUP3 SLOAD PUSH2 0x17D4 SWAP2 SWAP1 PUSH29 0x100000000000000000000000000000000000000000000000000000000 SWAP1 DIV PUSH4 0xFFFFFFFF AND PUSH2 0x2C98 JUMP JUMPDEST DUP3 SLOAD PUSH4 0xFFFFFFFF SWAP2 SWAP1 SWAP2 AND PUSH25 0x1000000000000000000000000000000000000000000000000 MUL PUSH32 0xFFFFFFFF00000000FFFFFFFFFFFFFFFFFFFFFFFFFFFFFFFFFFFFFFFFFFFFFFFF SWAP1 SWAP2 AND OR DUP3 SSTORE PUSH1 0x0 PUSH2 0x182C DUP9 PUSH2 0x2A13 JUMP JUMPDEST SWAP1 POP PUSH1 0x0 PUSH2 0x183A DUP3 CALLVALUE PUSH2 0x2CDF JUMP JUMPDEST DUP5 SLOAD SWAP1 SWAP2 POP PUSH20 0xFFFFFFFFFFFFFFFFFFFFFFFFFFFFFFFFFFFFFFFF AND ISZERO PUSH2 0x1925 JUMPI PUSH2 0x1865 PUSH1 0xA DUP4 PUSH2 0x2D21 JUMP JUMPDEST PUSH2 0x186F SWAP1 DUP3 PUSH2 0x2D35 JUMP JUMPDEST PUSH1 0x0 DUP1 SLOAD DUP7 SLOAD PUSH20 0xFFFFFFFFFFFFFFFFFFFFFFFFFFFFFFFFFFFFFFFF AND DUP3 MSTORE PUSH1 0x4 PUSH1 0x20 MSTORE PUSH1 0x40 SWAP1 SWAP2 KECCAK256 SLOAD SWAP2 SWAP3 POP PUSH4 0xFFFFFFFF PUSH5 0x100000000 SWAP1 SWAP2 DIV DUP2 AND SWAP2 AND LT PUSH2 0x1925 JUMPI DUP4 SLOAD PUSH20 0xFFFFFFFFFFFFFFFFFFFFFFFFFFFFFFFFFFFFFFFF AND PUSH1 0x64 PUSH2 0x18D6 DUP4 CALLVALUE PUSH2 0x2CDF JUMP JUMPDEST PUSH2 0x18E0 SWAP2 SWAP1 PUSH2 0x2D21 JUMP JUMPDEST PUSH1 0x40 MLOAD PUSH1 0x0 DUP2 DUP2 DUP2 DUP6 DUP8 GAS CALL SWAP3 POP POP POP RETURNDATASIZE DUP1 PUSH1 0x0 DUP2 EQ PUSH2 0x191C JUMPI PUSH1 0x40 MLOAD SWAP2 POP PUSH1 0x1F NOT PUSH1 0x3F RETURNDATASIZE ADD AND DUP3 ADD PUSH1 0x40 MSTORE RETURNDATASIZE DUP3 MSTORE RETURNDATASIZE PUSH1 0x0 PUSH1 0x20 DUP5 ADD RETURNDATACOPY PUSH2 0x1921 JUMP JUMPDEST PUSH1 0x60 SWAP2 POP JUMPDEST POP POP POP JUMPDEST DUP1 ISZERO PUSH2 0x198A JUMPI PUSH1 0x40 MLOAD PUSH20 0xFFFFFFFFFFFFFFFFFFFFFFFFFFFFFFFFFFFFFFFF DUP7 AND SWAP1 DUP3 SWAP1 PUSH1 0x0 DUP2 DUP2 DUP2 DUP6 DUP8 GAS CALL SWAP3 POP POP POP RETURNDATASIZE DUP1 PUSH1 0x0 DUP2 EQ PUSH2 0x1981 JUMPI PUSH1 0x40 MLOAD SWAP2 POP PUSH1 0x1F NOT PUSH1 0x3F RETURNDATASIZE ADD AND DUP3 ADD PUSH1 0x40 MSTORE RETURNDATASIZE DUP3 MSTORE RETURNDATASIZE PUSH1 0x0 PUSH1 0x20 DUP5 ADD RETURNDATACOPY PUSH2 0x1986 JUMP JUMPDEST PUSH1 0x60 SWAP2 POP JUMPDEST POP POP POP JUMPDEST PUSH1 0x40 MLOAD PUSH32 0xC75FFD8600000000000000000000000000000000000000000000000000000000 DUP2 MSTORE PUSH1 0x20 PUSH1 0x4 DUP3 ADD MSTORE PUSH1 0x12 PUSH1 0x24 DUP3 ADD MSTORE PUSH32 0x2E436F72706F726174696F6E2E5661756C740000000000000000000000000000 PUSH1 0x44 DUP3 ADD MSTORE PUSH20 0x163342FAE2BBE3303E5A9ADCE4BC9FB44D0FF062 SWAP1 PUSH4 0xC75FFD86 SWAP1 PUSH1 0x64 ADD PUSH1 0x20 PUSH1 0x40 MLOAD DUP1 DUP4 SUB DUP2 DUP7 GAS STATICCALL ISZERO DUP1 ISZERO PUSH2 0x1A20 JUMPI RETURNDATASIZE PUSH1 0x0 DUP1 RETURNDATACOPY RETURNDATASIZE PUSH1 0x0 REVERT JUMPDEST POP POP POP POP PUSH1 0x40 MLOAD RETURNDATASIZE PUSH1 0x1F NOT PUSH1 0x1F DUP3 ADD AND DUP3 ADD DUP1 PUSH1 0x40 MSTORE POP DUP2 ADD SWAP1 PUSH2 0x1A44 SWAP2 SWAP1 PUSH2 0x2A8D JUMP JUMPDEST PUSH20 0xFFFFFFFFFFFFFFFFFFFFFFFFFFFFFFFFFFFFFFFF AND SELFBALANCE PUSH1 0x40 MLOAD PUSH1 0x0 PUSH1 0x40 MLOAD DUP1 DUP4 SUB DUP2 DUP6 DUP8 GAS CALL SWAP3 POP POP POP RETURNDATASIZE DUP1 PUSH1 0x0 DUP2 EQ PUSH2 0x1A9B JUMPI PUSH1 0x40 MLOAD SWAP2 POP PUSH1 0x1F NOT PUSH1 0x3F RETURNDATASIZE ADD AND DUP3 ADD PUSH1 0x40 MSTORE RETURNDATASIZE DUP3 MSTORE RETURNDATASIZE PUSH1 0x0 PUSH1 0x20 DUP5 ADD RETURNDATACOPY PUSH2 0x1AA0 JUMP JUMPDEST PUSH1 0x60 SWAP2 POP JUMPDEST POP POP PUSH1 0x0 DUP1 SLOAD PUSH32 0xFFFFFFFFFFFFFFFFFFFFFFFFFFFFFFFFFFFFFFFFFFFFFFFFFFFFFFFFFFFF00FF AND SWAP1 SSTORE POP PUSH1 0x40 DUP1 MLOAD PUSH20 0xFFFFFFFFFFFFFFFFFFFFFFFFFFFFFFFFFFFFFFFF DUP8 AND DUP2 MSTORE PUSH4 0xFFFFFFFF DUP12 AND PUSH1 0x20 DUP3 ADD MSTORE PUSH32 0x427F72B0A0AA45072E2B291B62327B82B019EEBF02629F3D1551B1618F97739B SWAP2 ADD PUSH1 0x40 MLOAD DUP1 SWAP2 SUB SWAP1 LOG1 POP PUSH1 0x1 SWAP9 SWAP8 POP POP POP POP POP POP POP POP JUMP JUMPDEST PUSH1 0x0 CALLER PUSH20 0xFFFFFFFFFFFFFFFFFFFFFFFFFFFFFFFFFFFFFFFF AND PUSH20 0x163342FAE2BBE3303E5A9ADCE4BC9FB44D0FF062 PUSH20 0xFFFFFFFFFFFFFFFFFFFFFFFFFFFFFFFFFFFFFFFF AND PUSH4 0xB4A99A4E PUSH1 0x40 MLOAD DUP2 PUSH4 0xFFFFFFFF AND PUSH1 0xE0 SHL DUP2 MSTORE PUSH1 0x4 ADD PUSH1 0x20 PUSH1 0x40 MLOAD DUP1 DUP4 SUB DUP2 DUP7 GAS STATICCALL ISZERO DUP1 ISZERO PUSH2 0x1BA6 JUMPI RETURNDATASIZE PUSH1 0x0 DUP1 RETURNDATACOPY RETURNDATASIZE PUSH1 0x0 REVERT JUMPDEST POP POP POP POP PUSH1 0x40 MLOAD RETURNDATASIZE PUSH1 0x1F NOT PUSH1 0x1F DUP3 ADD AND DUP3 ADD DUP1 PUSH1 0x40 MSTORE POP DUP2 ADD SWAP1 PUSH2 0x1BCA SWAP2 SWAP1 PUSH2 0x2A8D JUMP JUMPDEST PUSH20 0xFFFFFFFFFFFFFFFFFFFFFFFFFFFFFFFFFFFFFFFF AND EQ PUSH2 0x1C2D JUMPI PUSH1 0x40 MLOAD PUSH3 0x461BCD PUSH1 0xE5 SHL DUP2 MSTORE PUSH1 0x20 PUSH1 0x4 DUP3 ADD MSTORE PUSH1 0xA PUSH1 0x24 DUP3 ADD MSTORE PUSH32 0x4F776E6572206F6E6C7900000000000000000000000000000000000000000000 PUSH1 0x44 DUP3 ADD MSTORE PUSH1 0x64 ADD PUSH2 0x2C0 JUMP JUMPDEST DUP2 PUSH2 0xFFFF AND PUSH1 0x0 SUB PUSH2 0x1C81 JUMPI PUSH1 0x40 MLOAD PUSH3 0x461BCD PUSH1 0xE5 SHL DUP2 MSTORE PUSH1 0x20 PUSH1 0x4 DUP3 ADD MSTORE PUSH1 0x8 PUSH1 0x24 DUP3 ADD MSTORE PUSH32 0x5A65726F20555344000000000000000000000000000000000000000000000000 PUSH1 0x44 DUP3 ADD MSTORE PUSH1 0x64 ADD PUSH2 0x2C0 JUMP JUMPDEST POP PUSH1 0x0 DUP1 SLOAD PUSH2 0xFFFF DUP4 AND PUSH3 0x10000 MUL PUSH32 0xFFFFFFFFFFFFFFFFFFFFFFFFFFFFFFFFFFFFFFFFFFFFFFFFFFFFFFFF0000FFFF SWAP1 SWAP2 AND OR SWAP1 SSTORE PUSH1 0x1 SWAP2 SWAP1 POP JUMP JUMPDEST PUSH20 0xFFFFFFFFFFFFFFFFFFFFFFFFFFFFFFFFFFFFFFFF DUP1 DUP3 AND PUSH1 0x0 SWAP1 DUP2 MSTORE PUSH1 0x3 PUSH1 0x20 SWAP1 DUP2 MSTORE PUSH1 0x40 DUP1 DUP4 KECCAK256 DUP2 MLOAD PUSH1 0xA0 DUP2 ADD DUP4 MSTORE DUP2 SLOAD SWAP6 DUP7 AND DUP1 DUP3 MSTORE PUSH4 0xFFFFFFFF PUSH21 0x10000000000000000000000000000000000000000 DUP9 DIV DUP2 AND SWAP6 DUP4 ADD DUP7 SWAP1 MSTORE PUSH25 0x1000000000000000000000000000000000000000000000000 DUP9 DIV DUP2 AND SWAP5 DUP4 ADD DUP6 SWAP1 MSTORE PUSH29 0x100000000000000000000000000000000000000000000000000000000 SWAP1 SWAP8 DIV DUP8 AND PUSH1 0x60 DUP4 ADD DUP2 SWAP1 MSTORE PUSH1 0x1 SWAP1 SWAP4 ADD SLOAD DUP8 AND PUSH1 0x80 DUP4 ADD DUP2 SWAP1 MSTORE SWAP1 SWAP7 SWAP5 SWAP6 SWAP4 SWAP5 SWAP3 SWAP4 SWAP3 DUP4 SWAP3 SWAP1 TIMESTAMP SWAP1 DUP2 AND DUP7 LT ISZERO PUSH2 0x1D97 JUMPI PUSH1 0x0 PUSH2 0x1DAF JUMP JUMPDEST PUSH3 0x15180 PUSH2 0x1DA5 DUP3 DUP9 PUSH2 0x2D48 JUMP JUMPDEST PUSH2 0x1DAF SWAP2 SWAP1 PUSH2 0x2D65 JUMP JUMPDEST SWAP5 POP DUP1 PUSH4 0xFFFFFFFF AND DUP7 PUSH4 0xFFFFFFFF AND LT ISZERO PUSH2 0x1DCC JUMPI PUSH1 0x0 PUSH2 0x1DCF JUMP JUMPDEST PUSH1 0x1 JUMPDEST SWAP4 POP POP POP SWAP2 SWAP4 SWAP6 SWAP8 SWAP1 SWAP3 SWAP5 SWAP7 POP JUMP JUMPDEST PUSH1 0x40 MLOAD PUSH32 0xC75FFD8600000000000000000000000000000000000000000000000000000000 DUP2 MSTORE PUSH1 0x20 PUSH1 0x4 DUP3 ADD MSTORE PUSH1 0x12 PUSH1 0x24 DUP3 ADD MSTORE PUSH32 0x2E5061796D656E742E50726F636573736F720000000000000000000000000000 PUSH1 0x44 DUP3 ADD MSTORE PUSH1 0x0 SWAP1 CALLER SWAP1 PUSH20 0x163342FAE2BBE3303E5A9ADCE4BC9FB44D0FF062 SWAP1 PUSH4 0xC75FFD86 SWAP1 PUSH1 0x64 ADD PUSH1 0x20 PUSH1 0x40 MLOAD DUP1 DUP4 SUB DUP2 DUP7 GAS STATICCALL ISZERO DUP1 ISZERO PUSH2 0x1E79 JUMPI RETURNDATASIZE PUSH1 0x0 DUP1 RETURNDATACOPY RETURNDATASIZE PUSH1 0x0 REVERT JUMPDEST POP POP POP POP PUSH1 0x40 MLOAD RETURNDATASIZE PUSH1 0x1F NOT PUSH1 0x1F DUP3 ADD AND DUP3 ADD DUP1 PUSH1 0x40 MSTORE POP DUP2 ADD SWAP1 PUSH2 0x1E9D SWAP2 SWAP1 PUSH2 0x2A8D JUMP JUMPDEST PUSH20 0xFFFFFFFFFFFFFFFFFFFFFFFFFFFFFFFFFFFFFFFF AND EQ PUSH2 0x1F00 JUMPI PUSH1 0x40 MLOAD PUSH3 0x461BCD PUSH1 0xE5 SHL DUP2 MSTORE PUSH1 0x20 PUSH1 0x4 DUP3 ADD MSTORE PUSH1 0xE PUSH1 0x24 DUP3 ADD MSTORE PUSH32 0x50726F636573736F72206F6E6C79000000000000000000000000000000000000 PUSH1 0x44 DUP3 ADD MSTORE PUSH1 0x64 ADD PUSH2 0x2C0 JUMP JUMPDEST PUSH20 0xFFFFFFFFFFFFFFFFFFFFFFFFFFFFFFFFFFFFFFFF DUP4 AND PUSH1 0x0 SWAP1 DUP2 MSTORE PUSH1 0x3 PUSH1 0x20 MSTORE PUSH1 0x40 SWAP1 KECCAK256 DUP1 SLOAD TIMESTAMP SWAP1 PUSH4 0xFFFFFFFF PUSH29 0x100000000000000000000000000000000000000000000000000000000 SWAP1 SWAP2 DIV DUP2 AND SWAP1 DUP3 AND GT PUSH2 0x206E JUMPI PUSH1 0x0 SLOAD PUSH2 0x1F7F SWAP1 PUSH13 0x1000000000000000000000000 SWAP1 DIV PUSH4 0xFFFFFFFF AND PUSH3 0x15180 PUSH2 0x2C78 JUMP JUMPDEST DUP3 SLOAD PUSH2 0x1FB1 SWAP2 SWAP1 PUSH29 0x100000000000000000000000000000000000000000000000000000000 SWAP1 DIV PUSH4 0xFFFFFFFF AND PUSH2 0x2C98 JUMP JUMPDEST DUP3 SLOAD PUSH32 0xFFFFFFFF00000000FFFFFFFFFFFFFFFFFFFFFFFFFFFFFFFFFFFFFFFFFFFFFFFF AND PUSH25 0x1000000000000000000000000000000000000000000000000 PUSH4 0xFFFFFFFF SWAP3 DUP4 AND MUL OR DUP1 DUP5 SSTORE PUSH21 0x10000000000000000000000000000000000000000 SWAP1 DIV AND DUP3 PUSH1 0x14 PUSH2 0x2021 DUP4 PUSH2 0x2CBC JUMP JUMPDEST SWAP2 SWAP1 PUSH2 0x100 EXP DUP2 SLOAD DUP2 PUSH4 0xFFFFFFFF MUL NOT AND SWAP1 DUP4 PUSH4 0xFFFFFFFF AND MUL OR SWAP1 SSTORE POP POP DUP1 DUP3 PUSH1 0x1 ADD PUSH1 0x0 PUSH2 0x100 EXP DUP2 SLOAD DUP2 PUSH4 0xFFFFFFFF MUL NOT AND SWAP1 DUP4 PUSH4 0xFFFFFFFF AND MUL OR SWAP1 SSTORE POP PUSH1 0x1 SWAP3 POP POP POP PUSH2 0xA6A JUMP JUMPDEST DUP2 SLOAD PUSH4 0xFFFFFFFF PUSH25 0x1000000000000000000000000000000000000000000000000 SWAP1 SWAP2 DIV DUP2 AND SWAP1 DUP3 AND GT ISZERO PUSH2 0x213E JUMPI PUSH1 0x0 SLOAD PUSH2 0x20C3 SWAP1 PUSH13 0x1000000000000000000000000 SWAP1 DIV PUSH4 0xFFFFFFFF AND PUSH3 0x15180 PUSH2 0x2C78 JUMP JUMPDEST PUSH2 0x20CD SWAP1 DUP3 PUSH2 0x2C98 JUMP JUMPDEST DUP3 SLOAD PUSH32 0xFFFFFFFF0000000000000000FFFFFFFFFFFFFFFFFFFFFFFFFFFFFFFFFFFFFFFF AND PUSH25 0x1000000000000000000000000000000000000000000000000 PUSH4 0xFFFFFFFF SWAP3 SWAP1 SWAP3 AND SWAP2 SWAP1 SWAP2 MUL PUSH32 0xFFFFFFFFFFFFFFFF00000000FFFFFFFFFFFFFFFFFFFFFFFFFFFFFFFFFFFFFFFF AND OR DUP3 SSTORE JUMPDEST PUSH1 0x0 SLOAD DUP3 SLOAD PUSH9 0x10000000000000000 SWAP1 SWAP2 DIV PUSH4 0xFFFFFFFF SWAP1 DUP2 AND PUSH21 0x10000000000000000000000000000000000000000 SWAP1 SWAP3 DIV AND LT ISZERO DUP1 PUSH2 0x217D JUMPI POP DUP4 ISZERO JUMPDEST ISZERO PUSH2 0x218D JUMPI PUSH1 0x0 SWAP3 POP POP POP PUSH2 0xA6A JUMP JUMPDEST PUSH2 0x2195 PUSH2 0x27BD JUMP JUMPDEST POP PUSH1 0x0 SLOAD PUSH17 0x100000000000000000000000000000000 SWAP1 DIV PUSH2 0xFFFF AND PUSH2 0x21BA DUP6 PUSH2 0x29C7 JUMP JUMPDEST PUSH4 0xFFFFFFFF AND LT PUSH2 0x21F1 JUMPI DUP2 SLOAD PUSH21 0x10000000000000000000000000000000000000000 SWAP1 DIV PUSH4 0xFFFFFFFF AND DUP3 PUSH1 0x14 PUSH2 0x2021 DUP4 PUSH2 0x2CBC JUMP JUMPDEST PUSH1 0x1 SWAP2 DUP3 ADD DUP1 SLOAD PUSH32 0xFFFFFFFFFFFFFFFFFFFFFFFFFFFFFFFFFFFFFFFFFFFFFFFFFFFFFFFF00000000 AND PUSH4 0xFFFFFFFF SWAP3 SWAP1 SWAP3 AND SWAP2 SWAP1 SWAP2 OR SWAP1 SSTORE SWAP1 POP PUSH2 0xA6A JUMP JUMPDEST POP POP SWAP3 SWAP2 POP POP JUMP JUMPDEST PUSH1 0x0 CALLER PUSH20 0xFFFFFFFFFFFFFFFFFFFFFFFFFFFFFFFFFFFFFFFF AND PUSH20 0x163342FAE2BBE3303E5A9ADCE4BC9FB44D0FF062 PUSH20 0xFFFFFFFFFFFFFFFFFFFFFFFFFFFFFFFFFFFFFFFF AND PUSH4 0xB4A99A4E PUSH1 0x40 MLOAD DUP2 PUSH4 0xFFFFFFFF AND PUSH1 0xE0 SHL DUP2 MSTORE PUSH1 0x4 ADD PUSH1 0x20 PUSH1 0x40 MLOAD DUP1 DUP4 SUB DUP2 DUP7 GAS STATICCALL ISZERO DUP1 ISZERO PUSH2 0x22B0 JUMPI RETURNDATASIZE PUSH1 0x0 DUP1 RETURNDATACOPY RETURNDATASIZE PUSH1 0x0 REVERT JUMPDEST POP POP POP POP PUSH1 0x40 MLOAD RETURNDATASIZE PUSH1 0x1F NOT PUSH1 0x1F DUP3 ADD AND DUP3 ADD DUP1 PUSH1 0x40 MSTORE POP DUP2 ADD SWAP1 PUSH2 0x22D4 SWAP2 SWAP1 PUSH2 0x2A8D JUMP JUMPDEST PUSH20 0xFFFFFFFFFFFFFFFFFFFFFFFFFFFFFFFFFFFFFFFF AND EQ PUSH2 0x2337 JUMPI PUSH1 0x40 MLOAD PUSH3 0x461BCD PUSH1 0xE5 SHL DUP2 MSTORE PUSH1 0x20 PUSH1 0x4 DUP3 ADD MSTORE PUSH1 0xA PUSH1 0x24 DUP3 ADD MSTORE PUSH32 0x4F776E6572206F6E6C7900000000000000000000000000000000000000000000 PUSH1 0x44 DUP3 ADD MSTORE PUSH1 0x64 ADD PUSH2 0x2C0 JUMP JUMPDEST DUP2 PUSH4 0xFFFFFFFF AND PUSH1 0x0 SUB PUSH2 0x238D JUMPI PUSH1 0x40 MLOAD PUSH3 0x461BCD PUSH1 0xE5 SHL DUP2 MSTORE PUSH1 0x20 PUSH1 0x4 DUP3 ADD MSTORE PUSH1 0x11 PUSH1 0x24 DUP3 ADD MSTORE PUSH32 0x5A65726F207472616E73616374696F6E73000000000000000000000000000000 PUSH1 0x44 DUP3 ADD MSTORE PUSH1 0x64 ADD PUSH2 0x2C0 JUMP JUMPDEST POP PUSH1 0x0 DUP1 SLOAD PUSH4 0xFFFFFFFF DUP4 AND PUSH9 0x10000000000000000 MUL PUSH32 0xFFFFFFFFFFFFFFFFFFFFFFFFFFFFFFFFFFFFFFFF00000000FFFFFFFFFFFFFFFF SWAP1 SWAP2 AND OR SWAP1 SSTORE PUSH1 0x1 SWAP2 SWAP1 POP JUMP JUMPDEST PUSH1 0x0 CALLER PUSH20 0xFFFFFFFFFFFFFFFFFFFFFFFFFFFFFFFFFFFFFFFF AND PUSH20 0x163342FAE2BBE3303E5A9ADCE4BC9FB44D0FF062 PUSH20 0xFFFFFFFFFFFFFFFFFFFFFFFFFFFFFFFFFFFFFFFF AND PUSH4 0xB4A99A4E PUSH1 0x40 MLOAD DUP2 PUSH4 0xFFFFFFFF AND PUSH1 0xE0 SHL DUP2 MSTORE PUSH1 0x4 ADD PUSH1 0x20 PUSH1 0x40 MLOAD DUP1 DUP4 SUB DUP2 DUP7 GAS STATICCALL ISZERO DUP1 ISZERO PUSH2 0x244A JUMPI RETURNDATASIZE PUSH1 0x0 DUP1 RETURNDATACOPY RETURNDATASIZE PUSH1 0x0 REVERT JUMPDEST POP POP POP POP PUSH1 0x40 MLOAD RETURNDATASIZE PUSH1 0x1F NOT PUSH1 0x1F DUP3 ADD AND DUP3 ADD DUP1 PUSH1 0x40 MSTORE POP DUP2 ADD SWAP1 PUSH2 0x246E SWAP2 SWAP1 PUSH2 0x2A8D JUMP JUMPDEST PUSH20 0xFFFFFFFFFFFFFFFFFFFFFFFFFFFFFFFFFFFFFFFF AND EQ PUSH2 0x24D1 JUMPI PUSH1 0x40 MLOAD PUSH3 0x461BCD PUSH1 0xE5 SHL DUP2 MSTORE PUSH1 0x20 PUSH1 0x4 DUP3 ADD MSTORE PUSH1 0xA PUSH1 0x24 DUP3 ADD MSTORE PUSH32 0x4F776E6572206F6E6C7900000000000000000000000000000000000000000000 PUSH1 0x44 DUP3 ADD MSTORE PUSH1 0x64 ADD PUSH2 0x2C0 JUMP JUMPDEST PUSH1 0x78 DUP3 PUSH4 0xFFFFFFFF AND GT ISZERO PUSH2 0x2528 JUMPI PUSH1 0x40 MLOAD PUSH3 0x461BCD PUSH1 0xE5 SHL DUP2 MSTORE PUSH1 0x20 PUSH1 0x4 DUP3 ADD MSTORE PUSH1 0xD PUSH1 0x24 DUP3 ADD MSTORE PUSH32 0x546F6F206D616E79206461797300000000000000000000000000000000000000 PUSH1 0x44 DUP3 ADD MSTORE PUSH1 0x64 ADD PUSH2 0x2C0 JUMP JUMPDEST PUSH20 0xFFFFFFFFFFFFFFFFFFFFFFFFFFFFFFFFFFFFFFFF DUP4 AND PUSH1 0x0 SWAP1 DUP2 MSTORE PUSH1 0x3 PUSH1 0x20 MSTORE PUSH1 0x40 SWAP1 KECCAK256 DUP1 SLOAD TIMESTAMP SWAP1 PUSH4 0xFFFFFFFF PUSH29 0x100000000000000000000000000000000000000000000000000000000 SWAP1 SWAP2 DIV DUP2 AND SWAP1 DUP3 AND GT ISZERO PUSH2 0x25CA JUMPI PUSH1 0x40 MLOAD PUSH3 0x461BCD PUSH1 0xE5 SHL DUP2 MSTORE PUSH1 0x20 PUSH1 0x4 DUP3 ADD MSTORE PUSH1 0x10 PUSH1 0x24 DUP3 ADD MSTORE PUSH32 0x4E6F742061207375627363726962657200000000000000000000000000000000 PUSH1 0x44 DUP3 ADD MSTORE PUSH1 0x64 ADD PUSH2 0x2C0 JUMP JUMPDEST PUSH2 0x25D7 DUP5 PUSH3 0x15180 PUSH2 0x2C78 JUMP JUMPDEST DUP3 SLOAD DUP4 SWAP1 PUSH1 0x1C SWAP1 PUSH2 0x260F SWAP1 DUP5 SWAP1 PUSH29 0x100000000000000000000000000000000000000000000000000000000 SWAP1 DIV PUSH4 0xFFFFFFFF AND PUSH2 0x2D48 JUMP JUMPDEST SWAP3 POP PUSH2 0x100 EXP DUP2 SLOAD DUP2 PUSH4 0xFFFFFFFF MUL NOT AND SWAP1 DUP4 PUSH4 0xFFFFFFFF AND MUL OR SWAP1 SSTORE POP DUP1 PUSH4 0xFFFFFFFF AND DUP3 PUSH1 0x0 ADD PUSH1 0x1C SWAP1 SLOAD SWAP1 PUSH2 0x100 EXP SWAP1 DIV PUSH4 0xFFFFFFFF AND PUSH4 0xFFFFFFFF AND GT PUSH2 0x26C0 JUMPI DUP2 SLOAD PUSH28 0xFFFFFFFF00000000FFFFFFFFFFFFFFFFFFFFFFFFFFFFFFFFFFFFFFFF AND PUSH29 0x100000000000000000000000000000000000000000000000000000000 PUSH4 0xFFFFFFFF DUP4 AND MUL PUSH32 0xFFFFFFFFFFFFFFFF00000000FFFFFFFFFFFFFFFFFFFFFFFFFFFFFFFFFFFFFFFF AND OR DUP3 SSTORE JUMPDEST PUSH1 0x0 SLOAD PUSH2 0x26E6 SWAP1 PUSH13 0x1000000000000000000000000 SWAP1 DIV PUSH4 0xFFFFFFFF AND PUSH3 0x15180 PUSH2 0x2C78 JUMP JUMPDEST DUP3 SLOAD PUSH2 0x2718 SWAP2 SWAP1 PUSH29 0x100000000000000000000000000000000000000000000000000000000 SWAP1 DIV PUSH4 0xFFFFFFFF AND PUSH2 0x2C98 JUMP JUMPDEST DUP3 SLOAD PUSH32 0xFFFFFFFF00000000FFFFFFFFFFFFFFFFFFFFFFFFFFFFFFFFFFFFFFFFFFFFFFFF AND PUSH25 0x1000000000000000000000000000000000000000000000000 PUSH4 0xFFFFFFFF SWAP3 DUP4 AND MUL OR DUP4 SSTORE PUSH1 0x40 DUP1 MLOAD PUSH20 0xFFFFFFFFFFFFFFFFFFFFFFFFFFFFFFFFFFFFFFFF DUP9 AND DUP2 MSTORE SWAP2 DUP7 AND PUSH1 0x20 DUP4 ADD MSTORE PUSH32 0x6DCC49443C6DADA3A53209E7A01826B847B563C60A1D311B2E9CDC8AB7AC323C SWAP2 ADD PUSH1 0x40 MLOAD DUP1 SWAP2 SUB SWAP1 LOG1 POP PUSH1 0x1 SWAP5 SWAP4 POP POP POP POP JUMP JUMPDEST PUSH1 0x40 MLOAD PUSH32 0xC75FFD8600000000000000000000000000000000000000000000000000000000 DUP2 MSTORE PUSH1 0x20 PUSH1 0x4 DUP3 ADD MSTORE PUSH1 0x13 PUSH1 0x24 DUP3 ADD MSTORE PUSH32 0x2E436F72706F726174696F6E2E4F7261636C6500000000000000000000000000 PUSH1 0x44 DUP3 ADD MSTORE PUSH1 0x0 SWAP1 DUP2 SWAP1 PUSH20 0x163342FAE2BBE3303E5A9ADCE4BC9FB44D0FF062 SWAP1 PUSH4 0xC75FFD86 SWAP1 PUSH1 0x64 ADD PUSH1 0x20 PUSH1 0x40 MLOAD DUP1 DUP4 SUB DUP2 DUP7 GAS STATICCALL ISZERO DUP1 ISZERO PUSH2 0x2858 JUMPI RETURNDATASIZE PUSH1 0x0 DUP1 RETURNDATACOPY RETURNDATASIZE PUSH1 0x0 REVERT JUMPDEST POP POP POP POP PUSH1 0x40 MLOAD RETURNDATASIZE PUSH1 0x1F NOT PUSH1 0x1F DUP3 ADD AND DUP3 ADD DUP1 PUSH1 0x40 MSTORE POP DUP2 ADD SWAP1 PUSH2 0x287C SWAP2 SWAP1 PUSH2 0x2A8D JUMP JUMPDEST SWAP1 POP PUSH1 0x0 DUP1 DUP3 PUSH20 0xFFFFFFFFFFFFFFFFFFFFFFFFFFFFFFFFFFFFFFFF AND PUSH4 0x16F0A386 PUSH1 0x40 MLOAD DUP2 PUSH4 0xFFFFFFFF AND PUSH1 0xE0 SHL DUP2 MSTORE PUSH1 0x4 ADD PUSH1 0x40 DUP1 MLOAD DUP1 DUP4 SUB DUP2 DUP7 GAS STATICCALL ISZERO DUP1 ISZERO PUSH2 0x28CB JUMPI RETURNDATASIZE PUSH1 0x0 DUP1 RETURNDATACOPY RETURNDATASIZE PUSH1 0x0 REVERT JUMPDEST POP POP POP POP PUSH1 0x40 MLOAD RETURNDATASIZE PUSH1 0x1F NOT PUSH1 0x1F DUP3 ADD AND DUP3 ADD DUP1 PUSH1 0x40 MSTORE POP DUP2 ADD SWAP1 PUSH2 0x28EF SWAP2 SWAP1 PUSH2 0x2D88 JUMP JUMPDEST SWAP2 POP SWAP2 POP PUSH1 0x0 DUP4 PUSH20 0xFFFFFFFFFFFFFFFFFFFFFFFFFFFFFFFFFFFFFFFF AND PUSH4 0xF9A4BBBE PUSH1 0x40 MLOAD DUP2 PUSH4 0xFFFFFFFF AND PUSH1 0xE0 SHL DUP2 MSTORE PUSH1 0x4 ADD PUSH1 0x20 PUSH1 0x40 MLOAD DUP1 DUP4 SUB DUP2 DUP7 GAS STATICCALL ISZERO DUP1 ISZERO PUSH2 0x2940 JUMPI RETURNDATASIZE PUSH1 0x0 DUP1 RETURNDATACOPY RETURNDATASIZE PUSH1 0x0 REVERT JUMPDEST POP POP POP POP PUSH1 0x40 MLOAD RETURNDATASIZE PUSH1 0x1F NOT PUSH1 0x1F DUP3 ADD AND DUP3 ADD DUP1 PUSH1 0x40 MSTORE POP DUP2 ADD SWAP1 PUSH2 0x2964 SWAP2 SWAP1 PUSH2 0x2DBD JUMP JUMPDEST SWAP1 POP PUSH1 0x1 DUP3 ISZERO ISZERO EQ DUP1 ISZERO PUSH2 0x2978 JUMPI POP PUSH1 0x0 DUP2 GT JUMPDEST ISZERO PUSH2 0x29BC JUMPI PUSH1 0x1 SWAP1 DUP2 SSTORE PUSH1 0x2 DUP1 SLOAD PUSH32 0xFFFFFFFFFFFFFFFFFFFFFFFFFFFFFFFFFFFFFFFFFFFFFFFFFFFFFFFFFFFFFF00 AND PUSH1 0xFF SWAP5 SWAP1 SWAP5 AND SWAP4 SWAP1 SWAP4 OR SWAP1 SWAP3 SSTORE POP SWAP3 SWAP2 POP POP JUMP JUMPDEST PUSH1 0x0 SWAP5 POP POP POP POP POP SWAP1 JUMP JUMPDEST PUSH1 0x2 SLOAD PUSH1 0x0 SWAP1 DUP2 SWAP1 PUSH2 0x29DD SWAP1 PUSH1 0xFF AND PUSH1 0x12 PUSH2 0x2DD6 JUMP JUMPDEST PUSH2 0x29E8 SWAP1 PUSH1 0xA PUSH2 0x2F0F JUMP JUMPDEST DUP4 PUSH1 0x1 SLOAD PUSH1 0x64 PUSH2 0x29F8 SWAP2 SWAP1 PUSH2 0x2F1E JUMP JUMPDEST PUSH2 0x2A02 SWAP2 SWAP1 PUSH2 0x2F1E JUMP JUMPDEST PUSH2 0x2A0C SWAP2 SWAP1 PUSH2 0x2D21 JUMP JUMPDEST SWAP4 SWAP3 POP POP POP JUMP JUMPDEST PUSH1 0x0 DUP1 PUSH1 0x1 SLOAD PUSH1 0x64 PUSH2 0x2A25 SWAP2 SWAP1 PUSH2 0x2F1E JUMP JUMPDEST PUSH1 0x2 SLOAD PUSH2 0x2A36 SWAP1 PUSH1 0xFF AND PUSH1 0x12 PUSH2 0x2DD6 JUMP JUMPDEST PUSH2 0x2A41 SWAP1 PUSH1 0xA PUSH2 0x2F0F JUMP JUMPDEST PUSH1 0x0 SLOAD PUSH2 0x2A58 SWAP1 PUSH3 0x10000 SWAP1 DIV PUSH2 0xFFFF AND DUP7 PUSH2 0x2C78 JUMP JUMPDEST PUSH4 0xFFFFFFFF AND PUSH2 0x2A02 SWAP2 SWAP1 PUSH2 0x2F1E JUMP JUMPDEST PUSH20 0xFFFFFFFFFFFFFFFFFFFFFFFFFFFFFFFFFFFFFFFF DUP2 AND DUP2 EQ PUSH2 0x2A8A JUMPI PUSH1 0x0 DUP1 REVERT JUMPDEST POP JUMP JUMPDEST PUSH1 0x0 PUSH1 0x20 DUP3 DUP5 SUB SLT ISZERO PUSH2 0x2A9F JUMPI PUSH1 0x0 DUP1 REVERT JUMPDEST DUP2 MLOAD PUSH2 0x2A0C DUP2 PUSH2 0x2A68 JUMP JUMPDEST DUP1 CALLDATALOAD PUSH4 0xFFFFFFFF DUP2 AND DUP2 EQ PUSH2 0xC00 JUMPI PUSH1 0x0 DUP1 REVERT JUMPDEST PUSH1 0x0 DUP1 PUSH1 0x40 DUP4 DUP6 SUB SLT ISZERO PUSH2 0x2AD1 JUMPI PUSH1 0x0 DUP1 REVERT JUMPDEST DUP3 CALLDATALOAD PUSH2 0x2ADC DUP2 PUSH2 0x2A68 JUMP JUMPDEST SWAP2 POP PUSH2 0x2AEA PUSH1 0x20 DUP5 ADD PUSH2 0x2AAA JUMP JUMPDEST SWAP1 POP SWAP3 POP SWAP3 SWAP1 POP JUMP JUMPDEST PUSH1 0x0 PUSH1 0x20 DUP3 DUP5 SUB SLT ISZERO PUSH2 0x2B05 JUMPI PUSH1 0x0 DUP1 REVERT JUMPDEST PUSH2 0x2A0C DUP3 PUSH2 0x2AAA JUMP JUMPDEST PUSH1 0x0 PUSH1 0x20 DUP3 DUP5 SUB SLT ISZERO PUSH2 0x2B20 JUMPI PUSH1 0x0 DUP1 REVERT JUMPDEST DUP2 CALLDATALOAD PUSH2 0xFFFF DUP2 AND DUP2 EQ PUSH2 0x2A0C JUMPI PUSH1 0x0 DUP1 REVERT JUMPDEST DUP1 ISZERO ISZERO DUP2 EQ PUSH2 0x2A8A JUMPI PUSH1 0x0 DUP1 REVERT JUMPDEST PUSH1 0x0 PUSH1 0x20 DUP3 DUP5 SUB SLT ISZERO PUSH2 0x2B52 JUMPI PUSH1 0x0 DUP1 REVERT JUMPDEST DUP2 CALLDATALOAD PUSH2 0x2A0C DUP2 PUSH2 0x2B32 JUMP JUMPDEST PUSH1 0x0 PUSH1 0x20 DUP1 DUP4 MSTORE DUP4 MLOAD DUP1 DUP3 DUP6 ADD MSTORE PUSH1 0x0 JUMPDEST DUP2 DUP2 LT ISZERO PUSH2 0x2B8A JUMPI DUP6 DUP2 ADD DUP4 ADD MLOAD DUP6 DUP3 ADD PUSH1 0x40 ADD MSTORE DUP3 ADD PUSH2 0x2B6E JUMP JUMPDEST POP PUSH1 0x0 PUSH1 0x40 DUP3 DUP7 ADD ADD MSTORE PUSH1 0x40 PUSH32 0xFFFFFFFFFFFFFFFFFFFFFFFFFFFFFFFFFFFFFFFFFFFFFFFFFFFFFFFFFFFFFFE0 PUSH1 0x1F DUP4 ADD AND DUP6 ADD ADD SWAP3 POP POP POP SWAP3 SWAP2 POP POP JUMP JUMPDEST PUSH1 0x0 DUP1 PUSH1 0x40 DUP4 DUP6 SUB SLT ISZERO PUSH2 0x2BDC JUMPI PUSH1 0x0 DUP1 REVERT JUMPDEST PUSH2 0x2BE5 DUP4 PUSH2 0x2AAA JUMP JUMPDEST SWAP2 POP PUSH1 0x20 DUP4 ADD CALLDATALOAD PUSH2 0x2BF5 DUP2 PUSH2 0x2A68 JUMP JUMPDEST DUP1 SWAP2 POP POP SWAP3 POP SWAP3 SWAP1 POP JUMP JUMPDEST PUSH1 0x0 PUSH1 0x20 DUP3 DUP5 SUB SLT ISZERO PUSH2 0x2C12 JUMPI PUSH1 0x0 DUP1 REVERT JUMPDEST DUP2 CALLDATALOAD PUSH2 0x2A0C DUP2 PUSH2 0x2A68 JUMP JUMPDEST PUSH1 0x0 DUP1 PUSH1 0x40 DUP4 DUP6 SUB SLT ISZERO PUSH2 0x2C30 JUMPI PUSH1 0x0 DUP1 REVERT JUMPDEST DUP3 CALLDATALOAD PUSH2 0x2C3B DUP2 PUSH2 0x2A68 JUMP JUMPDEST SWAP5 PUSH1 0x20 SWAP4 SWAP1 SWAP4 ADD CALLDATALOAD SWAP4 POP POP POP JUMP JUMPDEST PUSH32 0x4E487B7100000000000000000000000000000000000000000000000000000000 PUSH1 0x0 MSTORE PUSH1 0x11 PUSH1 0x4 MSTORE PUSH1 0x24 PUSH1 0x0 REVERT JUMPDEST PUSH4 0xFFFFFFFF DUP2 DUP2 AND DUP4 DUP3 AND MUL DUP1 DUP3 AND SWAP2 SWAP1 DUP3 DUP2 EQ PUSH2 0x2230 JUMPI PUSH2 0x2230 PUSH2 0x2C49 JUMP JUMPDEST PUSH4 0xFFFFFFFF DUP2 DUP2 AND DUP4 DUP3 AND ADD SWAP1 DUP1 DUP3 GT ISZERO PUSH2 0x2CB5 JUMPI PUSH2 0x2CB5 PUSH2 0x2C49 JUMP JUMPDEST POP SWAP3 SWAP2 POP POP JUMP JUMPDEST PUSH1 0x0 PUSH4 0xFFFFFFFF DUP1 DUP4 AND DUP2 DUP2 SUB PUSH2 0x2CD5 JUMPI PUSH2 0x2CD5 PUSH2 0x2C49 JUMP JUMPDEST PUSH1 0x1 ADD SWAP4 SWAP3 POP POP POP JUMP JUMPDEST DUP2 DUP2 SUB DUP2 DUP2 GT ISZERO PUSH2 0xA6A JUMPI PUSH2 0xA6A PUSH2 0x2C49 JUMP JUMPDEST PUSH32 0x4E487B7100000000000000000000000000000000000000000000000000000000 PUSH1 0x0 MSTORE PUSH1 0x12 PUSH1 0x4 MSTORE PUSH1 0x24 PUSH1 0x0 REVERT JUMPDEST PUSH1 0x0 DUP3 PUSH2 0x2D30 JUMPI PUSH2 0x2D30 PUSH2 0x2CF2 JUMP JUMPDEST POP DIV SWAP1 JUMP JUMPDEST DUP1 DUP3 ADD DUP1 DUP3 GT ISZERO PUSH2 0xA6A JUMPI PUSH2 0xA6A PUSH2 0x2C49 JUMP JUMPDEST PUSH4 0xFFFFFFFF DUP3 DUP2 AND DUP3 DUP3 AND SUB SWAP1 DUP1 DUP3 GT ISZERO PUSH2 0x2CB5 JUMPI PUSH2 0x2CB5 PUSH2 0x2C49 JUMP JUMPDEST PUSH1 0x0 PUSH4 0xFFFFFFFF DUP1 DUP5 AND DUP1 PUSH2 0x2D7C JUMPI PUSH2 0x2D7C PUSH2 0x2CF2 JUMP JUMPDEST SWAP3 AND SWAP2 SWAP1 SWAP2 DIV SWAP3 SWAP2 POP POP JUMP JUMPDEST PUSH1 0x0 DUP1 PUSH1 0x40 DUP4 DUP6 SUB SLT ISZERO PUSH2 0x2D9B JUMPI PUSH1 0x0 DUP1 REVERT JUMPDEST DUP3 MLOAD PUSH1 0xFF DUP2 AND DUP2 EQ PUSH2 0x2DAC JUMPI PUSH1 0x0 DUP1 REVERT JUMPDEST PUSH1 0x20 DUP5 ADD MLOAD SWAP1 SWAP3 POP PUSH2 0x2BF5 DUP2 PUSH2 0x2B32 JUMP JUMPDEST PUSH1 0x0 PUSH1 0x20 DUP3 DUP5 SUB SLT ISZERO PUSH2 0x2DCF JUMPI PUSH1 0x0 DUP1 REVERT JUMPDEST POP MLOAD SWAP2 SWAP1 POP JUMP JUMPDEST PUSH1 0xFF DUP2 DUP2 AND DUP4 DUP3 AND ADD SWAP1 DUP2 GT ISZERO PUSH2 0xA6A JUMPI PUSH2 0xA6A PUSH2 0x2C49 JUMP JUMPDEST PUSH1 0x1 DUP2 DUP2 JUMPDEST DUP1 DUP6 GT ISZERO PUSH2 0x2E48 JUMPI DUP2 PUSH32 0xFFFFFFFFFFFFFFFFFFFFFFFFFFFFFFFFFFFFFFFFFFFFFFFFFFFFFFFFFFFFFFFF DIV DUP3 GT ISZERO PUSH2 0x2E2E JUMPI PUSH2 0x2E2E PUSH2 0x2C49 JUMP JUMPDEST DUP1 DUP6 AND ISZERO PUSH2 0x2E3B JUMPI SWAP2 DUP2 MUL SWAP2 JUMPDEST SWAP4 DUP5 SHR SWAP4 SWAP1 DUP1 MUL SWAP1 PUSH2 0x2DF4 JUMP JUMPDEST POP SWAP3 POP SWAP3 SWAP1 POP JUMP JUMPDEST PUSH1 0x0 DUP3 PUSH2 0x2E5F JUMPI POP PUSH1 0x1 PUSH2 0xA6A JUMP JUMPDEST DUP2 PUSH2 0x2E6C JUMPI POP PUSH1 0x0 PUSH2 0xA6A JUMP JUMPDEST DUP2 PUSH1 0x1 DUP2 EQ PUSH2 0x2E82 JUMPI PUSH1 0x2 DUP2 EQ PUSH2 0x2E8C JUMPI PUSH2 0x2EA8 JUMP JUMPDEST PUSH1 0x1 SWAP2 POP POP PUSH2 0xA6A JUMP JUMPDEST PUSH1 0xFF DUP5 GT ISZERO PUSH2 0x2E9D JUMPI PUSH2 0x2E9D PUSH2 0x2C49 JUMP JUMPDEST POP POP PUSH1 0x1 DUP3 SHL PUSH2 0xA6A JUMP JUMPDEST POP PUSH1 0x20 DUP4 LT PUSH2 0x133 DUP4 LT AND PUSH1 0x4E DUP5 LT PUSH1 0xB DUP5 LT AND OR ISZERO PUSH2 0x2ECB JUMPI POP DUP2 DUP2 EXP PUSH2 0xA6A JUMP JUMPDEST PUSH2 0x2ED5 DUP4 DUP4 PUSH2 0x2DEF JUMP JUMPDEST DUP1 PUSH32 0xFFFFFFFFFFFFFFFFFFFFFFFFFFFFFFFFFFFFFFFFFFFFFFFFFFFFFFFFFFFFFFFF DIV DUP3 GT ISZERO PUSH2 0x2F07 JUMPI PUSH2 0x2F07 PUSH2 0x2C49 JUMP JUMPDEST MUL SWAP4 SWAP3 POP POP POP JUMP JUMPDEST PUSH1 0x0 PUSH2 0x2A0C PUSH1 0xFF DUP5 AND DUP4 PUSH2 0x2E50 JUMP JUMPDEST DUP1 DUP3 MUL DUP2 ISZERO DUP3 DUP3 DIV DUP5 EQ OR PUSH2 0xA6A JUMPI PUSH2 0xA6A PUSH2 0x2C49 JUMP INVALID LOG2 PUSH5 0x6970667358 0x22 SLT KECCAK256 NUMBER 0x4C PUSH8 0x802C647A23002619 0xED CALLDATACOPY 0xC2 SWAP11 PUSH6 0xBB24FEEAA8C8 CALL GASPRICE 0xE8 0xD5 DUP9 LOG0 0xE7 PUSH23 0x6AF464736F6C6343000813003300000000000000000000 "
		},
		"gasEstimates": {
			"creation": {
				"codeDepositCost": "2427800",
				"executionCost": "56070",
				"totalCost": "2483870"
			},
			"external": {
				"": "327",
				"AddToSubscription(address,uint32)": "infinite",
				"AllowProcessing(address,uint256)": "infinite",
				"GetAllowSubscribing()": "2361",
				"GetDaysPerSeason()": "2375",
				"GetMinimumUSDToCount()": "2407",
				"GetReferrerSubscriptions(address)": "2590",
				"GetSubscriptionCostPerDay()": "2374",
				"GetSubscriptionsToReward()": "2362",
				"GetTransactionsPerSeason()": "2385",
				"Name()": "infinite",
				"RemoveFromSubscription(address,uint32)": "infinite",
				"SetAllowSubscribing(bool)": "infinite",
				"SetDaysPerSeason(uint32)": "infinite",
				"SetMinimumUSDToCount(uint16)": "infinite",
				"SetSubscriptionCostPerDay(uint16)": "infinite",
				"SetSubscriptionsToReward(uint32)": "infinite",
				"SetTransactionsPerSeason(uint32)": "infinite",
				"Subscribe(uint32,address)": "infinite",
				"SubscriberProfile(address)": "5388"
			},
			"internal": {
				"_renewMATICPrice()": "infinite",
				"_trueAmount(uint32)": "infinite",
				"_usdAmount(uint256)": "infinite"
			}
		},
		"methodIdentifiers": {
			"AddToSubscription(address,uint32)": "0a7b9161",
			"AllowProcessing(address,uint256)": "da4f1677",
			"GetAllowSubscribing()": "38cc21d6",
			"GetDaysPerSeason()": "568e2da0",
			"GetMinimumUSDToCount()": "bc558577",
			"GetReferrerSubscriptions(address)": "b079f5fb",
			"GetSubscriptionCostPerDay()": "81323ce1",
			"GetSubscriptionsToReward()": "dda308b4",
			"GetTransactionsPerSeason()": "b74a8b1d",
			"Name()": "8052474d",
			"RemoveFromSubscription(address,uint32)": "f28bca6a",
			"SetAllowSubscribing(bool)": "50e038e1",
			"SetDaysPerSeason(uint32)": "86f90603",
			"SetMinimumUSDToCount(uint16)": "46842a81",
			"SetSubscriptionCostPerDay(uint16)": "b108b92b",
			"SetSubscriptionsToReward(uint32)": "38cc02e6",
			"SetTransactionsPerSeason(uint32)": "e31357ca",
			"Subscribe(uint32,address)": "8774fd67",
			"SubscriberProfile(address)": "d91f54cd"
		}
	},
	"abi": [
		{
			"anonymous": false,
			"inputs": [
				{
					"indexed": false,
					"internalType": "address",
					"name": "subscriber",
					"type": "address"
				},
				{
					"indexed": false,
					"internalType": "uint32",
					"name": "daysNumber",
					"type": "uint32"
				}
			],
			"name": "Subscribed",
			"type": "event"
		},
		{
			"anonymous": false,
			"inputs": [
				{
					"indexed": false,
					"internalType": "address",
					"name": "subscriber",
					"type": "address"
				},
				{
					"indexed": false,
					"internalType": "uint32",
					"name": "daysNumber",
					"type": "uint32"
				}
			],
			"name": "SubscriptionDecreased",
			"type": "event"
		},
		{
			"anonymous": false,
			"inputs": [
				{
					"indexed": false,
					"internalType": "address",
					"name": "subscriber",
					"type": "address"
				},
				{
					"indexed": false,
					"internalType": "uint32",
					"name": "daysNumber",
					"type": "uint32"
				}
			],
			"name": "SubscriptionIncreased",
			"type": "event"
		},
		{
			"stateMutability": "nonpayable",
			"type": "fallback"
		},
		{
			"inputs": [
				{
					"internalType": "address",
					"name": "_subscriber",
					"type": "address"
				},
				{
					"internalType": "uint32",
					"name": "_days",
					"type": "uint32"
				}
			],
			"name": "AddToSubscription",
			"outputs": [
				{
					"internalType": "bool",
					"name": "",
					"type": "bool"
				}
			],
			"stateMutability": "nonpayable",
			"type": "function"
		},
		{
			"inputs": [
				{
					"internalType": "address",
					"name": "_subscriber",
					"type": "address"
				},
				{
					"internalType": "uint256",
					"name": "_amount",
					"type": "uint256"
				}
			],
			"name": "AllowProcessing",
			"outputs": [
				{
					"internalType": "bool",
					"name": "",
					"type": "bool"
				}
			],
			"stateMutability": "nonpayable",
			"type": "function"
		},
		{
			"inputs": [],
			"name": "GetAllowSubscribing",
			"outputs": [
				{
					"internalType": "bool",
					"name": "",
					"type": "bool"
				}
			],
			"stateMutability": "view",
			"type": "function"
		},
		{
			"inputs": [],
			"name": "GetDaysPerSeason",
			"outputs": [
				{
					"internalType": "uint32",
					"name": "",
					"type": "uint32"
				}
			],
			"stateMutability": "view",
			"type": "function"
		},
		{
			"inputs": [],
			"name": "GetMinimumUSDToCount",
			"outputs": [
				{
					"internalType": "uint16",
					"name": "",
					"type": "uint16"
				}
			],
			"stateMutability": "view",
			"type": "function"
		},
		{
			"inputs": [
				{
					"internalType": "address",
					"name": "_referrer",
					"type": "address"
				}
			],
			"name": "GetReferrerSubscriptions",
			"outputs": [
				{
					"internalType": "uint32",
					"name": "",
					"type": "uint32"
				}
			],
			"stateMutability": "view",
			"type": "function"
		},
		{
			"inputs": [],
			"name": "GetSubscriptionCostPerDay",
			"outputs": [
				{
					"internalType": "uint16",
					"name": "",
					"type": "uint16"
				}
			],
			"stateMutability": "view",
			"type": "function"
		},
		{
			"inputs": [],
			"name": "GetSubscriptionsToReward",
			"outputs": [
				{
					"internalType": "uint32",
					"name": "",
					"type": "uint32"
				}
			],
			"stateMutability": "view",
			"type": "function"
		},
		{
			"inputs": [],
			"name": "GetTransactionsPerSeason",
			"outputs": [
				{
					"internalType": "uint32",
					"name": "",
					"type": "uint32"
				}
			],
			"stateMutability": "view",
			"type": "function"
		},
		{
			"inputs": [],
			"name": "Name",
			"outputs": [
				{
					"internalType": "string",
					"name": "",
					"type": "string"
				}
			],
			"stateMutability": "view",
			"type": "function"
		},
		{
			"inputs": [
				{
					"internalType": "address",
					"name": "_subscriber",
					"type": "address"
				},
				{
					"internalType": "uint32",
					"name": "_days",
					"type": "uint32"
				}
			],
			"name": "RemoveFromSubscription",
			"outputs": [
				{
					"internalType": "bool",
					"name": "",
					"type": "bool"
				}
			],
			"stateMutability": "nonpayable",
			"type": "function"
		},
		{
			"inputs": [
				{
					"internalType": "bool",
					"name": "_allow",
					"type": "bool"
				}
			],
			"name": "SetAllowSubscribing",
			"outputs": [
				{
					"internalType": "bool",
					"name": "",
					"type": "bool"
				}
			],
			"stateMutability": "nonpayable",
			"type": "function"
		},
		{
			"inputs": [
				{
					"internalType": "uint32",
					"name": "_days",
					"type": "uint32"
				}
			],
			"name": "SetDaysPerSeason",
			"outputs": [
				{
					"internalType": "bool",
					"name": "",
					"type": "bool"
				}
			],
			"stateMutability": "nonpayable",
			"type": "function"
		},
		{
			"inputs": [
				{
					"internalType": "uint16",
					"name": "_usd",
					"type": "uint16"
				}
			],
			"name": "SetMinimumUSDToCount",
			"outputs": [
				{
					"internalType": "bool",
					"name": "",
					"type": "bool"
				}
			],
			"stateMutability": "nonpayable",
			"type": "function"
		},
		{
			"inputs": [
				{
					"internalType": "uint16",
					"name": "_usd",
					"type": "uint16"
				}
			],
			"name": "SetSubscriptionCostPerDay",
			"outputs": [
				{
					"internalType": "bool",
					"name": "",
					"type": "bool"
				}
			],
			"stateMutability": "nonpayable",
			"type": "function"
		},
		{
			"inputs": [
				{
					"internalType": "uint32",
					"name": "_subscriptions",
					"type": "uint32"
				}
			],
			"name": "SetSubscriptionsToReward",
			"outputs": [
				{
					"internalType": "bool",
					"name": "",
					"type": "bool"
				}
			],
			"stateMutability": "nonpayable",
			"type": "function"
		},
		{
			"inputs": [
				{
					"internalType": "uint32",
					"name": "_transactions",
					"type": "uint32"
				}
			],
			"name": "SetTransactionsPerSeason",
			"outputs": [
				{
					"internalType": "bool",
					"name": "",
					"type": "bool"
				}
			],
			"stateMutability": "nonpayable",
			"type": "function"
		},
		{
			"inputs": [
				{
					"internalType": "uint32",
					"name": "_days",
					"type": "uint32"
				},
				{
					"internalType": "address",
					"name": "_referrer",
					"type": "address"
				}
			],
			"name": "Subscribe",
			"outputs": [
				{
					"internalType": "bool",
					"name": "",
					"type": "bool"
				}
			],
			"stateMutability": "payable",
			"type": "function"
		},
		{
			"inputs": [
				{
					"internalType": "address",
					"name": "_subscriber",
					"type": "address"
				}
			],
			"name": "SubscriberProfile",
			"outputs": [
				{
					"internalType": "address",
					"name": "referredBy",
					"type": "address"
				},
				{
					"internalType": "uint32",
					"name": "transactionCount",
					"type": "uint32"
				},
				{
					"internalType": "uint32",
					"name": "nextSeason",
					"type": "uint32"
				},
				{
					"internalType": "uint32",
					"name": "subscribedUntil",
					"type": "uint32"
				},
				{
					"internalType": "uint32",
					"name": "subscribtionDaysLeft",
					"type": "uint32"
				},
				{
					"internalType": "bool",
					"name": "isSubscriber",
					"type": "bool"
				},
				{
					"internalType": "uint32",
					"name": "lastTransaction",
					"type": "uint32"
				}
			],
			"stateMutability": "view",
			"type": "function"
		},
		{
			"stateMutability": "payable",
			"type": "receive"
		}
	]
}