{
	"Payment/Subscribers.sol": {
		"Subscribers": {
			"abi": [
				{
					"anonymous": false,
					"inputs": [
						{
							"indexed": false,
							"internalType": "address",
							"name": "subscriber",
							"type": "address"
						},
						{
							"indexed": false,
							"internalType": "uint32",
							"name": "daysNumber",
							"type": "uint32"
						}
					],
					"name": "Subscribed",
					"type": "event"
				},
				{
					"anonymous": false,
					"inputs": [
						{
							"indexed": false,
							"internalType": "address",
							"name": "subscriber",
							"type": "address"
						},
						{
							"indexed": false,
							"internalType": "uint32",
							"name": "daysNumber",
							"type": "uint32"
						}
					],
					"name": "SubscriptionDecreased",
					"type": "event"
				},
				{
					"anonymous": false,
					"inputs": [
						{
							"indexed": false,
							"internalType": "address",
							"name": "subscriber",
							"type": "address"
						},
						{
							"indexed": false,
							"internalType": "uint32",
							"name": "daysNumber",
							"type": "uint32"
						}
					],
					"name": "SubscriptionIncreased",
					"type": "event"
				},
				{
					"stateMutability": "nonpayable",
					"type": "fallback"
				},
				{
					"inputs": [
						{
							"internalType": "address",
							"name": "_subscriber",
							"type": "address"
						},
						{
							"internalType": "uint32",
							"name": "_days",
							"type": "uint32"
						}
					],
					"name": "AddToSubscription",
					"outputs": [
						{
							"internalType": "bool",
							"name": "",
							"type": "bool"
						}
					],
					"stateMutability": "nonpayable",
					"type": "function"
				},
				{
					"inputs": [
						{
							"internalType": "address",
							"name": "_subscriber",
							"type": "address"
						},
						{
							"internalType": "uint256",
							"name": "_amount",
							"type": "uint256"
						}
					],
					"name": "AllowProcessing",
					"outputs": [
						{
							"internalType": "bool",
							"name": "",
							"type": "bool"
						}
					],
					"stateMutability": "nonpayable",
					"type": "function"
				},
				{
					"inputs": [],
					"name": "GetAllowSubscribing",
					"outputs": [
						{
							"internalType": "bool",
							"name": "",
							"type": "bool"
						}
					],
					"stateMutability": "view",
					"type": "function"
				},
				{
					"inputs": [],
					"name": "GetDaysPerSeason",
					"outputs": [
						{
							"internalType": "uint32",
							"name": "",
							"type": "uint32"
						}
					],
					"stateMutability": "view",
					"type": "function"
				},
				{
					"inputs": [],
					"name": "GetMinimumUSDToCount",
					"outputs": [
						{
							"internalType": "uint16",
							"name": "",
							"type": "uint16"
						}
					],
					"stateMutability": "view",
					"type": "function"
				},
				{
					"inputs": [
						{
							"internalType": "address",
							"name": "_referrer",
							"type": "address"
						}
					],
					"name": "GetReferrerSubscriptions",
					"outputs": [
						{
							"internalType": "uint32",
							"name": "",
							"type": "uint32"
						}
					],
					"stateMutability": "view",
					"type": "function"
				},
				{
					"inputs": [],
					"name": "GetSubscriptionCostPerDay",
					"outputs": [
						{
							"internalType": "uint16",
							"name": "",
							"type": "uint16"
						}
					],
					"stateMutability": "view",
					"type": "function"
				},
				{
					"inputs": [],
					"name": "GetSubscriptionsToReward",
					"outputs": [
						{
							"internalType": "uint32",
							"name": "",
							"type": "uint32"
						}
					],
					"stateMutability": "view",
					"type": "function"
				},
				{
					"inputs": [],
					"name": "GetTransactionsPerSeason",
					"outputs": [
						{
							"internalType": "uint32",
							"name": "",
							"type": "uint32"
						}
					],
					"stateMutability": "view",
					"type": "function"
				},
				{
					"inputs": [],
					"name": "Name",
					"outputs": [
						{
							"internalType": "string",
							"name": "",
							"type": "string"
						}
					],
					"stateMutability": "view",
					"type": "function"
				},
				{
					"inputs": [
						{
							"internalType": "address",
							"name": "_subscriber",
							"type": "address"
						},
						{
							"internalType": "uint32",
							"name": "_days",
							"type": "uint32"
						}
					],
					"name": "RemoveFromSubscription",
					"outputs": [
						{
							"internalType": "bool",
							"name": "",
							"type": "bool"
						}
					],
					"stateMutability": "nonpayable",
					"type": "function"
				},
				{
					"inputs": [
						{
							"internalType": "bool",
							"name": "_allow",
							"type": "bool"
						}
					],
					"name": "SetAllowSubscribing",
					"outputs": [
						{
							"internalType": "bool",
							"name": "",
							"type": "bool"
						}
					],
					"stateMutability": "nonpayable",
					"type": "function"
				},
				{
					"inputs": [
						{
							"internalType": "uint32",
							"name": "_days",
							"type": "uint32"
						}
					],
					"name": "SetDaysPerSeason",
					"outputs": [
						{
							"internalType": "bool",
							"name": "",
							"type": "bool"
						}
					],
					"stateMutability": "nonpayable",
					"type": "function"
				},
				{
					"inputs": [
						{
							"internalType": "uint16",
							"name": "_usd",
							"type": "uint16"
						}
					],
					"name": "SetMinimumUSDToCount",
					"outputs": [
						{
							"internalType": "bool",
							"name": "",
							"type": "bool"
						}
					],
					"stateMutability": "nonpayable",
					"type": "function"
				},
				{
					"inputs": [
						{
							"internalType": "uint16",
							"name": "_usd",
							"type": "uint16"
						}
					],
					"name": "SetSubscriptionCostPerDay",
					"outputs": [
						{
							"internalType": "bool",
							"name": "",
							"type": "bool"
						}
					],
					"stateMutability": "nonpayable",
					"type": "function"
				},
				{
					"inputs": [
						{
							"internalType": "uint32",
							"name": "_subscriptions",
							"type": "uint32"
						}
					],
					"name": "SetSubscriptionsToReward",
					"outputs": [
						{
							"internalType": "bool",
							"name": "",
							"type": "bool"
						}
					],
					"stateMutability": "nonpayable",
					"type": "function"
				},
				{
					"inputs": [
						{
							"internalType": "uint32",
							"name": "_transactions",
							"type": "uint32"
						}
					],
					"name": "SetTransactionsPerSeason",
					"outputs": [
						{
							"internalType": "bool",
							"name": "",
							"type": "bool"
						}
					],
					"stateMutability": "nonpayable",
					"type": "function"
				},
				{
					"inputs": [
						{
							"internalType": "uint32",
							"name": "_days",
							"type": "uint32"
						},
						{
							"internalType": "address",
							"name": "_referrer",
							"type": "address"
						}
					],
					"name": "Subscribe",
					"outputs": [
						{
							"internalType": "bool",
							"name": "",
							"type": "bool"
						}
					],
					"stateMutability": "payable",
					"type": "function"
				},
				{
					"inputs": [
						{
							"internalType": "address",
							"name": "_subscriber",
							"type": "address"
						}
					],
					"name": "SubscriberProfile",
					"outputs": [
						{
							"internalType": "address",
							"name": "referredBy",
							"type": "address"
						},
						{
							"internalType": "uint32",
							"name": "transactionCount",
							"type": "uint32"
						},
						{
							"internalType": "uint32",
							"name": "nextSeason",
							"type": "uint32"
						},
						{
							"internalType": "uint32",
							"name": "subscribedUntil",
							"type": "uint32"
						},
						{
							"internalType": "uint32",
							"name": "subscribtionDaysLeft",
							"type": "uint32"
						},
						{
							"internalType": "bool",
							"name": "isSubscriber",
							"type": "bool"
						},
						{
							"internalType": "uint32",
							"name": "lastTransaction",
							"type": "uint32"
						}
					],
					"stateMutability": "view",
					"type": "function"
				},
				{
					"stateMutability": "payable",
					"type": "receive"
				}
			],
			"devdoc": {
				"kind": "dev",
				"methods": {},
				"version": 1
			},
			"evm": {
				"assembly": "    /* \"Payment/Subscribers.sol\":384:13289  contract Subscribers{... */\n  mstore(0x40, 0x80)\n    /* \"Payment/Subscribers.sol\":954:990  bool private allowSubscribing = true */\n  0x00\n  dup1\n  sload\n  not(sub(shl(0x90, 0x01), 0x01))\n    /* \"Payment/Subscribers.sol\":1514:1551  uint16 private minimumUSDToCount = 50 */\n  and\n  0x320000001e000000320000000500210001\n  or\n  dup2\n  sstore\n  0x01\n    /* \"Payment/Subscribers.sol\":1566:1596  uint256 private maticPrice = 0 */\n  sstore\n    /* \"Payment/Subscribers.sol\":1314:1356  uint16 private subscriptionCostPerDay = 33 */\n  0x02\n    /* \"Payment/Subscribers.sol\":1603:1634  uint8 private maticDecimals = 0 */\n  dup1\n  sload\n  not(0xff)\n  and\n  swap1\n  sstore\n    /* \"Payment/Subscribers.sol\":384:13289  contract Subscribers{... */\n  callvalue\n  dup1\n  iszero\n  tag_1\n  jumpi\n  0x00\n  dup1\n  revert\ntag_1:\n  pop\n  dataSize(sub_0)\n  dup1\n  dataOffset(sub_0)\n  0x00\n  codecopy\n  0x00\n  return\nstop\n\nsub_0: assembly {\n        /* \"Payment/Subscribers.sol\":384:13289  contract Subscribers{... */\n      mstore(0x40, 0x80)\n      jumpi(tag_1, lt(calldatasize, 0x04))\n      shr(0xe0, calldataload(0x00))\n      dup1\n      0x8774fd67\n      gt\n      tag_22\n      jumpi\n      dup1\n      0xd91f54cd\n      gt\n      tag_23\n      jumpi\n      dup1\n      0xdda308b4\n      gt\n      tag_24\n      jumpi\n      dup1\n      0xdda308b4\n      eq\n      tag_19\n      jumpi\n      dup1\n      0xe31357ca\n      eq\n      tag_20\n      jumpi\n      dup1\n      0xf28bca6a\n      eq\n      tag_21\n      jumpi\n      jump(tag_2)\n    tag_24:\n      dup1\n      0xd91f54cd\n      eq\n      tag_17\n      jumpi\n      dup1\n      0xda4f1677\n      eq\n      tag_18\n      jumpi\n      jump(tag_2)\n    tag_23:\n      dup1\n      0xb108b92b\n      gt\n      tag_25\n      jumpi\n      dup1\n      0xb108b92b\n      eq\n      tag_14\n      jumpi\n      dup1\n      0xb74a8b1d\n      eq\n      tag_15\n      jumpi\n      dup1\n      0xbc558577\n      eq\n      tag_16\n      jumpi\n      jump(tag_2)\n    tag_25:\n      dup1\n      0x8774fd67\n      eq\n      tag_12\n      jumpi\n      dup1\n      0xb079f5fb\n      eq\n      tag_13\n      jumpi\n      jump(tag_2)\n    tag_22:\n      dup1\n      0x50e038e1\n      gt\n      tag_26\n      jumpi\n      dup1\n      0x8052474d\n      gt\n      tag_27\n      jumpi\n      dup1\n      0x8052474d\n      eq\n      tag_9\n      jumpi\n      dup1\n      0x81323ce1\n      eq\n      tag_10\n      jumpi\n      dup1\n      0x86f90603\n      eq\n      tag_11\n      jumpi\n      jump(tag_2)\n    tag_27:\n      dup1\n      0x50e038e1\n      eq\n      tag_7\n      jumpi\n      dup1\n      0x568e2da0\n      eq\n      tag_8\n      jumpi\n      jump(tag_2)\n    tag_26:\n      dup1\n      0x0a7b9161\n      eq\n      tag_3\n      jumpi\n      dup1\n      0x38cc02e6\n      eq\n      tag_4\n      jumpi\n      dup1\n      0x38cc21d6\n      eq\n      tag_5\n      jumpi\n      dup1\n      0x46842a81\n      eq\n      tag_6\n      jumpi\n      jump(tag_2)\n    tag_1:\n      jumpi(tag_2, calldatasize)\n        /* \"Payment/Subscribers.sol\":13066:13075  msg.value */\n      callvalue\n        /* \"Payment/Subscribers.sol\":13066:13079  msg.value > 0 */\n      iszero\n        /* \"Payment/Subscribers.sol\":13063:13183  if(msg.value > 0)... */\n      tag_30\n      jumpi\n        /* \"Payment/Subscribers.sol\":13110:13153  pt.GetContractAddress(\".Corporation.Vault\") */\n      mload(0x40)\n      0xc75ffd8600000000000000000000000000000000000000000000000000000000\n      dup2\n      mstore\n        /* \"#utility.yul\":216:218   */\n      0x20\n        /* \"Payment/Subscribers.sol\":13110:13153  pt.GetContractAddress(\".Corporation.Vault\") */\n      0x04\n      dup3\n      add\n        /* \"#utility.yul\":198:219   */\n      mstore\n        /* \"#utility.yul\":255:257   */\n      0x12\n        /* \"#utility.yul\":235:253   */\n      0x24\n      dup3\n      add\n        /* \"#utility.yul\":228:258   */\n      mstore\n        /* \"#utility.yul\":294:314   */\n      0x2e436f72706f726174696f6e2e5661756c740000000000000000000000000000\n        /* \"#utility.yul\":274:292   */\n      0x44\n      dup3\n      add\n        /* \"#utility.yul\":267:315   */\n      mstore\n        /* \"Payment/Subscribers.sol\":1174:1216  0x163342FAe2bBe3303e5A9ADCe4BC9fb44d0FF062 */\n      0x163342fae2bbe3303e5a9adce4bc9fb44d0ff062\n      swap1\n        /* \"Payment/Subscribers.sol\":13110:13131  pt.GetContractAddress */\n      0xc75ffd86\n      swap1\n        /* \"#utility.yul\":332:350   */\n      0x64\n      add\n        /* \"Payment/Subscribers.sol\":13110:13153  pt.GetContractAddress(\".Corporation.Vault\") */\n      0x20\n      mload(0x40)\n      dup1\n      dup4\n      sub\n      dup2\n      dup7\n      gas\n      staticcall\n      iszero\n      dup1\n      iszero\n      tag_34\n      jumpi\n      returndatasize\n      0x00\n      dup1\n      returndatacopy\n      revert(0x00, returndatasize)\n    tag_34:\n      pop\n      pop\n      pop\n      pop\n      mload(0x40)\n      returndatasize\n      not(0x1f)\n      0x1f\n      dup3\n      add\n      and\n      dup3\n      add\n      dup1\n      0x40\n      mstore\n      pop\n      dup2\n      add\n      swap1\n      tag_35\n      swap2\n      swap1\n      tag_36\n      jump\t// in\n    tag_35:\n        /* \"Payment/Subscribers.sol\":13094:13160  payable(address(pt.GetContractAddress(\".Corporation.Vault\"))).call */\n      0xffffffffffffffffffffffffffffffffffffffff\n      and\n        /* \"Payment/Subscribers.sol\":13169:13178  msg.value */\n      callvalue\n        /* \"Payment/Subscribers.sol\":13094:13183  payable(address(pt.GetContractAddress(\".Corporation.Vault\"))).call{value : msg.value}(\"\") */\n      mload(0x40)\n      0x00\n      mload(0x40)\n      dup1\n      dup4\n      sub\n      dup2\n      dup6\n      dup8\n      gas\n      call\n      swap3\n      pop\n      pop\n      pop\n      returndatasize\n      dup1\n      0x00\n      dup2\n      eq\n      tag_41\n      jumpi\n      mload(0x40)\n      swap2\n      pop\n      and(add(returndatasize, 0x3f), not(0x1f))\n      dup3\n      add\n      0x40\n      mstore\n      returndatasize\n      dup3\n      mstore\n      returndatasize\n      0x00\n      0x20\n      dup5\n      add\n      returndatacopy\n      jump(tag_40)\n    tag_41:\n      0x60\n      swap2\n      pop\n    tag_40:\n      pop\n      pop\n      pop\n        /* \"Payment/Subscribers.sol\":13063:13183  if(msg.value > 0)... */\n    tag_30:\n        /* \"Payment/Subscribers.sol\":384:13289  contract Subscribers{... */\n      stop\n    tag_2:\n      callvalue\n      dup1\n      iszero\n      tag_42\n      jumpi\n      0x00\n      dup1\n      revert\n    tag_42:\n      pop\n        /* \"Payment/Subscribers.sol\":13239:13278  revert(\"Subscribers fallback reverted\") */\n      mload(0x40)\n      shl(0xe5, 0x461bcd)\n      dup2\n      mstore\n        /* \"#utility.yul\":1188:1190   */\n      0x20\n        /* \"Payment/Subscribers.sol\":13239:13278  revert(\"Subscribers fallback reverted\") */\n      0x04\n      dup3\n      add\n        /* \"#utility.yul\":1170:1191   */\n      mstore\n        /* \"#utility.yul\":1227:1229   */\n      0x1d\n        /* \"#utility.yul\":1207:1225   */\n      0x24\n      dup3\n      add\n        /* \"#utility.yul\":1200:1230   */\n      mstore\n        /* \"#utility.yul\":1266:1297   */\n      0x53756273637269626572732066616c6c6261636b207265766572746564000000\n        /* \"#utility.yul\":1246:1264   */\n      0x44\n      dup3\n      add\n        /* \"#utility.yul\":1239:1298   */\n      mstore\n        /* \"#utility.yul\":1315:1333   */\n      0x64\n      add\n        /* \"Payment/Subscribers.sol\":13239:13278  revert(\"Subscribers fallback reverted\") */\n    tag_45:\n      mload(0x40)\n      dup1\n      swap2\n      sub\n      swap1\n      revert\n        /* \"Payment/Subscribers.sol\":5972:6945  function AddToSubscription(address _subscriber, uint32 _days) public ownerOnly returns(bool){... */\n    tag_3:\n      callvalue\n      dup1\n      iszero\n      tag_47\n      jumpi\n      0x00\n      dup1\n      revert\n    tag_47:\n      pop\n      tag_48\n      tag_49\n      calldatasize\n      0x04\n      tag_50\n      jump\t// in\n    tag_49:\n      tag_51\n      jump\t// in\n    tag_48:\n      mload(0x40)\n        /* \"#utility.yul\":2001:2015   */\n      swap1\n      iszero\n        /* \"#utility.yul\":1994:2016   */\n      iszero\n        /* \"#utility.yul\":1976:2017   */\n      dup2\n      mstore\n        /* \"#utility.yul\":1964:1966   */\n      0x20\n        /* \"#utility.yul\":1949:1967   */\n      add\n        /* \"Payment/Subscribers.sol\":5972:6945  function AddToSubscription(address _subscriber, uint32 _days) public ownerOnly returns(bool){... */\n    tag_52:\n      mload(0x40)\n      dup1\n      swap2\n      sub\n      swap1\n      return\n        /* \"Payment/Subscribers.sol\":10793:11043  function SetSubscriptionsToReward(uint32 _subscriptions) public ownerOnly returns(bool){... */\n    tag_4:\n      callvalue\n      dup1\n      iszero\n      tag_54\n      jumpi\n      0x00\n      dup1\n      revert\n    tag_54:\n      pop\n      tag_48\n      tag_56\n      calldatasize\n      0x04\n      tag_57\n      jump\t// in\n    tag_56:\n      tag_58\n      jump\t// in\n        /* \"Payment/Subscribers.sol\":4013:4115  function GetAllowSubscribing() public view returns(bool){... */\n    tag_5:\n      callvalue\n      dup1\n      iszero\n      tag_60\n      jumpi\n      0x00\n      dup1\n      revert\n    tag_60:\n      pop\n        /* \"Payment/Subscribers.sol\":4064:4068  bool */\n      0x00\n        /* \"Payment/Subscribers.sol\":4090:4106  allowSubscribing */\n      sload\n      0xff\n      and\n        /* \"Payment/Subscribers.sol\":4013:4115  function GetAllowSubscribing() public view returns(bool){... */\n      jump(tag_48)\n        /* \"Payment/Subscribers.sol\":11517:11719  function SetMinimumUSDToCount(uint16 _usd) public ownerOnly returns(bool){... */\n    tag_6:\n      callvalue\n      dup1\n      iszero\n      tag_64\n      jumpi\n      0x00\n      dup1\n      revert\n    tag_64:\n      pop\n      tag_48\n      tag_66\n      calldatasize\n      0x04\n      tag_67\n      jump\t// in\n    tag_66:\n      tag_68\n      jump\t// in\n        /* \"Payment/Subscribers.sol\":5623:5964  function SetAllowSubscribing(bool _allow) public ownerOnly returns(bool){... */\n    tag_7:\n      callvalue\n      dup1\n      iszero\n      tag_70\n      jumpi\n      0x00\n      dup1\n      revert\n    tag_70:\n      pop\n      tag_48\n      tag_72\n      calldatasize\n      0x04\n      tag_73\n      jump\t// in\n    tag_72:\n      tag_74\n      jump\t// in\n        /* \"Payment/Subscribers.sol\":5309:5407  function GetDaysPerSeason() public view returns(uint32){... */\n    tag_8:\n      callvalue\n      dup1\n      iszero\n      tag_76\n      jumpi\n      0x00\n      dup1\n      revert\n    tag_76:\n      pop\n        /* \"Payment/Subscribers.sol\":5357:5363  uint32 */\n      0x00\n        /* \"Payment/Subscribers.sol\":5385:5398  daysPerSeason */\n      sload\n      0x01000000000000000000000000\n      swap1\n      div\n      0xffffffff\n      and\n        /* \"Payment/Subscribers.sol\":5309:5407  function GetDaysPerSeason() public view returns(uint32){... */\n    tag_77:\n      mload(0x40)\n        /* \"#utility.yul\":3037:3047   */\n      0xffffffff\n        /* \"#utility.yul\":3025:3048   */\n      swap1\n      swap2\n      and\n        /* \"#utility.yul\":3007:3049   */\n      dup2\n      mstore\n        /* \"#utility.yul\":2995:2997   */\n      0x20\n        /* \"#utility.yul\":2980:2998   */\n      add\n        /* \"Payment/Subscribers.sol\":5309:5407  function GetDaysPerSeason() public view returns(uint32){... */\n      tag_52\n        /* \"#utility.yul\":2863:3055   */\n      jump\n        /* \"Payment/Subscribers.sol\":1821:1873  string constant public Name = \".Payment.Subscribers\" */\n    tag_9:\n      callvalue\n      dup1\n      iszero\n      tag_81\n      jumpi\n      0x00\n      dup1\n      revert\n    tag_81:\n      pop\n      tag_82\n      mload(0x40)\n      dup1\n      0x40\n      add\n      0x40\n      mstore\n      dup1\n      0x14\n      dup2\n      mstore\n      0x20\n      add\n      0x2e5061796d656e742e5375627363726962657273000000000000000000000000\n      dup2\n      mstore\n      pop\n      dup2\n      jump\n    tag_82:\n      mload(0x40)\n      tag_52\n      swap2\n      swap1\n      tag_85\n      jump\t// in\n        /* \"Payment/Subscribers.sol\":4930:5046  function GetSubscriptionCostPerDay() public view returns(uint16){... */\n    tag_10:\n      callvalue\n      dup1\n      iszero\n      tag_86\n      jumpi\n      0x00\n      dup1\n      revert\n    tag_86:\n      pop\n        /* \"Payment/Subscribers.sol\":4987:4993  uint16 */\n      0x00\n        /* \"Payment/Subscribers.sol\":5015:5037  subscriptionCostPerDay */\n      sload\n      0x010000\n      swap1\n      div\n      0xffff\n      and\n        /* \"Payment/Subscribers.sol\":4930:5046  function GetSubscriptionCostPerDay() public view returns(uint16){... */\n    tag_87:\n      mload(0x40)\n        /* \"#utility.yul\":3846:3852   */\n      0xffff\n        /* \"#utility.yul\":3834:3853   */\n      swap1\n      swap2\n      and\n        /* \"#utility.yul\":3816:3854   */\n      dup2\n      mstore\n        /* \"#utility.yul\":3804:3806   */\n      0x20\n        /* \"#utility.yul\":3789:3807   */\n      add\n        /* \"Payment/Subscribers.sol\":4930:5046  function GetSubscriptionCostPerDay() public view returns(uint16){... */\n      tag_52\n        /* \"#utility.yul\":3672:3860   */\n      jump\n        /* \"Payment/Subscribers.sol\":11311:11509  function SetDaysPerSeason(uint32 _days) public ownerOnly returns(bool){... */\n    tag_11:\n      callvalue\n      dup1\n      iszero\n      tag_91\n      jumpi\n      0x00\n      dup1\n      revert\n    tag_91:\n      pop\n      tag_48\n      tag_93\n      calldatasize\n      0x04\n      tag_57\n      jump\t// in\n    tag_93:\n      tag_94\n      jump\t// in\n        /* \"Payment/Subscribers.sol\":7818:10553  function Subscribe(uint32 _days, address _referrer) payable public returns(bool){... */\n    tag_12:\n      tag_48\n      tag_97\n      calldatasize\n      0x04\n      tag_98\n      jump\t// in\n    tag_97:\n      tag_99\n      jump\t// in\n        /* \"Payment/Subscribers.sol\":3857:3999  function GetReferrerSubscriptions(address _referrer) public view returns(uint32){... */\n    tag_13:\n      callvalue\n      dup1\n      iszero\n      tag_101\n      jumpi\n      0x00\n      dup1\n      revert\n    tag_101:\n      pop\n      tag_77\n      tag_103\n      calldatasize\n      0x04\n      tag_104\n      jump\t// in\n    tag_103:\n        /* \"Payment/Subscribers.sol\":3958:3990  referrerSubscriptions[_referrer] */\n      0xffffffffffffffffffffffffffffffffffffffff\n      and\n        /* \"Payment/Subscribers.sol\":3930:3936  uint32 */\n      0x00\n        /* \"Payment/Subscribers.sol\":3958:3990  referrerSubscriptions[_referrer] */\n      swap1\n      dup2\n      mstore\n        /* \"Payment/Subscribers.sol\":3958:3979  referrerSubscriptions */\n      0x04\n        /* \"Payment/Subscribers.sol\":3958:3990  referrerSubscriptions[_referrer] */\n      0x20\n      mstore\n      0x40\n      swap1\n      keccak256\n      sload\n      0xffffffff\n      and\n      swap1\n        /* \"Payment/Subscribers.sol\":3857:3999  function GetReferrerSubscriptions(address _referrer) public view returns(uint32){... */\n      jump\n        /* \"Payment/Subscribers.sol\":10567:10779  function SetSubscriptionCostPerDay(uint16 _usd) public ownerOnly returns(bool){... */\n    tag_14:\n      callvalue\n      dup1\n      iszero\n      tag_107\n      jumpi\n      0x00\n      dup1\n      revert\n    tag_107:\n      pop\n      tag_48\n      tag_109\n      calldatasize\n      0x04\n      tag_67\n      jump\t// in\n    tag_109:\n      tag_110\n      jump\t// in\n        /* \"Payment/Subscribers.sol\":5187:5301  function GetTransactionsPerSeason() public view returns(uint32){... */\n    tag_15:\n      callvalue\n      dup1\n      iszero\n      tag_112\n      jumpi\n      0x00\n      dup1\n      revert\n    tag_112:\n      pop\n        /* \"Payment/Subscribers.sol\":5243:5249  uint32 */\n      0x00\n        /* \"Payment/Subscribers.sol\":5271:5292  transactionsPerSeason */\n      sload\n      0x010000000000000000\n      swap1\n      div\n      0xffffffff\n      and\n        /* \"Payment/Subscribers.sol\":5187:5301  function GetTransactionsPerSeason() public view returns(uint32){... */\n      jump(tag_77)\n        /* \"Payment/Subscribers.sol\":5415:5521  function GetMinimumUSDToCount() public view returns(uint16){... */\n    tag_16:\n      callvalue\n      dup1\n      iszero\n      tag_116\n      jumpi\n      0x00\n      dup1\n      revert\n    tag_116:\n      pop\n        /* \"Payment/Subscribers.sol\":5467:5473  uint16 */\n      0x00\n        /* \"Payment/Subscribers.sol\":5495:5512  minimumUSDToCount */\n      sload\n      0x0100000000000000000000000000000000\n      swap1\n      div\n      0xffff\n      and\n        /* \"Payment/Subscribers.sol\":5415:5521  function GetMinimumUSDToCount() public view returns(uint16){... */\n      jump(tag_87)\n        /* \"Payment/Subscribers.sol\":4129:4916  function SubscriberProfile(address _subscriber) public view returns (address referredBy, uint32 transactionCount, uint32 nextSeason, uint32 subscribedUntil, uint32 subscribtionDaysLeft, bool isSubscriber, uint32 lastTransaction){... */\n    tag_17:\n      callvalue\n      dup1\n      iszero\n      tag_120\n      jumpi\n      0x00\n      dup1\n      revert\n    tag_120:\n      pop\n      tag_121\n      tag_122\n      calldatasize\n      0x04\n      tag_104\n      jump\t// in\n    tag_122:\n      tag_123\n      jump\t// in\n    tag_121:\n      0x40\n      dup1\n      mload\n        /* \"#utility.yul\":4770:4812   */\n      0xffffffffffffffffffffffffffffffffffffffff\n        /* \"#utility.yul\":4758:4813   */\n      swap1\n      swap9\n      and\n        /* \"#utility.yul\":4740:4814   */\n      dup9\n      mstore\n        /* \"#utility.yul\":4833:4843   */\n      0xffffffff\n        /* \"#utility.yul\":4879:4894   */\n      swap7\n      dup8\n      and\n        /* \"#utility.yul\":4874:4876   */\n      0x20\n        /* \"#utility.yul\":4859:4877   */\n      dup10\n      add\n        /* \"#utility.yul\":4852:4895   */\n      mstore\n        /* \"#utility.yul\":4931:4946   */\n      swap5\n      dup7\n      and\n        /* \"#utility.yul\":4911:4929   */\n      swap5\n      dup8\n      add\n        /* \"#utility.yul\":4904:4947   */\n      swap5\n      swap1\n      swap5\n      mstore\n        /* \"#utility.yul\":4983:4998   */\n      swap2\n      dup5\n      and\n        /* \"#utility.yul\":4978:4980   */\n      0x60\n        /* \"#utility.yul\":4963:4981   */\n      dup7\n      add\n        /* \"#utility.yul\":4956:4999   */\n      mstore\n        /* \"#utility.yul\":5036:5051   */\n      dup4\n      and\n        /* \"#utility.yul\":5030:5033   */\n      0x80\n        /* \"#utility.yul\":5015:5034   */\n      dup6\n      add\n        /* \"#utility.yul\":5008:5052   */\n      mstore\n        /* \"#utility.yul\":5096:5110   */\n      iszero\n        /* \"#utility.yul\":5089:5111   */\n      iszero\n        /* \"#utility.yul\":5083:5086   */\n      0xa0\n        /* \"#utility.yul\":5068:5087   */\n      dup5\n      add\n        /* \"#utility.yul\":5061:5112   */\n      mstore\n        /* \"#utility.yul\":5149:5164   */\n      and\n        /* \"#utility.yul\":5143:5146   */\n      0xc0\n        /* \"#utility.yul\":5128:5147   */\n      dup3\n      add\n        /* \"#utility.yul\":5121:5165   */\n      mstore\n        /* \"#utility.yul\":4727:4730   */\n      0xe0\n        /* \"#utility.yul\":4712:4731   */\n      add\n        /* \"Payment/Subscribers.sol\":4129:4916  function SubscriberProfile(address _subscriber) public view returns (address referredBy, uint32 transactionCount, uint32 nextSeason, uint32 subscribedUntil, uint32 subscribtionDaysLeft, bool isSubscriber, uint32 lastTransaction){... */\n      tag_52\n        /* \"#utility.yul\":4441:5171   */\n      jump\n        /* \"Payment/Subscribers.sol\":11733:12926  function AllowProcessing(address _subscriber, uint256 _amount) public returns (bool){... */\n    tag_18:\n      callvalue\n      dup1\n      iszero\n      tag_126\n      jumpi\n      0x00\n      dup1\n      revert\n    tag_126:\n      pop\n      tag_48\n      tag_128\n      calldatasize\n      0x04\n      tag_129\n      jump\t// in\n    tag_128:\n      tag_130\n      jump\t// in\n        /* \"Payment/Subscribers.sol\":5060:5174  function GetSubscriptionsToReward() public view returns(uint32){... */\n    tag_19:\n      callvalue\n      dup1\n      iszero\n      tag_132\n      jumpi\n      0x00\n      dup1\n      revert\n    tag_132:\n      pop\n        /* \"Payment/Subscribers.sol\":5116:5122  uint32 */\n      0x00\n        /* \"Payment/Subscribers.sol\":5144:5165  subscriptionsToReward */\n      sload\n      0x0100000000\n      swap1\n      div\n      0xffffffff\n      and\n        /* \"Payment/Subscribers.sol\":5060:5174  function GetSubscriptionsToReward() public view returns(uint32){... */\n      jump(tag_77)\n        /* \"Payment/Subscribers.sol\":11057:11303  function SetTransactionsPerSeason(uint32 _transactions) public ownerOnly returns(bool){... */\n    tag_20:\n      callvalue\n      dup1\n      iszero\n      tag_136\n      jumpi\n      0x00\n      dup1\n      revert\n    tag_136:\n      pop\n      tag_48\n      tag_138\n      calldatasize\n      0x04\n      tag_57\n      jump\t// in\n    tag_138:\n      tag_139\n      jump\t// in\n        /* \"Payment/Subscribers.sol\":6953:7804  function RemoveFromSubscription(address _subscriber, uint32 _days) public ownerOnly returns(bool){... */\n    tag_21:\n      callvalue\n      dup1\n      iszero\n      tag_141\n      jumpi\n      0x00\n      dup1\n      revert\n    tag_141:\n      pop\n      tag_48\n      tag_143\n      calldatasize\n      0x04\n      tag_50\n      jump\t// in\n    tag_143:\n      tag_144\n      jump\t// in\n        /* \"Payment/Subscribers.sol\":5972:6945  function AddToSubscription(address _subscriber, uint32 _days) public ownerOnly returns(bool){... */\n    tag_51:\n        /* \"Payment/Subscribers.sol\":6059:6063  bool */\n      0x00\n        /* \"Payment/Subscribers.sol\":2603:2613  msg.sender */\n      caller\n        /* \"Payment/Subscribers.sol\":2589:2613  pt.Owner() != msg.sender */\n      0xffffffffffffffffffffffffffffffffffffffff\n      and\n        /* \"Payment/Subscribers.sol\":1174:1216  0x163342FAe2bBe3303e5A9ADCe4BC9fb44d0FF062 */\n      0x163342fae2bbe3303e5a9adce4bc9fb44d0ff062\n        /* \"Payment/Subscribers.sol\":2589:2597  pt.Owner */\n      0xffffffffffffffffffffffffffffffffffffffff\n      and\n      0xb4a99a4e\n        /* \"Payment/Subscribers.sol\":2589:2599  pt.Owner() */\n      mload(0x40)\n      dup2\n      0xffffffff\n      and\n      0xe0\n      shl\n      dup2\n      mstore\n      0x04\n      add\n      0x20\n      mload(0x40)\n      dup1\n      dup4\n      sub\n      dup2\n      dup7\n      gas\n      staticcall\n      iszero\n      dup1\n      iszero\n      tag_148\n      jumpi\n      returndatasize\n      0x00\n      dup1\n      returndatacopy\n      revert(0x00, returndatasize)\n    tag_148:\n      pop\n      pop\n      pop\n      pop\n      mload(0x40)\n      returndatasize\n      not(0x1f)\n      0x1f\n      dup3\n      add\n      and\n      dup3\n      add\n      dup1\n      0x40\n      mstore\n      pop\n      dup2\n      add\n      swap1\n      tag_149\n      swap2\n      swap1\n      tag_36\n      jump\t// in\n    tag_149:\n        /* \"Payment/Subscribers.sol\":2589:2613  pt.Owner() != msg.sender */\n      0xffffffffffffffffffffffffffffffffffffffff\n      and\n      eq\n        /* \"Payment/Subscribers.sol\":2586:2648  if(pt.Owner() != msg.sender)... */\n      tag_150\n      jumpi\n        /* \"Payment/Subscribers.sol\":2628:2648  revert(\"Owner only\") */\n      mload(0x40)\n      shl(0xe5, 0x461bcd)\n      dup2\n      mstore\n        /* \"#utility.yul\":5698:5700   */\n      0x20\n        /* \"Payment/Subscribers.sol\":2628:2648  revert(\"Owner only\") */\n      0x04\n      dup3\n      add\n        /* \"#utility.yul\":5680:5701   */\n      mstore\n        /* \"#utility.yul\":5737:5739   */\n      0x0a\n        /* \"#utility.yul\":5717:5735   */\n      0x24\n      dup3\n      add\n        /* \"#utility.yul\":5710:5740   */\n      mstore\n        /* \"#utility.yul\":5776:5788   */\n      0x4f776e6572206f6e6c7900000000000000000000000000000000000000000000\n        /* \"#utility.yul\":5756:5774   */\n      0x44\n      dup3\n      add\n        /* \"#utility.yul\":5749:5789   */\n      mstore\n        /* \"#utility.yul\":5806:5824   */\n      0x64\n      add\n        /* \"Payment/Subscribers.sol\":2628:2648  revert(\"Owner only\") */\n      tag_45\n        /* \"#utility.yul\":5496:5830   */\n      jump\n        /* \"Payment/Subscribers.sol\":2586:2648  if(pt.Owner() != msg.sender)... */\n    tag_150:\n        /* \"Payment/Subscribers.sol\":6116:6140  extcodesize(_subscriber) */\n      dup3\n      extcodesize\n        /* \"Payment/Subscribers.sol\":6156:6165  size != 0 */\n      0xffffffff\n      dup2\n      and\n      iszero\n        /* \"Payment/Subscribers.sol\":6153:6221  if(size != 0)... */\n      tag_154\n      jumpi\n        /* \"Payment/Subscribers.sol\":6180:6221  revert(\"Contracts can not be subscribed\") */\n      mload(0x40)\n      shl(0xe5, 0x461bcd)\n      dup2\n      mstore\n        /* \"#utility.yul\":6037:6039   */\n      0x20\n        /* \"Payment/Subscribers.sol\":6180:6221  revert(\"Contracts can not be subscribed\") */\n      0x04\n      dup3\n      add\n        /* \"#utility.yul\":6019:6040   */\n      mstore\n        /* \"#utility.yul\":6076:6078   */\n      0x1f\n        /* \"#utility.yul\":6056:6074   */\n      0x24\n      dup3\n      add\n        /* \"#utility.yul\":6049:6079   */\n      mstore\n        /* \"#utility.yul\":6115:6148   */\n      0x436f6e7472616374732063616e206e6f74206265207375627363726962656400\n        /* \"#utility.yul\":6095:6113   */\n      0x44\n      dup3\n      add\n        /* \"#utility.yul\":6088:6149   */\n      mstore\n        /* \"#utility.yul\":6166:6184   */\n      0x64\n      add\n        /* \"Payment/Subscribers.sol\":6180:6221  revert(\"Contracts can not be subscribed\") */\n      tag_45\n        /* \"#utility.yul\":5835:6190   */\n      jump\n        /* \"Payment/Subscribers.sol\":6153:6221  if(size != 0)... */\n    tag_154:\n        /* \"Payment/Subscribers.sol\":6266:6290  subscribers[_subscriber] */\n      0xffffffffffffffffffffffffffffffffffffffff\n      dup5\n      and\n        /* \"Payment/Subscribers.sol\":6234:6263  Subscriber storage subscriber */\n      0x00\n        /* \"Payment/Subscribers.sol\":6266:6290  subscribers[_subscriber] */\n      swap1\n      dup2\n      mstore\n        /* \"Payment/Subscribers.sol\":6266:6277  subscribers */\n      0x03\n        /* \"Payment/Subscribers.sol\":6266:6290  subscribers[_subscriber] */\n      0x20\n      mstore\n      0x40\n      swap1\n      keccak256\n        /* \"Payment/Subscribers.sol\":6369:6395  subscriber.subscribedUntil */\n      dup1\n      sload\n        /* \"Payment/Subscribers.sol\":6330:6345  block.timestamp */\n      timestamp\n      swap1\n        /* \"Payment/Subscribers.sol\":6369:6395  subscriber.subscribedUntil */\n      0xffffffff\n      0x0100000000000000000000000000000000000000000000000000000000\n      swap1\n      swap2\n      div\n      dup2\n      and\n        /* \"Payment/Subscribers.sol\":6362:6395  tnow > subscriber.subscribedUntil */\n      swap1\n      dup3\n      and\n      gt\n        /* \"Payment/Subscribers.sol\":6359:6624  if(tnow > subscriber.subscribedUntil){... */\n      iszero\n      tag_157\n      jumpi\n        /* \"Payment/Subscribers.sol\":6468:6482  _days * 1 days */\n      tag_158\n        /* \"Payment/Subscribers.sol\":6468:6473  _days */\n      dup6\n        /* \"Payment/Subscribers.sol\":6476:6482  1 days */\n      0x015180\n        /* \"Payment/Subscribers.sol\":6468:6482  _days * 1 days */\n      tag_159\n      jump\t// in\n    tag_158:\n        /* \"Payment/Subscribers.sol\":6454:6483  tnow + uint32(_days * 1 days) */\n      tag_160\n      swap1\n        /* \"Payment/Subscribers.sol\":6454:6458  tnow */\n      dup3\n        /* \"Payment/Subscribers.sol\":6454:6483  tnow + uint32(_days * 1 days) */\n      tag_161\n      jump\t// in\n    tag_160:\n        /* \"Payment/Subscribers.sol\":6425:6483  subscriber.subscribedUntil = tnow + uint32(_days * 1 days) */\n      dup3\n      sload\n        /* \"Payment/Subscribers.sol\":6498:6532  delete subscriber.transactionCount */\n      0xffffffff00000000ffffffffffffffffffffffffffffffffffffffff\n      and\n        /* \"Payment/Subscribers.sol\":6425:6483  subscriber.subscribedUntil = tnow + uint32(_days * 1 days) */\n      0x0100000000000000000000000000000000000000000000000000000000\n      0xffffffff\n      swap3\n      swap1\n      swap3\n      and\n      swap2\n      swap1\n      swap2\n      mul\n        /* \"Payment/Subscribers.sol\":6498:6532  delete subscriber.transactionCount */\n      0xffffffffffffffff00000000ffffffffffffffffffffffffffffffffffffffff\n      and\n      or\n      dup3\n      sstore\n        /* \"Payment/Subscribers.sol\":6359:6624  if(tnow > subscriber.subscribedUntil){... */\n      jump(tag_162)\n    tag_157:\n        /* \"Payment/Subscribers.sol\":6609:6623  _days * 1 days */\n      tag_163\n        /* \"Payment/Subscribers.sol\":6609:6614  _days */\n      dup6\n        /* \"Payment/Subscribers.sol\":6617:6623  1 days */\n      0x015180\n        /* \"Payment/Subscribers.sol\":6609:6623  _days * 1 days */\n      tag_159\n      jump\t// in\n    tag_163:\n        /* \"Payment/Subscribers.sol\":6572:6624  subscriber.subscribedUntil += uint32(_days * 1 days) */\n      dup3\n      sload\n      dup4\n      swap1\n        /* \"Payment/Subscribers.sol\":6572:6598  subscriber.subscribedUntil */\n      0x1c\n      swap1\n        /* \"Payment/Subscribers.sol\":6572:6624  subscriber.subscribedUntil += uint32(_days * 1 days) */\n      tag_164\n      swap1\n      dup5\n      swap1\n      0x0100000000000000000000000000000000000000000000000000000000\n      swap1\n      div\n      0xffffffff\n      and\n      tag_161\n      jump\t// in\n    tag_164:\n      swap3\n      pop\n      0x0100\n      exp\n      dup2\n      sload\n      dup2\n      0xffffffff\n      mul\n      not\n      and\n      swap1\n      dup4\n      0xffffffff\n      and\n      mul\n      or\n      swap1\n      sstore\n      pop\n        /* \"Payment/Subscribers.sol\":6359:6624  if(tnow > subscriber.subscribedUntil){... */\n    tag_162:\n        /* \"Payment/Subscribers.sol\":6676:6691  tnow + 120 days */\n      tag_165\n        /* \"Payment/Subscribers.sol\":6676:6680  tnow */\n      dup2\n        /* \"Payment/Subscribers.sol\":6683:6691  120 days */\n      0x9e3400\n        /* \"Payment/Subscribers.sol\":6676:6691  tnow + 120 days */\n      tag_161\n      jump\t// in\n    tag_165:\n        /* \"Payment/Subscribers.sol\":6640:6666  subscriber.subscribedUntil */\n      dup3\n      sload\n        /* \"Payment/Subscribers.sol\":6640:6692  subscriber.subscribedUntil > uint32(tnow + 120 days) */\n      0xffffffff\n      swap2\n      dup3\n      and\n        /* \"Payment/Subscribers.sol\":6640:6666  subscriber.subscribedUntil */\n      0x0100000000000000000000000000000000000000000000000000000000\n      swap1\n      swap2\n      div\n      swap1\n      swap2\n      and\n        /* \"Payment/Subscribers.sol\":6640:6692  subscriber.subscribedUntil > uint32(tnow + 120 days) */\n      gt\n        /* \"Payment/Subscribers.sol\":6637:6759  if(subscriber.subscribedUntil > uint32(tnow + 120 days))... */\n      iszero\n      tag_166\n      jumpi\n        /* \"Payment/Subscribers.sol\":6707:6759  revert(\"Total subscription can not exceed 120 days\") */\n      mload(0x40)\n      shl(0xe5, 0x461bcd)\n      dup2\n      mstore\n        /* \"#utility.yul\":7017:7019   */\n      0x20\n        /* \"Payment/Subscribers.sol\":6707:6759  revert(\"Total subscription can not exceed 120 days\") */\n      0x04\n      dup3\n      add\n        /* \"#utility.yul\":6999:7020   */\n      mstore\n        /* \"#utility.yul\":7056:7058   */\n      0x2a\n        /* \"#utility.yul\":7036:7054   */\n      0x24\n      dup3\n      add\n        /* \"#utility.yul\":7029:7059   */\n      mstore\n        /* \"#utility.yul\":7095:7129   */\n      0x546f74616c20737562736372697074696f6e2063616e206e6f74206578636565\n        /* \"#utility.yul\":7075:7093   */\n      0x44\n      dup3\n      add\n        /* \"#utility.yul\":7068:7130   */\n      mstore\n        /* \"#utility.yul\":7166:7178   */\n      0x6420313230206461797300000000000000000000000000000000000000000000\n        /* \"#utility.yul\":7146:7164   */\n      0x64\n      dup3\n      add\n        /* \"#utility.yul\":7139:7179   */\n      mstore\n        /* \"#utility.yul\":7196:7215   */\n      0x84\n      add\n        /* \"Payment/Subscribers.sol\":6707:6759  revert(\"Total subscription can not exceed 120 days\") */\n      tag_45\n        /* \"#utility.yul\":6815:7221   */\n      jump\n        /* \"Payment/Subscribers.sol\":6637:6759  if(subscriber.subscribedUntil > uint32(tnow + 120 days))... */\n    tag_166:\n        /* \"Payment/Subscribers.sol\":6832:6845  daysPerSeason */\n      sload(0x00)\n        /* \"Payment/Subscribers.sol\":6832:6854  daysPerSeason * 1 days */\n      tag_169\n      swap1\n        /* \"Payment/Subscribers.sol\":6832:6845  daysPerSeason */\n      0x01000000000000000000000000\n      swap1\n      div\n      0xffffffff\n      and\n        /* \"Payment/Subscribers.sol\":6848:6854  1 days */\n      0x015180\n        /* \"Payment/Subscribers.sol\":6832:6854  daysPerSeason * 1 days */\n      tag_159\n      jump\t// in\n    tag_169:\n        /* \"Payment/Subscribers.sol\":6796:6822  subscriber.subscribedUntil */\n      dup3\n      sload\n        /* \"Payment/Subscribers.sol\":6796:6855  subscriber.subscribedUntil + uint32(daysPerSeason * 1 days) */\n      tag_170\n      swap2\n      swap1\n        /* \"Payment/Subscribers.sol\":6796:6822  subscriber.subscribedUntil */\n      0x0100000000000000000000000000000000000000000000000000000000\n      swap1\n      div\n      0xffffffff\n      and\n        /* \"Payment/Subscribers.sol\":6796:6855  subscriber.subscribedUntil + uint32(daysPerSeason * 1 days) */\n      tag_161\n      jump\t// in\n    tag_170:\n        /* \"Payment/Subscribers.sol\":6772:6855  subscriber.nextSeason = subscriber.subscribedUntil + uint32(daysPerSeason * 1 days) */\n      dup3\n      sload\n      0xffffffff00000000ffffffffffffffffffffffffffffffffffffffffffffffff\n      and\n      0x01000000000000000000000000000000000000000000000000\n      0xffffffff\n      swap3\n      dup4\n      and\n      mul\n      or\n      dup4\n      sstore\n        /* \"Payment/Subscribers.sol\":6873:6914  SubscriptionIncreased(_subscriber, _days) */\n      0x40\n      dup1\n      mload\n        /* \"#utility.yul\":7428:7470   */\n      0xffffffffffffffffffffffffffffffffffffffff\n        /* \"#utility.yul\":7416:7471   */\n      dup10\n      and\n        /* \"#utility.yul\":7398:7472   */\n      dup2\n      mstore\n        /* \"#utility.yul\":7508:7531   */\n      swap2\n      dup8\n      and\n        /* \"#utility.yul\":7503:7505   */\n      0x20\n        /* \"#utility.yul\":7488:7506   */\n      dup4\n      add\n        /* \"#utility.yul\":7481:7532   */\n      mstore\n        /* \"Payment/Subscribers.sol\":6873:6914  SubscriptionIncreased(_subscriber, _days) */\n      0x3166e9f81aaef1a4e6f43b85db3916fde6e3f485a575555e583c0a47dfc4d5e7\n      swap2\n        /* \"#utility.yul\":7371:7389   */\n      add\n        /* \"Payment/Subscribers.sol\":6873:6914  SubscriptionIncreased(_subscriber, _days) */\n      mload(0x40)\n      dup1\n      swap2\n      sub\n      swap1\n      log1\n        /* \"Payment/Subscribers.sol\":6932:6936  true */\n      0x01\n        /* \"Payment/Subscribers.sol\":6925:6937  return(true) */\n      swap4\n      pop\n      pop\n      pop\n      pop\n        /* \"Payment/Subscribers.sol\":2661:2662  _ */\n    tag_153:\n        /* \"Payment/Subscribers.sol\":5972:6945  function AddToSubscription(address _subscriber, uint32 _days) public ownerOnly returns(bool){... */\n      swap3\n      swap2\n      pop\n      pop\n      jump\t// out\n        /* \"Payment/Subscribers.sol\":10793:11043  function SetSubscriptionsToReward(uint32 _subscriptions) public ownerOnly returns(bool){... */\n    tag_58:\n        /* \"Payment/Subscribers.sol\":10875:10879  bool */\n      0x00\n        /* \"Payment/Subscribers.sol\":2603:2613  msg.sender */\n      caller\n        /* \"Payment/Subscribers.sol\":2589:2613  pt.Owner() != msg.sender */\n      0xffffffffffffffffffffffffffffffffffffffff\n      and\n        /* \"Payment/Subscribers.sol\":1174:1216  0x163342FAe2bBe3303e5A9ADCe4BC9fb44d0FF062 */\n      0x163342fae2bbe3303e5a9adce4bc9fb44d0ff062\n        /* \"Payment/Subscribers.sol\":2589:2597  pt.Owner */\n      0xffffffffffffffffffffffffffffffffffffffff\n      and\n      0xb4a99a4e\n        /* \"Payment/Subscribers.sol\":2589:2599  pt.Owner() */\n      mload(0x40)\n      dup2\n      0xffffffff\n      and\n      0xe0\n      shl\n      dup2\n      mstore\n      0x04\n      add\n      0x20\n      mload(0x40)\n      dup1\n      dup4\n      sub\n      dup2\n      dup7\n      gas\n      staticcall\n      iszero\n      dup1\n      iszero\n      tag_175\n      jumpi\n      returndatasize\n      0x00\n      dup1\n      returndatacopy\n      revert(0x00, returndatasize)\n    tag_175:\n      pop\n      pop\n      pop\n      pop\n      mload(0x40)\n      returndatasize\n      not(0x1f)\n      0x1f\n      dup3\n      add\n      and\n      dup3\n      add\n      dup1\n      0x40\n      mstore\n      pop\n      dup2\n      add\n      swap1\n      tag_176\n      swap2\n      swap1\n      tag_36\n      jump\t// in\n    tag_176:\n        /* \"Payment/Subscribers.sol\":2589:2613  pt.Owner() != msg.sender */\n      0xffffffffffffffffffffffffffffffffffffffff\n      and\n      eq\n        /* \"Payment/Subscribers.sol\":2586:2648  if(pt.Owner() != msg.sender)... */\n      tag_177\n      jumpi\n        /* \"Payment/Subscribers.sol\":2628:2648  revert(\"Owner only\") */\n      mload(0x40)\n      shl(0xe5, 0x461bcd)\n      dup2\n      mstore\n        /* \"#utility.yul\":5698:5700   */\n      0x20\n        /* \"Payment/Subscribers.sol\":2628:2648  revert(\"Owner only\") */\n      0x04\n      dup3\n      add\n        /* \"#utility.yul\":5680:5701   */\n      mstore\n        /* \"#utility.yul\":5737:5739   */\n      0x0a\n        /* \"#utility.yul\":5717:5735   */\n      0x24\n      dup3\n      add\n        /* \"#utility.yul\":5710:5740   */\n      mstore\n        /* \"#utility.yul\":5776:5788   */\n      0x4f776e6572206f6e6c7900000000000000000000000000000000000000000000\n        /* \"#utility.yul\":5756:5774   */\n      0x44\n      dup3\n      add\n        /* \"#utility.yul\":5749:5789   */\n      mstore\n        /* \"#utility.yul\":5806:5824   */\n      0x64\n      add\n        /* \"Payment/Subscribers.sol\":2628:2648  revert(\"Owner only\") */\n      tag_45\n        /* \"#utility.yul\":5496:5830   */\n      jump\n        /* \"Payment/Subscribers.sol\":2586:2648  if(pt.Owner() != msg.sender)... */\n    tag_177:\n        /* \"Payment/Subscribers.sol\":10896:10910  _subscriptions */\n      dup2\n        /* \"Payment/Subscribers.sol\":10896:10915  _subscriptions == 0 */\n      0xffffffff\n      and\n        /* \"Payment/Subscribers.sol\":10914:10915  0 */\n      0x00\n        /* \"Payment/Subscribers.sol\":10896:10915  _subscriptions == 0 */\n      sub\n        /* \"Payment/Subscribers.sol\":10893:10958  if(_subscriptions == 0)... */\n      tag_180\n      jumpi\n        /* \"Payment/Subscribers.sol\":10930:10958  revert(\"Zero subscriptions\") */\n      mload(0x40)\n      shl(0xe5, 0x461bcd)\n      dup2\n      mstore\n        /* \"#utility.yul\":7745:7747   */\n      0x20\n        /* \"Payment/Subscribers.sol\":10930:10958  revert(\"Zero subscriptions\") */\n      0x04\n      dup3\n      add\n        /* \"#utility.yul\":7727:7748   */\n      mstore\n        /* \"#utility.yul\":7784:7786   */\n      0x12\n        /* \"#utility.yul\":7764:7782   */\n      0x24\n      dup3\n      add\n        /* \"#utility.yul\":7757:7787   */\n      mstore\n        /* \"#utility.yul\":7823:7843   */\n      0x5a65726f20737562736372697074696f6e730000000000000000000000000000\n        /* \"#utility.yul\":7803:7821   */\n      0x44\n      dup3\n      add\n        /* \"#utility.yul\":7796:7844   */\n      mstore\n        /* \"#utility.yul\":7861:7879   */\n      0x64\n      add\n        /* \"Payment/Subscribers.sol\":10930:10958  revert(\"Zero subscriptions\") */\n      tag_45\n        /* \"#utility.yul\":7543:7885   */\n      jump\n        /* \"Payment/Subscribers.sol\":10893:10958  if(_subscriptions == 0)... */\n    tag_180:\n      pop\n        /* \"Payment/Subscribers.sol\":10971:10992  subscriptionsToReward */\n      0x00\n        /* \"Payment/Subscribers.sol\":10971:11009  subscriptionsToReward = _subscriptions */\n      dup1\n      sload\n      0xffffffffffffffffffffffffffffffffffffffffffffffff00000000ffffffff\n      and\n      0x0100000000\n      0xffffffff\n      dup5\n      and\n      mul\n      or\n      swap1\n      sstore\n      0x01\n        /* \"Payment/Subscribers.sol\":2661:2662  _ */\n    tag_179:\n        /* \"Payment/Subscribers.sol\":10793:11043  function SetSubscriptionsToReward(uint32 _subscriptions) public ownerOnly returns(bool){... */\n      swap2\n      swap1\n      pop\n      jump\t// out\n        /* \"Payment/Subscribers.sol\":11517:11719  function SetMinimumUSDToCount(uint16 _usd) public ownerOnly returns(bool){... */\n    tag_68:\n        /* \"Payment/Subscribers.sol\":11585:11589  bool */\n      0x00\n        /* \"Payment/Subscribers.sol\":2603:2613  msg.sender */\n      caller\n        /* \"Payment/Subscribers.sol\":2589:2613  pt.Owner() != msg.sender */\n      0xffffffffffffffffffffffffffffffffffffffff\n      and\n        /* \"Payment/Subscribers.sol\":1174:1216  0x163342FAe2bBe3303e5A9ADCe4BC9fb44d0FF062 */\n      0x163342fae2bbe3303e5a9adce4bc9fb44d0ff062\n        /* \"Payment/Subscribers.sol\":2589:2597  pt.Owner */\n      0xffffffffffffffffffffffffffffffffffffffff\n      and\n      0xb4a99a4e\n        /* \"Payment/Subscribers.sol\":2589:2599  pt.Owner() */\n      mload(0x40)\n      dup2\n      0xffffffff\n      and\n      0xe0\n      shl\n      dup2\n      mstore\n      0x04\n      add\n      0x20\n      mload(0x40)\n      dup1\n      dup4\n      sub\n      dup2\n      dup7\n      gas\n      staticcall\n      iszero\n      dup1\n      iszero\n      tag_186\n      jumpi\n      returndatasize\n      0x00\n      dup1\n      returndatacopy\n      revert(0x00, returndatasize)\n    tag_186:\n      pop\n      pop\n      pop\n      pop\n      mload(0x40)\n      returndatasize\n      not(0x1f)\n      0x1f\n      dup3\n      add\n      and\n      dup3\n      add\n      dup1\n      0x40\n      mstore\n      pop\n      dup2\n      add\n      swap1\n      tag_187\n      swap2\n      swap1\n      tag_36\n      jump\t// in\n    tag_187:\n        /* \"Payment/Subscribers.sol\":2589:2613  pt.Owner() != msg.sender */\n      0xffffffffffffffffffffffffffffffffffffffff\n      and\n      eq\n        /* \"Payment/Subscribers.sol\":2586:2648  if(pt.Owner() != msg.sender)... */\n      tag_188\n      jumpi\n        /* \"Payment/Subscribers.sol\":2628:2648  revert(\"Owner only\") */\n      mload(0x40)\n      shl(0xe5, 0x461bcd)\n      dup2\n      mstore\n        /* \"#utility.yul\":5698:5700   */\n      0x20\n        /* \"Payment/Subscribers.sol\":2628:2648  revert(\"Owner only\") */\n      0x04\n      dup3\n      add\n        /* \"#utility.yul\":5680:5701   */\n      mstore\n        /* \"#utility.yul\":5737:5739   */\n      0x0a\n        /* \"#utility.yul\":5717:5735   */\n      0x24\n      dup3\n      add\n        /* \"#utility.yul\":5710:5740   */\n      mstore\n        /* \"#utility.yul\":5776:5788   */\n      0x4f776e6572206f6e6c7900000000000000000000000000000000000000000000\n        /* \"#utility.yul\":5756:5774   */\n      0x44\n      dup3\n      add\n        /* \"#utility.yul\":5749:5789   */\n      mstore\n        /* \"#utility.yul\":5806:5824   */\n      0x64\n      add\n        /* \"Payment/Subscribers.sol\":2628:2648  revert(\"Owner only\") */\n      tag_45\n        /* \"#utility.yul\":5496:5830   */\n      jump\n        /* \"Payment/Subscribers.sol\":2586:2648  if(pt.Owner() != msg.sender)... */\n    tag_188:\n        /* \"Payment/Subscribers.sol\":11606:11610  _usd */\n      dup2\n        /* \"Payment/Subscribers.sol\":11606:11615  _usd == 0 */\n      0xffff\n      and\n        /* \"Payment/Subscribers.sol\":11614:11615  0 */\n      0x00\n        /* \"Payment/Subscribers.sol\":11606:11615  _usd == 0 */\n      sub\n        /* \"Payment/Subscribers.sol\":11603:11648  if(_usd == 0)... */\n      tag_191\n      jumpi\n        /* \"Payment/Subscribers.sol\":11630:11648  revert(\"Zero USD\") */\n      mload(0x40)\n      shl(0xe5, 0x461bcd)\n      dup2\n      mstore\n        /* \"#utility.yul\":8092:8094   */\n      0x20\n        /* \"Payment/Subscribers.sol\":11630:11648  revert(\"Zero USD\") */\n      0x04\n      dup3\n      add\n        /* \"#utility.yul\":8074:8095   */\n      mstore\n        /* \"#utility.yul\":8131:8132   */\n      0x08\n        /* \"#utility.yul\":8111:8129   */\n      0x24\n      dup3\n      add\n        /* \"#utility.yul\":8104:8133   */\n      mstore\n        /* \"#utility.yul\":8169:8179   */\n      0x5a65726f20555344000000000000000000000000000000000000000000000000\n        /* \"#utility.yul\":8149:8167   */\n      0x44\n      dup3\n      add\n        /* \"#utility.yul\":8142:8180   */\n      mstore\n        /* \"#utility.yul\":8197:8215   */\n      0x64\n      add\n        /* \"Payment/Subscribers.sol\":11630:11648  revert(\"Zero USD\") */\n      tag_45\n        /* \"#utility.yul\":7890:8221   */\n      jump\n        /* \"Payment/Subscribers.sol\":11603:11648  if(_usd == 0)... */\n    tag_191:\n      pop\n        /* \"Payment/Subscribers.sol\":11661:11678  minimumUSDToCount */\n      0x00\n        /* \"Payment/Subscribers.sol\":11661:11685  minimumUSDToCount = _usd */\n      dup1\n      sload\n      0xffff\n      dup4\n      and\n      0x0100000000000000000000000000000000\n      mul\n      0xffffffffffffffffffffffffffff0000ffffffffffffffffffffffffffffffff\n      swap1\n      swap2\n      and\n      or\n      swap1\n      sstore\n      0x01\n        /* \"Payment/Subscribers.sol\":11517:11719  function SetMinimumUSDToCount(uint16 _usd) public ownerOnly returns(bool){... */\n      swap2\n      swap1\n      pop\n      jump\t// out\n        /* \"Payment/Subscribers.sol\":5623:5964  function SetAllowSubscribing(bool _allow) public ownerOnly returns(bool){... */\n    tag_74:\n        /* \"Payment/Subscribers.sol\":5690:5694  bool */\n      0x00\n        /* \"Payment/Subscribers.sol\":2603:2613  msg.sender */\n      caller\n        /* \"Payment/Subscribers.sol\":2589:2613  pt.Owner() != msg.sender */\n      0xffffffffffffffffffffffffffffffffffffffff\n      and\n        /* \"Payment/Subscribers.sol\":1174:1216  0x163342FAe2bBe3303e5A9ADCe4BC9fb44d0FF062 */\n      0x163342fae2bbe3303e5a9adce4bc9fb44d0ff062\n        /* \"Payment/Subscribers.sol\":2589:2597  pt.Owner */\n      0xffffffffffffffffffffffffffffffffffffffff\n      and\n      0xb4a99a4e\n        /* \"Payment/Subscribers.sol\":2589:2599  pt.Owner() */\n      mload(0x40)\n      dup2\n      0xffffffff\n      and\n      0xe0\n      shl\n      dup2\n      mstore\n      0x04\n      add\n      0x20\n      mload(0x40)\n      dup1\n      dup4\n      sub\n      dup2\n      dup7\n      gas\n      staticcall\n      iszero\n      dup1\n      iszero\n      tag_196\n      jumpi\n      returndatasize\n      0x00\n      dup1\n      returndatacopy\n      revert(0x00, returndatasize)\n    tag_196:\n      pop\n      pop\n      pop\n      pop\n      mload(0x40)\n      returndatasize\n      not(0x1f)\n      0x1f\n      dup3\n      add\n      and\n      dup3\n      add\n      dup1\n      0x40\n      mstore\n      pop\n      dup2\n      add\n      swap1\n      tag_197\n      swap2\n      swap1\n      tag_36\n      jump\t// in\n    tag_197:\n        /* \"Payment/Subscribers.sol\":2589:2613  pt.Owner() != msg.sender */\n      0xffffffffffffffffffffffffffffffffffffffff\n      and\n      eq\n        /* \"Payment/Subscribers.sol\":2586:2648  if(pt.Owner() != msg.sender)... */\n      tag_198\n      jumpi\n        /* \"Payment/Subscribers.sol\":2628:2648  revert(\"Owner only\") */\n      mload(0x40)\n      shl(0xe5, 0x461bcd)\n      dup2\n      mstore\n        /* \"#utility.yul\":5698:5700   */\n      0x20\n        /* \"Payment/Subscribers.sol\":2628:2648  revert(\"Owner only\") */\n      0x04\n      dup3\n      add\n        /* \"#utility.yul\":5680:5701   */\n      mstore\n        /* \"#utility.yul\":5737:5739   */\n      0x0a\n        /* \"#utility.yul\":5717:5735   */\n      0x24\n      dup3\n      add\n        /* \"#utility.yul\":5710:5740   */\n      mstore\n        /* \"#utility.yul\":5776:5788   */\n      0x4f776e6572206f6e6c7900000000000000000000000000000000000000000000\n        /* \"#utility.yul\":5756:5774   */\n      0x44\n      dup3\n      add\n        /* \"#utility.yul\":5749:5789   */\n      mstore\n        /* \"#utility.yul\":5806:5824   */\n      0x64\n      add\n        /* \"Payment/Subscribers.sol\":2628:2648  revert(\"Owner only\") */\n      tag_45\n        /* \"#utility.yul\":5496:5830   */\n      jump\n        /* \"Payment/Subscribers.sol\":2586:2648  if(pt.Owner() != msg.sender)... */\n    tag_198:\n        /* \"Payment/Subscribers.sol\":5711:5727  allowSubscribing */\n      sload(0x00)\n        /* \"Payment/Subscribers.sol\":5711:5737  allowSubscribing == _allow */\n      dup3\n      iszero\n      iszero\n        /* \"Payment/Subscribers.sol\":5711:5727  allowSubscribing */\n      0xff\n      swap1\n      swap2\n      and\n        /* \"Payment/Subscribers.sol\":5711:5737  allowSubscribing == _allow */\n      iszero\n      iszero\n      sub\n        /* \"Payment/Subscribers.sol\":5708:5893  if(allowSubscribing == _allow){... */\n      tag_205\n      jumpi\n        /* \"Payment/Subscribers.sol\":5758:5772  _allow == true */\n      dup2\n      iszero\n      iszero\n        /* \"Payment/Subscribers.sol\":5768:5772  true */\n      0x01\n        /* \"Payment/Subscribers.sol\":5758:5772  _allow == true */\n      sub\n        /* \"Payment/Subscribers.sol\":5755:5881  if(_allow == true)... */\n      tag_202\n      jumpi\n        /* \"Payment/Subscribers.sol\":5791:5816  revert(\"Already allowed\") */\n      mload(0x40)\n      shl(0xe5, 0x461bcd)\n      dup2\n      mstore\n        /* \"#utility.yul\":8428:8430   */\n      0x20\n        /* \"Payment/Subscribers.sol\":5791:5816  revert(\"Already allowed\") */\n      0x04\n      dup3\n      add\n        /* \"#utility.yul\":8410:8431   */\n      mstore\n        /* \"#utility.yul\":8467:8469   */\n      0x0f\n        /* \"#utility.yul\":8447:8465   */\n      0x24\n      dup3\n      add\n        /* \"#utility.yul\":8440:8470   */\n      mstore\n        /* \"#utility.yul\":8506:8523   */\n      0x416c726561647920616c6c6f7765640000000000000000000000000000000000\n        /* \"#utility.yul\":8486:8504   */\n      0x44\n      dup3\n      add\n        /* \"#utility.yul\":8479:8524   */\n      mstore\n        /* \"#utility.yul\":8541:8559   */\n      0x64\n      add\n        /* \"Payment/Subscribers.sol\":5791:5816  revert(\"Already allowed\") */\n      tag_45\n        /* \"#utility.yul\":8226:8565   */\n      jump\n        /* \"Payment/Subscribers.sol\":5755:5881  if(_allow == true)... */\n    tag_202:\n        /* \"Payment/Subscribers.sol\":5853:5881  revert(\"Already disallowed\") */\n      mload(0x40)\n      shl(0xe5, 0x461bcd)\n      dup2\n      mstore\n        /* \"#utility.yul\":8772:8774   */\n      0x20\n        /* \"Payment/Subscribers.sol\":5853:5881  revert(\"Already disallowed\") */\n      0x04\n      dup3\n      add\n        /* \"#utility.yul\":8754:8775   */\n      mstore\n        /* \"#utility.yul\":8811:8813   */\n      0x12\n        /* \"#utility.yul\":8791:8809   */\n      0x24\n      dup3\n      add\n        /* \"#utility.yul\":8784:8814   */\n      mstore\n        /* \"#utility.yul\":8850:8870   */\n      0x416c726561647920646973616c6c6f7765640000000000000000000000000000\n        /* \"#utility.yul\":8830:8848   */\n      0x44\n      dup3\n      add\n        /* \"#utility.yul\":8823:8871   */\n      mstore\n        /* \"#utility.yul\":8888:8906   */\n      0x64\n      add\n        /* \"Payment/Subscribers.sol\":5853:5881  revert(\"Already disallowed\") */\n      tag_45\n        /* \"#utility.yul\":8570:8912   */\n      jump\n        /* \"Payment/Subscribers.sol\":5755:5881  if(_allow == true)... */\n    tag_205:\n      pop\n        /* \"Payment/Subscribers.sol\":5905:5921  allowSubscribing */\n      0x00\n        /* \"Payment/Subscribers.sol\":5905:5930  allowSubscribing = _allow */\n      dup1\n      sload\n      0xffffffffffffffffffffffffffffffffffffffffffffffffffffffffffffff00\n      and\n      swap2\n      iszero\n      iszero\n      swap2\n      swap1\n      swap2\n      or\n      swap1\n      sstore\n      0x01\n      swap1\n        /* \"Payment/Subscribers.sol\":5623:5964  function SetAllowSubscribing(bool _allow) public ownerOnly returns(bool){... */\n      jump\t// out\n        /* \"Payment/Subscribers.sol\":11311:11509  function SetDaysPerSeason(uint32 _days) public ownerOnly returns(bool){... */\n    tag_94:\n        /* \"Payment/Subscribers.sol\":11376:11380  bool */\n      0x00\n        /* \"Payment/Subscribers.sol\":2603:2613  msg.sender */\n      caller\n        /* \"Payment/Subscribers.sol\":2589:2613  pt.Owner() != msg.sender */\n      0xffffffffffffffffffffffffffffffffffffffff\n      and\n        /* \"Payment/Subscribers.sol\":1174:1216  0x163342FAe2bBe3303e5A9ADCe4BC9fb44d0FF062 */\n      0x163342fae2bbe3303e5a9adce4bc9fb44d0ff062\n        /* \"Payment/Subscribers.sol\":2589:2597  pt.Owner */\n      0xffffffffffffffffffffffffffffffffffffffff\n      and\n      0xb4a99a4e\n        /* \"Payment/Subscribers.sol\":2589:2599  pt.Owner() */\n      mload(0x40)\n      dup2\n      0xffffffff\n      and\n      0xe0\n      shl\n      dup2\n      mstore\n      0x04\n      add\n      0x20\n      mload(0x40)\n      dup1\n      dup4\n      sub\n      dup2\n      dup7\n      gas\n      staticcall\n      iszero\n      dup1\n      iszero\n      tag_212\n      jumpi\n      returndatasize\n      0x00\n      dup1\n      returndatacopy\n      revert(0x00, returndatasize)\n    tag_212:\n      pop\n      pop\n      pop\n      pop\n      mload(0x40)\n      returndatasize\n      not(0x1f)\n      0x1f\n      dup3\n      add\n      and\n      dup3\n      add\n      dup1\n      0x40\n      mstore\n      pop\n      dup2\n      add\n      swap1\n      tag_213\n      swap2\n      swap1\n      tag_36\n      jump\t// in\n    tag_213:\n        /* \"Payment/Subscribers.sol\":2589:2613  pt.Owner() != msg.sender */\n      0xffffffffffffffffffffffffffffffffffffffff\n      and\n      eq\n        /* \"Payment/Subscribers.sol\":2586:2648  if(pt.Owner() != msg.sender)... */\n      tag_214\n      jumpi\n        /* \"Payment/Subscribers.sol\":2628:2648  revert(\"Owner only\") */\n      mload(0x40)\n      shl(0xe5, 0x461bcd)\n      dup2\n      mstore\n        /* \"#utility.yul\":5698:5700   */\n      0x20\n        /* \"Payment/Subscribers.sol\":2628:2648  revert(\"Owner only\") */\n      0x04\n      dup3\n      add\n        /* \"#utility.yul\":5680:5701   */\n      mstore\n        /* \"#utility.yul\":5737:5739   */\n      0x0a\n        /* \"#utility.yul\":5717:5735   */\n      0x24\n      dup3\n      add\n        /* \"#utility.yul\":5710:5740   */\n      mstore\n        /* \"#utility.yul\":5776:5788   */\n      0x4f776e6572206f6e6c7900000000000000000000000000000000000000000000\n        /* \"#utility.yul\":5756:5774   */\n      0x44\n      dup3\n      add\n        /* \"#utility.yul\":5749:5789   */\n      mstore\n        /* \"#utility.yul\":5806:5824   */\n      0x64\n      add\n        /* \"Payment/Subscribers.sol\":2628:2648  revert(\"Owner only\") */\n      tag_45\n        /* \"#utility.yul\":5496:5830   */\n      jump\n        /* \"Payment/Subscribers.sol\":2586:2648  if(pt.Owner() != msg.sender)... */\n    tag_214:\n        /* \"Payment/Subscribers.sol\":11397:11402  _days */\n      dup2\n        /* \"Payment/Subscribers.sol\":11397:11407  _days == 0 */\n      0xffffffff\n      and\n        /* \"Payment/Subscribers.sol\":11406:11407  0 */\n      0x00\n        /* \"Payment/Subscribers.sol\":11397:11407  _days == 0 */\n      sub\n        /* \"Payment/Subscribers.sol\":11394:11441  if(_days == 0)... */\n      tag_217\n      jumpi\n        /* \"Payment/Subscribers.sol\":11422:11441  revert(\"Zero days\") */\n      mload(0x40)\n      shl(0xe5, 0x461bcd)\n      dup2\n      mstore\n        /* \"#utility.yul\":9119:9121   */\n      0x20\n        /* \"Payment/Subscribers.sol\":11422:11441  revert(\"Zero days\") */\n      0x04\n      dup3\n      add\n        /* \"#utility.yul\":9101:9122   */\n      mstore\n        /* \"#utility.yul\":9158:9159   */\n      0x09\n        /* \"#utility.yul\":9138:9156   */\n      0x24\n      dup3\n      add\n        /* \"#utility.yul\":9131:9160   */\n      mstore\n        /* \"#utility.yul\":9196:9207   */\n      0x5a65726f20646179730000000000000000000000000000000000000000000000\n        /* \"#utility.yul\":9176:9194   */\n      0x44\n      dup3\n      add\n        /* \"#utility.yul\":9169:9208   */\n      mstore\n        /* \"#utility.yul\":9225:9243   */\n      0x64\n      add\n        /* \"Payment/Subscribers.sol\":11422:11441  revert(\"Zero days\") */\n      tag_45\n        /* \"#utility.yul\":8917:9249   */\n      jump\n        /* \"Payment/Subscribers.sol\":11394:11441  if(_days == 0)... */\n    tag_217:\n      pop\n        /* \"Payment/Subscribers.sol\":11454:11467  daysPerSeason */\n      0x00\n        /* \"Payment/Subscribers.sol\":11454:11475  daysPerSeason = _days */\n      dup1\n      sload\n      0xffffffff\n      dup4\n      and\n      0x01000000000000000000000000\n      mul\n      0xffffffffffffffffffffffffffffffff00000000ffffffffffffffffffffffff\n      swap1\n      swap2\n      and\n      or\n      swap1\n      sstore\n      0x01\n        /* \"Payment/Subscribers.sol\":11311:11509  function SetDaysPerSeason(uint32 _days) public ownerOnly returns(bool){... */\n      swap2\n      swap1\n      pop\n      jump\t// out\n        /* \"Payment/Subscribers.sol\":7818:10553  function Subscribe(uint32 _days, address _referrer) payable public returns(bool){... */\n    tag_99:\n        /* \"Payment/Subscribers.sol\":7893:7897  bool */\n      0x00\n        /* \"Payment/Subscribers.sol\":7914:7929  reentrantLocked */\n      dup1\n      sload\n      0x0100\n      swap1\n      div\n      0xff\n      and\n        /* \"Payment/Subscribers.sol\":7914:7937  reentrantLocked == true */\n      iszero\n      iszero\n        /* \"Payment/Subscribers.sol\":7914:7929  reentrantLocked */\n      0x01\n        /* \"Payment/Subscribers.sol\":7914:7937  reentrantLocked == true */\n      sub\n        /* \"Payment/Subscribers.sol\":7911:7979  if(reentrantLocked == true)... */\n      tag_221\n      jumpi\n        /* \"Payment/Subscribers.sol\":7952:7979  revert(\"Reentrance failed\") */\n      mload(0x40)\n      shl(0xe5, 0x461bcd)\n      dup2\n      mstore\n        /* \"#utility.yul\":9456:9458   */\n      0x20\n        /* \"Payment/Subscribers.sol\":7952:7979  revert(\"Reentrance failed\") */\n      0x04\n      dup3\n      add\n        /* \"#utility.yul\":9438:9459   */\n      mstore\n        /* \"#utility.yul\":9495:9497   */\n      0x11\n        /* \"#utility.yul\":9475:9493   */\n      0x24\n      dup3\n      add\n        /* \"#utility.yul\":9468:9498   */\n      mstore\n        /* \"#utility.yul\":9534:9553   */\n      0x5265656e7472616e6365206661696c6564000000000000000000000000000000\n        /* \"#utility.yul\":9514:9532   */\n      0x44\n      dup3\n      add\n        /* \"#utility.yul\":9507:9554   */\n      mstore\n        /* \"#utility.yul\":9571:9589   */\n      0x64\n      add\n        /* \"Payment/Subscribers.sol\":7952:7979  revert(\"Reentrance failed\") */\n      tag_45\n        /* \"#utility.yul\":9254:9595   */\n      jump\n        /* \"Payment/Subscribers.sol\":7911:7979  if(reentrantLocked == true)... */\n    tag_221:\n        /* \"Payment/Subscribers.sol\":7992:8007  reentrantLocked */\n      0x00\n        /* \"Payment/Subscribers.sol\":7992:8014  reentrantLocked = true */\n      dup1\n      sload\n      0xffffffffffffffffffffffffffffffffffffffffffffffffffffffffffff00ff\n      dup2\n      and\n      0x0100\n      or\n      swap1\n      swap2\n      sstore\n      0xff\n        /* \"Payment/Subscribers.sol\":8030:8046  allowSubscribing */\n      and\n        /* \"Payment/Subscribers.sol\":8030:8054  allowSubscribing != true */\n      iszero\n      iszero\n        /* \"Payment/Subscribers.sol\":8010:8014  true */\n      0x01\n        /* \"Payment/Subscribers.sol\":8030:8054  allowSubscribing != true */\n      eq\n        /* \"Payment/Subscribers.sol\":8027:8099  if(allowSubscribing != true)... */\n      tag_224\n      jumpi\n        /* \"Payment/Subscribers.sol\":8069:8099  revert(\"Subscribing disabled\") */\n      mload(0x40)\n      shl(0xe5, 0x461bcd)\n      dup2\n      mstore\n        /* \"#utility.yul\":9802:9804   */\n      0x20\n        /* \"Payment/Subscribers.sol\":8069:8099  revert(\"Subscribing disabled\") */\n      0x04\n      dup3\n      add\n        /* \"#utility.yul\":9784:9805   */\n      mstore\n        /* \"#utility.yul\":9841:9843   */\n      0x14\n        /* \"#utility.yul\":9821:9839   */\n      0x24\n      dup3\n      add\n        /* \"#utility.yul\":9814:9844   */\n      mstore\n        /* \"#utility.yul\":9880:9902   */\n      0x5375627363726962696e672064697361626c6564000000000000000000000000\n        /* \"#utility.yul\":9860:9878   */\n      0x44\n      dup3\n      add\n        /* \"#utility.yul\":9853:9903   */\n      mstore\n        /* \"#utility.yul\":9920:9938   */\n      0x64\n      add\n        /* \"Payment/Subscribers.sol\":8069:8099  revert(\"Subscribing disabled\") */\n      tag_45\n        /* \"#utility.yul\":9600:9944   */\n      jump\n        /* \"Payment/Subscribers.sol\":8027:8099  if(allowSubscribing != true)... */\n    tag_224:\n        /* \"Payment/Subscribers.sol\":8115:8124  msg.value */\n      callvalue\n        /* \"Payment/Subscribers.sol\":8128:8129  0 */\n      0x00\n        /* \"Payment/Subscribers.sol\":8115:8129  msg.value == 0 */\n      sub\n        /* \"Payment/Subscribers.sol\":8112:8174  if(msg.value == 0)... */\n      tag_227\n      jumpi\n        /* \"Payment/Subscribers.sol\":8144:8174  revert(\"MATIC amount is zero\") */\n      mload(0x40)\n      shl(0xe5, 0x461bcd)\n      dup2\n      mstore\n        /* \"#utility.yul\":10151:10153   */\n      0x20\n        /* \"Payment/Subscribers.sol\":8144:8174  revert(\"MATIC amount is zero\") */\n      0x04\n      dup3\n      add\n        /* \"#utility.yul\":10133:10154   */\n      mstore\n        /* \"#utility.yul\":10190:10192   */\n      0x14\n        /* \"#utility.yul\":10170:10188   */\n      0x24\n      dup3\n      add\n        /* \"#utility.yul\":10163:10193   */\n      mstore\n        /* \"#utility.yul\":10229:10251   */\n      0x4d4154494320616d6f756e74206973207a65726f000000000000000000000000\n        /* \"#utility.yul\":10209:10227   */\n      0x44\n      dup3\n      add\n        /* \"#utility.yul\":10202:10252   */\n      mstore\n        /* \"#utility.yul\":10269:10287   */\n      0x64\n      add\n        /* \"Payment/Subscribers.sol\":8144:8174  revert(\"MATIC amount is zero\") */\n      tag_45\n        /* \"#utility.yul\":9949:10293   */\n      jump\n        /* \"Payment/Subscribers.sol\":8112:8174  if(msg.value == 0)... */\n    tag_227:\n        /* \"Payment/Subscribers.sol\":8239:8249  msg.sender */\n      caller\n        /* \"Payment/Subscribers.sol\":8279:8299  extcodesize(subAddr) */\n      dup1\n      extcodesize\n      swap1\n        /* \"Payment/Subscribers.sol\":8315:8324  size != 0 */\n      0xffffffff\n      dup3\n      and\n      iszero\n        /* \"Payment/Subscribers.sol\":8312:8376  if(size != 0)... */\n      tag_230\n      jumpi\n        /* \"Payment/Subscribers.sol\":8339:8376  revert(\"Contracts can not subscribe\") */\n      mload(0x40)\n      shl(0xe5, 0x461bcd)\n      dup2\n      mstore\n        /* \"#utility.yul\":10500:10502   */\n      0x20\n        /* \"Payment/Subscribers.sol\":8339:8376  revert(\"Contracts can not subscribe\") */\n      0x04\n      dup3\n      add\n        /* \"#utility.yul\":10482:10503   */\n      mstore\n        /* \"#utility.yul\":10539:10541   */\n      0x1b\n        /* \"#utility.yul\":10519:10537   */\n      0x24\n      dup3\n      add\n        /* \"#utility.yul\":10512:10542   */\n      mstore\n        /* \"#utility.yul\":10578:10607   */\n      0x436f6e7472616374732063616e206e6f74207375627363726962650000000000\n        /* \"#utility.yul\":10558:10576   */\n      0x44\n      dup3\n      add\n        /* \"#utility.yul\":10551:10608   */\n      mstore\n        /* \"#utility.yul\":10625:10643   */\n      0x64\n      add\n        /* \"Payment/Subscribers.sol\":8339:8376  revert(\"Contracts can not subscribe\") */\n      tag_45\n        /* \"#utility.yul\":10298:10649   */\n      jump\n        /* \"Payment/Subscribers.sol\":8312:8376  if(size != 0)... */\n    tag_230:\n        /* \"Payment/Subscribers.sol\":8392:8410  _renewMATICPrice() */\n      tag_233\n        /* \"Payment/Subscribers.sol\":8392:8408  _renewMATICPrice */\n      tag_234\n        /* \"Payment/Subscribers.sol\":8392:8410  _renewMATICPrice() */\n      jump\t// in\n    tag_233:\n        /* \"Payment/Subscribers.sol\":8392:8418  _renewMATICPrice() != true */\n      iszero\n      iszero\n        /* \"Payment/Subscribers.sol\":8414:8418  true */\n      0x01\n        /* \"Payment/Subscribers.sol\":8392:8418  _renewMATICPrice() != true */\n      eq\n        /* \"Payment/Subscribers.sol\":8389:8474  if(_renewMATICPrice() != true)... */\n      tag_235\n      jumpi\n        /* \"Payment/Subscribers.sol\":8433:8474  revert(\"MATIC to USD Oracle unavailable\") */\n      mload(0x40)\n      shl(0xe5, 0x461bcd)\n      dup2\n      mstore\n        /* \"#utility.yul\":10856:10858   */\n      0x20\n        /* \"Payment/Subscribers.sol\":8433:8474  revert(\"MATIC to USD Oracle unavailable\") */\n      0x04\n      dup3\n      add\n        /* \"#utility.yul\":10838:10859   */\n      mstore\n        /* \"#utility.yul\":10895:10897   */\n      0x1f\n        /* \"#utility.yul\":10875:10893   */\n      0x24\n      dup3\n      add\n        /* \"#utility.yul\":10868:10898   */\n      mstore\n        /* \"#utility.yul\":10934:10967   */\n      0x4d4154494320746f20555344204f7261636c6520756e617661696c61626c6500\n        /* \"#utility.yul\":10914:10932   */\n      0x44\n      dup3\n      add\n        /* \"#utility.yul\":10907:10968   */\n      mstore\n        /* \"#utility.yul\":10985:11003   */\n      0x64\n      add\n        /* \"Payment/Subscribers.sol\":8433:8474  revert(\"MATIC to USD Oracle unavailable\") */\n      tag_45\n        /* \"#utility.yul\":10654:11009   */\n      jump\n        /* \"Payment/Subscribers.sol\":8389:8474  if(_renewMATICPrice() != true)... */\n    tag_235:\n        /* \"Payment/Subscribers.sol\":8531:8552  _usdAmount(msg.value) */\n      tag_238\n        /* \"Payment/Subscribers.sol\":8542:8551  msg.value */\n      callvalue\n        /* \"Payment/Subscribers.sol\":8531:8541  _usdAmount */\n      tag_239\n        /* \"Payment/Subscribers.sol\":8531:8552  _usdAmount(msg.value) */\n      jump\t// in\n    tag_238:\n        /* \"Payment/Subscribers.sol\":8505:8527  subscriptionCostPerDay */\n      sload(0x00)\n        /* \"Payment/Subscribers.sol\":8490:8552  uint32(_days * subscriptionCostPerDay) > _usdAmount(msg.value) */\n      0xffffffff\n      swap2\n      swap1\n      swap2\n      and\n      swap1\n        /* \"Payment/Subscribers.sol\":8497:8527  _days * subscriptionCostPerDay */\n      tag_240\n      swap1\n        /* \"Payment/Subscribers.sol\":8505:8527  subscriptionCostPerDay */\n      0x010000\n      swap1\n      div\n      0xffff\n      and\n        /* \"Payment/Subscribers.sol\":8497:8502  _days */\n      dup8\n        /* \"Payment/Subscribers.sol\":8497:8527  _days * subscriptionCostPerDay */\n      tag_159\n      jump\t// in\n    tag_240:\n        /* \"Payment/Subscribers.sol\":8490:8552  uint32(_days * subscriptionCostPerDay) > _usdAmount(msg.value) */\n      0xffffffff\n      and\n      gt\n        /* \"Payment/Subscribers.sol\":8487:8602  if(uint32(_days * subscriptionCostPerDay) > _usdAmount(msg.value))... */\n      iszero\n      tag_241\n      jumpi\n        /* \"Payment/Subscribers.sol\":8567:8602  revert(\"MATIC amount insufficient\") */\n      mload(0x40)\n      shl(0xe5, 0x461bcd)\n      dup2\n      mstore\n        /* \"#utility.yul\":11216:11218   */\n      0x20\n        /* \"Payment/Subscribers.sol\":8567:8602  revert(\"MATIC amount insufficient\") */\n      0x04\n      dup3\n      add\n        /* \"#utility.yul\":11198:11219   */\n      mstore\n        /* \"#utility.yul\":11255:11257   */\n      0x19\n        /* \"#utility.yul\":11235:11253   */\n      0x24\n      dup3\n      add\n        /* \"#utility.yul\":11228:11258   */\n      mstore\n        /* \"#utility.yul\":11294:11321   */\n      0x4d4154494320616d6f756e7420696e73756666696369656e7400000000000000\n        /* \"#utility.yul\":11274:11292   */\n      0x44\n      dup3\n      add\n        /* \"#utility.yul\":11267:11322   */\n      mstore\n        /* \"#utility.yul\":11339:11357   */\n      0x64\n      add\n        /* \"Payment/Subscribers.sol\":8567:8602  revert(\"MATIC amount insufficient\") */\n      tag_45\n        /* \"#utility.yul\":11014:11363   */\n      jump\n        /* \"Payment/Subscribers.sol\":8487:8602  if(uint32(_days * subscriptionCostPerDay) > _usdAmount(msg.value))... */\n    tag_241:\n        /* \"Payment/Subscribers.sol\":8647:8667  subscribers[subAddr] */\n      0xffffffffffffffffffffffffffffffffffffffff\n      dup2\n      and\n        /* \"Payment/Subscribers.sol\":8615:8644  Subscriber storage subscriber */\n      0x00\n        /* \"Payment/Subscribers.sol\":8647:8667  subscribers[subAddr] */\n      swap1\n      dup2\n      mstore\n        /* \"Payment/Subscribers.sol\":8647:8658  subscribers */\n      0x03\n        /* \"Payment/Subscribers.sol\":8647:8667  subscribers[subAddr] */\n      0x20\n      mstore\n      0x40\n      swap1\n      keccak256\n        /* \"Payment/Subscribers.sol\":8683:8709  subscriber.lastTransaction */\n      0x01\n      dup2\n      add\n      sload\n      0xffffffff\n      and\n        /* \"Payment/Subscribers.sol\":8683:8714  subscriber.lastTransaction == 0 */\n      iszero\n        /* \"Payment/Subscribers.sol\":8683:8749  subscriber.lastTransaction == 0 && subscriber.subscribedUntil == 0 */\n      dup1\n      iszero\n      tag_244\n      jumpi\n      pop\n        /* \"Payment/Subscribers.sol\":8718:8744  subscriber.subscribedUntil */\n      dup1\n      sload\n      0x0100000000000000000000000000000000000000000000000000000000\n      swap1\n      div\n      0xffffffff\n      and\n        /* \"Payment/Subscribers.sol\":8718:8749  subscriber.subscribedUntil == 0 */\n      iszero\n        /* \"Payment/Subscribers.sol\":8683:8749  subscriber.lastTransaction == 0 && subscriber.subscribedUntil == 0 */\n    tag_244:\n        /* \"Payment/Subscribers.sol\":8680:9202  if(subscriber.lastTransaction == 0 && subscriber.subscribedUntil == 0){... */\n      iszero\n      tag_253\n      jumpi\n        /* \"Payment/Subscribers.sol\":8781:8790  _referrer */\n      dup5\n        /* \"Payment/Subscribers.sol\":8770:8790  subAddr != _referrer */\n      0xffffffffffffffffffffffffffffffffffffffff\n      and\n        /* \"Payment/Subscribers.sol\":8770:8777  subAddr */\n      dup3\n        /* \"Payment/Subscribers.sol\":8770:8790  subAddr != _referrer */\n      0xffffffffffffffffffffffffffffffffffffffff\n      and\n      eq\n      iszero\n        /* \"Payment/Subscribers.sol\":8770:8817  subAddr != _referrer && _referrer != address(0) */\n      dup1\n      iszero\n      tag_246\n      jumpi\n      pop\n        /* \"Payment/Subscribers.sol\":8794:8817  _referrer != address(0) */\n      0xffffffffffffffffffffffffffffffffffffffff\n      dup6\n      and\n      iszero\n      iszero\n        /* \"Payment/Subscribers.sol\":8770:8817  subAddr != _referrer && _referrer != address(0) */\n    tag_246:\n        /* \"Payment/Subscribers.sol\":8767:9087  if(subAddr != _referrer && _referrer != address(0)){... */\n      iszero\n      tag_247\n      jumpi\n        /* \"Payment/Subscribers.sol\":8856:8878  extcodesize(_referrer) */\n      dup5\n      extcodesize\n      swap3\n      pop\n        /* \"Payment/Subscribers.sol\":8902:8911  size != 0 */\n      0xffffffff\n      dup4\n      and\n      iszero\n        /* \"Payment/Subscribers.sol\":8899:8964  if(size != 0)... */\n      tag_248\n      jumpi\n        /* \"Payment/Subscribers.sol\":8934:8964  revert(\"Referrer is contract\") */\n      mload(0x40)\n      shl(0xe5, 0x461bcd)\n      dup2\n      mstore\n        /* \"#utility.yul\":11570:11572   */\n      0x20\n        /* \"Payment/Subscribers.sol\":8934:8964  revert(\"Referrer is contract\") */\n      0x04\n      dup3\n      add\n        /* \"#utility.yul\":11552:11573   */\n      mstore\n        /* \"#utility.yul\":11609:11611   */\n      0x14\n        /* \"#utility.yul\":11589:11607   */\n      0x24\n      dup3\n      add\n        /* \"#utility.yul\":11582:11612   */\n      mstore\n        /* \"#utility.yul\":11648:11670   */\n      0x526566657272657220697320636f6e7472616374000000000000000000000000\n        /* \"#utility.yul\":11628:11646   */\n      0x44\n      dup3\n      add\n        /* \"#utility.yul\":11621:11671   */\n      mstore\n        /* \"#utility.yul\":11688:11706   */\n      0x64\n      add\n        /* \"Payment/Subscribers.sol\":8934:8964  revert(\"Referrer is contract\") */\n      tag_45\n        /* \"#utility.yul\":11368:11712   */\n      jump\n        /* \"Payment/Subscribers.sol\":8899:8964  if(size != 0)... */\n    tag_248:\n        /* \"Payment/Subscribers.sol\":8985:9017  referrerSubscriptions[_referrer] */\n      0xffffffffffffffffffffffffffffffffffffffff\n      dup6\n      and\n      0x00\n      swap1\n      dup2\n      mstore\n        /* \"Payment/Subscribers.sol\":8985:9006  referrerSubscriptions */\n      0x04\n        /* \"Payment/Subscribers.sol\":8985:9017  referrerSubscriptions[_referrer] */\n      0x20\n      mstore\n      0x40\n      dup2\n      keccak256\n        /* \"Payment/Subscribers.sol\":8985:9019  referrerSubscriptions[_referrer]++ */\n      dup1\n      sload\n      0xffffffff\n      and\n      swap2\n      tag_251\n      dup4\n      tag_252\n      jump\t// in\n    tag_251:\n      dup3\n      sload\n      0x0100\n      swap3\n      swap1\n      swap3\n      exp\n      0xffffffff\n      dup2\n      dup2\n      mul\n      not\n      swap1\n      swap4\n      and\n      swap2\n      swap1\n      swap3\n      and\n      swap2\n      swap1\n      swap2\n      mul\n      or\n      swap1\n      sstore\n      pop\n        /* \"Payment/Subscribers.sol\":9038:9071  subscriber.referredBy = _referrer */\n      dup1\n      sload\n      0xffffffffffffffffffffffff0000000000000000000000000000000000000000\n      and\n      0xffffffffffffffffffffffffffffffffffffffff\n      dup7\n      and\n      or\n      dup2\n      sstore\n        /* \"Payment/Subscribers.sol\":8767:9087  if(subAddr != _referrer && _referrer != address(0)){... */\n    tag_247:\n        /* \"Payment/Subscribers.sol\":9114:9116  15 */\n      0x0f\n        /* \"Payment/Subscribers.sol\":9106:9111  _days */\n      dup7\n        /* \"Payment/Subscribers.sol\":9106:9116  _days < 15 */\n      0xffffffff\n      and\n      lt\n        /* \"Payment/Subscribers.sol\":9103:9190  if(_days < 15)... */\n      iszero\n      tag_253\n      jumpi\n        /* \"Payment/Subscribers.sol\":9135:9190  revert(\"First subscription should be at least 15 days\") */\n      mload(0x40)\n      shl(0xe5, 0x461bcd)\n      dup2\n      mstore\n        /* \"#utility.yul\":12125:12127   */\n      0x20\n        /* \"Payment/Subscribers.sol\":9135:9190  revert(\"First subscription should be at least 15 days\") */\n      0x04\n      dup3\n      add\n        /* \"#utility.yul\":12107:12128   */\n      mstore\n        /* \"#utility.yul\":12164:12166   */\n      0x2d\n        /* \"#utility.yul\":12144:12162   */\n      0x24\n      dup3\n      add\n        /* \"#utility.yul\":12137:12167   */\n      mstore\n        /* \"#utility.yul\":12203:12237   */\n      0x466972737420737562736372697074696f6e2073686f756c6420626520617420\n        /* \"#utility.yul\":12183:12201   */\n      0x44\n      dup3\n      add\n        /* \"#utility.yul\":12176:12238   */\n      mstore\n        /* \"#utility.yul\":12274:12289   */\n      0x6c65617374203135206461797300000000000000000000000000000000000000\n        /* \"#utility.yul\":12254:12272   */\n      0x64\n      dup3\n      add\n        /* \"#utility.yul\":12247:12290   */\n      mstore\n        /* \"#utility.yul\":12307:12326   */\n      0x84\n      add\n        /* \"Payment/Subscribers.sol\":9135:9190  revert(\"First subscription should be at least 15 days\") */\n      tag_45\n        /* \"#utility.yul\":11923:12332   */\n      jump\n        /* \"Payment/Subscribers.sol\":9103:9190  if(_days < 15)... */\n    tag_253:\n        /* \"Payment/Subscribers.sol\":9282:9308  subscriber.subscribedUntil */\n      dup1\n      sload\n        /* \"Payment/Subscribers.sol\":9243:9258  block.timestamp */\n      timestamp\n      swap1\n        /* \"Payment/Subscribers.sol\":9282:9308  subscriber.subscribedUntil */\n      0xffffffff\n      0x0100000000000000000000000000000000000000000000000000000000\n      swap1\n      swap2\n      div\n      dup2\n      and\n        /* \"Payment/Subscribers.sol\":9275:9308  tnow > subscriber.subscribedUntil */\n      swap1\n      dup3\n      and\n      gt\n        /* \"Payment/Subscribers.sol\":9272:9537  if(tnow > subscriber.subscribedUntil){... */\n      iszero\n      tag_256\n      jumpi\n        /* \"Payment/Subscribers.sol\":9381:9395  _days * 1 days */\n      tag_257\n        /* \"Payment/Subscribers.sol\":9381:9386  _days */\n      dup8\n        /* \"Payment/Subscribers.sol\":9389:9395  1 days */\n      0x015180\n        /* \"Payment/Subscribers.sol\":9381:9395  _days * 1 days */\n      tag_159\n      jump\t// in\n    tag_257:\n        /* \"Payment/Subscribers.sol\":9367:9396  tnow + uint32(_days * 1 days) */\n      tag_258\n      swap1\n        /* \"Payment/Subscribers.sol\":9367:9371  tnow */\n      dup3\n        /* \"Payment/Subscribers.sol\":9367:9396  tnow + uint32(_days * 1 days) */\n      tag_161\n      jump\t// in\n    tag_258:\n        /* \"Payment/Subscribers.sol\":9338:9396  subscriber.subscribedUntil = tnow + uint32(_days * 1 days) */\n      dup3\n      sload\n        /* \"Payment/Subscribers.sol\":9411:9445  delete subscriber.transactionCount */\n      0xffffffff00000000ffffffffffffffffffffffffffffffffffffffff\n      and\n        /* \"Payment/Subscribers.sol\":9338:9396  subscriber.subscribedUntil = tnow + uint32(_days * 1 days) */\n      0x0100000000000000000000000000000000000000000000000000000000\n      0xffffffff\n      swap3\n      swap1\n      swap3\n      and\n      swap2\n      swap1\n      swap2\n      mul\n        /* \"Payment/Subscribers.sol\":9411:9445  delete subscriber.transactionCount */\n      0xffffffffffffffff00000000ffffffffffffffffffffffffffffffffffffffff\n      and\n      or\n      dup3\n      sstore\n        /* \"Payment/Subscribers.sol\":9272:9537  if(tnow > subscriber.subscribedUntil){... */\n      jump(tag_259)\n    tag_256:\n        /* \"Payment/Subscribers.sol\":9522:9536  _days * 1 days */\n      tag_260\n        /* \"Payment/Subscribers.sol\":9522:9527  _days */\n      dup8\n        /* \"Payment/Subscribers.sol\":9530:9536  1 days */\n      0x015180\n        /* \"Payment/Subscribers.sol\":9522:9536  _days * 1 days */\n      tag_159\n      jump\t// in\n    tag_260:\n        /* \"Payment/Subscribers.sol\":9485:9537  subscriber.subscribedUntil += uint32(_days * 1 days) */\n      dup3\n      sload\n      dup4\n      swap1\n        /* \"Payment/Subscribers.sol\":9485:9511  subscriber.subscribedUntil */\n      0x1c\n      swap1\n        /* \"Payment/Subscribers.sol\":9485:9537  subscriber.subscribedUntil += uint32(_days * 1 days) */\n      tag_261\n      swap1\n      dup5\n      swap1\n      0x0100000000000000000000000000000000000000000000000000000000\n      swap1\n      div\n      0xffffffff\n      and\n      tag_161\n      jump\t// in\n    tag_261:\n      swap3\n      pop\n      0x0100\n      exp\n      dup2\n      sload\n      dup2\n      0xffffffff\n      mul\n      not\n      and\n      swap1\n      dup4\n      0xffffffff\n      and\n      mul\n      or\n      swap1\n      sstore\n      pop\n        /* \"Payment/Subscribers.sol\":9272:9537  if(tnow > subscriber.subscribedUntil){... */\n    tag_259:\n        /* \"Payment/Subscribers.sol\":9589:9604  tnow + 120 days */\n      tag_262\n        /* \"Payment/Subscribers.sol\":9589:9593  tnow */\n      dup2\n        /* \"Payment/Subscribers.sol\":9596:9604  120 days */\n      0x9e3400\n        /* \"Payment/Subscribers.sol\":9589:9604  tnow + 120 days */\n      tag_161\n      jump\t// in\n    tag_262:\n        /* \"Payment/Subscribers.sol\":9553:9579  subscriber.subscribedUntil */\n      dup3\n      sload\n        /* \"Payment/Subscribers.sol\":9553:9605  subscriber.subscribedUntil > uint32(tnow + 120 days) */\n      0xffffffff\n      swap2\n      dup3\n      and\n        /* \"Payment/Subscribers.sol\":9553:9579  subscriber.subscribedUntil */\n      0x0100000000000000000000000000000000000000000000000000000000\n      swap1\n      swap2\n      div\n      swap1\n      swap2\n      and\n        /* \"Payment/Subscribers.sol\":9553:9605  subscriber.subscribedUntil > uint32(tnow + 120 days) */\n      gt\n        /* \"Payment/Subscribers.sol\":9550:9672  if(subscriber.subscribedUntil > uint32(tnow + 120 days))... */\n      iszero\n      tag_263\n      jumpi\n        /* \"Payment/Subscribers.sol\":9620:9672  revert(\"Total subscription can not exceed 120 days\") */\n      mload(0x40)\n      shl(0xe5, 0x461bcd)\n      dup2\n      mstore\n        /* \"#utility.yul\":7017:7019   */\n      0x20\n        /* \"Payment/Subscribers.sol\":9620:9672  revert(\"Total subscription can not exceed 120 days\") */\n      0x04\n      dup3\n      add\n        /* \"#utility.yul\":6999:7020   */\n      mstore\n        /* \"#utility.yul\":7056:7058   */\n      0x2a\n        /* \"#utility.yul\":7036:7054   */\n      0x24\n      dup3\n      add\n        /* \"#utility.yul\":7029:7059   */\n      mstore\n        /* \"#utility.yul\":7095:7129   */\n      0x546f74616c20737562736372697074696f6e2063616e206e6f74206578636565\n        /* \"#utility.yul\":7075:7093   */\n      0x44\n      dup3\n      add\n        /* \"#utility.yul\":7068:7130   */\n      mstore\n        /* \"#utility.yul\":7166:7178   */\n      0x6420313230206461797300000000000000000000000000000000000000000000\n        /* \"#utility.yul\":7146:7164   */\n      0x64\n      dup3\n      add\n        /* \"#utility.yul\":7139:7179   */\n      mstore\n        /* \"#utility.yul\":7196:7215   */\n      0x84\n      add\n        /* \"Payment/Subscribers.sol\":9620:9672  revert(\"Total subscription can not exceed 120 days\") */\n      tag_45\n        /* \"#utility.yul\":6815:7221   */\n      jump\n        /* \"Payment/Subscribers.sol\":9550:9672  if(subscriber.subscribedUntil > uint32(tnow + 120 days))... */\n    tag_263:\n        /* \"Payment/Subscribers.sol\":9745:9758  daysPerSeason */\n      sload(0x00)\n        /* \"Payment/Subscribers.sol\":9745:9767  daysPerSeason * 1 days */\n      tag_265\n      swap1\n        /* \"Payment/Subscribers.sol\":9745:9758  daysPerSeason */\n      0x01000000000000000000000000\n      swap1\n      div\n      0xffffffff\n      and\n        /* \"Payment/Subscribers.sol\":9761:9767  1 days */\n      0x015180\n        /* \"Payment/Subscribers.sol\":9745:9767  daysPerSeason * 1 days */\n      tag_159\n      jump\t// in\n    tag_265:\n        /* \"Payment/Subscribers.sol\":9709:9735  subscriber.subscribedUntil */\n      dup3\n      sload\n        /* \"Payment/Subscribers.sol\":9709:9768  subscriber.subscribedUntil + uint32(daysPerSeason * 1 days) */\n      tag_266\n      swap2\n      swap1\n        /* \"Payment/Subscribers.sol\":9709:9735  subscriber.subscribedUntil */\n      0x0100000000000000000000000000000000000000000000000000000000\n      swap1\n      div\n      0xffffffff\n      and\n        /* \"Payment/Subscribers.sol\":9709:9768  subscriber.subscribedUntil + uint32(daysPerSeason * 1 days) */\n      tag_161\n      jump\t// in\n    tag_266:\n        /* \"Payment/Subscribers.sol\":9685:9768  subscriber.nextSeason = subscriber.subscribedUntil + uint32(daysPerSeason * 1 days) */\n      dup3\n      sload\n      0xffffffff\n      swap2\n      swap1\n      swap2\n      and\n      0x01000000000000000000000000000000000000000000000000\n      mul\n      0xffffffff00000000ffffffffffffffffffffffffffffffffffffffffffffffff\n      swap1\n      swap2\n      and\n      or\n      dup3\n      sstore\n        /* \"Payment/Subscribers.sol\":9685:9706  subscriber.nextSeason */\n      0x00\n        /* \"Payment/Subscribers.sol\":9802:9820  _trueAmount(_days) */\n      tag_267\n        /* \"Payment/Subscribers.sol\":9814:9819  _days */\n      dup9\n        /* \"Payment/Subscribers.sol\":9802:9813  _trueAmount */\n      tag_268\n        /* \"Payment/Subscribers.sol\":9802:9820  _trueAmount(_days) */\n      jump\t// in\n    tag_267:\n        /* \"Payment/Subscribers.sol\":9781:9820  uint256 trueAmount = _trueAmount(_days) */\n      swap1\n      pop\n        /* \"Payment/Subscribers.sol\":9832:9856  uint256 subscriberAmount */\n      0x00\n        /* \"Payment/Subscribers.sol\":9859:9881  msg.value - trueAmount */\n      tag_269\n        /* \"Payment/Subscribers.sol\":9781:9820  uint256 trueAmount = _trueAmount(_days) */\n      dup3\n        /* \"Payment/Subscribers.sol\":9859:9868  msg.value */\n      callvalue\n        /* \"Payment/Subscribers.sol\":9859:9881  msg.value - trueAmount */\n      tag_270\n      jump\t// in\n    tag_269:\n        /* \"Payment/Subscribers.sol\":9897:9918  subscriber.referredBy */\n      dup5\n      sload\n        /* \"Payment/Subscribers.sol\":9832:9881  uint256 subscriberAmount = msg.value - trueAmount */\n      swap1\n      swap2\n      pop\n        /* \"Payment/Subscribers.sol\":9897:9932  subscriber.referredBy != address(0) */\n      0xffffffffffffffffffffffffffffffffffffffff\n        /* \"Payment/Subscribers.sol\":9897:9918  subscriber.referredBy */\n      and\n        /* \"Payment/Subscribers.sol\":9897:9932  subscriber.referredBy != address(0) */\n      iszero\n        /* \"Payment/Subscribers.sol\":9894:10215  if(subscriber.referredBy != address(0)){... */\n      tag_276\n      jumpi\n        /* \"Payment/Subscribers.sol\":9971:9986  trueAmount / 10 */\n      tag_272\n        /* \"Payment/Subscribers.sol\":9984:9986  10 */\n      0x0a\n        /* \"Payment/Subscribers.sol\":9971:9981  trueAmount */\n      dup4\n        /* \"Payment/Subscribers.sol\":9971:9986  trueAmount / 10 */\n      tag_273\n      jump\t// in\n    tag_272:\n        /* \"Payment/Subscribers.sol\":9950:9987  subscriberAmount += (trueAmount / 10) */\n      tag_274\n      swap1\n      dup3\n      tag_275\n      jump\t// in\n    tag_274:\n        /* \"Payment/Subscribers.sol\":10067:10088  subscriptionsToReward */\n      0x00\n      dup1\n      sload\n        /* \"Payment/Subscribers.sol\":10041:10062  subscriber.referredBy */\n      dup7\n      sload\n      0xffffffffffffffffffffffffffffffffffffffff\n      and\n        /* \"Payment/Subscribers.sol\":10019:10063  referrerSubscriptions[subscriber.referredBy] */\n      dup3\n      mstore\n        /* \"Payment/Subscribers.sol\":10067:10088  subscriptionsToReward */\n      0x04\n        /* \"Payment/Subscribers.sol\":10019:10063  referrerSubscriptions[subscriber.referredBy] */\n      0x20\n      mstore\n      0x40\n      swap1\n      swap2\n      keccak256\n      sload\n        /* \"Payment/Subscribers.sol\":9950:9987  subscriberAmount += (trueAmount / 10) */\n      swap2\n      swap3\n      pop\n        /* \"Payment/Subscribers.sol\":10067:10088  subscriptionsToReward */\n      0xffffffff\n      0x0100000000\n      swap1\n      swap2\n      div\n      dup2\n      and\n        /* \"Payment/Subscribers.sol\":10019:10063  referrerSubscriptions[subscriber.referredBy] */\n      swap2\n      and\n        /* \"Payment/Subscribers.sol\":10019:10088  referrerSubscriptions[subscriber.referredBy] >= subscriptionsToReward */\n      lt\n        /* \"Payment/Subscribers.sol\":10016:10203  if(referrerSubscriptions[subscriber.referredBy] >= subscriptionsToReward)... */\n      tag_276\n      jumpi\n        /* \"Payment/Subscribers.sol\":10123:10144  subscriber.referredBy */\n      dup4\n      sload\n      0xffffffffffffffffffffffffffffffffffffffff\n      and\n        /* \"Payment/Subscribers.sol\":10194:10197  100 */\n      0x64\n        /* \"Payment/Subscribers.sol\":10162:10190  msg.value - subscriberAmount */\n      tag_277\n        /* \"Payment/Subscribers.sol\":10174:10190  subscriberAmount */\n      dup4\n        /* \"Payment/Subscribers.sol\":10162:10171  msg.value */\n      callvalue\n        /* \"Payment/Subscribers.sol\":10162:10190  msg.value - subscriberAmount */\n      tag_270\n      jump\t// in\n    tag_277:\n        /* \"Payment/Subscribers.sol\":10161:10197  (msg.value - subscriberAmount) / 100 */\n      tag_278\n      swap2\n      swap1\n      tag_273\n      jump\t// in\n    tag_278:\n        /* \"Payment/Subscribers.sol\":10107:10203  payable(address(subscriber.referredBy)).call{value : ((msg.value - subscriberAmount) / 100)}(\"\") */\n      mload(0x40)\n      0x00\n      dup2\n      dup2\n      dup2\n      dup6\n      dup8\n      gas\n      call\n      swap3\n      pop\n      pop\n      pop\n      returndatasize\n      dup1\n      0x00\n      dup2\n      eq\n      tag_282\n      jumpi\n      mload(0x40)\n      swap2\n      pop\n      and(add(returndatasize, 0x3f), not(0x1f))\n      dup3\n      add\n      0x40\n      mstore\n      returndatasize\n      dup3\n      mstore\n      returndatasize\n      0x00\n      0x20\n      dup5\n      add\n      returndatacopy\n      jump(tag_281)\n    tag_282:\n      0x60\n      swap2\n      pop\n    tag_281:\n      pop\n      pop\n      pop\n        /* \"Payment/Subscribers.sol\":10016:10203  if(referrerSubscriptions[subscriber.referredBy] >= subscriptionsToReward)... */\n    tag_276:\n        /* \"Payment/Subscribers.sol\":10230:10250  subscriberAmount > 0 */\n      dup1\n      iszero\n        /* \"Payment/Subscribers.sol\":10227:10327  if(subscriberAmount > 0)... */\n      tag_283\n      jumpi\n        /* \"Payment/Subscribers.sol\":10265:10327  payable(address(subAddr)).call{value : (subscriberAmount)}(\"\") */\n      mload(0x40)\n        /* \"Payment/Subscribers.sol\":10265:10295  payable(address(subAddr)).call */\n      0xffffffffffffffffffffffffffffffffffffffff\n      dup7\n      and\n      swap1\n        /* \"Payment/Subscribers.sol\":10305:10321  subscriberAmount */\n      dup3\n      swap1\n        /* \"Payment/Subscribers.sol\":10265:10327  payable(address(subAddr)).call{value : (subscriberAmount)}(\"\") */\n      0x00\n      dup2\n      dup2\n      dup2\n        /* \"Payment/Subscribers.sol\":10305:10321  subscriberAmount */\n      dup6\n        /* \"Payment/Subscribers.sol\":10265:10295  payable(address(subAddr)).call */\n      dup8\n        /* \"Payment/Subscribers.sol\":10265:10327  payable(address(subAddr)).call{value : (subscriberAmount)}(\"\") */\n      gas\n      call\n      swap3\n      pop\n      pop\n      pop\n      returndatasize\n      dup1\n      0x00\n      dup2\n      eq\n      tag_287\n      jumpi\n      mload(0x40)\n      swap2\n      pop\n      and(add(returndatasize, 0x3f), not(0x1f))\n      dup3\n      add\n      0x40\n      mstore\n      returndatasize\n      dup3\n      mstore\n      returndatasize\n      0x00\n      0x20\n      dup5\n      add\n      returndatacopy\n      jump(tag_286)\n    tag_287:\n      0x60\n      swap2\n      pop\n    tag_286:\n      pop\n      pop\n      pop\n        /* \"Payment/Subscribers.sol\":10227:10327  if(subscriberAmount > 0)... */\n    tag_283:\n        /* \"Payment/Subscribers.sol\":10356:10399  pt.GetContractAddress(\".Corporation.Vault\") */\n      mload(0x40)\n      0xc75ffd8600000000000000000000000000000000000000000000000000000000\n      dup2\n      mstore\n        /* \"#utility.yul\":216:218   */\n      0x20\n        /* \"Payment/Subscribers.sol\":10356:10399  pt.GetContractAddress(\".Corporation.Vault\") */\n      0x04\n      dup3\n      add\n        /* \"#utility.yul\":198:219   */\n      mstore\n        /* \"#utility.yul\":255:257   */\n      0x12\n        /* \"#utility.yul\":235:253   */\n      0x24\n      dup3\n      add\n        /* \"#utility.yul\":228:258   */\n      mstore\n        /* \"#utility.yul\":294:314   */\n      0x2e436f72706f726174696f6e2e5661756c740000000000000000000000000000\n        /* \"#utility.yul\":274:292   */\n      0x44\n      dup3\n      add\n        /* \"#utility.yul\":267:315   */\n      mstore\n        /* \"Payment/Subscribers.sol\":1174:1216  0x163342FAe2bBe3303e5A9ADCe4BC9fb44d0FF062 */\n      0x163342fae2bbe3303e5a9adce4bc9fb44d0ff062\n      swap1\n        /* \"Payment/Subscribers.sol\":10356:10377  pt.GetContractAddress */\n      0xc75ffd86\n      swap1\n        /* \"#utility.yul\":332:350   */\n      0x64\n      add\n        /* \"Payment/Subscribers.sol\":10356:10399  pt.GetContractAddress(\".Corporation.Vault\") */\n      0x20\n      mload(0x40)\n      dup1\n      dup4\n      sub\n      dup2\n      dup7\n      gas\n      staticcall\n      iszero\n      dup1\n      iszero\n      tag_290\n      jumpi\n      returndatasize\n      0x00\n      dup1\n      returndatacopy\n      revert(0x00, returndatasize)\n    tag_290:\n      pop\n      pop\n      pop\n      pop\n      mload(0x40)\n      returndatasize\n      not(0x1f)\n      0x1f\n      dup3\n      add\n      and\n      dup3\n      add\n      dup1\n      0x40\n      mstore\n      pop\n      dup2\n      add\n      swap1\n      tag_291\n      swap2\n      swap1\n      tag_36\n      jump\t// in\n    tag_291:\n        /* \"Payment/Subscribers.sol\":10340:10406  payable(address(pt.GetContractAddress(\".Corporation.Vault\"))).call */\n      0xffffffffffffffffffffffffffffffffffffffff\n      and\n        /* \"Payment/Subscribers.sol\":10416:10437  address(this).balance */\n      selfbalance\n        /* \"Payment/Subscribers.sol\":10340:10443  payable(address(pt.GetContractAddress(\".Corporation.Vault\"))).call{value : (address(this).balance)}(\"\") */\n      mload(0x40)\n      0x00\n      mload(0x40)\n      dup1\n      dup4\n      sub\n      dup2\n      dup6\n      dup8\n      gas\n      call\n      swap3\n      pop\n      pop\n      pop\n      returndatasize\n      dup1\n      0x00\n      dup2\n      eq\n      tag_295\n      jumpi\n      mload(0x40)\n      swap2\n      pop\n      and(add(returndatasize, 0x3f), not(0x1f))\n      dup3\n      add\n      0x40\n      mstore\n      returndatasize\n      dup3\n      mstore\n      returndatasize\n      0x00\n      0x20\n      dup5\n      add\n      returndatacopy\n      jump(tag_294)\n    tag_295:\n      0x60\n      swap2\n      pop\n    tag_294:\n      pop\n      pop\n        /* \"Payment/Subscribers.sol\":10474:10479  false */\n      0x00\n        /* \"Payment/Subscribers.sol\":10456:10479  reentrantLocked = false */\n      dup1\n      sload\n      0xffffffffffffffffffffffffffffffffffffffffffffffffffffffffffff00ff\n      and\n      swap1\n      sstore\n      pop\n        /* \"Payment/Subscribers.sol\":10497:10523  Subscribed(subAddr, _days) */\n      0x40\n      dup1\n      mload\n        /* \"#utility.yul\":7428:7470   */\n      0xffffffffffffffffffffffffffffffffffffffff\n        /* \"#utility.yul\":7416:7471   */\n      dup8\n      and\n        /* \"#utility.yul\":7398:7472   */\n      dup2\n      mstore\n        /* \"#utility.yul\":7520:7530   */\n      0xffffffff\n        /* \"#utility.yul\":7508:7531   */\n      dup12\n      and\n        /* \"#utility.yul\":7503:7505   */\n      0x20\n        /* \"#utility.yul\":7488:7506   */\n      dup3\n      add\n        /* \"#utility.yul\":7481:7532   */\n      mstore\n        /* \"Payment/Subscribers.sol\":10497:10523  Subscribed(subAddr, _days) */\n      0x427f72b0a0aa45072e2b291b62327b82b019eebf02629f3d1551b1618f97739b\n      swap2\n        /* \"#utility.yul\":7371:7389   */\n      add\n        /* \"Payment/Subscribers.sol\":10497:10523  Subscribed(subAddr, _days) */\n      mload(0x40)\n      dup1\n      swap2\n      sub\n      swap1\n      log1\n      pop\n        /* \"Payment/Subscribers.sol\":10541:10545  true */\n      0x01\n      swap9\n        /* \"Payment/Subscribers.sol\":7818:10553  function Subscribe(uint32 _days, address _referrer) payable public returns(bool){... */\n      swap8\n      pop\n      pop\n      pop\n      pop\n      pop\n      pop\n      pop\n      pop\n      jump\t// out\n        /* \"Payment/Subscribers.sol\":10567:10779  function SetSubscriptionCostPerDay(uint16 _usd) public ownerOnly returns(bool){... */\n    tag_110:\n        /* \"Payment/Subscribers.sol\":10640:10644  bool */\n      0x00\n        /* \"Payment/Subscribers.sol\":2603:2613  msg.sender */\n      caller\n        /* \"Payment/Subscribers.sol\":2589:2613  pt.Owner() != msg.sender */\n      0xffffffffffffffffffffffffffffffffffffffff\n      and\n        /* \"Payment/Subscribers.sol\":1174:1216  0x163342FAe2bBe3303e5A9ADCe4BC9fb44d0FF062 */\n      0x163342fae2bbe3303e5a9adce4bc9fb44d0ff062\n        /* \"Payment/Subscribers.sol\":2589:2597  pt.Owner */\n      0xffffffffffffffffffffffffffffffffffffffff\n      and\n      0xb4a99a4e\n        /* \"Payment/Subscribers.sol\":2589:2599  pt.Owner() */\n      mload(0x40)\n      dup2\n      0xffffffff\n      and\n      0xe0\n      shl\n      dup2\n      mstore\n      0x04\n      add\n      0x20\n      mload(0x40)\n      dup1\n      dup4\n      sub\n      dup2\n      dup7\n      gas\n      staticcall\n      iszero\n      dup1\n      iszero\n      tag_300\n      jumpi\n      returndatasize\n      0x00\n      dup1\n      returndatacopy\n      revert(0x00, returndatasize)\n    tag_300:\n      pop\n      pop\n      pop\n      pop\n      mload(0x40)\n      returndatasize\n      not(0x1f)\n      0x1f\n      dup3\n      add\n      and\n      dup3\n      add\n      dup1\n      0x40\n      mstore\n      pop\n      dup2\n      add\n      swap1\n      tag_301\n      swap2\n      swap1\n      tag_36\n      jump\t// in\n    tag_301:\n        /* \"Payment/Subscribers.sol\":2589:2613  pt.Owner() != msg.sender */\n      0xffffffffffffffffffffffffffffffffffffffff\n      and\n      eq\n        /* \"Payment/Subscribers.sol\":2586:2648  if(pt.Owner() != msg.sender)... */\n      tag_302\n      jumpi\n        /* \"Payment/Subscribers.sol\":2628:2648  revert(\"Owner only\") */\n      mload(0x40)\n      shl(0xe5, 0x461bcd)\n      dup2\n      mstore\n        /* \"#utility.yul\":5698:5700   */\n      0x20\n        /* \"Payment/Subscribers.sol\":2628:2648  revert(\"Owner only\") */\n      0x04\n      dup3\n      add\n        /* \"#utility.yul\":5680:5701   */\n      mstore\n        /* \"#utility.yul\":5737:5739   */\n      0x0a\n        /* \"#utility.yul\":5717:5735   */\n      0x24\n      dup3\n      add\n        /* \"#utility.yul\":5710:5740   */\n      mstore\n        /* \"#utility.yul\":5776:5788   */\n      0x4f776e6572206f6e6c7900000000000000000000000000000000000000000000\n        /* \"#utility.yul\":5756:5774   */\n      0x44\n      dup3\n      add\n        /* \"#utility.yul\":5749:5789   */\n      mstore\n        /* \"#utility.yul\":5806:5824   */\n      0x64\n      add\n        /* \"Payment/Subscribers.sol\":2628:2648  revert(\"Owner only\") */\n      tag_45\n        /* \"#utility.yul\":5496:5830   */\n      jump\n        /* \"Payment/Subscribers.sol\":2586:2648  if(pt.Owner() != msg.sender)... */\n    tag_302:\n        /* \"Payment/Subscribers.sol\":10661:10665  _usd */\n      dup2\n        /* \"Payment/Subscribers.sol\":10661:10670  _usd == 0 */\n      0xffff\n      and\n        /* \"Payment/Subscribers.sol\":10669:10670  0 */\n      0x00\n        /* \"Payment/Subscribers.sol\":10661:10670  _usd == 0 */\n      sub\n        /* \"Payment/Subscribers.sol\":10658:10703  if(_usd == 0)... */\n      tag_305\n      jumpi\n        /* \"Payment/Subscribers.sol\":10685:10703  revert(\"Zero USD\") */\n      mload(0x40)\n      shl(0xe5, 0x461bcd)\n      dup2\n      mstore\n        /* \"#utility.yul\":8092:8094   */\n      0x20\n        /* \"Payment/Subscribers.sol\":10685:10703  revert(\"Zero USD\") */\n      0x04\n      dup3\n      add\n        /* \"#utility.yul\":8074:8095   */\n      mstore\n        /* \"#utility.yul\":8131:8132   */\n      0x08\n        /* \"#utility.yul\":8111:8129   */\n      0x24\n      dup3\n      add\n        /* \"#utility.yul\":8104:8133   */\n      mstore\n        /* \"#utility.yul\":8169:8179   */\n      0x5a65726f20555344000000000000000000000000000000000000000000000000\n        /* \"#utility.yul\":8149:8167   */\n      0x44\n      dup3\n      add\n        /* \"#utility.yul\":8142:8180   */\n      mstore\n        /* \"#utility.yul\":8197:8215   */\n      0x64\n      add\n        /* \"Payment/Subscribers.sol\":10685:10703  revert(\"Zero USD\") */\n      tag_45\n        /* \"#utility.yul\":7890:8221   */\n      jump\n        /* \"Payment/Subscribers.sol\":10658:10703  if(_usd == 0)... */\n    tag_305:\n      pop\n        /* \"Payment/Subscribers.sol\":10716:10738  subscriptionCostPerDay */\n      0x00\n        /* \"Payment/Subscribers.sol\":10716:10745  subscriptionCostPerDay = _usd */\n      dup1\n      sload\n      0xffff\n      dup4\n      and\n      0x010000\n      mul\n      0xffffffffffffffffffffffffffffffffffffffffffffffffffffffff0000ffff\n      swap1\n      swap2\n      and\n      or\n      swap1\n      sstore\n      0x01\n        /* \"Payment/Subscribers.sol\":10567:10779  function SetSubscriptionCostPerDay(uint16 _usd) public ownerOnly returns(bool){... */\n      swap2\n      swap1\n      pop\n      jump\t// out\n        /* \"Payment/Subscribers.sol\":4129:4916  function SubscriberProfile(address _subscriber) public view returns (address referredBy, uint32 transactionCount, uint32 nextSeason, uint32 subscribedUntil, uint32 subscribtionDaysLeft, bool isSubscriber, uint32 lastTransaction){... */\n    tag_123:\n        /* \"Payment/Subscribers.sol\":4405:4429  subscribers[_subscriber] */\n      0xffffffffffffffffffffffffffffffffffffffff\n      dup1\n      dup3\n      and\n        /* \"Payment/Subscribers.sol\":4198:4216  address referredBy */\n      0x00\n        /* \"Payment/Subscribers.sol\":4405:4429  subscribers[_subscriber] */\n      swap1\n      dup2\n      mstore\n        /* \"Payment/Subscribers.sol\":4405:4416  subscribers */\n      0x03\n        /* \"Payment/Subscribers.sol\":4405:4429  subscribers[_subscriber] */\n      0x20\n      swap1\n      dup2\n      mstore\n      0x40\n      dup1\n      dup4\n      keccak256\n        /* \"Payment/Subscribers.sol\":4374:4429  Subscriber memory subscriber = subscribers[_subscriber] */\n      dup2\n      mload\n      0xa0\n      dup2\n      add\n      dup4\n      mstore\n      dup2\n      sload\n      swap6\n      dup7\n      and\n      dup1\n      dup3\n      mstore\n      0xffffffff\n      0x010000000000000000000000000000000000000000\n      dup9\n      div\n      dup2\n      and\n      swap6\n      dup4\n      add\n      dup7\n      swap1\n      mstore\n      0x01000000000000000000000000000000000000000000000000\n      dup9\n      div\n      dup2\n      and\n      swap5\n      dup4\n      add\n      dup6\n      swap1\n      mstore\n      0x0100000000000000000000000000000000000000000000000000000000\n      swap1\n      swap8\n      div\n      dup8\n      and\n      0x60\n      dup4\n      add\n      dup2\n      swap1\n      mstore\n      0x01\n      swap1\n      swap4\n      add\n      sload\n      dup8\n      and\n      0x80\n      dup4\n      add\n      dup2\n      swap1\n      mstore\n      swap1\n      swap7\n      swap5\n      swap6\n      swap4\n      swap5\n      swap3\n      swap4\n        /* \"Payment/Subscribers.sol\":4198:4216  address referredBy */\n      swap3\n      dup4\n      swap3\n        /* \"Payment/Subscribers.sol\":4374:4429  Subscriber memory subscriber = subscribers[_subscriber] */\n      swap1\n        /* \"Payment/Subscribers.sol\":4722:4737  block.timestamp */\n      timestamp\n      swap1\n        /* \"Payment/Subscribers.sol\":4775:4798  subscribedUntil >= tnow */\n      dup2\n      and\n      dup7\n      lt\n      iszero\n        /* \"Payment/Subscribers.sol\":4774:4841  (subscribedUntil >= tnow) ? ((subscribedUntil - tnow) / 1 days) : 0 */\n      tag_310\n      jumpi\n        /* \"Payment/Subscribers.sol\":4840:4841  0 */\n      0x00\n        /* \"Payment/Subscribers.sol\":4774:4841  (subscribedUntil >= tnow) ? ((subscribedUntil - tnow) / 1 days) : 0 */\n      jump(tag_314)\n    tag_310:\n        /* \"Payment/Subscribers.sol\":4830:4836  1 days */\n      0x015180\n        /* \"Payment/Subscribers.sol\":4804:4826  subscribedUntil - tnow */\n      tag_312\n        /* \"Payment/Subscribers.sol\":4822:4826  tnow */\n      dup3\n        /* \"Payment/Subscribers.sol\":4804:4819  subscribedUntil */\n      dup9\n        /* \"Payment/Subscribers.sol\":4804:4826  subscribedUntil - tnow */\n      tag_313\n      jump\t// in\n    tag_312:\n        /* \"Payment/Subscribers.sol\":4803:4836  (subscribedUntil - tnow) / 1 days */\n      tag_314\n      swap2\n      swap1\n      tag_315\n      jump\t// in\n    tag_314:\n        /* \"Payment/Subscribers.sol\":4751:4841  subscribtionDaysLeft = (subscribedUntil >= tnow) ? ((subscribedUntil - tnow) / 1 days) : 0 */\n      swap5\n      pop\n        /* \"Payment/Subscribers.sol\":4888:4892  tnow */\n      dup1\n        /* \"Payment/Subscribers.sol\":4869:4892  subscribedUntil >= tnow */\n      0xffffffff\n      and\n        /* \"Payment/Subscribers.sol\":4869:4884  subscribedUntil */\n      dup7\n        /* \"Payment/Subscribers.sol\":4869:4892  subscribedUntil >= tnow */\n      0xffffffff\n      and\n      lt\n      iszero\n        /* \"Payment/Subscribers.sol\":4868:4908  (subscribedUntil >= tnow) ? true : false */\n      tag_316\n      jumpi\n        /* \"Payment/Subscribers.sol\":4903:4908  false */\n      0x00\n        /* \"Payment/Subscribers.sol\":4868:4908  (subscribedUntil >= tnow) ? true : false */\n      jump(tag_317)\n    tag_316:\n        /* \"Payment/Subscribers.sol\":4896:4900  true */\n      0x01\n        /* \"Payment/Subscribers.sol\":4868:4908  (subscribedUntil >= tnow) ? true : false */\n    tag_317:\n        /* \"Payment/Subscribers.sol\":4852:4908  isSubscriber =  (subscribedUntil >= tnow) ? true : false */\n      swap4\n      pop\n        /* \"Payment/Subscribers.sol\":4357:4916  {... */\n      pop\n      pop\n        /* \"Payment/Subscribers.sol\":4129:4916  function SubscriberProfile(address _subscriber) public view returns (address referredBy, uint32 transactionCount, uint32 nextSeason, uint32 subscribedUntil, uint32 subscribtionDaysLeft, bool isSubscriber, uint32 lastTransaction){... */\n      swap2\n      swap4\n      swap6\n      swap8\n      swap1\n      swap3\n      swap5\n      swap7\n      pop\n      jump\t// out\n        /* \"Payment/Subscribers.sol\":11733:12926  function AllowProcessing(address _subscriber, uint256 _amount) public returns (bool){... */\n    tag_130:\n        /* \"Payment/Subscribers.sol\":11833:11876  pt.GetContractAddress(\".Payment.Processor\") */\n      mload(0x40)\n      0xc75ffd8600000000000000000000000000000000000000000000000000000000\n      dup2\n      mstore\n        /* \"#utility.yul\":13492:13494   */\n      0x20\n        /* \"Payment/Subscribers.sol\":11833:11876  pt.GetContractAddress(\".Payment.Processor\") */\n      0x04\n      dup3\n      add\n        /* \"#utility.yul\":13474:13495   */\n      mstore\n        /* \"#utility.yul\":13531:13533   */\n      0x12\n        /* \"#utility.yul\":13511:13529   */\n      0x24\n      dup3\n      add\n        /* \"#utility.yul\":13504:13534   */\n      mstore\n        /* \"#utility.yul\":13570:13590   */\n      0x2e5061796d656e742e50726f636573736f720000000000000000000000000000\n        /* \"#utility.yul\":13550:13568   */\n      0x44\n      dup3\n      add\n        /* \"#utility.yul\":13543:13591   */\n      mstore\n        /* \"Payment/Subscribers.sol\":11812:11816  bool */\n      0x00\n      swap1\n        /* \"Payment/Subscribers.sol\":11880:11890  msg.sender */\n      caller\n      swap1\n        /* \"Payment/Subscribers.sol\":1174:1216  0x163342FAe2bBe3303e5A9ADCe4BC9fb44d0FF062 */\n      0x163342fae2bbe3303e5a9adce4bc9fb44d0ff062\n      swap1\n        /* \"Payment/Subscribers.sol\":11833:11854  pt.GetContractAddress */\n      0xc75ffd86\n      swap1\n        /* \"#utility.yul\":13608:13626   */\n      0x64\n      add\n        /* \"Payment/Subscribers.sol\":11833:11876  pt.GetContractAddress(\".Payment.Processor\") */\n      0x20\n      mload(0x40)\n      dup1\n      dup4\n      sub\n      dup2\n      dup7\n      gas\n      staticcall\n      iszero\n      dup1\n      iszero\n      tag_322\n      jumpi\n      returndatasize\n      0x00\n      dup1\n      returndatacopy\n      revert(0x00, returndatasize)\n    tag_322:\n      pop\n      pop\n      pop\n      pop\n      mload(0x40)\n      returndatasize\n      not(0x1f)\n      0x1f\n      dup3\n      add\n      and\n      dup3\n      add\n      dup1\n      0x40\n      mstore\n      pop\n      dup2\n      add\n      swap1\n      tag_323\n      swap2\n      swap1\n      tag_36\n      jump\t// in\n    tag_323:\n        /* \"Payment/Subscribers.sol\":11833:11890  pt.GetContractAddress(\".Payment.Processor\") != msg.sender */\n      0xffffffffffffffffffffffffffffffffffffffff\n      and\n      eq\n        /* \"Payment/Subscribers.sol\":11830:11929  if(pt.GetContractAddress(\".Payment.Processor\") != msg.sender)... */\n      tag_324\n      jumpi\n        /* \"Payment/Subscribers.sol\":11905:11929  revert(\"Processor only\") */\n      mload(0x40)\n      shl(0xe5, 0x461bcd)\n      dup2\n      mstore\n        /* \"#utility.yul\":13839:13841   */\n      0x20\n        /* \"Payment/Subscribers.sol\":11905:11929  revert(\"Processor only\") */\n      0x04\n      dup3\n      add\n        /* \"#utility.yul\":13821:13842   */\n      mstore\n        /* \"#utility.yul\":13878:13880   */\n      0x0e\n        /* \"#utility.yul\":13858:13876   */\n      0x24\n      dup3\n      add\n        /* \"#utility.yul\":13851:13881   */\n      mstore\n        /* \"#utility.yul\":13917:13933   */\n      0x50726f636573736f72206f6e6c79000000000000000000000000000000000000\n        /* \"#utility.yul\":13897:13915   */\n      0x44\n      dup3\n      add\n        /* \"#utility.yul\":13890:13934   */\n      mstore\n        /* \"#utility.yul\":13951:13969   */\n      0x64\n      add\n        /* \"Payment/Subscribers.sol\":11905:11929  revert(\"Processor only\") */\n      tag_45\n        /* \"#utility.yul\":13637:13975   */\n      jump\n        /* \"Payment/Subscribers.sol\":11830:11929  if(pt.GetContractAddress(\".Payment.Processor\") != msg.sender)... */\n    tag_324:\n        /* \"Payment/Subscribers.sol\":11974:11998  subscribers[_subscriber] */\n      0xffffffffffffffffffffffffffffffffffffffff\n      dup4\n      and\n        /* \"Payment/Subscribers.sol\":11942:11971  Subscriber storage subscriber */\n      0x00\n        /* \"Payment/Subscribers.sol\":11974:11998  subscribers[_subscriber] */\n      swap1\n      dup2\n      mstore\n        /* \"Payment/Subscribers.sol\":11974:11985  subscribers */\n      0x03\n        /* \"Payment/Subscribers.sol\":11974:11998  subscribers[_subscriber] */\n      0x20\n      mstore\n      0x40\n      swap1\n      keccak256\n        /* \"Payment/Subscribers.sol\":12072:12098  subscriber.subscribedUntil */\n      dup1\n      sload\n        /* \"Payment/Subscribers.sol\":12032:12047  block.timestamp */\n      timestamp\n      swap1\n        /* \"Payment/Subscribers.sol\":12072:12098  subscriber.subscribedUntil */\n      0xffffffff\n      0x0100000000000000000000000000000000000000000000000000000000\n      swap1\n      swap2\n      div\n      dup2\n      and\n        /* \"Payment/Subscribers.sol\":12064:12098  tnow <= subscriber.subscribedUntil */\n      swap1\n      dup3\n      and\n      gt\n        /* \"Payment/Subscribers.sol\":12061:12919  if(tnow <= subscriber.subscribedUntil){... */\n      tag_327\n      jumpi\n        /* \"Payment/Subscribers.sol\":12176:12189  daysPerSeason */\n      sload(0x00)\n        /* \"Payment/Subscribers.sol\":12176:12198  daysPerSeason * 1 days */\n      tag_328\n      swap1\n        /* \"Payment/Subscribers.sol\":12176:12189  daysPerSeason */\n      0x01000000000000000000000000\n      swap1\n      div\n      0xffffffff\n      and\n        /* \"Payment/Subscribers.sol\":12192:12198  1 days */\n      0x015180\n        /* \"Payment/Subscribers.sol\":12176:12198  daysPerSeason * 1 days */\n      tag_159\n      jump\t// in\n    tag_328:\n        /* \"Payment/Subscribers.sol\":12140:12166  subscriber.subscribedUntil */\n      dup3\n      sload\n        /* \"Payment/Subscribers.sol\":12140:12199  subscriber.subscribedUntil + uint32(daysPerSeason * 1 days) */\n      tag_329\n      swap2\n      swap1\n        /* \"Payment/Subscribers.sol\":12140:12166  subscriber.subscribedUntil */\n      0x0100000000000000000000000000000000000000000000000000000000\n      swap1\n      div\n      0xffffffff\n      and\n        /* \"Payment/Subscribers.sol\":12140:12199  subscriber.subscribedUntil + uint32(daysPerSeason * 1 days) */\n      tag_161\n      jump\t// in\n    tag_329:\n        /* \"Payment/Subscribers.sol\":12116:12199  subscriber.nextSeason = subscriber.subscribedUntil + uint32(daysPerSeason * 1 days) */\n      dup3\n      sload\n      0xffffffff00000000ffffffffffffffffffffffffffffffffffffffffffffffff\n      and\n      0x01000000000000000000000000000000000000000000000000\n      0xffffffff\n      swap3\n      dup4\n      and\n      mul\n      or\n      dup1\n      dup5\n      sstore\n        /* \"Payment/Subscribers.sol\":12214:12243  subscriber.transactionCount++ */\n      0x010000000000000000000000000000000000000000\n      swap1\n      div\n      and\n        /* \"Payment/Subscribers.sol\":12116:12199  subscriber.nextSeason = subscriber.subscribedUntil + uint32(daysPerSeason * 1 days) */\n      dup3\n        /* \"Payment/Subscribers.sol\":12214:12241  subscriber.transactionCount */\n      0x14\n        /* \"Payment/Subscribers.sol\":12214:12243  subscriber.transactionCount++ */\n      tag_330\n      dup4\n      tag_252\n      jump\t// in\n    tag_330:\n      swap2\n      swap1\n      0x0100\n      exp\n      dup2\n      sload\n      dup2\n      0xffffffff\n      mul\n      not\n      and\n      swap1\n      dup4\n      0xffffffff\n      and\n      mul\n      or\n      swap1\n      sstore\n      pop\n      pop\n        /* \"Payment/Subscribers.sol\":12287:12291  tnow */\n      dup1\n        /* \"Payment/Subscribers.sol\":12258:12268  subscriber */\n      dup3\n        /* \"Payment/Subscribers.sol\":12258:12284  subscriber.lastTransaction */\n      0x01\n      add\n      0x00\n        /* \"Payment/Subscribers.sol\":12258:12291  subscriber.lastTransaction = tnow */\n      0x0100\n      exp\n      dup2\n      sload\n      dup2\n      0xffffffff\n      mul\n      not\n      and\n      swap1\n      dup4\n      0xffffffff\n      and\n      mul\n      or\n      swap1\n      sstore\n      pop\n        /* \"Payment/Subscribers.sol\":12315:12319  true */\n      0x01\n        /* \"Payment/Subscribers.sol\":12308:12320  return(true) */\n      swap3\n      pop\n      pop\n      pop\n      jump(tag_153)\n        /* \"Payment/Subscribers.sol\":12061:12919  if(tnow <= subscriber.subscribedUntil){... */\n    tag_327:\n        /* \"Payment/Subscribers.sol\":12373:12394  subscriber.nextSeason */\n      dup2\n      sload\n      0xffffffff\n      0x01000000000000000000000000000000000000000000000000\n      swap1\n      swap2\n      div\n      dup2\n      and\n        /* \"Payment/Subscribers.sol\":12366:12394  tnow > subscriber.nextSeason */\n      swap1\n      dup3\n      and\n      gt\n        /* \"Payment/Subscribers.sol\":12363:12546  if(tnow > subscriber.nextSeason){... */\n      iszero\n      tag_332\n      jumpi\n        /* \"Payment/Subscribers.sol\":12454:12467  daysPerSeason */\n      sload(0x00)\n        /* \"Payment/Subscribers.sol\":12454:12476  daysPerSeason * 1 days */\n      tag_333\n      swap1\n        /* \"Payment/Subscribers.sol\":12454:12467  daysPerSeason */\n      0x01000000000000000000000000\n      swap1\n      div\n      0xffffffff\n      and\n        /* \"Payment/Subscribers.sol\":12470:12476  1 days */\n      0x015180\n        /* \"Payment/Subscribers.sol\":12454:12476  daysPerSeason * 1 days */\n      tag_159\n      jump\t// in\n    tag_333:\n        /* \"Payment/Subscribers.sol\":12440:12477  tnow + uint32(daysPerSeason * 1 days) */\n      tag_334\n      swap1\n        /* \"Payment/Subscribers.sol\":12440:12444  tnow */\n      dup3\n        /* \"Payment/Subscribers.sol\":12440:12477  tnow + uint32(daysPerSeason * 1 days) */\n      tag_161\n      jump\t// in\n    tag_334:\n        /* \"Payment/Subscribers.sol\":12416:12477  subscriber.nextSeason = tnow + uint32(daysPerSeason * 1 days) */\n      dup3\n      sload\n        /* \"Payment/Subscribers.sol\":12496:12530  delete subscriber.transactionCount */\n      0xffffffff0000000000000000ffffffffffffffffffffffffffffffffffffffff\n      and\n        /* \"Payment/Subscribers.sol\":12416:12477  subscriber.nextSeason = tnow + uint32(daysPerSeason * 1 days) */\n      0x01000000000000000000000000000000000000000000000000\n      0xffffffff\n      swap3\n      swap1\n      swap3\n      and\n      swap2\n      swap1\n      swap2\n      mul\n        /* \"Payment/Subscribers.sol\":12496:12530  delete subscriber.transactionCount */\n      0xffffffffffffffff00000000ffffffffffffffffffffffffffffffffffffffff\n      and\n      or\n      dup3\n      sstore\n        /* \"Payment/Subscribers.sol\":12363:12546  if(tnow > subscriber.nextSeason){... */\n    tag_332:\n        /* \"Payment/Subscribers.sol\":12596:12617  transactionsPerSeason */\n      sload(0x00)\n        /* \"Payment/Subscribers.sol\":12565:12592  subscriber.transactionCount */\n      dup3\n      sload\n        /* \"Payment/Subscribers.sol\":12596:12617  transactionsPerSeason */\n      0x010000000000000000\n      swap1\n      swap2\n      div\n      0xffffffff\n      swap1\n      dup2\n      and\n        /* \"Payment/Subscribers.sol\":12565:12592  subscriber.transactionCount */\n      0x010000000000000000000000000000000000000000\n      swap1\n      swap3\n      div\n      and\n        /* \"Payment/Subscribers.sol\":12565:12617  subscriber.transactionCount >= transactionsPerSeason */\n      lt\n      iszero\n      dup1\n        /* \"Payment/Subscribers.sol\":12565:12633  subscriber.transactionCount >= transactionsPerSeason || _amount == 0 */\n      tag_335\n      jumpi\n      pop\n        /* \"Payment/Subscribers.sol\":12621:12633  _amount == 0 */\n      dup4\n      iszero\n        /* \"Payment/Subscribers.sol\":12565:12633  subscriber.transactionCount >= transactionsPerSeason || _amount == 0 */\n    tag_335:\n        /* \"Payment/Subscribers.sol\":12562:12665  if(subscriber.transactionCount >= transactionsPerSeason || _amount == 0)... */\n      iszero\n      tag_336\n      jumpi\n        /* \"Payment/Subscribers.sol\":12659:12664  false */\n      0x00\n        /* \"Payment/Subscribers.sol\":12652:12665  return(false) */\n      swap3\n      pop\n      pop\n      pop\n      jump(tag_153)\n        /* \"Payment/Subscribers.sol\":12562:12665  if(subscriber.transactionCount >= transactionsPerSeason || _amount == 0)... */\n    tag_336:\n        /* \"Payment/Subscribers.sol\":12682:12700  _renewMATICPrice() */\n      tag_337\n        /* \"Payment/Subscribers.sol\":12682:12698  _renewMATICPrice */\n      tag_234\n        /* \"Payment/Subscribers.sol\":12682:12700  _renewMATICPrice() */\n      jump\t// in\n    tag_337:\n      pop\n        /* \"Payment/Subscribers.sol\":12750:12767  minimumUSDToCount */\n      sload(0x00)\n      0x0100000000000000000000000000000000\n      swap1\n      div\n      0xffff\n      and\n        /* \"Payment/Subscribers.sol\":12720:12739  _usdAmount(_amount) */\n      tag_338\n        /* \"Payment/Subscribers.sol\":12731:12738  _amount */\n      dup6\n        /* \"Payment/Subscribers.sol\":12720:12730  _usdAmount */\n      tag_239\n        /* \"Payment/Subscribers.sol\":12720:12739  _usdAmount(_amount) */\n      jump\t// in\n    tag_338:\n        /* \"Payment/Subscribers.sol\":12720:12768  _usdAmount(_amount) >= uint32(minimumUSDToCount) */\n      0xffffffff\n      and\n      lt\n        /* \"Payment/Subscribers.sol\":12717:12816  if(_usdAmount(_amount) >= uint32(minimumUSDToCount))... */\n      tag_339\n      jumpi\n        /* \"Payment/Subscribers.sol\":12787:12816  subscriber.transactionCount++ */\n      dup2\n      sload\n      0x010000000000000000000000000000000000000000\n      swap1\n      div\n      0xffffffff\n      and\n      dup3\n        /* \"Payment/Subscribers.sol\":12787:12814  subscriber.transactionCount */\n      0x14\n        /* \"Payment/Subscribers.sol\":12787:12816  subscriber.transactionCount++ */\n      tag_330\n      dup4\n      tag_252\n      jump\t// in\n        /* \"Payment/Subscribers.sol\":12717:12816  if(_usdAmount(_amount) >= uint32(minimumUSDToCount))... */\n    tag_339:\n        /* \"Payment/Subscribers.sol\":12833:12859  subscriber.lastTransaction */\n      0x01\n      swap2\n      dup3\n      add\n        /* \"Payment/Subscribers.sol\":12833:12866  subscriber.lastTransaction = tnow */\n      dup1\n      sload\n      0xffffffffffffffffffffffffffffffffffffffffffffffffffffffff00000000\n      and\n      0xffffffff\n      swap3\n      swap1\n      swap3\n      and\n      swap2\n      swap1\n      swap2\n      or\n      swap1\n      sstore\n        /* \"Payment/Subscribers.sol\":12833:12859  subscriber.lastTransaction */\n      swap1\n      pop\n        /* \"Payment/Subscribers.sol\":12895:12907  return(true) */\n      jump(tag_153)\n        /* \"Payment/Subscribers.sol\":12061:12919  if(tnow <= subscriber.subscribedUntil){... */\n    tag_331:\n        /* \"Payment/Subscribers.sol\":11817:12926  {... */\n      pop\n      pop\n        /* \"Payment/Subscribers.sol\":11733:12926  function AllowProcessing(address _subscriber, uint256 _amount) public returns (bool){... */\n      swap3\n      swap2\n      pop\n      pop\n      jump\t// out\n        /* \"Payment/Subscribers.sol\":11057:11303  function SetTransactionsPerSeason(uint32 _transactions) public ownerOnly returns(bool){... */\n    tag_139:\n        /* \"Payment/Subscribers.sol\":11138:11142  bool */\n      0x00\n        /* \"Payment/Subscribers.sol\":2603:2613  msg.sender */\n      caller\n        /* \"Payment/Subscribers.sol\":2589:2613  pt.Owner() != msg.sender */\n      0xffffffffffffffffffffffffffffffffffffffff\n      and\n        /* \"Payment/Subscribers.sol\":1174:1216  0x163342FAe2bBe3303e5A9ADCe4BC9fb44d0FF062 */\n      0x163342fae2bbe3303e5a9adce4bc9fb44d0ff062\n        /* \"Payment/Subscribers.sol\":2589:2597  pt.Owner */\n      0xffffffffffffffffffffffffffffffffffffffff\n      and\n      0xb4a99a4e\n        /* \"Payment/Subscribers.sol\":2589:2599  pt.Owner() */\n      mload(0x40)\n      dup2\n      0xffffffff\n      and\n      0xe0\n      shl\n      dup2\n      mstore\n      0x04\n      add\n      0x20\n      mload(0x40)\n      dup1\n      dup4\n      sub\n      dup2\n      dup7\n      gas\n      staticcall\n      iszero\n      dup1\n      iszero\n      tag_344\n      jumpi\n      returndatasize\n      0x00\n      dup1\n      returndatacopy\n      revert(0x00, returndatasize)\n    tag_344:\n      pop\n      pop\n      pop\n      pop\n      mload(0x40)\n      returndatasize\n      not(0x1f)\n      0x1f\n      dup3\n      add\n      and\n      dup3\n      add\n      dup1\n      0x40\n      mstore\n      pop\n      dup2\n      add\n      swap1\n      tag_345\n      swap2\n      swap1\n      tag_36\n      jump\t// in\n    tag_345:\n        /* \"Payment/Subscribers.sol\":2589:2613  pt.Owner() != msg.sender */\n      0xffffffffffffffffffffffffffffffffffffffff\n      and\n      eq\n        /* \"Payment/Subscribers.sol\":2586:2648  if(pt.Owner() != msg.sender)... */\n      tag_346\n      jumpi\n        /* \"Payment/Subscribers.sol\":2628:2648  revert(\"Owner only\") */\n      mload(0x40)\n      shl(0xe5, 0x461bcd)\n      dup2\n      mstore\n        /* \"#utility.yul\":5698:5700   */\n      0x20\n        /* \"Payment/Subscribers.sol\":2628:2648  revert(\"Owner only\") */\n      0x04\n      dup3\n      add\n        /* \"#utility.yul\":5680:5701   */\n      mstore\n        /* \"#utility.yul\":5737:5739   */\n      0x0a\n        /* \"#utility.yul\":5717:5735   */\n      0x24\n      dup3\n      add\n        /* \"#utility.yul\":5710:5740   */\n      mstore\n        /* \"#utility.yul\":5776:5788   */\n      0x4f776e6572206f6e6c7900000000000000000000000000000000000000000000\n        /* \"#utility.yul\":5756:5774   */\n      0x44\n      dup3\n      add\n        /* \"#utility.yul\":5749:5789   */\n      mstore\n        /* \"#utility.yul\":5806:5824   */\n      0x64\n      add\n        /* \"Payment/Subscribers.sol\":2628:2648  revert(\"Owner only\") */\n      tag_45\n        /* \"#utility.yul\":5496:5830   */\n      jump\n        /* \"Payment/Subscribers.sol\":2586:2648  if(pt.Owner() != msg.sender)... */\n    tag_346:\n        /* \"Payment/Subscribers.sol\":11159:11172  _transactions */\n      dup2\n        /* \"Payment/Subscribers.sol\":11159:11177  _transactions == 0 */\n      0xffffffff\n      and\n        /* \"Payment/Subscribers.sol\":11176:11177  0 */\n      0x00\n        /* \"Payment/Subscribers.sol\":11159:11177  _transactions == 0 */\n      sub\n        /* \"Payment/Subscribers.sol\":11156:11219  if(_transactions == 0)... */\n      tag_349\n      jumpi\n        /* \"Payment/Subscribers.sol\":11192:11219  revert(\"Zero transactions\") */\n      mload(0x40)\n      shl(0xe5, 0x461bcd)\n      dup2\n      mstore\n        /* \"#utility.yul\":14182:14184   */\n      0x20\n        /* \"Payment/Subscribers.sol\":11192:11219  revert(\"Zero transactions\") */\n      0x04\n      dup3\n      add\n        /* \"#utility.yul\":14164:14185   */\n      mstore\n        /* \"#utility.yul\":14221:14223   */\n      0x11\n        /* \"#utility.yul\":14201:14219   */\n      0x24\n      dup3\n      add\n        /* \"#utility.yul\":14194:14224   */\n      mstore\n        /* \"#utility.yul\":14260:14279   */\n      0x5a65726f207472616e73616374696f6e73000000000000000000000000000000\n        /* \"#utility.yul\":14240:14258   */\n      0x44\n      dup3\n      add\n        /* \"#utility.yul\":14233:14280   */\n      mstore\n        /* \"#utility.yul\":14297:14315   */\n      0x64\n      add\n        /* \"Payment/Subscribers.sol\":11192:11219  revert(\"Zero transactions\") */\n      tag_45\n        /* \"#utility.yul\":13980:14321   */\n      jump\n        /* \"Payment/Subscribers.sol\":11156:11219  if(_transactions == 0)... */\n    tag_349:\n      pop\n        /* \"Payment/Subscribers.sol\":11232:11253  transactionsPerSeason */\n      0x00\n        /* \"Payment/Subscribers.sol\":11232:11269  transactionsPerSeason = _transactions */\n      dup1\n      sload\n      0xffffffff\n      dup4\n      and\n      0x010000000000000000\n      mul\n      0xffffffffffffffffffffffffffffffffffffffff00000000ffffffffffffffff\n      swap1\n      swap2\n      and\n      or\n      swap1\n      sstore\n      0x01\n        /* \"Payment/Subscribers.sol\":11057:11303  function SetTransactionsPerSeason(uint32 _transactions) public ownerOnly returns(bool){... */\n      swap2\n      swap1\n      pop\n      jump\t// out\n        /* \"Payment/Subscribers.sol\":6953:7804  function RemoveFromSubscription(address _subscriber, uint32 _days) public ownerOnly returns(bool){... */\n    tag_144:\n        /* \"Payment/Subscribers.sol\":7045:7049  bool */\n      0x00\n        /* \"Payment/Subscribers.sol\":2603:2613  msg.sender */\n      caller\n        /* \"Payment/Subscribers.sol\":2589:2613  pt.Owner() != msg.sender */\n      0xffffffffffffffffffffffffffffffffffffffff\n      and\n        /* \"Payment/Subscribers.sol\":1174:1216  0x163342FAe2bBe3303e5A9ADCe4BC9fb44d0FF062 */\n      0x163342fae2bbe3303e5a9adce4bc9fb44d0ff062\n        /* \"Payment/Subscribers.sol\":2589:2597  pt.Owner */\n      0xffffffffffffffffffffffffffffffffffffffff\n      and\n      0xb4a99a4e\n        /* \"Payment/Subscribers.sol\":2589:2599  pt.Owner() */\n      mload(0x40)\n      dup2\n      0xffffffff\n      and\n      0xe0\n      shl\n      dup2\n      mstore\n      0x04\n      add\n      0x20\n      mload(0x40)\n      dup1\n      dup4\n      sub\n      dup2\n      dup7\n      gas\n      staticcall\n      iszero\n      dup1\n      iszero\n      tag_354\n      jumpi\n      returndatasize\n      0x00\n      dup1\n      returndatacopy\n      revert(0x00, returndatasize)\n    tag_354:\n      pop\n      pop\n      pop\n      pop\n      mload(0x40)\n      returndatasize\n      not(0x1f)\n      0x1f\n      dup3\n      add\n      and\n      dup3\n      add\n      dup1\n      0x40\n      mstore\n      pop\n      dup2\n      add\n      swap1\n      tag_355\n      swap2\n      swap1\n      tag_36\n      jump\t// in\n    tag_355:\n        /* \"Payment/Subscribers.sol\":2589:2613  pt.Owner() != msg.sender */\n      0xffffffffffffffffffffffffffffffffffffffff\n      and\n      eq\n        /* \"Payment/Subscribers.sol\":2586:2648  if(pt.Owner() != msg.sender)... */\n      tag_356\n      jumpi\n        /* \"Payment/Subscribers.sol\":2628:2648  revert(\"Owner only\") */\n      mload(0x40)\n      shl(0xe5, 0x461bcd)\n      dup2\n      mstore\n        /* \"#utility.yul\":5698:5700   */\n      0x20\n        /* \"Payment/Subscribers.sol\":2628:2648  revert(\"Owner only\") */\n      0x04\n      dup3\n      add\n        /* \"#utility.yul\":5680:5701   */\n      mstore\n        /* \"#utility.yul\":5737:5739   */\n      0x0a\n        /* \"#utility.yul\":5717:5735   */\n      0x24\n      dup3\n      add\n        /* \"#utility.yul\":5710:5740   */\n      mstore\n        /* \"#utility.yul\":5776:5788   */\n      0x4f776e6572206f6e6c7900000000000000000000000000000000000000000000\n        /* \"#utility.yul\":5756:5774   */\n      0x44\n      dup3\n      add\n        /* \"#utility.yul\":5749:5789   */\n      mstore\n        /* \"#utility.yul\":5806:5824   */\n      0x64\n      add\n        /* \"Payment/Subscribers.sol\":2628:2648  revert(\"Owner only\") */\n      tag_45\n        /* \"#utility.yul\":5496:5830   */\n      jump\n        /* \"Payment/Subscribers.sol\":2586:2648  if(pt.Owner() != msg.sender)... */\n    tag_356:\n        /* \"Payment/Subscribers.sol\":7074:7077  120 */\n      0x78\n        /* \"Payment/Subscribers.sol\":7066:7071  _days */\n      dup3\n        /* \"Payment/Subscribers.sol\":7066:7077  _days > 120 */\n      0xffffffff\n      and\n      gt\n        /* \"Payment/Subscribers.sol\":7063:7115  if(_days > 120)... */\n      iszero\n      tag_359\n      jumpi\n        /* \"Payment/Subscribers.sol\":7092:7115  revert(\"Too many days\") */\n      mload(0x40)\n      shl(0xe5, 0x461bcd)\n      dup2\n      mstore\n        /* \"#utility.yul\":14528:14530   */\n      0x20\n        /* \"Payment/Subscribers.sol\":7092:7115  revert(\"Too many days\") */\n      0x04\n      dup3\n      add\n        /* \"#utility.yul\":14510:14531   */\n      mstore\n        /* \"#utility.yul\":14567:14569   */\n      0x0d\n        /* \"#utility.yul\":14547:14565   */\n      0x24\n      dup3\n      add\n        /* \"#utility.yul\":14540:14570   */\n      mstore\n        /* \"#utility.yul\":14606:14621   */\n      0x546f6f206d616e79206461797300000000000000000000000000000000000000\n        /* \"#utility.yul\":14586:14604   */\n      0x44\n      dup3\n      add\n        /* \"#utility.yul\":14579:14622   */\n      mstore\n        /* \"#utility.yul\":14639:14657   */\n      0x64\n      add\n        /* \"Payment/Subscribers.sol\":7092:7115  revert(\"Too many days\") */\n      tag_45\n        /* \"#utility.yul\":14326:14663   */\n      jump\n        /* \"Payment/Subscribers.sol\":7063:7115  if(_days > 120)... */\n    tag_359:\n        /* \"Payment/Subscribers.sol\":7160:7184  subscribers[_subscriber] */\n      0xffffffffffffffffffffffffffffffffffffffff\n      dup4\n      and\n        /* \"Payment/Subscribers.sol\":7128:7157  Subscriber storage subscriber */\n      0x00\n        /* \"Payment/Subscribers.sol\":7160:7184  subscribers[_subscriber] */\n      swap1\n      dup2\n      mstore\n        /* \"Payment/Subscribers.sol\":7160:7171  subscribers */\n      0x03\n        /* \"Payment/Subscribers.sol\":7160:7184  subscribers[_subscriber] */\n      0x20\n      mstore\n      0x40\n      swap1\n      keccak256\n        /* \"Payment/Subscribers.sol\":7263:7289  subscriber.subscribedUntil */\n      dup1\n      sload\n        /* \"Payment/Subscribers.sol\":7224:7239  block.timestamp */\n      timestamp\n      swap1\n        /* \"Payment/Subscribers.sol\":7263:7289  subscriber.subscribedUntil */\n      0xffffffff\n      0x0100000000000000000000000000000000000000000000000000000000\n      swap1\n      swap2\n      div\n      dup2\n      and\n        /* \"Payment/Subscribers.sol\":7256:7289  tnow > subscriber.subscribedUntil */\n      swap1\n      dup3\n      and\n      gt\n        /* \"Payment/Subscribers.sol\":7253:7715  if(tnow > subscriber.subscribedUntil)... */\n      iszero\n      tag_362\n      jumpi\n        /* \"Payment/Subscribers.sol\":7304:7330  revert(\"Not a subscriber\") */\n      mload(0x40)\n      shl(0xe5, 0x461bcd)\n      dup2\n      mstore\n        /* \"#utility.yul\":14870:14872   */\n      0x20\n        /* \"Payment/Subscribers.sol\":7304:7330  revert(\"Not a subscriber\") */\n      0x04\n      dup3\n      add\n        /* \"#utility.yul\":14852:14873   */\n      mstore\n        /* \"#utility.yul\":14909:14911   */\n      0x10\n        /* \"#utility.yul\":14889:14907   */\n      0x24\n      dup3\n      add\n        /* \"#utility.yul\":14882:14912   */\n      mstore\n        /* \"#utility.yul\":14948:14966   */\n      0x4e6f742061207375627363726962657200000000000000000000000000000000\n        /* \"#utility.yul\":14928:14946   */\n      0x44\n      dup3\n      add\n        /* \"#utility.yul\":14921:14967   */\n      mstore\n        /* \"#utility.yul\":14984:15002   */\n      0x64\n      add\n        /* \"Payment/Subscribers.sol\":7304:7330  revert(\"Not a subscriber\") */\n      tag_45\n        /* \"#utility.yul\":14668:15008   */\n      jump\n        /* \"Payment/Subscribers.sol\":7253:7715  if(tnow > subscriber.subscribedUntil)... */\n    tag_362:\n        /* \"Payment/Subscribers.sol\":7399:7413  _days * 1 days */\n      tag_366\n        /* \"Payment/Subscribers.sol\":7399:7404  _days */\n      dup5\n        /* \"Payment/Subscribers.sol\":7407:7413  1 days */\n      0x015180\n        /* \"Payment/Subscribers.sol\":7399:7413  _days * 1 days */\n      tag_159\n      jump\t// in\n    tag_366:\n        /* \"Payment/Subscribers.sol\":7362:7414  subscriber.subscribedUntil -= uint32(_days * 1 days) */\n      dup3\n      sload\n      dup4\n      swap1\n        /* \"Payment/Subscribers.sol\":7362:7388  subscriber.subscribedUntil */\n      0x1c\n      swap1\n        /* \"Payment/Subscribers.sol\":7362:7414  subscriber.subscribedUntil -= uint32(_days * 1 days) */\n      tag_367\n      swap1\n      dup5\n      swap1\n      0x0100000000000000000000000000000000000000000000000000000000\n      swap1\n      div\n      0xffffffff\n      and\n      tag_313\n      jump\t// in\n    tag_367:\n      swap3\n      pop\n      0x0100\n      exp\n      dup2\n      sload\n      dup2\n      0xffffffff\n      mul\n      not\n      and\n      swap1\n      dup4\n      0xffffffff\n      and\n      mul\n      or\n      swap1\n      sstore\n      pop\n        /* \"Payment/Subscribers.sol\":7464:7468  tnow */\n      dup1\n        /* \"Payment/Subscribers.sol\":7434:7468  subscriber.subscribedUntil <= tnow */\n      0xffffffff\n      and\n        /* \"Payment/Subscribers.sol\":7434:7444  subscriber */\n      dup3\n        /* \"Payment/Subscribers.sol\":7434:7460  subscriber.subscribedUntil */\n      0x00\n      add\n      0x1c\n      swap1\n      sload\n      swap1\n      0x0100\n      exp\n      swap1\n      div\n      0xffffffff\n      and\n        /* \"Payment/Subscribers.sol\":7434:7468  subscriber.subscribedUntil <= tnow */\n      0xffffffff\n      and\n      gt\n        /* \"Payment/Subscribers.sol\":7431:7592  if(subscriber.subscribedUntil <= tnow){... */\n      tag_368\n      jumpi\n        /* \"Payment/Subscribers.sol\":7490:7523  subscriber.subscribedUntil = tnow */\n      dup2\n      sload\n        /* \"Payment/Subscribers.sol\":7542:7576  delete subscriber.transactionCount */\n      0xffffffff00000000ffffffffffffffffffffffffffffffffffffffff\n      and\n        /* \"Payment/Subscribers.sol\":7490:7523  subscriber.subscribedUntil = tnow */\n      0x0100000000000000000000000000000000000000000000000000000000\n      0xffffffff\n      dup4\n      and\n      mul\n        /* \"Payment/Subscribers.sol\":7542:7576  delete subscriber.transactionCount */\n      0xffffffffffffffff00000000ffffffffffffffffffffffffffffffffffffffff\n      and\n      or\n      dup3\n      sstore\n        /* \"Payment/Subscribers.sol\":7431:7592  if(subscriber.subscribedUntil <= tnow){... */\n    tag_368:\n        /* \"Payment/Subscribers.sol\":7680:7693  daysPerSeason */\n      sload(0x00)\n        /* \"Payment/Subscribers.sol\":7680:7702  daysPerSeason * 1 days */\n      tag_369\n      swap1\n        /* \"Payment/Subscribers.sol\":7680:7693  daysPerSeason */\n      0x01000000000000000000000000\n      swap1\n      div\n      0xffffffff\n      and\n        /* \"Payment/Subscribers.sol\":7696:7702  1 days */\n      0x015180\n        /* \"Payment/Subscribers.sol\":7680:7702  daysPerSeason * 1 days */\n      tag_159\n      jump\t// in\n    tag_369:\n        /* \"Payment/Subscribers.sol\":7644:7670  subscriber.subscribedUntil */\n      dup3\n      sload\n        /* \"Payment/Subscribers.sol\":7644:7703  subscriber.subscribedUntil + uint32(daysPerSeason * 1 days) */\n      tag_370\n      swap2\n      swap1\n        /* \"Payment/Subscribers.sol\":7644:7670  subscriber.subscribedUntil */\n      0x0100000000000000000000000000000000000000000000000000000000\n      swap1\n      div\n      0xffffffff\n      and\n        /* \"Payment/Subscribers.sol\":7644:7703  subscriber.subscribedUntil + uint32(daysPerSeason * 1 days) */\n      tag_161\n      jump\t// in\n    tag_370:\n        /* \"Payment/Subscribers.sol\":7620:7703  subscriber.nextSeason = subscriber.subscribedUntil + uint32(daysPerSeason * 1 days) */\n      dup3\n      sload\n      0xffffffff00000000ffffffffffffffffffffffffffffffffffffffffffffffff\n      and\n      0x01000000000000000000000000000000000000000000000000\n      0xffffffff\n      swap3\n      dup4\n      and\n      mul\n      or\n      dup4\n      sstore\n        /* \"Payment/Subscribers.sol\":7732:7773  SubscriptionDecreased(_subscriber, _days) */\n      0x40\n      dup1\n      mload\n        /* \"#utility.yul\":7428:7470   */\n      0xffffffffffffffffffffffffffffffffffffffff\n        /* \"#utility.yul\":7416:7471   */\n      dup9\n      and\n        /* \"#utility.yul\":7398:7472   */\n      dup2\n      mstore\n        /* \"#utility.yul\":7508:7531   */\n      swap2\n      dup7\n      and\n        /* \"#utility.yul\":7503:7505   */\n      0x20\n        /* \"#utility.yul\":7488:7506   */\n      dup4\n      add\n        /* \"#utility.yul\":7481:7532   */\n      mstore\n        /* \"Payment/Subscribers.sol\":7732:7773  SubscriptionDecreased(_subscriber, _days) */\n      0x6dcc49443c6dada3a53209e7a01826b847b563c60a1d311b2e9cdc8ab7ac323c\n      swap2\n        /* \"#utility.yul\":7371:7389   */\n      add\n        /* \"Payment/Subscribers.sol\":7732:7773  SubscriptionDecreased(_subscriber, _days) */\n      mload(0x40)\n      dup1\n      swap2\n      sub\n      swap1\n      log1\n      pop\n        /* \"Payment/Subscribers.sol\":7791:7795  true */\n      0x01\n      swap5\n        /* \"Payment/Subscribers.sol\":6953:7804  function RemoveFromSubscription(address _subscriber, uint32 _days) public ownerOnly returns(bool){... */\n      swap4\n      pop\n      pop\n      pop\n      pop\n      jump\t// out\n        /* \"Payment/Subscribers.sol\":2871:3305  function _renewMATICPrice() private returns (bool){... */\n    tag_234:\n        /* \"Payment/Subscribers.sol\":2955:2999  pt.GetContractAddress(\".Corporation.Oracle\") */\n      mload(0x40)\n      0xc75ffd8600000000000000000000000000000000000000000000000000000000\n      dup2\n      mstore\n        /* \"#utility.yul\":15215:15217   */\n      0x20\n        /* \"Payment/Subscribers.sol\":2955:2999  pt.GetContractAddress(\".Corporation.Oracle\") */\n      0x04\n      dup3\n      add\n        /* \"#utility.yul\":15197:15218   */\n      mstore\n        /* \"#utility.yul\":15254:15256   */\n      0x13\n        /* \"#utility.yul\":15234:15252   */\n      0x24\n      dup3\n      add\n        /* \"#utility.yul\":15227:15257   */\n      mstore\n        /* \"#utility.yul\":15293:15314   */\n      0x2e436f72706f726174696f6e2e4f7261636c6500000000000000000000000000\n        /* \"#utility.yul\":15273:15291   */\n      0x44\n      dup3\n      add\n        /* \"#utility.yul\":15266:15315   */\n      mstore\n        /* \"Payment/Subscribers.sol\":2916:2920  bool */\n      0x00\n      swap1\n      dup2\n      swap1\n        /* \"Payment/Subscribers.sol\":1174:1216  0x163342FAe2bBe3303e5A9ADCe4BC9fb44d0FF062 */\n      0x163342fae2bbe3303e5a9adce4bc9fb44d0ff062\n      swap1\n        /* \"Payment/Subscribers.sol\":2955:2976  pt.GetContractAddress */\n      0xc75ffd86\n      swap1\n        /* \"#utility.yul\":15332:15350   */\n      0x64\n      add\n        /* \"Payment/Subscribers.sol\":2955:2999  pt.GetContractAddress(\".Corporation.Oracle\") */\n      0x20\n      mload(0x40)\n      dup1\n      dup4\n      sub\n      dup2\n      dup7\n      gas\n      staticcall\n      iszero\n      dup1\n      iszero\n      tag_376\n      jumpi\n      returndatasize\n      0x00\n      dup1\n      returndatacopy\n      revert(0x00, returndatasize)\n    tag_376:\n      pop\n      pop\n      pop\n      pop\n      mload(0x40)\n      returndatasize\n      not(0x1f)\n      0x1f\n      dup3\n      add\n      and\n      dup3\n      add\n      dup1\n      0x40\n      mstore\n      pop\n      dup2\n      add\n      swap1\n      tag_377\n      swap2\n      swap1\n      tag_36\n      jump\t// in\n    tag_377:\n        /* \"Payment/Subscribers.sol\":2934:3000  IOracle oc = IOracle(pt.GetContractAddress(\".Corporation.Oracle\")) */\n      swap1\n      pop\n        /* \"Payment/Subscribers.sol\":3014:3028  uint8 decimals */\n      0x00\n        /* \"Payment/Subscribers.sol\":3030:3042  bool success */\n      dup1\n        /* \"Payment/Subscribers.sol\":3046:3048  oc */\n      dup3\n        /* \"Payment/Subscribers.sol\":3046:3065  oc.GetMATICDecimals */\n      0xffffffffffffffffffffffffffffffffffffffff\n      and\n      0x16f0a386\n        /* \"Payment/Subscribers.sol\":3046:3067  oc.GetMATICDecimals() */\n      mload(0x40)\n      dup2\n      0xffffffff\n      and\n      0xe0\n      shl\n      dup2\n      mstore\n      0x04\n      add\n      0x40\n      dup1\n      mload\n      dup1\n      dup4\n      sub\n      dup2\n      dup7\n      gas\n      staticcall\n      iszero\n      dup1\n      iszero\n      tag_379\n      jumpi\n      returndatasize\n      0x00\n      dup1\n      returndatacopy\n      revert(0x00, returndatasize)\n    tag_379:\n      pop\n      pop\n      pop\n      pop\n      mload(0x40)\n      returndatasize\n      not(0x1f)\n      0x1f\n      dup3\n      add\n      and\n      dup3\n      add\n      dup1\n      0x40\n      mstore\n      pop\n      dup2\n      add\n      swap1\n      tag_380\n      swap2\n      swap1\n      tag_381\n      jump\t// in\n    tag_380:\n        /* \"Payment/Subscribers.sol\":3013:3067  (uint8 decimals, bool success) = oc.GetMATICDecimals() */\n      swap2\n      pop\n      swap2\n      pop\n        /* \"Payment/Subscribers.sol\":3078:3091  uint256 price */\n      0x00\n        /* \"Payment/Subscribers.sol\":3094:3096  oc */\n      dup4\n        /* \"Payment/Subscribers.sol\":3094:3110  oc.GetMATICPrice */\n      0xffffffffffffffffffffffffffffffffffffffff\n      and\n      0xf9a4bbbe\n        /* \"Payment/Subscribers.sol\":3094:3112  oc.GetMATICPrice() */\n      mload(0x40)\n      dup2\n      0xffffffff\n      and\n      0xe0\n      shl\n      dup2\n      mstore\n      0x04\n      add\n      0x20\n      mload(0x40)\n      dup1\n      dup4\n      sub\n      dup2\n      dup7\n      gas\n      staticcall\n      iszero\n      dup1\n      iszero\n      tag_383\n      jumpi\n      returndatasize\n      0x00\n      dup1\n      returndatacopy\n      revert(0x00, returndatasize)\n    tag_383:\n      pop\n      pop\n      pop\n      pop\n      mload(0x40)\n      returndatasize\n      not(0x1f)\n      0x1f\n      dup3\n      add\n      and\n      dup3\n      add\n      dup1\n      0x40\n      mstore\n      pop\n      dup2\n      add\n      swap1\n      tag_384\n      swap2\n      swap1\n      tag_385\n      jump\t// in\n    tag_384:\n        /* \"Payment/Subscribers.sol\":3078:3112  uint256 price = oc.GetMATICPrice() */\n      swap1\n      pop\n        /* \"Payment/Subscribers.sol\":3139:3143  true */\n      0x01\n        /* \"Payment/Subscribers.sol\":3128:3143  success == true */\n      dup3\n      iszero\n      iszero\n      eq\n        /* \"Payment/Subscribers.sol\":3128:3156  success == true && price > 0 */\n      dup1\n      iszero\n      tag_386\n      jumpi\n      pop\n        /* \"Payment/Subscribers.sol\":3155:3156  0 */\n      0x00\n        /* \"Payment/Subscribers.sol\":3147:3152  price */\n      dup2\n        /* \"Payment/Subscribers.sol\":3147:3156  price > 0 */\n      gt\n        /* \"Payment/Subscribers.sol\":3128:3156  success == true && price > 0 */\n    tag_386:\n        /* \"Payment/Subscribers.sol\":3125:3272  if(success == true && price > 0){... */\n      iszero\n      tag_387\n      jumpi\n        /* \"Payment/Subscribers.sol\":3174:3184  maticPrice */\n      0x01\n        /* \"Payment/Subscribers.sol\":3174:3192  maticPrice = price */\n      swap1\n      dup2\n      sstore\n        /* \"Payment/Subscribers.sol\":3207:3220  maticDecimals */\n      0x02\n        /* \"Payment/Subscribers.sol\":3207:3231  maticDecimals = decimals */\n      dup1\n      sload\n      0xffffffffffffffffffffffffffffffffffffffffffffffffffffffffffffff00\n      and\n      0xff\n      swap5\n      swap1\n      swap5\n      and\n      swap4\n      swap1\n      swap4\n      or\n      swap1\n      swap3\n      sstore\n      pop\n        /* \"Payment/Subscribers.sol\":3174:3184  maticPrice */\n      swap3\n      swap2\n      pop\n      pop\n        /* \"Payment/Subscribers.sol\":2871:3305  function _renewMATICPrice() private returns (bool){... */\n      jump\t// out\n        /* \"Payment/Subscribers.sol\":3125:3272  if(success == true && price > 0){... */\n    tag_387:\n        /* \"Payment/Subscribers.sol\":3291:3296  false */\n      0x00\n        /* \"Payment/Subscribers.sol\":3284:3297  return(false) */\n      swap5\n      pop\n      pop\n      pop\n      pop\n      pop\n        /* \"Payment/Subscribers.sol\":2871:3305  function _renewMATICPrice() private returns (bool){... */\n      swap1\n      jump\t// out\n        /* \"Payment/Subscribers.sol\":3554:3754  function _usdAmount(uint256 _amount) private view returns(uint32){... */\n    tag_239:\n        /* \"Payment/Subscribers.sol\":3693:3706  maticDecimals */\n      sload(0x02)\n        /* \"Payment/Subscribers.sol\":3612:3618  uint32 */\n      0x00\n      swap1\n      dup2\n      swap1\n        /* \"Payment/Subscribers.sol\":3693:3711  maticDecimals + 18 */\n      tag_389\n      swap1\n        /* \"Payment/Subscribers.sol\":3693:3706  maticDecimals */\n      0xff\n      and\n        /* \"Payment/Subscribers.sol\":3709:3711  18 */\n      0x12\n        /* \"Payment/Subscribers.sol\":3693:3711  maticDecimals + 18 */\n      tag_390\n      jump\t// in\n    tag_389:\n        /* \"Payment/Subscribers.sol\":3688:3712  10**(maticDecimals + 18) */\n      tag_391\n      swap1\n        /* \"Payment/Subscribers.sol\":3688:3690  10 */\n      0x0a\n        /* \"Payment/Subscribers.sol\":3688:3712  10**(maticDecimals + 18) */\n      tag_392\n      jump\t// in\n    tag_391:\n        /* \"Payment/Subscribers.sol\":3677:3684  _amount */\n      dup4\n        /* \"Payment/Subscribers.sol\":3658:3668  maticPrice */\n      sload(0x01)\n        /* \"Payment/Subscribers.sol\":3671:3674  100 */\n      0x64\n        /* \"Payment/Subscribers.sol\":3658:3674  maticPrice * 100 */\n      tag_393\n      swap2\n      swap1\n      tag_394\n      jump\t// in\n    tag_393:\n        /* \"Payment/Subscribers.sol\":3658:3684  maticPrice * 100 * _amount */\n      tag_395\n      swap2\n      swap1\n      tag_394\n      jump\t// in\n    tag_395:\n        /* \"Payment/Subscribers.sol\":3658:3713  maticPrice * 100 * _amount / (10**(maticDecimals + 18)) */\n      tag_396\n      swap2\n      swap1\n      tag_273\n      jump\t// in\n    tag_396:\n        /* \"Payment/Subscribers.sol\":3632:3714  uint32 usdAmount = uint32(maticPrice * 100 * _amount / (10**(maticDecimals + 18))) */\n      swap4\n        /* \"Payment/Subscribers.sol\":3554:3754  function _usdAmount(uint256 _amount) private view returns(uint32){... */\n      swap3\n      pop\n      pop\n      pop\n      jump\t// out\n        /* \"Payment/Subscribers.sol\":3319:3546  function _trueAmount(uint32 _days) private view returns(uint256){... */\n    tag_268:\n        /* \"Payment/Subscribers.sol\":3375:3382  uint256 */\n      0x00\n        /* \"Payment/Subscribers.sol\":3396:3414  uint256 trueAmount */\n      dup1\n        /* \"Payment/Subscribers.sol\":3487:3497  maticPrice */\n      sload(0x01)\n        /* \"Payment/Subscribers.sol\":3500:3503  100 */\n      0x64\n        /* \"Payment/Subscribers.sol\":3487:3503  maticPrice * 100 */\n      tag_398\n      swap2\n      swap1\n      tag_394\n      jump\t// in\n    tag_398:\n        /* \"Payment/Subscribers.sol\":3464:3477  maticDecimals */\n      sload(0x02)\n        /* \"Payment/Subscribers.sol\":3464:3482  maticDecimals + 18 */\n      tag_399\n      swap1\n        /* \"Payment/Subscribers.sol\":3464:3477  maticDecimals */\n      0xff\n      and\n        /* \"Payment/Subscribers.sol\":3480:3482  18 */\n      0x12\n        /* \"Payment/Subscribers.sol\":3464:3482  maticDecimals + 18 */\n      tag_390\n      jump\t// in\n    tag_399:\n        /* \"Payment/Subscribers.sol\":3459:3483  10**(maticDecimals + 18) */\n      tag_400\n      swap1\n        /* \"Payment/Subscribers.sol\":3459:3461  10 */\n      0x0a\n        /* \"Payment/Subscribers.sol\":3459:3483  10**(maticDecimals + 18) */\n      tag_392\n      jump\t// in\n    tag_400:\n        /* \"Payment/Subscribers.sol\":3434:3456  subscriptionCostPerDay */\n      sload(0x00)\n        /* \"Payment/Subscribers.sol\":3426:3456  _days * subscriptionCostPerDay */\n      tag_401\n      swap1\n        /* \"Payment/Subscribers.sol\":3434:3456  subscriptionCostPerDay */\n      0x010000\n      swap1\n      div\n      0xffff\n      and\n        /* \"Payment/Subscribers.sol\":3426:3431  _days */\n      dup7\n        /* \"Payment/Subscribers.sol\":3426:3456  _days * subscriptionCostPerDay */\n      tag_159\n      jump\t// in\n    tag_401:\n        /* \"Payment/Subscribers.sol\":3426:3483  _days * subscriptionCostPerDay * 10**(maticDecimals + 18) */\n      0xffffffff\n      and\n      tag_395\n      swap2\n      swap1\n      tag_394\n      jump\t// in\n        /* \"#utility.yul\":361:515   */\n    tag_404:\n        /* \"#utility.yul\":447:489   */\n      0xffffffffffffffffffffffffffffffffffffffff\n        /* \"#utility.yul\":440:445   */\n      dup2\n        /* \"#utility.yul\":436:490   */\n      and\n        /* \"#utility.yul\":429:434   */\n      dup2\n        /* \"#utility.yul\":426:491   */\n      eq\n        /* \"#utility.yul\":416:509   */\n      tag_414\n      jumpi\n        /* \"#utility.yul\":505:506   */\n      0x00\n        /* \"#utility.yul\":502:503   */\n      dup1\n        /* \"#utility.yul\":495:507   */\n      revert\n        /* \"#utility.yul\":416:509   */\n    tag_414:\n        /* \"#utility.yul\":361:515   */\n      pop\n      jump\t// out\n        /* \"#utility.yul\":520:771   */\n    tag_36:\n        /* \"#utility.yul\":590:596   */\n      0x00\n        /* \"#utility.yul\":643:645   */\n      0x20\n        /* \"#utility.yul\":631:640   */\n      dup3\n        /* \"#utility.yul\":622:629   */\n      dup5\n        /* \"#utility.yul\":618:641   */\n      sub\n        /* \"#utility.yul\":614:646   */\n      slt\n        /* \"#utility.yul\":611:663   */\n      iszero\n      tag_416\n      jumpi\n        /* \"#utility.yul\":659:660   */\n      0x00\n        /* \"#utility.yul\":656:657   */\n      dup1\n        /* \"#utility.yul\":649:661   */\n      revert\n        /* \"#utility.yul\":611:663   */\n    tag_416:\n        /* \"#utility.yul\":691:700   */\n      dup2\n        /* \"#utility.yul\":685:701   */\n      mload\n        /* \"#utility.yul\":710:741   */\n      tag_396\n        /* \"#utility.yul\":735:740   */\n      dup2\n        /* \"#utility.yul\":710:741   */\n      tag_404\n      jump\t// in\n        /* \"#utility.yul\":1344:1507   */\n    tag_405:\n        /* \"#utility.yul\":1411:1431   */\n      dup1\n      calldataload\n        /* \"#utility.yul\":1471:1481   */\n      0xffffffff\n        /* \"#utility.yul\":1460:1482   */\n      dup2\n      and\n        /* \"#utility.yul\":1450:1483   */\n      dup2\n      eq\n        /* \"#utility.yul\":1440:1501   */\n      tag_179\n      jumpi\n        /* \"#utility.yul\":1497:1498   */\n      0x00\n        /* \"#utility.yul\":1494:1495   */\n      dup1\n        /* \"#utility.yul\":1487:1499   */\n      revert\n        /* \"#utility.yul\":1512:1831   */\n    tag_50:\n        /* \"#utility.yul\":1579:1585   */\n      0x00\n        /* \"#utility.yul\":1587:1593   */\n      dup1\n        /* \"#utility.yul\":1640:1642   */\n      0x40\n        /* \"#utility.yul\":1628:1637   */\n      dup4\n        /* \"#utility.yul\":1619:1626   */\n      dup6\n        /* \"#utility.yul\":1615:1638   */\n      sub\n        /* \"#utility.yul\":1611:1643   */\n      slt\n        /* \"#utility.yul\":1608:1660   */\n      iszero\n      tag_423\n      jumpi\n        /* \"#utility.yul\":1656:1657   */\n      0x00\n        /* \"#utility.yul\":1653:1654   */\n      dup1\n        /* \"#utility.yul\":1646:1658   */\n      revert\n        /* \"#utility.yul\":1608:1660   */\n    tag_423:\n        /* \"#utility.yul\":1695:1704   */\n      dup3\n        /* \"#utility.yul\":1682:1705   */\n      calldataload\n        /* \"#utility.yul\":1714:1745   */\n      tag_424\n        /* \"#utility.yul\":1739:1744   */\n      dup2\n        /* \"#utility.yul\":1714:1745   */\n      tag_404\n      jump\t// in\n    tag_424:\n        /* \"#utility.yul\":1764:1769   */\n      swap2\n      pop\n        /* \"#utility.yul\":1788:1825   */\n      tag_425\n        /* \"#utility.yul\":1821:1823   */\n      0x20\n        /* \"#utility.yul\":1806:1824   */\n      dup5\n      add\n        /* \"#utility.yul\":1788:1825   */\n      tag_405\n      jump\t// in\n    tag_425:\n        /* \"#utility.yul\":1778:1825   */\n      swap1\n      pop\n        /* \"#utility.yul\":1512:1831   */\n      swap3\n      pop\n      swap3\n      swap1\n      pop\n      jump\t// out\n        /* \"#utility.yul\":2028:2212   */\n    tag_57:\n        /* \"#utility.yul\":2086:2092   */\n      0x00\n        /* \"#utility.yul\":2139:2141   */\n      0x20\n        /* \"#utility.yul\":2127:2136   */\n      dup3\n        /* \"#utility.yul\":2118:2125   */\n      dup5\n        /* \"#utility.yul\":2114:2137   */\n      sub\n        /* \"#utility.yul\":2110:2142   */\n      slt\n        /* \"#utility.yul\":2107:2159   */\n      iszero\n      tag_428\n      jumpi\n        /* \"#utility.yul\":2155:2156   */\n      0x00\n        /* \"#utility.yul\":2152:2153   */\n      dup1\n        /* \"#utility.yul\":2145:2157   */\n      revert\n        /* \"#utility.yul\":2107:2159   */\n    tag_428:\n        /* \"#utility.yul\":2178:2206   */\n      tag_396\n        /* \"#utility.yul\":2196:2205   */\n      dup3\n        /* \"#utility.yul\":2178:2206   */\n      tag_405\n      jump\t// in\n        /* \"#utility.yul\":2217:2489   */\n    tag_67:\n        /* \"#utility.yul\":2275:2281   */\n      0x00\n        /* \"#utility.yul\":2328:2330   */\n      0x20\n        /* \"#utility.yul\":2316:2325   */\n      dup3\n        /* \"#utility.yul\":2307:2314   */\n      dup5\n        /* \"#utility.yul\":2303:2326   */\n      sub\n        /* \"#utility.yul\":2299:2331   */\n      slt\n        /* \"#utility.yul\":2296:2348   */\n      iszero\n      tag_431\n      jumpi\n        /* \"#utility.yul\":2344:2345   */\n      0x00\n        /* \"#utility.yul\":2341:2342   */\n      dup1\n        /* \"#utility.yul\":2334:2346   */\n      revert\n        /* \"#utility.yul\":2296:2348   */\n    tag_431:\n        /* \"#utility.yul\":2383:2392   */\n      dup2\n        /* \"#utility.yul\":2370:2393   */\n      calldataload\n        /* \"#utility.yul\":2433:2439   */\n      0xffff\n        /* \"#utility.yul\":2426:2431   */\n      dup2\n        /* \"#utility.yul\":2422:2440   */\n      and\n        /* \"#utility.yul\":2415:2420   */\n      dup2\n        /* \"#utility.yul\":2412:2441   */\n      eq\n        /* \"#utility.yul\":2402:2459   */\n      tag_396\n      jumpi\n        /* \"#utility.yul\":2455:2456   */\n      0x00\n        /* \"#utility.yul\":2452:2453   */\n      dup1\n        /* \"#utility.yul\":2445:2457   */\n      revert\n        /* \"#utility.yul\":2494:2612   */\n    tag_406:\n        /* \"#utility.yul\":2580:2585   */\n      dup1\n        /* \"#utility.yul\":2573:2586   */\n      iszero\n        /* \"#utility.yul\":2566:2587   */\n      iszero\n        /* \"#utility.yul\":2559:2564   */\n      dup2\n        /* \"#utility.yul\":2556:2588   */\n      eq\n        /* \"#utility.yul\":2546:2606   */\n      tag_414\n      jumpi\n        /* \"#utility.yul\":2602:2603   */\n      0x00\n        /* \"#utility.yul\":2599:2600   */\n      dup1\n        /* \"#utility.yul\":2592:2604   */\n      revert\n        /* \"#utility.yul\":2617:2858   */\n    tag_73:\n        /* \"#utility.yul\":2673:2679   */\n      0x00\n        /* \"#utility.yul\":2726:2728   */\n      0x20\n        /* \"#utility.yul\":2714:2723   */\n      dup3\n        /* \"#utility.yul\":2705:2712   */\n      dup5\n        /* \"#utility.yul\":2701:2724   */\n      sub\n        /* \"#utility.yul\":2697:2729   */\n      slt\n        /* \"#utility.yul\":2694:2746   */\n      iszero\n      tag_436\n      jumpi\n        /* \"#utility.yul\":2742:2743   */\n      0x00\n        /* \"#utility.yul\":2739:2740   */\n      dup1\n        /* \"#utility.yul\":2732:2744   */\n      revert\n        /* \"#utility.yul\":2694:2746   */\n    tag_436:\n        /* \"#utility.yul\":2781:2790   */\n      dup2\n        /* \"#utility.yul\":2768:2791   */\n      calldataload\n        /* \"#utility.yul\":2800:2828   */\n      tag_396\n        /* \"#utility.yul\":2822:2827   */\n      dup2\n        /* \"#utility.yul\":2800:2828   */\n      tag_406\n      jump\t// in\n        /* \"#utility.yul\":3060:3667   */\n    tag_85:\n        /* \"#utility.yul\":3172:3176   */\n      0x00\n        /* \"#utility.yul\":3201:3203   */\n      0x20\n        /* \"#utility.yul\":3230:3232   */\n      dup1\n        /* \"#utility.yul\":3219:3228   */\n      dup4\n        /* \"#utility.yul\":3212:3233   */\n      mstore\n        /* \"#utility.yul\":3262:3268   */\n      dup4\n        /* \"#utility.yul\":3256:3269   */\n      mload\n        /* \"#utility.yul\":3305:3311   */\n      dup1\n        /* \"#utility.yul\":3300:3302   */\n      dup3\n        /* \"#utility.yul\":3289:3298   */\n      dup6\n        /* \"#utility.yul\":3285:3303   */\n      add\n        /* \"#utility.yul\":3278:3312   */\n      mstore\n        /* \"#utility.yul\":3330:3331   */\n      0x00\n        /* \"#utility.yul\":3340:3480   */\n    tag_440:\n        /* \"#utility.yul\":3354:3360   */\n      dup2\n        /* \"#utility.yul\":3351:3352   */\n      dup2\n        /* \"#utility.yul\":3348:3361   */\n      lt\n        /* \"#utility.yul\":3340:3480   */\n      iszero\n      tag_442\n      jumpi\n        /* \"#utility.yul\":3449:3463   */\n      dup6\n      dup2\n      add\n        /* \"#utility.yul\":3445:3468   */\n      dup4\n      add\n        /* \"#utility.yul\":3439:3469   */\n      mload\n        /* \"#utility.yul\":3415:3432   */\n      dup6\n      dup3\n      add\n        /* \"#utility.yul\":3434:3436   */\n      0x40\n        /* \"#utility.yul\":3411:3437   */\n      add\n        /* \"#utility.yul\":3404:3470   */\n      mstore\n        /* \"#utility.yul\":3369:3379   */\n      dup3\n      add\n        /* \"#utility.yul\":3340:3480   */\n      jump(tag_440)\n    tag_442:\n        /* \"#utility.yul\":3344:3347   */\n      pop\n        /* \"#utility.yul\":3529:3530   */\n      0x00\n        /* \"#utility.yul\":3524:3526   */\n      0x40\n        /* \"#utility.yul\":3515:3521   */\n      dup3\n        /* \"#utility.yul\":3504:3513   */\n      dup7\n        /* \"#utility.yul\":3500:3522   */\n      add\n        /* \"#utility.yul\":3496:3527   */\n      add\n        /* \"#utility.yul\":3489:3531   */\n      mstore\n        /* \"#utility.yul\":3658:3660   */\n      0x40\n        /* \"#utility.yul\":3588:3654   */\n      0xffffffffffffffffffffffffffffffffffffffffffffffffffffffffffffffe0\n        /* \"#utility.yul\":3583:3585   */\n      0x1f\n        /* \"#utility.yul\":3575:3581   */\n      dup4\n        /* \"#utility.yul\":3571:3586   */\n      add\n        /* \"#utility.yul\":3567:3655   */\n      and\n        /* \"#utility.yul\":3556:3565   */\n      dup6\n        /* \"#utility.yul\":3552:3656   */\n      add\n        /* \"#utility.yul\":3548:3661   */\n      add\n        /* \"#utility.yul\":3540:3661   */\n      swap3\n      pop\n      pop\n      pop\n        /* \"#utility.yul\":3060:3667   */\n      swap3\n      swap2\n      pop\n      pop\n      jump\t// out\n        /* \"#utility.yul\":3865:4184   */\n    tag_98:\n        /* \"#utility.yul\":3932:3938   */\n      0x00\n        /* \"#utility.yul\":3940:3946   */\n      dup1\n        /* \"#utility.yul\":3993:3995   */\n      0x40\n        /* \"#utility.yul\":3981:3990   */\n      dup4\n        /* \"#utility.yul\":3972:3979   */\n      dup6\n        /* \"#utility.yul\":3968:3991   */\n      sub\n        /* \"#utility.yul\":3964:3996   */\n      slt\n        /* \"#utility.yul\":3961:4013   */\n      iszero\n      tag_445\n      jumpi\n        /* \"#utility.yul\":4009:4010   */\n      0x00\n        /* \"#utility.yul\":4006:4007   */\n      dup1\n        /* \"#utility.yul\":3999:4011   */\n      revert\n        /* \"#utility.yul\":3961:4013   */\n    tag_445:\n        /* \"#utility.yul\":4032:4060   */\n      tag_446\n        /* \"#utility.yul\":4050:4059   */\n      dup4\n        /* \"#utility.yul\":4032:4060   */\n      tag_405\n      jump\t// in\n    tag_446:\n        /* \"#utility.yul\":4022:4060   */\n      swap2\n      pop\n        /* \"#utility.yul\":4110:4112   */\n      0x20\n        /* \"#utility.yul\":4099:4108   */\n      dup4\n        /* \"#utility.yul\":4095:4113   */\n      add\n        /* \"#utility.yul\":4082:4114   */\n      calldataload\n        /* \"#utility.yul\":4123:4154   */\n      tag_447\n        /* \"#utility.yul\":4148:4153   */\n      dup2\n        /* \"#utility.yul\":4123:4154   */\n      tag_404\n      jump\t// in\n    tag_447:\n        /* \"#utility.yul\":4173:4178   */\n      dup1\n        /* \"#utility.yul\":4163:4178   */\n      swap2\n      pop\n      pop\n        /* \"#utility.yul\":3865:4184   */\n      swap3\n      pop\n      swap3\n      swap1\n      pop\n      jump\t// out\n        /* \"#utility.yul\":4189:4436   */\n    tag_104:\n        /* \"#utility.yul\":4248:4254   */\n      0x00\n        /* \"#utility.yul\":4301:4303   */\n      0x20\n        /* \"#utility.yul\":4289:4298   */\n      dup3\n        /* \"#utility.yul\":4280:4287   */\n      dup5\n        /* \"#utility.yul\":4276:4299   */\n      sub\n        /* \"#utility.yul\":4272:4304   */\n      slt\n        /* \"#utility.yul\":4269:4321   */\n      iszero\n      tag_449\n      jumpi\n        /* \"#utility.yul\":4317:4318   */\n      0x00\n        /* \"#utility.yul\":4314:4315   */\n      dup1\n        /* \"#utility.yul\":4307:4319   */\n      revert\n        /* \"#utility.yul\":4269:4321   */\n    tag_449:\n        /* \"#utility.yul\":4356:4365   */\n      dup2\n        /* \"#utility.yul\":4343:4366   */\n      calldataload\n        /* \"#utility.yul\":4375:4406   */\n      tag_396\n        /* \"#utility.yul\":4400:4405   */\n      dup2\n        /* \"#utility.yul\":4375:4406   */\n      tag_404\n      jump\t// in\n        /* \"#utility.yul\":5176:5491   */\n    tag_129:\n        /* \"#utility.yul\":5244:5250   */\n      0x00\n        /* \"#utility.yul\":5252:5258   */\n      dup1\n        /* \"#utility.yul\":5305:5307   */\n      0x40\n        /* \"#utility.yul\":5293:5302   */\n      dup4\n        /* \"#utility.yul\":5284:5291   */\n      dup6\n        /* \"#utility.yul\":5280:5303   */\n      sub\n        /* \"#utility.yul\":5276:5308   */\n      slt\n        /* \"#utility.yul\":5273:5325   */\n      iszero\n      tag_453\n      jumpi\n        /* \"#utility.yul\":5321:5322   */\n      0x00\n        /* \"#utility.yul\":5318:5319   */\n      dup1\n        /* \"#utility.yul\":5311:5323   */\n      revert\n        /* \"#utility.yul\":5273:5325   */\n    tag_453:\n        /* \"#utility.yul\":5360:5369   */\n      dup3\n        /* \"#utility.yul\":5347:5370   */\n      calldataload\n        /* \"#utility.yul\":5379:5410   */\n      tag_454\n        /* \"#utility.yul\":5404:5409   */\n      dup2\n        /* \"#utility.yul\":5379:5410   */\n      tag_404\n      jump\t// in\n    tag_454:\n        /* \"#utility.yul\":5429:5434   */\n      swap5\n        /* \"#utility.yul\":5481:5483   */\n      0x20\n        /* \"#utility.yul\":5466:5484   */\n      swap4\n      swap1\n      swap4\n      add\n        /* \"#utility.yul\":5453:5485   */\n      calldataload\n      swap4\n      pop\n      pop\n      pop\n        /* \"#utility.yul\":5176:5491   */\n      jump\t// out\n        /* \"#utility.yul\":6195:6379   */\n    tag_407:\n        /* \"#utility.yul\":6247:6324   */\n      0x4e487b7100000000000000000000000000000000000000000000000000000000\n        /* \"#utility.yul\":6244:6245   */\n      0x00\n        /* \"#utility.yul\":6237:6325   */\n      mstore\n        /* \"#utility.yul\":6344:6348   */\n      0x11\n        /* \"#utility.yul\":6341:6342   */\n      0x04\n        /* \"#utility.yul\":6334:6349   */\n      mstore\n        /* \"#utility.yul\":6368:6372   */\n      0x24\n        /* \"#utility.yul\":6365:6366   */\n      0x00\n        /* \"#utility.yul\":6358:6373   */\n      revert\n        /* \"#utility.yul\":6384:6633   */\n    tag_159:\n        /* \"#utility.yul\":6455:6465   */\n      0xffffffff\n        /* \"#utility.yul\":6497:6507   */\n      dup2\n      dup2\n      and\n        /* \"#utility.yul\":6509:6519   */\n      dup4\n      dup3\n      and\n        /* \"#utility.yul\":6493:6520   */\n      mul\n        /* \"#utility.yul\":6540:6560   */\n      dup1\n      dup3\n      and\n      swap2\n        /* \"#utility.yul\":6455:6465   */\n      swap1\n        /* \"#utility.yul\":6579:6603   */\n      dup3\n      dup2\n      eq\n        /* \"#utility.yul\":6569:6627   */\n      tag_331\n      jumpi\n        /* \"#utility.yul\":6607:6625   */\n      tag_331\n      tag_407\n      jump\t// in\n        /* \"#utility.yul\":6638:6810   */\n    tag_161:\n        /* \"#utility.yul\":6705:6715   */\n      0xffffffff\n        /* \"#utility.yul\":6735:6745   */\n      dup2\n      dup2\n      and\n        /* \"#utility.yul\":6747:6757   */\n      dup4\n      dup3\n      and\n        /* \"#utility.yul\":6731:6758   */\n      add\n      swap1\n        /* \"#utility.yul\":6770:6781   */\n      dup1\n      dup3\n      gt\n        /* \"#utility.yul\":6767:6804   */\n      iszero\n      tag_463\n      jumpi\n        /* \"#utility.yul\":6784:6802   */\n      tag_463\n      tag_407\n      jump\t// in\n    tag_463:\n        /* \"#utility.yul\":6767:6804   */\n      pop\n        /* \"#utility.yul\":6638:6810   */\n      swap3\n      swap2\n      pop\n      pop\n      jump\t// out\n        /* \"#utility.yul\":11717:11918   */\n    tag_252:\n        /* \"#utility.yul\":11755:11758   */\n      0x00\n        /* \"#utility.yul\":11783:11793   */\n      0xffffffff\n        /* \"#utility.yul\":11828:11830   */\n      dup1\n        /* \"#utility.yul\":11821:11826   */\n      dup4\n        /* \"#utility.yul\":11817:11831   */\n      and\n        /* \"#utility.yul\":11855:11857   */\n      dup2\n        /* \"#utility.yul\":11846:11853   */\n      dup2\n        /* \"#utility.yul\":11843:11858   */\n      sub\n        /* \"#utility.yul\":11840:11881   */\n      tag_480\n      jumpi\n        /* \"#utility.yul\":11861:11879   */\n      tag_480\n      tag_407\n      jump\t// in\n    tag_480:\n        /* \"#utility.yul\":11910:11911   */\n      0x01\n        /* \"#utility.yul\":11897:11912   */\n      add\n      swap4\n        /* \"#utility.yul\":11717:11918   */\n      swap3\n      pop\n      pop\n      pop\n      jump\t// out\n        /* \"#utility.yul\":12337:12465   */\n    tag_270:\n        /* \"#utility.yul\":12404:12413   */\n      dup2\n      dup2\n      sub\n        /* \"#utility.yul\":12425:12436   */\n      dup2\n      dup2\n      gt\n        /* \"#utility.yul\":12422:12459   */\n      iszero\n      tag_153\n      jumpi\n        /* \"#utility.yul\":12439:12457   */\n      tag_153\n      tag_407\n      jump\t// in\n        /* \"#utility.yul\":12470:12654   */\n    tag_408:\n        /* \"#utility.yul\":12522:12599   */\n      0x4e487b7100000000000000000000000000000000000000000000000000000000\n        /* \"#utility.yul\":12519:12520   */\n      0x00\n        /* \"#utility.yul\":12512:12600   */\n      mstore\n        /* \"#utility.yul\":12619:12623   */\n      0x12\n        /* \"#utility.yul\":12616:12617   */\n      0x04\n        /* \"#utility.yul\":12609:12624   */\n      mstore\n        /* \"#utility.yul\":12643:12647   */\n      0x24\n        /* \"#utility.yul\":12640:12641   */\n      0x00\n        /* \"#utility.yul\":12633:12648   */\n      revert\n        /* \"#utility.yul\":12659:12779   */\n    tag_273:\n        /* \"#utility.yul\":12699:12700   */\n      0x00\n        /* \"#utility.yul\":12725:12726   */\n      dup3\n        /* \"#utility.yul\":12715:12750   */\n      tag_488\n      jumpi\n        /* \"#utility.yul\":12730:12748   */\n      tag_488\n      tag_408\n      jump\t// in\n    tag_488:\n      pop\n        /* \"#utility.yul\":12764:12773   */\n      div\n      swap1\n        /* \"#utility.yul\":12659:12779   */\n      jump\t// out\n        /* \"#utility.yul\":12784:12909   */\n    tag_275:\n        /* \"#utility.yul\":12849:12858   */\n      dup1\n      dup3\n      add\n        /* \"#utility.yul\":12870:12880   */\n      dup1\n      dup3\n      gt\n        /* \"#utility.yul\":12867:12903   */\n      iszero\n      tag_153\n      jumpi\n        /* \"#utility.yul\":12883:12901   */\n      tag_153\n      tag_407\n      jump\t// in\n        /* \"#utility.yul\":12914:13089   */\n    tag_313:\n        /* \"#utility.yul\":12982:12992   */\n      0xffffffff\n        /* \"#utility.yul\":13025:13035   */\n      dup3\n      dup2\n      and\n        /* \"#utility.yul\":13013:13023   */\n      dup3\n      dup3\n      and\n        /* \"#utility.yul\":13009:13036   */\n      sub\n      swap1\n        /* \"#utility.yul\":13048:13060   */\n      dup1\n      dup3\n      gt\n        /* \"#utility.yul\":13045:13083   */\n      iszero\n      tag_463\n      jumpi\n        /* \"#utility.yul\":13063:13081   */\n      tag_463\n      tag_407\n      jump\t// in\n        /* \"#utility.yul\":13094:13285   */\n    tag_315:\n        /* \"#utility.yul\":13133:13134   */\n      0x00\n        /* \"#utility.yul\":13159:13169   */\n      0xffffffff\n        /* \"#utility.yul\":13196:13198   */\n      dup1\n        /* \"#utility.yul\":13193:13194   */\n      dup5\n        /* \"#utility.yul\":13189:13199   */\n      and\n        /* \"#utility.yul\":13218:13221   */\n      dup1\n        /* \"#utility.yul\":13208:13245   */\n      tag_497\n      jumpi\n        /* \"#utility.yul\":13225:13243   */\n      tag_497\n      tag_408\n      jump\t// in\n    tag_497:\n        /* \"#utility.yul\":13263:13273   */\n      swap3\n      and\n        /* \"#utility.yul\":13259:13279   */\n      swap2\n      swap1\n      swap2\n      div\n      swap3\n        /* \"#utility.yul\":13094:13285   */\n      swap2\n      pop\n      pop\n      jump\t// out\n        /* \"#utility.yul\":15361:15762   */\n    tag_381:\n        /* \"#utility.yul\":15435:15441   */\n      0x00\n        /* \"#utility.yul\":15443:15449   */\n      dup1\n        /* \"#utility.yul\":15496:15498   */\n      0x40\n        /* \"#utility.yul\":15484:15493   */\n      dup4\n        /* \"#utility.yul\":15475:15482   */\n      dup6\n        /* \"#utility.yul\":15471:15494   */\n      sub\n        /* \"#utility.yul\":15467:15499   */\n      slt\n        /* \"#utility.yul\":15464:15516   */\n      iszero\n      tag_505\n      jumpi\n        /* \"#utility.yul\":15512:15513   */\n      0x00\n        /* \"#utility.yul\":15509:15510   */\n      dup1\n        /* \"#utility.yul\":15502:15514   */\n      revert\n        /* \"#utility.yul\":15464:15516   */\n    tag_505:\n        /* \"#utility.yul\":15544:15553   */\n      dup3\n        /* \"#utility.yul\":15538:15554   */\n      mload\n        /* \"#utility.yul\":15594:15598   */\n      0xff\n        /* \"#utility.yul\":15587:15592   */\n      dup2\n        /* \"#utility.yul\":15583:15599   */\n      and\n        /* \"#utility.yul\":15576:15581   */\n      dup2\n        /* \"#utility.yul\":15573:15600   */\n      eq\n        /* \"#utility.yul\":15563:15618   */\n      tag_506\n      jumpi\n        /* \"#utility.yul\":15614:15615   */\n      0x00\n        /* \"#utility.yul\":15611:15612   */\n      dup1\n        /* \"#utility.yul\":15604:15616   */\n      revert\n        /* \"#utility.yul\":15563:15618   */\n    tag_506:\n        /* \"#utility.yul\":15687:15689   */\n      0x20\n        /* \"#utility.yul\":15672:15690   */\n      dup5\n      add\n        /* \"#utility.yul\":15666:15691   */\n      mload\n        /* \"#utility.yul\":15637:15642   */\n      swap1\n      swap3\n      pop\n        /* \"#utility.yul\":15700:15730   */\n      tag_447\n        /* \"#utility.yul\":15666:15691   */\n      dup2\n        /* \"#utility.yul\":15700:15730   */\n      tag_406\n      jump\t// in\n        /* \"#utility.yul\":15767:15951   */\n    tag_385:\n        /* \"#utility.yul\":15837:15843   */\n      0x00\n        /* \"#utility.yul\":15890:15892   */\n      0x20\n        /* \"#utility.yul\":15878:15887   */\n      dup3\n        /* \"#utility.yul\":15869:15876   */\n      dup5\n        /* \"#utility.yul\":15865:15888   */\n      sub\n        /* \"#utility.yul\":15861:15893   */\n      slt\n        /* \"#utility.yul\":15858:15910   */\n      iszero\n      tag_509\n      jumpi\n        /* \"#utility.yul\":15906:15907   */\n      0x00\n        /* \"#utility.yul\":15903:15904   */\n      dup1\n        /* \"#utility.yul\":15896:15908   */\n      revert\n        /* \"#utility.yul\":15858:15910   */\n    tag_509:\n      pop\n        /* \"#utility.yul\":15929:15945   */\n      mload\n      swap2\n        /* \"#utility.yul\":15767:15951   */\n      swap1\n      pop\n      jump\t// out\n        /* \"#utility.yul\":15956:16104   */\n    tag_390:\n        /* \"#utility.yul\":16044:16048   */\n      0xff\n        /* \"#utility.yul\":16023:16035   */\n      dup2\n      dup2\n      and\n        /* \"#utility.yul\":16037:16049   */\n      dup4\n      dup3\n      and\n        /* \"#utility.yul\":16019:16050   */\n      add\n      swap1\n        /* \"#utility.yul\":16062:16075   */\n      dup2\n      gt\n        /* \"#utility.yul\":16059:16098   */\n      iszero\n      tag_153\n      jumpi\n        /* \"#utility.yul\":16078:16096   */\n      tag_153\n      tag_407\n      jump\t// in\n        /* \"#utility.yul\":16109:16591   */\n    tag_409:\n        /* \"#utility.yul\":16198:16199   */\n      0x01\n        /* \"#utility.yul\":16241:16246   */\n      dup2\n        /* \"#utility.yul\":16198:16199   */\n      dup2\n        /* \"#utility.yul\":16255:16585   */\n    tag_514:\n        /* \"#utility.yul\":16276:16283   */\n      dup1\n        /* \"#utility.yul\":16266:16274   */\n      dup6\n        /* \"#utility.yul\":16263:16284   */\n      gt\n        /* \"#utility.yul\":16255:16585   */\n      iszero\n      tag_516\n      jumpi\n        /* \"#utility.yul\":16395:16399   */\n      dup2\n        /* \"#utility.yul\":16327:16393   */\n      0xffffffffffffffffffffffffffffffffffffffffffffffffffffffffffffffff\n        /* \"#utility.yul\":16323:16400   */\n      div\n        /* \"#utility.yul\":16317:16321   */\n      dup3\n        /* \"#utility.yul\":16314:16401   */\n      gt\n        /* \"#utility.yul\":16311:16424   */\n      iszero\n      tag_518\n      jumpi\n        /* \"#utility.yul\":16404:16422   */\n      tag_518\n      tag_407\n      jump\t// in\n    tag_518:\n        /* \"#utility.yul\":16454:16461   */\n      dup1\n        /* \"#utility.yul\":16444:16452   */\n      dup6\n        /* \"#utility.yul\":16440:16462   */\n      and\n        /* \"#utility.yul\":16437:16492   */\n      iszero\n      tag_519\n      jumpi\n        /* \"#utility.yul\":16474:16490   */\n      swap2\n      dup2\n      mul\n      swap2\n        /* \"#utility.yul\":16437:16492   */\n    tag_519:\n        /* \"#utility.yul\":16553:16575   */\n      swap4\n      dup5\n      shr\n      swap4\n        /* \"#utility.yul\":16513:16528   */\n      swap1\n      dup1\n      mul\n      swap1\n        /* \"#utility.yul\":16255:16585   */\n      jump(tag_514)\n    tag_516:\n        /* \"#utility.yul\":16259:16262   */\n      pop\n        /* \"#utility.yul\":16109:16591   */\n      swap3\n      pop\n      swap3\n      swap1\n      pop\n      jump\t// out\n        /* \"#utility.yul\":16596:17462   */\n    tag_410:\n        /* \"#utility.yul\":16645:16650   */\n      0x00\n        /* \"#utility.yul\":16675:16683   */\n      dup3\n        /* \"#utility.yul\":16665:16745   */\n      tag_521\n      jumpi\n      pop\n        /* \"#utility.yul\":16716:16717   */\n      0x01\n        /* \"#utility.yul\":16730:16735   */\n      jump(tag_153)\n        /* \"#utility.yul\":16665:16745   */\n    tag_521:\n        /* \"#utility.yul\":16764:16768   */\n      dup2\n        /* \"#utility.yul\":16754:16830   */\n      tag_522\n      jumpi\n      pop\n        /* \"#utility.yul\":16801:16802   */\n      0x00\n        /* \"#utility.yul\":16815:16820   */\n      jump(tag_153)\n        /* \"#utility.yul\":16754:16830   */\n    tag_522:\n        /* \"#utility.yul\":16846:16850   */\n      dup2\n        /* \"#utility.yul\":16864:16865   */\n      0x01\n        /* \"#utility.yul\":16859:16918   */\n      dup2\n      eq\n      tag_524\n      jumpi\n        /* \"#utility.yul\":16932:16933   */\n      0x02\n        /* \"#utility.yul\":16927:17057   */\n      dup2\n      eq\n      tag_525\n      jumpi\n        /* \"#utility.yul\":16839:17057   */\n      jump(tag_523)\n        /* \"#utility.yul\":16859:16918   */\n    tag_524:\n        /* \"#utility.yul\":16889:16890   */\n      0x01\n        /* \"#utility.yul\":16880:16890   */\n      swap2\n      pop\n        /* \"#utility.yul\":16903:16908   */\n      pop\n      jump(tag_153)\n        /* \"#utility.yul\":16927:17057   */\n    tag_525:\n        /* \"#utility.yul\":16964:16967   */\n      0xff\n        /* \"#utility.yul\":16954:16962   */\n      dup5\n        /* \"#utility.yul\":16951:16968   */\n      gt\n        /* \"#utility.yul\":16948:16991   */\n      iszero\n      tag_527\n      jumpi\n        /* \"#utility.yul\":16971:16989   */\n      tag_527\n      tag_407\n      jump\t// in\n    tag_527:\n      pop\n      pop\n        /* \"#utility.yul\":17027:17028   */\n      0x01\n        /* \"#utility.yul\":17013:17029   */\n      dup3\n      shl\n        /* \"#utility.yul\":17042:17047   */\n      jump(tag_153)\n        /* \"#utility.yul\":16839:17057   */\n    tag_523:\n      pop\n        /* \"#utility.yul\":17141:17143   */\n      0x20\n        /* \"#utility.yul\":17131:17139   */\n      dup4\n        /* \"#utility.yul\":17128:17144   */\n      lt\n        /* \"#utility.yul\":17122:17125   */\n      0x0133\n        /* \"#utility.yul\":17116:17120   */\n      dup4\n        /* \"#utility.yul\":17113:17126   */\n      lt\n        /* \"#utility.yul\":17109:17145   */\n      and\n        /* \"#utility.yul\":17103:17105   */\n      0x4e\n        /* \"#utility.yul\":17093:17101   */\n      dup5\n        /* \"#utility.yul\":17090:17106   */\n      lt\n        /* \"#utility.yul\":17085:17087   */\n      0x0b\n        /* \"#utility.yul\":17079:17083   */\n      dup5\n        /* \"#utility.yul\":17076:17088   */\n      lt\n        /* \"#utility.yul\":17072:17107   */\n      and\n        /* \"#utility.yul\":17069:17146   */\n      or\n        /* \"#utility.yul\":17066:17225   */\n      iszero\n      tag_528\n      jumpi\n      pop\n        /* \"#utility.yul\":17178:17197   */\n      dup2\n      dup2\n      exp\n        /* \"#utility.yul\":17210:17215   */\n      jump(tag_153)\n        /* \"#utility.yul\":17066:17225   */\n    tag_528:\n        /* \"#utility.yul\":17257:17291   */\n      tag_529\n        /* \"#utility.yul\":17282:17290   */\n      dup4\n        /* \"#utility.yul\":17276:17280   */\n      dup4\n        /* \"#utility.yul\":17257:17291   */\n      tag_409\n      jump\t// in\n    tag_529:\n        /* \"#utility.yul\":17387:17393   */\n      dup1\n        /* \"#utility.yul\":17319:17385   */\n      0xffffffffffffffffffffffffffffffffffffffffffffffffffffffffffffffff\n        /* \"#utility.yul\":17315:17394   */\n      div\n        /* \"#utility.yul\":17306:17313   */\n      dup3\n        /* \"#utility.yul\":17303:17395   */\n      gt\n        /* \"#utility.yul\":17300:17418   */\n      iszero\n      tag_531\n      jumpi\n        /* \"#utility.yul\":17398:17416   */\n      tag_531\n      tag_407\n      jump\t// in\n    tag_531:\n        /* \"#utility.yul\":17436:17456   */\n      mul\n      swap4\n        /* \"#utility.yul\":16596:17462   */\n      swap3\n      pop\n      pop\n      pop\n      jump\t// out\n        /* \"#utility.yul\":17467:17607   */\n    tag_392:\n        /* \"#utility.yul\":17525:17530   */\n      0x00\n        /* \"#utility.yul\":17554:17601   */\n      tag_396\n        /* \"#utility.yul\":17595:17599   */\n      0xff\n        /* \"#utility.yul\":17585:17593   */\n      dup5\n        /* \"#utility.yul\":17581:17600   */\n      and\n        /* \"#utility.yul\":17575:17579   */\n      dup4\n        /* \"#utility.yul\":17554:17601   */\n      tag_410\n      jump\t// in\n        /* \"#utility.yul\":17612:17780   */\n    tag_394:\n        /* \"#utility.yul\":17685:17694   */\n      dup1\n      dup3\n      mul\n        /* \"#utility.yul\":17716:17725   */\n      dup2\n      iszero\n        /* \"#utility.yul\":17733:17748   */\n      dup3\n      dup3\n      div\n        /* \"#utility.yul\":17727:17749   */\n      dup5\n      eq\n        /* \"#utility.yul\":17713:17750   */\n      or\n        /* \"#utility.yul\":17703:17774   */\n      tag_153\n      jumpi\n        /* \"#utility.yul\":17754:17772   */\n      tag_153\n      tag_407\n      jump\t// in\n\n    auxdata: 0xa2646970667358221220434c67802c647a23002619ed37c29a65bb24feeaa8c8f13ae8d588a0e7766af464736f6c63430008130033\n}\n",
				"bytecode": {
					"linkReferences": {},
					"object": "6080604052600080546001600160901b03191670320000001e0000003200000005002100011781556001556002805460ff1916905534801561004057600080fd5b50612f6b806100506000396000f3fe6080604052600436106101485760003560e01c80638774fd67116100c0578063d91f54cd11610074578063dda308b411610059578063dda308b4146105bf578063e31357ca146105e2578063f28bca6a146106025761026f565b8063d91f54cd14610526578063da4f16771461059f5761026f565b8063b108b92b116100a5578063b108b92b146104b2578063b74a8b1d146104d2578063bc558577146104f95761026f565b80638774fd6714610456578063b079f5fb146104695761026f565b806350e038e1116101175780638052474d116100fc5780638052474d146103b257806381323ce11461040857806386f90603146104365761026f565b806350e038e114610356578063568e2da0146103765761026f565b80630a7b9161146102c957806338cc02e6146102fe57806338cc21d61461031e57806346842a81146103365761026f565b3661026f57341561026d576040517fc75ffd8600000000000000000000000000000000000000000000000000000000815260206004820152601260248201527f2e436f72706f726174696f6e2e5661756c740000000000000000000000000000604482015273163342fae2bbe3303e5a9adce4bc9fb44d0ff0629063c75ffd8690606401602060405180830381865afa1580156101e9573d6000803e3d6000fd5b505050506040513d601f19601f8201168201806040525081019061020d9190612a8d565b73ffffffffffffffffffffffffffffffffffffffff163460405160006040518083038185875af1925050503d8060008114610264576040519150601f19603f3d011682016040523d82523d6000602084013e610269565b606091505b5050505b005b34801561027b57600080fd5b5060405162461bcd60e51b815260206004820152601d60248201527f53756273637269626572732066616c6c6261636b20726576657274656400000060448201526064015b60405180910390fd5b3480156102d557600080fd5b506102e96102e4366004612abe565b610622565b60405190151581526020015b60405180910390f35b34801561030a57600080fd5b506102e9610319366004612af3565b610a70565b34801561032a57600080fd5b5060005460ff166102e9565b34801561034257600080fd5b506102e9610351366004612b0e565b610c05565b34801561036257600080fd5b506102e9610371366004612b40565b610da3565b34801561038257600080fd5b506000546c01000000000000000000000000900463ffffffff165b60405163ffffffff90911681526020016102f5565b3480156103be57600080fd5b506103fb6040518060400160405280601481526020017f2e5061796d656e742e537562736372696265727300000000000000000000000081525081565b6040516102f59190612b5d565b34801561041457600080fd5b5060005462010000900461ffff165b60405161ffff90911681526020016102f5565b34801561044257600080fd5b506102e9610451366004612af3565b610f83565b6102e9610464366004612bc9565b611121565b34801561047557600080fd5b5061039d610484366004612c00565b73ffffffffffffffffffffffffffffffffffffffff1660009081526004602052604090205463ffffffff1690565b3480156104be57600080fd5b506102e96104cd366004612b0e565b611b2e565b3480156104de57600080fd5b5060005468010000000000000000900463ffffffff1661039d565b34801561050557600080fd5b50600054700100000000000000000000000000000000900461ffff16610423565b34801561053257600080fd5b50610546610541366004612c00565b611cbe565b6040805173ffffffffffffffffffffffffffffffffffffffff909816885263ffffffff968716602089015294861694870194909452918416606086015283166080850152151560a08401521660c082015260e0016102f5565b3480156105ab57600080fd5b506102e96105ba366004612c1d565b611dde565b3480156105cb57600080fd5b50600054640100000000900463ffffffff1661039d565b3480156105ee57600080fd5b506102e96105fd366004612af3565b612238565b34801561060e57600080fd5b506102e961061d366004612abe565b6123d2565b60003373ffffffffffffffffffffffffffffffffffffffff1673163342fae2bbe3303e5a9adce4bc9fb44d0ff06273ffffffffffffffffffffffffffffffffffffffff1663b4a99a4e6040518163ffffffff1660e01b8152600401602060405180830381865afa15801561069a573d6000803e3d6000fd5b505050506040513d601f19601f820116820180604052508101906106be9190612a8d565b73ffffffffffffffffffffffffffffffffffffffff16146107215760405162461bcd60e51b815260206004820152600a60248201527f4f776e6572206f6e6c790000000000000000000000000000000000000000000060448201526064016102c0565b823b63ffffffff8116156107775760405162461bcd60e51b815260206004820152601f60248201527f436f6e7472616374732063616e206e6f7420626520737562736372696265640060448201526064016102c0565b73ffffffffffffffffffffffffffffffffffffffff841660009081526003602052604090208054429063ffffffff7c01000000000000000000000000000000000000000000000000000000009091048116908216111561085d576107de8562015180612c78565b6107e89082612c98565b82547bffffffff00000000ffffffffffffffffffffffffffffffffffffffff167c010000000000000000000000000000000000000000000000000000000063ffffffff92909216919091027fffffffffffffffff00000000ffffffffffffffffffffffffffffffffffffffff161782556108c1565b61086a8562015180612c78565b82548390601c906108a29084907c0100000000000000000000000000000000000000000000000000000000900463ffffffff16612c98565b92506101000a81548163ffffffff021916908363ffffffff1602179055505b6108ce81629e3400612c98565b825463ffffffff9182167c010000000000000000000000000000000000000000000000000000000090910490911611156109705760405162461bcd60e51b815260206004820152602a60248201527f546f74616c20737562736372697074696f6e2063616e206e6f7420657863656560448201527f642031323020646179730000000000000000000000000000000000000000000060648201526084016102c0565b600054610996906c01000000000000000000000000900463ffffffff1662015180612c78565b82546109c891907c0100000000000000000000000000000000000000000000000000000000900463ffffffff16612c98565b82547fffffffff00000000ffffffffffffffffffffffffffffffffffffffffffffffff16780100000000000000000000000000000000000000000000000063ffffffff928316021783556040805173ffffffffffffffffffffffffffffffffffffffff8916815291871660208301527f3166e9f81aaef1a4e6f43b85db3916fde6e3f485a575555e583c0a47dfc4d5e7910160405180910390a1600193505050505b92915050565b60003373ffffffffffffffffffffffffffffffffffffffff1673163342fae2bbe3303e5a9adce4bc9fb44d0ff06273ffffffffffffffffffffffffffffffffffffffff1663b4a99a4e6040518163ffffffff1660e01b8152600401602060405180830381865afa158015610ae8573d6000803e3d6000fd5b505050506040513d601f19601f82011682018060405250810190610b0c9190612a8d565b73ffffffffffffffffffffffffffffffffffffffff1614610b6f5760405162461bcd60e51b815260206004820152600a60248201527f4f776e6572206f6e6c790000000000000000000000000000000000000000000060448201526064016102c0565b8163ffffffff16600003610bc55760405162461bcd60e51b815260206004820152601260248201527f5a65726f20737562736372697074696f6e73000000000000000000000000000060448201526064016102c0565b50600080547fffffffffffffffffffffffffffffffffffffffffffffffff00000000ffffffff1664010000000063ffffffff84160217905560015b919050565b60003373ffffffffffffffffffffffffffffffffffffffff1673163342fae2bbe3303e5a9adce4bc9fb44d0ff06273ffffffffffffffffffffffffffffffffffffffff1663b4a99a4e6040518163ffffffff1660e01b8152600401602060405180830381865afa158015610c7d573d6000803e3d6000fd5b505050506040513d601f19601f82011682018060405250810190610ca19190612a8d565b73ffffffffffffffffffffffffffffffffffffffff1614610d045760405162461bcd60e51b815260206004820152600a60248201527f4f776e6572206f6e6c790000000000000000000000000000000000000000000060448201526064016102c0565b8161ffff16600003610d585760405162461bcd60e51b815260206004820152600860248201527f5a65726f2055534400000000000000000000000000000000000000000000000060448201526064016102c0565b506000805461ffff8316700100000000000000000000000000000000027fffffffffffffffffffffffffffff0000ffffffffffffffffffffffffffffffff9091161790556001919050565b60003373ffffffffffffffffffffffffffffffffffffffff1673163342fae2bbe3303e5a9adce4bc9fb44d0ff06273ffffffffffffffffffffffffffffffffffffffff1663b4a99a4e6040518163ffffffff1660e01b8152600401602060405180830381865afa158015610e1b573d6000803e3d6000fd5b505050506040513d601f19601f82011682018060405250810190610e3f9190612a8d565b73ffffffffffffffffffffffffffffffffffffffff1614610ea25760405162461bcd60e51b815260206004820152600a60248201527f4f776e6572206f6e6c790000000000000000000000000000000000000000000060448201526064016102c0565b60005482151560ff909116151503610f4e57811515600103610f065760405162461bcd60e51b815260206004820152600f60248201527f416c726561647920616c6c6f776564000000000000000000000000000000000060448201526064016102c0565b60405162461bcd60e51b815260206004820152601260248201527f416c726561647920646973616c6c6f776564000000000000000000000000000060448201526064016102c0565b50600080547fffffffffffffffffffffffffffffffffffffffffffffffffffffffffffffff0016911515919091179055600190565b60003373ffffffffffffffffffffffffffffffffffffffff1673163342fae2bbe3303e5a9adce4bc9fb44d0ff06273ffffffffffffffffffffffffffffffffffffffff1663b4a99a4e6040518163ffffffff1660e01b8152600401602060405180830381865afa158015610ffb573d6000803e3d6000fd5b505050506040513d601f19601f8201168201806040525081019061101f9190612a8d565b73ffffffffffffffffffffffffffffffffffffffff16146110825760405162461bcd60e51b815260206004820152600a60248201527f4f776e6572206f6e6c790000000000000000000000000000000000000000000060448201526064016102c0565b8163ffffffff166000036110d85760405162461bcd60e51b815260206004820152600960248201527f5a65726f2064617973000000000000000000000000000000000000000000000060448201526064016102c0565b506000805463ffffffff83166c01000000000000000000000000027fffffffffffffffffffffffffffffffff00000000ffffffffffffffffffffffff9091161790556001919050565b60008054610100900460ff16151560010361117e5760405162461bcd60e51b815260206004820152601160248201527f5265656e7472616e6365206661696c656400000000000000000000000000000060448201526064016102c0565b600080547fffffffffffffffffffffffffffffffffffffffffffffffffffffffffffff00ff81166101001790915560ff1615156001146112005760405162461bcd60e51b815260206004820152601460248201527f5375627363726962696e672064697361626c656400000000000000000000000060448201526064016102c0565b346000036112505760405162461bcd60e51b815260206004820152601460248201527f4d4154494320616d6f756e74206973207a65726f00000000000000000000000060448201526064016102c0565b33803b9063ffffffff8216156112a85760405162461bcd60e51b815260206004820152601b60248201527f436f6e7472616374732063616e206e6f7420737562736372696265000000000060448201526064016102c0565b6112b06127bd565b15156001146113015760405162461bcd60e51b815260206004820152601f60248201527f4d4154494320746f20555344204f7261636c6520756e617661696c61626c650060448201526064016102c0565b61130a346129c7565b60005463ffffffff919091169061132b9062010000900461ffff1687612c78565b63ffffffff16111561137f5760405162461bcd60e51b815260206004820152601960248201527f4d4154494320616d6f756e7420696e73756666696369656e740000000000000060448201526064016102c0565b73ffffffffffffffffffffffffffffffffffffffff81166000908152600360205260409020600181015463ffffffff161580156113e1575080547c0100000000000000000000000000000000000000000000000000000000900463ffffffff16155b156115a8578473ffffffffffffffffffffffffffffffffffffffff168273ffffffffffffffffffffffffffffffffffffffff1614158015611437575073ffffffffffffffffffffffffffffffffffffffff851615155b1561152b57843b925063ffffffff8316156114945760405162461bcd60e51b815260206004820152601460248201527f526566657272657220697320636f6e747261637400000000000000000000000060448201526064016102c0565b73ffffffffffffffffffffffffffffffffffffffff85166000908152600460205260408120805463ffffffff16916114cb83612cbc565b82546101009290920a63ffffffff8181021990931691909216919091021790555080547fffffffffffffffffffffffff00000000000000000000000000000000000000001673ffffffffffffffffffffffffffffffffffffffff86161781555b600f8663ffffffff1610156115a85760405162461bcd60e51b815260206004820152602d60248201527f466972737420737562736372697074696f6e2073686f756c642062652061742060448201527f6c6561737420313520646179730000000000000000000000000000000000000060648201526084016102c0565b8054429063ffffffff7c010000000000000000000000000000000000000000000000000000000090910481169082161115611669576115ea8762015180612c78565b6115f49082612c98565b82547bffffffff00000000ffffffffffffffffffffffffffffffffffffffff167c010000000000000000000000000000000000000000000000000000000063ffffffff92909216919091027fffffffffffffffff00000000ffffffffffffffffffffffffffffffffffffffff161782556116cd565b6116768762015180612c78565b82548390601c906116ae9084907c0100000000000000000000000000000000000000000000000000000000900463ffffffff16612c98565b92506101000a81548163ffffffff021916908363ffffffff1602179055505b6116da81629e3400612c98565b825463ffffffff9182167c0100000000000000000000000000000000000000000000000000000000909104909116111561177c5760405162461bcd60e51b815260206004820152602a60248201527f546f74616c20737562736372697074696f6e2063616e206e6f7420657863656560448201527f642031323020646179730000000000000000000000000000000000000000000060648201526084016102c0565b6000546117a2906c01000000000000000000000000900463ffffffff1662015180612c78565b82546117d491907c0100000000000000000000000000000000000000000000000000000000900463ffffffff16612c98565b825463ffffffff919091167801000000000000000000000000000000000000000000000000027fffffffff00000000ffffffffffffffffffffffffffffffffffffffffffffffff909116178255600061182c88612a13565b9050600061183a8234612cdf565b845490915073ffffffffffffffffffffffffffffffffffffffff161561192557611865600a83612d21565b61186f9082612d35565b60008054865473ffffffffffffffffffffffffffffffffffffffff168252600460205260409091205491925063ffffffff640100000000909104811691161061192557835473ffffffffffffffffffffffffffffffffffffffff1660646118d68334612cdf565b6118e09190612d21565b604051600081818185875af1925050503d806000811461191c576040519150601f19603f3d011682016040523d82523d6000602084013e611921565b606091505b5050505b801561198a5760405173ffffffffffffffffffffffffffffffffffffffff8616908290600081818185875af1925050503d8060008114611981576040519150601f19603f3d011682016040523d82523d6000602084013e611986565b606091505b5050505b6040517fc75ffd8600000000000000000000000000000000000000000000000000000000815260206004820152601260248201527f2e436f72706f726174696f6e2e5661756c740000000000000000000000000000604482015273163342fae2bbe3303e5a9adce4bc9fb44d0ff0629063c75ffd8690606401602060405180830381865afa158015611a20573d6000803e3d6000fd5b505050506040513d601f19601f82011682018060405250810190611a449190612a8d565b73ffffffffffffffffffffffffffffffffffffffff164760405160006040518083038185875af1925050503d8060008114611a9b576040519150601f19603f3d011682016040523d82523d6000602084013e611aa0565b606091505b5050600080547fffffffffffffffffffffffffffffffffffffffffffffffffffffffffffff00ff169055506040805173ffffffffffffffffffffffffffffffffffffffff8716815263ffffffff8b1660208201527f427f72b0a0aa45072e2b291b62327b82b019eebf02629f3d1551b1618f97739b910160405180910390a150600198975050505050505050565b60003373ffffffffffffffffffffffffffffffffffffffff1673163342fae2bbe3303e5a9adce4bc9fb44d0ff06273ffffffffffffffffffffffffffffffffffffffff1663b4a99a4e6040518163ffffffff1660e01b8152600401602060405180830381865afa158015611ba6573d6000803e3d6000fd5b505050506040513d601f19601f82011682018060405250810190611bca9190612a8d565b73ffffffffffffffffffffffffffffffffffffffff1614611c2d5760405162461bcd60e51b815260206004820152600a60248201527f4f776e6572206f6e6c790000000000000000000000000000000000000000000060448201526064016102c0565b8161ffff16600003611c815760405162461bcd60e51b815260206004820152600860248201527f5a65726f2055534400000000000000000000000000000000000000000000000060448201526064016102c0565b506000805461ffff831662010000027fffffffffffffffffffffffffffffffffffffffffffffffffffffffff0000ffff9091161790556001919050565b73ffffffffffffffffffffffffffffffffffffffff8082166000908152600360209081526040808320815160a081018352815495861680825263ffffffff74010000000000000000000000000000000000000000880481169583018690527801000000000000000000000000000000000000000000000000880481169483018590527c010000000000000000000000000000000000000000000000000000000090970487166060830181905260019093015487166080830181905290969495939492939283929042908116861015611d97576000611daf565b62015180611da58288612d48565b611daf9190612d65565b94508063ffffffff168663ffffffff161015611dcc576000611dcf565b60015b93505050919395979092949650565b6040517fc75ffd8600000000000000000000000000000000000000000000000000000000815260206004820152601260248201527f2e5061796d656e742e50726f636573736f7200000000000000000000000000006044820152600090339073163342fae2bbe3303e5a9adce4bc9fb44d0ff0629063c75ffd8690606401602060405180830381865afa158015611e79573d6000803e3d6000fd5b505050506040513d601f19601f82011682018060405250810190611e9d9190612a8d565b73ffffffffffffffffffffffffffffffffffffffff1614611f005760405162461bcd60e51b815260206004820152600e60248201527f50726f636573736f72206f6e6c7900000000000000000000000000000000000060448201526064016102c0565b73ffffffffffffffffffffffffffffffffffffffff831660009081526003602052604090208054429063ffffffff7c010000000000000000000000000000000000000000000000000000000090910481169082161161206e57600054611f7f906c01000000000000000000000000900463ffffffff1662015180612c78565b8254611fb191907c0100000000000000000000000000000000000000000000000000000000900463ffffffff16612c98565b82547fffffffff00000000ffffffffffffffffffffffffffffffffffffffffffffffff16780100000000000000000000000000000000000000000000000063ffffffff92831602178084557401000000000000000000000000000000000000000090041682601461202183612cbc565b91906101000a81548163ffffffff021916908363ffffffff16021790555050808260010160006101000a81548163ffffffff021916908363ffffffff160217905550600192505050610a6a565b815463ffffffff78010000000000000000000000000000000000000000000000009091048116908216111561213e576000546120c3906c01000000000000000000000000900463ffffffff1662015180612c78565b6120cd9082612c98565b82547fffffffff0000000000000000ffffffffffffffffffffffffffffffffffffffff16780100000000000000000000000000000000000000000000000063ffffffff92909216919091027fffffffffffffffff00000000ffffffffffffffffffffffffffffffffffffffff161782555b60005482546801000000000000000090910463ffffffff908116740100000000000000000000000000000000000000009092041610158061217d575083155b1561218d57600092505050610a6a565b6121956127bd565b50600054700100000000000000000000000000000000900461ffff166121ba856129c7565b63ffffffff16106121f157815474010000000000000000000000000000000000000000900463ffffffff1682601461202183612cbc565b600191820180547fffffffffffffffffffffffffffffffffffffffffffffffffffffffff000000001663ffffffff929092169190911790559050610a6a565b505092915050565b60003373ffffffffffffffffffffffffffffffffffffffff1673163342fae2bbe3303e5a9adce4bc9fb44d0ff06273ffffffffffffffffffffffffffffffffffffffff1663b4a99a4e6040518163ffffffff1660e01b8152600401602060405180830381865afa1580156122b0573d6000803e3d6000fd5b505050506040513d601f19601f820116820180604052508101906122d49190612a8d565b73ffffffffffffffffffffffffffffffffffffffff16146123375760405162461bcd60e51b815260206004820152600a60248201527f4f776e6572206f6e6c790000000000000000000000000000000000000000000060448201526064016102c0565b8163ffffffff1660000361238d5760405162461bcd60e51b815260206004820152601160248201527f5a65726f207472616e73616374696f6e7300000000000000000000000000000060448201526064016102c0565b506000805463ffffffff831668010000000000000000027fffffffffffffffffffffffffffffffffffffffff00000000ffffffffffffffff9091161790556001919050565b60003373ffffffffffffffffffffffffffffffffffffffff1673163342fae2bbe3303e5a9adce4bc9fb44d0ff06273ffffffffffffffffffffffffffffffffffffffff1663b4a99a4e6040518163ffffffff1660e01b8152600401602060405180830381865afa15801561244a573d6000803e3d6000fd5b505050506040513d601f19601f8201168201806040525081019061246e9190612a8d565b73ffffffffffffffffffffffffffffffffffffffff16146124d15760405162461bcd60e51b815260206004820152600a60248201527f4f776e6572206f6e6c790000000000000000000000000000000000000000000060448201526064016102c0565b60788263ffffffff1611156125285760405162461bcd60e51b815260206004820152600d60248201527f546f6f206d616e7920646179730000000000000000000000000000000000000060448201526064016102c0565b73ffffffffffffffffffffffffffffffffffffffff831660009081526003602052604090208054429063ffffffff7c0100000000000000000000000000000000000000000000000000000000909104811690821611156125ca5760405162461bcd60e51b815260206004820152601060248201527f4e6f74206120737562736372696265720000000000000000000000000000000060448201526064016102c0565b6125d78462015180612c78565b82548390601c9061260f9084907c0100000000000000000000000000000000000000000000000000000000900463ffffffff16612d48565b92506101000a81548163ffffffff021916908363ffffffff1602179055508063ffffffff1682600001601c9054906101000a900463ffffffff1663ffffffff16116126c05781547bffffffff00000000ffffffffffffffffffffffffffffffffffffffff167c010000000000000000000000000000000000000000000000000000000063ffffffff8316027fffffffffffffffff00000000ffffffffffffffffffffffffffffffffffffffff161782555b6000546126e6906c01000000000000000000000000900463ffffffff1662015180612c78565b825461271891907c0100000000000000000000000000000000000000000000000000000000900463ffffffff16612c98565b82547fffffffff00000000ffffffffffffffffffffffffffffffffffffffffffffffff16780100000000000000000000000000000000000000000000000063ffffffff928316021783556040805173ffffffffffffffffffffffffffffffffffffffff8816815291861660208301527f6dcc49443c6dada3a53209e7a01826b847b563c60a1d311b2e9cdc8ab7ac323c910160405180910390a1506001949350505050565b6040517fc75ffd8600000000000000000000000000000000000000000000000000000000815260206004820152601360248201527f2e436f72706f726174696f6e2e4f7261636c65000000000000000000000000006044820152600090819073163342fae2bbe3303e5a9adce4bc9fb44d0ff0629063c75ffd8690606401602060405180830381865afa158015612858573d6000803e3d6000fd5b505050506040513d601f19601f8201168201806040525081019061287c9190612a8d565b90506000808273ffffffffffffffffffffffffffffffffffffffff166316f0a3866040518163ffffffff1660e01b81526004016040805180830381865afa1580156128cb573d6000803e3d6000fd5b505050506040513d601f19601f820116820180604052508101906128ef9190612d88565b9150915060008373ffffffffffffffffffffffffffffffffffffffff1663f9a4bbbe6040518163ffffffff1660e01b8152600401602060405180830381865afa158015612940573d6000803e3d6000fd5b505050506040513d601f19601f820116820180604052508101906129649190612dbd565b905060018215151480156129785750600081115b156129bc576001908155600280547fffffffffffffffffffffffffffffffffffffffffffffffffffffffffffffff001660ff94909416939093179092555092915050565b600094505050505090565b60025460009081906129dd9060ff166012612dd6565b6129e890600a612f0f565b8360015460646129f89190612f1e565b612a029190612f1e565b612a0c9190612d21565b9392505050565b6000806001546064612a259190612f1e565b600254612a369060ff166012612dd6565b612a4190600a612f0f565b600054612a589062010000900461ffff1686612c78565b63ffffffff16612a029190612f1e565b73ffffffffffffffffffffffffffffffffffffffff81168114612a8a57600080fd5b50565b600060208284031215612a9f57600080fd5b8151612a0c81612a68565b803563ffffffff81168114610c0057600080fd5b60008060408385031215612ad157600080fd5b8235612adc81612a68565b9150612aea60208401612aaa565b90509250929050565b600060208284031215612b0557600080fd5b612a0c82612aaa565b600060208284031215612b2057600080fd5b813561ffff81168114612a0c57600080fd5b8015158114612a8a57600080fd5b600060208284031215612b5257600080fd5b8135612a0c81612b32565b600060208083528351808285015260005b81811015612b8a57858101830151858201604001528201612b6e565b5060006040828601015260407fffffffffffffffffffffffffffffffffffffffffffffffffffffffffffffffe0601f8301168501019250505092915050565b60008060408385031215612bdc57600080fd5b612be583612aaa565b91506020830135612bf581612a68565b809150509250929050565b600060208284031215612c1257600080fd5b8135612a0c81612a68565b60008060408385031215612c3057600080fd5b8235612c3b81612a68565b946020939093013593505050565b7f4e487b7100000000000000000000000000000000000000000000000000000000600052601160045260246000fd5b63ffffffff81811683821602808216919082811461223057612230612c49565b63ffffffff818116838216019080821115612cb557612cb5612c49565b5092915050565b600063ffffffff808316818103612cd557612cd5612c49565b6001019392505050565b81810381811115610a6a57610a6a612c49565b7f4e487b7100000000000000000000000000000000000000000000000000000000600052601260045260246000fd5b600082612d3057612d30612cf2565b500490565b80820180821115610a6a57610a6a612c49565b63ffffffff828116828216039080821115612cb557612cb5612c49565b600063ffffffff80841680612d7c57612d7c612cf2565b92169190910492915050565b60008060408385031215612d9b57600080fd5b825160ff81168114612dac57600080fd5b6020840151909250612bf581612b32565b600060208284031215612dcf57600080fd5b5051919050565b60ff8181168382160190811115610a6a57610a6a612c49565b600181815b80851115612e4857817fffffffffffffffffffffffffffffffffffffffffffffffffffffffffffffffff04821115612e2e57612e2e612c49565b80851615612e3b57918102915b93841c9390800290612df4565b509250929050565b600082612e5f57506001610a6a565b81612e6c57506000610a6a565b8160018114612e825760028114612e8c57612ea8565b6001915050610a6a565b60ff841115612e9d57612e9d612c49565b50506001821b610a6a565b5060208310610133831016604e8410600b8410161715612ecb575081810a610a6a565b612ed58383612def565b807fffffffffffffffffffffffffffffffffffffffffffffffffffffffffffffffff04821115612f0757612f07612c49565b029392505050565b6000612a0c60ff841683612e50565b8082028115828204841417610a6a57610a6a612c4956fea2646970667358221220434c67802c647a23002619ed37c29a65bb24feeaa8c8f13ae8d588a0e7766af464736f6c63430008130033",
					"opcodes": "PUSH1 0x80 PUSH1 0x40 MSTORE PUSH1 0x0 DUP1 SLOAD PUSH1 0x1 PUSH1 0x1 PUSH1 0x90 SHL SUB NOT AND PUSH17 0x320000001E000000320000000500210001 OR DUP2 SSTORE PUSH1 0x1 SSTORE PUSH1 0x2 DUP1 SLOAD PUSH1 0xFF NOT AND SWAP1 SSTORE CALLVALUE DUP1 ISZERO PUSH2 0x40 JUMPI PUSH1 0x0 DUP1 REVERT JUMPDEST POP PUSH2 0x2F6B DUP1 PUSH2 0x50 PUSH1 0x0 CODECOPY PUSH1 0x0 RETURN INVALID PUSH1 0x80 PUSH1 0x40 MSTORE PUSH1 0x4 CALLDATASIZE LT PUSH2 0x148 JUMPI PUSH1 0x0 CALLDATALOAD PUSH1 0xE0 SHR DUP1 PUSH4 0x8774FD67 GT PUSH2 0xC0 JUMPI DUP1 PUSH4 0xD91F54CD GT PUSH2 0x74 JUMPI DUP1 PUSH4 0xDDA308B4 GT PUSH2 0x59 JUMPI DUP1 PUSH4 0xDDA308B4 EQ PUSH2 0x5BF JUMPI DUP1 PUSH4 0xE31357CA EQ PUSH2 0x5E2 JUMPI DUP1 PUSH4 0xF28BCA6A EQ PUSH2 0x602 JUMPI PUSH2 0x26F JUMP JUMPDEST DUP1 PUSH4 0xD91F54CD EQ PUSH2 0x526 JUMPI DUP1 PUSH4 0xDA4F1677 EQ PUSH2 0x59F JUMPI PUSH2 0x26F JUMP JUMPDEST DUP1 PUSH4 0xB108B92B GT PUSH2 0xA5 JUMPI DUP1 PUSH4 0xB108B92B EQ PUSH2 0x4B2 JUMPI DUP1 PUSH4 0xB74A8B1D EQ PUSH2 0x4D2 JUMPI DUP1 PUSH4 0xBC558577 EQ PUSH2 0x4F9 JUMPI PUSH2 0x26F JUMP JUMPDEST DUP1 PUSH4 0x8774FD67 EQ PUSH2 0x456 JUMPI DUP1 PUSH4 0xB079F5FB EQ PUSH2 0x469 JUMPI PUSH2 0x26F JUMP JUMPDEST DUP1 PUSH4 0x50E038E1 GT PUSH2 0x117 JUMPI DUP1 PUSH4 0x8052474D GT PUSH2 0xFC JUMPI DUP1 PUSH4 0x8052474D EQ PUSH2 0x3B2 JUMPI DUP1 PUSH4 0x81323CE1 EQ PUSH2 0x408 JUMPI DUP1 PUSH4 0x86F90603 EQ PUSH2 0x436 JUMPI PUSH2 0x26F JUMP JUMPDEST DUP1 PUSH4 0x50E038E1 EQ PUSH2 0x356 JUMPI DUP1 PUSH4 0x568E2DA0 EQ PUSH2 0x376 JUMPI PUSH2 0x26F JUMP JUMPDEST DUP1 PUSH4 0xA7B9161 EQ PUSH2 0x2C9 JUMPI DUP1 PUSH4 0x38CC02E6 EQ PUSH2 0x2FE JUMPI DUP1 PUSH4 0x38CC21D6 EQ PUSH2 0x31E JUMPI DUP1 PUSH4 0x46842A81 EQ PUSH2 0x336 JUMPI PUSH2 0x26F JUMP JUMPDEST CALLDATASIZE PUSH2 0x26F JUMPI CALLVALUE ISZERO PUSH2 0x26D JUMPI PUSH1 0x40 MLOAD PUSH32 0xC75FFD8600000000000000000000000000000000000000000000000000000000 DUP2 MSTORE PUSH1 0x20 PUSH1 0x4 DUP3 ADD MSTORE PUSH1 0x12 PUSH1 0x24 DUP3 ADD MSTORE PUSH32 0x2E436F72706F726174696F6E2E5661756C740000000000000000000000000000 PUSH1 0x44 DUP3 ADD MSTORE PUSH20 0x163342FAE2BBE3303E5A9ADCE4BC9FB44D0FF062 SWAP1 PUSH4 0xC75FFD86 SWAP1 PUSH1 0x64 ADD PUSH1 0x20 PUSH1 0x40 MLOAD DUP1 DUP4 SUB DUP2 DUP7 GAS STATICCALL ISZERO DUP1 ISZERO PUSH2 0x1E9 JUMPI RETURNDATASIZE PUSH1 0x0 DUP1 RETURNDATACOPY RETURNDATASIZE PUSH1 0x0 REVERT JUMPDEST POP POP POP POP PUSH1 0x40 MLOAD RETURNDATASIZE PUSH1 0x1F NOT PUSH1 0x1F DUP3 ADD AND DUP3 ADD DUP1 PUSH1 0x40 MSTORE POP DUP2 ADD SWAP1 PUSH2 0x20D SWAP2 SWAP1 PUSH2 0x2A8D JUMP JUMPDEST PUSH20 0xFFFFFFFFFFFFFFFFFFFFFFFFFFFFFFFFFFFFFFFF AND CALLVALUE PUSH1 0x40 MLOAD PUSH1 0x0 PUSH1 0x40 MLOAD DUP1 DUP4 SUB DUP2 DUP6 DUP8 GAS CALL SWAP3 POP POP POP RETURNDATASIZE DUP1 PUSH1 0x0 DUP2 EQ PUSH2 0x264 JUMPI PUSH1 0x40 MLOAD SWAP2 POP PUSH1 0x1F NOT PUSH1 0x3F RETURNDATASIZE ADD AND DUP3 ADD PUSH1 0x40 MSTORE RETURNDATASIZE DUP3 MSTORE RETURNDATASIZE PUSH1 0x0 PUSH1 0x20 DUP5 ADD RETURNDATACOPY PUSH2 0x269 JUMP JUMPDEST PUSH1 0x60 SWAP2 POP JUMPDEST POP POP POP JUMPDEST STOP JUMPDEST CALLVALUE DUP1 ISZERO PUSH2 0x27B JUMPI PUSH1 0x0 DUP1 REVERT JUMPDEST POP PUSH1 0x40 MLOAD PUSH3 0x461BCD PUSH1 0xE5 SHL DUP2 MSTORE PUSH1 0x20 PUSH1 0x4 DUP3 ADD MSTORE PUSH1 0x1D PUSH1 0x24 DUP3 ADD MSTORE PUSH32 0x53756273637269626572732066616C6C6261636B207265766572746564000000 PUSH1 0x44 DUP3 ADD MSTORE PUSH1 0x64 ADD JUMPDEST PUSH1 0x40 MLOAD DUP1 SWAP2 SUB SWAP1 REVERT JUMPDEST CALLVALUE DUP1 ISZERO PUSH2 0x2D5 JUMPI PUSH1 0x0 DUP1 REVERT JUMPDEST POP PUSH2 0x2E9 PUSH2 0x2E4 CALLDATASIZE PUSH1 0x4 PUSH2 0x2ABE JUMP JUMPDEST PUSH2 0x622 JUMP JUMPDEST PUSH1 0x40 MLOAD SWAP1 ISZERO ISZERO DUP2 MSTORE PUSH1 0x20 ADD JUMPDEST PUSH1 0x40 MLOAD DUP1 SWAP2 SUB SWAP1 RETURN JUMPDEST CALLVALUE DUP1 ISZERO PUSH2 0x30A JUMPI PUSH1 0x0 DUP1 REVERT JUMPDEST POP PUSH2 0x2E9 PUSH2 0x319 CALLDATASIZE PUSH1 0x4 PUSH2 0x2AF3 JUMP JUMPDEST PUSH2 0xA70 JUMP JUMPDEST CALLVALUE DUP1 ISZERO PUSH2 0x32A JUMPI PUSH1 0x0 DUP1 REVERT JUMPDEST POP PUSH1 0x0 SLOAD PUSH1 0xFF AND PUSH2 0x2E9 JUMP JUMPDEST CALLVALUE DUP1 ISZERO PUSH2 0x342 JUMPI PUSH1 0x0 DUP1 REVERT JUMPDEST POP PUSH2 0x2E9 PUSH2 0x351 CALLDATASIZE PUSH1 0x4 PUSH2 0x2B0E JUMP JUMPDEST PUSH2 0xC05 JUMP JUMPDEST CALLVALUE DUP1 ISZERO PUSH2 0x362 JUMPI PUSH1 0x0 DUP1 REVERT JUMPDEST POP PUSH2 0x2E9 PUSH2 0x371 CALLDATASIZE PUSH1 0x4 PUSH2 0x2B40 JUMP JUMPDEST PUSH2 0xDA3 JUMP JUMPDEST CALLVALUE DUP1 ISZERO PUSH2 0x382 JUMPI PUSH1 0x0 DUP1 REVERT JUMPDEST POP PUSH1 0x0 SLOAD PUSH13 0x1000000000000000000000000 SWAP1 DIV PUSH4 0xFFFFFFFF AND JUMPDEST PUSH1 0x40 MLOAD PUSH4 0xFFFFFFFF SWAP1 SWAP2 AND DUP2 MSTORE PUSH1 0x20 ADD PUSH2 0x2F5 JUMP JUMPDEST CALLVALUE DUP1 ISZERO PUSH2 0x3BE JUMPI PUSH1 0x0 DUP1 REVERT JUMPDEST POP PUSH2 0x3FB PUSH1 0x40 MLOAD DUP1 PUSH1 0x40 ADD PUSH1 0x40 MSTORE DUP1 PUSH1 0x14 DUP2 MSTORE PUSH1 0x20 ADD PUSH32 0x2E5061796D656E742E5375627363726962657273000000000000000000000000 DUP2 MSTORE POP DUP2 JUMP JUMPDEST PUSH1 0x40 MLOAD PUSH2 0x2F5 SWAP2 SWAP1 PUSH2 0x2B5D JUMP JUMPDEST CALLVALUE DUP1 ISZERO PUSH2 0x414 JUMPI PUSH1 0x0 DUP1 REVERT JUMPDEST POP PUSH1 0x0 SLOAD PUSH3 0x10000 SWAP1 DIV PUSH2 0xFFFF AND JUMPDEST PUSH1 0x40 MLOAD PUSH2 0xFFFF SWAP1 SWAP2 AND DUP2 MSTORE PUSH1 0x20 ADD PUSH2 0x2F5 JUMP JUMPDEST CALLVALUE DUP1 ISZERO PUSH2 0x442 JUMPI PUSH1 0x0 DUP1 REVERT JUMPDEST POP PUSH2 0x2E9 PUSH2 0x451 CALLDATASIZE PUSH1 0x4 PUSH2 0x2AF3 JUMP JUMPDEST PUSH2 0xF83 JUMP JUMPDEST PUSH2 0x2E9 PUSH2 0x464 CALLDATASIZE PUSH1 0x4 PUSH2 0x2BC9 JUMP JUMPDEST PUSH2 0x1121 JUMP JUMPDEST CALLVALUE DUP1 ISZERO PUSH2 0x475 JUMPI PUSH1 0x0 DUP1 REVERT JUMPDEST POP PUSH2 0x39D PUSH2 0x484 CALLDATASIZE PUSH1 0x4 PUSH2 0x2C00 JUMP JUMPDEST PUSH20 0xFFFFFFFFFFFFFFFFFFFFFFFFFFFFFFFFFFFFFFFF AND PUSH1 0x0 SWAP1 DUP2 MSTORE PUSH1 0x4 PUSH1 0x20 MSTORE PUSH1 0x40 SWAP1 KECCAK256 SLOAD PUSH4 0xFFFFFFFF AND SWAP1 JUMP JUMPDEST CALLVALUE DUP1 ISZERO PUSH2 0x4BE JUMPI PUSH1 0x0 DUP1 REVERT JUMPDEST POP PUSH2 0x2E9 PUSH2 0x4CD CALLDATASIZE PUSH1 0x4 PUSH2 0x2B0E JUMP JUMPDEST PUSH2 0x1B2E JUMP JUMPDEST CALLVALUE DUP1 ISZERO PUSH2 0x4DE JUMPI PUSH1 0x0 DUP1 REVERT JUMPDEST POP PUSH1 0x0 SLOAD PUSH9 0x10000000000000000 SWAP1 DIV PUSH4 0xFFFFFFFF AND PUSH2 0x39D JUMP JUMPDEST CALLVALUE DUP1 ISZERO PUSH2 0x505 JUMPI PUSH1 0x0 DUP1 REVERT JUMPDEST POP PUSH1 0x0 SLOAD PUSH17 0x100000000000000000000000000000000 SWAP1 DIV PUSH2 0xFFFF AND PUSH2 0x423 JUMP JUMPDEST CALLVALUE DUP1 ISZERO PUSH2 0x532 JUMPI PUSH1 0x0 DUP1 REVERT JUMPDEST POP PUSH2 0x546 PUSH2 0x541 CALLDATASIZE PUSH1 0x4 PUSH2 0x2C00 JUMP JUMPDEST PUSH2 0x1CBE JUMP JUMPDEST PUSH1 0x40 DUP1 MLOAD PUSH20 0xFFFFFFFFFFFFFFFFFFFFFFFFFFFFFFFFFFFFFFFF SWAP1 SWAP9 AND DUP9 MSTORE PUSH4 0xFFFFFFFF SWAP7 DUP8 AND PUSH1 0x20 DUP10 ADD MSTORE SWAP5 DUP7 AND SWAP5 DUP8 ADD SWAP5 SWAP1 SWAP5 MSTORE SWAP2 DUP5 AND PUSH1 0x60 DUP7 ADD MSTORE DUP4 AND PUSH1 0x80 DUP6 ADD MSTORE ISZERO ISZERO PUSH1 0xA0 DUP5 ADD MSTORE AND PUSH1 0xC0 DUP3 ADD MSTORE PUSH1 0xE0 ADD PUSH2 0x2F5 JUMP JUMPDEST CALLVALUE DUP1 ISZERO PUSH2 0x5AB JUMPI PUSH1 0x0 DUP1 REVERT JUMPDEST POP PUSH2 0x2E9 PUSH2 0x5BA CALLDATASIZE PUSH1 0x4 PUSH2 0x2C1D JUMP JUMPDEST PUSH2 0x1DDE JUMP JUMPDEST CALLVALUE DUP1 ISZERO PUSH2 0x5CB JUMPI PUSH1 0x0 DUP1 REVERT JUMPDEST POP PUSH1 0x0 SLOAD PUSH5 0x100000000 SWAP1 DIV PUSH4 0xFFFFFFFF AND PUSH2 0x39D JUMP JUMPDEST CALLVALUE DUP1 ISZERO PUSH2 0x5EE JUMPI PUSH1 0x0 DUP1 REVERT JUMPDEST POP PUSH2 0x2E9 PUSH2 0x5FD CALLDATASIZE PUSH1 0x4 PUSH2 0x2AF3 JUMP JUMPDEST PUSH2 0x2238 JUMP JUMPDEST CALLVALUE DUP1 ISZERO PUSH2 0x60E JUMPI PUSH1 0x0 DUP1 REVERT JUMPDEST POP PUSH2 0x2E9 PUSH2 0x61D CALLDATASIZE PUSH1 0x4 PUSH2 0x2ABE JUMP JUMPDEST PUSH2 0x23D2 JUMP JUMPDEST PUSH1 0x0 CALLER PUSH20 0xFFFFFFFFFFFFFFFFFFFFFFFFFFFFFFFFFFFFFFFF AND PUSH20 0x163342FAE2BBE3303E5A9ADCE4BC9FB44D0FF062 PUSH20 0xFFFFFFFFFFFFFFFFFFFFFFFFFFFFFFFFFFFFFFFF AND PUSH4 0xB4A99A4E PUSH1 0x40 MLOAD DUP2 PUSH4 0xFFFFFFFF AND PUSH1 0xE0 SHL DUP2 MSTORE PUSH1 0x4 ADD PUSH1 0x20 PUSH1 0x40 MLOAD DUP1 DUP4 SUB DUP2 DUP7 GAS STATICCALL ISZERO DUP1 ISZERO PUSH2 0x69A JUMPI RETURNDATASIZE PUSH1 0x0 DUP1 RETURNDATACOPY RETURNDATASIZE PUSH1 0x0 REVERT JUMPDEST POP POP POP POP PUSH1 0x40 MLOAD RETURNDATASIZE PUSH1 0x1F NOT PUSH1 0x1F DUP3 ADD AND DUP3 ADD DUP1 PUSH1 0x40 MSTORE POP DUP2 ADD SWAP1 PUSH2 0x6BE SWAP2 SWAP1 PUSH2 0x2A8D JUMP JUMPDEST PUSH20 0xFFFFFFFFFFFFFFFFFFFFFFFFFFFFFFFFFFFFFFFF AND EQ PUSH2 0x721 JUMPI PUSH1 0x40 MLOAD PUSH3 0x461BCD PUSH1 0xE5 SHL DUP2 MSTORE PUSH1 0x20 PUSH1 0x4 DUP3 ADD MSTORE PUSH1 0xA PUSH1 0x24 DUP3 ADD MSTORE PUSH32 0x4F776E6572206F6E6C7900000000000000000000000000000000000000000000 PUSH1 0x44 DUP3 ADD MSTORE PUSH1 0x64 ADD PUSH2 0x2C0 JUMP JUMPDEST DUP3 EXTCODESIZE PUSH4 0xFFFFFFFF DUP2 AND ISZERO PUSH2 0x777 JUMPI PUSH1 0x40 MLOAD PUSH3 0x461BCD PUSH1 0xE5 SHL DUP2 MSTORE PUSH1 0x20 PUSH1 0x4 DUP3 ADD MSTORE PUSH1 0x1F PUSH1 0x24 DUP3 ADD MSTORE PUSH32 0x436F6E7472616374732063616E206E6F74206265207375627363726962656400 PUSH1 0x44 DUP3 ADD MSTORE PUSH1 0x64 ADD PUSH2 0x2C0 JUMP JUMPDEST PUSH20 0xFFFFFFFFFFFFFFFFFFFFFFFFFFFFFFFFFFFFFFFF DUP5 AND PUSH1 0x0 SWAP1 DUP2 MSTORE PUSH1 0x3 PUSH1 0x20 MSTORE PUSH1 0x40 SWAP1 KECCAK256 DUP1 SLOAD TIMESTAMP SWAP1 PUSH4 0xFFFFFFFF PUSH29 0x100000000000000000000000000000000000000000000000000000000 SWAP1 SWAP2 DIV DUP2 AND SWAP1 DUP3 AND GT ISZERO PUSH2 0x85D JUMPI PUSH2 0x7DE DUP6 PUSH3 0x15180 PUSH2 0x2C78 JUMP JUMPDEST PUSH2 0x7E8 SWAP1 DUP3 PUSH2 0x2C98 JUMP JUMPDEST DUP3 SLOAD PUSH28 0xFFFFFFFF00000000FFFFFFFFFFFFFFFFFFFFFFFFFFFFFFFFFFFFFFFF AND PUSH29 0x100000000000000000000000000000000000000000000000000000000 PUSH4 0xFFFFFFFF SWAP3 SWAP1 SWAP3 AND SWAP2 SWAP1 SWAP2 MUL PUSH32 0xFFFFFFFFFFFFFFFF00000000FFFFFFFFFFFFFFFFFFFFFFFFFFFFFFFFFFFFFFFF AND OR DUP3 SSTORE PUSH2 0x8C1 JUMP JUMPDEST PUSH2 0x86A DUP6 PUSH3 0x15180 PUSH2 0x2C78 JUMP JUMPDEST DUP3 SLOAD DUP4 SWAP1 PUSH1 0x1C SWAP1 PUSH2 0x8A2 SWAP1 DUP5 SWAP1 PUSH29 0x100000000000000000000000000000000000000000000000000000000 SWAP1 DIV PUSH4 0xFFFFFFFF AND PUSH2 0x2C98 JUMP JUMPDEST SWAP3 POP PUSH2 0x100 EXP DUP2 SLOAD DUP2 PUSH4 0xFFFFFFFF MUL NOT AND SWAP1 DUP4 PUSH4 0xFFFFFFFF AND MUL OR SWAP1 SSTORE POP JUMPDEST PUSH2 0x8CE DUP2 PUSH3 0x9E3400 PUSH2 0x2C98 JUMP JUMPDEST DUP3 SLOAD PUSH4 0xFFFFFFFF SWAP2 DUP3 AND PUSH29 0x100000000000000000000000000000000000000000000000000000000 SWAP1 SWAP2 DIV SWAP1 SWAP2 AND GT ISZERO PUSH2 0x970 JUMPI PUSH1 0x40 MLOAD PUSH3 0x461BCD PUSH1 0xE5 SHL DUP2 MSTORE PUSH1 0x20 PUSH1 0x4 DUP3 ADD MSTORE PUSH1 0x2A PUSH1 0x24 DUP3 ADD MSTORE PUSH32 0x546F74616C20737562736372697074696F6E2063616E206E6F74206578636565 PUSH1 0x44 DUP3 ADD MSTORE PUSH32 0x6420313230206461797300000000000000000000000000000000000000000000 PUSH1 0x64 DUP3 ADD MSTORE PUSH1 0x84 ADD PUSH2 0x2C0 JUMP JUMPDEST PUSH1 0x0 SLOAD PUSH2 0x996 SWAP1 PUSH13 0x1000000000000000000000000 SWAP1 DIV PUSH4 0xFFFFFFFF AND PUSH3 0x15180 PUSH2 0x2C78 JUMP JUMPDEST DUP3 SLOAD PUSH2 0x9C8 SWAP2 SWAP1 PUSH29 0x100000000000000000000000000000000000000000000000000000000 SWAP1 DIV PUSH4 0xFFFFFFFF AND PUSH2 0x2C98 JUMP JUMPDEST DUP3 SLOAD PUSH32 0xFFFFFFFF00000000FFFFFFFFFFFFFFFFFFFFFFFFFFFFFFFFFFFFFFFFFFFFFFFF AND PUSH25 0x1000000000000000000000000000000000000000000000000 PUSH4 0xFFFFFFFF SWAP3 DUP4 AND MUL OR DUP4 SSTORE PUSH1 0x40 DUP1 MLOAD PUSH20 0xFFFFFFFFFFFFFFFFFFFFFFFFFFFFFFFFFFFFFFFF DUP10 AND DUP2 MSTORE SWAP2 DUP8 AND PUSH1 0x20 DUP4 ADD MSTORE PUSH32 0x3166E9F81AAEF1A4E6F43B85DB3916FDE6E3F485A575555E583C0A47DFC4D5E7 SWAP2 ADD PUSH1 0x40 MLOAD DUP1 SWAP2 SUB SWAP1 LOG1 PUSH1 0x1 SWAP4 POP POP POP POP JUMPDEST SWAP3 SWAP2 POP POP JUMP JUMPDEST PUSH1 0x0 CALLER PUSH20 0xFFFFFFFFFFFFFFFFFFFFFFFFFFFFFFFFFFFFFFFF AND PUSH20 0x163342FAE2BBE3303E5A9ADCE4BC9FB44D0FF062 PUSH20 0xFFFFFFFFFFFFFFFFFFFFFFFFFFFFFFFFFFFFFFFF AND PUSH4 0xB4A99A4E PUSH1 0x40 MLOAD DUP2 PUSH4 0xFFFFFFFF AND PUSH1 0xE0 SHL DUP2 MSTORE PUSH1 0x4 ADD PUSH1 0x20 PUSH1 0x40 MLOAD DUP1 DUP4 SUB DUP2 DUP7 GAS STATICCALL ISZERO DUP1 ISZERO PUSH2 0xAE8 JUMPI RETURNDATASIZE PUSH1 0x0 DUP1 RETURNDATACOPY RETURNDATASIZE PUSH1 0x0 REVERT JUMPDEST POP POP POP POP PUSH1 0x40 MLOAD RETURNDATASIZE PUSH1 0x1F NOT PUSH1 0x1F DUP3 ADD AND DUP3 ADD DUP1 PUSH1 0x40 MSTORE POP DUP2 ADD SWAP1 PUSH2 0xB0C SWAP2 SWAP1 PUSH2 0x2A8D JUMP JUMPDEST PUSH20 0xFFFFFFFFFFFFFFFFFFFFFFFFFFFFFFFFFFFFFFFF AND EQ PUSH2 0xB6F JUMPI PUSH1 0x40 MLOAD PUSH3 0x461BCD PUSH1 0xE5 SHL DUP2 MSTORE PUSH1 0x20 PUSH1 0x4 DUP3 ADD MSTORE PUSH1 0xA PUSH1 0x24 DUP3 ADD MSTORE PUSH32 0x4F776E6572206F6E6C7900000000000000000000000000000000000000000000 PUSH1 0x44 DUP3 ADD MSTORE PUSH1 0x64 ADD PUSH2 0x2C0 JUMP JUMPDEST DUP2 PUSH4 0xFFFFFFFF AND PUSH1 0x0 SUB PUSH2 0xBC5 JUMPI PUSH1 0x40 MLOAD PUSH3 0x461BCD PUSH1 0xE5 SHL DUP2 MSTORE PUSH1 0x20 PUSH1 0x4 DUP3 ADD MSTORE PUSH1 0x12 PUSH1 0x24 DUP3 ADD MSTORE PUSH32 0x5A65726F20737562736372697074696F6E730000000000000000000000000000 PUSH1 0x44 DUP3 ADD MSTORE PUSH1 0x64 ADD PUSH2 0x2C0 JUMP JUMPDEST POP PUSH1 0x0 DUP1 SLOAD PUSH32 0xFFFFFFFFFFFFFFFFFFFFFFFFFFFFFFFFFFFFFFFFFFFFFFFF00000000FFFFFFFF AND PUSH5 0x100000000 PUSH4 0xFFFFFFFF DUP5 AND MUL OR SWAP1 SSTORE PUSH1 0x1 JUMPDEST SWAP2 SWAP1 POP JUMP JUMPDEST PUSH1 0x0 CALLER PUSH20 0xFFFFFFFFFFFFFFFFFFFFFFFFFFFFFFFFFFFFFFFF AND PUSH20 0x163342FAE2BBE3303E5A9ADCE4BC9FB44D0FF062 PUSH20 0xFFFFFFFFFFFFFFFFFFFFFFFFFFFFFFFFFFFFFFFF AND PUSH4 0xB4A99A4E PUSH1 0x40 MLOAD DUP2 PUSH4 0xFFFFFFFF AND PUSH1 0xE0 SHL DUP2 MSTORE PUSH1 0x4 ADD PUSH1 0x20 PUSH1 0x40 MLOAD DUP1 DUP4 SUB DUP2 DUP7 GAS STATICCALL ISZERO DUP1 ISZERO PUSH2 0xC7D JUMPI RETURNDATASIZE PUSH1 0x0 DUP1 RETURNDATACOPY RETURNDATASIZE PUSH1 0x0 REVERT JUMPDEST POP POP POP POP PUSH1 0x40 MLOAD RETURNDATASIZE PUSH1 0x1F NOT PUSH1 0x1F DUP3 ADD AND DUP3 ADD DUP1 PUSH1 0x40 MSTORE POP DUP2 ADD SWAP1 PUSH2 0xCA1 SWAP2 SWAP1 PUSH2 0x2A8D JUMP JUMPDEST PUSH20 0xFFFFFFFFFFFFFFFFFFFFFFFFFFFFFFFFFFFFFFFF AND EQ PUSH2 0xD04 JUMPI PUSH1 0x40 MLOAD PUSH3 0x461BCD PUSH1 0xE5 SHL DUP2 MSTORE PUSH1 0x20 PUSH1 0x4 DUP3 ADD MSTORE PUSH1 0xA PUSH1 0x24 DUP3 ADD MSTORE PUSH32 0x4F776E6572206F6E6C7900000000000000000000000000000000000000000000 PUSH1 0x44 DUP3 ADD MSTORE PUSH1 0x64 ADD PUSH2 0x2C0 JUMP JUMPDEST DUP2 PUSH2 0xFFFF AND PUSH1 0x0 SUB PUSH2 0xD58 JUMPI PUSH1 0x40 MLOAD PUSH3 0x461BCD PUSH1 0xE5 SHL DUP2 MSTORE PUSH1 0x20 PUSH1 0x4 DUP3 ADD MSTORE PUSH1 0x8 PUSH1 0x24 DUP3 ADD MSTORE PUSH32 0x5A65726F20555344000000000000000000000000000000000000000000000000 PUSH1 0x44 DUP3 ADD MSTORE PUSH1 0x64 ADD PUSH2 0x2C0 JUMP JUMPDEST POP PUSH1 0x0 DUP1 SLOAD PUSH2 0xFFFF DUP4 AND PUSH17 0x100000000000000000000000000000000 MUL PUSH32 0xFFFFFFFFFFFFFFFFFFFFFFFFFFFF0000FFFFFFFFFFFFFFFFFFFFFFFFFFFFFFFF SWAP1 SWAP2 AND OR SWAP1 SSTORE PUSH1 0x1 SWAP2 SWAP1 POP JUMP JUMPDEST PUSH1 0x0 CALLER PUSH20 0xFFFFFFFFFFFFFFFFFFFFFFFFFFFFFFFFFFFFFFFF AND PUSH20 0x163342FAE2BBE3303E5A9ADCE4BC9FB44D0FF062 PUSH20 0xFFFFFFFFFFFFFFFFFFFFFFFFFFFFFFFFFFFFFFFF AND PUSH4 0xB4A99A4E PUSH1 0x40 MLOAD DUP2 PUSH4 0xFFFFFFFF AND PUSH1 0xE0 SHL DUP2 MSTORE PUSH1 0x4 ADD PUSH1 0x20 PUSH1 0x40 MLOAD DUP1 DUP4 SUB DUP2 DUP7 GAS STATICCALL ISZERO DUP1 ISZERO PUSH2 0xE1B JUMPI RETURNDATASIZE PUSH1 0x0 DUP1 RETURNDATACOPY RETURNDATASIZE PUSH1 0x0 REVERT JUMPDEST POP POP POP POP PUSH1 0x40 MLOAD RETURNDATASIZE PUSH1 0x1F NOT PUSH1 0x1F DUP3 ADD AND DUP3 ADD DUP1 PUSH1 0x40 MSTORE POP DUP2 ADD SWAP1 PUSH2 0xE3F SWAP2 SWAP1 PUSH2 0x2A8D JUMP JUMPDEST PUSH20 0xFFFFFFFFFFFFFFFFFFFFFFFFFFFFFFFFFFFFFFFF AND EQ PUSH2 0xEA2 JUMPI PUSH1 0x40 MLOAD PUSH3 0x461BCD PUSH1 0xE5 SHL DUP2 MSTORE PUSH1 0x20 PUSH1 0x4 DUP3 ADD MSTORE PUSH1 0xA PUSH1 0x24 DUP3 ADD MSTORE PUSH32 0x4F776E6572206F6E6C7900000000000000000000000000000000000000000000 PUSH1 0x44 DUP3 ADD MSTORE PUSH1 0x64 ADD PUSH2 0x2C0 JUMP JUMPDEST PUSH1 0x0 SLOAD DUP3 ISZERO ISZERO PUSH1 0xFF SWAP1 SWAP2 AND ISZERO ISZERO SUB PUSH2 0xF4E JUMPI DUP2 ISZERO ISZERO PUSH1 0x1 SUB PUSH2 0xF06 JUMPI PUSH1 0x40 MLOAD PUSH3 0x461BCD PUSH1 0xE5 SHL DUP2 MSTORE PUSH1 0x20 PUSH1 0x4 DUP3 ADD MSTORE PUSH1 0xF PUSH1 0x24 DUP3 ADD MSTORE PUSH32 0x416C726561647920616C6C6F7765640000000000000000000000000000000000 PUSH1 0x44 DUP3 ADD MSTORE PUSH1 0x64 ADD PUSH2 0x2C0 JUMP JUMPDEST PUSH1 0x40 MLOAD PUSH3 0x461BCD PUSH1 0xE5 SHL DUP2 MSTORE PUSH1 0x20 PUSH1 0x4 DUP3 ADD MSTORE PUSH1 0x12 PUSH1 0x24 DUP3 ADD MSTORE PUSH32 0x416C726561647920646973616C6C6F7765640000000000000000000000000000 PUSH1 0x44 DUP3 ADD MSTORE PUSH1 0x64 ADD PUSH2 0x2C0 JUMP JUMPDEST POP PUSH1 0x0 DUP1 SLOAD PUSH32 0xFFFFFFFFFFFFFFFFFFFFFFFFFFFFFFFFFFFFFFFFFFFFFFFFFFFFFFFFFFFFFF00 AND SWAP2 ISZERO ISZERO SWAP2 SWAP1 SWAP2 OR SWAP1 SSTORE PUSH1 0x1 SWAP1 JUMP JUMPDEST PUSH1 0x0 CALLER PUSH20 0xFFFFFFFFFFFFFFFFFFFFFFFFFFFFFFFFFFFFFFFF AND PUSH20 0x163342FAE2BBE3303E5A9ADCE4BC9FB44D0FF062 PUSH20 0xFFFFFFFFFFFFFFFFFFFFFFFFFFFFFFFFFFFFFFFF AND PUSH4 0xB4A99A4E PUSH1 0x40 MLOAD DUP2 PUSH4 0xFFFFFFFF AND PUSH1 0xE0 SHL DUP2 MSTORE PUSH1 0x4 ADD PUSH1 0x20 PUSH1 0x40 MLOAD DUP1 DUP4 SUB DUP2 DUP7 GAS STATICCALL ISZERO DUP1 ISZERO PUSH2 0xFFB JUMPI RETURNDATASIZE PUSH1 0x0 DUP1 RETURNDATACOPY RETURNDATASIZE PUSH1 0x0 REVERT JUMPDEST POP POP POP POP PUSH1 0x40 MLOAD RETURNDATASIZE PUSH1 0x1F NOT PUSH1 0x1F DUP3 ADD AND DUP3 ADD DUP1 PUSH1 0x40 MSTORE POP DUP2 ADD SWAP1 PUSH2 0x101F SWAP2 SWAP1 PUSH2 0x2A8D JUMP JUMPDEST PUSH20 0xFFFFFFFFFFFFFFFFFFFFFFFFFFFFFFFFFFFFFFFF AND EQ PUSH2 0x1082 JUMPI PUSH1 0x40 MLOAD PUSH3 0x461BCD PUSH1 0xE5 SHL DUP2 MSTORE PUSH1 0x20 PUSH1 0x4 DUP3 ADD MSTORE PUSH1 0xA PUSH1 0x24 DUP3 ADD MSTORE PUSH32 0x4F776E6572206F6E6C7900000000000000000000000000000000000000000000 PUSH1 0x44 DUP3 ADD MSTORE PUSH1 0x64 ADD PUSH2 0x2C0 JUMP JUMPDEST DUP2 PUSH4 0xFFFFFFFF AND PUSH1 0x0 SUB PUSH2 0x10D8 JUMPI PUSH1 0x40 MLOAD PUSH3 0x461BCD PUSH1 0xE5 SHL DUP2 MSTORE PUSH1 0x20 PUSH1 0x4 DUP3 ADD MSTORE PUSH1 0x9 PUSH1 0x24 DUP3 ADD MSTORE PUSH32 0x5A65726F20646179730000000000000000000000000000000000000000000000 PUSH1 0x44 DUP3 ADD MSTORE PUSH1 0x64 ADD PUSH2 0x2C0 JUMP JUMPDEST POP PUSH1 0x0 DUP1 SLOAD PUSH4 0xFFFFFFFF DUP4 AND PUSH13 0x1000000000000000000000000 MUL PUSH32 0xFFFFFFFFFFFFFFFFFFFFFFFFFFFFFFFF00000000FFFFFFFFFFFFFFFFFFFFFFFF SWAP1 SWAP2 AND OR SWAP1 SSTORE PUSH1 0x1 SWAP2 SWAP1 POP JUMP JUMPDEST PUSH1 0x0 DUP1 SLOAD PUSH2 0x100 SWAP1 DIV PUSH1 0xFF AND ISZERO ISZERO PUSH1 0x1 SUB PUSH2 0x117E JUMPI PUSH1 0x40 MLOAD PUSH3 0x461BCD PUSH1 0xE5 SHL DUP2 MSTORE PUSH1 0x20 PUSH1 0x4 DUP3 ADD MSTORE PUSH1 0x11 PUSH1 0x24 DUP3 ADD MSTORE PUSH32 0x5265656E7472616E6365206661696C6564000000000000000000000000000000 PUSH1 0x44 DUP3 ADD MSTORE PUSH1 0x64 ADD PUSH2 0x2C0 JUMP JUMPDEST PUSH1 0x0 DUP1 SLOAD PUSH32 0xFFFFFFFFFFFFFFFFFFFFFFFFFFFFFFFFFFFFFFFFFFFFFFFFFFFFFFFFFFFF00FF DUP2 AND PUSH2 0x100 OR SWAP1 SWAP2 SSTORE PUSH1 0xFF AND ISZERO ISZERO PUSH1 0x1 EQ PUSH2 0x1200 JUMPI PUSH1 0x40 MLOAD PUSH3 0x461BCD PUSH1 0xE5 SHL DUP2 MSTORE PUSH1 0x20 PUSH1 0x4 DUP3 ADD MSTORE PUSH1 0x14 PUSH1 0x24 DUP3 ADD MSTORE PUSH32 0x5375627363726962696E672064697361626C6564000000000000000000000000 PUSH1 0x44 DUP3 ADD MSTORE PUSH1 0x64 ADD PUSH2 0x2C0 JUMP JUMPDEST CALLVALUE PUSH1 0x0 SUB PUSH2 0x1250 JUMPI PUSH1 0x40 MLOAD PUSH3 0x461BCD PUSH1 0xE5 SHL DUP2 MSTORE PUSH1 0x20 PUSH1 0x4 DUP3 ADD MSTORE PUSH1 0x14 PUSH1 0x24 DUP3 ADD MSTORE PUSH32 0x4D4154494320616D6F756E74206973207A65726F000000000000000000000000 PUSH1 0x44 DUP3 ADD MSTORE PUSH1 0x64 ADD PUSH2 0x2C0 JUMP JUMPDEST CALLER DUP1 EXTCODESIZE SWAP1 PUSH4 0xFFFFFFFF DUP3 AND ISZERO PUSH2 0x12A8 JUMPI PUSH1 0x40 MLOAD PUSH3 0x461BCD PUSH1 0xE5 SHL DUP2 MSTORE PUSH1 0x20 PUSH1 0x4 DUP3 ADD MSTORE PUSH1 0x1B PUSH1 0x24 DUP3 ADD MSTORE PUSH32 0x436F6E7472616374732063616E206E6F74207375627363726962650000000000 PUSH1 0x44 DUP3 ADD MSTORE PUSH1 0x64 ADD PUSH2 0x2C0 JUMP JUMPDEST PUSH2 0x12B0 PUSH2 0x27BD JUMP JUMPDEST ISZERO ISZERO PUSH1 0x1 EQ PUSH2 0x1301 JUMPI PUSH1 0x40 MLOAD PUSH3 0x461BCD PUSH1 0xE5 SHL DUP2 MSTORE PUSH1 0x20 PUSH1 0x4 DUP3 ADD MSTORE PUSH1 0x1F PUSH1 0x24 DUP3 ADD MSTORE PUSH32 0x4D4154494320746F20555344204F7261636C6520756E617661696C61626C6500 PUSH1 0x44 DUP3 ADD MSTORE PUSH1 0x64 ADD PUSH2 0x2C0 JUMP JUMPDEST PUSH2 0x130A CALLVALUE PUSH2 0x29C7 JUMP JUMPDEST PUSH1 0x0 SLOAD PUSH4 0xFFFFFFFF SWAP2 SWAP1 SWAP2 AND SWAP1 PUSH2 0x132B SWAP1 PUSH3 0x10000 SWAP1 DIV PUSH2 0xFFFF AND DUP8 PUSH2 0x2C78 JUMP JUMPDEST PUSH4 0xFFFFFFFF AND GT ISZERO PUSH2 0x137F JUMPI PUSH1 0x40 MLOAD PUSH3 0x461BCD PUSH1 0xE5 SHL DUP2 MSTORE PUSH1 0x20 PUSH1 0x4 DUP3 ADD MSTORE PUSH1 0x19 PUSH1 0x24 DUP3 ADD MSTORE PUSH32 0x4D4154494320616D6F756E7420696E73756666696369656E7400000000000000 PUSH1 0x44 DUP3 ADD MSTORE PUSH1 0x64 ADD PUSH2 0x2C0 JUMP JUMPDEST PUSH20 0xFFFFFFFFFFFFFFFFFFFFFFFFFFFFFFFFFFFFFFFF DUP2 AND PUSH1 0x0 SWAP1 DUP2 MSTORE PUSH1 0x3 PUSH1 0x20 MSTORE PUSH1 0x40 SWAP1 KECCAK256 PUSH1 0x1 DUP2 ADD SLOAD PUSH4 0xFFFFFFFF AND ISZERO DUP1 ISZERO PUSH2 0x13E1 JUMPI POP DUP1 SLOAD PUSH29 0x100000000000000000000000000000000000000000000000000000000 SWAP1 DIV PUSH4 0xFFFFFFFF AND ISZERO JUMPDEST ISZERO PUSH2 0x15A8 JUMPI DUP5 PUSH20 0xFFFFFFFFFFFFFFFFFFFFFFFFFFFFFFFFFFFFFFFF AND DUP3 PUSH20 0xFFFFFFFFFFFFFFFFFFFFFFFFFFFFFFFFFFFFFFFF AND EQ ISZERO DUP1 ISZERO PUSH2 0x1437 JUMPI POP PUSH20 0xFFFFFFFFFFFFFFFFFFFFFFFFFFFFFFFFFFFFFFFF DUP6 AND ISZERO ISZERO JUMPDEST ISZERO PUSH2 0x152B JUMPI DUP5 EXTCODESIZE SWAP3 POP PUSH4 0xFFFFFFFF DUP4 AND ISZERO PUSH2 0x1494 JUMPI PUSH1 0x40 MLOAD PUSH3 0x461BCD PUSH1 0xE5 SHL DUP2 MSTORE PUSH1 0x20 PUSH1 0x4 DUP3 ADD MSTORE PUSH1 0x14 PUSH1 0x24 DUP3 ADD MSTORE PUSH32 0x526566657272657220697320636F6E7472616374000000000000000000000000 PUSH1 0x44 DUP3 ADD MSTORE PUSH1 0x64 ADD PUSH2 0x2C0 JUMP JUMPDEST PUSH20 0xFFFFFFFFFFFFFFFFFFFFFFFFFFFFFFFFFFFFFFFF DUP6 AND PUSH1 0x0 SWAP1 DUP2 MSTORE PUSH1 0x4 PUSH1 0x20 MSTORE PUSH1 0x40 DUP2 KECCAK256 DUP1 SLOAD PUSH4 0xFFFFFFFF AND SWAP2 PUSH2 0x14CB DUP4 PUSH2 0x2CBC JUMP JUMPDEST DUP3 SLOAD PUSH2 0x100 SWAP3 SWAP1 SWAP3 EXP PUSH4 0xFFFFFFFF DUP2 DUP2 MUL NOT SWAP1 SWAP4 AND SWAP2 SWAP1 SWAP3 AND SWAP2 SWAP1 SWAP2 MUL OR SWAP1 SSTORE POP DUP1 SLOAD PUSH32 0xFFFFFFFFFFFFFFFFFFFFFFFF0000000000000000000000000000000000000000 AND PUSH20 0xFFFFFFFFFFFFFFFFFFFFFFFFFFFFFFFFFFFFFFFF DUP7 AND OR DUP2 SSTORE JUMPDEST PUSH1 0xF DUP7 PUSH4 0xFFFFFFFF AND LT ISZERO PUSH2 0x15A8 JUMPI PUSH1 0x40 MLOAD PUSH3 0x461BCD PUSH1 0xE5 SHL DUP2 MSTORE PUSH1 0x20 PUSH1 0x4 DUP3 ADD MSTORE PUSH1 0x2D PUSH1 0x24 DUP3 ADD MSTORE PUSH32 0x466972737420737562736372697074696F6E2073686F756C6420626520617420 PUSH1 0x44 DUP3 ADD MSTORE PUSH32 0x6C65617374203135206461797300000000000000000000000000000000000000 PUSH1 0x64 DUP3 ADD MSTORE PUSH1 0x84 ADD PUSH2 0x2C0 JUMP JUMPDEST DUP1 SLOAD TIMESTAMP SWAP1 PUSH4 0xFFFFFFFF PUSH29 0x100000000000000000000000000000000000000000000000000000000 SWAP1 SWAP2 DIV DUP2 AND SWAP1 DUP3 AND GT ISZERO PUSH2 0x1669 JUMPI PUSH2 0x15EA DUP8 PUSH3 0x15180 PUSH2 0x2C78 JUMP JUMPDEST PUSH2 0x15F4 SWAP1 DUP3 PUSH2 0x2C98 JUMP JUMPDEST DUP3 SLOAD PUSH28 0xFFFFFFFF00000000FFFFFFFFFFFFFFFFFFFFFFFFFFFFFFFFFFFFFFFF AND PUSH29 0x100000000000000000000000000000000000000000000000000000000 PUSH4 0xFFFFFFFF SWAP3 SWAP1 SWAP3 AND SWAP2 SWAP1 SWAP2 MUL PUSH32 0xFFFFFFFFFFFFFFFF00000000FFFFFFFFFFFFFFFFFFFFFFFFFFFFFFFFFFFFFFFF AND OR DUP3 SSTORE PUSH2 0x16CD JUMP JUMPDEST PUSH2 0x1676 DUP8 PUSH3 0x15180 PUSH2 0x2C78 JUMP JUMPDEST DUP3 SLOAD DUP4 SWAP1 PUSH1 0x1C SWAP1 PUSH2 0x16AE SWAP1 DUP5 SWAP1 PUSH29 0x100000000000000000000000000000000000000000000000000000000 SWAP1 DIV PUSH4 0xFFFFFFFF AND PUSH2 0x2C98 JUMP JUMPDEST SWAP3 POP PUSH2 0x100 EXP DUP2 SLOAD DUP2 PUSH4 0xFFFFFFFF MUL NOT AND SWAP1 DUP4 PUSH4 0xFFFFFFFF AND MUL OR SWAP1 SSTORE POP JUMPDEST PUSH2 0x16DA DUP2 PUSH3 0x9E3400 PUSH2 0x2C98 JUMP JUMPDEST DUP3 SLOAD PUSH4 0xFFFFFFFF SWAP2 DUP3 AND PUSH29 0x100000000000000000000000000000000000000000000000000000000 SWAP1 SWAP2 DIV SWAP1 SWAP2 AND GT ISZERO PUSH2 0x177C JUMPI PUSH1 0x40 MLOAD PUSH3 0x461BCD PUSH1 0xE5 SHL DUP2 MSTORE PUSH1 0x20 PUSH1 0x4 DUP3 ADD MSTORE PUSH1 0x2A PUSH1 0x24 DUP3 ADD MSTORE PUSH32 0x546F74616C20737562736372697074696F6E2063616E206E6F74206578636565 PUSH1 0x44 DUP3 ADD MSTORE PUSH32 0x6420313230206461797300000000000000000000000000000000000000000000 PUSH1 0x64 DUP3 ADD MSTORE PUSH1 0x84 ADD PUSH2 0x2C0 JUMP JUMPDEST PUSH1 0x0 SLOAD PUSH2 0x17A2 SWAP1 PUSH13 0x1000000000000000000000000 SWAP1 DIV PUSH4 0xFFFFFFFF AND PUSH3 0x15180 PUSH2 0x2C78 JUMP JUMPDEST DUP3 SLOAD PUSH2 0x17D4 SWAP2 SWAP1 PUSH29 0x100000000000000000000000000000000000000000000000000000000 SWAP1 DIV PUSH4 0xFFFFFFFF AND PUSH2 0x2C98 JUMP JUMPDEST DUP3 SLOAD PUSH4 0xFFFFFFFF SWAP2 SWAP1 SWAP2 AND PUSH25 0x1000000000000000000000000000000000000000000000000 MUL PUSH32 0xFFFFFFFF00000000FFFFFFFFFFFFFFFFFFFFFFFFFFFFFFFFFFFFFFFFFFFFFFFF SWAP1 SWAP2 AND OR DUP3 SSTORE PUSH1 0x0 PUSH2 0x182C DUP9 PUSH2 0x2A13 JUMP JUMPDEST SWAP1 POP PUSH1 0x0 PUSH2 0x183A DUP3 CALLVALUE PUSH2 0x2CDF JUMP JUMPDEST DUP5 SLOAD SWAP1 SWAP2 POP PUSH20 0xFFFFFFFFFFFFFFFFFFFFFFFFFFFFFFFFFFFFFFFF AND ISZERO PUSH2 0x1925 JUMPI PUSH2 0x1865 PUSH1 0xA DUP4 PUSH2 0x2D21 JUMP JUMPDEST PUSH2 0x186F SWAP1 DUP3 PUSH2 0x2D35 JUMP JUMPDEST PUSH1 0x0 DUP1 SLOAD DUP7 SLOAD PUSH20 0xFFFFFFFFFFFFFFFFFFFFFFFFFFFFFFFFFFFFFFFF AND DUP3 MSTORE PUSH1 0x4 PUSH1 0x20 MSTORE PUSH1 0x40 SWAP1 SWAP2 KECCAK256 SLOAD SWAP2 SWAP3 POP PUSH4 0xFFFFFFFF PUSH5 0x100000000 SWAP1 SWAP2 DIV DUP2 AND SWAP2 AND LT PUSH2 0x1925 JUMPI DUP4 SLOAD PUSH20 0xFFFFFFFFFFFFFFFFFFFFFFFFFFFFFFFFFFFFFFFF AND PUSH1 0x64 PUSH2 0x18D6 DUP4 CALLVALUE PUSH2 0x2CDF JUMP JUMPDEST PUSH2 0x18E0 SWAP2 SWAP1 PUSH2 0x2D21 JUMP JUMPDEST PUSH1 0x40 MLOAD PUSH1 0x0 DUP2 DUP2 DUP2 DUP6 DUP8 GAS CALL SWAP3 POP POP POP RETURNDATASIZE DUP1 PUSH1 0x0 DUP2 EQ PUSH2 0x191C JUMPI PUSH1 0x40 MLOAD SWAP2 POP PUSH1 0x1F NOT PUSH1 0x3F RETURNDATASIZE ADD AND DUP3 ADD PUSH1 0x40 MSTORE RETURNDATASIZE DUP3 MSTORE RETURNDATASIZE PUSH1 0x0 PUSH1 0x20 DUP5 ADD RETURNDATACOPY PUSH2 0x1921 JUMP JUMPDEST PUSH1 0x60 SWAP2 POP JUMPDEST POP POP POP JUMPDEST DUP1 ISZERO PUSH2 0x198A JUMPI PUSH1 0x40 MLOAD PUSH20 0xFFFFFFFFFFFFFFFFFFFFFFFFFFFFFFFFFFFFFFFF DUP7 AND SWAP1 DUP3 SWAP1 PUSH1 0x0 DUP2 DUP2 DUP2 DUP6 DUP8 GAS CALL SWAP3 POP POP POP RETURNDATASIZE DUP1 PUSH1 0x0 DUP2 EQ PUSH2 0x1981 JUMPI PUSH1 0x40 MLOAD SWAP2 POP PUSH1 0x1F NOT PUSH1 0x3F RETURNDATASIZE ADD AND DUP3 ADD PUSH1 0x40 MSTORE RETURNDATASIZE DUP3 MSTORE RETURNDATASIZE PUSH1 0x0 PUSH1 0x20 DUP5 ADD RETURNDATACOPY PUSH2 0x1986 JUMP JUMPDEST PUSH1 0x60 SWAP2 POP JUMPDEST POP POP POP JUMPDEST PUSH1 0x40 MLOAD PUSH32 0xC75FFD8600000000000000000000000000000000000000000000000000000000 DUP2 MSTORE PUSH1 0x20 PUSH1 0x4 DUP3 ADD MSTORE PUSH1 0x12 PUSH1 0x24 DUP3 ADD MSTORE PUSH32 0x2E436F72706F726174696F6E2E5661756C740000000000000000000000000000 PUSH1 0x44 DUP3 ADD MSTORE PUSH20 0x163342FAE2BBE3303E5A9ADCE4BC9FB44D0FF062 SWAP1 PUSH4 0xC75FFD86 SWAP1 PUSH1 0x64 ADD PUSH1 0x20 PUSH1 0x40 MLOAD DUP1 DUP4 SUB DUP2 DUP7 GAS STATICCALL ISZERO DUP1 ISZERO PUSH2 0x1A20 JUMPI RETURNDATASIZE PUSH1 0x0 DUP1 RETURNDATACOPY RETURNDATASIZE PUSH1 0x0 REVERT JUMPDEST POP POP POP POP PUSH1 0x40 MLOAD RETURNDATASIZE PUSH1 0x1F NOT PUSH1 0x1F DUP3 ADD AND DUP3 ADD DUP1 PUSH1 0x40 MSTORE POP DUP2 ADD SWAP1 PUSH2 0x1A44 SWAP2 SWAP1 PUSH2 0x2A8D JUMP JUMPDEST PUSH20 0xFFFFFFFFFFFFFFFFFFFFFFFFFFFFFFFFFFFFFFFF AND SELFBALANCE PUSH1 0x40 MLOAD PUSH1 0x0 PUSH1 0x40 MLOAD DUP1 DUP4 SUB DUP2 DUP6 DUP8 GAS CALL SWAP3 POP POP POP RETURNDATASIZE DUP1 PUSH1 0x0 DUP2 EQ PUSH2 0x1A9B JUMPI PUSH1 0x40 MLOAD SWAP2 POP PUSH1 0x1F NOT PUSH1 0x3F RETURNDATASIZE ADD AND DUP3 ADD PUSH1 0x40 MSTORE RETURNDATASIZE DUP3 MSTORE RETURNDATASIZE PUSH1 0x0 PUSH1 0x20 DUP5 ADD RETURNDATACOPY PUSH2 0x1AA0 JUMP JUMPDEST PUSH1 0x60 SWAP2 POP JUMPDEST POP POP PUSH1 0x0 DUP1 SLOAD PUSH32 0xFFFFFFFFFFFFFFFFFFFFFFFFFFFFFFFFFFFFFFFFFFFFFFFFFFFFFFFFFFFF00FF AND SWAP1 SSTORE POP PUSH1 0x40 DUP1 MLOAD PUSH20 0xFFFFFFFFFFFFFFFFFFFFFFFFFFFFFFFFFFFFFFFF DUP8 AND DUP2 MSTORE PUSH4 0xFFFFFFFF DUP12 AND PUSH1 0x20 DUP3 ADD MSTORE PUSH32 0x427F72B0A0AA45072E2B291B62327B82B019EEBF02629F3D1551B1618F97739B SWAP2 ADD PUSH1 0x40 MLOAD DUP1 SWAP2 SUB SWAP1 LOG1 POP PUSH1 0x1 SWAP9 SWAP8 POP POP POP POP POP POP POP POP JUMP JUMPDEST PUSH1 0x0 CALLER PUSH20 0xFFFFFFFFFFFFFFFFFFFFFFFFFFFFFFFFFFFFFFFF AND PUSH20 0x163342FAE2BBE3303E5A9ADCE4BC9FB44D0FF062 PUSH20 0xFFFFFFFFFFFFFFFFFFFFFFFFFFFFFFFFFFFFFFFF AND PUSH4 0xB4A99A4E PUSH1 0x40 MLOAD DUP2 PUSH4 0xFFFFFFFF AND PUSH1 0xE0 SHL DUP2 MSTORE PUSH1 0x4 ADD PUSH1 0x20 PUSH1 0x40 MLOAD DUP1 DUP4 SUB DUP2 DUP7 GAS STATICCALL ISZERO DUP1 ISZERO PUSH2 0x1BA6 JUMPI RETURNDATASIZE PUSH1 0x0 DUP1 RETURNDATACOPY RETURNDATASIZE PUSH1 0x0 REVERT JUMPDEST POP POP POP POP PUSH1 0x40 MLOAD RETURNDATASIZE PUSH1 0x1F NOT PUSH1 0x1F DUP3 ADD AND DUP3 ADD DUP1 PUSH1 0x40 MSTORE POP DUP2 ADD SWAP1 PUSH2 0x1BCA SWAP2 SWAP1 PUSH2 0x2A8D JUMP JUMPDEST PUSH20 0xFFFFFFFFFFFFFFFFFFFFFFFFFFFFFFFFFFFFFFFF AND EQ PUSH2 0x1C2D JUMPI PUSH1 0x40 MLOAD PUSH3 0x461BCD PUSH1 0xE5 SHL DUP2 MSTORE PUSH1 0x20 PUSH1 0x4 DUP3 ADD MSTORE PUSH1 0xA PUSH1 0x24 DUP3 ADD MSTORE PUSH32 0x4F776E6572206F6E6C7900000000000000000000000000000000000000000000 PUSH1 0x44 DUP3 ADD MSTORE PUSH1 0x64 ADD PUSH2 0x2C0 JUMP JUMPDEST DUP2 PUSH2 0xFFFF AND PUSH1 0x0 SUB PUSH2 0x1C81 JUMPI PUSH1 0x40 MLOAD PUSH3 0x461BCD PUSH1 0xE5 SHL DUP2 MSTORE PUSH1 0x20 PUSH1 0x4 DUP3 ADD MSTORE PUSH1 0x8 PUSH1 0x24 DUP3 ADD MSTORE PUSH32 0x5A65726F20555344000000000000000000000000000000000000000000000000 PUSH1 0x44 DUP3 ADD MSTORE PUSH1 0x64 ADD PUSH2 0x2C0 JUMP JUMPDEST POP PUSH1 0x0 DUP1 SLOAD PUSH2 0xFFFF DUP4 AND PUSH3 0x10000 MUL PUSH32 0xFFFFFFFFFFFFFFFFFFFFFFFFFFFFFFFFFFFFFFFFFFFFFFFFFFFFFFFF0000FFFF SWAP1 SWAP2 AND OR SWAP1 SSTORE PUSH1 0x1 SWAP2 SWAP1 POP JUMP JUMPDEST PUSH20 0xFFFFFFFFFFFFFFFFFFFFFFFFFFFFFFFFFFFFFFFF DUP1 DUP3 AND PUSH1 0x0 SWAP1 DUP2 MSTORE PUSH1 0x3 PUSH1 0x20 SWAP1 DUP2 MSTORE PUSH1 0x40 DUP1 DUP4 KECCAK256 DUP2 MLOAD PUSH1 0xA0 DUP2 ADD DUP4 MSTORE DUP2 SLOAD SWAP6 DUP7 AND DUP1 DUP3 MSTORE PUSH4 0xFFFFFFFF PUSH21 0x10000000000000000000000000000000000000000 DUP9 DIV DUP2 AND SWAP6 DUP4 ADD DUP7 SWAP1 MSTORE PUSH25 0x1000000000000000000000000000000000000000000000000 DUP9 DIV DUP2 AND SWAP5 DUP4 ADD DUP6 SWAP1 MSTORE PUSH29 0x100000000000000000000000000000000000000000000000000000000 SWAP1 SWAP8 DIV DUP8 AND PUSH1 0x60 DUP4 ADD DUP2 SWAP1 MSTORE PUSH1 0x1 SWAP1 SWAP4 ADD SLOAD DUP8 AND PUSH1 0x80 DUP4 ADD DUP2 SWAP1 MSTORE SWAP1 SWAP7 SWAP5 SWAP6 SWAP4 SWAP5 SWAP3 SWAP4 SWAP3 DUP4 SWAP3 SWAP1 TIMESTAMP SWAP1 DUP2 AND DUP7 LT ISZERO PUSH2 0x1D97 JUMPI PUSH1 0x0 PUSH2 0x1DAF JUMP JUMPDEST PUSH3 0x15180 PUSH2 0x1DA5 DUP3 DUP9 PUSH2 0x2D48 JUMP JUMPDEST PUSH2 0x1DAF SWAP2 SWAP1 PUSH2 0x2D65 JUMP JUMPDEST SWAP5 POP DUP1 PUSH4 0xFFFFFFFF AND DUP7 PUSH4 0xFFFFFFFF AND LT ISZERO PUSH2 0x1DCC JUMPI PUSH1 0x0 PUSH2 0x1DCF JUMP JUMPDEST PUSH1 0x1 JUMPDEST SWAP4 POP POP POP SWAP2 SWAP4 SWAP6 SWAP8 SWAP1 SWAP3 SWAP5 SWAP7 POP JUMP JUMPDEST PUSH1 0x40 MLOAD PUSH32 0xC75FFD8600000000000000000000000000000000000000000000000000000000 DUP2 MSTORE PUSH1 0x20 PUSH1 0x4 DUP3 ADD MSTORE PUSH1 0x12 PUSH1 0x24 DUP3 ADD MSTORE PUSH32 0x2E5061796D656E742E50726F636573736F720000000000000000000000000000 PUSH1 0x44 DUP3 ADD MSTORE PUSH1 0x0 SWAP1 CALLER SWAP1 PUSH20 0x163342FAE2BBE3303E5A9ADCE4BC9FB44D0FF062 SWAP1 PUSH4 0xC75FFD86 SWAP1 PUSH1 0x64 ADD PUSH1 0x20 PUSH1 0x40 MLOAD DUP1 DUP4 SUB DUP2 DUP7 GAS STATICCALL ISZERO DUP1 ISZERO PUSH2 0x1E79 JUMPI RETURNDATASIZE PUSH1 0x0 DUP1 RETURNDATACOPY RETURNDATASIZE PUSH1 0x0 REVERT JUMPDEST POP POP POP POP PUSH1 0x40 MLOAD RETURNDATASIZE PUSH1 0x1F NOT PUSH1 0x1F DUP3 ADD AND DUP3 ADD DUP1 PUSH1 0x40 MSTORE POP DUP2 ADD SWAP1 PUSH2 0x1E9D SWAP2 SWAP1 PUSH2 0x2A8D JUMP JUMPDEST PUSH20 0xFFFFFFFFFFFFFFFFFFFFFFFFFFFFFFFFFFFFFFFF AND EQ PUSH2 0x1F00 JUMPI PUSH1 0x40 MLOAD PUSH3 0x461BCD PUSH1 0xE5 SHL DUP2 MSTORE PUSH1 0x20 PUSH1 0x4 DUP3 ADD MSTORE PUSH1 0xE PUSH1 0x24 DUP3 ADD MSTORE PUSH32 0x50726F636573736F72206F6E6C79000000000000000000000000000000000000 PUSH1 0x44 DUP3 ADD MSTORE PUSH1 0x64 ADD PUSH2 0x2C0 JUMP JUMPDEST PUSH20 0xFFFFFFFFFFFFFFFFFFFFFFFFFFFFFFFFFFFFFFFF DUP4 AND PUSH1 0x0 SWAP1 DUP2 MSTORE PUSH1 0x3 PUSH1 0x20 MSTORE PUSH1 0x40 SWAP1 KECCAK256 DUP1 SLOAD TIMESTAMP SWAP1 PUSH4 0xFFFFFFFF PUSH29 0x100000000000000000000000000000000000000000000000000000000 SWAP1 SWAP2 DIV DUP2 AND SWAP1 DUP3 AND GT PUSH2 0x206E JUMPI PUSH1 0x0 SLOAD PUSH2 0x1F7F SWAP1 PUSH13 0x1000000000000000000000000 SWAP1 DIV PUSH4 0xFFFFFFFF AND PUSH3 0x15180 PUSH2 0x2C78 JUMP JUMPDEST DUP3 SLOAD PUSH2 0x1FB1 SWAP2 SWAP1 PUSH29 0x100000000000000000000000000000000000000000000000000000000 SWAP1 DIV PUSH4 0xFFFFFFFF AND PUSH2 0x2C98 JUMP JUMPDEST DUP3 SLOAD PUSH32 0xFFFFFFFF00000000FFFFFFFFFFFFFFFFFFFFFFFFFFFFFFFFFFFFFFFFFFFFFFFF AND PUSH25 0x1000000000000000000000000000000000000000000000000 PUSH4 0xFFFFFFFF SWAP3 DUP4 AND MUL OR DUP1 DUP5 SSTORE PUSH21 0x10000000000000000000000000000000000000000 SWAP1 DIV AND DUP3 PUSH1 0x14 PUSH2 0x2021 DUP4 PUSH2 0x2CBC JUMP JUMPDEST SWAP2 SWAP1 PUSH2 0x100 EXP DUP2 SLOAD DUP2 PUSH4 0xFFFFFFFF MUL NOT AND SWAP1 DUP4 PUSH4 0xFFFFFFFF AND MUL OR SWAP1 SSTORE POP POP DUP1 DUP3 PUSH1 0x1 ADD PUSH1 0x0 PUSH2 0x100 EXP DUP2 SLOAD DUP2 PUSH4 0xFFFFFFFF MUL NOT AND SWAP1 DUP4 PUSH4 0xFFFFFFFF AND MUL OR SWAP1 SSTORE POP PUSH1 0x1 SWAP3 POP POP POP PUSH2 0xA6A JUMP JUMPDEST DUP2 SLOAD PUSH4 0xFFFFFFFF PUSH25 0x1000000000000000000000000000000000000000000000000 SWAP1 SWAP2 DIV DUP2 AND SWAP1 DUP3 AND GT ISZERO PUSH2 0x213E JUMPI PUSH1 0x0 SLOAD PUSH2 0x20C3 SWAP1 PUSH13 0x1000000000000000000000000 SWAP1 DIV PUSH4 0xFFFFFFFF AND PUSH3 0x15180 PUSH2 0x2C78 JUMP JUMPDEST PUSH2 0x20CD SWAP1 DUP3 PUSH2 0x2C98 JUMP JUMPDEST DUP3 SLOAD PUSH32 0xFFFFFFFF0000000000000000FFFFFFFFFFFFFFFFFFFFFFFFFFFFFFFFFFFFFFFF AND PUSH25 0x1000000000000000000000000000000000000000000000000 PUSH4 0xFFFFFFFF SWAP3 SWAP1 SWAP3 AND SWAP2 SWAP1 SWAP2 MUL PUSH32 0xFFFFFFFFFFFFFFFF00000000FFFFFFFFFFFFFFFFFFFFFFFFFFFFFFFFFFFFFFFF AND OR DUP3 SSTORE JUMPDEST PUSH1 0x0 SLOAD DUP3 SLOAD PUSH9 0x10000000000000000 SWAP1 SWAP2 DIV PUSH4 0xFFFFFFFF SWAP1 DUP2 AND PUSH21 0x10000000000000000000000000000000000000000 SWAP1 SWAP3 DIV AND LT ISZERO DUP1 PUSH2 0x217D JUMPI POP DUP4 ISZERO JUMPDEST ISZERO PUSH2 0x218D JUMPI PUSH1 0x0 SWAP3 POP POP POP PUSH2 0xA6A JUMP JUMPDEST PUSH2 0x2195 PUSH2 0x27BD JUMP JUMPDEST POP PUSH1 0x0 SLOAD PUSH17 0x100000000000000000000000000000000 SWAP1 DIV PUSH2 0xFFFF AND PUSH2 0x21BA DUP6 PUSH2 0x29C7 JUMP JUMPDEST PUSH4 0xFFFFFFFF AND LT PUSH2 0x21F1 JUMPI DUP2 SLOAD PUSH21 0x10000000000000000000000000000000000000000 SWAP1 DIV PUSH4 0xFFFFFFFF AND DUP3 PUSH1 0x14 PUSH2 0x2021 DUP4 PUSH2 0x2CBC JUMP JUMPDEST PUSH1 0x1 SWAP2 DUP3 ADD DUP1 SLOAD PUSH32 0xFFFFFFFFFFFFFFFFFFFFFFFFFFFFFFFFFFFFFFFFFFFFFFFFFFFFFFFF00000000 AND PUSH4 0xFFFFFFFF SWAP3 SWAP1 SWAP3 AND SWAP2 SWAP1 SWAP2 OR SWAP1 SSTORE SWAP1 POP PUSH2 0xA6A JUMP JUMPDEST POP POP SWAP3 SWAP2 POP POP JUMP JUMPDEST PUSH1 0x0 CALLER PUSH20 0xFFFFFFFFFFFFFFFFFFFFFFFFFFFFFFFFFFFFFFFF AND PUSH20 0x163342FAE2BBE3303E5A9ADCE4BC9FB44D0FF062 PUSH20 0xFFFFFFFFFFFFFFFFFFFFFFFFFFFFFFFFFFFFFFFF AND PUSH4 0xB4A99A4E PUSH1 0x40 MLOAD DUP2 PUSH4 0xFFFFFFFF AND PUSH1 0xE0 SHL DUP2 MSTORE PUSH1 0x4 ADD PUSH1 0x20 PUSH1 0x40 MLOAD DUP1 DUP4 SUB DUP2 DUP7 GAS STATICCALL ISZERO DUP1 ISZERO PUSH2 0x22B0 JUMPI RETURNDATASIZE PUSH1 0x0 DUP1 RETURNDATACOPY RETURNDATASIZE PUSH1 0x0 REVERT JUMPDEST POP POP POP POP PUSH1 0x40 MLOAD RETURNDATASIZE PUSH1 0x1F NOT PUSH1 0x1F DUP3 ADD AND DUP3 ADD DUP1 PUSH1 0x40 MSTORE POP DUP2 ADD SWAP1 PUSH2 0x22D4 SWAP2 SWAP1 PUSH2 0x2A8D JUMP JUMPDEST PUSH20 0xFFFFFFFFFFFFFFFFFFFFFFFFFFFFFFFFFFFFFFFF AND EQ PUSH2 0x2337 JUMPI PUSH1 0x40 MLOAD PUSH3 0x461BCD PUSH1 0xE5 SHL DUP2 MSTORE PUSH1 0x20 PUSH1 0x4 DUP3 ADD MSTORE PUSH1 0xA PUSH1 0x24 DUP3 ADD MSTORE PUSH32 0x4F776E6572206F6E6C7900000000000000000000000000000000000000000000 PUSH1 0x44 DUP3 ADD MSTORE PUSH1 0x64 ADD PUSH2 0x2C0 JUMP JUMPDEST DUP2 PUSH4 0xFFFFFFFF AND PUSH1 0x0 SUB PUSH2 0x238D JUMPI PUSH1 0x40 MLOAD PUSH3 0x461BCD PUSH1 0xE5 SHL DUP2 MSTORE PUSH1 0x20 PUSH1 0x4 DUP3 ADD MSTORE PUSH1 0x11 PUSH1 0x24 DUP3 ADD MSTORE PUSH32 0x5A65726F207472616E73616374696F6E73000000000000000000000000000000 PUSH1 0x44 DUP3 ADD MSTORE PUSH1 0x64 ADD PUSH2 0x2C0 JUMP JUMPDEST POP PUSH1 0x0 DUP1 SLOAD PUSH4 0xFFFFFFFF DUP4 AND PUSH9 0x10000000000000000 MUL PUSH32 0xFFFFFFFFFFFFFFFFFFFFFFFFFFFFFFFFFFFFFFFF00000000FFFFFFFFFFFFFFFF SWAP1 SWAP2 AND OR SWAP1 SSTORE PUSH1 0x1 SWAP2 SWAP1 POP JUMP JUMPDEST PUSH1 0x0 CALLER PUSH20 0xFFFFFFFFFFFFFFFFFFFFFFFFFFFFFFFFFFFFFFFF AND PUSH20 0x163342FAE2BBE3303E5A9ADCE4BC9FB44D0FF062 PUSH20 0xFFFFFFFFFFFFFFFFFFFFFFFFFFFFFFFFFFFFFFFF AND PUSH4 0xB4A99A4E PUSH1 0x40 MLOAD DUP2 PUSH4 0xFFFFFFFF AND PUSH1 0xE0 SHL DUP2 MSTORE PUSH1 0x4 ADD PUSH1 0x20 PUSH1 0x40 MLOAD DUP1 DUP4 SUB DUP2 DUP7 GAS STATICCALL ISZERO DUP1 ISZERO PUSH2 0x244A JUMPI RETURNDATASIZE PUSH1 0x0 DUP1 RETURNDATACOPY RETURNDATASIZE PUSH1 0x0 REVERT JUMPDEST POP POP POP POP PUSH1 0x40 MLOAD RETURNDATASIZE PUSH1 0x1F NOT PUSH1 0x1F DUP3 ADD AND DUP3 ADD DUP1 PUSH1 0x40 MSTORE POP DUP2 ADD SWAP1 PUSH2 0x246E SWAP2 SWAP1 PUSH2 0x2A8D JUMP JUMPDEST PUSH20 0xFFFFFFFFFFFFFFFFFFFFFFFFFFFFFFFFFFFFFFFF AND EQ PUSH2 0x24D1 JUMPI PUSH1 0x40 MLOAD PUSH3 0x461BCD PUSH1 0xE5 SHL DUP2 MSTORE PUSH1 0x20 PUSH1 0x4 DUP3 ADD MSTORE PUSH1 0xA PUSH1 0x24 DUP3 ADD MSTORE PUSH32 0x4F776E6572206F6E6C7900000000000000000000000000000000000000000000 PUSH1 0x44 DUP3 ADD MSTORE PUSH1 0x64 ADD PUSH2 0x2C0 JUMP JUMPDEST PUSH1 0x78 DUP3 PUSH4 0xFFFFFFFF AND GT ISZERO PUSH2 0x2528 JUMPI PUSH1 0x40 MLOAD PUSH3 0x461BCD PUSH1 0xE5 SHL DUP2 MSTORE PUSH1 0x20 PUSH1 0x4 DUP3 ADD MSTORE PUSH1 0xD PUSH1 0x24 DUP3 ADD MSTORE PUSH32 0x546F6F206D616E79206461797300000000000000000000000000000000000000 PUSH1 0x44 DUP3 ADD MSTORE PUSH1 0x64 ADD PUSH2 0x2C0 JUMP JUMPDEST PUSH20 0xFFFFFFFFFFFFFFFFFFFFFFFFFFFFFFFFFFFFFFFF DUP4 AND PUSH1 0x0 SWAP1 DUP2 MSTORE PUSH1 0x3 PUSH1 0x20 MSTORE PUSH1 0x40 SWAP1 KECCAK256 DUP1 SLOAD TIMESTAMP SWAP1 PUSH4 0xFFFFFFFF PUSH29 0x100000000000000000000000000000000000000000000000000000000 SWAP1 SWAP2 DIV DUP2 AND SWAP1 DUP3 AND GT ISZERO PUSH2 0x25CA JUMPI PUSH1 0x40 MLOAD PUSH3 0x461BCD PUSH1 0xE5 SHL DUP2 MSTORE PUSH1 0x20 PUSH1 0x4 DUP3 ADD MSTORE PUSH1 0x10 PUSH1 0x24 DUP3 ADD MSTORE PUSH32 0x4E6F742061207375627363726962657200000000000000000000000000000000 PUSH1 0x44 DUP3 ADD MSTORE PUSH1 0x64 ADD PUSH2 0x2C0 JUMP JUMPDEST PUSH2 0x25D7 DUP5 PUSH3 0x15180 PUSH2 0x2C78 JUMP JUMPDEST DUP3 SLOAD DUP4 SWAP1 PUSH1 0x1C SWAP1 PUSH2 0x260F SWAP1 DUP5 SWAP1 PUSH29 0x100000000000000000000000000000000000000000000000000000000 SWAP1 DIV PUSH4 0xFFFFFFFF AND PUSH2 0x2D48 JUMP JUMPDEST SWAP3 POP PUSH2 0x100 EXP DUP2 SLOAD DUP2 PUSH4 0xFFFFFFFF MUL NOT AND SWAP1 DUP4 PUSH4 0xFFFFFFFF AND MUL OR SWAP1 SSTORE POP DUP1 PUSH4 0xFFFFFFFF AND DUP3 PUSH1 0x0 ADD PUSH1 0x1C SWAP1 SLOAD SWAP1 PUSH2 0x100 EXP SWAP1 DIV PUSH4 0xFFFFFFFF AND PUSH4 0xFFFFFFFF AND GT PUSH2 0x26C0 JUMPI DUP2 SLOAD PUSH28 0xFFFFFFFF00000000FFFFFFFFFFFFFFFFFFFFFFFFFFFFFFFFFFFFFFFF AND PUSH29 0x100000000000000000000000000000000000000000000000000000000 PUSH4 0xFFFFFFFF DUP4 AND MUL PUSH32 0xFFFFFFFFFFFFFFFF00000000FFFFFFFFFFFFFFFFFFFFFFFFFFFFFFFFFFFFFFFF AND OR DUP3 SSTORE JUMPDEST PUSH1 0x0 SLOAD PUSH2 0x26E6 SWAP1 PUSH13 0x1000000000000000000000000 SWAP1 DIV PUSH4 0xFFFFFFFF AND PUSH3 0x15180 PUSH2 0x2C78 JUMP JUMPDEST DUP3 SLOAD PUSH2 0x2718 SWAP2 SWAP1 PUSH29 0x100000000000000000000000000000000000000000000000000000000 SWAP1 DIV PUSH4 0xFFFFFFFF AND PUSH2 0x2C98 JUMP JUMPDEST DUP3 SLOAD PUSH32 0xFFFFFFFF00000000FFFFFFFFFFFFFFFFFFFFFFFFFFFFFFFFFFFFFFFFFFFFFFFF AND PUSH25 0x1000000000000000000000000000000000000000000000000 PUSH4 0xFFFFFFFF SWAP3 DUP4 AND MUL OR DUP4 SSTORE PUSH1 0x40 DUP1 MLOAD PUSH20 0xFFFFFFFFFFFFFFFFFFFFFFFFFFFFFFFFFFFFFFFF DUP9 AND DUP2 MSTORE SWAP2 DUP7 AND PUSH1 0x20 DUP4 ADD MSTORE PUSH32 0x6DCC49443C6DADA3A53209E7A01826B847B563C60A1D311B2E9CDC8AB7AC323C SWAP2 ADD PUSH1 0x40 MLOAD DUP1 SWAP2 SUB SWAP1 LOG1 POP PUSH1 0x1 SWAP5 SWAP4 POP POP POP POP JUMP JUMPDEST PUSH1 0x40 MLOAD PUSH32 0xC75FFD8600000000000000000000000000000000000000000000000000000000 DUP2 MSTORE PUSH1 0x20 PUSH1 0x4 DUP3 ADD MSTORE PUSH1 0x13 PUSH1 0x24 DUP3 ADD MSTORE PUSH32 0x2E436F72706F726174696F6E2E4F7261636C6500000000000000000000000000 PUSH1 0x44 DUP3 ADD MSTORE PUSH1 0x0 SWAP1 DUP2 SWAP1 PUSH20 0x163342FAE2BBE3303E5A9ADCE4BC9FB44D0FF062 SWAP1 PUSH4 0xC75FFD86 SWAP1 PUSH1 0x64 ADD PUSH1 0x20 PUSH1 0x40 MLOAD DUP1 DUP4 SUB DUP2 DUP7 GAS STATICCALL ISZERO DUP1 ISZERO PUSH2 0x2858 JUMPI RETURNDATASIZE PUSH1 0x0 DUP1 RETURNDATACOPY RETURNDATASIZE PUSH1 0x0 REVERT JUMPDEST POP POP POP POP PUSH1 0x40 MLOAD RETURNDATASIZE PUSH1 0x1F NOT PUSH1 0x1F DUP3 ADD AND DUP3 ADD DUP1 PUSH1 0x40 MSTORE POP DUP2 ADD SWAP1 PUSH2 0x287C SWAP2 SWAP1 PUSH2 0x2A8D JUMP JUMPDEST SWAP1 POP PUSH1 0x0 DUP1 DUP3 PUSH20 0xFFFFFFFFFFFFFFFFFFFFFFFFFFFFFFFFFFFFFFFF AND PUSH4 0x16F0A386 PUSH1 0x40 MLOAD DUP2 PUSH4 0xFFFFFFFF AND PUSH1 0xE0 SHL DUP2 MSTORE PUSH1 0x4 ADD PUSH1 0x40 DUP1 MLOAD DUP1 DUP4 SUB DUP2 DUP7 GAS STATICCALL ISZERO DUP1 ISZERO PUSH2 0x28CB JUMPI RETURNDATASIZE PUSH1 0x0 DUP1 RETURNDATACOPY RETURNDATASIZE PUSH1 0x0 REVERT JUMPDEST POP POP POP POP PUSH1 0x40 MLOAD RETURNDATASIZE PUSH1 0x1F NOT PUSH1 0x1F DUP3 ADD AND DUP3 ADD DUP1 PUSH1 0x40 MSTORE POP DUP2 ADD SWAP1 PUSH2 0x28EF SWAP2 SWAP1 PUSH2 0x2D88 JUMP JUMPDEST SWAP2 POP SWAP2 POP PUSH1 0x0 DUP4 PUSH20 0xFFFFFFFFFFFFFFFFFFFFFFFFFFFFFFFFFFFFFFFF AND PUSH4 0xF9A4BBBE PUSH1 0x40 MLOAD DUP2 PUSH4 0xFFFFFFFF AND PUSH1 0xE0 SHL DUP2 MSTORE PUSH1 0x4 ADD PUSH1 0x20 PUSH1 0x40 MLOAD DUP1 DUP4 SUB DUP2 DUP7 GAS STATICCALL ISZERO DUP1 ISZERO PUSH2 0x2940 JUMPI RETURNDATASIZE PUSH1 0x0 DUP1 RETURNDATACOPY RETURNDATASIZE PUSH1 0x0 REVERT JUMPDEST POP POP POP POP PUSH1 0x40 MLOAD RETURNDATASIZE PUSH1 0x1F NOT PUSH1 0x1F DUP3 ADD AND DUP3 ADD DUP1 PUSH1 0x40 MSTORE POP DUP2 ADD SWAP1 PUSH2 0x2964 SWAP2 SWAP1 PUSH2 0x2DBD JUMP JUMPDEST SWAP1 POP PUSH1 0x1 DUP3 ISZERO ISZERO EQ DUP1 ISZERO PUSH2 0x2978 JUMPI POP PUSH1 0x0 DUP2 GT JUMPDEST ISZERO PUSH2 0x29BC JUMPI PUSH1 0x1 SWAP1 DUP2 SSTORE PUSH1 0x2 DUP1 SLOAD PUSH32 0xFFFFFFFFFFFFFFFFFFFFFFFFFFFFFFFFFFFFFFFFFFFFFFFFFFFFFFFFFFFFFF00 AND PUSH1 0xFF SWAP5 SWAP1 SWAP5 AND SWAP4 SWAP1 SWAP4 OR SWAP1 SWAP3 SSTORE POP SWAP3 SWAP2 POP POP JUMP JUMPDEST PUSH1 0x0 SWAP5 POP POP POP POP POP SWAP1 JUMP JUMPDEST PUSH1 0x2 SLOAD PUSH1 0x0 SWAP1 DUP2 SWAP1 PUSH2 0x29DD SWAP1 PUSH1 0xFF AND PUSH1 0x12 PUSH2 0x2DD6 JUMP JUMPDEST PUSH2 0x29E8 SWAP1 PUSH1 0xA PUSH2 0x2F0F JUMP JUMPDEST DUP4 PUSH1 0x1 SLOAD PUSH1 0x64 PUSH2 0x29F8 SWAP2 SWAP1 PUSH2 0x2F1E JUMP JUMPDEST PUSH2 0x2A02 SWAP2 SWAP1 PUSH2 0x2F1E JUMP JUMPDEST PUSH2 0x2A0C SWAP2 SWAP1 PUSH2 0x2D21 JUMP JUMPDEST SWAP4 SWAP3 POP POP POP JUMP JUMPDEST PUSH1 0x0 DUP1 PUSH1 0x1 SLOAD PUSH1 0x64 PUSH2 0x2A25 SWAP2 SWAP1 PUSH2 0x2F1E JUMP JUMPDEST PUSH1 0x2 SLOAD PUSH2 0x2A36 SWAP1 PUSH1 0xFF AND PUSH1 0x12 PUSH2 0x2DD6 JUMP JUMPDEST PUSH2 0x2A41 SWAP1 PUSH1 0xA PUSH2 0x2F0F JUMP JUMPDEST PUSH1 0x0 SLOAD PUSH2 0x2A58 SWAP1 PUSH3 0x10000 SWAP1 DIV PUSH2 0xFFFF AND DUP7 PUSH2 0x2C78 JUMP JUMPDEST PUSH4 0xFFFFFFFF AND PUSH2 0x2A02 SWAP2 SWAP1 PUSH2 0x2F1E JUMP JUMPDEST PUSH20 0xFFFFFFFFFFFFFFFFFFFFFFFFFFFFFFFFFFFFFFFF DUP2 AND DUP2 EQ PUSH2 0x2A8A JUMPI PUSH1 0x0 DUP1 REVERT JUMPDEST POP JUMP JUMPDEST PUSH1 0x0 PUSH1 0x20 DUP3 DUP5 SUB SLT ISZERO PUSH2 0x2A9F JUMPI PUSH1 0x0 DUP1 REVERT JUMPDEST DUP2 MLOAD PUSH2 0x2A0C DUP2 PUSH2 0x2A68 JUMP JUMPDEST DUP1 CALLDATALOAD PUSH4 0xFFFFFFFF DUP2 AND DUP2 EQ PUSH2 0xC00 JUMPI PUSH1 0x0 DUP1 REVERT JUMPDEST PUSH1 0x0 DUP1 PUSH1 0x40 DUP4 DUP6 SUB SLT ISZERO PUSH2 0x2AD1 JUMPI PUSH1 0x0 DUP1 REVERT JUMPDEST DUP3 CALLDATALOAD PUSH2 0x2ADC DUP2 PUSH2 0x2A68 JUMP JUMPDEST SWAP2 POP PUSH2 0x2AEA PUSH1 0x20 DUP5 ADD PUSH2 0x2AAA JUMP JUMPDEST SWAP1 POP SWAP3 POP SWAP3 SWAP1 POP JUMP JUMPDEST PUSH1 0x0 PUSH1 0x20 DUP3 DUP5 SUB SLT ISZERO PUSH2 0x2B05 JUMPI PUSH1 0x0 DUP1 REVERT JUMPDEST PUSH2 0x2A0C DUP3 PUSH2 0x2AAA JUMP JUMPDEST PUSH1 0x0 PUSH1 0x20 DUP3 DUP5 SUB SLT ISZERO PUSH2 0x2B20 JUMPI PUSH1 0x0 DUP1 REVERT JUMPDEST DUP2 CALLDATALOAD PUSH2 0xFFFF DUP2 AND DUP2 EQ PUSH2 0x2A0C JUMPI PUSH1 0x0 DUP1 REVERT JUMPDEST DUP1 ISZERO ISZERO DUP2 EQ PUSH2 0x2A8A JUMPI PUSH1 0x0 DUP1 REVERT JUMPDEST PUSH1 0x0 PUSH1 0x20 DUP3 DUP5 SUB SLT ISZERO PUSH2 0x2B52 JUMPI PUSH1 0x0 DUP1 REVERT JUMPDEST DUP2 CALLDATALOAD PUSH2 0x2A0C DUP2 PUSH2 0x2B32 JUMP JUMPDEST PUSH1 0x0 PUSH1 0x20 DUP1 DUP4 MSTORE DUP4 MLOAD DUP1 DUP3 DUP6 ADD MSTORE PUSH1 0x0 JUMPDEST DUP2 DUP2 LT ISZERO PUSH2 0x2B8A JUMPI DUP6 DUP2 ADD DUP4 ADD MLOAD DUP6 DUP3 ADD PUSH1 0x40 ADD MSTORE DUP3 ADD PUSH2 0x2B6E JUMP JUMPDEST POP PUSH1 0x0 PUSH1 0x40 DUP3 DUP7 ADD ADD MSTORE PUSH1 0x40 PUSH32 0xFFFFFFFFFFFFFFFFFFFFFFFFFFFFFFFFFFFFFFFFFFFFFFFFFFFFFFFFFFFFFFE0 PUSH1 0x1F DUP4 ADD AND DUP6 ADD ADD SWAP3 POP POP POP SWAP3 SWAP2 POP POP JUMP JUMPDEST PUSH1 0x0 DUP1 PUSH1 0x40 DUP4 DUP6 SUB SLT ISZERO PUSH2 0x2BDC JUMPI PUSH1 0x0 DUP1 REVERT JUMPDEST PUSH2 0x2BE5 DUP4 PUSH2 0x2AAA JUMP JUMPDEST SWAP2 POP PUSH1 0x20 DUP4 ADD CALLDATALOAD PUSH2 0x2BF5 DUP2 PUSH2 0x2A68 JUMP JUMPDEST DUP1 SWAP2 POP POP SWAP3 POP SWAP3 SWAP1 POP JUMP JUMPDEST PUSH1 0x0 PUSH1 0x20 DUP3 DUP5 SUB SLT ISZERO PUSH2 0x2C12 JUMPI PUSH1 0x0 DUP1 REVERT JUMPDEST DUP2 CALLDATALOAD PUSH2 0x2A0C DUP2 PUSH2 0x2A68 JUMP JUMPDEST PUSH1 0x0 DUP1 PUSH1 0x40 DUP4 DUP6 SUB SLT ISZERO PUSH2 0x2C30 JUMPI PUSH1 0x0 DUP1 REVERT JUMPDEST DUP3 CALLDATALOAD PUSH2 0x2C3B DUP2 PUSH2 0x2A68 JUMP JUMPDEST SWAP5 PUSH1 0x20 SWAP4 SWAP1 SWAP4 ADD CALLDATALOAD SWAP4 POP POP POP JUMP JUMPDEST PUSH32 0x4E487B7100000000000000000000000000000000000000000000000000000000 PUSH1 0x0 MSTORE PUSH1 0x11 PUSH1 0x4 MSTORE PUSH1 0x24 PUSH1 0x0 REVERT JUMPDEST PUSH4 0xFFFFFFFF DUP2 DUP2 AND DUP4 DUP3 AND MUL DUP1 DUP3 AND SWAP2 SWAP1 DUP3 DUP2 EQ PUSH2 0x2230 JUMPI PUSH2 0x2230 PUSH2 0x2C49 JUMP JUMPDEST PUSH4 0xFFFFFFFF DUP2 DUP2 AND DUP4 DUP3 AND ADD SWAP1 DUP1 DUP3 GT ISZERO PUSH2 0x2CB5 JUMPI PUSH2 0x2CB5 PUSH2 0x2C49 JUMP JUMPDEST POP SWAP3 SWAP2 POP POP JUMP JUMPDEST PUSH1 0x0 PUSH4 0xFFFFFFFF DUP1 DUP4 AND DUP2 DUP2 SUB PUSH2 0x2CD5 JUMPI PUSH2 0x2CD5 PUSH2 0x2C49 JUMP JUMPDEST PUSH1 0x1 ADD SWAP4 SWAP3 POP POP POP JUMP JUMPDEST DUP2 DUP2 SUB DUP2 DUP2 GT ISZERO PUSH2 0xA6A JUMPI PUSH2 0xA6A PUSH2 0x2C49 JUMP JUMPDEST PUSH32 0x4E487B7100000000000000000000000000000000000000000000000000000000 PUSH1 0x0 MSTORE PUSH1 0x12 PUSH1 0x4 MSTORE PUSH1 0x24 PUSH1 0x0 REVERT JUMPDEST PUSH1 0x0 DUP3 PUSH2 0x2D30 JUMPI PUSH2 0x2D30 PUSH2 0x2CF2 JUMP JUMPDEST POP DIV SWAP1 JUMP JUMPDEST DUP1 DUP3 ADD DUP1 DUP3 GT ISZERO PUSH2 0xA6A JUMPI PUSH2 0xA6A PUSH2 0x2C49 JUMP JUMPDEST PUSH4 0xFFFFFFFF DUP3 DUP2 AND DUP3 DUP3 AND SUB SWAP1 DUP1 DUP3 GT ISZERO PUSH2 0x2CB5 JUMPI PUSH2 0x2CB5 PUSH2 0x2C49 JUMP JUMPDEST PUSH1 0x0 PUSH4 0xFFFFFFFF DUP1 DUP5 AND DUP1 PUSH2 0x2D7C JUMPI PUSH2 0x2D7C PUSH2 0x2CF2 JUMP JUMPDEST SWAP3 AND SWAP2 SWAP1 SWAP2 DIV SWAP3 SWAP2 POP POP JUMP JUMPDEST PUSH1 0x0 DUP1 PUSH1 0x40 DUP4 DUP6 SUB SLT ISZERO PUSH2 0x2D9B JUMPI PUSH1 0x0 DUP1 REVERT JUMPDEST DUP3 MLOAD PUSH1 0xFF DUP2 AND DUP2 EQ PUSH2 0x2DAC JUMPI PUSH1 0x0 DUP1 REVERT JUMPDEST PUSH1 0x20 DUP5 ADD MLOAD SWAP1 SWAP3 POP PUSH2 0x2BF5 DUP2 PUSH2 0x2B32 JUMP JUMPDEST PUSH1 0x0 PUSH1 0x20 DUP3 DUP5 SUB SLT ISZERO PUSH2 0x2DCF JUMPI PUSH1 0x0 DUP1 REVERT JUMPDEST POP MLOAD SWAP2 SWAP1 POP JUMP JUMPDEST PUSH1 0xFF DUP2 DUP2 AND DUP4 DUP3 AND ADD SWAP1 DUP2 GT ISZERO PUSH2 0xA6A JUMPI PUSH2 0xA6A PUSH2 0x2C49 JUMP JUMPDEST PUSH1 0x1 DUP2 DUP2 JUMPDEST DUP1 DUP6 GT ISZERO PUSH2 0x2E48 JUMPI DUP2 PUSH32 0xFFFFFFFFFFFFFFFFFFFFFFFFFFFFFFFFFFFFFFFFFFFFFFFFFFFFFFFFFFFFFFFF DIV DUP3 GT ISZERO PUSH2 0x2E2E JUMPI PUSH2 0x2E2E PUSH2 0x2C49 JUMP JUMPDEST DUP1 DUP6 AND ISZERO PUSH2 0x2E3B JUMPI SWAP2 DUP2 MUL SWAP2 JUMPDEST SWAP4 DUP5 SHR SWAP4 SWAP1 DUP1 MUL SWAP1 PUSH2 0x2DF4 JUMP JUMPDEST POP SWAP3 POP SWAP3 SWAP1 POP JUMP JUMPDEST PUSH1 0x0 DUP3 PUSH2 0x2E5F JUMPI POP PUSH1 0x1 PUSH2 0xA6A JUMP JUMPDEST DUP2 PUSH2 0x2E6C JUMPI POP PUSH1 0x0 PUSH2 0xA6A JUMP JUMPDEST DUP2 PUSH1 0x1 DUP2 EQ PUSH2 0x2E82 JUMPI PUSH1 0x2 DUP2 EQ PUSH2 0x2E8C JUMPI PUSH2 0x2EA8 JUMP JUMPDEST PUSH1 0x1 SWAP2 POP POP PUSH2 0xA6A JUMP JUMPDEST PUSH1 0xFF DUP5 GT ISZERO PUSH2 0x2E9D JUMPI PUSH2 0x2E9D PUSH2 0x2C49 JUMP JUMPDEST POP POP PUSH1 0x1 DUP3 SHL PUSH2 0xA6A JUMP JUMPDEST POP PUSH1 0x20 DUP4 LT PUSH2 0x133 DUP4 LT AND PUSH1 0x4E DUP5 LT PUSH1 0xB DUP5 LT AND OR ISZERO PUSH2 0x2ECB JUMPI POP DUP2 DUP2 EXP PUSH2 0xA6A JUMP JUMPDEST PUSH2 0x2ED5 DUP4 DUP4 PUSH2 0x2DEF JUMP JUMPDEST DUP1 PUSH32 0xFFFFFFFFFFFFFFFFFFFFFFFFFFFFFFFFFFFFFFFFFFFFFFFFFFFFFFFFFFFFFFFF DIV DUP3 GT ISZERO PUSH2 0x2F07 JUMPI PUSH2 0x2F07 PUSH2 0x2C49 JUMP JUMPDEST MUL SWAP4 SWAP3 POP POP POP JUMP JUMPDEST PUSH1 0x0 PUSH2 0x2A0C PUSH1 0xFF DUP5 AND DUP4 PUSH2 0x2E50 JUMP JUMPDEST DUP1 DUP3 MUL DUP2 ISZERO DUP3 DUP3 DIV DUP5 EQ OR PUSH2 0xA6A JUMPI PUSH2 0xA6A PUSH2 0x2C49 JUMP INVALID LOG2 PUSH5 0x6970667358 0x22 SLT KECCAK256 NUMBER 0x4C PUSH8 0x802C647A23002619 0xED CALLDATACOPY 0xC2 SWAP11 PUSH6 0xBB24FEEAA8C8 CALL GASPRICE 0xE8 0xD5 DUP9 LOG0 0xE7 PUSH23 0x6AF464736F6C6343000813003300000000000000000000 "
				},
				"gasEstimates": {
					"creation": {
						"codeDepositCost": "2427800",
						"executionCost": "56070",
						"totalCost": "2483870"
					},
					"external": {
						"": "327",
						"AddToSubscription(address,uint32)": "infinite",
						"AllowProcessing(address,uint256)": "infinite",
						"GetAllowSubscribing()": "2361",
						"GetDaysPerSeason()": "2375",
						"GetMinimumUSDToCount()": "2407",
						"GetReferrerSubscriptions(address)": "2590",
						"GetSubscriptionCostPerDay()": "2374",
						"GetSubscriptionsToReward()": "2362",
						"GetTransactionsPerSeason()": "2385",
						"Name()": "infinite",
						"RemoveFromSubscription(address,uint32)": "infinite",
						"SetAllowSubscribing(bool)": "infinite",
						"SetDaysPerSeason(uint32)": "infinite",
						"SetMinimumUSDToCount(uint16)": "infinite",
						"SetSubscriptionCostPerDay(uint16)": "infinite",
						"SetSubscriptionsToReward(uint32)": "infinite",
						"SetTransactionsPerSeason(uint32)": "infinite",
						"Subscribe(uint32,address)": "infinite",
						"SubscriberProfile(address)": "5388"
					},
					"internal": {
						"_renewMATICPrice()": "infinite",
						"_trueAmount(uint32)": "infinite",
						"_usdAmount(uint256)": "infinite"
					}
				},
				"methodIdentifiers": {
					"AddToSubscription(address,uint32)": "0a7b9161",
					"AllowProcessing(address,uint256)": "da4f1677",
					"GetAllowSubscribing()": "38cc21d6",
					"GetDaysPerSeason()": "568e2da0",
					"GetMinimumUSDToCount()": "bc558577",
					"GetReferrerSubscriptions(address)": "b079f5fb",
					"GetSubscriptionCostPerDay()": "81323ce1",
					"GetSubscriptionsToReward()": "dda308b4",
					"GetTransactionsPerSeason()": "b74a8b1d",
					"Name()": "8052474d",
					"RemoveFromSubscription(address,uint32)": "f28bca6a",
					"SetAllowSubscribing(bool)": "50e038e1",
					"SetDaysPerSeason(uint32)": "86f90603",
					"SetMinimumUSDToCount(uint16)": "46842a81",
					"SetSubscriptionCostPerDay(uint16)": "b108b92b",
					"SetSubscriptionsToReward(uint32)": "38cc02e6",
					"SetTransactionsPerSeason(uint32)": "e31357ca",
					"Subscribe(uint32,address)": "8774fd67",
					"SubscriberProfile(address)": "d91f54cd"
				}
			},
			"storageLayout": {
				"storage": [
					{
						"astId": 54,
						"contract": "Payment/Subscribers.sol:Subscribers",
						"label": "allowSubscribing",
						"offset": 0,
						"slot": "0",
						"type": "t_bool"
					},
					{
						"astId": 57,
						"contract": "Payment/Subscribers.sol:Subscribers",
						"label": "reentrantLocked",
						"offset": 1,
						"slot": "0",
						"type": "t_bool"
					},
					{
						"astId": 63,
						"contract": "Payment/Subscribers.sol:Subscribers",
						"label": "subscriptionCostPerDay",
						"offset": 2,
						"slot": "0",
						"type": "t_uint16"
					},
					{
						"astId": 66,
						"contract": "Payment/Subscribers.sol:Subscribers",
						"label": "subscriptionsToReward",
						"offset": 4,
						"slot": "0",
						"type": "t_uint32"
					},
					{
						"astId": 69,
						"contract": "Payment/Subscribers.sol:Subscribers",
						"label": "transactionsPerSeason",
						"offset": 8,
						"slot": "0",
						"type": "t_uint32"
					},
					{
						"astId": 72,
						"contract": "Payment/Subscribers.sol:Subscribers",
						"label": "daysPerSeason",
						"offset": 12,
						"slot": "0",
						"type": "t_uint32"
					},
					{
						"astId": 75,
						"contract": "Payment/Subscribers.sol:Subscribers",
						"label": "minimumUSDToCount",
						"offset": 16,
						"slot": "0",
						"type": "t_uint16"
					},
					{
						"astId": 78,
						"contract": "Payment/Subscribers.sol:Subscribers",
						"label": "maticPrice",
						"offset": 0,
						"slot": "1",
						"type": "t_uint256"
					},
					{
						"astId": 81,
						"contract": "Payment/Subscribers.sol:Subscribers",
						"label": "maticDecimals",
						"offset": 0,
						"slot": "2",
						"type": "t_uint8"
					},
					{
						"astId": 100,
						"contract": "Payment/Subscribers.sol:Subscribers",
						"label": "subscribers",
						"offset": 0,
						"slot": "3",
						"type": "t_mapping(t_address,t_struct(Subscriber)95_storage)"
					},
					{
						"astId": 104,
						"contract": "Payment/Subscribers.sol:Subscribers",
						"label": "referrerSubscriptions",
						"offset": 0,
						"slot": "4",
						"type": "t_mapping(t_address,t_uint32)"
					}
				],
				"types": {
					"t_address": {
						"encoding": "inplace",
						"label": "address",
						"numberOfBytes": "20"
					},
					"t_bool": {
						"encoding": "inplace",
						"label": "bool",
						"numberOfBytes": "1"
					},
					"t_mapping(t_address,t_struct(Subscriber)95_storage)": {
						"encoding": "mapping",
						"key": "t_address",
						"label": "mapping(address => struct Subscribers.Subscriber)",
						"numberOfBytes": "32",
						"value": "t_struct(Subscriber)95_storage"
					},
					"t_mapping(t_address,t_uint32)": {
						"encoding": "mapping",
						"key": "t_address",
						"label": "mapping(address => uint32)",
						"numberOfBytes": "32",
						"value": "t_uint32"
					},
					"t_struct(Subscriber)95_storage": {
						"encoding": "inplace",
						"label": "struct Subscribers.Subscriber",
						"members": [
							{
								"astId": 86,
								"contract": "Payment/Subscribers.sol:Subscribers",
								"label": "referredBy",
								"offset": 0,
								"slot": "0",
								"type": "t_address"
							},
							{
								"astId": 88,
								"contract": "Payment/Subscribers.sol:Subscribers",
								"label": "transactionCount",
								"offset": 20,
								"slot": "0",
								"type": "t_uint32"
							},
							{
								"astId": 90,
								"contract": "Payment/Subscribers.sol:Subscribers",
								"label": "nextSeason",
								"offset": 24,
								"slot": "0",
								"type": "t_uint32"
							},
							{
								"astId": 92,
								"contract": "Payment/Subscribers.sol:Subscribers",
								"label": "subscribedUntil",
								"offset": 28,
								"slot": "0",
								"type": "t_uint32"
							},
							{
								"astId": 94,
								"contract": "Payment/Subscribers.sol:Subscribers",
								"label": "lastTransaction",
								"offset": 0,
								"slot": "1",
								"type": "t_uint32"
							}
						],
						"numberOfBytes": "64"
					},
					"t_uint16": {
						"encoding": "inplace",
						"label": "uint16",
						"numberOfBytes": "2"
					},
					"t_uint256": {
						"encoding": "inplace",
						"label": "uint256",
						"numberOfBytes": "32"
					},
					"t_uint32": {
						"encoding": "inplace",
						"label": "uint32",
						"numberOfBytes": "4"
					},
					"t_uint8": {
						"encoding": "inplace",
						"label": "uint8",
						"numberOfBytes": "1"
					}
				}
			},
			"userdoc": {
				"kind": "user",
				"methods": {},
				"version": 1
			}
		}
	}
}