{
	"Payment/Implementors.sol": {
		"Implementors": {
			"abi": [
				{
					"stateMutability": "nonpayable",
					"type": "fallback"
				},
				{
					"inputs": [
						{
							"internalType": "address",
							"name": "_implementor",
							"type": "address"
						}
					],
					"name": "GetEpochReward",
					"outputs": [
						{
							"internalType": "uint8",
							"name": "",
							"type": "uint8"
						}
					],
					"stateMutability": "nonpayable",
					"type": "function"
				},
				{
					"inputs": [
						{
							"internalType": "address",
							"name": "_implementor",
							"type": "address"
						}
					],
					"name": "GetImplementorProfile",
					"outputs": [
						{
							"internalType": "uint32",
							"name": "epochSales",
							"type": "uint32"
						},
						{
							"internalType": "uint32",
							"name": "epochEnd",
							"type": "uint32"
						},
						{
							"internalType": "uint8",
							"name": "epochReward",
							"type": "uint8"
						}
					],
					"stateMutability": "view",
					"type": "function"
				},
				{
					"inputs": [],
					"name": "Name",
					"outputs": [
						{
							"internalType": "string",
							"name": "",
							"type": "string"
						}
					],
					"stateMutability": "view",
					"type": "function"
				},
				{
					"stateMutability": "payable",
					"type": "receive"
				}
			],
			"devdoc": {
				"kind": "dev",
				"methods": {},
				"version": 1
			},
			"evm": {
				"assembly": "    /* \"Payment/Implementors.sol\":176:4018  contract Implementors{... */\n  mstore(0x40, 0x80)\n  callvalue\n  dup1\n  iszero\n  tag_1\n  jumpi\n  0x00\n  dup1\n  revert\ntag_1:\n  pop\n  dataSize(sub_0)\n  dup1\n  dataOffset(sub_0)\n  0x00\n  codecopy\n  0x00\n  return\nstop\n\nsub_0: assembly {\n        /* \"Payment/Implementors.sol\":176:4018  contract Implementors{... */\n      mstore(0x40, 0x80)\n      jumpi(tag_1, lt(calldatasize, 0x04))\n      shr(0xe0, calldataload(0x00))\n      dup1\n      0x6452c22d\n      eq\n      tag_3\n      jumpi\n      dup1\n      0x8052474d\n      eq\n      tag_4\n      jumpi\n      dup1\n      0x925849ad\n      eq\n      tag_5\n      jumpi\n      jump(tag_2)\n    tag_1:\n      jumpi(tag_2, calldatasize)\n        /* \"Payment/Implementors.sol\":3850:3859  msg.value */\n      callvalue\n        /* \"Payment/Implementors.sol\":3850:3863  msg.value > 0 */\n      iszero\n        /* \"Payment/Implementors.sol\":3847:3967  if(msg.value > 0)... */\n      tag_8\n      jumpi\n        /* \"Payment/Implementors.sol\":3894:3937  pt.GetContractAddress(\".Corporation.Vault\") */\n      mload(0x40)\n      0xc75ffd8600000000000000000000000000000000000000000000000000000000\n      dup2\n      mstore\n        /* \"#utility.yul\":216:218   */\n      0x20\n        /* \"Payment/Implementors.sol\":3894:3937  pt.GetContractAddress(\".Corporation.Vault\") */\n      0x04\n      dup3\n      add\n        /* \"#utility.yul\":198:219   */\n      mstore\n        /* \"#utility.yul\":255:257   */\n      0x12\n        /* \"#utility.yul\":235:253   */\n      0x24\n      dup3\n      add\n        /* \"#utility.yul\":228:258   */\n      mstore\n        /* \"#utility.yul\":294:314   */\n      0x2e436f72706f726174696f6e2e5661756c740000000000000000000000000000\n        /* \"#utility.yul\":274:292   */\n      0x44\n      dup3\n      add\n        /* \"#utility.yul\":267:315   */\n      mstore\n        /* \"Payment/Implementors.sol\":669:711  0xA00A1ED23A4cC11182db678a67FcdfB45fEe1FF8 */\n      0xa00a1ed23a4cc11182db678a67fcdfb45fee1ff8\n      swap1\n        /* \"Payment/Implementors.sol\":3894:3915  pt.GetContractAddress */\n      0xc75ffd86\n      swap1\n        /* \"#utility.yul\":332:350   */\n      0x64\n      add\n        /* \"Payment/Implementors.sol\":3894:3937  pt.GetContractAddress(\".Corporation.Vault\") */\n      0x20\n      mload(0x40)\n      dup1\n      dup4\n      sub\n      dup2\n      dup7\n      gas\n      staticcall\n      iszero\n      dup1\n      iszero\n      tag_12\n      jumpi\n      returndatasize\n      0x00\n      dup1\n      returndatacopy\n      revert(0x00, returndatasize)\n    tag_12:\n      pop\n      pop\n      pop\n      pop\n      mload(0x40)\n      returndatasize\n      not(0x1f)\n      0x1f\n      dup3\n      add\n      and\n      dup3\n      add\n      dup1\n      0x40\n      mstore\n      pop\n      dup2\n      add\n      swap1\n      tag_13\n      swap2\n      swap1\n      tag_14\n      jump\t// in\n    tag_13:\n        /* \"Payment/Implementors.sol\":3878:3944  payable(address(pt.GetContractAddress(\".Corporation.Vault\"))).call */\n      0xffffffffffffffffffffffffffffffffffffffff\n      and\n        /* \"Payment/Implementors.sol\":3953:3962  msg.value */\n      callvalue\n        /* \"Payment/Implementors.sol\":3878:3967  payable(address(pt.GetContractAddress(\".Corporation.Vault\"))).call{value : msg.value}(\"\") */\n      mload(0x40)\n      0x00\n      mload(0x40)\n      dup1\n      dup4\n      sub\n      dup2\n      dup6\n      dup8\n      gas\n      call\n      swap3\n      pop\n      pop\n      pop\n      returndatasize\n      dup1\n      0x00\n      dup2\n      eq\n      tag_19\n      jumpi\n      mload(0x40)\n      swap2\n      pop\n      and(add(returndatasize, 0x3f), not(0x1f))\n      dup3\n      add\n      0x40\n      mstore\n      returndatasize\n      dup3\n      mstore\n      returndatasize\n      0x00\n      0x20\n      dup5\n      add\n      returndatacopy\n      jump(tag_18)\n    tag_19:\n      0x60\n      swap2\n      pop\n    tag_18:\n      pop\n      pop\n      pop\n        /* \"Payment/Implementors.sol\":3847:3967  if(msg.value > 0)... */\n    tag_8:\n        /* \"Payment/Implementors.sol\":176:4018  contract Implementors{... */\n      stop\n    tag_2:\n      callvalue\n      dup1\n      iszero\n      tag_8\n      jumpi\n      0x00\n      dup1\n      revert\n        /* \"Payment/Implementors.sol\":2399:3706  function GetEpochReward(address _implementor) public returns(uint8){... */\n    tag_3:\n      callvalue\n      dup1\n      iszero\n      tag_23\n      jumpi\n      0x00\n      dup1\n      revert\n    tag_23:\n      pop\n      tag_24\n      tag_25\n      calldatasize\n      0x04\n      tag_26\n      jump\t// in\n    tag_25:\n      tag_27\n      jump\t// in\n    tag_24:\n      mload(0x40)\n        /* \"#utility.yul\":1410:1414   */\n      0xff\n        /* \"#utility.yul\":1398:1415   */\n      swap1\n      swap2\n      and\n        /* \"#utility.yul\":1380:1416   */\n      dup2\n      mstore\n        /* \"#utility.yul\":1368:1370   */\n      0x20\n        /* \"#utility.yul\":1353:1371   */\n      add\n        /* \"Payment/Implementors.sol\":2399:3706  function GetEpochReward(address _implementor) public returns(uint8){... */\n    tag_28:\n      mload(0x40)\n      dup1\n      swap2\n      sub\n      swap1\n      return\n        /* \"Payment/Implementors.sol\":985:1038  string constant public Name = \".Payment.Implementors\" */\n    tag_4:\n      callvalue\n      dup1\n      iszero\n      tag_30\n      jumpi\n      0x00\n      dup1\n      revert\n    tag_30:\n      pop\n      tag_31\n      mload(0x40)\n      dup1\n      0x40\n      add\n      0x40\n      mstore\n      dup1\n      0x15\n      dup2\n      mstore\n      0x20\n      add\n      0x2e5061796d656e742e496d706c656d656e746f72730000000000000000000000\n      dup2\n      mstore\n      pop\n      dup2\n      jump\n    tag_31:\n      mload(0x40)\n      tag_28\n      swap2\n      swap1\n      tag_34\n      jump\t// in\n        /* \"Payment/Implementors.sol\":1985:2297  function GetImplementorProfile(address _implementor) public view returns(uint32 epochSales, uint32 epochEnd, uint8 epochReward){... */\n    tag_5:\n      callvalue\n      dup1\n      iszero\n      tag_35\n      jumpi\n      0x00\n      dup1\n      revert\n    tag_35:\n      pop\n      tag_36\n      tag_37\n      calldatasize\n      0x04\n      tag_26\n      jump\t// in\n    tag_37:\n        /* \"Payment/Implementors.sol\":2150:2175  implementor[_implementor] */\n      0xffffffffffffffffffffffffffffffffffffffff\n      and\n        /* \"Payment/Implementors.sol\":2058:2075  uint32 epochSales */\n      0x00\n        /* \"Payment/Implementors.sol\":2150:2175  implementor[_implementor] */\n      swap1\n      dup2\n      mstore\n        /* \"Payment/Implementors.sol\":2150:2161  implementor */\n      0x02\n        /* \"Payment/Implementors.sol\":2150:2175  implementor[_implementor] */\n      0x20\n      swap1\n      dup2\n      mstore\n      0x40\n      swap2\n      dup3\n      swap1\n      keccak256\n        /* \"Payment/Implementors.sol\":2125:2175  Implementor memory imp = implementor[_implementor] */\n      dup3\n      mload\n      0x60\n      dup2\n      add\n      dup5\n      mstore\n      swap1\n      sload\n      0xffffffff\n      dup1\n      dup3\n      and\n      dup1\n      dup5\n      mstore\n      0x0100000000\n      dup4\n      div\n      swap1\n      swap2\n      and\n      swap4\n      dup4\n      add\n      dup5\n      swap1\n      mstore\n      0x010000000000000000\n      swap1\n      swap2\n      div\n      0xff\n      and\n      swap2\n      swap1\n      swap4\n      add\n      dup2\n      swap1\n      mstore\n      swap2\n      swap3\n      swap1\n      swap2\n      swap1\n        /* \"Payment/Implementors.sol\":1985:2297  function GetImplementorProfile(address _implementor) public view returns(uint32 epochSales, uint32 epochEnd, uint8 epochReward){... */\n      jump\n    tag_36:\n      0x40\n      dup1\n      mload\n        /* \"#utility.yul\":2243:2253   */\n      0xffffffff\n        /* \"#utility.yul\":2280:2295   */\n      swap5\n      dup6\n      and\n        /* \"#utility.yul\":2262:2296   */\n      dup2\n      mstore\n        /* \"#utility.yul\":2332:2347   */\n      swap4\n      swap1\n      swap3\n      and\n        /* \"#utility.yul\":2327:2329   */\n      0x20\n        /* \"#utility.yul\":2312:2330   */\n      dup5\n      add\n        /* \"#utility.yul\":2305:2348   */\n      mstore\n        /* \"#utility.yul\":2396:2400   */\n      0xff\n        /* \"#utility.yul\":2384:2401   */\n      and\n        /* \"#utility.yul\":2364:2382   */\n      swap1\n      dup3\n      add\n        /* \"#utility.yul\":2357:2402   */\n      mstore\n        /* \"#utility.yul\":2221:2223   */\n      0x60\n        /* \"#utility.yul\":2206:2224   */\n      add\n        /* \"Payment/Implementors.sol\":1985:2297  function GetImplementorProfile(address _implementor) public view returns(uint32 epochSales, uint32 epochEnd, uint8 epochReward){... */\n      tag_28\n        /* \"#utility.yul\":2039:2408   */\n      jump\n        /* \"Payment/Implementors.sol\":2399:3706  function GetEpochReward(address _implementor) public returns(uint8){... */\n    tag_27:\n        /* \"Payment/Implementors.sol\":2482:2526  pt.GetContractAddress(\".Payment.Proccessor\") */\n      mload(0x40)\n      0xc75ffd8600000000000000000000000000000000000000000000000000000000\n      dup2\n      mstore\n        /* \"#utility.yul\":2615:2617   */\n      0x20\n        /* \"Payment/Implementors.sol\":2482:2526  pt.GetContractAddress(\".Payment.Proccessor\") */\n      0x04\n      dup3\n      add\n        /* \"#utility.yul\":2597:2618   */\n      mstore\n        /* \"#utility.yul\":2654:2656   */\n      0x13\n        /* \"#utility.yul\":2634:2652   */\n      0x24\n      dup3\n      add\n        /* \"#utility.yul\":2627:2657   */\n      mstore\n        /* \"#utility.yul\":2693:2714   */\n      0x2e5061796d656e742e50726f63636573736f7200000000000000000000000000\n        /* \"#utility.yul\":2673:2691   */\n      0x44\n      dup3\n      add\n        /* \"#utility.yul\":2666:2715   */\n      mstore\n        /* \"Payment/Implementors.sol\":2460:2465  uint8 */\n      0x00\n      swap1\n        /* \"Payment/Implementors.sol\":2530:2540  msg.sender */\n      caller\n      swap1\n        /* \"Payment/Implementors.sol\":669:711  0xA00A1ED23A4cC11182db678a67FcdfB45fEe1FF8 */\n      0xa00a1ed23a4cc11182db678a67fcdfb45fee1ff8\n      swap1\n        /* \"Payment/Implementors.sol\":2482:2503  pt.GetContractAddress */\n      0xc75ffd86\n      swap1\n        /* \"#utility.yul\":2732:2750   */\n      0x64\n      add\n        /* \"Payment/Implementors.sol\":2482:2526  pt.GetContractAddress(\".Payment.Proccessor\") */\n      0x20\n      mload(0x40)\n      dup1\n      dup4\n      sub\n      dup2\n      dup7\n      gas\n      staticcall\n      iszero\n      dup1\n      iszero\n      tag_45\n      jumpi\n      returndatasize\n      0x00\n      dup1\n      returndatacopy\n      revert(0x00, returndatasize)\n    tag_45:\n      pop\n      pop\n      pop\n      pop\n      mload(0x40)\n      returndatasize\n      not(0x1f)\n      0x1f\n      dup3\n      add\n      and\n      dup3\n      add\n      dup1\n      0x40\n      mstore\n      pop\n      dup2\n      add\n      swap1\n      tag_46\n      swap2\n      swap1\n      tag_14\n      jump\t// in\n    tag_46:\n        /* \"Payment/Implementors.sol\":2482:2540  pt.GetContractAddress(\".Payment.Proccessor\") != msg.sender */\n      0xffffffffffffffffffffffffffffffffffffffff\n      and\n      eq\n        /* \"Payment/Implementors.sol\":2479:2580  if(pt.GetContractAddress(\".Payment.Proccessor\") != msg.sender)... */\n      tag_47\n      jumpi\n        /* \"Payment/Implementors.sol\":2555:2580  revert(\"Proccessor only\") */\n      mload(0x40)\n      0x08c379a000000000000000000000000000000000000000000000000000000000\n      dup2\n      mstore\n        /* \"#utility.yul\":2963:2965   */\n      0x20\n        /* \"Payment/Implementors.sol\":2555:2580  revert(\"Proccessor only\") */\n      0x04\n      dup3\n      add\n        /* \"#utility.yul\":2945:2966   */\n      mstore\n        /* \"#utility.yul\":3002:3004   */\n      0x0f\n        /* \"#utility.yul\":2982:3000   */\n      0x24\n      dup3\n      add\n        /* \"#utility.yul\":2975:3005   */\n      mstore\n        /* \"#utility.yul\":3041:3058   */\n      0x50726f63636573736f72206f6e6c790000000000000000000000000000000000\n        /* \"#utility.yul\":3021:3039   */\n      0x44\n      dup3\n      add\n        /* \"#utility.yul\":3014:3059   */\n      mstore\n        /* \"#utility.yul\":3076:3094   */\n      0x64\n      add\n        /* \"Payment/Implementors.sol\":2555:2580  revert(\"Proccessor only\") */\n      mload(0x40)\n      dup1\n      swap2\n      sub\n      swap1\n      revert\n        /* \"Payment/Implementors.sol\":2479:2580  if(pt.GetContractAddress(\".Payment.Proccessor\") != msg.sender)... */\n    tag_47:\n        /* \"Payment/Implementors.sol\":2619:2644  implementor[_implementor] */\n      0xffffffffffffffffffffffffffffffffffffffff\n      dup3\n      and\n        /* \"Payment/Implementors.sol\":2593:2616  Implementor storage imp */\n      0x00\n        /* \"Payment/Implementors.sol\":2619:2644  implementor[_implementor] */\n      swap1\n      dup2\n      mstore\n        /* \"Payment/Implementors.sol\":2619:2630  implementor */\n      0x02\n        /* \"Payment/Implementors.sol\":2619:2644  implementor[_implementor] */\n      0x20\n      mstore\n      0x40\n      swap1\n      keccak256\n        /* \"Payment/Implementors.sol\":2660:2672  imp.epochEnd */\n      dup1\n      sload\n        /* \"Payment/Implementors.sol\":2660:2698  imp.epochEnd < uint32(block.timestamp) */\n      0xffffffff\n        /* \"Payment/Implementors.sol\":2682:2697  block.timestamp */\n      timestamp\n        /* \"Payment/Implementors.sol\":2660:2698  imp.epochEnd < uint32(block.timestamp) */\n      dup2\n      and\n        /* \"Payment/Implementors.sol\":2660:2672  imp.epochEnd */\n      0x0100000000\n      swap1\n      swap3\n      div\n      and\n        /* \"Payment/Implementors.sol\":2660:2698  imp.epochEnd < uint32(block.timestamp) */\n      lt\n        /* \"Payment/Implementors.sol\":2657:3631  if(imp.epochEnd < uint32(block.timestamp)){... */\n      iszero\n      tag_50\n      jumpi\n        /* \"Payment/Implementors.sol\":2736:2750  imp.epochSales */\n      dup1\n      sload\n      0xffffffff\n      and\n        /* \"Payment/Implementors.sol\":2783:2788  24999 */\n      0x61a7\n        /* \"Payment/Implementors.sol\":2770:2788  epochSales > 24999 */\n      dup2\n      gt\n        /* \"Payment/Implementors.sol\":2767:3518  if(epochSales > 24999)... */\n      iszero\n      tag_51\n      jumpi\n        /* \"Payment/Implementors.sol\":2807:2828  imp.epochReward = 200 */\n      dup2\n      sload\n      0xffffffffffffffffffffffffffffffffffffffffffffff00ffffffffffffffff\n      and\n      0xc80000000000000000\n      or\n      dup3\n      sstore\n        /* \"Payment/Implementors.sol\":2767:3518  if(epochSales > 24999)... */\n      jump(tag_68)\n    tag_51:\n        /* \"Payment/Implementors.sol\":2864:2869  12499 */\n      0x30d3\n        /* \"Payment/Implementors.sol\":2851:2861  epochSales */\n      dup2\n        /* \"Payment/Implementors.sol\":2851:2869  epochSales > 12499 */\n      0xffffffff\n      and\n      gt\n        /* \"Payment/Implementors.sol\":2848:3518  if(epochSales > 12499)... */\n      iszero\n      tag_53\n      jumpi\n        /* \"Payment/Implementors.sol\":2888:2909  imp.epochReward = 150 */\n      dup2\n      sload\n      0xffffffffffffffffffffffffffffffffffffffffffffff00ffffffffffffffff\n      and\n      0x960000000000000000\n      or\n      dup3\n      sstore\n        /* \"Payment/Implementors.sol\":2848:3518  if(epochSales > 12499)... */\n      jump(tag_68)\n    tag_53:\n        /* \"Payment/Implementors.sol\":2945:2949  7499 */\n      0x1d4b\n        /* \"Payment/Implementors.sol\":2932:2942  epochSales */\n      dup2\n        /* \"Payment/Implementors.sol\":2932:2949  epochSales > 7499 */\n      0xffffffff\n      and\n      gt\n        /* \"Payment/Implementors.sol\":2929:3518  if(epochSales > 7499)... */\n      iszero\n      tag_55\n      jumpi\n        /* \"Payment/Implementors.sol\":2968:2989  imp.epochReward = 125 */\n      dup2\n      sload\n      0xffffffffffffffffffffffffffffffffffffffffffffff00ffffffffffffffff\n      and\n      0x7d0000000000000000\n      or\n      dup3\n      sstore\n        /* \"Payment/Implementors.sol\":2929:3518  if(epochSales > 7499)... */\n      jump(tag_68)\n    tag_55:\n        /* \"Payment/Implementors.sol\":3025:3029  4999 */\n      0x1387\n        /* \"Payment/Implementors.sol\":3012:3022  epochSales */\n      dup2\n        /* \"Payment/Implementors.sol\":3012:3029  epochSales > 4999 */\n      0xffffffff\n      and\n      gt\n        /* \"Payment/Implementors.sol\":3009:3518  if(epochSales > 4999)... */\n      iszero\n      tag_57\n      jumpi\n        /* \"Payment/Implementors.sol\":3048:3069  imp.epochReward = 100 */\n      dup2\n      sload\n      0xffffffffffffffffffffffffffffffffffffffffffffff00ffffffffffffffff\n      and\n      0x640000000000000000\n      or\n      dup3\n      sstore\n        /* \"Payment/Implementors.sol\":3009:3518  if(epochSales > 4999)... */\n      jump(tag_68)\n    tag_57:\n        /* \"Payment/Implementors.sol\":3105:3109  2499 */\n      0x09c3\n        /* \"Payment/Implementors.sol\":3092:3102  epochSales */\n      dup2\n        /* \"Payment/Implementors.sol\":3092:3109  epochSales > 2499 */\n      0xffffffff\n      and\n      gt\n        /* \"Payment/Implementors.sol\":3089:3518  if(epochSales > 2499)... */\n      iszero\n      tag_59\n      jumpi\n        /* \"Payment/Implementors.sol\":3128:3148  imp.epochReward = 80 */\n      dup2\n      sload\n      0xffffffffffffffffffffffffffffffffffffffffffffff00ffffffffffffffff\n      and\n      0x500000000000000000\n      or\n      dup3\n      sstore\n        /* \"Payment/Implementors.sol\":3089:3518  if(epochSales > 2499)... */\n      jump(tag_68)\n    tag_59:\n        /* \"Payment/Implementors.sol\":3184:3188  1499 */\n      0x05db\n        /* \"Payment/Implementors.sol\":3171:3181  epochSales */\n      dup2\n        /* \"Payment/Implementors.sol\":3171:3188  epochSales > 1499 */\n      0xffffffff\n      and\n      gt\n        /* \"Payment/Implementors.sol\":3168:3518  if(epochSales > 1499)... */\n      iszero\n      tag_61\n      jumpi\n        /* \"Payment/Implementors.sol\":3207:3227  imp.epochReward = 60 */\n      dup2\n      sload\n      0xffffffffffffffffffffffffffffffffffffffffffffff00ffffffffffffffff\n      and\n      0x3c0000000000000000\n      or\n      dup3\n      sstore\n        /* \"Payment/Implementors.sol\":3168:3518  if(epochSales > 1499)... */\n      jump(tag_68)\n    tag_61:\n        /* \"Payment/Implementors.sol\":3263:3266  999 */\n      0x03e7\n        /* \"Payment/Implementors.sol\":3250:3260  epochSales */\n      dup2\n        /* \"Payment/Implementors.sol\":3250:3266  epochSales > 999 */\n      0xffffffff\n      and\n      gt\n        /* \"Payment/Implementors.sol\":3247:3518  if(epochSales > 999)... */\n      iszero\n      tag_63\n      jumpi\n        /* \"Payment/Implementors.sol\":3285:3305  imp.epochReward = 50 */\n      dup2\n      sload\n      0xffffffffffffffffffffffffffffffffffffffffffffff00ffffffffffffffff\n      and\n      0x320000000000000000\n      or\n      dup3\n      sstore\n        /* \"Payment/Implementors.sol\":3247:3518  if(epochSales > 999)... */\n      jump(tag_68)\n    tag_63:\n        /* \"Payment/Implementors.sol\":3341:3344  499 */\n      0x01f3\n        /* \"Payment/Implementors.sol\":3328:3338  epochSales */\n      dup2\n        /* \"Payment/Implementors.sol\":3328:3344  epochSales > 499 */\n      0xffffffff\n      and\n      gt\n        /* \"Payment/Implementors.sol\":3325:3518  if(epochSales > 499)... */\n      iszero\n      tag_65\n      jumpi\n        /* \"Payment/Implementors.sol\":3363:3383  imp.epochReward = 40 */\n      dup2\n      sload\n      0xffffffffffffffffffffffffffffffffffffffffffffff00ffffffffffffffff\n      and\n      0x280000000000000000\n      or\n      dup3\n      sstore\n        /* \"Payment/Implementors.sol\":3325:3518  if(epochSales > 499)... */\n      jump(tag_68)\n    tag_65:\n        /* \"Payment/Implementors.sol\":3419:3422  249 */\n      0xf9\n        /* \"Payment/Implementors.sol\":3406:3416  epochSales */\n      dup2\n        /* \"Payment/Implementors.sol\":3406:3422  epochSales > 249 */\n      0xffffffff\n      and\n      gt\n        /* \"Payment/Implementors.sol\":3403:3518  if(epochSales > 249)... */\n      iszero\n      tag_67\n      jumpi\n        /* \"Payment/Implementors.sol\":3441:3461  imp.epochReward = 35 */\n      dup2\n      sload\n      0xffffffffffffffffffffffffffffffffffffffffffffff00ffffffffffffffff\n      and\n      0x230000000000000000\n      or\n      dup3\n      sstore\n        /* \"Payment/Implementors.sol\":3403:3518  if(epochSales > 249)... */\n      jump(tag_68)\n    tag_67:\n        /* \"Payment/Implementors.sol\":3498:3518  imp.epochReward = 30 */\n      dup2\n      sload\n      0xffffffffffffffffffffffffffffffffffffffffffffff00ffffffffffffffff\n      and\n      0x1e0000000000000000\n      or\n      dup3\n      sstore\n        /* \"Payment/Implementors.sol\":3403:3518  if(epochSales > 249)... */\n    tag_68:\n        /* \"Payment/Implementors.sol\":3535:3556  delete imp.epochSales */\n      dup2\n      sload\n      0xffffffffffffffffffffffffffffffffffffffffffffffffffffffff00000000\n      and\n      dup3\n      sstore\n        /* \"Payment/Implementors.sol\":3593:3618  block.timestamp + 15 days */\n      tag_69\n        /* \"Payment/Implementors.sol\":3593:3608  block.timestamp */\n      timestamp\n        /* \"Payment/Implementors.sol\":3611:3618  15 days */\n      0x13c680\n        /* \"Payment/Implementors.sol\":3593:3618  block.timestamp + 15 days */\n      tag_70\n      jump\t// in\n    tag_69:\n        /* \"Payment/Implementors.sol\":3571:3619  imp.epochEnd = uint32(block.timestamp + 15 days) */\n      dup3\n      sload\n      0xffffffff\n      swap2\n      swap1\n      swap2\n      and\n      0x0100000000\n      mul\n      0xffffffffffffffffffffffffffffffffffffffffffffffff00000000ffffffff\n      swap1\n      swap2\n      and\n      or\n      dup3\n      sstore\n      pop\n        /* \"Payment/Implementors.sol\":2657:3631  if(imp.epochEnd < uint32(block.timestamp)){... */\n    tag_50:\n        /* \"Payment/Implementors.sol\":3643:3662  imp.epochSales += 1 */\n      dup1\n      sload\n        /* \"Payment/Implementors.sol\":3661:3662  1 */\n      0x01\n      swap1\n        /* \"Payment/Implementors.sol\":3643:3646  imp */\n      dup3\n      swap1\n        /* \"Payment/Implementors.sol\":3643:3657  imp.epochSales */\n      0x00\n      swap1\n        /* \"Payment/Implementors.sol\":3643:3662  imp.epochSales += 1 */\n      tag_71\n      swap1\n        /* \"Payment/Implementors.sol\":3661:3662  1 */\n      dup5\n      swap1\n        /* \"Payment/Implementors.sol\":3643:3662  imp.epochSales += 1 */\n      0xffffffff\n      and\n      tag_72\n      jump\t// in\n    tag_71:\n      dup3\n      sload\n      0xffffffff\n      swap2\n      dup3\n      and\n      0x0100\n      swap4\n      swap1\n      swap4\n      exp\n      swap3\n      dup4\n      mul\n      swap2\n      swap1\n      swap3\n      mul\n      not\n      swap1\n      swap2\n      and\n      or\n      swap1\n      sstore\n      pop\n        /* \"Payment/Implementors.sol\":3682:3697  imp.epochReward */\n      sload\n      0xff\n      0x010000000000000000\n      swap1\n      swap2\n      div\n      and\n      swap3\n        /* \"Payment/Implementors.sol\":2399:3706  function GetEpochReward(address _implementor) public returns(uint8){... */\n      swap2\n      pop\n      pop\n      jump\t// out\n        /* \"#utility.yul\":361:515   */\n    tag_74:\n        /* \"#utility.yul\":447:489   */\n      0xffffffffffffffffffffffffffffffffffffffff\n        /* \"#utility.yul\":440:445   */\n      dup2\n        /* \"#utility.yul\":436:490   */\n      and\n        /* \"#utility.yul\":429:434   */\n      dup2\n        /* \"#utility.yul\":426:491   */\n      eq\n        /* \"#utility.yul\":416:509   */\n      tag_79\n      jumpi\n        /* \"#utility.yul\":505:506   */\n      0x00\n        /* \"#utility.yul\":502:503   */\n      dup1\n        /* \"#utility.yul\":495:507   */\n      revert\n        /* \"#utility.yul\":416:509   */\n    tag_79:\n        /* \"#utility.yul\":361:515   */\n      pop\n      jump\t// out\n        /* \"#utility.yul\":520:771   */\n    tag_14:\n        /* \"#utility.yul\":590:596   */\n      0x00\n        /* \"#utility.yul\":643:645   */\n      0x20\n        /* \"#utility.yul\":631:640   */\n      dup3\n        /* \"#utility.yul\":622:629   */\n      dup5\n        /* \"#utility.yul\":618:641   */\n      sub\n        /* \"#utility.yul\":614:646   */\n      slt\n        /* \"#utility.yul\":611:663   */\n      iszero\n      tag_81\n      jumpi\n        /* \"#utility.yul\":659:660   */\n      0x00\n        /* \"#utility.yul\":656:657   */\n      dup1\n        /* \"#utility.yul\":649:661   */\n      revert\n        /* \"#utility.yul\":611:663   */\n    tag_81:\n        /* \"#utility.yul\":691:700   */\n      dup2\n        /* \"#utility.yul\":685:701   */\n      mload\n        /* \"#utility.yul\":710:741   */\n      tag_82\n        /* \"#utility.yul\":735:740   */\n      dup2\n        /* \"#utility.yul\":710:741   */\n      tag_74\n      jump\t// in\n    tag_82:\n        /* \"#utility.yul\":760:765   */\n      swap4\n        /* \"#utility.yul\":520:771   */\n      swap3\n      pop\n      pop\n      pop\n      jump\t// out\n        /* \"#utility.yul\":986:1233   */\n    tag_26:\n        /* \"#utility.yul\":1045:1051   */\n      0x00\n        /* \"#utility.yul\":1098:1100   */\n      0x20\n        /* \"#utility.yul\":1086:1095   */\n      dup3\n        /* \"#utility.yul\":1077:1084   */\n      dup5\n        /* \"#utility.yul\":1073:1096   */\n      sub\n        /* \"#utility.yul\":1069:1101   */\n      slt\n        /* \"#utility.yul\":1066:1118   */\n      iszero\n      tag_85\n      jumpi\n        /* \"#utility.yul\":1114:1115   */\n      0x00\n        /* \"#utility.yul\":1111:1112   */\n      dup1\n        /* \"#utility.yul\":1104:1116   */\n      revert\n        /* \"#utility.yul\":1066:1118   */\n    tag_85:\n        /* \"#utility.yul\":1153:1162   */\n      dup2\n        /* \"#utility.yul\":1140:1163   */\n      calldataload\n        /* \"#utility.yul\":1172:1203   */\n      tag_82\n        /* \"#utility.yul\":1197:1202   */\n      dup2\n        /* \"#utility.yul\":1172:1203   */\n      tag_74\n      jump\t// in\n        /* \"#utility.yul\":1427:2034   */\n    tag_34:\n        /* \"#utility.yul\":1539:1543   */\n      0x00\n        /* \"#utility.yul\":1568:1570   */\n      0x20\n        /* \"#utility.yul\":1597:1599   */\n      dup1\n        /* \"#utility.yul\":1586:1595   */\n      dup4\n        /* \"#utility.yul\":1579:1600   */\n      mstore\n        /* \"#utility.yul\":1629:1635   */\n      dup4\n        /* \"#utility.yul\":1623:1636   */\n      mload\n        /* \"#utility.yul\":1672:1678   */\n      dup1\n        /* \"#utility.yul\":1667:1669   */\n      dup3\n        /* \"#utility.yul\":1656:1665   */\n      dup6\n        /* \"#utility.yul\":1652:1670   */\n      add\n        /* \"#utility.yul\":1645:1679   */\n      mstore\n        /* \"#utility.yul\":1697:1698   */\n      0x00\n        /* \"#utility.yul\":1707:1847   */\n    tag_89:\n        /* \"#utility.yul\":1721:1727   */\n      dup2\n        /* \"#utility.yul\":1718:1719   */\n      dup2\n        /* \"#utility.yul\":1715:1728   */\n      lt\n        /* \"#utility.yul\":1707:1847   */\n      iszero\n      tag_91\n      jumpi\n        /* \"#utility.yul\":1816:1830   */\n      dup6\n      dup2\n      add\n        /* \"#utility.yul\":1812:1835   */\n      dup4\n      add\n        /* \"#utility.yul\":1806:1836   */\n      mload\n        /* \"#utility.yul\":1782:1799   */\n      dup6\n      dup3\n      add\n        /* \"#utility.yul\":1801:1803   */\n      0x40\n        /* \"#utility.yul\":1778:1804   */\n      add\n        /* \"#utility.yul\":1771:1837   */\n      mstore\n        /* \"#utility.yul\":1736:1746   */\n      dup3\n      add\n        /* \"#utility.yul\":1707:1847   */\n      jump(tag_89)\n    tag_91:\n        /* \"#utility.yul\":1711:1714   */\n      pop\n        /* \"#utility.yul\":1896:1897   */\n      0x00\n        /* \"#utility.yul\":1891:1893   */\n      0x40\n        /* \"#utility.yul\":1882:1888   */\n      dup3\n        /* \"#utility.yul\":1871:1880   */\n      dup7\n        /* \"#utility.yul\":1867:1889   */\n      add\n        /* \"#utility.yul\":1863:1894   */\n      add\n        /* \"#utility.yul\":1856:1898   */\n      mstore\n        /* \"#utility.yul\":2025:2027   */\n      0x40\n        /* \"#utility.yul\":1955:2021   */\n      0xffffffffffffffffffffffffffffffffffffffffffffffffffffffffffffffe0\n        /* \"#utility.yul\":1950:1952   */\n      0x1f\n        /* \"#utility.yul\":1942:1948   */\n      dup4\n        /* \"#utility.yul\":1938:1953   */\n      add\n        /* \"#utility.yul\":1934:2022   */\n      and\n        /* \"#utility.yul\":1923:1932   */\n      dup6\n        /* \"#utility.yul\":1919:2023   */\n      add\n        /* \"#utility.yul\":1915:2028   */\n      add\n        /* \"#utility.yul\":1907:2028   */\n      swap3\n      pop\n      pop\n      pop\n        /* \"#utility.yul\":1427:2034   */\n      swap3\n      swap2\n      pop\n      pop\n      jump\t// out\n        /* \"#utility.yul\":3105:3289   */\n    tag_75:\n        /* \"#utility.yul\":3157:3234   */\n      0x4e487b7100000000000000000000000000000000000000000000000000000000\n        /* \"#utility.yul\":3154:3155   */\n      0x00\n        /* \"#utility.yul\":3147:3235   */\n      mstore\n        /* \"#utility.yul\":3254:3258   */\n      0x11\n        /* \"#utility.yul\":3251:3252   */\n      0x04\n        /* \"#utility.yul\":3244:3259   */\n      mstore\n        /* \"#utility.yul\":3278:3282   */\n      0x24\n        /* \"#utility.yul\":3275:3276   */\n      0x00\n        /* \"#utility.yul\":3268:3283   */\n      revert\n        /* \"#utility.yul\":3294:3419   */\n    tag_70:\n        /* \"#utility.yul\":3359:3368   */\n      dup1\n      dup3\n      add\n        /* \"#utility.yul\":3380:3390   */\n      dup1\n      dup3\n      gt\n        /* \"#utility.yul\":3377:3413   */\n      iszero\n      tag_98\n      jumpi\n        /* \"#utility.yul\":3393:3411   */\n      tag_98\n      tag_75\n      jump\t// in\n    tag_98:\n        /* \"#utility.yul\":3294:3419   */\n      swap3\n      swap2\n      pop\n      pop\n      jump\t// out\n        /* \"#utility.yul\":3424:3596   */\n    tag_72:\n        /* \"#utility.yul\":3491:3501   */\n      0xffffffff\n        /* \"#utility.yul\":3521:3531   */\n      dup2\n      dup2\n      and\n        /* \"#utility.yul\":3533:3543   */\n      dup4\n      dup3\n      and\n        /* \"#utility.yul\":3517:3544   */\n      add\n      swap1\n        /* \"#utility.yul\":3556:3567   */\n      dup1\n      dup3\n      gt\n        /* \"#utility.yul\":3553:3590   */\n      iszero\n      tag_101\n      jumpi\n        /* \"#utility.yul\":3570:3588   */\n      tag_101\n      tag_75\n      jump\t// in\n    tag_101:\n        /* \"#utility.yul\":3553:3590   */\n      pop\n        /* \"#utility.yul\":3424:3596   */\n      swap3\n      swap2\n      pop\n      pop\n      jump\t// out\n\n    auxdata: 0xa264697066735822122038aa0061c847a86b1d33ad34c61f0275597b937cebb98a377e1cbfdee8ec4f8f64736f6c63430008120033\n}\n",
				"bytecode": {
					"linkReferences": {},
					"object": "608060405234801561001057600080fd5b50610901806100206000396000f3fe6080604052600436106100385760003560e01c80636452c22d1461016b5780638052474d146101a2578063925849ad146101f85761015f565b3661015f57341561015d576040517fc75ffd8600000000000000000000000000000000000000000000000000000000815260206004820152601260248201527f2e436f72706f726174696f6e2e5661756c740000000000000000000000000000604482015273a00a1ed23a4cc11182db678a67fcdfb45fee1ff89063c75ffd8690606401602060405180830381865afa1580156100d9573d6000803e3d6000fd5b505050506040513d601f19601f820116820180604052508101906100fd91906107b2565b73ffffffffffffffffffffffffffffffffffffffff163460405160006040518083038185875af1925050503d8060008114610154576040519150601f19603f3d011682016040523d82523d6000602084013e610159565b606091505b5050505b005b34801561015d57600080fd5b34801561017757600080fd5b5061018b6101863660046107d6565b6102a5565b60405160ff90911681526020015b60405180910390f35b3480156101ae57600080fd5b506101eb6040518060400160405280601581526020017f2e5061796d656e742e496d706c656d656e746f7273000000000000000000000081525081565b60405161019991906107f3565b34801561020457600080fd5b5061027f6102133660046107d6565b73ffffffffffffffffffffffffffffffffffffffff166000908152600260209081526040918290208251606081018452905463ffffffff80821680845264010000000083049091169383018490526801000000000000000090910460ff16919093018190529192909190565b6040805163ffffffff948516815293909216602084015260ff1690820152606001610199565b6040517fc75ffd8600000000000000000000000000000000000000000000000000000000815260206004820152601360248201527f2e5061796d656e742e50726f63636573736f72000000000000000000000000006044820152600090339073a00a1ed23a4cc11182db678a67fcdfb45fee1ff89063c75ffd8690606401602060405180830381865afa158015610340573d6000803e3d6000fd5b505050506040513d601f19601f8201168201806040525081019061036491906107b2565b73ffffffffffffffffffffffffffffffffffffffff16146103e5576040517f08c379a000000000000000000000000000000000000000000000000000000000815260206004820152600f60248201527f50726f63636573736f72206f6e6c790000000000000000000000000000000000604482015260640160405180910390fd5b73ffffffffffffffffffffffffffffffffffffffff82166000908152600260205260409020805463ffffffff42811664010000000090920416101561073b57805463ffffffff166161a781111561046c5781547fffffffffffffffffffffffffffffffffffffffffffffff00ffffffffffffffff1668c800000000000000001782556106cd565b6130d38163ffffffff1611156104b25781547fffffffffffffffffffffffffffffffffffffffffffffff00ffffffffffffffff16689600000000000000001782556106cd565b611d4b8163ffffffff1611156104f85781547fffffffffffffffffffffffffffffffffffffffffffffff00ffffffffffffffff16687d00000000000000001782556106cd565b6113878163ffffffff16111561053e5781547fffffffffffffffffffffffffffffffffffffffffffffff00ffffffffffffffff16686400000000000000001782556106cd565b6109c38163ffffffff1611156105845781547fffffffffffffffffffffffffffffffffffffffffffffff00ffffffffffffffff16685000000000000000001782556106cd565b6105db8163ffffffff1611156105ca5781547fffffffffffffffffffffffffffffffffffffffffffffff00ffffffffffffffff16683c00000000000000001782556106cd565b6103e78163ffffffff1611156106105781547fffffffffffffffffffffffffffffffffffffffffffffff00ffffffffffffffff16683200000000000000001782556106cd565b6101f38163ffffffff1611156106565781547fffffffffffffffffffffffffffffffffffffffffffffff00ffffffffffffffff16682800000000000000001782556106cd565b60f98163ffffffff16111561069b5781547fffffffffffffffffffffffffffffffffffffffffffffff00ffffffffffffffff16682300000000000000001782556106cd565b81547fffffffffffffffffffffffffffffffffffffffffffffff00ffffffffffffffff16681e00000000000000001782555b81547fffffffffffffffffffffffffffffffffffffffffffffffffffffffff00000000168255610700426213c68061088e565b825463ffffffff91909116640100000000027fffffffffffffffffffffffffffffffffffffffffffffffff00000000ffffffff909116178255505b8054600190829060009061075690849063ffffffff166108a7565b825463ffffffff9182166101009390930a9283029190920219909116179055505460ff680100000000000000009091041692915050565b73ffffffffffffffffffffffffffffffffffffffff811681146107af57600080fd5b50565b6000602082840312156107c457600080fd5b81516107cf8161078d565b9392505050565b6000602082840312156107e857600080fd5b81356107cf8161078d565b600060208083528351808285015260005b8181101561082057858101830151858201604001528201610804565b5060006040828601015260407fffffffffffffffffffffffffffffffffffffffffffffffffffffffffffffffe0601f8301168501019250505092915050565b7f4e487b7100000000000000000000000000000000000000000000000000000000600052601160045260246000fd5b808201808211156108a1576108a161085f565b92915050565b63ffffffff8181168382160190808211156108c4576108c461085f565b509291505056fea264697066735822122038aa0061c847a86b1d33ad34c61f0275597b937cebb98a377e1cbfdee8ec4f8f64736f6c63430008120033",
					"opcodes": "PUSH1 0x80 PUSH1 0x40 MSTORE CALLVALUE DUP1 ISZERO PUSH2 0x10 JUMPI PUSH1 0x0 DUP1 REVERT JUMPDEST POP PUSH2 0x901 DUP1 PUSH2 0x20 PUSH1 0x0 CODECOPY PUSH1 0x0 RETURN INVALID PUSH1 0x80 PUSH1 0x40 MSTORE PUSH1 0x4 CALLDATASIZE LT PUSH2 0x38 JUMPI PUSH1 0x0 CALLDATALOAD PUSH1 0xE0 SHR DUP1 PUSH4 0x6452C22D EQ PUSH2 0x16B JUMPI DUP1 PUSH4 0x8052474D EQ PUSH2 0x1A2 JUMPI DUP1 PUSH4 0x925849AD EQ PUSH2 0x1F8 JUMPI PUSH2 0x15F JUMP JUMPDEST CALLDATASIZE PUSH2 0x15F JUMPI CALLVALUE ISZERO PUSH2 0x15D JUMPI PUSH1 0x40 MLOAD PUSH32 0xC75FFD8600000000000000000000000000000000000000000000000000000000 DUP2 MSTORE PUSH1 0x20 PUSH1 0x4 DUP3 ADD MSTORE PUSH1 0x12 PUSH1 0x24 DUP3 ADD MSTORE PUSH32 0x2E436F72706F726174696F6E2E5661756C740000000000000000000000000000 PUSH1 0x44 DUP3 ADD MSTORE PUSH20 0xA00A1ED23A4CC11182DB678A67FCDFB45FEE1FF8 SWAP1 PUSH4 0xC75FFD86 SWAP1 PUSH1 0x64 ADD PUSH1 0x20 PUSH1 0x40 MLOAD DUP1 DUP4 SUB DUP2 DUP7 GAS STATICCALL ISZERO DUP1 ISZERO PUSH2 0xD9 JUMPI RETURNDATASIZE PUSH1 0x0 DUP1 RETURNDATACOPY RETURNDATASIZE PUSH1 0x0 REVERT JUMPDEST POP POP POP POP PUSH1 0x40 MLOAD RETURNDATASIZE PUSH1 0x1F NOT PUSH1 0x1F DUP3 ADD AND DUP3 ADD DUP1 PUSH1 0x40 MSTORE POP DUP2 ADD SWAP1 PUSH2 0xFD SWAP2 SWAP1 PUSH2 0x7B2 JUMP JUMPDEST PUSH20 0xFFFFFFFFFFFFFFFFFFFFFFFFFFFFFFFFFFFFFFFF AND CALLVALUE PUSH1 0x40 MLOAD PUSH1 0x0 PUSH1 0x40 MLOAD DUP1 DUP4 SUB DUP2 DUP6 DUP8 GAS CALL SWAP3 POP POP POP RETURNDATASIZE DUP1 PUSH1 0x0 DUP2 EQ PUSH2 0x154 JUMPI PUSH1 0x40 MLOAD SWAP2 POP PUSH1 0x1F NOT PUSH1 0x3F RETURNDATASIZE ADD AND DUP3 ADD PUSH1 0x40 MSTORE RETURNDATASIZE DUP3 MSTORE RETURNDATASIZE PUSH1 0x0 PUSH1 0x20 DUP5 ADD RETURNDATACOPY PUSH2 0x159 JUMP JUMPDEST PUSH1 0x60 SWAP2 POP JUMPDEST POP POP POP JUMPDEST STOP JUMPDEST CALLVALUE DUP1 ISZERO PUSH2 0x15D JUMPI PUSH1 0x0 DUP1 REVERT JUMPDEST CALLVALUE DUP1 ISZERO PUSH2 0x177 JUMPI PUSH1 0x0 DUP1 REVERT JUMPDEST POP PUSH2 0x18B PUSH2 0x186 CALLDATASIZE PUSH1 0x4 PUSH2 0x7D6 JUMP JUMPDEST PUSH2 0x2A5 JUMP JUMPDEST PUSH1 0x40 MLOAD PUSH1 0xFF SWAP1 SWAP2 AND DUP2 MSTORE PUSH1 0x20 ADD JUMPDEST PUSH1 0x40 MLOAD DUP1 SWAP2 SUB SWAP1 RETURN JUMPDEST CALLVALUE DUP1 ISZERO PUSH2 0x1AE JUMPI PUSH1 0x0 DUP1 REVERT JUMPDEST POP PUSH2 0x1EB PUSH1 0x40 MLOAD DUP1 PUSH1 0x40 ADD PUSH1 0x40 MSTORE DUP1 PUSH1 0x15 DUP2 MSTORE PUSH1 0x20 ADD PUSH32 0x2E5061796D656E742E496D706C656D656E746F72730000000000000000000000 DUP2 MSTORE POP DUP2 JUMP JUMPDEST PUSH1 0x40 MLOAD PUSH2 0x199 SWAP2 SWAP1 PUSH2 0x7F3 JUMP JUMPDEST CALLVALUE DUP1 ISZERO PUSH2 0x204 JUMPI PUSH1 0x0 DUP1 REVERT JUMPDEST POP PUSH2 0x27F PUSH2 0x213 CALLDATASIZE PUSH1 0x4 PUSH2 0x7D6 JUMP JUMPDEST PUSH20 0xFFFFFFFFFFFFFFFFFFFFFFFFFFFFFFFFFFFFFFFF AND PUSH1 0x0 SWAP1 DUP2 MSTORE PUSH1 0x2 PUSH1 0x20 SWAP1 DUP2 MSTORE PUSH1 0x40 SWAP2 DUP3 SWAP1 KECCAK256 DUP3 MLOAD PUSH1 0x60 DUP2 ADD DUP5 MSTORE SWAP1 SLOAD PUSH4 0xFFFFFFFF DUP1 DUP3 AND DUP1 DUP5 MSTORE PUSH5 0x100000000 DUP4 DIV SWAP1 SWAP2 AND SWAP4 DUP4 ADD DUP5 SWAP1 MSTORE PUSH9 0x10000000000000000 SWAP1 SWAP2 DIV PUSH1 0xFF AND SWAP2 SWAP1 SWAP4 ADD DUP2 SWAP1 MSTORE SWAP2 SWAP3 SWAP1 SWAP2 SWAP1 JUMP JUMPDEST PUSH1 0x40 DUP1 MLOAD PUSH4 0xFFFFFFFF SWAP5 DUP6 AND DUP2 MSTORE SWAP4 SWAP1 SWAP3 AND PUSH1 0x20 DUP5 ADD MSTORE PUSH1 0xFF AND SWAP1 DUP3 ADD MSTORE PUSH1 0x60 ADD PUSH2 0x199 JUMP JUMPDEST PUSH1 0x40 MLOAD PUSH32 0xC75FFD8600000000000000000000000000000000000000000000000000000000 DUP2 MSTORE PUSH1 0x20 PUSH1 0x4 DUP3 ADD MSTORE PUSH1 0x13 PUSH1 0x24 DUP3 ADD MSTORE PUSH32 0x2E5061796D656E742E50726F63636573736F7200000000000000000000000000 PUSH1 0x44 DUP3 ADD MSTORE PUSH1 0x0 SWAP1 CALLER SWAP1 PUSH20 0xA00A1ED23A4CC11182DB678A67FCDFB45FEE1FF8 SWAP1 PUSH4 0xC75FFD86 SWAP1 PUSH1 0x64 ADD PUSH1 0x20 PUSH1 0x40 MLOAD DUP1 DUP4 SUB DUP2 DUP7 GAS STATICCALL ISZERO DUP1 ISZERO PUSH2 0x340 JUMPI RETURNDATASIZE PUSH1 0x0 DUP1 RETURNDATACOPY RETURNDATASIZE PUSH1 0x0 REVERT JUMPDEST POP POP POP POP PUSH1 0x40 MLOAD RETURNDATASIZE PUSH1 0x1F NOT PUSH1 0x1F DUP3 ADD AND DUP3 ADD DUP1 PUSH1 0x40 MSTORE POP DUP2 ADD SWAP1 PUSH2 0x364 SWAP2 SWAP1 PUSH2 0x7B2 JUMP JUMPDEST PUSH20 0xFFFFFFFFFFFFFFFFFFFFFFFFFFFFFFFFFFFFFFFF AND EQ PUSH2 0x3E5 JUMPI PUSH1 0x40 MLOAD PUSH32 0x8C379A000000000000000000000000000000000000000000000000000000000 DUP2 MSTORE PUSH1 0x20 PUSH1 0x4 DUP3 ADD MSTORE PUSH1 0xF PUSH1 0x24 DUP3 ADD MSTORE PUSH32 0x50726F63636573736F72206F6E6C790000000000000000000000000000000000 PUSH1 0x44 DUP3 ADD MSTORE PUSH1 0x64 ADD PUSH1 0x40 MLOAD DUP1 SWAP2 SUB SWAP1 REVERT JUMPDEST PUSH20 0xFFFFFFFFFFFFFFFFFFFFFFFFFFFFFFFFFFFFFFFF DUP3 AND PUSH1 0x0 SWAP1 DUP2 MSTORE PUSH1 0x2 PUSH1 0x20 MSTORE PUSH1 0x40 SWAP1 KECCAK256 DUP1 SLOAD PUSH4 0xFFFFFFFF TIMESTAMP DUP2 AND PUSH5 0x100000000 SWAP1 SWAP3 DIV AND LT ISZERO PUSH2 0x73B JUMPI DUP1 SLOAD PUSH4 0xFFFFFFFF AND PUSH2 0x61A7 DUP2 GT ISZERO PUSH2 0x46C JUMPI DUP2 SLOAD PUSH32 0xFFFFFFFFFFFFFFFFFFFFFFFFFFFFFFFFFFFFFFFFFFFFFF00FFFFFFFFFFFFFFFF AND PUSH9 0xC80000000000000000 OR DUP3 SSTORE PUSH2 0x6CD JUMP JUMPDEST PUSH2 0x30D3 DUP2 PUSH4 0xFFFFFFFF AND GT ISZERO PUSH2 0x4B2 JUMPI DUP2 SLOAD PUSH32 0xFFFFFFFFFFFFFFFFFFFFFFFFFFFFFFFFFFFFFFFFFFFFFF00FFFFFFFFFFFFFFFF AND PUSH9 0x960000000000000000 OR DUP3 SSTORE PUSH2 0x6CD JUMP JUMPDEST PUSH2 0x1D4B DUP2 PUSH4 0xFFFFFFFF AND GT ISZERO PUSH2 0x4F8 JUMPI DUP2 SLOAD PUSH32 0xFFFFFFFFFFFFFFFFFFFFFFFFFFFFFFFFFFFFFFFFFFFFFF00FFFFFFFFFFFFFFFF AND PUSH9 0x7D0000000000000000 OR DUP3 SSTORE PUSH2 0x6CD JUMP JUMPDEST PUSH2 0x1387 DUP2 PUSH4 0xFFFFFFFF AND GT ISZERO PUSH2 0x53E JUMPI DUP2 SLOAD PUSH32 0xFFFFFFFFFFFFFFFFFFFFFFFFFFFFFFFFFFFFFFFFFFFFFF00FFFFFFFFFFFFFFFF AND PUSH9 0x640000000000000000 OR DUP3 SSTORE PUSH2 0x6CD JUMP JUMPDEST PUSH2 0x9C3 DUP2 PUSH4 0xFFFFFFFF AND GT ISZERO PUSH2 0x584 JUMPI DUP2 SLOAD PUSH32 0xFFFFFFFFFFFFFFFFFFFFFFFFFFFFFFFFFFFFFFFFFFFFFF00FFFFFFFFFFFFFFFF AND PUSH9 0x500000000000000000 OR DUP3 SSTORE PUSH2 0x6CD JUMP JUMPDEST PUSH2 0x5DB DUP2 PUSH4 0xFFFFFFFF AND GT ISZERO PUSH2 0x5CA JUMPI DUP2 SLOAD PUSH32 0xFFFFFFFFFFFFFFFFFFFFFFFFFFFFFFFFFFFFFFFFFFFFFF00FFFFFFFFFFFFFFFF AND PUSH9 0x3C0000000000000000 OR DUP3 SSTORE PUSH2 0x6CD JUMP JUMPDEST PUSH2 0x3E7 DUP2 PUSH4 0xFFFFFFFF AND GT ISZERO PUSH2 0x610 JUMPI DUP2 SLOAD PUSH32 0xFFFFFFFFFFFFFFFFFFFFFFFFFFFFFFFFFFFFFFFFFFFFFF00FFFFFFFFFFFFFFFF AND PUSH9 0x320000000000000000 OR DUP3 SSTORE PUSH2 0x6CD JUMP JUMPDEST PUSH2 0x1F3 DUP2 PUSH4 0xFFFFFFFF AND GT ISZERO PUSH2 0x656 JUMPI DUP2 SLOAD PUSH32 0xFFFFFFFFFFFFFFFFFFFFFFFFFFFFFFFFFFFFFFFFFFFFFF00FFFFFFFFFFFFFFFF AND PUSH9 0x280000000000000000 OR DUP3 SSTORE PUSH2 0x6CD JUMP JUMPDEST PUSH1 0xF9 DUP2 PUSH4 0xFFFFFFFF AND GT ISZERO PUSH2 0x69B JUMPI DUP2 SLOAD PUSH32 0xFFFFFFFFFFFFFFFFFFFFFFFFFFFFFFFFFFFFFFFFFFFFFF00FFFFFFFFFFFFFFFF AND PUSH9 0x230000000000000000 OR DUP3 SSTORE PUSH2 0x6CD JUMP JUMPDEST DUP2 SLOAD PUSH32 0xFFFFFFFFFFFFFFFFFFFFFFFFFFFFFFFFFFFFFFFFFFFFFF00FFFFFFFFFFFFFFFF AND PUSH9 0x1E0000000000000000 OR DUP3 SSTORE JUMPDEST DUP2 SLOAD PUSH32 0xFFFFFFFFFFFFFFFFFFFFFFFFFFFFFFFFFFFFFFFFFFFFFFFFFFFFFFFF00000000 AND DUP3 SSTORE PUSH2 0x700 TIMESTAMP PUSH3 0x13C680 PUSH2 0x88E JUMP JUMPDEST DUP3 SLOAD PUSH4 0xFFFFFFFF SWAP2 SWAP1 SWAP2 AND PUSH5 0x100000000 MUL PUSH32 0xFFFFFFFFFFFFFFFFFFFFFFFFFFFFFFFFFFFFFFFFFFFFFFFF00000000FFFFFFFF SWAP1 SWAP2 AND OR DUP3 SSTORE POP JUMPDEST DUP1 SLOAD PUSH1 0x1 SWAP1 DUP3 SWAP1 PUSH1 0x0 SWAP1 PUSH2 0x756 SWAP1 DUP5 SWAP1 PUSH4 0xFFFFFFFF AND PUSH2 0x8A7 JUMP JUMPDEST DUP3 SLOAD PUSH4 0xFFFFFFFF SWAP2 DUP3 AND PUSH2 0x100 SWAP4 SWAP1 SWAP4 EXP SWAP3 DUP4 MUL SWAP2 SWAP1 SWAP3 MUL NOT SWAP1 SWAP2 AND OR SWAP1 SSTORE POP SLOAD PUSH1 0xFF PUSH9 0x10000000000000000 SWAP1 SWAP2 DIV AND SWAP3 SWAP2 POP POP JUMP JUMPDEST PUSH20 0xFFFFFFFFFFFFFFFFFFFFFFFFFFFFFFFFFFFFFFFF DUP2 AND DUP2 EQ PUSH2 0x7AF JUMPI PUSH1 0x0 DUP1 REVERT JUMPDEST POP JUMP JUMPDEST PUSH1 0x0 PUSH1 0x20 DUP3 DUP5 SUB SLT ISZERO PUSH2 0x7C4 JUMPI PUSH1 0x0 DUP1 REVERT JUMPDEST DUP2 MLOAD PUSH2 0x7CF DUP2 PUSH2 0x78D JUMP JUMPDEST SWAP4 SWAP3 POP POP POP JUMP JUMPDEST PUSH1 0x0 PUSH1 0x20 DUP3 DUP5 SUB SLT ISZERO PUSH2 0x7E8 JUMPI PUSH1 0x0 DUP1 REVERT JUMPDEST DUP2 CALLDATALOAD PUSH2 0x7CF DUP2 PUSH2 0x78D JUMP JUMPDEST PUSH1 0x0 PUSH1 0x20 DUP1 DUP4 MSTORE DUP4 MLOAD DUP1 DUP3 DUP6 ADD MSTORE PUSH1 0x0 JUMPDEST DUP2 DUP2 LT ISZERO PUSH2 0x820 JUMPI DUP6 DUP2 ADD DUP4 ADD MLOAD DUP6 DUP3 ADD PUSH1 0x40 ADD MSTORE DUP3 ADD PUSH2 0x804 JUMP JUMPDEST POP PUSH1 0x0 PUSH1 0x40 DUP3 DUP7 ADD ADD MSTORE PUSH1 0x40 PUSH32 0xFFFFFFFFFFFFFFFFFFFFFFFFFFFFFFFFFFFFFFFFFFFFFFFFFFFFFFFFFFFFFFE0 PUSH1 0x1F DUP4 ADD AND DUP6 ADD ADD SWAP3 POP POP POP SWAP3 SWAP2 POP POP JUMP JUMPDEST PUSH32 0x4E487B7100000000000000000000000000000000000000000000000000000000 PUSH1 0x0 MSTORE PUSH1 0x11 PUSH1 0x4 MSTORE PUSH1 0x24 PUSH1 0x0 REVERT JUMPDEST DUP1 DUP3 ADD DUP1 DUP3 GT ISZERO PUSH2 0x8A1 JUMPI PUSH2 0x8A1 PUSH2 0x85F JUMP JUMPDEST SWAP3 SWAP2 POP POP JUMP JUMPDEST PUSH4 0xFFFFFFFF DUP2 DUP2 AND DUP4 DUP3 AND ADD SWAP1 DUP1 DUP3 GT ISZERO PUSH2 0x8C4 JUMPI PUSH2 0x8C4 PUSH2 0x85F JUMP JUMPDEST POP SWAP3 SWAP2 POP POP JUMP INVALID LOG2 PUSH5 0x6970667358 0x22 SLT KECCAK256 CODESIZE 0xAA STOP PUSH2 0xC847 0xA8 PUSH12 0x1D33AD34C61F0275597B937C 0xEB 0xB9 DUP11 CALLDATACOPY PUSH31 0x1CBFDEE8EC4F8F64736F6C6343000812003300000000000000000000000000 "
				},
				"gasEstimates": {
					"creation": {
						"codeDepositCost": "461000",
						"executionCost": "499",
						"totalCost": "461499"
					},
					"external": {
						"": "156",
						"GetEpochReward(address)": "infinite",
						"GetImplementorProfile(address)": "2746",
						"Name()": "infinite"
					}
				},
				"methodIdentifiers": {
					"GetEpochReward(address)": "6452c22d",
					"GetImplementorProfile(address)": "925849ad",
					"Name()": "8052474d"
				}
			},
			"storageLayout": {
				"storage": [
					{
						"astId": 32,
						"contract": "Payment/Implementors.sol:Implementors",
						"label": "nameToAddress",
						"offset": 0,
						"slot": "0",
						"type": "t_mapping(t_string_memory_ptr,t_address)"
					},
					{
						"astId": 36,
						"contract": "Payment/Implementors.sol:Implementors",
						"label": "addressToName",
						"offset": 0,
						"slot": "1",
						"type": "t_mapping(t_address,t_string_storage)"
					},
					{
						"astId": 41,
						"contract": "Payment/Implementors.sol:Implementors",
						"label": "implementor",
						"offset": 0,
						"slot": "2",
						"type": "t_mapping(t_address,t_struct(Implementor)28_storage)"
					}
				],
				"types": {
					"t_address": {
						"encoding": "inplace",
						"label": "address",
						"numberOfBytes": "20"
					},
					"t_mapping(t_address,t_string_storage)": {
						"encoding": "mapping",
						"key": "t_address",
						"label": "mapping(address => string)",
						"numberOfBytes": "32",
						"value": "t_string_storage"
					},
					"t_mapping(t_address,t_struct(Implementor)28_storage)": {
						"encoding": "mapping",
						"key": "t_address",
						"label": "mapping(address => struct Implementors.Implementor)",
						"numberOfBytes": "32",
						"value": "t_struct(Implementor)28_storage"
					},
					"t_mapping(t_string_memory_ptr,t_address)": {
						"encoding": "mapping",
						"key": "t_string_memory_ptr",
						"label": "mapping(string => address)",
						"numberOfBytes": "32",
						"value": "t_address"
					},
					"t_string_memory_ptr": {
						"encoding": "bytes",
						"label": "string",
						"numberOfBytes": "32"
					},
					"t_string_storage": {
						"encoding": "bytes",
						"label": "string",
						"numberOfBytes": "32"
					},
					"t_struct(Implementor)28_storage": {
						"encoding": "inplace",
						"label": "struct Implementors.Implementor",
						"members": [
							{
								"astId": 23,
								"contract": "Payment/Implementors.sol:Implementors",
								"label": "epochSales",
								"offset": 0,
								"slot": "0",
								"type": "t_uint32"
							},
							{
								"astId": 25,
								"contract": "Payment/Implementors.sol:Implementors",
								"label": "epochEnd",
								"offset": 4,
								"slot": "0",
								"type": "t_uint32"
							},
							{
								"astId": 27,
								"contract": "Payment/Implementors.sol:Implementors",
								"label": "epochReward",
								"offset": 8,
								"slot": "0",
								"type": "t_uint8"
							}
						],
						"numberOfBytes": "32"
					},
					"t_uint32": {
						"encoding": "inplace",
						"label": "uint32",
						"numberOfBytes": "4"
					},
					"t_uint8": {
						"encoding": "inplace",
						"label": "uint8",
						"numberOfBytes": "1"
					}
				}
			},
			"userdoc": {
				"kind": "user",
				"methods": {},
				"version": 1
			}
		}
	}
}