{
	"Payment/Currencies.sol": {
		"Currencies": {
			"abi": [
				{
					"inputs": [],
					"stateMutability": "nonpayable",
					"type": "constructor"
				},
				{
					"anonymous": false,
					"inputs": [
						{
							"indexed": true,
							"internalType": "address",
							"name": "_currency",
							"type": "address"
						}
					],
					"name": "CurrencyAddition",
					"type": "event"
				},
				{
					"anonymous": false,
					"inputs": [
						{
							"indexed": true,
							"internalType": "address",
							"name": "_currency",
							"type": "address"
						}
					],
					"name": "CurrencyRemoval",
					"type": "event"
				},
				{
					"stateMutability": "nonpayable",
					"type": "fallback"
				},
				{
					"inputs": [
						{
							"internalType": "string",
							"name": "_symbol",
							"type": "string"
						},
						{
							"internalType": "address",
							"name": "_addr",
							"type": "address"
						}
					],
					"name": "AddCurrency",
					"outputs": [
						{
							"internalType": "bool",
							"name": "",
							"type": "bool"
						}
					],
					"stateMutability": "nonpayable",
					"type": "function"
				},
				{
					"inputs": [
						{
							"internalType": "string",
							"name": "_symbol",
							"type": "string"
						}
					],
					"name": "GetCurrencyAddress",
					"outputs": [
						{
							"internalType": "address",
							"name": "",
							"type": "address"
						}
					],
					"stateMutability": "view",
					"type": "function"
				},
				{
					"inputs": [],
					"name": "GetCurrencyList",
					"outputs": [
						{
							"internalType": "string[]",
							"name": "",
							"type": "string[]"
						}
					],
					"stateMutability": "view",
					"type": "function"
				},
				{
					"inputs": [
						{
							"internalType": "address",
							"name": "_addr",
							"type": "address"
						}
					],
					"name": "GetCurrencySymbol",
					"outputs": [
						{
							"internalType": "string",
							"name": "",
							"type": "string"
						}
					],
					"stateMutability": "view",
					"type": "function"
				},
				{
					"inputs": [],
					"name": "Name",
					"outputs": [
						{
							"internalType": "string",
							"name": "",
							"type": "string"
						}
					],
					"stateMutability": "view",
					"type": "function"
				},
				{
					"inputs": [
						{
							"internalType": "string",
							"name": "_symbol",
							"type": "string"
						}
					],
					"name": "RemoveCurrency",
					"outputs": [
						{
							"internalType": "bool",
							"name": "",
							"type": "bool"
						}
					],
					"stateMutability": "nonpayable",
					"type": "function"
				},
				{
					"stateMutability": "payable",
					"type": "receive"
				}
			],
			"devdoc": {
				"kind": "dev",
				"methods": {},
				"version": 1
			},
			"evm": {
				"assembly": "    /* \"Payment/Currencies.sol\":371:4863  contract Currencies{... */\n  mstore(0x40, 0xa0)\n    /* \"Payment/Currencies.sol\":2128:2184  constructor(){... */\n  callvalue\n  dup1\n  iszero\n  tag_1\n  jumpi\n  0x00\n  dup1\n  revert\ntag_1:\n  pop\n    /* \"Payment/Currencies.sol\":975:1017  0x163342FAe2bBe3303e5A9ADCe4BC9fb44d0FF062 */\n  0x163342fae2bbe3303e5a9adce4bc9fb44d0ff062\n  sub(shl(0xa0, 0x01), 0x01)\n    /* \"Payment/Currencies.sol\":2166:2174  pt.MATIC */\n  and\n  0x15b550d6\n    /* \"Payment/Currencies.sol\":2166:2176  pt.MATIC() */\n  mload(0x40)\n  dup2\n  0xffffffff\n  and\n  0xe0\n  shl\n  dup2\n  mstore\n  0x04\n  add\n  0x20\n  mload(0x40)\n  dup1\n  dup4\n  sub\n  dup2\n  dup7\n  gas\n  staticcall\n  iszero\n  dup1\n  iszero\n  tag_5\n  jumpi\n  returndatasize\n  0x00\n  dup1\n  returndatacopy\n  revert(0x00, returndatasize)\ntag_5:\n  pop\n  pop\n  pop\n  pop\n  mload(0x40)\n  returndatasize\n  not(0x1f)\n  0x1f\n  dup3\n  add\n  and\n  dup3\n  add\n  dup1\n  0x40\n  mstore\n  pop\n  dup2\n  add\n  swap1\n  tag_6\n  swap2\n  swap1\n  tag_7\n  jump\t// in\ntag_6:\n  sub(shl(0xa0, 0x01), 0x01)\n    /* \"Payment/Currencies.sol\":2158:2176  MATIC = pt.MATIC() */\n  and\n  0x80\n  mstore\n    /* \"Payment/Currencies.sol\":371:4863  contract Currencies{... */\n  jump(tag_9)\n    /* \"#utility.yul\":14:304   */\ntag_7:\n    /* \"#utility.yul\":84:90   */\n  0x00\n    /* \"#utility.yul\":137:139   */\n  0x20\n    /* \"#utility.yul\":125:134   */\n  dup3\n    /* \"#utility.yul\":116:123   */\n  dup5\n    /* \"#utility.yul\":112:135   */\n  sub\n    /* \"#utility.yul\":108:140   */\n  slt\n    /* \"#utility.yul\":105:157   */\n  iszero\n  tag_11\n  jumpi\n    /* \"#utility.yul\":153:154   */\n  0x00\n    /* \"#utility.yul\":150:151   */\n  dup1\n    /* \"#utility.yul\":143:155   */\n  revert\n    /* \"#utility.yul\":105:157   */\ntag_11:\n    /* \"#utility.yul\":179:195   */\n  dup2\n  mload\n  sub(shl(0xa0, 0x01), 0x01)\n    /* \"#utility.yul\":224:255   */\n  dup2\n  and\n    /* \"#utility.yul\":214:256   */\n  dup2\n  eq\n    /* \"#utility.yul\":204:274   */\n  tag_12\n  jumpi\n    /* \"#utility.yul\":270:271   */\n  0x00\n    /* \"#utility.yul\":267:268   */\n  dup1\n    /* \"#utility.yul\":260:272   */\n  revert\n    /* \"#utility.yul\":204:274   */\ntag_12:\n    /* \"#utility.yul\":293:298   */\n  swap4\n    /* \"#utility.yul\":14:304   */\n  swap3\n  pop\n  pop\n  pop\n  jump\t// out\ntag_9:\n    /* \"Payment/Currencies.sol\":371:4863  contract Currencies{... */\n  mload(0x80)\n  codecopy(0x00, dataOffset(sub_0), dataSize(sub_0))\n  0x00\n  assignImmutable(\"0x2e9b7c94e032d8b3b8b30bd825717a5ac74958b53e7c37a892a4fd7dc56e4975\")\n  return(0x00, dataSize(sub_0))\nstop\n\nsub_0: assembly {\n        /* \"Payment/Currencies.sol\":371:4863  contract Currencies{... */\n      mstore(0x40, 0x80)\n      jumpi(tag_1, lt(calldatasize, 0x04))\n      shr(0xe0, calldataload(0x00))\n      dup1\n      0xa56c56c3\n      gt\n      tag_9\n      jumpi\n      dup1\n      0xa56c56c3\n      eq\n      tag_6\n      jumpi\n      dup1\n      0xd99699df\n      eq\n      tag_7\n      jumpi\n      dup1\n      0xda240f1e\n      eq\n      tag_8\n      jumpi\n      jump(tag_2)\n    tag_9:\n      dup1\n      0x6080e7ff\n      eq\n      tag_3\n      jumpi\n      dup1\n      0x8052474d\n      eq\n      tag_4\n      jumpi\n      dup1\n      0x8e9497d2\n      eq\n      tag_5\n      jumpi\n      jump(tag_2)\n    tag_1:\n      jumpi(tag_2, calldatasize)\n        /* \"Payment/Currencies.sol\":4641:4650  msg.value */\n      callvalue\n        /* \"Payment/Currencies.sol\":4641:4654  msg.value > 0 */\n      iszero\n        /* \"Payment/Currencies.sol\":4638:4758  if(msg.value > 0)... */\n      tag_12\n      jumpi\n        /* \"Payment/Currencies.sol\":4685:4728  pt.GetContractAddress(\".Corporation.Vault\") */\n      mload(0x40)\n      0xc75ffd8600000000000000000000000000000000000000000000000000000000\n      dup2\n      mstore\n        /* \"#utility.yul\":216:218   */\n      0x20\n        /* \"Payment/Currencies.sol\":4685:4728  pt.GetContractAddress(\".Corporation.Vault\") */\n      0x04\n      dup3\n      add\n        /* \"#utility.yul\":198:219   */\n      mstore\n        /* \"#utility.yul\":255:257   */\n      0x12\n        /* \"#utility.yul\":235:253   */\n      0x24\n      dup3\n      add\n        /* \"#utility.yul\":228:258   */\n      mstore\n        /* \"#utility.yul\":294:314   */\n      0x2e436f72706f726174696f6e2e5661756c740000000000000000000000000000\n        /* \"#utility.yul\":274:292   */\n      0x44\n      dup3\n      add\n        /* \"#utility.yul\":267:315   */\n      mstore\n        /* \"Payment/Currencies.sol\":975:1017  0x163342FAe2bBe3303e5A9ADCe4BC9fb44d0FF062 */\n      0x163342fae2bbe3303e5a9adce4bc9fb44d0ff062\n      swap1\n        /* \"Payment/Currencies.sol\":4685:4706  pt.GetContractAddress */\n      0xc75ffd86\n      swap1\n        /* \"#utility.yul\":332:350   */\n      0x64\n      add\n        /* \"Payment/Currencies.sol\":4685:4728  pt.GetContractAddress(\".Corporation.Vault\") */\n      0x20\n      mload(0x40)\n      dup1\n      dup4\n      sub\n      dup2\n      dup7\n      gas\n      staticcall\n      iszero\n      dup1\n      iszero\n      tag_16\n      jumpi\n      returndatasize\n      0x00\n      dup1\n      returndatacopy\n      revert(0x00, returndatasize)\n    tag_16:\n      pop\n      pop\n      pop\n      pop\n      mload(0x40)\n      returndatasize\n      not(0x1f)\n      0x1f\n      dup3\n      add\n      and\n      dup3\n      add\n      dup1\n      0x40\n      mstore\n      pop\n      dup2\n      add\n      swap1\n      tag_17\n      swap2\n      swap1\n      tag_18\n      jump\t// in\n    tag_17:\n        /* \"Payment/Currencies.sol\":4669:4735  payable(address(pt.GetContractAddress(\".Corporation.Vault\"))).call */\n      0xffffffffffffffffffffffffffffffffffffffff\n      and\n        /* \"Payment/Currencies.sol\":4744:4753  msg.value */\n      callvalue\n        /* \"Payment/Currencies.sol\":4669:4758  payable(address(pt.GetContractAddress(\".Corporation.Vault\"))).call{value : msg.value}(\"\") */\n      mload(0x40)\n      0x00\n      mload(0x40)\n      dup1\n      dup4\n      sub\n      dup2\n      dup6\n      dup8\n      gas\n      call\n      swap3\n      pop\n      pop\n      pop\n      returndatasize\n      dup1\n      0x00\n      dup2\n      eq\n      tag_23\n      jumpi\n      mload(0x40)\n      swap2\n      pop\n      and(add(returndatasize, 0x3f), not(0x1f))\n      dup3\n      add\n      0x40\n      mstore\n      returndatasize\n      dup3\n      mstore\n      returndatasize\n      0x00\n      0x20\n      dup5\n      add\n      returndatacopy\n      jump(tag_22)\n    tag_23:\n      0x60\n      swap2\n      pop\n    tag_22:\n      pop\n      pop\n      pop\n        /* \"Payment/Currencies.sol\":4638:4758  if(msg.value > 0)... */\n    tag_12:\n        /* \"Payment/Currencies.sol\":371:4863  contract Currencies{... */\n      stop\n    tag_2:\n      callvalue\n      dup1\n      iszero\n      tag_24\n      jumpi\n      0x00\n      dup1\n      revert\n    tag_24:\n      pop\n        /* \"Payment/Currencies.sol\":4814:4852  revert(\"Currencies fallback reverted\") */\n      mload(0x40)\n      0x08c379a000000000000000000000000000000000000000000000000000000000\n      dup2\n      mstore\n        /* \"#utility.yul\":1188:1190   */\n      0x20\n        /* \"Payment/Currencies.sol\":4814:4852  revert(\"Currencies fallback reverted\") */\n      0x04\n      dup3\n      add\n        /* \"#utility.yul\":1170:1191   */\n      mstore\n        /* \"#utility.yul\":1227:1229   */\n      0x1c\n        /* \"#utility.yul\":1207:1225   */\n      0x24\n      dup3\n      add\n        /* \"#utility.yul\":1200:1230   */\n      mstore\n        /* \"#utility.yul\":1266:1296   */\n      0x43757272656e636965732066616c6c6261636b20726576657274656400000000\n        /* \"#utility.yul\":1246:1264   */\n      0x44\n      dup3\n      add\n        /* \"#utility.yul\":1239:1297   */\n      mstore\n        /* \"#utility.yul\":1314:1332   */\n      0x64\n      add\n        /* \"Payment/Currencies.sol\":4814:4852  revert(\"Currencies fallback reverted\") */\n    tag_27:\n      mload(0x40)\n      dup1\n      swap2\n      sub\n      swap1\n      revert\n        /* \"Payment/Currencies.sol\":2871:3770  function AddCurrency(string calldata _symbol, address _addr) public ownerOnly returns(bool){... */\n    tag_3:\n      callvalue\n      dup1\n      iszero\n      tag_29\n      jumpi\n      0x00\n      dup1\n      revert\n    tag_29:\n      pop\n      tag_30\n      tag_31\n      calldatasize\n      0x04\n      tag_32\n      jump\t// in\n    tag_31:\n      tag_33\n      jump\t// in\n    tag_30:\n      mload(0x40)\n        /* \"#utility.yul\":2412:2426   */\n      swap1\n      iszero\n        /* \"#utility.yul\":2405:2427   */\n      iszero\n        /* \"#utility.yul\":2387:2428   */\n      dup2\n      mstore\n        /* \"#utility.yul\":2375:2377   */\n      0x20\n        /* \"#utility.yul\":2360:2378   */\n      add\n        /* \"Payment/Currencies.sol\":2871:3770  function AddCurrency(string calldata _symbol, address _addr) public ownerOnly returns(bool){... */\n    tag_34:\n      mload(0x40)\n      dup1\n      swap2\n      sub\n      swap1\n      return\n        /* \"Payment/Currencies.sol\":1337:1388  string constant public Name = \".Payment.Currencies\" */\n    tag_4:\n      callvalue\n      dup1\n      iszero\n      tag_36\n      jumpi\n      0x00\n      dup1\n      revert\n    tag_36:\n      pop\n      tag_37\n      mload(0x40)\n      dup1\n      0x40\n      add\n      0x40\n      mstore\n      dup1\n      0x13\n      dup2\n      mstore\n      0x20\n      add\n      0x2e5061796d656e742e43757272656e6369657300000000000000000000000000\n      dup2\n      mstore\n      pop\n      dup2\n      jump\n    tag_37:\n      mload(0x40)\n      tag_34\n      swap2\n      swap1\n      tag_40\n      jump\t// in\n        /* \"Payment/Currencies.sol\":3778:4501  function RemoveCurrency(string calldata _symbol) public ownerOnly returns(bool){... */\n    tag_5:\n      callvalue\n      dup1\n      iszero\n      tag_41\n      jumpi\n      0x00\n      dup1\n      revert\n    tag_41:\n      pop\n      tag_30\n      tag_43\n      calldatasize\n      0x04\n      tag_44\n      jump\t// in\n    tag_43:\n      tag_45\n      jump\t// in\n        /* \"Payment/Currencies.sol\":2527:2653  function GetCurrencySymbol(address _addr) public view returns(string memory){... */\n    tag_6:\n      callvalue\n      dup1\n      iszero\n      tag_47\n      jumpi\n      0x00\n      dup1\n      revert\n    tag_47:\n      pop\n      tag_37\n      tag_49\n      calldatasize\n      0x04\n      tag_50\n      jump\t// in\n    tag_49:\n      tag_51\n      jump\t// in\n        /* \"Payment/Currencies.sol\":2667:2769  function GetCurrencyList() public view returns(string[] memory){... */\n    tag_7:\n      callvalue\n      dup1\n      iszero\n      tag_53\n      jumpi\n      0x00\n      dup1\n      revert\n    tag_53:\n      pop\n      tag_54\n      tag_55\n      jump\t// in\n    tag_54:\n      mload(0x40)\n      tag_34\n      swap2\n      swap1\n      tag_57\n      jump\t// in\n        /* \"Payment/Currencies.sol\":2386:2519  function GetCurrencyAddress(string calldata _symbol) public view returns(address){... */\n    tag_8:\n      callvalue\n      dup1\n      iszero\n      tag_58\n      jumpi\n      0x00\n      dup1\n      revert\n    tag_58:\n      pop\n      tag_59\n      tag_60\n      calldatasize\n      0x04\n      tag_44\n      jump\t// in\n    tag_60:\n      tag_61\n      jump\t// in\n    tag_59:\n      mload(0x40)\n        /* \"#utility.yul\":4965:5007   */\n      0xffffffffffffffffffffffffffffffffffffffff\n        /* \"#utility.yul\":4953:5008   */\n      swap1\n      swap2\n      and\n        /* \"#utility.yul\":4935:5009   */\n      dup2\n      mstore\n        /* \"#utility.yul\":4923:4925   */\n      0x20\n        /* \"#utility.yul\":4908:4926   */\n      add\n        /* \"Payment/Currencies.sol\":2386:2519  function GetCurrencyAddress(string calldata _symbol) public view returns(address){... */\n      tag_34\n        /* \"#utility.yul\":4789:5015   */\n      jump\n        /* \"Payment/Currencies.sol\":2871:3770  function AddCurrency(string calldata _symbol, address _addr) public ownerOnly returns(bool){... */\n    tag_33:\n        /* \"Payment/Currencies.sol\":2957:2961  bool */\n      0x00\n        /* \"Payment/Currencies.sol\":1960:1970  msg.sender */\n      caller\n        /* \"Payment/Currencies.sol\":1946:1970  pt.Owner() != msg.sender */\n      0xffffffffffffffffffffffffffffffffffffffff\n      and\n        /* \"Payment/Currencies.sol\":975:1017  0x163342FAe2bBe3303e5A9ADCe4BC9fb44d0FF062 */\n      0x163342fae2bbe3303e5a9adce4bc9fb44d0ff062\n        /* \"Payment/Currencies.sol\":1946:1954  pt.Owner */\n      0xffffffffffffffffffffffffffffffffffffffff\n      and\n      0xb4a99a4e\n        /* \"Payment/Currencies.sol\":1946:1956  pt.Owner() */\n      mload(0x40)\n      dup2\n      0xffffffff\n      and\n      0xe0\n      shl\n      dup2\n      mstore\n      0x04\n      add\n      0x20\n      mload(0x40)\n      dup1\n      dup4\n      sub\n      dup2\n      dup7\n      gas\n      staticcall\n      iszero\n      dup1\n      iszero\n      tag_66\n      jumpi\n      returndatasize\n      0x00\n      dup1\n      returndatacopy\n      revert(0x00, returndatasize)\n    tag_66:\n      pop\n      pop\n      pop\n      pop\n      mload(0x40)\n      returndatasize\n      not(0x1f)\n      0x1f\n      dup3\n      add\n      and\n      dup3\n      add\n      dup1\n      0x40\n      mstore\n      pop\n      dup2\n      add\n      swap1\n      tag_67\n      swap2\n      swap1\n      tag_18\n      jump\t// in\n    tag_67:\n        /* \"Payment/Currencies.sol\":1946:1970  pt.Owner() != msg.sender */\n      0xffffffffffffffffffffffffffffffffffffffff\n      and\n      eq\n        /* \"Payment/Currencies.sol\":1943:2005  if(pt.Owner() != msg.sender)... */\n      tag_68\n      jumpi\n        /* \"Payment/Currencies.sol\":1985:2005  revert(\"Owner only\") */\n      mload(0x40)\n      0x08c379a000000000000000000000000000000000000000000000000000000000\n      dup2\n      mstore\n        /* \"#utility.yul\":5222:5224   */\n      0x20\n        /* \"Payment/Currencies.sol\":1985:2005  revert(\"Owner only\") */\n      0x04\n      dup3\n      add\n        /* \"#utility.yul\":5204:5225   */\n      mstore\n        /* \"#utility.yul\":5261:5263   */\n      0x0a\n        /* \"#utility.yul\":5241:5259   */\n      0x24\n      dup3\n      add\n        /* \"#utility.yul\":5234:5264   */\n      mstore\n        /* \"#utility.yul\":5300:5312   */\n      0x4f776e6572206f6e6c7900000000000000000000000000000000000000000000\n        /* \"#utility.yul\":5280:5298   */\n      0x44\n      dup3\n      add\n        /* \"#utility.yul\":5273:5313   */\n      mstore\n        /* \"#utility.yul\":5330:5348   */\n      0x64\n      add\n        /* \"Payment/Currencies.sol\":1985:2005  revert(\"Owner only\") */\n      tag_27\n        /* \"#utility.yul\":5020:5354   */\n      jump\n        /* \"Payment/Currencies.sol\":1943:2005  if(pt.Owner() != msg.sender)... */\n    tag_68:\n        /* \"Payment/Currencies.sol\":2975:2995  address tokenAddress */\n      0x00\n        /* \"Payment/Currencies.sol\":2998:3013  symbolToAddress */\n      0x01\n        /* \"Payment/Currencies.sol\":3014:3021  _symbol */\n      dup6\n      dup6\n        /* \"Payment/Currencies.sol\":2998:3022  symbolToAddress[_symbol] */\n      mload(0x40)\n      tag_72\n      swap3\n      swap2\n      swap1\n      tag_73\n      jump\t// in\n    tag_72:\n      swap1\n      dup2\n      mstore\n      mload(0x40)\n      swap1\n      dup2\n      swap1\n      sub\n      0x20\n      add\n      swap1\n      keccak256\n      sload\n      0xffffffffffffffffffffffffffffffffffffffff\n      and\n      swap1\n      pop\n        /* \"Payment/Currencies.sol\":3038:3064  tokenAddress != address(0) */\n      dup1\n      iszero\n        /* \"Payment/Currencies.sol\":3035:3258  if(tokenAddress != address(0))... */\n      tag_74\n      jumpi\n        /* \"Payment/Currencies.sol\":3079:3108  revert(\"Symbol already used\") */\n      mload(0x40)\n      0x08c379a000000000000000000000000000000000000000000000000000000000\n      dup2\n      mstore\n        /* \"#utility.yul\":5839:5841   */\n      0x20\n        /* \"Payment/Currencies.sol\":3079:3108  revert(\"Symbol already used\") */\n      0x04\n      dup3\n      add\n        /* \"#utility.yul\":5821:5842   */\n      mstore\n        /* \"#utility.yul\":5878:5880   */\n      0x13\n        /* \"#utility.yul\":5858:5876   */\n      0x24\n      dup3\n      add\n        /* \"#utility.yul\":5851:5881   */\n      mstore\n        /* \"#utility.yul\":5917:5938   */\n      0x53796d626f6c20616c7265616479207573656400000000000000000000000000\n        /* \"#utility.yul\":5897:5915   */\n      0x44\n      dup3\n      add\n        /* \"#utility.yul\":5890:5939   */\n      mstore\n        /* \"#utility.yul\":5956:5974   */\n      0x64\n      add\n        /* \"Payment/Currencies.sol\":3079:3108  revert(\"Symbol already used\") */\n      tag_27\n        /* \"#utility.yul\":5637:5980   */\n      jump\n        /* \"Payment/Currencies.sol\":3035:3258  if(tokenAddress != address(0))... */\n    tag_74:\n        /* \"Payment/Currencies.sol\":3192:3212  abi.encodePacked(\"\") */\n      0x40\n      dup1\n      mload\n      0x00\n      dup1\n      dup3\n      mstore\n      0x20\n      dup1\n      dup4\n      add\n      dup1\n      dup6\n      mstore\n        /* \"Payment/Currencies.sol\":3182:3213  keccak256(abi.encodePacked(\"\")) */\n      dup4\n      mload\n      swap1\n      keccak256\n        /* \"Payment/Currencies.sol\":3154:3176  addressToSymbol[_addr] */\n      0xffffffffffffffffffffffffffffffffffffffff\n      dup9\n      and\n      dup4\n      mstore\n        /* \"Payment/Currencies.sol\":3154:3169  addressToSymbol */\n      0x02\n        /* \"Payment/Currencies.sol\":3154:3176  addressToSymbol[_addr] */\n      swap1\n      swap2\n      mstore\n      swap1\n      dup4\n      swap1\n      keccak256\n        /* \"Payment/Currencies.sol\":3182:3213  keccak256(abi.encodePacked(\"\")) */\n      swap1\n      swap3\n        /* \"Payment/Currencies.sol\":3137:3177  abi.encodePacked(addressToSymbol[_addr]) */\n      tag_80\n      swap3\n      add\n      tag_81\n      jump\t// in\n    tag_80:\n      mload(0x40)\n      0x20\n      dup2\n      dup4\n      sub\n      sub\n      dup2\n      mstore\n      swap1\n      0x40\n      mstore\n        /* \"Payment/Currencies.sol\":3127:3178  keccak256(abi.encodePacked(addressToSymbol[_addr])) */\n      dup1\n      mload\n      swap1\n      0x20\n      add\n      keccak256\n        /* \"Payment/Currencies.sol\":3127:3213  keccak256(abi.encodePacked(addressToSymbol[_addr])) != keccak256(abi.encodePacked(\"\")) */\n      eq\n        /* \"Payment/Currencies.sol\":3124:3258  if(keccak256(abi.encodePacked(addressToSymbol[_addr])) != keccak256(abi.encodePacked(\"\")))... */\n      tag_82\n      jumpi\n        /* \"Payment/Currencies.sol\":3228:3258  revert(\"Address already used\") */\n      mload(0x40)\n      0x08c379a000000000000000000000000000000000000000000000000000000000\n      dup2\n      mstore\n        /* \"#utility.yul\":7871:7873   */\n      0x20\n        /* \"Payment/Currencies.sol\":3228:3258  revert(\"Address already used\") */\n      0x04\n      dup3\n      add\n        /* \"#utility.yul\":7853:7874   */\n      mstore\n        /* \"#utility.yul\":7910:7912   */\n      0x14\n        /* \"#utility.yul\":7890:7908   */\n      0x24\n      dup3\n      add\n        /* \"#utility.yul\":7883:7913   */\n      mstore\n        /* \"#utility.yul\":7949:7971   */\n      0x4164647265737320616c72656164792075736564000000000000000000000000\n        /* \"#utility.yul\":7929:7947   */\n      0x44\n      dup3\n      add\n        /* \"#utility.yul\":7922:7972   */\n      mstore\n        /* \"#utility.yul\":7989:8007   */\n      0x64\n      add\n        /* \"Payment/Currencies.sol\":3228:3258  revert(\"Address already used\") */\n      tag_27\n        /* \"#utility.yul\":7669:8013   */\n      jump\n        /* \"Payment/Currencies.sol\":3124:3258  if(keccak256(abi.encodePacked(addressToSymbol[_addr])) != keccak256(abi.encodePacked(\"\")))... */\n    tag_82:\n        /* \"Payment/Currencies.sol\":3310:3328  extcodesize(_addr) */\n      dup3\n      extcodesize\n        /* \"Payment/Currencies.sol\":3344:3353  size == 0 */\n      0xffffffff\n      dup2\n      and\n        /* \"Payment/Currencies.sol\":3271:3282  uint32 size */\n      0x00\n        /* \"Payment/Currencies.sol\":3344:3353  size == 0 */\n      sub\n        /* \"Payment/Currencies.sol\":3341:3392  if(size == 0)... */\n      tag_85\n      jumpi\n        /* \"Payment/Currencies.sol\":3368:3392  revert(\"Not a contract\") */\n      mload(0x40)\n      0x08c379a000000000000000000000000000000000000000000000000000000000\n      dup2\n      mstore\n        /* \"#utility.yul\":8220:8222   */\n      0x20\n        /* \"Payment/Currencies.sol\":3368:3392  revert(\"Not a contract\") */\n      0x04\n      dup3\n      add\n        /* \"#utility.yul\":8202:8223   */\n      mstore\n        /* \"#utility.yul\":8259:8261   */\n      0x0e\n        /* \"#utility.yul\":8239:8257   */\n      0x24\n      dup3\n      add\n        /* \"#utility.yul\":8232:8262   */\n      mstore\n        /* \"#utility.yul\":8298:8314   */\n      0x4e6f74206120636f6e7472616374000000000000000000000000000000000000\n        /* \"#utility.yul\":8278:8296   */\n      0x44\n      dup3\n      add\n        /* \"#utility.yul\":8271:8315   */\n      mstore\n        /* \"#utility.yul\":8332:8350   */\n      0x64\n      add\n        /* \"Payment/Currencies.sol\":3368:3392  revert(\"Not a contract\") */\n      tag_27\n        /* \"#utility.yul\":8018:8356   */\n      jump\n        /* \"Payment/Currencies.sol\":3341:3392  if(size == 0)... */\n    tag_85:\n        /* \"Payment/Currencies.sol\":3405:3421  string memory sb */\n      0x00\n        /* \"Payment/Currencies.sol\":3431:3436  _addr */\n      dup5\n        /* \"Payment/Currencies.sol\":3424:3444  IERC20(_addr).symbol */\n      0xffffffffffffffffffffffffffffffffffffffff\n      and\n      0x95d89b41\n        /* \"Payment/Currencies.sol\":3424:3446  IERC20(_addr).symbol() */\n      mload(0x40)\n      dup2\n      0xffffffff\n      and\n      0xe0\n      shl\n      dup2\n      mstore\n      0x04\n      add\n      0x00\n      mload(0x40)\n      dup1\n      dup4\n      sub\n      dup2\n      dup7\n      gas\n      staticcall\n      iszero\n      dup1\n      iszero\n      tag_89\n      jumpi\n      returndatasize\n      0x00\n      dup1\n      returndatacopy\n      revert(0x00, returndatasize)\n    tag_89:\n      pop\n      pop\n      pop\n      pop\n      mload(0x40)\n      returndatasize\n      0x00\n      dup3\n      returndatacopy\n      0x1f\n      returndatasize\n      swap1\n      dup2\n      add\n      0xffffffffffffffffffffffffffffffffffffffffffffffffffffffffffffffe0\n      and\n      dup3\n      add\n      0x40\n      mstore\n      tag_90\n      swap2\n      swap1\n      dup2\n      add\n      swap1\n      tag_91\n      jump\t// in\n    tag_90:\n        /* \"Payment/Currencies.sol\":3405:3446  string memory sb = IERC20(_addr).symbol() */\n      swap1\n      pop\n        /* \"Payment/Currencies.sol\":3529:3531  sb */\n      dup1\n        /* \"Payment/Currencies.sol\":3512:3532  abi.encodePacked(sb) */\n      add(0x20, mload(0x40))\n      tag_92\n      swap2\n      swap1\n      tag_93\n      jump\t// in\n    tag_92:\n      mload(0x40)\n      0x20\n      dup2\n      dup4\n      sub\n      sub\n      dup2\n      mstore\n      swap1\n      0x40\n      mstore\n        /* \"Payment/Currencies.sol\":3502:3533  keccak256(abi.encodePacked(sb)) */\n      dup1\n      mload\n      swap1\n      0x20\n      add\n      keccak256\n        /* \"Payment/Currencies.sol\":3489:3496  _symbol */\n      dup8\n      dup8\n        /* \"Payment/Currencies.sol\":3472:3497  abi.encodePacked(_symbol) */\n      add(0x20, mload(0x40))\n      tag_94\n      swap3\n      swap2\n      swap1\n      tag_73\n      jump\t// in\n    tag_94:\n      mload(0x40)\n      0x20\n      dup2\n      dup4\n      sub\n      sub\n      dup2\n      mstore\n      swap1\n      0x40\n      mstore\n        /* \"Payment/Currencies.sol\":3462:3498  keccak256(abi.encodePacked(_symbol)) */\n      dup1\n      mload\n      swap1\n      0x20\n      add\n      keccak256\n        /* \"Payment/Currencies.sol\":3462:3533  keccak256(abi.encodePacked(_symbol)) != keccak256(abi.encodePacked(sb)) */\n      eq\n        /* \"Payment/Currencies.sol\":3459:3573  if(keccak256(abi.encodePacked(_symbol)) != keccak256(abi.encodePacked(sb)))... */\n      tag_95\n      jumpi\n        /* \"Payment/Currencies.sol\":3548:3573  revert(\"Symbol mismatch\") */\n      mload(0x40)\n      0x08c379a000000000000000000000000000000000000000000000000000000000\n      dup2\n      mstore\n        /* \"#utility.yul\":10007:10009   */\n      0x20\n        /* \"Payment/Currencies.sol\":3548:3573  revert(\"Symbol mismatch\") */\n      0x04\n      dup3\n      add\n        /* \"#utility.yul\":9989:10010   */\n      mstore\n        /* \"#utility.yul\":10046:10048   */\n      0x0f\n        /* \"#utility.yul\":10026:10044   */\n      0x24\n      dup3\n      add\n        /* \"#utility.yul\":10019:10049   */\n      mstore\n        /* \"#utility.yul\":10085:10102   */\n      0x53796d626f6c206d69736d617463680000000000000000000000000000000000\n        /* \"#utility.yul\":10065:10083   */\n      0x44\n      dup3\n      add\n        /* \"#utility.yul\":10058:10103   */\n      mstore\n        /* \"#utility.yul\":10120:10138   */\n      0x64\n      add\n        /* \"Payment/Currencies.sol\":3548:3573  revert(\"Symbol mismatch\") */\n      tag_27\n        /* \"#utility.yul\":9805:10144   */\n      jump\n        /* \"Payment/Currencies.sol\":3459:3573  if(keccak256(abi.encodePacked(_symbol)) != keccak256(abi.encodePacked(sb)))... */\n    tag_95:\n        /* \"Payment/Currencies.sol\":3613:3618  _addr */\n      dup5\n        /* \"Payment/Currencies.sol\":3586:3601  symbolToAddress */\n      0x01\n        /* \"Payment/Currencies.sol\":3602:3609  _symbol */\n      dup9\n      dup9\n        /* \"Payment/Currencies.sol\":3586:3610  symbolToAddress[_symbol] */\n      mload(0x40)\n      tag_98\n      swap3\n      swap2\n      swap1\n      tag_73\n      jump\t// in\n    tag_98:\n      swap1\n      dup2\n      mstore\n      0x40\n      dup1\n      mload\n      0x20\n      swap3\n      dup2\n      swap1\n      sub\n      dup4\n      add\n      swap1\n      keccak256\n        /* \"Payment/Currencies.sol\":3586:3618  symbolToAddress[_symbol] = _addr */\n      dup1\n      sload\n      0xffffffffffffffffffffffff0000000000000000000000000000000000000000\n      and\n      0xffffffffffffffffffffffffffffffffffffffff\n      swap5\n      dup6\n      and\n      or\n      swap1\n      sstore\n        /* \"Payment/Currencies.sol\":3629:3651  addressToSymbol[_addr] */\n      swap2\n      dup8\n      and\n      0x00\n      swap1\n      dup2\n      mstore\n        /* \"Payment/Currencies.sol\":3629:3644  addressToSymbol */\n      0x02\n        /* \"Payment/Currencies.sol\":3629:3651  addressToSymbol[_addr] */\n      swap1\n      swap2\n      mstore\n      keccak256\n        /* \"Payment/Currencies.sol\":3629:3661  addressToSymbol[_addr] = _symbol */\n      tag_99\n        /* \"Payment/Currencies.sol\":3654:3661  _symbol */\n      dup8\n      dup10\n        /* \"Payment/Currencies.sol\":3629:3651  addressToSymbol[_addr] */\n      dup4\n        /* \"Payment/Currencies.sol\":3629:3661  addressToSymbol[_addr] = _symbol */\n      tag_100\n      jump\t// in\n    tag_99:\n      pop\n        /* \"Payment/Currencies.sol\":3674:3684  currencies */\n      0x00\n        /* \"Payment/Currencies.sol\":3674:3698  currencies.push(_symbol) */\n      dup1\n      sload\n      0x01\n      dup2\n      add\n      dup3\n      sstore\n      swap1\n      dup1\n      mstore\n      0x290decd9548b62a8d60345a988386fc84ba6bc95484008f6362f93160ef3e563\n      add\n      tag_102\n        /* \"Payment/Currencies.sol\":3690:3697  _symbol */\n      dup8\n      dup10\n        /* \"Payment/Currencies.sol\":3674:3698  currencies.push(_symbol) */\n      dup4\n      tag_100\n      jump\t// in\n    tag_102:\n      pop\n        /* \"Payment/Currencies.sol\":3716:3739  CurrencyAddition(_addr) */\n      mload(0x40)\n      0xffffffffffffffffffffffffffffffffffffffff\n      dup7\n      and\n      swap1\n      0x2014b559c1ee999c8f4c928818d91e9e88aa4e2cceeaec16156472ab9e1c9adc\n      swap1\n      0x00\n      swap1\n      log2\n      pop\n        /* \"Payment/Currencies.sol\":3757:3761  true */\n      0x01\n      swap7\n        /* \"Payment/Currencies.sol\":2871:3770  function AddCurrency(string calldata _symbol, address _addr) public ownerOnly returns(bool){... */\n      swap6\n      pop\n      pop\n      pop\n      pop\n      pop\n      pop\n      jump\t// out\n        /* \"Payment/Currencies.sol\":3778:4501  function RemoveCurrency(string calldata _symbol) public ownerOnly returns(bool){... */\n    tag_45:\n        /* \"Payment/Currencies.sol\":3852:3856  bool */\n      0x00\n        /* \"Payment/Currencies.sol\":1960:1970  msg.sender */\n      caller\n        /* \"Payment/Currencies.sol\":1946:1970  pt.Owner() != msg.sender */\n      0xffffffffffffffffffffffffffffffffffffffff\n      and\n        /* \"Payment/Currencies.sol\":975:1017  0x163342FAe2bBe3303e5A9ADCe4BC9fb44d0FF062 */\n      0x163342fae2bbe3303e5a9adce4bc9fb44d0ff062\n        /* \"Payment/Currencies.sol\":1946:1954  pt.Owner */\n      0xffffffffffffffffffffffffffffffffffffffff\n      and\n      0xb4a99a4e\n        /* \"Payment/Currencies.sol\":1946:1956  pt.Owner() */\n      mload(0x40)\n      dup2\n      0xffffffff\n      and\n      0xe0\n      shl\n      dup2\n      mstore\n      0x04\n      add\n      0x20\n      mload(0x40)\n      dup1\n      dup4\n      sub\n      dup2\n      dup7\n      gas\n      staticcall\n      iszero\n      dup1\n      iszero\n      tag_105\n      jumpi\n      returndatasize\n      0x00\n      dup1\n      returndatacopy\n      revert(0x00, returndatasize)\n    tag_105:\n      pop\n      pop\n      pop\n      pop\n      mload(0x40)\n      returndatasize\n      not(0x1f)\n      0x1f\n      dup3\n      add\n      and\n      dup3\n      add\n      dup1\n      0x40\n      mstore\n      pop\n      dup2\n      add\n      swap1\n      tag_106\n      swap2\n      swap1\n      tag_18\n      jump\t// in\n    tag_106:\n        /* \"Payment/Currencies.sol\":1946:1970  pt.Owner() != msg.sender */\n      0xffffffffffffffffffffffffffffffffffffffff\n      and\n      eq\n        /* \"Payment/Currencies.sol\":1943:2005  if(pt.Owner() != msg.sender)... */\n      tag_107\n      jumpi\n        /* \"Payment/Currencies.sol\":1985:2005  revert(\"Owner only\") */\n      mload(0x40)\n      0x08c379a000000000000000000000000000000000000000000000000000000000\n      dup2\n      mstore\n        /* \"#utility.yul\":5222:5224   */\n      0x20\n        /* \"Payment/Currencies.sol\":1985:2005  revert(\"Owner only\") */\n      0x04\n      dup3\n      add\n        /* \"#utility.yul\":5204:5225   */\n      mstore\n        /* \"#utility.yul\":5261:5263   */\n      0x0a\n        /* \"#utility.yul\":5241:5259   */\n      0x24\n      dup3\n      add\n        /* \"#utility.yul\":5234:5264   */\n      mstore\n        /* \"#utility.yul\":5300:5312   */\n      0x4f776e6572206f6e6c7900000000000000000000000000000000000000000000\n        /* \"#utility.yul\":5280:5298   */\n      0x44\n      dup3\n      add\n        /* \"#utility.yul\":5273:5313   */\n      mstore\n        /* \"#utility.yul\":5330:5348   */\n      0x64\n      add\n        /* \"Payment/Currencies.sol\":1985:2005  revert(\"Owner only\") */\n      tag_27\n        /* \"#utility.yul\":5020:5354   */\n      jump\n        /* \"Payment/Currencies.sol\":1943:2005  if(pt.Owner() != msg.sender)... */\n    tag_107:\n        /* \"Payment/Currencies.sol\":3870:3890  address tokenAddress */\n      0x00\n        /* \"Payment/Currencies.sol\":3893:3908  symbolToAddress */\n      0x01\n        /* \"Payment/Currencies.sol\":3909:3916  _symbol */\n      dup5\n      dup5\n        /* \"Payment/Currencies.sol\":3893:3917  symbolToAddress[_symbol] */\n      mload(0x40)\n      tag_110\n      swap3\n      swap2\n      swap1\n      tag_73\n      jump\t// in\n    tag_110:\n      swap1\n      dup2\n      mstore\n      mload(0x40)\n      swap1\n      dup2\n      swap1\n      sub\n      0x20\n      add\n      swap1\n      keccak256\n      sload\n      0xffffffffffffffffffffffffffffffffffffffff\n      and\n      swap1\n      pop\n      dup1\n        /* \"Payment/Currencies.sol\":3930:3999  if(tokenAddress == address(0))... */\n      tag_111\n      jumpi\n        /* \"Payment/Currencies.sol\":3974:3999  revert(\"Symbol not used\") */\n      mload(0x40)\n      0x08c379a000000000000000000000000000000000000000000000000000000000\n      dup2\n      mstore\n        /* \"#utility.yul\":12462:12464   */\n      0x20\n        /* \"Payment/Currencies.sol\":3974:3999  revert(\"Symbol not used\") */\n      0x04\n      dup3\n      add\n        /* \"#utility.yul\":12444:12465   */\n      mstore\n        /* \"#utility.yul\":12501:12503   */\n      0x0f\n        /* \"#utility.yul\":12481:12499   */\n      0x24\n      dup3\n      add\n        /* \"#utility.yul\":12474:12504   */\n      mstore\n        /* \"#utility.yul\":12540:12557   */\n      0x53796d626f6c206e6f7420757365640000000000000000000000000000000000\n        /* \"#utility.yul\":12520:12538   */\n      0x44\n      dup3\n      add\n        /* \"#utility.yul\":12513:12558   */\n      mstore\n        /* \"#utility.yul\":12575:12593   */\n      0x64\n      add\n        /* \"Payment/Currencies.sol\":3974:3999  revert(\"Symbol not used\") */\n      tag_27\n        /* \"#utility.yul\":12260:12599   */\n      jump\n        /* \"Payment/Currencies.sol\":3930:3999  if(tokenAddress == address(0))... */\n    tag_111:\n        /* \"Payment/Currencies.sol\":4027:4056  addressToSymbol[tokenAddress] */\n      0xffffffffffffffffffffffffffffffffffffffff\n      dup2\n      and\n      0x00\n      swap1\n      dup2\n      mstore\n        /* \"Payment/Currencies.sol\":4027:4042  addressToSymbol */\n      0x02\n        /* \"Payment/Currencies.sol\":4027:4056  addressToSymbol[tokenAddress] */\n      0x20\n      mstore\n      0x40\n      dup2\n      keccak256\n        /* \"Payment/Currencies.sol\":4020:4056  delete addressToSymbol[tokenAddress] */\n      tag_114\n      swap2\n      tag_115\n      jump\t// in\n    tag_114:\n        /* \"Payment/Currencies.sol\":4074:4089  symbolToAddress */\n      0x01\n        /* \"Payment/Currencies.sol\":4090:4097  _symbol */\n      dup5\n      dup5\n        /* \"Payment/Currencies.sol\":4074:4098  symbolToAddress[_symbol] */\n      mload(0x40)\n      tag_116\n      swap3\n      swap2\n      swap1\n      tag_73\n      jump\t// in\n    tag_116:\n      swap1\n      dup2\n      mstore\n      mload(0x40)\n      swap1\n      dup2\n      swap1\n      sub\n      0x20\n      add\n      swap1\n      keccak256\n        /* \"Payment/Currencies.sol\":4067:4098  delete symbolToAddress[_symbol] */\n      dup1\n      sload\n      0xffffffffffffffffffffffff0000000000000000000000000000000000000000\n      and\n      swap1\n      sstore\n        /* \"Payment/Currencies.sol\":4074:4098  symbolToAddress[_symbol] */\n      0x00\n        /* \"Payment/Currencies.sol\":4125:4142  currencies.length */\n      dup1\n      sload\n      swap1\n        /* \"Payment/Currencies.sol\":4155:4395  for(uint256 i = 0; i < lng; i++){... */\n    tag_117:\n        /* \"Payment/Currencies.sol\":4178:4181  lng */\n      dup2\n        /* \"Payment/Currencies.sol\":4174:4175  i */\n      dup2\n        /* \"Payment/Currencies.sol\":4174:4181  i < lng */\n      lt\n        /* \"Payment/Currencies.sol\":4155:4395  for(uint256 i = 0; i < lng; i++){... */\n      iszero\n      tag_118\n      jumpi\n        /* \"Payment/Currencies.sol\":4274:4284  currencies */\n      0x00\n        /* \"Payment/Currencies.sol\":4285:4286  i */\n      dup2\n        /* \"Payment/Currencies.sol\":4274:4287  currencies[i] */\n      dup2\n      sload\n      dup2\n      lt\n      tag_121\n      jumpi\n      tag_121\n      tag_122\n      jump\t// in\n    tag_121:\n      swap1\n      0x00\n      mstore\n      keccak256(0x00, 0x20)\n      add\n        /* \"Payment/Currencies.sol\":4257:4288  abi.encodePacked(currencies[i]) */\n      add(0x20, mload(0x40))\n      tag_124\n      swap2\n      swap1\n      tag_81\n      jump\t// in\n    tag_124:\n      mload(0x40)\n      0x20\n      dup2\n      dup4\n      sub\n      sub\n      dup2\n      mstore\n      swap1\n      0x40\n      mstore\n        /* \"Payment/Currencies.sol\":4247:4289  keccak256(abi.encodePacked(currencies[i])) */\n      dup1\n      mload\n      swap1\n      0x20\n      add\n      keccak256\n        /* \"Payment/Currencies.sol\":4234:4241  _symbol */\n      dup7\n      dup7\n        /* \"Payment/Currencies.sol\":4217:4242  abi.encodePacked(_symbol) */\n      add(0x20, mload(0x40))\n      tag_125\n      swap3\n      swap2\n      swap1\n      tag_73\n      jump\t// in\n    tag_125:\n      mload(0x40)\n      0x20\n      dup2\n      dup4\n      sub\n      sub\n      dup2\n      mstore\n      swap1\n      0x40\n      mstore\n        /* \"Payment/Currencies.sol\":4207:4243  keccak256(abi.encodePacked(_symbol)) */\n      dup1\n      mload\n      swap1\n      0x20\n      add\n      keccak256\n        /* \"Payment/Currencies.sol\":4207:4289  keccak256(abi.encodePacked(_symbol)) == keccak256(abi.encodePacked(currencies[i])) */\n      sub\n        /* \"Payment/Currencies.sol\":4204:4384  if(keccak256(abi.encodePacked(_symbol)) == keccak256(abi.encodePacked(currencies[i]))){... */\n      tag_126\n      jumpi\n        /* \"Payment/Currencies.sol\":4327:4337  currencies */\n      0x00\n        /* \"Payment/Currencies.sol\":4338:4343  lng-1 */\n      tag_127\n        /* \"Payment/Currencies.sol\":4342:4343  1 */\n      0x01\n        /* \"Payment/Currencies.sol\":4338:4341  lng */\n      dup5\n        /* \"Payment/Currencies.sol\":4338:4343  lng-1 */\n      tag_128\n      jump\t// in\n    tag_127:\n        /* \"Payment/Currencies.sol\":4327:4344  currencies[lng-1] */\n      dup2\n      sload\n      dup2\n      lt\n      tag_130\n      jumpi\n      tag_130\n      tag_122\n      jump\t// in\n    tag_130:\n      swap1\n      0x00\n      mstore\n      keccak256(0x00, 0x20)\n      add\n        /* \"Payment/Currencies.sol\":4311:4321  currencies */\n      0x00\n        /* \"Payment/Currencies.sol\":4322:4323  i */\n      dup3\n        /* \"Payment/Currencies.sol\":4311:4324  currencies[i] */\n      dup2\n      sload\n      dup2\n      lt\n      tag_133\n      jumpi\n      tag_133\n      tag_122\n      jump\t// in\n    tag_133:\n      swap1\n      0x00\n      mstore\n      keccak256(0x00, 0x20)\n      add\n        /* \"Payment/Currencies.sol\":4311:4344  currencies[i] = currencies[lng-1] */\n      swap1\n      dup2\n      tag_135\n      swap2\n      swap1\n      tag_136\n      jump\t// in\n    tag_135:\n      pop\n        /* \"Payment/Currencies.sol\":4363:4368  break */\n      jump(tag_118)\n        /* \"Payment/Currencies.sol\":4204:4384  if(keccak256(abi.encodePacked(_symbol)) == keccak256(abi.encodePacked(currencies[i]))){... */\n    tag_126:\n        /* \"Payment/Currencies.sol\":4183:4186  i++ */\n      dup1\n      tag_137\n      dup2\n      tag_138\n      jump\t// in\n    tag_137:\n      swap2\n      pop\n      pop\n        /* \"Payment/Currencies.sol\":4155:4395  for(uint256 i = 0; i < lng; i++){... */\n      jump(tag_117)\n    tag_118:\n      pop\n        /* \"Payment/Currencies.sol\":4407:4417  currencies */\n      0x00\n        /* \"Payment/Currencies.sol\":4407:4423  currencies.pop() */\n      dup1\n      sload\n      dup1\n      tag_140\n      jumpi\n      tag_140\n      tag_141\n      jump\t// in\n    tag_140:\n      0x01\n      swap1\n      sub\n      dup2\n      dup2\n      swap1\n      0x00\n      mstore\n      keccak256(0x00, 0x20)\n      add\n      0x00\n      tag_143\n      swap2\n      swap1\n      tag_115\n      jump\t// in\n    tag_143:\n      swap1\n      sstore\n        /* \"Payment/Currencies.sol\":4441:4470  CurrencyRemoval(tokenAddress) */\n      mload(0x40)\n      0xffffffffffffffffffffffffffffffffffffffff\n      dup4\n      and\n      swap1\n      0x22bc03fb7deb05fc0b86d22d74c307475ea4e7c8d142961ebc727459121fed0f\n      swap1\n      0x00\n      swap1\n      log2\n        /* \"Payment/Currencies.sol\":4488:4492  true */\n      0x01\n        /* \"Payment/Currencies.sol\":4481:4493  return(true) */\n      swap3\n      pop\n      pop\n      pop\n        /* \"Payment/Currencies.sol\":2018:2019  _ */\n    tag_109:\n        /* \"Payment/Currencies.sol\":3778:4501  function RemoveCurrency(string calldata _symbol) public ownerOnly returns(bool){... */\n      swap3\n      swap2\n      pop\n      pop\n      jump\t// out\n        /* \"Payment/Currencies.sol\":2527:2653  function GetCurrencySymbol(address _addr) public view returns(string memory){... */\n    tag_51:\n        /* \"Payment/Currencies.sol\":2623:2645  addressToSymbol[_addr] */\n      0xffffffffffffffffffffffffffffffffffffffff\n      dup2\n      and\n      0x00\n      swap1\n      dup2\n      mstore\n        /* \"Payment/Currencies.sol\":2623:2638  addressToSymbol */\n      0x02\n        /* \"Payment/Currencies.sol\":2623:2645  addressToSymbol[_addr] */\n      0x20\n      mstore\n      0x40\n      swap1\n      keccak256\n        /* \"Payment/Currencies.sol\":2616:2645  return addressToSymbol[_addr] */\n      dup1\n      sload\n        /* \"Payment/Currencies.sol\":2589:2602  string memory */\n      0x60\n      swap2\n        /* \"Payment/Currencies.sol\":2623:2645  addressToSymbol[_addr] */\n      swap1\n        /* \"Payment/Currencies.sol\":2616:2645  return addressToSymbol[_addr] */\n      tag_145\n      swap1\n      tag_146\n      jump\t// in\n    tag_145:\n      dup1\n      0x1f\n      add\n      0x20\n      dup1\n      swap2\n      div\n      mul\n      0x20\n      add\n      mload(0x40)\n      swap1\n      dup2\n      add\n      0x40\n      mstore\n      dup1\n      swap3\n      swap2\n      swap1\n      dup2\n      dup2\n      mstore\n      0x20\n      add\n      dup3\n      dup1\n      sload\n      tag_147\n      swap1\n      tag_146\n      jump\t// in\n    tag_147:\n      dup1\n      iszero\n      tag_148\n      jumpi\n      dup1\n      0x1f\n      lt\n      tag_149\n      jumpi\n      0x0100\n      dup1\n      dup4\n      sload\n      div\n      mul\n      dup4\n      mstore\n      swap2\n      0x20\n      add\n      swap2\n      jump(tag_148)\n    tag_149:\n      dup3\n      add\n      swap2\n      swap1\n      0x00\n      mstore\n      keccak256(0x00, 0x20)\n      swap1\n    tag_150:\n      dup2\n      sload\n      dup2\n      mstore\n      swap1\n      0x01\n      add\n      swap1\n      0x20\n      add\n      dup1\n      dup4\n      gt\n      tag_150\n      jumpi\n      dup3\n      swap1\n      sub\n      0x1f\n      and\n      dup3\n      add\n      swap2\n    tag_148:\n      pop\n      pop\n      pop\n      pop\n      pop\n      swap1\n      pop\n        /* \"Payment/Currencies.sol\":2527:2653  function GetCurrencySymbol(address _addr) public view returns(string memory){... */\n      swap2\n      swap1\n      pop\n      jump\t// out\n        /* \"Payment/Currencies.sol\":2667:2769  function GetCurrencyList() public view returns(string[] memory){... */\n    tag_55:\n        /* \"Payment/Currencies.sol\":2714:2729  string[] memory */\n      0x60\n        /* \"Payment/Currencies.sol\":2750:2760  currencies */\n      0x00\n        /* \"Payment/Currencies.sol\":2743:2761  return(currencies) */\n      dup1\n      sload\n      dup1\n      0x20\n      mul\n      0x20\n      add\n      mload(0x40)\n      swap1\n      dup2\n      add\n      0x40\n      mstore\n      dup1\n      swap3\n      swap2\n      swap1\n      dup2\n      dup2\n      mstore\n      0x20\n      add\n      0x00\n      swap1\n    tag_152:\n      dup3\n      dup3\n      lt\n      iszero\n      tag_153\n      jumpi\n      dup4\n      dup3\n      swap1\n      0x00\n      mstore\n      keccak256(0x00, 0x20)\n      add\n      dup1\n      sload\n      tag_155\n      swap1\n      tag_146\n      jump\t// in\n    tag_155:\n      dup1\n      0x1f\n      add\n      0x20\n      dup1\n      swap2\n      div\n      mul\n      0x20\n      add\n      mload(0x40)\n      swap1\n      dup2\n      add\n      0x40\n      mstore\n      dup1\n      swap3\n      swap2\n      swap1\n      dup2\n      dup2\n      mstore\n      0x20\n      add\n      dup3\n      dup1\n      sload\n      tag_156\n      swap1\n      tag_146\n      jump\t// in\n    tag_156:\n      dup1\n      iszero\n      tag_157\n      jumpi\n      dup1\n      0x1f\n      lt\n      tag_158\n      jumpi\n      0x0100\n      dup1\n      dup4\n      sload\n      div\n      mul\n      dup4\n      mstore\n      swap2\n      0x20\n      add\n      swap2\n      jump(tag_157)\n    tag_158:\n      dup3\n      add\n      swap2\n      swap1\n      0x00\n      mstore\n      keccak256(0x00, 0x20)\n      swap1\n    tag_159:\n      dup2\n      sload\n      dup2\n      mstore\n      swap1\n      0x01\n      add\n      swap1\n      0x20\n      add\n      dup1\n      dup4\n      gt\n      tag_159\n      jumpi\n      dup3\n      swap1\n      sub\n      0x1f\n      and\n      dup3\n      add\n      swap2\n    tag_157:\n      pop\n      pop\n      pop\n      pop\n      pop\n      dup2\n      mstore\n      0x20\n      add\n      swap1\n      0x01\n      add\n      swap1\n      jump(tag_152)\n    tag_153:\n      pop\n      pop\n      pop\n      pop\n      swap1\n      pop\n        /* \"Payment/Currencies.sol\":2667:2769  function GetCurrencyList() public view returns(string[] memory){... */\n      swap1\n      jump\t// out\n        /* \"Payment/Currencies.sol\":2386:2519  function GetCurrencyAddress(string calldata _symbol) public view returns(address){... */\n    tag_61:\n        /* \"Payment/Currencies.sol\":2459:2466  address */\n      0x00\n        /* \"Payment/Currencies.sol\":2487:2502  symbolToAddress */\n      0x01\n        /* \"Payment/Currencies.sol\":2503:2510  _symbol */\n      dup4\n      dup4\n        /* \"Payment/Currencies.sol\":2487:2511  symbolToAddress[_symbol] */\n      mload(0x40)\n      tag_161\n      swap3\n      swap2\n      swap1\n      tag_73\n      jump\t// in\n    tag_161:\n      swap1\n      dup2\n      mstore\n      mload(0x40)\n      swap1\n      dup2\n      swap1\n      sub\n      0x20\n      add\n      swap1\n      keccak256\n      sload\n      0xffffffffffffffffffffffffffffffffffffffff\n      and\n      swap1\n      pop\n        /* \"Payment/Currencies.sol\":2386:2519  function GetCurrencyAddress(string calldata _symbol) public view returns(address){... */\n      swap3\n      swap2\n      pop\n      pop\n      jump\t// out\n    tag_115:\n      pop\n      dup1\n      sload\n      tag_162\n      swap1\n      tag_146\n      jump\t// in\n    tag_162:\n      0x00\n      dup3\n      sstore\n      dup1\n      0x1f\n      lt\n      tag_164\n      jumpi\n      pop\n      pop\n      jump\t// out\n    tag_164:\n      0x1f\n      add\n      0x20\n      swap1\n      div\n      swap1\n      0x00\n      mstore\n      keccak256(0x00, 0x20)\n      swap1\n      dup2\n      add\n      swap1\n      tag_165\n      swap2\n      swap1\n      tag_166\n      jump\t// in\n    tag_165:\n      pop\n      jump\t// out\n    tag_166:\n    tag_167:\n      dup1\n      dup3\n      gt\n      iszero\n      tag_168\n      jumpi\n      0x00\n      dup2\n      sstore\n      0x01\n      add\n      jump(tag_167)\n    tag_168:\n      pop\n      swap1\n      jump\t// out\n        /* \"#utility.yul\":361:515   */\n    tag_169:\n        /* \"#utility.yul\":447:489   */\n      0xffffffffffffffffffffffffffffffffffffffff\n        /* \"#utility.yul\":440:445   */\n      dup2\n        /* \"#utility.yul\":436:490   */\n      and\n        /* \"#utility.yul\":429:434   */\n      dup2\n        /* \"#utility.yul\":426:491   */\n      eq\n        /* \"#utility.yul\":416:509   */\n      tag_165\n      jumpi\n        /* \"#utility.yul\":505:506   */\n      0x00\n        /* \"#utility.yul\":502:503   */\n      dup1\n        /* \"#utility.yul\":495:507   */\n      revert\n        /* \"#utility.yul\":520:771   */\n    tag_18:\n        /* \"#utility.yul\":590:596   */\n      0x00\n        /* \"#utility.yul\":643:645   */\n      0x20\n        /* \"#utility.yul\":631:640   */\n      dup3\n        /* \"#utility.yul\":622:629   */\n      dup5\n        /* \"#utility.yul\":618:641   */\n      sub\n        /* \"#utility.yul\":614:646   */\n      slt\n        /* \"#utility.yul\":611:663   */\n      iszero\n      tag_183\n      jumpi\n        /* \"#utility.yul\":659:660   */\n      0x00\n        /* \"#utility.yul\":656:657   */\n      dup1\n        /* \"#utility.yul\":649:661   */\n      revert\n        /* \"#utility.yul\":611:663   */\n    tag_183:\n        /* \"#utility.yul\":691:700   */\n      dup2\n        /* \"#utility.yul\":685:701   */\n      mload\n        /* \"#utility.yul\":710:741   */\n      tag_184\n        /* \"#utility.yul\":735:740   */\n      dup2\n        /* \"#utility.yul\":710:741   */\n      tag_169\n      jump\t// in\n    tag_184:\n        /* \"#utility.yul\":760:765   */\n      swap4\n        /* \"#utility.yul\":520:771   */\n      swap3\n      pop\n      pop\n      pop\n      jump\t// out\n        /* \"#utility.yul\":1343:1691   */\n    tag_170:\n        /* \"#utility.yul\":1395:1403   */\n      0x00\n        /* \"#utility.yul\":1405:1411   */\n      dup1\n        /* \"#utility.yul\":1459:1462   */\n      dup4\n        /* \"#utility.yul\":1452:1456   */\n      0x1f\n        /* \"#utility.yul\":1444:1450   */\n      dup5\n        /* \"#utility.yul\":1440:1457   */\n      add\n        /* \"#utility.yul\":1436:1463   */\n      slt\n        /* \"#utility.yul\":1426:1481   */\n      tag_188\n      jumpi\n        /* \"#utility.yul\":1477:1478   */\n      0x00\n        /* \"#utility.yul\":1474:1475   */\n      dup1\n        /* \"#utility.yul\":1467:1479   */\n      revert\n        /* \"#utility.yul\":1426:1481   */\n    tag_188:\n      pop\n        /* \"#utility.yul\":1500:1520   */\n      dup2\n      calldataload\n        /* \"#utility.yul\":1543:1561   */\n      0xffffffffffffffff\n        /* \"#utility.yul\":1532:1562   */\n      dup2\n      gt\n        /* \"#utility.yul\":1529:1579   */\n      iszero\n      tag_189\n      jumpi\n        /* \"#utility.yul\":1575:1576   */\n      0x00\n        /* \"#utility.yul\":1572:1573   */\n      dup1\n        /* \"#utility.yul\":1565:1577   */\n      revert\n        /* \"#utility.yul\":1529:1579   */\n    tag_189:\n        /* \"#utility.yul\":1612:1616   */\n      0x20\n        /* \"#utility.yul\":1604:1610   */\n      dup4\n        /* \"#utility.yul\":1600:1617   */\n      add\n        /* \"#utility.yul\":1588:1617   */\n      swap2\n      pop\n        /* \"#utility.yul\":1664:1667   */\n      dup4\n        /* \"#utility.yul\":1657:1661   */\n      0x20\n        /* \"#utility.yul\":1648:1654   */\n      dup3\n        /* \"#utility.yul\":1640:1646   */\n      dup6\n        /* \"#utility.yul\":1636:1655   */\n      add\n        /* \"#utility.yul\":1632:1662   */\n      add\n        /* \"#utility.yul\":1629:1668   */\n      gt\n        /* \"#utility.yul\":1626:1685   */\n      iszero\n      tag_190\n      jumpi\n        /* \"#utility.yul\":1681:1682   */\n      0x00\n        /* \"#utility.yul\":1678:1679   */\n      dup1\n        /* \"#utility.yul\":1671:1683   */\n      revert\n        /* \"#utility.yul\":1626:1685   */\n    tag_190:\n        /* \"#utility.yul\":1343:1691   */\n      swap3\n      pop\n      swap3\n      swap1\n      pop\n      jump\t// out\n        /* \"#utility.yul\":1696:2242   */\n    tag_32:\n        /* \"#utility.yul\":1776:1782   */\n      0x00\n        /* \"#utility.yul\":1784:1790   */\n      dup1\n        /* \"#utility.yul\":1792:1798   */\n      0x00\n        /* \"#utility.yul\":1845:1847   */\n      0x40\n        /* \"#utility.yul\":1833:1842   */\n      dup5\n        /* \"#utility.yul\":1824:1831   */\n      dup7\n        /* \"#utility.yul\":1820:1843   */\n      sub\n        /* \"#utility.yul\":1816:1848   */\n      slt\n        /* \"#utility.yul\":1813:1865   */\n      iszero\n      tag_192\n      jumpi\n        /* \"#utility.yul\":1861:1862   */\n      0x00\n        /* \"#utility.yul\":1858:1859   */\n      dup1\n        /* \"#utility.yul\":1851:1863   */\n      revert\n        /* \"#utility.yul\":1813:1865   */\n    tag_192:\n        /* \"#utility.yul\":1901:1910   */\n      dup4\n        /* \"#utility.yul\":1888:1911   */\n      calldataload\n        /* \"#utility.yul\":1934:1952   */\n      0xffffffffffffffff\n        /* \"#utility.yul\":1926:1932   */\n      dup2\n        /* \"#utility.yul\":1923:1953   */\n      gt\n        /* \"#utility.yul\":1920:1970   */\n      iszero\n      tag_193\n      jumpi\n        /* \"#utility.yul\":1966:1967   */\n      0x00\n        /* \"#utility.yul\":1963:1964   */\n      dup1\n        /* \"#utility.yul\":1956:1968   */\n      revert\n        /* \"#utility.yul\":1920:1970   */\n    tag_193:\n        /* \"#utility.yul\":2005:2064   */\n      tag_194\n        /* \"#utility.yul\":2056:2063   */\n      dup7\n        /* \"#utility.yul\":2047:2053   */\n      dup3\n        /* \"#utility.yul\":2036:2045   */\n      dup8\n        /* \"#utility.yul\":2032:2054   */\n      add\n        /* \"#utility.yul\":2005:2064   */\n      tag_170\n      jump\t// in\n    tag_194:\n        /* \"#utility.yul\":2083:2091   */\n      swap1\n      swap5\n      pop\n        /* \"#utility.yul\":1979:2064   */\n      swap3\n      pop\n      pop\n        /* \"#utility.yul\":2168:2170   */\n      0x20\n        /* \"#utility.yul\":2153:2171   */\n      dup5\n      add\n        /* \"#utility.yul\":2140:2172   */\n      calldataload\n        /* \"#utility.yul\":2181:2212   */\n      tag_195\n        /* \"#utility.yul\":2140:2172   */\n      dup2\n        /* \"#utility.yul\":2181:2212   */\n      tag_169\n      jump\t// in\n    tag_195:\n        /* \"#utility.yul\":2231:2236   */\n      dup1\n        /* \"#utility.yul\":2221:2236   */\n      swap2\n      pop\n      pop\n        /* \"#utility.yul\":1696:2242   */\n      swap3\n      pop\n      swap3\n      pop\n      swap3\n      jump\t// out\n        /* \"#utility.yul\":2439:2689   */\n    tag_171:\n        /* \"#utility.yul\":2524:2525   */\n      0x00\n        /* \"#utility.yul\":2534:2647   */\n    tag_198:\n        /* \"#utility.yul\":2548:2554   */\n      dup4\n        /* \"#utility.yul\":2545:2546   */\n      dup2\n        /* \"#utility.yul\":2542:2555   */\n      lt\n        /* \"#utility.yul\":2534:2647   */\n      iszero\n      tag_200\n      jumpi\n        /* \"#utility.yul\":2624:2635   */\n      dup2\n      dup2\n      add\n        /* \"#utility.yul\":2618:2636   */\n      mload\n        /* \"#utility.yul\":2605:2616   */\n      dup4\n      dup3\n      add\n        /* \"#utility.yul\":2598:2637   */\n      mstore\n        /* \"#utility.yul\":2570:2572   */\n      0x20\n        /* \"#utility.yul\":2563:2573   */\n      add\n        /* \"#utility.yul\":2534:2647   */\n      jump(tag_198)\n    tag_200:\n      pop\n      pop\n        /* \"#utility.yul\":2681:2682   */\n      0x00\n        /* \"#utility.yul\":2663:2679   */\n      swap2\n      add\n        /* \"#utility.yul\":2656:2683   */\n      mstore\n        /* \"#utility.yul\":2439:2689   */\n      jump\t// out\n        /* \"#utility.yul\":2694:3024   */\n    tag_172:\n        /* \"#utility.yul\":2736:2739   */\n      0x00\n        /* \"#utility.yul\":2774:2779   */\n      dup2\n        /* \"#utility.yul\":2768:2780   */\n      mload\n        /* \"#utility.yul\":2801:2807   */\n      dup1\n        /* \"#utility.yul\":2796:2799   */\n      dup5\n        /* \"#utility.yul\":2789:2808   */\n      mstore\n        /* \"#utility.yul\":2817:2893   */\n      tag_202\n        /* \"#utility.yul\":2886:2892   */\n      dup2\n        /* \"#utility.yul\":2879:2883   */\n      0x20\n        /* \"#utility.yul\":2874:2877   */\n      dup7\n        /* \"#utility.yul\":2870:2884   */\n      add\n        /* \"#utility.yul\":2863:2867   */\n      0x20\n        /* \"#utility.yul\":2856:2861   */\n      dup7\n        /* \"#utility.yul\":2852:2868   */\n      add\n        /* \"#utility.yul\":2817:2893   */\n      tag_171\n      jump\t// in\n    tag_202:\n        /* \"#utility.yul\":2938:2940   */\n      0x1f\n        /* \"#utility.yul\":2926:2941   */\n      add\n        /* \"#utility.yul\":2943:3009   */\n      0xffffffffffffffffffffffffffffffffffffffffffffffffffffffffffffffe0\n        /* \"#utility.yul\":2922:3010   */\n      and\n        /* \"#utility.yul\":2913:3011   */\n      swap3\n      swap1\n      swap3\n      add\n        /* \"#utility.yul\":3013:3017   */\n      0x20\n        /* \"#utility.yul\":2909:3018   */\n      add\n      swap3\n        /* \"#utility.yul\":2694:3024   */\n      swap2\n      pop\n      pop\n      jump\t// out\n        /* \"#utility.yul\":3029:3249   */\n    tag_40:\n        /* \"#utility.yul\":3178:3180   */\n      0x20\n        /* \"#utility.yul\":3167:3176   */\n      dup2\n        /* \"#utility.yul\":3160:3181   */\n      mstore\n        /* \"#utility.yul\":3141:3145   */\n      0x00\n        /* \"#utility.yul\":3198:3243   */\n      tag_184\n        /* \"#utility.yul\":3239:3241   */\n      0x20\n        /* \"#utility.yul\":3228:3237   */\n      dup4\n        /* \"#utility.yul\":3224:3242   */\n      add\n        /* \"#utility.yul\":3216:3222   */\n      dup5\n        /* \"#utility.yul\":3198:3243   */\n      tag_172\n      jump\t// in\n        /* \"#utility.yul\":3254:3665   */\n    tag_44:\n        /* \"#utility.yul\":3325:3331   */\n      0x00\n        /* \"#utility.yul\":3333:3339   */\n      dup1\n        /* \"#utility.yul\":3386:3388   */\n      0x20\n        /* \"#utility.yul\":3374:3383   */\n      dup4\n        /* \"#utility.yul\":3365:3372   */\n      dup6\n        /* \"#utility.yul\":3361:3384   */\n      sub\n        /* \"#utility.yul\":3357:3389   */\n      slt\n        /* \"#utility.yul\":3354:3406   */\n      iszero\n      tag_206\n      jumpi\n        /* \"#utility.yul\":3402:3403   */\n      0x00\n        /* \"#utility.yul\":3399:3400   */\n      dup1\n        /* \"#utility.yul\":3392:3404   */\n      revert\n        /* \"#utility.yul\":3354:3406   */\n    tag_206:\n        /* \"#utility.yul\":3442:3451   */\n      dup3\n        /* \"#utility.yul\":3429:3452   */\n      calldataload\n        /* \"#utility.yul\":3475:3493   */\n      0xffffffffffffffff\n        /* \"#utility.yul\":3467:3473   */\n      dup2\n        /* \"#utility.yul\":3464:3494   */\n      gt\n        /* \"#utility.yul\":3461:3511   */\n      iszero\n      tag_207\n      jumpi\n        /* \"#utility.yul\":3507:3508   */\n      0x00\n        /* \"#utility.yul\":3504:3505   */\n      dup1\n        /* \"#utility.yul\":3497:3509   */\n      revert\n        /* \"#utility.yul\":3461:3511   */\n    tag_207:\n        /* \"#utility.yul\":3546:3605   */\n      tag_208\n        /* \"#utility.yul\":3597:3604   */\n      dup6\n        /* \"#utility.yul\":3588:3594   */\n      dup3\n        /* \"#utility.yul\":3577:3586   */\n      dup7\n        /* \"#utility.yul\":3573:3595   */\n      add\n        /* \"#utility.yul\":3546:3605   */\n      tag_170\n      jump\t// in\n    tag_208:\n        /* \"#utility.yul\":3624:3632   */\n      swap1\n      swap7\n        /* \"#utility.yul\":3520:3605   */\n      swap1\n      swap6\n      pop\n        /* \"#utility.yul\":3254:3665   */\n      swap4\n      pop\n      pop\n      pop\n      pop\n      jump\t// out\n        /* \"#utility.yul\":3670:3917   */\n    tag_50:\n        /* \"#utility.yul\":3729:3735   */\n      0x00\n        /* \"#utility.yul\":3782:3784   */\n      0x20\n        /* \"#utility.yul\":3770:3779   */\n      dup3\n        /* \"#utility.yul\":3761:3768   */\n      dup5\n        /* \"#utility.yul\":3757:3780   */\n      sub\n        /* \"#utility.yul\":3753:3785   */\n      slt\n        /* \"#utility.yul\":3750:3802   */\n      iszero\n      tag_210\n      jumpi\n        /* \"#utility.yul\":3798:3799   */\n      0x00\n        /* \"#utility.yul\":3795:3796   */\n      dup1\n        /* \"#utility.yul\":3788:3800   */\n      revert\n        /* \"#utility.yul\":3750:3802   */\n    tag_210:\n        /* \"#utility.yul\":3837:3846   */\n      dup2\n        /* \"#utility.yul\":3824:3847   */\n      calldataload\n        /* \"#utility.yul\":3856:3887   */\n      tag_184\n        /* \"#utility.yul\":3881:3886   */\n      dup2\n        /* \"#utility.yul\":3856:3887   */\n      tag_169\n      jump\t// in\n        /* \"#utility.yul\":3922:4784   */\n    tag_57:\n        /* \"#utility.yul\":4084:4088   */\n      0x00\n        /* \"#utility.yul\":4113:4115   */\n      0x20\n        /* \"#utility.yul\":4153:4155   */\n      dup1\n        /* \"#utility.yul\":4142:4151   */\n      dup4\n        /* \"#utility.yul\":4138:4156   */\n      add\n        /* \"#utility.yul\":4183:4185   */\n      dup2\n        /* \"#utility.yul\":4172:4181   */\n      dup5\n        /* \"#utility.yul\":4165:4186   */\n      mstore\n        /* \"#utility.yul\":4206:4212   */\n      dup1\n        /* \"#utility.yul\":4241:4247   */\n      dup6\n        /* \"#utility.yul\":4235:4248   */\n      mload\n        /* \"#utility.yul\":4272:4278   */\n      dup1\n        /* \"#utility.yul\":4264:4270   */\n      dup4\n        /* \"#utility.yul\":4257:4279   */\n      mstore\n        /* \"#utility.yul\":4310:4312   */\n      0x40\n        /* \"#utility.yul\":4299:4308   */\n      dup7\n        /* \"#utility.yul\":4295:4313   */\n      add\n        /* \"#utility.yul\":4288:4313   */\n      swap2\n      pop\n        /* \"#utility.yul\":4372:4374   */\n      0x40\n        /* \"#utility.yul\":4362:4368   */\n      dup2\n        /* \"#utility.yul\":4359:4360   */\n      0x05\n        /* \"#utility.yul\":4355:4369   */\n      shl\n        /* \"#utility.yul\":4344:4353   */\n      dup8\n        /* \"#utility.yul\":4340:4370   */\n      add\n        /* \"#utility.yul\":4336:4375   */\n      add\n        /* \"#utility.yul\":4322:4375   */\n      swap3\n      pop\n        /* \"#utility.yul\":4410:4412   */\n      dup4\n        /* \"#utility.yul\":4402:4408   */\n      dup8\n        /* \"#utility.yul\":4398:4413   */\n      add\n        /* \"#utility.yul\":4431:4432   */\n      0x00\n        /* \"#utility.yul\":4441:4755   */\n    tag_213:\n        /* \"#utility.yul\":4455:4461   */\n      dup3\n        /* \"#utility.yul\":4452:4453   */\n      dup2\n        /* \"#utility.yul\":4449:4462   */\n      lt\n        /* \"#utility.yul\":4441:4755   */\n      iszero\n      tag_215\n      jumpi\n        /* \"#utility.yul\":4544:4610   */\n      0xffffffffffffffffffffffffffffffffffffffffffffffffffffffffffffffc0\n        /* \"#utility.yul\":4532:4541   */\n      dup9\n        /* \"#utility.yul\":4524:4530   */\n      dup7\n        /* \"#utility.yul\":4520:4542   */\n      sub\n        /* \"#utility.yul\":4516:4611   */\n      add\n        /* \"#utility.yul\":4511:4514   */\n      dup5\n        /* \"#utility.yul\":4504:4612   */\n      mstore\n        /* \"#utility.yul\":4635:4675   */\n      tag_216\n        /* \"#utility.yul\":4668:4674   */\n      dup6\n        /* \"#utility.yul\":4659:4665   */\n      dup4\n        /* \"#utility.yul\":4653:4666   */\n      mload\n        /* \"#utility.yul\":4635:4675   */\n      tag_172\n      jump\t// in\n    tag_216:\n        /* \"#utility.yul\":4625:4675   */\n      swap5\n      pop\n        /* \"#utility.yul\":4733:4745   */\n      swap3\n      dup6\n      add\n      swap3\n        /* \"#utility.yul\":4698:4713   */\n      swap1\n      dup6\n      add\n      swap1\n        /* \"#utility.yul\":4477:4478   */\n      0x01\n        /* \"#utility.yul\":4470:4479   */\n      add\n        /* \"#utility.yul\":4441:4755   */\n      jump(tag_213)\n    tag_215:\n      pop\n        /* \"#utility.yul\":4772:4778   */\n      swap3\n      swap8\n        /* \"#utility.yul\":3922:4784   */\n      swap7\n      pop\n      pop\n      pop\n      pop\n      pop\n      pop\n      pop\n      jump\t// out\n        /* \"#utility.yul\":5359:5632   */\n    tag_73:\n        /* \"#utility.yul\":5544:5550   */\n      dup2\n        /* \"#utility.yul\":5536:5542   */\n      dup4\n        /* \"#utility.yul\":5531:5534   */\n      dup3\n        /* \"#utility.yul\":5518:5551   */\n      calldatacopy\n        /* \"#utility.yul\":5500:5503   */\n      0x00\n        /* \"#utility.yul\":5570:5586   */\n      swap2\n      add\n        /* \"#utility.yul\":5595:5608   */\n      swap1\n      dup2\n      mstore\n        /* \"#utility.yul\":5570:5586   */\n      swap2\n        /* \"#utility.yul\":5359:5632   */\n      swap1\n      pop\n      jump\t// out\n        /* \"#utility.yul\":6196:6633   */\n    tag_146:\n        /* \"#utility.yul\":6275:6276   */\n      0x01\n        /* \"#utility.yul\":6271:6283   */\n      dup2\n      dup2\n      shr\n      swap1\n        /* \"#utility.yul\":6318:6330   */\n      dup3\n      and\n      dup1\n        /* \"#utility.yul\":6339:6400   */\n      tag_223\n      jumpi\n        /* \"#utility.yul\":6393:6397   */\n      0x7f\n        /* \"#utility.yul\":6385:6391   */\n      dup3\n        /* \"#utility.yul\":6381:6398   */\n      and\n        /* \"#utility.yul\":6371:6398   */\n      swap2\n      pop\n        /* \"#utility.yul\":6339:6400   */\n    tag_223:\n        /* \"#utility.yul\":6446:6448   */\n      0x20\n        /* \"#utility.yul\":6438:6444   */\n      dup3\n        /* \"#utility.yul\":6435:6449   */\n      lt\n        /* \"#utility.yul\":6415:6433   */\n      dup2\n        /* \"#utility.yul\":6412:6450   */\n      sub\n        /* \"#utility.yul\":6409:6627   */\n      tag_224\n      jumpi\n        /* \"#utility.yul\":6483:6560   */\n      0x4e487b7100000000000000000000000000000000000000000000000000000000\n        /* \"#utility.yul\":6480:6481   */\n      0x00\n        /* \"#utility.yul\":6473:6561   */\n      mstore\n        /* \"#utility.yul\":6584:6588   */\n      0x22\n        /* \"#utility.yul\":6581:6582   */\n      0x04\n        /* \"#utility.yul\":6574:6589   */\n      mstore\n        /* \"#utility.yul\":6612:6616   */\n      0x24\n        /* \"#utility.yul\":6609:6610   */\n      0x00\n        /* \"#utility.yul\":6602:6617   */\n      revert\n        /* \"#utility.yul\":6409:6627   */\n    tag_224:\n      pop\n        /* \"#utility.yul\":6196:6633   */\n      swap2\n      swap1\n      pop\n      jump\t// out\n        /* \"#utility.yul\":6764:7664   */\n    tag_81:\n        /* \"#utility.yul\":6892:6895   */\n      0x00\n        /* \"#utility.yul\":6921:6922   */\n      dup1\n        /* \"#utility.yul\":6954:6960   */\n      dup4\n        /* \"#utility.yul\":6948:6961   */\n      sload\n        /* \"#utility.yul\":6984:7020   */\n      tag_227\n        /* \"#utility.yul\":7010:7019   */\n      dup2\n        /* \"#utility.yul\":6984:7020   */\n      tag_146\n      jump\t// in\n    tag_227:\n        /* \"#utility.yul\":7039:7040   */\n      0x01\n        /* \"#utility.yul\":7056:7074   */\n      dup3\n      dup2\n      and\n        /* \"#utility.yul\":7083:7274   */\n      dup1\n      iszero\n      tag_229\n      jumpi\n        /* \"#utility.yul\":7288:7289   */\n      0x01\n        /* \"#utility.yul\":7283:7639   */\n      dup2\n      eq\n      tag_230\n      jumpi\n        /* \"#utility.yul\":7049:7639   */\n      jump(tag_228)\n        /* \"#utility.yul\":7083:7274   */\n    tag_229:\n        /* \"#utility.yul\":7131:7197   */\n      0xffffffffffffffffffffffffffffffffffffffffffffffffffffffffffffff00\n        /* \"#utility.yul\":7120:7129   */\n      dup5\n        /* \"#utility.yul\":7116:7198   */\n      and\n        /* \"#utility.yul\":7111:7114   */\n      dup8\n        /* \"#utility.yul\":7104:7199   */\n      mstore\n        /* \"#utility.yul\":7254:7260   */\n      dup3\n        /* \"#utility.yul\":7247:7261   */\n      iszero\n        /* \"#utility.yul\":7240:7262   */\n      iszero\n        /* \"#utility.yul\":7232:7238   */\n      dup4\n        /* \"#utility.yul\":7228:7263   */\n      mul\n        /* \"#utility.yul\":7223:7226   */\n      dup8\n        /* \"#utility.yul\":7219:7264   */\n      add\n        /* \"#utility.yul\":7212:7264   */\n      swap5\n      pop\n        /* \"#utility.yul\":7083:7274   */\n      jump(tag_228)\n        /* \"#utility.yul\":7283:7639   */\n    tag_230:\n        /* \"#utility.yul\":7314:7320   */\n      dup8\n        /* \"#utility.yul\":7311:7312   */\n      0x00\n        /* \"#utility.yul\":7304:7321   */\n      mstore\n        /* \"#utility.yul\":7344:7348   */\n      0x20\n        /* \"#utility.yul\":7389:7391   */\n      dup1\n        /* \"#utility.yul\":7386:7387   */\n      0x00\n        /* \"#utility.yul\":7376:7392   */\n      keccak256\n        /* \"#utility.yul\":7414:7415   */\n      0x00\n        /* \"#utility.yul\":7428:7593   */\n    tag_231:\n        /* \"#utility.yul\":7442:7448   */\n      dup6\n        /* \"#utility.yul\":7439:7440   */\n      dup2\n        /* \"#utility.yul\":7436:7449   */\n      lt\n        /* \"#utility.yul\":7428:7593   */\n      iszero\n      tag_233\n      jumpi\n        /* \"#utility.yul\":7520:7534   */\n      dup2\n      sload\n        /* \"#utility.yul\":7507:7518   */\n      dup11\n      dup3\n      add\n        /* \"#utility.yul\":7500:7535   */\n      mstore\n        /* \"#utility.yul\":7563:7579   */\n      swap1\n      dup5\n      add\n      swap1\n        /* \"#utility.yul\":7457:7467   */\n      dup3\n      add\n        /* \"#utility.yul\":7428:7593   */\n      jump(tag_231)\n    tag_233:\n        /* \"#utility.yul\":7432:7435   */\n      pop\n      pop\n      pop\n        /* \"#utility.yul\":7622:7628   */\n      dup3\n        /* \"#utility.yul\":7617:7620   */\n      dup8\n        /* \"#utility.yul\":7613:7629   */\n      add\n        /* \"#utility.yul\":7606:7629   */\n      swap5\n      pop\n        /* \"#utility.yul\":7049:7639   */\n    tag_228:\n      pop\n        /* \"#utility.yul\":7655:7658   */\n      swap3\n      swap7\n        /* \"#utility.yul\":6764:7664   */\n      swap6\n      pop\n      pop\n      pop\n      pop\n      pop\n      pop\n      jump\t// out\n        /* \"#utility.yul\":8361:8545   */\n    tag_174:\n        /* \"#utility.yul\":8413:8490   */\n      0x4e487b7100000000000000000000000000000000000000000000000000000000\n        /* \"#utility.yul\":8410:8411   */\n      0x00\n        /* \"#utility.yul\":8403:8491   */\n      mstore\n        /* \"#utility.yul\":8510:8514   */\n      0x41\n        /* \"#utility.yul\":8507:8508   */\n      0x04\n        /* \"#utility.yul\":8500:8515   */\n      mstore\n        /* \"#utility.yul\":8534:8538   */\n      0x24\n        /* \"#utility.yul\":8531:8532   */\n      0x00\n        /* \"#utility.yul\":8524:8539   */\n      revert\n        /* \"#utility.yul\":8550:9506   */\n    tag_91:\n        /* \"#utility.yul\":8630:8636   */\n      0x00\n        /* \"#utility.yul\":8683:8685   */\n      0x20\n        /* \"#utility.yul\":8671:8680   */\n      dup3\n        /* \"#utility.yul\":8662:8669   */\n      dup5\n        /* \"#utility.yul\":8658:8681   */\n      sub\n        /* \"#utility.yul\":8654:8686   */\n      slt\n        /* \"#utility.yul\":8651:8703   */\n      iszero\n      tag_238\n      jumpi\n        /* \"#utility.yul\":8699:8700   */\n      0x00\n        /* \"#utility.yul\":8696:8697   */\n      dup1\n        /* \"#utility.yul\":8689:8701   */\n      revert\n        /* \"#utility.yul\":8651:8703   */\n    tag_238:\n        /* \"#utility.yul\":8732:8741   */\n      dup2\n        /* \"#utility.yul\":8726:8742   */\n      mload\n        /* \"#utility.yul\":8761:8779   */\n      0xffffffffffffffff\n        /* \"#utility.yul\":8802:8804   */\n      dup1\n        /* \"#utility.yul\":8794:8800   */\n      dup3\n        /* \"#utility.yul\":8791:8805   */\n      gt\n        /* \"#utility.yul\":8788:8822   */\n      iszero\n      tag_239\n      jumpi\n        /* \"#utility.yul\":8818:8819   */\n      0x00\n        /* \"#utility.yul\":8815:8816   */\n      dup1\n        /* \"#utility.yul\":8808:8820   */\n      revert\n        /* \"#utility.yul\":8788:8822   */\n    tag_239:\n        /* \"#utility.yul\":8856:8862   */\n      dup2\n        /* \"#utility.yul\":8845:8854   */\n      dup5\n        /* \"#utility.yul\":8841:8863   */\n      add\n        /* \"#utility.yul\":8831:8863   */\n      swap2\n      pop\n        /* \"#utility.yul\":8901:8908   */\n      dup5\n        /* \"#utility.yul\":8894:8898   */\n      0x1f\n        /* \"#utility.yul\":8890:8892   */\n      dup4\n        /* \"#utility.yul\":8886:8899   */\n      add\n        /* \"#utility.yul\":8882:8909   */\n      slt\n        /* \"#utility.yul\":8872:8927   */\n      tag_240\n      jumpi\n        /* \"#utility.yul\":8923:8924   */\n      0x00\n        /* \"#utility.yul\":8920:8921   */\n      dup1\n        /* \"#utility.yul\":8913:8925   */\n      revert\n        /* \"#utility.yul\":8872:8927   */\n    tag_240:\n        /* \"#utility.yul\":8952:8954   */\n      dup2\n        /* \"#utility.yul\":8946:8955   */\n      mload\n        /* \"#utility.yul\":8974:8976   */\n      dup2\n        /* \"#utility.yul\":8970:8972   */\n      dup2\n        /* \"#utility.yul\":8967:8977   */\n      gt\n        /* \"#utility.yul\":8964:9000   */\n      iszero\n      tag_242\n      jumpi\n        /* \"#utility.yul\":8980:8998   */\n      tag_242\n      tag_174\n      jump\t// in\n    tag_242:\n        /* \"#utility.yul\":9114:9116   */\n      0x40\n        /* \"#utility.yul\":9108:9117   */\n      mload\n        /* \"#utility.yul\":9176:9180   */\n      0x1f\n        /* \"#utility.yul\":9168:9181   */\n      dup3\n      add\n        /* \"#utility.yul\":9019:9085   */\n      0xffffffffffffffffffffffffffffffffffffffffffffffffffffffffffffffe0\n        /* \"#utility.yul\":9164:9186   */\n      swap1\n      dup2\n      and\n        /* \"#utility.yul\":9188:9190   */\n      0x3f\n        /* \"#utility.yul\":9160:9191   */\n      add\n        /* \"#utility.yul\":9156:9196   */\n      and\n        /* \"#utility.yul\":9144:9197   */\n      dup2\n      add\n      swap1\n        /* \"#utility.yul\":9212:9230   */\n      dup4\n      dup3\n      gt\n        /* \"#utility.yul\":9232:9254   */\n      dup2\n      dup4\n      lt\n        /* \"#utility.yul\":9209:9255   */\n      or\n        /* \"#utility.yul\":9206:9278   */\n      iszero\n      tag_244\n      jumpi\n        /* \"#utility.yul\":9258:9276   */\n      tag_244\n      tag_174\n      jump\t// in\n    tag_244:\n        /* \"#utility.yul\":9298:9308   */\n      dup2\n        /* \"#utility.yul\":9294:9296   */\n      0x40\n        /* \"#utility.yul\":9287:9309   */\n      mstore\n        /* \"#utility.yul\":9333:9335   */\n      dup3\n        /* \"#utility.yul\":9325:9331   */\n      dup2\n        /* \"#utility.yul\":9318:9336   */\n      mstore\n        /* \"#utility.yul\":9373:9380   */\n      dup8\n        /* \"#utility.yul\":9368:9370   */\n      0x20\n        /* \"#utility.yul\":9363:9365   */\n      dup5\n        /* \"#utility.yul\":9359:9361   */\n      dup8\n        /* \"#utility.yul\":9355:9366   */\n      add\n        /* \"#utility.yul\":9351:9371   */\n      add\n        /* \"#utility.yul\":9348:9381   */\n      gt\n        /* \"#utility.yul\":9345:9398   */\n      iszero\n      tag_245\n      jumpi\n        /* \"#utility.yul\":9394:9395   */\n      0x00\n        /* \"#utility.yul\":9391:9392   */\n      dup1\n        /* \"#utility.yul\":9384:9396   */\n      revert\n        /* \"#utility.yul\":9345:9398   */\n    tag_245:\n        /* \"#utility.yul\":9407:9475   */\n      tag_246\n        /* \"#utility.yul\":9472:9474   */\n      dup4\n        /* \"#utility.yul\":9467:9469   */\n      0x20\n        /* \"#utility.yul\":9459:9465   */\n      dup4\n        /* \"#utility.yul\":9455:9470   */\n      add\n        /* \"#utility.yul\":9450:9452   */\n      0x20\n        /* \"#utility.yul\":9446:9448   */\n      dup9\n        /* \"#utility.yul\":9442:9453   */\n      add\n        /* \"#utility.yul\":9407:9475   */\n      tag_171\n      jump\t// in\n    tag_246:\n        /* \"#utility.yul\":9494:9500   */\n      swap8\n        /* \"#utility.yul\":8550:9506   */\n      swap7\n      pop\n      pop\n      pop\n      pop\n      pop\n      pop\n      pop\n      jump\t// out\n        /* \"#utility.yul\":9511:9800   */\n    tag_93:\n        /* \"#utility.yul\":9642:9645   */\n      0x00\n        /* \"#utility.yul\":9680:9686   */\n      dup3\n        /* \"#utility.yul\":9674:9687   */\n      mload\n        /* \"#utility.yul\":9696:9762   */\n      tag_248\n        /* \"#utility.yul\":9755:9761   */\n      dup2\n        /* \"#utility.yul\":9750:9753   */\n      dup5\n        /* \"#utility.yul\":9743:9747   */\n      0x20\n        /* \"#utility.yul\":9735:9741   */\n      dup8\n        /* \"#utility.yul\":9731:9748   */\n      add\n        /* \"#utility.yul\":9696:9762   */\n      tag_171\n      jump\t// in\n    tag_248:\n        /* \"#utility.yul\":9778:9794   */\n      swap2\n      swap1\n      swap2\n      add\n      swap3\n        /* \"#utility.yul\":9511:9800   */\n      swap2\n      pop\n      pop\n      jump\t// out\n        /* \"#utility.yul\":10149:10694   */\n    tag_175:\n        /* \"#utility.yul\":10251:10253   */\n      0x1f\n        /* \"#utility.yul\":10246:10249   */\n      dup3\n        /* \"#utility.yul\":10243:10254   */\n      gt\n        /* \"#utility.yul\":10240:10688   */\n      iszero\n      tag_251\n      jumpi\n        /* \"#utility.yul\":10287:10288   */\n      0x00\n        /* \"#utility.yul\":10312:10317   */\n      dup2\n        /* \"#utility.yul\":10308:10310   */\n      dup2\n        /* \"#utility.yul\":10301:10318   */\n      mstore\n        /* \"#utility.yul\":10357:10361   */\n      0x20\n        /* \"#utility.yul\":10353:10355   */\n      dup2\n        /* \"#utility.yul\":10343:10362   */\n      keccak256\n        /* \"#utility.yul\":10427:10429   */\n      0x1f\n        /* \"#utility.yul\":10415:10425   */\n      dup6\n        /* \"#utility.yul\":10411:10430   */\n      add\n        /* \"#utility.yul\":10408:10409   */\n      0x05\n        /* \"#utility.yul\":10404:10431   */\n      shr\n        /* \"#utility.yul\":10398:10402   */\n      dup2\n        /* \"#utility.yul\":10394:10432   */\n      add\n        /* \"#utility.yul\":10463:10467   */\n      0x20\n        /* \"#utility.yul\":10451:10461   */\n      dup7\n        /* \"#utility.yul\":10448:10468   */\n      lt\n        /* \"#utility.yul\":10445:10492   */\n      iszero\n      tag_252\n      jumpi\n      pop\n        /* \"#utility.yul\":10486:10490   */\n      dup1\n        /* \"#utility.yul\":10445:10492   */\n    tag_252:\n        /* \"#utility.yul\":10541:10543   */\n      0x1f\n        /* \"#utility.yul\":10536:10539   */\n      dup6\n        /* \"#utility.yul\":10532:10544   */\n      add\n        /* \"#utility.yul\":10529:10530   */\n      0x05\n        /* \"#utility.yul\":10525:10545   */\n      shr\n        /* \"#utility.yul\":10519:10523   */\n      dup3\n        /* \"#utility.yul\":10515:10546   */\n      add\n        /* \"#utility.yul\":10505:10546   */\n      swap2\n      pop\n        /* \"#utility.yul\":10596:10678   */\n    tag_253:\n        /* \"#utility.yul\":10614:10616   */\n      dup2\n        /* \"#utility.yul\":10607:10612   */\n      dup2\n        /* \"#utility.yul\":10604:10617   */\n      lt\n        /* \"#utility.yul\":10596:10678   */\n      iszero\n      tag_255\n      jumpi\n        /* \"#utility.yul\":10659:10676   */\n      dup3\n      dup2\n      sstore\n        /* \"#utility.yul\":10640:10641   */\n      0x01\n        /* \"#utility.yul\":10629:10642   */\n      add\n        /* \"#utility.yul\":10596:10678   */\n      jump(tag_253)\n    tag_255:\n        /* \"#utility.yul\":10600:10603   */\n      pop\n      pop\n      pop\n        /* \"#utility.yul\":10240:10688   */\n    tag_251:\n        /* \"#utility.yul\":10149:10694   */\n      pop\n      pop\n      pop\n      jump\t// out\n        /* \"#utility.yul\":10930:12255   */\n    tag_100:\n        /* \"#utility.yul\":11054:11072   */\n      0xffffffffffffffff\n        /* \"#utility.yul\":11049:11052   */\n      dup4\n        /* \"#utility.yul\":11046:11073   */\n      gt\n        /* \"#utility.yul\":11043:11096   */\n      iszero\n      tag_259\n      jumpi\n        /* \"#utility.yul\":11076:11094   */\n      tag_259\n      tag_174\n      jump\t// in\n    tag_259:\n        /* \"#utility.yul\":11105:11199   */\n      tag_260\n        /* \"#utility.yul\":11195:11198   */\n      dup4\n        /* \"#utility.yul\":11155:11193   */\n      tag_261\n        /* \"#utility.yul\":11187:11191   */\n      dup4\n        /* \"#utility.yul\":11181:11192   */\n      sload\n        /* \"#utility.yul\":11155:11193   */\n      tag_146\n      jump\t// in\n    tag_261:\n        /* \"#utility.yul\":11149:11153   */\n      dup4\n        /* \"#utility.yul\":11105:11199   */\n      tag_175\n      jump\t// in\n    tag_260:\n        /* \"#utility.yul\":11225:11226   */\n      0x00\n        /* \"#utility.yul\":11250:11252   */\n      0x1f\n        /* \"#utility.yul\":11245:11248   */\n      dup5\n        /* \"#utility.yul\":11242:11253   */\n      gt\n        /* \"#utility.yul\":11267:11268   */\n      0x01\n        /* \"#utility.yul\":11262:11997   */\n      dup2\n      eq\n      tag_263\n      jumpi\n        /* \"#utility.yul\":12041:12042   */\n      0x00\n        /* \"#utility.yul\":12058:12061   */\n      dup6\n        /* \"#utility.yul\":12055:12148   */\n      iszero\n      tag_264\n      jumpi\n      pop\n        /* \"#utility.yul\":12114:12133   */\n      dup4\n      dup3\n      add\n        /* \"#utility.yul\":12101:12134   */\n      calldataload\n        /* \"#utility.yul\":12055:12148   */\n    tag_264:\n        /* \"#utility.yul\":10836:10902   */\n      0xffffffffffffffffffffffffffffffffffffffffffffffffffffffffffffffff\n        /* \"#utility.yul\":10827:10828   */\n      0x03\n        /* \"#utility.yul\":10823:10834   */\n      dup8\n      swap1\n      shl\n        /* \"#utility.yul\":10819:10903   */\n      shr\n        /* \"#utility.yul\":10815:10904   */\n      not\n        /* \"#utility.yul\":10805:10905   */\n      and\n        /* \"#utility.yul\":10911:10912   */\n      0x01\n        /* \"#utility.yul\":10907:10918   */\n      dup7\n      swap1\n      shl\n        /* \"#utility.yul\":10802:10919   */\n      or\n        /* \"#utility.yul\":12161:12239   */\n      dup4\n      sstore\n        /* \"#utility.yul\":11235:12249   */\n      jump(tag_262)\n        /* \"#utility.yul\":11262:11997   */\n    tag_263:\n        /* \"#utility.yul\":6711:6712   */\n      0x00\n        /* \"#utility.yul\":6704:6718   */\n      dup4\n      dup2\n      mstore\n        /* \"#utility.yul\":6748:6752   */\n      0x20\n        /* \"#utility.yul\":6735:6753   */\n      swap1\n      keccak256\n        /* \"#utility.yul\":11307:11373   */\n      0xffffffffffffffffffffffffffffffffffffffffffffffffffffffffffffffe0\n        /* \"#utility.yul\":11298:11374   */\n      dup7\n      and\n      swap1\n        /* \"#utility.yul\":11458:11467   */\n      dup4\n        /* \"#utility.yul\":11480:11709   */\n    tag_267:\n        /* \"#utility.yul\":11494:11501   */\n      dup3\n        /* \"#utility.yul\":11491:11492   */\n      dup2\n        /* \"#utility.yul\":11488:11502   */\n      lt\n        /* \"#utility.yul\":11480:11709   */\n      iszero\n      tag_269\n      jumpi\n        /* \"#utility.yul\":11583:11602   */\n      dup7\n      dup6\n      add\n        /* \"#utility.yul\":11570:11603   */\n      calldataload\n        /* \"#utility.yul\":11555:11604   */\n      dup3\n      sstore\n        /* \"#utility.yul\":11690:11694   */\n      0x20\n        /* \"#utility.yul\":11675:11695   */\n      swap5\n      dup6\n      add\n      swap5\n        /* \"#utility.yul\":11643:11644   */\n      0x01\n        /* \"#utility.yul\":11631:11645   */\n      swap1\n      swap3\n      add\n      swap2\n        /* \"#utility.yul\":11510:11522   */\n      add\n        /* \"#utility.yul\":11480:11709   */\n      jump(tag_267)\n    tag_269:\n        /* \"#utility.yul\":11484:11487   */\n      pop\n        /* \"#utility.yul\":11737:11740   */\n      dup7\n        /* \"#utility.yul\":11728:11735   */\n      dup3\n        /* \"#utility.yul\":11725:11741   */\n      lt\n        /* \"#utility.yul\":11722:11941   */\n      iszero\n      tag_270\n      jumpi\n        /* \"#utility.yul\":11857:11923   */\n      0xffffffffffffffffffffffffffffffffffffffffffffffffffffffffffffffff\n        /* \"#utility.yul\":11851:11854   */\n      0xf8\n        /* \"#utility.yul\":11845:11848   */\n      dup9\n        /* \"#utility.yul\":11842:11843   */\n      0x03\n        /* \"#utility.yul\":11838:11849   */\n      shl\n        /* \"#utility.yul\":11834:11855   */\n      and\n        /* \"#utility.yul\":11830:11924   */\n      shr\n        /* \"#utility.yul\":11826:11925   */\n      not\n        /* \"#utility.yul\":11813:11822   */\n      dup5\n        /* \"#utility.yul\":11808:11811   */\n      dup8\n        /* \"#utility.yul\":11804:11823   */\n      add\n        /* \"#utility.yul\":11791:11824   */\n      calldataload\n        /* \"#utility.yul\":11787:11926   */\n      and\n        /* \"#utility.yul\":11779:11785   */\n      dup2\n        /* \"#utility.yul\":11772:11927   */\n      sstore\n        /* \"#utility.yul\":11722:11941   */\n    tag_270:\n      pop\n      pop\n        /* \"#utility.yul\":11984:11985   */\n      0x01\n        /* \"#utility.yul\":11978:11981   */\n      dup6\n        /* \"#utility.yul\":11975:11976   */\n      0x01\n        /* \"#utility.yul\":11971:11982   */\n      shl\n        /* \"#utility.yul\":11967:11986   */\n      add\n        /* \"#utility.yul\":11961:11965   */\n      dup4\n        /* \"#utility.yul\":11954:11987   */\n      sstore\n        /* \"#utility.yul\":11235:12249   */\n    tag_262:\n      pop\n      pop\n        /* \"#utility.yul\":10930:12255   */\n      pop\n      pop\n      pop\n      jump\t// out\n        /* \"#utility.yul\":12604:12788   */\n    tag_122:\n        /* \"#utility.yul\":12656:12733   */\n      0x4e487b7100000000000000000000000000000000000000000000000000000000\n        /* \"#utility.yul\":12653:12654   */\n      0x00\n        /* \"#utility.yul\":12646:12734   */\n      mstore\n        /* \"#utility.yul\":12753:12757   */\n      0x32\n        /* \"#utility.yul\":12750:12751   */\n      0x04\n        /* \"#utility.yul\":12743:12758   */\n      mstore\n        /* \"#utility.yul\":12777:12781   */\n      0x24\n        /* \"#utility.yul\":12774:12775   */\n      0x00\n        /* \"#utility.yul\":12767:12782   */\n      revert\n        /* \"#utility.yul\":12793:12977   */\n    tag_177:\n        /* \"#utility.yul\":12845:12922   */\n      0x4e487b7100000000000000000000000000000000000000000000000000000000\n        /* \"#utility.yul\":12842:12843   */\n      0x00\n        /* \"#utility.yul\":12835:12923   */\n      mstore\n        /* \"#utility.yul\":12942:12946   */\n      0x11\n        /* \"#utility.yul\":12939:12940   */\n      0x04\n        /* \"#utility.yul\":12932:12947   */\n      mstore\n        /* \"#utility.yul\":12966:12970   */\n      0x24\n        /* \"#utility.yul\":12963:12964   */\n      0x00\n        /* \"#utility.yul\":12956:12971   */\n      revert\n        /* \"#utility.yul\":12982:13110   */\n    tag_128:\n        /* \"#utility.yul\":13049:13058   */\n      dup2\n      dup2\n      sub\n        /* \"#utility.yul\":13070:13081   */\n      dup2\n      dup2\n      gt\n        /* \"#utility.yul\":13067:13104   */\n      iszero\n      tag_109\n      jumpi\n        /* \"#utility.yul\":13084:13102   */\n      tag_109\n      tag_177\n      jump\t// in\n        /* \"#utility.yul\":13115:14669   */\n    tag_136:\n        /* \"#utility.yul\":13234:13237   */\n      dup2\n        /* \"#utility.yul\":13228:13232   */\n      dup2\n        /* \"#utility.yul\":13225:13238   */\n      sub\n        /* \"#utility.yul\":13222:13248   */\n      tag_278\n      jumpi\n        /* \"#utility.yul\":13241:13246   */\n      pop\n      pop\n        /* \"#utility.yul\":13115:14669   */\n      jump\t// out\n        /* \"#utility.yul\":13222:13248   */\n    tag_278:\n        /* \"#utility.yul\":13271:13308   */\n      tag_279\n        /* \"#utility.yul\":13303:13306   */\n      dup3\n        /* \"#utility.yul\":13297:13307   */\n      sload\n        /* \"#utility.yul\":13271:13308   */\n      tag_146\n      jump\t// in\n    tag_279:\n        /* \"#utility.yul\":13331:13349   */\n      0xffffffffffffffff\n        /* \"#utility.yul\":13323:13329   */\n      dup2\n        /* \"#utility.yul\":13320:13350   */\n      gt\n        /* \"#utility.yul\":13317:13373   */\n      iszero\n      tag_281\n      jumpi\n        /* \"#utility.yul\":13353:13371   */\n      tag_281\n      tag_174\n      jump\t// in\n    tag_281:\n        /* \"#utility.yul\":13382:13479   */\n      tag_282\n        /* \"#utility.yul\":13472:13478   */\n      dup2\n        /* \"#utility.yul\":13432:13470   */\n      tag_283\n        /* \"#utility.yul\":13464:13468   */\n      dup5\n        /* \"#utility.yul\":13458:13469   */\n      sload\n        /* \"#utility.yul\":13432:13470   */\n      tag_146\n      jump\t// in\n    tag_283:\n        /* \"#utility.yul\":13426:13430   */\n      dup5\n        /* \"#utility.yul\":13382:13479   */\n      tag_175\n      jump\t// in\n    tag_282:\n        /* \"#utility.yul\":13505:13506   */\n      0x00\n        /* \"#utility.yul\":13533:13535   */\n      0x1f\n        /* \"#utility.yul\":13525:13531   */\n      dup3\n        /* \"#utility.yul\":13522:13536   */\n      gt\n        /* \"#utility.yul\":13550:13551   */\n      0x01\n        /* \"#utility.yul\":13545:14412   */\n      dup2\n      eq\n      tag_285\n      jumpi\n        /* \"#utility.yul\":14456:14457   */\n      0x00\n        /* \"#utility.yul\":14473:14479   */\n      dup4\n        /* \"#utility.yul\":14470:14559   */\n      iszero\n      tag_286\n      jumpi\n      pop\n        /* \"#utility.yul\":14525:14544   */\n      dup5\n      dup3\n      add\n        /* \"#utility.yul\":14519:14545   */\n      sload\n        /* \"#utility.yul\":14470:14559   */\n    tag_286:\n        /* \"#utility.yul\":10836:10902   */\n      0xffffffffffffffffffffffffffffffffffffffffffffffffffffffffffffffff\n        /* \"#utility.yul\":10827:10828   */\n      0x03\n        /* \"#utility.yul\":10823:10834   */\n      dup6\n      swap1\n      shl\n        /* \"#utility.yul\":10819:10903   */\n      shr\n        /* \"#utility.yul\":10815:10904   */\n      not\n        /* \"#utility.yul\":10805:10905   */\n      and\n        /* \"#utility.yul\":10911:10912   */\n      0x01\n        /* \"#utility.yul\":10907:10918   */\n      dup5\n      swap1\n      shl\n        /* \"#utility.yul\":10802:10919   */\n      or\n        /* \"#utility.yul\":14572:14653   */\n      dup5\n      sstore\n        /* \"#utility.yul\":13515:14663   */\n      jump(tag_262)\n        /* \"#utility.yul\":13545:14412   */\n    tag_285:\n        /* \"#utility.yul\":6711:6712   */\n      0x00\n        /* \"#utility.yul\":6704:6718   */\n      dup6\n      dup2\n      mstore\n        /* \"#utility.yul\":6748:6752   */\n      0x20\n        /* \"#utility.yul\":6735:6753   */\n      swap1\n      keccak256\n        /* \"#utility.yul\":13593:13659   */\n      0xffffffffffffffffffffffffffffffffffffffffffffffffffffffffffffffe0\n        /* \"#utility.yul\":13581:13660   */\n      dup5\n      and\n      swap1\n        /* \"#utility.yul\":6711:6712   */\n      0x00\n        /* \"#utility.yul\":6704:6718   */\n      dup7\n      dup2\n      mstore\n        /* \"#utility.yul\":6748:6752   */\n      0x20\n        /* \"#utility.yul\":6735:6753   */\n      swap1\n      keccak256\n        /* \"#utility.yul\":13804:13813   */\n      dup5\n        /* \"#utility.yul\":13826:14077   */\n    tag_290:\n        /* \"#utility.yul\":13840:13847   */\n      dup4\n        /* \"#utility.yul\":13837:13838   */\n      dup2\n        /* \"#utility.yul\":13834:13848   */\n      lt\n        /* \"#utility.yul\":13826:14077   */\n      iszero\n      tag_292\n      jumpi\n        /* \"#utility.yul\":13922:13943   */\n      dup3\n      dup7\n      add\n        /* \"#utility.yul\":13916:13944   */\n      sload\n        /* \"#utility.yul\":13901:13945   */\n      dup3\n      sstore\n        /* \"#utility.yul\":13972:13973   */\n      0x01\n        /* \"#utility.yul\":14045:14063   */\n      swap6\n      dup7\n      add\n      swap6\n        /* \"#utility.yul\":14000:14015   */\n      swap1\n      swap2\n      add\n      swap1\n        /* \"#utility.yul\":13863:13867   */\n      0x20\n        /* \"#utility.yul\":13856:13868   */\n      add\n        /* \"#utility.yul\":13826:14077   */\n      jump(tag_290)\n    tag_292:\n        /* \"#utility.yul\":13830:13833   */\n      pop\n        /* \"#utility.yul\":14105:14111   */\n      dup6\n        /* \"#utility.yul\":14096:14103   */\n      dup4\n        /* \"#utility.yul\":14093:14112   */\n      lt\n        /* \"#utility.yul\":14090:14353   */\n      iszero\n      tag_293\n      jumpi\n        /* \"#utility.yul\":14166:14187   */\n      dup2\n      dup6\n      add\n        /* \"#utility.yul\":14160:14188   */\n      sload\n        /* \"#utility.yul\":14269:14335   */\n      0xffffffffffffffffffffffffffffffffffffffffffffffffffffffffffffffff\n        /* \"#utility.yul\":14251:14252   */\n      0x03\n        /* \"#utility.yul\":14247:14261   */\n      dup9\n      swap1\n      shl\n        /* \"#utility.yul\":14263:14266   */\n      0xf8\n        /* \"#utility.yul\":14243:14267   */\n      and\n        /* \"#utility.yul\":14239:14336   */\n      shr\n        /* \"#utility.yul\":14235:14337   */\n      not\n        /* \"#utility.yul\":14220:14338   */\n      and\n        /* \"#utility.yul\":14205:14339   */\n      dup2\n      sstore\n        /* \"#utility.yul\":14090:14353   */\n    tag_293:\n      pop\n      pop\n      pop\n      pop\n      pop\n        /* \"#utility.yul\":14399:14400   */\n      0x01\n        /* \"#utility.yul\":14383:14397   */\n      swap1\n      dup2\n      shl\n        /* \"#utility.yul\":14379:14401   */\n      add\n        /* \"#utility.yul\":14366:14402   */\n      swap1\n      sstore\n      pop\n        /* \"#utility.yul\":13115:14669   */\n      jump\t// out\n        /* \"#utility.yul\":14674:14869   */\n    tag_138:\n        /* \"#utility.yul\":14713:14716   */\n      0x00\n        /* \"#utility.yul\":14744:14810   */\n      0xffffffffffffffffffffffffffffffffffffffffffffffffffffffffffffffff\n        /* \"#utility.yul\":14737:14742   */\n      dup3\n        /* \"#utility.yul\":14734:14811   */\n      sub\n        /* \"#utility.yul\":14731:14834   */\n      tag_296\n      jumpi\n        /* \"#utility.yul\":14814:14832   */\n      tag_296\n      tag_177\n      jump\t// in\n    tag_296:\n      pop\n        /* \"#utility.yul\":14861:14862   */\n      0x01\n        /* \"#utility.yul\":14850:14863   */\n      add\n      swap1\n        /* \"#utility.yul\":14674:14869   */\n      jump\t// out\n        /* \"#utility.yul\":14874:15058   */\n    tag_141:\n        /* \"#utility.yul\":14926:15003   */\n      0x4e487b7100000000000000000000000000000000000000000000000000000000\n        /* \"#utility.yul\":14923:14924   */\n      0x00\n        /* \"#utility.yul\":14916:15004   */\n      mstore\n        /* \"#utility.yul\":15023:15027   */\n      0x31\n        /* \"#utility.yul\":15020:15021   */\n      0x04\n        /* \"#utility.yul\":15013:15028   */\n      mstore\n        /* \"#utility.yul\":15047:15051   */\n      0x24\n        /* \"#utility.yul\":15044:15045   */\n      0x00\n        /* \"#utility.yul\":15037:15052   */\n      revert\n\n    auxdata: 0xa264697066735822122052a7602259b33121e96bfe1d2ae2410f7c4f9d45551cf99b6ec0d843bba9651a64736f6c63430008130033\n}\n",
				"bytecode": {
					"linkReferences": {},
					"object": "60a060405234801561001057600080fd5b5073163342fae2bbe3303e5a9adce4bc9fb44d0ff0626001600160a01b03166315b550d66040518163ffffffff1660e01b8152600401602060405180830381865afa158015610063573d6000803e3d6000fd5b505050506040513d601f19601f820116820180604052508101906100879190610098565b6001600160a01b03166080526100c8565b6000602082840312156100aa57600080fd5b81516001600160a01b03811681146100c157600080fd5b9392505050565b6080516116396100e0600039600050506116396000f3fe6080604052600436106100695760003560e01c8063a56c56c311610043578063a56c56c3146102af578063d99699df146102cf578063da240f1e146102f157610190565b80636080e7ff146102045780638052474d146102395780638e9497d21461028f57610190565b3661019057341561018e576040517fc75ffd8600000000000000000000000000000000000000000000000000000000815260206004820152601260248201527f2e436f72706f726174696f6e2e5661756c740000000000000000000000000000604482015273163342fae2bbe3303e5a9adce4bc9fb44d0ff0629063c75ffd8690606401602060405180830381865afa15801561010a573d6000803e3d6000fd5b505050506040513d601f19601f8201168201806040525081019061012e9190610e59565b73ffffffffffffffffffffffffffffffffffffffff163460405160006040518083038185875af1925050503d8060008114610185576040519150601f19603f3d011682016040523d82523d6000602084013e61018a565b606091505b5050505b005b34801561019c57600080fd5b506040517f08c379a000000000000000000000000000000000000000000000000000000000815260206004820152601c60248201527f43757272656e636965732066616c6c6261636b2072657665727465640000000060448201526064015b60405180910390fd5b34801561021057600080fd5b5061022461021f366004610ec6565b610336565b60405190151581526020015b60405180910390f35b34801561024557600080fd5b506102826040518060400160405280601381526020017f2e5061796d656e742e43757272656e636965730000000000000000000000000081525081565b6040516102309190610f8b565b34801561029b57600080fd5b506102246102aa366004610f9e565b610877565b3480156102bb57600080fd5b506102826102ca366004610fe0565b610c0d565b3480156102db57600080fd5b506102e4610cc6565b6040516102309190610ffd565b3480156102fd57600080fd5b5061031161030c366004610f9e565b610d9f565b60405173ffffffffffffffffffffffffffffffffffffffff9091168152602001610230565b60003373ffffffffffffffffffffffffffffffffffffffff1673163342fae2bbe3303e5a9adce4bc9fb44d0ff06273ffffffffffffffffffffffffffffffffffffffff1663b4a99a4e6040518163ffffffff1660e01b8152600401602060405180830381865afa1580156103ae573d6000803e3d6000fd5b505050506040513d601f19601f820116820180604052508101906103d29190610e59565b73ffffffffffffffffffffffffffffffffffffffff161461044f576040517f08c379a000000000000000000000000000000000000000000000000000000000815260206004820152600a60248201527f4f776e6572206f6e6c790000000000000000000000000000000000000000000060448201526064016101fb565b60006001858560405161046392919061107d565b9081526040519081900360200190205473ffffffffffffffffffffffffffffffffffffffff16905080156104f3576040517f08c379a000000000000000000000000000000000000000000000000000000000815260206004820152601360248201527f53796d626f6c20616c726561647920757365640000000000000000000000000060448201526064016101fb565b60408051600080825260208083018085528351902073ffffffffffffffffffffffffffffffffffffffff88168352600290915290839020909261053692016110e0565b60405160208183030381529060405280519060200120146105b3576040517f08c379a000000000000000000000000000000000000000000000000000000000815260206004820152601460248201527f4164647265737320616c7265616479207573656400000000000000000000000060448201526064016101fb565b823b63ffffffff8116600003610625576040517f08c379a000000000000000000000000000000000000000000000000000000000815260206004820152600e60248201527f4e6f74206120636f6e747261637400000000000000000000000000000000000060448201526064016101fb565b60008473ffffffffffffffffffffffffffffffffffffffff166395d89b416040518163ffffffff1660e01b8152600401600060405180830381865afa158015610672573d6000803e3d6000fd5b505050506040513d6000823e601f3d9081017fffffffffffffffffffffffffffffffffffffffffffffffffffffffffffffffe01682016040526106b891908101906111a3565b9050806040516020016106cb919061126e565b6040516020818303038152906040528051906020012087876040516020016106f492919061107d565b6040516020818303038152906040528051906020012014610771576040517f08c379a000000000000000000000000000000000000000000000000000000000815260206004820152600f60248201527f53796d626f6c206d69736d61746368000000000000000000000000000000000060448201526064016101fb565b846001888860405161078492919061107d565b908152604080516020928190038301902080547fffffffffffffffffffffffff00000000000000000000000000000000000000001673ffffffffffffffffffffffffffffffffffffffff94851617905591871660009081526002909152206107ed8789836112d9565b50600080546001810182559080527f290decd9548b62a8d60345a988386fc84ba6bc95484008f6362f93160ef3e563016108288789836112d9565b5060405173ffffffffffffffffffffffffffffffffffffffff8616907f2014b559c1ee999c8f4c928818d91e9e88aa4e2cceeaec16156472ab9e1c9adc90600090a25060019695505050505050565b60003373ffffffffffffffffffffffffffffffffffffffff1673163342fae2bbe3303e5a9adce4bc9fb44d0ff06273ffffffffffffffffffffffffffffffffffffffff1663b4a99a4e6040518163ffffffff1660e01b8152600401602060405180830381865afa1580156108ef573d6000803e3d6000fd5b505050506040513d601f19601f820116820180604052508101906109139190610e59565b73ffffffffffffffffffffffffffffffffffffffff1614610990576040517f08c379a000000000000000000000000000000000000000000000000000000000815260206004820152600a60248201527f4f776e6572206f6e6c790000000000000000000000000000000000000000000060448201526064016101fb565b6000600184846040516109a492919061107d565b9081526040519081900360200190205473ffffffffffffffffffffffffffffffffffffffff16905080610a33576040517f08c379a000000000000000000000000000000000000000000000000000000000815260206004820152600f60248201527f53796d626f6c206e6f742075736564000000000000000000000000000000000060448201526064016101fb565b73ffffffffffffffffffffffffffffffffffffffff81166000908152600260205260408120610a6191610de1565b60018484604051610a7392919061107d565b90815260405190819003602001902080547fffffffffffffffffffffffff000000000000000000000000000000000000000016905560008054905b81811015610b8f5760008181548110610ac957610ac96113f4565b90600052602060002001604051602001610ae391906110e0565b604051602081830303815290604052805190602001208686604051602001610b0c92919061107d565b6040516020818303038152906040528051906020012003610b7d576000610b34600184611452565b81548110610b4457610b446113f4565b9060005260206000200160008281548110610b6157610b616113f4565b906000526020600020019081610b779190611465565b50610b8f565b80610b878161159c565b915050610aae565b506000805480610ba157610ba16115d4565b600190038181906000526020600020016000610bbd9190610de1565b905560405173ffffffffffffffffffffffffffffffffffffffff8316907f22bc03fb7deb05fc0b86d22d74c307475ea4e7c8d142961ebc727459121fed0f90600090a26001925050505b92915050565b73ffffffffffffffffffffffffffffffffffffffff81166000908152600260205260409020805460609190610c419061108d565b80601f0160208091040260200160405190810160405280929190818152602001828054610c6d9061108d565b8015610cba5780601f10610c8f57610100808354040283529160200191610cba565b820191906000526020600020905b815481529060010190602001808311610c9d57829003601f168201915b50505050509050919050565b60606000805480602002602001604051908101604052809291908181526020016000905b82821015610d96578382906000526020600020018054610d099061108d565b80601f0160208091040260200160405190810160405280929190818152602001828054610d359061108d565b8015610d825780601f10610d5757610100808354040283529160200191610d82565b820191906000526020600020905b815481529060010190602001808311610d6557829003601f168201915b505050505081526020019060010190610cea565b50505050905090565b600060018383604051610db392919061107d565b9081526040519081900360200190205473ffffffffffffffffffffffffffffffffffffffff16905092915050565b508054610ded9061108d565b6000825580601f10610dfd575050565b601f016020900490600052602060002090810190610e1b9190610e1e565b50565b5b80821115610e335760008155600101610e1f565b5090565b73ffffffffffffffffffffffffffffffffffffffff81168114610e1b57600080fd5b600060208284031215610e6b57600080fd5b8151610e7681610e37565b9392505050565b60008083601f840112610e8f57600080fd5b50813567ffffffffffffffff811115610ea757600080fd5b602083019150836020828501011115610ebf57600080fd5b9250929050565b600080600060408486031215610edb57600080fd5b833567ffffffffffffffff811115610ef257600080fd5b610efe86828701610e7d565b9094509250506020840135610f1281610e37565b809150509250925092565b60005b83811015610f38578181015183820152602001610f20565b50506000910152565b60008151808452610f59816020860160208601610f1d565b601f017fffffffffffffffffffffffffffffffffffffffffffffffffffffffffffffffe0169290920160200192915050565b602081526000610e766020830184610f41565b60008060208385031215610fb157600080fd5b823567ffffffffffffffff811115610fc857600080fd5b610fd485828601610e7d565b90969095509350505050565b600060208284031215610ff257600080fd5b8135610e7681610e37565b6000602080830181845280855180835260408601915060408160051b870101925083870160005b82811015611070577fffffffffffffffffffffffffffffffffffffffffffffffffffffffffffffffc088860301845261105e858351610f41565b94509285019290850190600101611024565b5092979650505050505050565b8183823760009101908152919050565b600181811c908216806110a157607f821691505b6020821081036110da577f4e487b7100000000000000000000000000000000000000000000000000000000600052602260045260246000fd5b50919050565b60008083546110ee8161108d565b60018281168015611106576001811461113957611168565b7fffffffffffffffffffffffffffffffffffffffffffffffffffffffffffffff0084168752821515830287019450611168565b8760005260208060002060005b8581101561115f5781548a820152908401908201611146565b50505082870194505b50929695505050505050565b7f4e487b7100000000000000000000000000000000000000000000000000000000600052604160045260246000fd5b6000602082840312156111b557600080fd5b815167ffffffffffffffff808211156111cd57600080fd5b818401915084601f8301126111e157600080fd5b8151818111156111f3576111f3611174565b604051601f82017fffffffffffffffffffffffffffffffffffffffffffffffffffffffffffffffe0908116603f0116810190838211818310171561123957611239611174565b8160405282815287602084870101111561125257600080fd5b611263836020830160208801610f1d565b979650505050505050565b60008251611280818460208701610f1d565b9190910192915050565b601f8211156112d457600081815260208120601f850160051c810160208610156112b15750805b601f850160051c820191505b818110156112d0578281556001016112bd565b5050505b505050565b67ffffffffffffffff8311156112f1576112f1611174565b611305836112ff835461108d565b8361128a565b6000601f84116001811461135757600085156113215750838201355b7fffffffffffffffffffffffffffffffffffffffffffffffffffffffffffffffff600387901b1c1916600186901b1783556113ed565b6000838152602090207fffffffffffffffffffffffffffffffffffffffffffffffffffffffffffffffe0861690835b828110156113a65786850135825560209485019460019092019101611386565b50868210156113e1577fffffffffffffffffffffffffffffffffffffffffffffffffffffffffffffffff60f88860031b161c19848701351681555b505060018560011b0183555b5050505050565b7f4e487b7100000000000000000000000000000000000000000000000000000000600052603260045260246000fd5b7f4e487b7100000000000000000000000000000000000000000000000000000000600052601160045260246000fd5b81810381811115610c0757610c07611423565b818103611470575050565b61147a825461108d565b67ffffffffffffffff81111561149257611492611174565b6114a6816114a0845461108d565b8461128a565b6000601f8211600181146114f857600083156114c25750848201545b7fffffffffffffffffffffffffffffffffffffffffffffffffffffffffffffffff600385901b1c1916600184901b1784556113ed565b6000858152602090207fffffffffffffffffffffffffffffffffffffffffffffffffffffffffffffffe0841690600086815260209020845b838110156115505782860154825560019586019590910190602001611530565b508583101561158c57818501547fffffffffffffffffffffffffffffffffffffffffffffffffffffffffffffffff600388901b60f8161c191681555b5050505050600190811b01905550565b60007fffffffffffffffffffffffffffffffffffffffffffffffffffffffffffffffff82036115cd576115cd611423565b5060010190565b7f4e487b7100000000000000000000000000000000000000000000000000000000600052603160045260246000fdfea264697066735822122052a7602259b33121e96bfe1d2ae2410f7c4f9d45551cf99b6ec0d843bba9651a64736f6c63430008130033",
					"opcodes": "PUSH1 0xA0 PUSH1 0x40 MSTORE CALLVALUE DUP1 ISZERO PUSH2 0x10 JUMPI PUSH1 0x0 DUP1 REVERT JUMPDEST POP PUSH20 0x163342FAE2BBE3303E5A9ADCE4BC9FB44D0FF062 PUSH1 0x1 PUSH1 0x1 PUSH1 0xA0 SHL SUB AND PUSH4 0x15B550D6 PUSH1 0x40 MLOAD DUP2 PUSH4 0xFFFFFFFF AND PUSH1 0xE0 SHL DUP2 MSTORE PUSH1 0x4 ADD PUSH1 0x20 PUSH1 0x40 MLOAD DUP1 DUP4 SUB DUP2 DUP7 GAS STATICCALL ISZERO DUP1 ISZERO PUSH2 0x63 JUMPI RETURNDATASIZE PUSH1 0x0 DUP1 RETURNDATACOPY RETURNDATASIZE PUSH1 0x0 REVERT JUMPDEST POP POP POP POP PUSH1 0x40 MLOAD RETURNDATASIZE PUSH1 0x1F NOT PUSH1 0x1F DUP3 ADD AND DUP3 ADD DUP1 PUSH1 0x40 MSTORE POP DUP2 ADD SWAP1 PUSH2 0x87 SWAP2 SWAP1 PUSH2 0x98 JUMP JUMPDEST PUSH1 0x1 PUSH1 0x1 PUSH1 0xA0 SHL SUB AND PUSH1 0x80 MSTORE PUSH2 0xC8 JUMP JUMPDEST PUSH1 0x0 PUSH1 0x20 DUP3 DUP5 SUB SLT ISZERO PUSH2 0xAA JUMPI PUSH1 0x0 DUP1 REVERT JUMPDEST DUP2 MLOAD PUSH1 0x1 PUSH1 0x1 PUSH1 0xA0 SHL SUB DUP2 AND DUP2 EQ PUSH2 0xC1 JUMPI PUSH1 0x0 DUP1 REVERT JUMPDEST SWAP4 SWAP3 POP POP POP JUMP JUMPDEST PUSH1 0x80 MLOAD PUSH2 0x1639 PUSH2 0xE0 PUSH1 0x0 CODECOPY PUSH1 0x0 POP POP PUSH2 0x1639 PUSH1 0x0 RETURN INVALID PUSH1 0x80 PUSH1 0x40 MSTORE PUSH1 0x4 CALLDATASIZE LT PUSH2 0x69 JUMPI PUSH1 0x0 CALLDATALOAD PUSH1 0xE0 SHR DUP1 PUSH4 0xA56C56C3 GT PUSH2 0x43 JUMPI DUP1 PUSH4 0xA56C56C3 EQ PUSH2 0x2AF JUMPI DUP1 PUSH4 0xD99699DF EQ PUSH2 0x2CF JUMPI DUP1 PUSH4 0xDA240F1E EQ PUSH2 0x2F1 JUMPI PUSH2 0x190 JUMP JUMPDEST DUP1 PUSH4 0x6080E7FF EQ PUSH2 0x204 JUMPI DUP1 PUSH4 0x8052474D EQ PUSH2 0x239 JUMPI DUP1 PUSH4 0x8E9497D2 EQ PUSH2 0x28F JUMPI PUSH2 0x190 JUMP JUMPDEST CALLDATASIZE PUSH2 0x190 JUMPI CALLVALUE ISZERO PUSH2 0x18E JUMPI PUSH1 0x40 MLOAD PUSH32 0xC75FFD8600000000000000000000000000000000000000000000000000000000 DUP2 MSTORE PUSH1 0x20 PUSH1 0x4 DUP3 ADD MSTORE PUSH1 0x12 PUSH1 0x24 DUP3 ADD MSTORE PUSH32 0x2E436F72706F726174696F6E2E5661756C740000000000000000000000000000 PUSH1 0x44 DUP3 ADD MSTORE PUSH20 0x163342FAE2BBE3303E5A9ADCE4BC9FB44D0FF062 SWAP1 PUSH4 0xC75FFD86 SWAP1 PUSH1 0x64 ADD PUSH1 0x20 PUSH1 0x40 MLOAD DUP1 DUP4 SUB DUP2 DUP7 GAS STATICCALL ISZERO DUP1 ISZERO PUSH2 0x10A JUMPI RETURNDATASIZE PUSH1 0x0 DUP1 RETURNDATACOPY RETURNDATASIZE PUSH1 0x0 REVERT JUMPDEST POP POP POP POP PUSH1 0x40 MLOAD RETURNDATASIZE PUSH1 0x1F NOT PUSH1 0x1F DUP3 ADD AND DUP3 ADD DUP1 PUSH1 0x40 MSTORE POP DUP2 ADD SWAP1 PUSH2 0x12E SWAP2 SWAP1 PUSH2 0xE59 JUMP JUMPDEST PUSH20 0xFFFFFFFFFFFFFFFFFFFFFFFFFFFFFFFFFFFFFFFF AND CALLVALUE PUSH1 0x40 MLOAD PUSH1 0x0 PUSH1 0x40 MLOAD DUP1 DUP4 SUB DUP2 DUP6 DUP8 GAS CALL SWAP3 POP POP POP RETURNDATASIZE DUP1 PUSH1 0x0 DUP2 EQ PUSH2 0x185 JUMPI PUSH1 0x40 MLOAD SWAP2 POP PUSH1 0x1F NOT PUSH1 0x3F RETURNDATASIZE ADD AND DUP3 ADD PUSH1 0x40 MSTORE RETURNDATASIZE DUP3 MSTORE RETURNDATASIZE PUSH1 0x0 PUSH1 0x20 DUP5 ADD RETURNDATACOPY PUSH2 0x18A JUMP JUMPDEST PUSH1 0x60 SWAP2 POP JUMPDEST POP POP POP JUMPDEST STOP JUMPDEST CALLVALUE DUP1 ISZERO PUSH2 0x19C JUMPI PUSH1 0x0 DUP1 REVERT JUMPDEST POP PUSH1 0x40 MLOAD PUSH32 0x8C379A000000000000000000000000000000000000000000000000000000000 DUP2 MSTORE PUSH1 0x20 PUSH1 0x4 DUP3 ADD MSTORE PUSH1 0x1C PUSH1 0x24 DUP3 ADD MSTORE PUSH32 0x43757272656E636965732066616C6C6261636B20726576657274656400000000 PUSH1 0x44 DUP3 ADD MSTORE PUSH1 0x64 ADD JUMPDEST PUSH1 0x40 MLOAD DUP1 SWAP2 SUB SWAP1 REVERT JUMPDEST CALLVALUE DUP1 ISZERO PUSH2 0x210 JUMPI PUSH1 0x0 DUP1 REVERT JUMPDEST POP PUSH2 0x224 PUSH2 0x21F CALLDATASIZE PUSH1 0x4 PUSH2 0xEC6 JUMP JUMPDEST PUSH2 0x336 JUMP JUMPDEST PUSH1 0x40 MLOAD SWAP1 ISZERO ISZERO DUP2 MSTORE PUSH1 0x20 ADD JUMPDEST PUSH1 0x40 MLOAD DUP1 SWAP2 SUB SWAP1 RETURN JUMPDEST CALLVALUE DUP1 ISZERO PUSH2 0x245 JUMPI PUSH1 0x0 DUP1 REVERT JUMPDEST POP PUSH2 0x282 PUSH1 0x40 MLOAD DUP1 PUSH1 0x40 ADD PUSH1 0x40 MSTORE DUP1 PUSH1 0x13 DUP2 MSTORE PUSH1 0x20 ADD PUSH32 0x2E5061796D656E742E43757272656E6369657300000000000000000000000000 DUP2 MSTORE POP DUP2 JUMP JUMPDEST PUSH1 0x40 MLOAD PUSH2 0x230 SWAP2 SWAP1 PUSH2 0xF8B JUMP JUMPDEST CALLVALUE DUP1 ISZERO PUSH2 0x29B JUMPI PUSH1 0x0 DUP1 REVERT JUMPDEST POP PUSH2 0x224 PUSH2 0x2AA CALLDATASIZE PUSH1 0x4 PUSH2 0xF9E JUMP JUMPDEST PUSH2 0x877 JUMP JUMPDEST CALLVALUE DUP1 ISZERO PUSH2 0x2BB JUMPI PUSH1 0x0 DUP1 REVERT JUMPDEST POP PUSH2 0x282 PUSH2 0x2CA CALLDATASIZE PUSH1 0x4 PUSH2 0xFE0 JUMP JUMPDEST PUSH2 0xC0D JUMP JUMPDEST CALLVALUE DUP1 ISZERO PUSH2 0x2DB JUMPI PUSH1 0x0 DUP1 REVERT JUMPDEST POP PUSH2 0x2E4 PUSH2 0xCC6 JUMP JUMPDEST PUSH1 0x40 MLOAD PUSH2 0x230 SWAP2 SWAP1 PUSH2 0xFFD JUMP JUMPDEST CALLVALUE DUP1 ISZERO PUSH2 0x2FD JUMPI PUSH1 0x0 DUP1 REVERT JUMPDEST POP PUSH2 0x311 PUSH2 0x30C CALLDATASIZE PUSH1 0x4 PUSH2 0xF9E JUMP JUMPDEST PUSH2 0xD9F JUMP JUMPDEST PUSH1 0x40 MLOAD PUSH20 0xFFFFFFFFFFFFFFFFFFFFFFFFFFFFFFFFFFFFFFFF SWAP1 SWAP2 AND DUP2 MSTORE PUSH1 0x20 ADD PUSH2 0x230 JUMP JUMPDEST PUSH1 0x0 CALLER PUSH20 0xFFFFFFFFFFFFFFFFFFFFFFFFFFFFFFFFFFFFFFFF AND PUSH20 0x163342FAE2BBE3303E5A9ADCE4BC9FB44D0FF062 PUSH20 0xFFFFFFFFFFFFFFFFFFFFFFFFFFFFFFFFFFFFFFFF AND PUSH4 0xB4A99A4E PUSH1 0x40 MLOAD DUP2 PUSH4 0xFFFFFFFF AND PUSH1 0xE0 SHL DUP2 MSTORE PUSH1 0x4 ADD PUSH1 0x20 PUSH1 0x40 MLOAD DUP1 DUP4 SUB DUP2 DUP7 GAS STATICCALL ISZERO DUP1 ISZERO PUSH2 0x3AE JUMPI RETURNDATASIZE PUSH1 0x0 DUP1 RETURNDATACOPY RETURNDATASIZE PUSH1 0x0 REVERT JUMPDEST POP POP POP POP PUSH1 0x40 MLOAD RETURNDATASIZE PUSH1 0x1F NOT PUSH1 0x1F DUP3 ADD AND DUP3 ADD DUP1 PUSH1 0x40 MSTORE POP DUP2 ADD SWAP1 PUSH2 0x3D2 SWAP2 SWAP1 PUSH2 0xE59 JUMP JUMPDEST PUSH20 0xFFFFFFFFFFFFFFFFFFFFFFFFFFFFFFFFFFFFFFFF AND EQ PUSH2 0x44F JUMPI PUSH1 0x40 MLOAD PUSH32 0x8C379A000000000000000000000000000000000000000000000000000000000 DUP2 MSTORE PUSH1 0x20 PUSH1 0x4 DUP3 ADD MSTORE PUSH1 0xA PUSH1 0x24 DUP3 ADD MSTORE PUSH32 0x4F776E6572206F6E6C7900000000000000000000000000000000000000000000 PUSH1 0x44 DUP3 ADD MSTORE PUSH1 0x64 ADD PUSH2 0x1FB JUMP JUMPDEST PUSH1 0x0 PUSH1 0x1 DUP6 DUP6 PUSH1 0x40 MLOAD PUSH2 0x463 SWAP3 SWAP2 SWAP1 PUSH2 0x107D JUMP JUMPDEST SWAP1 DUP2 MSTORE PUSH1 0x40 MLOAD SWAP1 DUP2 SWAP1 SUB PUSH1 0x20 ADD SWAP1 KECCAK256 SLOAD PUSH20 0xFFFFFFFFFFFFFFFFFFFFFFFFFFFFFFFFFFFFFFFF AND SWAP1 POP DUP1 ISZERO PUSH2 0x4F3 JUMPI PUSH1 0x40 MLOAD PUSH32 0x8C379A000000000000000000000000000000000000000000000000000000000 DUP2 MSTORE PUSH1 0x20 PUSH1 0x4 DUP3 ADD MSTORE PUSH1 0x13 PUSH1 0x24 DUP3 ADD MSTORE PUSH32 0x53796D626F6C20616C7265616479207573656400000000000000000000000000 PUSH1 0x44 DUP3 ADD MSTORE PUSH1 0x64 ADD PUSH2 0x1FB JUMP JUMPDEST PUSH1 0x40 DUP1 MLOAD PUSH1 0x0 DUP1 DUP3 MSTORE PUSH1 0x20 DUP1 DUP4 ADD DUP1 DUP6 MSTORE DUP4 MLOAD SWAP1 KECCAK256 PUSH20 0xFFFFFFFFFFFFFFFFFFFFFFFFFFFFFFFFFFFFFFFF DUP9 AND DUP4 MSTORE PUSH1 0x2 SWAP1 SWAP2 MSTORE SWAP1 DUP4 SWAP1 KECCAK256 SWAP1 SWAP3 PUSH2 0x536 SWAP3 ADD PUSH2 0x10E0 JUMP JUMPDEST PUSH1 0x40 MLOAD PUSH1 0x20 DUP2 DUP4 SUB SUB DUP2 MSTORE SWAP1 PUSH1 0x40 MSTORE DUP1 MLOAD SWAP1 PUSH1 0x20 ADD KECCAK256 EQ PUSH2 0x5B3 JUMPI PUSH1 0x40 MLOAD PUSH32 0x8C379A000000000000000000000000000000000000000000000000000000000 DUP2 MSTORE PUSH1 0x20 PUSH1 0x4 DUP3 ADD MSTORE PUSH1 0x14 PUSH1 0x24 DUP3 ADD MSTORE PUSH32 0x4164647265737320616C72656164792075736564000000000000000000000000 PUSH1 0x44 DUP3 ADD MSTORE PUSH1 0x64 ADD PUSH2 0x1FB JUMP JUMPDEST DUP3 EXTCODESIZE PUSH4 0xFFFFFFFF DUP2 AND PUSH1 0x0 SUB PUSH2 0x625 JUMPI PUSH1 0x40 MLOAD PUSH32 0x8C379A000000000000000000000000000000000000000000000000000000000 DUP2 MSTORE PUSH1 0x20 PUSH1 0x4 DUP3 ADD MSTORE PUSH1 0xE PUSH1 0x24 DUP3 ADD MSTORE PUSH32 0x4E6F74206120636F6E7472616374000000000000000000000000000000000000 PUSH1 0x44 DUP3 ADD MSTORE PUSH1 0x64 ADD PUSH2 0x1FB JUMP JUMPDEST PUSH1 0x0 DUP5 PUSH20 0xFFFFFFFFFFFFFFFFFFFFFFFFFFFFFFFFFFFFFFFF AND PUSH4 0x95D89B41 PUSH1 0x40 MLOAD DUP2 PUSH4 0xFFFFFFFF AND PUSH1 0xE0 SHL DUP2 MSTORE PUSH1 0x4 ADD PUSH1 0x0 PUSH1 0x40 MLOAD DUP1 DUP4 SUB DUP2 DUP7 GAS STATICCALL ISZERO DUP1 ISZERO PUSH2 0x672 JUMPI RETURNDATASIZE PUSH1 0x0 DUP1 RETURNDATACOPY RETURNDATASIZE PUSH1 0x0 REVERT JUMPDEST POP POP POP POP PUSH1 0x40 MLOAD RETURNDATASIZE PUSH1 0x0 DUP3 RETURNDATACOPY PUSH1 0x1F RETURNDATASIZE SWAP1 DUP2 ADD PUSH32 0xFFFFFFFFFFFFFFFFFFFFFFFFFFFFFFFFFFFFFFFFFFFFFFFFFFFFFFFFFFFFFFE0 AND DUP3 ADD PUSH1 0x40 MSTORE PUSH2 0x6B8 SWAP2 SWAP1 DUP2 ADD SWAP1 PUSH2 0x11A3 JUMP JUMPDEST SWAP1 POP DUP1 PUSH1 0x40 MLOAD PUSH1 0x20 ADD PUSH2 0x6CB SWAP2 SWAP1 PUSH2 0x126E JUMP JUMPDEST PUSH1 0x40 MLOAD PUSH1 0x20 DUP2 DUP4 SUB SUB DUP2 MSTORE SWAP1 PUSH1 0x40 MSTORE DUP1 MLOAD SWAP1 PUSH1 0x20 ADD KECCAK256 DUP8 DUP8 PUSH1 0x40 MLOAD PUSH1 0x20 ADD PUSH2 0x6F4 SWAP3 SWAP2 SWAP1 PUSH2 0x107D JUMP JUMPDEST PUSH1 0x40 MLOAD PUSH1 0x20 DUP2 DUP4 SUB SUB DUP2 MSTORE SWAP1 PUSH1 0x40 MSTORE DUP1 MLOAD SWAP1 PUSH1 0x20 ADD KECCAK256 EQ PUSH2 0x771 JUMPI PUSH1 0x40 MLOAD PUSH32 0x8C379A000000000000000000000000000000000000000000000000000000000 DUP2 MSTORE PUSH1 0x20 PUSH1 0x4 DUP3 ADD MSTORE PUSH1 0xF PUSH1 0x24 DUP3 ADD MSTORE PUSH32 0x53796D626F6C206D69736D617463680000000000000000000000000000000000 PUSH1 0x44 DUP3 ADD MSTORE PUSH1 0x64 ADD PUSH2 0x1FB JUMP JUMPDEST DUP5 PUSH1 0x1 DUP9 DUP9 PUSH1 0x40 MLOAD PUSH2 0x784 SWAP3 SWAP2 SWAP1 PUSH2 0x107D JUMP JUMPDEST SWAP1 DUP2 MSTORE PUSH1 0x40 DUP1 MLOAD PUSH1 0x20 SWAP3 DUP2 SWAP1 SUB DUP4 ADD SWAP1 KECCAK256 DUP1 SLOAD PUSH32 0xFFFFFFFFFFFFFFFFFFFFFFFF0000000000000000000000000000000000000000 AND PUSH20 0xFFFFFFFFFFFFFFFFFFFFFFFFFFFFFFFFFFFFFFFF SWAP5 DUP6 AND OR SWAP1 SSTORE SWAP2 DUP8 AND PUSH1 0x0 SWAP1 DUP2 MSTORE PUSH1 0x2 SWAP1 SWAP2 MSTORE KECCAK256 PUSH2 0x7ED DUP8 DUP10 DUP4 PUSH2 0x12D9 JUMP JUMPDEST POP PUSH1 0x0 DUP1 SLOAD PUSH1 0x1 DUP2 ADD DUP3 SSTORE SWAP1 DUP1 MSTORE PUSH32 0x290DECD9548B62A8D60345A988386FC84BA6BC95484008F6362F93160EF3E563 ADD PUSH2 0x828 DUP8 DUP10 DUP4 PUSH2 0x12D9 JUMP JUMPDEST POP PUSH1 0x40 MLOAD PUSH20 0xFFFFFFFFFFFFFFFFFFFFFFFFFFFFFFFFFFFFFFFF DUP7 AND SWAP1 PUSH32 0x2014B559C1EE999C8F4C928818D91E9E88AA4E2CCEEAEC16156472AB9E1C9ADC SWAP1 PUSH1 0x0 SWAP1 LOG2 POP PUSH1 0x1 SWAP7 SWAP6 POP POP POP POP POP POP JUMP JUMPDEST PUSH1 0x0 CALLER PUSH20 0xFFFFFFFFFFFFFFFFFFFFFFFFFFFFFFFFFFFFFFFF AND PUSH20 0x163342FAE2BBE3303E5A9ADCE4BC9FB44D0FF062 PUSH20 0xFFFFFFFFFFFFFFFFFFFFFFFFFFFFFFFFFFFFFFFF AND PUSH4 0xB4A99A4E PUSH1 0x40 MLOAD DUP2 PUSH4 0xFFFFFFFF AND PUSH1 0xE0 SHL DUP2 MSTORE PUSH1 0x4 ADD PUSH1 0x20 PUSH1 0x40 MLOAD DUP1 DUP4 SUB DUP2 DUP7 GAS STATICCALL ISZERO DUP1 ISZERO PUSH2 0x8EF JUMPI RETURNDATASIZE PUSH1 0x0 DUP1 RETURNDATACOPY RETURNDATASIZE PUSH1 0x0 REVERT JUMPDEST POP POP POP POP PUSH1 0x40 MLOAD RETURNDATASIZE PUSH1 0x1F NOT PUSH1 0x1F DUP3 ADD AND DUP3 ADD DUP1 PUSH1 0x40 MSTORE POP DUP2 ADD SWAP1 PUSH2 0x913 SWAP2 SWAP1 PUSH2 0xE59 JUMP JUMPDEST PUSH20 0xFFFFFFFFFFFFFFFFFFFFFFFFFFFFFFFFFFFFFFFF AND EQ PUSH2 0x990 JUMPI PUSH1 0x40 MLOAD PUSH32 0x8C379A000000000000000000000000000000000000000000000000000000000 DUP2 MSTORE PUSH1 0x20 PUSH1 0x4 DUP3 ADD MSTORE PUSH1 0xA PUSH1 0x24 DUP3 ADD MSTORE PUSH32 0x4F776E6572206F6E6C7900000000000000000000000000000000000000000000 PUSH1 0x44 DUP3 ADD MSTORE PUSH1 0x64 ADD PUSH2 0x1FB JUMP JUMPDEST PUSH1 0x0 PUSH1 0x1 DUP5 DUP5 PUSH1 0x40 MLOAD PUSH2 0x9A4 SWAP3 SWAP2 SWAP1 PUSH2 0x107D JUMP JUMPDEST SWAP1 DUP2 MSTORE PUSH1 0x40 MLOAD SWAP1 DUP2 SWAP1 SUB PUSH1 0x20 ADD SWAP1 KECCAK256 SLOAD PUSH20 0xFFFFFFFFFFFFFFFFFFFFFFFFFFFFFFFFFFFFFFFF AND SWAP1 POP DUP1 PUSH2 0xA33 JUMPI PUSH1 0x40 MLOAD PUSH32 0x8C379A000000000000000000000000000000000000000000000000000000000 DUP2 MSTORE PUSH1 0x20 PUSH1 0x4 DUP3 ADD MSTORE PUSH1 0xF PUSH1 0x24 DUP3 ADD MSTORE PUSH32 0x53796D626F6C206E6F7420757365640000000000000000000000000000000000 PUSH1 0x44 DUP3 ADD MSTORE PUSH1 0x64 ADD PUSH2 0x1FB JUMP JUMPDEST PUSH20 0xFFFFFFFFFFFFFFFFFFFFFFFFFFFFFFFFFFFFFFFF DUP2 AND PUSH1 0x0 SWAP1 DUP2 MSTORE PUSH1 0x2 PUSH1 0x20 MSTORE PUSH1 0x40 DUP2 KECCAK256 PUSH2 0xA61 SWAP2 PUSH2 0xDE1 JUMP JUMPDEST PUSH1 0x1 DUP5 DUP5 PUSH1 0x40 MLOAD PUSH2 0xA73 SWAP3 SWAP2 SWAP1 PUSH2 0x107D JUMP JUMPDEST SWAP1 DUP2 MSTORE PUSH1 0x40 MLOAD SWAP1 DUP2 SWAP1 SUB PUSH1 0x20 ADD SWAP1 KECCAK256 DUP1 SLOAD PUSH32 0xFFFFFFFFFFFFFFFFFFFFFFFF0000000000000000000000000000000000000000 AND SWAP1 SSTORE PUSH1 0x0 DUP1 SLOAD SWAP1 JUMPDEST DUP2 DUP2 LT ISZERO PUSH2 0xB8F JUMPI PUSH1 0x0 DUP2 DUP2 SLOAD DUP2 LT PUSH2 0xAC9 JUMPI PUSH2 0xAC9 PUSH2 0x13F4 JUMP JUMPDEST SWAP1 PUSH1 0x0 MSTORE PUSH1 0x20 PUSH1 0x0 KECCAK256 ADD PUSH1 0x40 MLOAD PUSH1 0x20 ADD PUSH2 0xAE3 SWAP2 SWAP1 PUSH2 0x10E0 JUMP JUMPDEST PUSH1 0x40 MLOAD PUSH1 0x20 DUP2 DUP4 SUB SUB DUP2 MSTORE SWAP1 PUSH1 0x40 MSTORE DUP1 MLOAD SWAP1 PUSH1 0x20 ADD KECCAK256 DUP7 DUP7 PUSH1 0x40 MLOAD PUSH1 0x20 ADD PUSH2 0xB0C SWAP3 SWAP2 SWAP1 PUSH2 0x107D JUMP JUMPDEST PUSH1 0x40 MLOAD PUSH1 0x20 DUP2 DUP4 SUB SUB DUP2 MSTORE SWAP1 PUSH1 0x40 MSTORE DUP1 MLOAD SWAP1 PUSH1 0x20 ADD KECCAK256 SUB PUSH2 0xB7D JUMPI PUSH1 0x0 PUSH2 0xB34 PUSH1 0x1 DUP5 PUSH2 0x1452 JUMP JUMPDEST DUP2 SLOAD DUP2 LT PUSH2 0xB44 JUMPI PUSH2 0xB44 PUSH2 0x13F4 JUMP JUMPDEST SWAP1 PUSH1 0x0 MSTORE PUSH1 0x20 PUSH1 0x0 KECCAK256 ADD PUSH1 0x0 DUP3 DUP2 SLOAD DUP2 LT PUSH2 0xB61 JUMPI PUSH2 0xB61 PUSH2 0x13F4 JUMP JUMPDEST SWAP1 PUSH1 0x0 MSTORE PUSH1 0x20 PUSH1 0x0 KECCAK256 ADD SWAP1 DUP2 PUSH2 0xB77 SWAP2 SWAP1 PUSH2 0x1465 JUMP JUMPDEST POP PUSH2 0xB8F JUMP JUMPDEST DUP1 PUSH2 0xB87 DUP2 PUSH2 0x159C JUMP JUMPDEST SWAP2 POP POP PUSH2 0xAAE JUMP JUMPDEST POP PUSH1 0x0 DUP1 SLOAD DUP1 PUSH2 0xBA1 JUMPI PUSH2 0xBA1 PUSH2 0x15D4 JUMP JUMPDEST PUSH1 0x1 SWAP1 SUB DUP2 DUP2 SWAP1 PUSH1 0x0 MSTORE PUSH1 0x20 PUSH1 0x0 KECCAK256 ADD PUSH1 0x0 PUSH2 0xBBD SWAP2 SWAP1 PUSH2 0xDE1 JUMP JUMPDEST SWAP1 SSTORE PUSH1 0x40 MLOAD PUSH20 0xFFFFFFFFFFFFFFFFFFFFFFFFFFFFFFFFFFFFFFFF DUP4 AND SWAP1 PUSH32 0x22BC03FB7DEB05FC0B86D22D74C307475EA4E7C8D142961EBC727459121FED0F SWAP1 PUSH1 0x0 SWAP1 LOG2 PUSH1 0x1 SWAP3 POP POP POP JUMPDEST SWAP3 SWAP2 POP POP JUMP JUMPDEST PUSH20 0xFFFFFFFFFFFFFFFFFFFFFFFFFFFFFFFFFFFFFFFF DUP2 AND PUSH1 0x0 SWAP1 DUP2 MSTORE PUSH1 0x2 PUSH1 0x20 MSTORE PUSH1 0x40 SWAP1 KECCAK256 DUP1 SLOAD PUSH1 0x60 SWAP2 SWAP1 PUSH2 0xC41 SWAP1 PUSH2 0x108D JUMP JUMPDEST DUP1 PUSH1 0x1F ADD PUSH1 0x20 DUP1 SWAP2 DIV MUL PUSH1 0x20 ADD PUSH1 0x40 MLOAD SWAP1 DUP2 ADD PUSH1 0x40 MSTORE DUP1 SWAP3 SWAP2 SWAP1 DUP2 DUP2 MSTORE PUSH1 0x20 ADD DUP3 DUP1 SLOAD PUSH2 0xC6D SWAP1 PUSH2 0x108D JUMP JUMPDEST DUP1 ISZERO PUSH2 0xCBA JUMPI DUP1 PUSH1 0x1F LT PUSH2 0xC8F JUMPI PUSH2 0x100 DUP1 DUP4 SLOAD DIV MUL DUP4 MSTORE SWAP2 PUSH1 0x20 ADD SWAP2 PUSH2 0xCBA JUMP JUMPDEST DUP3 ADD SWAP2 SWAP1 PUSH1 0x0 MSTORE PUSH1 0x20 PUSH1 0x0 KECCAK256 SWAP1 JUMPDEST DUP2 SLOAD DUP2 MSTORE SWAP1 PUSH1 0x1 ADD SWAP1 PUSH1 0x20 ADD DUP1 DUP4 GT PUSH2 0xC9D JUMPI DUP3 SWAP1 SUB PUSH1 0x1F AND DUP3 ADD SWAP2 JUMPDEST POP POP POP POP POP SWAP1 POP SWAP2 SWAP1 POP JUMP JUMPDEST PUSH1 0x60 PUSH1 0x0 DUP1 SLOAD DUP1 PUSH1 0x20 MUL PUSH1 0x20 ADD PUSH1 0x40 MLOAD SWAP1 DUP2 ADD PUSH1 0x40 MSTORE DUP1 SWAP3 SWAP2 SWAP1 DUP2 DUP2 MSTORE PUSH1 0x20 ADD PUSH1 0x0 SWAP1 JUMPDEST DUP3 DUP3 LT ISZERO PUSH2 0xD96 JUMPI DUP4 DUP3 SWAP1 PUSH1 0x0 MSTORE PUSH1 0x20 PUSH1 0x0 KECCAK256 ADD DUP1 SLOAD PUSH2 0xD09 SWAP1 PUSH2 0x108D JUMP JUMPDEST DUP1 PUSH1 0x1F ADD PUSH1 0x20 DUP1 SWAP2 DIV MUL PUSH1 0x20 ADD PUSH1 0x40 MLOAD SWAP1 DUP2 ADD PUSH1 0x40 MSTORE DUP1 SWAP3 SWAP2 SWAP1 DUP2 DUP2 MSTORE PUSH1 0x20 ADD DUP3 DUP1 SLOAD PUSH2 0xD35 SWAP1 PUSH2 0x108D JUMP JUMPDEST DUP1 ISZERO PUSH2 0xD82 JUMPI DUP1 PUSH1 0x1F LT PUSH2 0xD57 JUMPI PUSH2 0x100 DUP1 DUP4 SLOAD DIV MUL DUP4 MSTORE SWAP2 PUSH1 0x20 ADD SWAP2 PUSH2 0xD82 JUMP JUMPDEST DUP3 ADD SWAP2 SWAP1 PUSH1 0x0 MSTORE PUSH1 0x20 PUSH1 0x0 KECCAK256 SWAP1 JUMPDEST DUP2 SLOAD DUP2 MSTORE SWAP1 PUSH1 0x1 ADD SWAP1 PUSH1 0x20 ADD DUP1 DUP4 GT PUSH2 0xD65 JUMPI DUP3 SWAP1 SUB PUSH1 0x1F AND DUP3 ADD SWAP2 JUMPDEST POP POP POP POP POP DUP2 MSTORE PUSH1 0x20 ADD SWAP1 PUSH1 0x1 ADD SWAP1 PUSH2 0xCEA JUMP JUMPDEST POP POP POP POP SWAP1 POP SWAP1 JUMP JUMPDEST PUSH1 0x0 PUSH1 0x1 DUP4 DUP4 PUSH1 0x40 MLOAD PUSH2 0xDB3 SWAP3 SWAP2 SWAP1 PUSH2 0x107D JUMP JUMPDEST SWAP1 DUP2 MSTORE PUSH1 0x40 MLOAD SWAP1 DUP2 SWAP1 SUB PUSH1 0x20 ADD SWAP1 KECCAK256 SLOAD PUSH20 0xFFFFFFFFFFFFFFFFFFFFFFFFFFFFFFFFFFFFFFFF AND SWAP1 POP SWAP3 SWAP2 POP POP JUMP JUMPDEST POP DUP1 SLOAD PUSH2 0xDED SWAP1 PUSH2 0x108D JUMP JUMPDEST PUSH1 0x0 DUP3 SSTORE DUP1 PUSH1 0x1F LT PUSH2 0xDFD JUMPI POP POP JUMP JUMPDEST PUSH1 0x1F ADD PUSH1 0x20 SWAP1 DIV SWAP1 PUSH1 0x0 MSTORE PUSH1 0x20 PUSH1 0x0 KECCAK256 SWAP1 DUP2 ADD SWAP1 PUSH2 0xE1B SWAP2 SWAP1 PUSH2 0xE1E JUMP JUMPDEST POP JUMP JUMPDEST JUMPDEST DUP1 DUP3 GT ISZERO PUSH2 0xE33 JUMPI PUSH1 0x0 DUP2 SSTORE PUSH1 0x1 ADD PUSH2 0xE1F JUMP JUMPDEST POP SWAP1 JUMP JUMPDEST PUSH20 0xFFFFFFFFFFFFFFFFFFFFFFFFFFFFFFFFFFFFFFFF DUP2 AND DUP2 EQ PUSH2 0xE1B JUMPI PUSH1 0x0 DUP1 REVERT JUMPDEST PUSH1 0x0 PUSH1 0x20 DUP3 DUP5 SUB SLT ISZERO PUSH2 0xE6B JUMPI PUSH1 0x0 DUP1 REVERT JUMPDEST DUP2 MLOAD PUSH2 0xE76 DUP2 PUSH2 0xE37 JUMP JUMPDEST SWAP4 SWAP3 POP POP POP JUMP JUMPDEST PUSH1 0x0 DUP1 DUP4 PUSH1 0x1F DUP5 ADD SLT PUSH2 0xE8F JUMPI PUSH1 0x0 DUP1 REVERT JUMPDEST POP DUP2 CALLDATALOAD PUSH8 0xFFFFFFFFFFFFFFFF DUP2 GT ISZERO PUSH2 0xEA7 JUMPI PUSH1 0x0 DUP1 REVERT JUMPDEST PUSH1 0x20 DUP4 ADD SWAP2 POP DUP4 PUSH1 0x20 DUP3 DUP6 ADD ADD GT ISZERO PUSH2 0xEBF JUMPI PUSH1 0x0 DUP1 REVERT JUMPDEST SWAP3 POP SWAP3 SWAP1 POP JUMP JUMPDEST PUSH1 0x0 DUP1 PUSH1 0x0 PUSH1 0x40 DUP5 DUP7 SUB SLT ISZERO PUSH2 0xEDB JUMPI PUSH1 0x0 DUP1 REVERT JUMPDEST DUP4 CALLDATALOAD PUSH8 0xFFFFFFFFFFFFFFFF DUP2 GT ISZERO PUSH2 0xEF2 JUMPI PUSH1 0x0 DUP1 REVERT JUMPDEST PUSH2 0xEFE DUP7 DUP3 DUP8 ADD PUSH2 0xE7D JUMP JUMPDEST SWAP1 SWAP5 POP SWAP3 POP POP PUSH1 0x20 DUP5 ADD CALLDATALOAD PUSH2 0xF12 DUP2 PUSH2 0xE37 JUMP JUMPDEST DUP1 SWAP2 POP POP SWAP3 POP SWAP3 POP SWAP3 JUMP JUMPDEST PUSH1 0x0 JUMPDEST DUP4 DUP2 LT ISZERO PUSH2 0xF38 JUMPI DUP2 DUP2 ADD MLOAD DUP4 DUP3 ADD MSTORE PUSH1 0x20 ADD PUSH2 0xF20 JUMP JUMPDEST POP POP PUSH1 0x0 SWAP2 ADD MSTORE JUMP JUMPDEST PUSH1 0x0 DUP2 MLOAD DUP1 DUP5 MSTORE PUSH2 0xF59 DUP2 PUSH1 0x20 DUP7 ADD PUSH1 0x20 DUP7 ADD PUSH2 0xF1D JUMP JUMPDEST PUSH1 0x1F ADD PUSH32 0xFFFFFFFFFFFFFFFFFFFFFFFFFFFFFFFFFFFFFFFFFFFFFFFFFFFFFFFFFFFFFFE0 AND SWAP3 SWAP1 SWAP3 ADD PUSH1 0x20 ADD SWAP3 SWAP2 POP POP JUMP JUMPDEST PUSH1 0x20 DUP2 MSTORE PUSH1 0x0 PUSH2 0xE76 PUSH1 0x20 DUP4 ADD DUP5 PUSH2 0xF41 JUMP JUMPDEST PUSH1 0x0 DUP1 PUSH1 0x20 DUP4 DUP6 SUB SLT ISZERO PUSH2 0xFB1 JUMPI PUSH1 0x0 DUP1 REVERT JUMPDEST DUP3 CALLDATALOAD PUSH8 0xFFFFFFFFFFFFFFFF DUP2 GT ISZERO PUSH2 0xFC8 JUMPI PUSH1 0x0 DUP1 REVERT JUMPDEST PUSH2 0xFD4 DUP6 DUP3 DUP7 ADD PUSH2 0xE7D JUMP JUMPDEST SWAP1 SWAP7 SWAP1 SWAP6 POP SWAP4 POP POP POP POP JUMP JUMPDEST PUSH1 0x0 PUSH1 0x20 DUP3 DUP5 SUB SLT ISZERO PUSH2 0xFF2 JUMPI PUSH1 0x0 DUP1 REVERT JUMPDEST DUP2 CALLDATALOAD PUSH2 0xE76 DUP2 PUSH2 0xE37 JUMP JUMPDEST PUSH1 0x0 PUSH1 0x20 DUP1 DUP4 ADD DUP2 DUP5 MSTORE DUP1 DUP6 MLOAD DUP1 DUP4 MSTORE PUSH1 0x40 DUP7 ADD SWAP2 POP PUSH1 0x40 DUP2 PUSH1 0x5 SHL DUP8 ADD ADD SWAP3 POP DUP4 DUP8 ADD PUSH1 0x0 JUMPDEST DUP3 DUP2 LT ISZERO PUSH2 0x1070 JUMPI PUSH32 0xFFFFFFFFFFFFFFFFFFFFFFFFFFFFFFFFFFFFFFFFFFFFFFFFFFFFFFFFFFFFFFC0 DUP9 DUP7 SUB ADD DUP5 MSTORE PUSH2 0x105E DUP6 DUP4 MLOAD PUSH2 0xF41 JUMP JUMPDEST SWAP5 POP SWAP3 DUP6 ADD SWAP3 SWAP1 DUP6 ADD SWAP1 PUSH1 0x1 ADD PUSH2 0x1024 JUMP JUMPDEST POP SWAP3 SWAP8 SWAP7 POP POP POP POP POP POP POP JUMP JUMPDEST DUP2 DUP4 DUP3 CALLDATACOPY PUSH1 0x0 SWAP2 ADD SWAP1 DUP2 MSTORE SWAP2 SWAP1 POP JUMP JUMPDEST PUSH1 0x1 DUP2 DUP2 SHR SWAP1 DUP3 AND DUP1 PUSH2 0x10A1 JUMPI PUSH1 0x7F DUP3 AND SWAP2 POP JUMPDEST PUSH1 0x20 DUP3 LT DUP2 SUB PUSH2 0x10DA JUMPI PUSH32 0x4E487B7100000000000000000000000000000000000000000000000000000000 PUSH1 0x0 MSTORE PUSH1 0x22 PUSH1 0x4 MSTORE PUSH1 0x24 PUSH1 0x0 REVERT JUMPDEST POP SWAP2 SWAP1 POP JUMP JUMPDEST PUSH1 0x0 DUP1 DUP4 SLOAD PUSH2 0x10EE DUP2 PUSH2 0x108D JUMP JUMPDEST PUSH1 0x1 DUP3 DUP2 AND DUP1 ISZERO PUSH2 0x1106 JUMPI PUSH1 0x1 DUP2 EQ PUSH2 0x1139 JUMPI PUSH2 0x1168 JUMP JUMPDEST PUSH32 0xFFFFFFFFFFFFFFFFFFFFFFFFFFFFFFFFFFFFFFFFFFFFFFFFFFFFFFFFFFFFFF00 DUP5 AND DUP8 MSTORE DUP3 ISZERO ISZERO DUP4 MUL DUP8 ADD SWAP5 POP PUSH2 0x1168 JUMP JUMPDEST DUP8 PUSH1 0x0 MSTORE PUSH1 0x20 DUP1 PUSH1 0x0 KECCAK256 PUSH1 0x0 JUMPDEST DUP6 DUP2 LT ISZERO PUSH2 0x115F JUMPI DUP2 SLOAD DUP11 DUP3 ADD MSTORE SWAP1 DUP5 ADD SWAP1 DUP3 ADD PUSH2 0x1146 JUMP JUMPDEST POP POP POP DUP3 DUP8 ADD SWAP5 POP JUMPDEST POP SWAP3 SWAP7 SWAP6 POP POP POP POP POP POP JUMP JUMPDEST PUSH32 0x4E487B7100000000000000000000000000000000000000000000000000000000 PUSH1 0x0 MSTORE PUSH1 0x41 PUSH1 0x4 MSTORE PUSH1 0x24 PUSH1 0x0 REVERT JUMPDEST PUSH1 0x0 PUSH1 0x20 DUP3 DUP5 SUB SLT ISZERO PUSH2 0x11B5 JUMPI PUSH1 0x0 DUP1 REVERT JUMPDEST DUP2 MLOAD PUSH8 0xFFFFFFFFFFFFFFFF DUP1 DUP3 GT ISZERO PUSH2 0x11CD JUMPI PUSH1 0x0 DUP1 REVERT JUMPDEST DUP2 DUP5 ADD SWAP2 POP DUP5 PUSH1 0x1F DUP4 ADD SLT PUSH2 0x11E1 JUMPI PUSH1 0x0 DUP1 REVERT JUMPDEST DUP2 MLOAD DUP2 DUP2 GT ISZERO PUSH2 0x11F3 JUMPI PUSH2 0x11F3 PUSH2 0x1174 JUMP JUMPDEST PUSH1 0x40 MLOAD PUSH1 0x1F DUP3 ADD PUSH32 0xFFFFFFFFFFFFFFFFFFFFFFFFFFFFFFFFFFFFFFFFFFFFFFFFFFFFFFFFFFFFFFE0 SWAP1 DUP2 AND PUSH1 0x3F ADD AND DUP2 ADD SWAP1 DUP4 DUP3 GT DUP2 DUP4 LT OR ISZERO PUSH2 0x1239 JUMPI PUSH2 0x1239 PUSH2 0x1174 JUMP JUMPDEST DUP2 PUSH1 0x40 MSTORE DUP3 DUP2 MSTORE DUP8 PUSH1 0x20 DUP5 DUP8 ADD ADD GT ISZERO PUSH2 0x1252 JUMPI PUSH1 0x0 DUP1 REVERT JUMPDEST PUSH2 0x1263 DUP4 PUSH1 0x20 DUP4 ADD PUSH1 0x20 DUP9 ADD PUSH2 0xF1D JUMP JUMPDEST SWAP8 SWAP7 POP POP POP POP POP POP POP JUMP JUMPDEST PUSH1 0x0 DUP3 MLOAD PUSH2 0x1280 DUP2 DUP5 PUSH1 0x20 DUP8 ADD PUSH2 0xF1D JUMP JUMPDEST SWAP2 SWAP1 SWAP2 ADD SWAP3 SWAP2 POP POP JUMP JUMPDEST PUSH1 0x1F DUP3 GT ISZERO PUSH2 0x12D4 JUMPI PUSH1 0x0 DUP2 DUP2 MSTORE PUSH1 0x20 DUP2 KECCAK256 PUSH1 0x1F DUP6 ADD PUSH1 0x5 SHR DUP2 ADD PUSH1 0x20 DUP7 LT ISZERO PUSH2 0x12B1 JUMPI POP DUP1 JUMPDEST PUSH1 0x1F DUP6 ADD PUSH1 0x5 SHR DUP3 ADD SWAP2 POP JUMPDEST DUP2 DUP2 LT ISZERO PUSH2 0x12D0 JUMPI DUP3 DUP2 SSTORE PUSH1 0x1 ADD PUSH2 0x12BD JUMP JUMPDEST POP POP POP JUMPDEST POP POP POP JUMP JUMPDEST PUSH8 0xFFFFFFFFFFFFFFFF DUP4 GT ISZERO PUSH2 0x12F1 JUMPI PUSH2 0x12F1 PUSH2 0x1174 JUMP JUMPDEST PUSH2 0x1305 DUP4 PUSH2 0x12FF DUP4 SLOAD PUSH2 0x108D JUMP JUMPDEST DUP4 PUSH2 0x128A JUMP JUMPDEST PUSH1 0x0 PUSH1 0x1F DUP5 GT PUSH1 0x1 DUP2 EQ PUSH2 0x1357 JUMPI PUSH1 0x0 DUP6 ISZERO PUSH2 0x1321 JUMPI POP DUP4 DUP3 ADD CALLDATALOAD JUMPDEST PUSH32 0xFFFFFFFFFFFFFFFFFFFFFFFFFFFFFFFFFFFFFFFFFFFFFFFFFFFFFFFFFFFFFFFF PUSH1 0x3 DUP8 SWAP1 SHL SHR NOT AND PUSH1 0x1 DUP7 SWAP1 SHL OR DUP4 SSTORE PUSH2 0x13ED JUMP JUMPDEST PUSH1 0x0 DUP4 DUP2 MSTORE PUSH1 0x20 SWAP1 KECCAK256 PUSH32 0xFFFFFFFFFFFFFFFFFFFFFFFFFFFFFFFFFFFFFFFFFFFFFFFFFFFFFFFFFFFFFFE0 DUP7 AND SWAP1 DUP4 JUMPDEST DUP3 DUP2 LT ISZERO PUSH2 0x13A6 JUMPI DUP7 DUP6 ADD CALLDATALOAD DUP3 SSTORE PUSH1 0x20 SWAP5 DUP6 ADD SWAP5 PUSH1 0x1 SWAP1 SWAP3 ADD SWAP2 ADD PUSH2 0x1386 JUMP JUMPDEST POP DUP7 DUP3 LT ISZERO PUSH2 0x13E1 JUMPI PUSH32 0xFFFFFFFFFFFFFFFFFFFFFFFFFFFFFFFFFFFFFFFFFFFFFFFFFFFFFFFFFFFFFFFF PUSH1 0xF8 DUP9 PUSH1 0x3 SHL AND SHR NOT DUP5 DUP8 ADD CALLDATALOAD AND DUP2 SSTORE JUMPDEST POP POP PUSH1 0x1 DUP6 PUSH1 0x1 SHL ADD DUP4 SSTORE JUMPDEST POP POP POP POP POP JUMP JUMPDEST PUSH32 0x4E487B7100000000000000000000000000000000000000000000000000000000 PUSH1 0x0 MSTORE PUSH1 0x32 PUSH1 0x4 MSTORE PUSH1 0x24 PUSH1 0x0 REVERT JUMPDEST PUSH32 0x4E487B7100000000000000000000000000000000000000000000000000000000 PUSH1 0x0 MSTORE PUSH1 0x11 PUSH1 0x4 MSTORE PUSH1 0x24 PUSH1 0x0 REVERT JUMPDEST DUP2 DUP2 SUB DUP2 DUP2 GT ISZERO PUSH2 0xC07 JUMPI PUSH2 0xC07 PUSH2 0x1423 JUMP JUMPDEST DUP2 DUP2 SUB PUSH2 0x1470 JUMPI POP POP JUMP JUMPDEST PUSH2 0x147A DUP3 SLOAD PUSH2 0x108D JUMP JUMPDEST PUSH8 0xFFFFFFFFFFFFFFFF DUP2 GT ISZERO PUSH2 0x1492 JUMPI PUSH2 0x1492 PUSH2 0x1174 JUMP JUMPDEST PUSH2 0x14A6 DUP2 PUSH2 0x14A0 DUP5 SLOAD PUSH2 0x108D JUMP JUMPDEST DUP5 PUSH2 0x128A JUMP JUMPDEST PUSH1 0x0 PUSH1 0x1F DUP3 GT PUSH1 0x1 DUP2 EQ PUSH2 0x14F8 JUMPI PUSH1 0x0 DUP4 ISZERO PUSH2 0x14C2 JUMPI POP DUP5 DUP3 ADD SLOAD JUMPDEST PUSH32 0xFFFFFFFFFFFFFFFFFFFFFFFFFFFFFFFFFFFFFFFFFFFFFFFFFFFFFFFFFFFFFFFF PUSH1 0x3 DUP6 SWAP1 SHL SHR NOT AND PUSH1 0x1 DUP5 SWAP1 SHL OR DUP5 SSTORE PUSH2 0x13ED JUMP JUMPDEST PUSH1 0x0 DUP6 DUP2 MSTORE PUSH1 0x20 SWAP1 KECCAK256 PUSH32 0xFFFFFFFFFFFFFFFFFFFFFFFFFFFFFFFFFFFFFFFFFFFFFFFFFFFFFFFFFFFFFFE0 DUP5 AND SWAP1 PUSH1 0x0 DUP7 DUP2 MSTORE PUSH1 0x20 SWAP1 KECCAK256 DUP5 JUMPDEST DUP4 DUP2 LT ISZERO PUSH2 0x1550 JUMPI DUP3 DUP7 ADD SLOAD DUP3 SSTORE PUSH1 0x1 SWAP6 DUP7 ADD SWAP6 SWAP1 SWAP2 ADD SWAP1 PUSH1 0x20 ADD PUSH2 0x1530 JUMP JUMPDEST POP DUP6 DUP4 LT ISZERO PUSH2 0x158C JUMPI DUP2 DUP6 ADD SLOAD PUSH32 0xFFFFFFFFFFFFFFFFFFFFFFFFFFFFFFFFFFFFFFFFFFFFFFFFFFFFFFFFFFFFFFFF PUSH1 0x3 DUP9 SWAP1 SHL PUSH1 0xF8 AND SHR NOT AND DUP2 SSTORE JUMPDEST POP POP POP POP POP PUSH1 0x1 SWAP1 DUP2 SHL ADD SWAP1 SSTORE POP JUMP JUMPDEST PUSH1 0x0 PUSH32 0xFFFFFFFFFFFFFFFFFFFFFFFFFFFFFFFFFFFFFFFFFFFFFFFFFFFFFFFFFFFFFFFF DUP3 SUB PUSH2 0x15CD JUMPI PUSH2 0x15CD PUSH2 0x1423 JUMP JUMPDEST POP PUSH1 0x1 ADD SWAP1 JUMP JUMPDEST PUSH32 0x4E487B7100000000000000000000000000000000000000000000000000000000 PUSH1 0x0 MSTORE PUSH1 0x31 PUSH1 0x4 MSTORE PUSH1 0x24 PUSH1 0x0 REVERT INVALID LOG2 PUSH5 0x6970667358 0x22 SLT KECCAK256 MSTORE 0xA7 PUSH1 0x22 MSIZE 0xB3 BALANCE 0x21 0xE9 PUSH12 0xFE1D2AE2410F7C4F9D45551C 0xF9 SWAP12 PUSH15 0xC0D843BBA9651A64736F6C63430008 SGT STOP CALLER "
				},
				"gasEstimates": {
					"creation": {
						"codeDepositCost": "1137800",
						"executionCost": "infinite",
						"totalCost": "infinite"
					},
					"external": {
						"": "276",
						"AddCurrency(string,address)": "infinite",
						"GetCurrencyAddress(string)": "infinite",
						"GetCurrencyList()": "infinite",
						"GetCurrencySymbol(address)": "infinite",
						"Name()": "infinite",
						"RemoveCurrency(string)": "infinite"
					}
				},
				"methodIdentifiers": {
					"AddCurrency(string,address)": "6080e7ff",
					"GetCurrencyAddress(string)": "da240f1e",
					"GetCurrencyList()": "d99699df",
					"GetCurrencySymbol(address)": "a56c56c3",
					"Name()": "8052474d",
					"RemoveCurrency(string)": "8e9497d2"
				}
			},
			"storageLayout": {
				"storage": [
					{
						"astId": 50,
						"contract": "Payment/Currencies.sol:Currencies",
						"label": "currencies",
						"offset": 0,
						"slot": "0",
						"type": "t_array(t_string_storage)dyn_storage"
					},
					{
						"astId": 54,
						"contract": "Payment/Currencies.sol:Currencies",
						"label": "symbolToAddress",
						"offset": 0,
						"slot": "1",
						"type": "t_mapping(t_string_memory_ptr,t_address)"
					},
					{
						"astId": 58,
						"contract": "Payment/Currencies.sol:Currencies",
						"label": "addressToSymbol",
						"offset": 0,
						"slot": "2",
						"type": "t_mapping(t_address,t_string_storage)"
					}
				],
				"types": {
					"t_address": {
						"encoding": "inplace",
						"label": "address",
						"numberOfBytes": "20"
					},
					"t_array(t_string_storage)dyn_storage": {
						"base": "t_string_storage",
						"encoding": "dynamic_array",
						"label": "string[]",
						"numberOfBytes": "32"
					},
					"t_mapping(t_address,t_string_storage)": {
						"encoding": "mapping",
						"key": "t_address",
						"label": "mapping(address => string)",
						"numberOfBytes": "32",
						"value": "t_string_storage"
					},
					"t_mapping(t_string_memory_ptr,t_address)": {
						"encoding": "mapping",
						"key": "t_string_memory_ptr",
						"label": "mapping(string => address)",
						"numberOfBytes": "32",
						"value": "t_address"
					},
					"t_string_memory_ptr": {
						"encoding": "bytes",
						"label": "string",
						"numberOfBytes": "32"
					},
					"t_string_storage": {
						"encoding": "bytes",
						"label": "string",
						"numberOfBytes": "32"
					}
				}
			},
			"userdoc": {
				"kind": "user",
				"methods": {},
				"version": 1
			}
		}
	}
}